:02000002D0002C
:1040000000400D00604F0E00000006000D0005018D
:084010000401DB0700000000C1
:04401800182A0E0054
:1040200009480A49884208B505D0094A824202D0A7
:10403000121A0EF083FB0748074A0021121A0EF0ED
:104040008BFB014808BD00BFC4D503200C4B0E00FC
:10405000F0D90320F0D90320F0E7032070B5074E14
:10406000074C0CF0C5F8A41BA4080025A54200D1FC
:1040700070BD56F8043B98470135F7E7DC4A0E005F
:10408000004B0E0004F02EBE08B503F057FEBDE84D
:1040900008400CF06FB80AF00BBC0AF009BC0AF03B
:1040A0000FBC0078B0FA80F040097047012303701C
:1040B0007047704703681847012A03D0022A03D0CB
:1040C000002070470160FBE70B680360F8E770476A
:1040D00038B5044D312405EB04100AF0C3FF013C50
:1040E000F9D238BDC0E1032010B5044B044640F8B6
:1040F000103B08F013FE204610BD00BFE4340E0054
:1041000010B5034B03600446FFF7EEFF204610BDD9
:104110000C350E00836C13B1184607F06DB8C06CF7
:1041200008B107F0BDBE7047836C13B1184606F0A6
:104130001ABFC06C08B108F0F7BA4FF0FF307047F3
:1041400010B5102104460DF012FB204610BD10B52D
:104150000446FFF7C9FF204650210DF008FB20461A
:1041600010BD10B50446FFF7CBFF204650210DF0DF
:10417000FEFA204610BD10B501230374836804467F
:1041800043B1C0689847012363740020BDE8104024
:104190000AF0DEB800680028F5D083680BB90DF08E
:1041A000ECFAC368EEE708B500200AF061FB28B11D
:1041B0000AF03EFB80F00100C0B208BD0120FCE720
:1041C00070B5064600680C468168114415460AF031
:1041D00067FF2544AC4205D014F8011B30680BF092
:1041E00086F8F7E7002070BD13B5054B1B788DF8F6
:1041F00000303C2304460CF091F9204602B010BD7B
:1042000008DF032010B50446006808B10AF058FB27
:10421000204610BD0EB403B503AB002153F8042BA8
:1042200001930BF0F8FB02B05DF804EB03B07047AC
:1042300073B5044608462279A36832B1A3B90B4985
:1042400002B0BDE870400BF0ABBB094A267B094DBC
:104250000949647B012E18BF2946CDE9001407499E
:10426000FFF7D8FF02B070BD054AEFE73D2A0E0008
:10427000E82F0E00392A0E00352A0E00532A0E00B0
:104280002C2A0E000022406811460AF081BA10B5AF
:104290008368044613B1032201469847204610BDA7
:1042A00038B50568044635B12846FFF7F0FF102100
:1042B00028460DF05CFA20461421BDE838400DF088
:1042C00056BA10B5436904469BB158680AF008F81D
:1042D00078B963695A7C12B958680AF009F86369B9
:1042E00058680AF00DF860690023636108B1FFF7B0
:1042F000D7FF606908B1FFF7D3FF201DFFF7C7FFA5
:10430000204610BD10B586B004468DF81520089AD9
:10431000ADF81610CDE90132012200920DF115031E
:104320000DF116010AF040FD204606B010BD000058
:1043300073B51E4B1D7806460C46ADB901221A70A6
:1043400029462A4601A8019509F086FF019B1E2BEC
:104350000AD103232068A3714FF40023A580A36032
:1043600010B10AF0ADFA2560B4F90430226843B9FF
:1043700042B954F8063F3360A388B380304602B098
:1043800070BD22B19188012903D0042906D00422EE
:1043900005E092896281A1712381EAE702222381EB
:1043A0004FF6FF73A2716381E3E700BF00DA0320D9
:1043B00008B509F021FF014B186008BDB8E70320DC
:1043C00030B587B01D4600230446049322B1204B2C
:1043D0000593204B029204930023E360049B216029
:1043E0003BB1022202A9201D9847059B2361049B33
:1043F000E360194914200DF0BCF930B10022C0E986
:104400000022C0E9022202744274606190B1134B31
:104410001349C0E902340922CDE90005114B0430EB
:1044200009F056FF30B963691B7C4BB9012009F0D4
:10443000D3FEF8E760690023636108B1FFF730FF3E
:10444000FFF7B6FF02A8FFF722FF204607B030BDF6
:10445000B5400D00B9400D00E4480E0055160E00A1
:10446000702A0E0077410D0008B5FFF7A1FFBDE8E7
:1044700008400AF0CDB910B5D0F880448EB00A4695
:1044800064B1002321466846ADF800308DF8023053
:1044900006F049FF00F001000EB010BDD0F8841402
:1044A00041B1234668468DF83140ADF8324008F0FE
:1044B000F2FBEFE70846EDE700B50A46D0F88014B6
:1044C0008FB089B10023ADF800308DF80230684616
:1044D000012306F028FF10B1684605F0F5FF00F053
:1044E00001000FB05DF804FBD0F884040028F6D07A
:1044F0008DF83110ADF8321001230146684608F0FE
:10450000CAFB0028EBD0684607F0C1FBE7E710B50F
:10451000D0F880448EB00A4684B100232146684614
:10452000ADF800308DF8023006F0FDFE10B168469F
:1045300006F03BFE00F001000EB010BDD0F8841470
:1045400069B1234668468DF83140ADF8324008F035
:10455000A2FB0028EED0684607F0F4FBEAE7084625
:10456000E8E700B513460A68D0F880148FB071B13F
:104570000020ADF800008DF8020001F244416846C9
:1045800006F058FF00F001000FB05DF804FBD0F812
:1045900084040028F6D08DF83110ADF8321000F503
:1045A0008961684607F036FDECE710B5134690B018
:1045B0001C68D0F880340A68ABB1002003F2444193
:1045C000ADF808008DF80A00034602A8019106F034
:1045D0005BFE019918B1224602A806F07DFF00F0AB
:1045E000010010B010BDD0F884040028F7D000F509
:1045F000896102A801918DF83930ADF83A3008F0A0
:10460000EAFA01990028EAD0224602A807F066FDDE
:10461000E5E7836B5BB1187810F008001EBFD8691E
:104620005B69C01A0028B8BF6FF000407047C06BCC
:10463000A0B190F831301B0711D5D0E90432D0E990
:1046400000105B1A62EB00021846114600236FF05F
:1046500000428B4208BF824238BF10467047002399
:104660001A46F1E708B51030FFF7D3FF08BD836B9A
:1046700033B11B7813F0700F14BF01200020704776
:10468000C06B0028FBD090F8313013F0500FF3E7E7
:10469000836B23B9C06B003818BF0120704701201D
:1046A0007047836B13B1184606F098BBC06B08B116
:1046B00007F07ABF4FF0FF30704707B501220DF1C8
:1046C00007011030FFF7EDFF01280CBF9DF8070030
:1046D0004FF0FF3003B05DF804FB836B13B1184655
:1046E00006F0C2BFC06B08B107F0AEBD704708B599
:1046F0001030FFF7F2FF08BD07B501228DF8071053
:1047000010300DF10701FFF7E8FF03B05DF804FB7F
:1047100000224FF47A71C0E90121C0E91222014A56
:10472000026070470C350E00B0F90A3013B100EB8F
:10473000031070471846704710B50346D1E90102CF
:104740001030824212D3A2F110008860596859B12A
:10475000441A24114C815860002322F8063C02F8C8
:10476000083C42F8043C10BD1860F4E70020FAE76A
:10477000826810B54AB14368C468A34237BF5C1C65
:1047800000234460D15428BF836010BD10B5044697
:104790000021FFF7EDFFA3683BB1D4E90001E36816
:1047A000CA1A436813444360E160A06810BD012148
:1047B000042009F049BD000070B586B0234A244D9D
:1047C0000E23ADF80C300023CDE9042305F59266E5
:1047D00003AC94E80E00304608F02AFD95F8AB349F
:1047E000C5F88C6423B93146284608F053FB50BB0A
:1047F0000CF0FCF817490BF0E6F8012107200CF04B
:10480000C0FE41F288300BF04FFA002107200CF077
:10481000B8FE43F698200BF047FA64200BF044FAF8
:104820000D4B1B68009302224FF49673062120461D
:10483000FFF768FD4FF47A700BF036FA06B0BDE86A
:1048400070400AF097BA06B070BD00BF80F0FA025F
:1048500038DA0320772A0E0004DF032010B54B68F6
:1048600043608B688360CB68C360044610311030AE
:1048700008F069FA204610BD30B50546BBB00C46BD
:104880000CF0B4F829680BF09EF86A4906A80AF003
:1048900034FC04A809F0C9F806A90AA80AF078FCB3
:1048A0009DF811306449013B01EB83010EA80AF029
:1048B00024FC0EA926A80AF06BFC9DF810100A2211
:1048C00001F5FA6112A80AF092FC12A926A80AF0D2
:1048D0001BFD5A490AF024FD01460AA80AF0F2FC21
:1048E00012A80AF0BFFB26A80AF0BCFB0EA80AF02B
:1048F000B9FB12A8FFF70CFF06995148FFF7BBFD63
:1049000000285AD0002306AA4D4926A808F036FBF5
:1049100026A912A8FFF7A2FF26A8FFF7F1FB16A809
:10492000FFF7A5FEB8B90CF061F846490BF04BF85B
:1049300016A808F0F3F906994148FFF7BDFD404875
:10494000012206A9FFF70DFE40B90CF04FF83E49D1
:104950000BF039F802E016A808F0E0F944F202235F
:104960000AAA374926A808F009FB26A912A8FFF7CA
:1049700075FF26A8FFF7C4FB16A8FFF789FE10BB3A
:104980000CF034F83149044626A80AF0B6FB0AA90F
:1049900026A80AF0B9FC016820460BF014F826A8F6
:1049A0000AF060FB12A8FFF7ABFB0AA80AF05AFB5B
:1049B00006A80AF057FB3BB030BD0CF017F82449AD
:1049C0000BF001F8BBE7611E032907D8DFE801F00F
:1049D000022B2D2F1F4912A80AF0E2FF9DF8153077
:1049E00003939DF814309DF8102002939DF8133026
:1049F00001939DF81230009302F5FA629DF8113090
:104A0000154926A809F06CFF26A912A80AF0C8FFCC
:104A1000296812A80AF0D7FF64200BF045F916A800
:104A200008F07CF9BEE70D49D5E70D49D3E70D49FC
:104A3000D1E700BFAF2A0E004CD90320B62A0E00E2
:104A400038DA0320BB2A0E00CF2A0E00EB2A0E0014
:104A5000DF2A0E00052B0E00302B0E000E2B0E0051
:104A6000192B0E00262B0E001FB5084968460AF0C8
:104A700044FB01216846FFF7FFFE68460AF0F2FAA0
:104A80000AF078F905B05DF804FB00BF4B2B0E006F
:104A900070B590B005460C4604A827490AF02DFBD6
:104AA000294668460AF029FB694604A80AF02CFC4E
:104AB00022490AF035FC2146064608A80AF01DFBEB
:104AC00008A930460AF020FC01460CA80AF060FB59
:104AD00004210CA8FFF7D0FE0CA80AF0C3FA08A81E
:104AE0000AF0C0FA68460AF0BDFA04A80AF0BAFA59
:104AF00029460CA80AF001FB11490CA80AF025FC74
:104B000006460CA80AF0AEFA1EB10E4821460AF07D
:104B10004AFB29460CA80AF0F0FA0B490CA80AF047
:104B200014FC05460CA80AF09DFA1DB10748214661
:104B30000AF039FB10B070BD5C2B0E00E92C0E00A2
:104B4000612B0E0004DA0320762B0E0024DA0320FA
:104B5000F0B54B4C2368002BBBB040F38B80494928
:104B600002A80AF0CAFA12A8FFF7D2FD684608F0B8
:104B70005CFF45490AA80AF0C0FA02A90AA80AF08F
:104B8000C3FB9DF801304149013B01EB8301054620
:104B90000EA80AF0B2FA0EA928460AF0B5FB9DF855
:104BA00000100A22054601F5FA6126A80AF01FFB4B
:104BB00026A928460AF0A8FB35490AF0B1FB0146B0
:104BC00006A80AF0E5FA26A80AF04CFA0EA80AF0A0
:104BD00049FA0AA80AF046FA02992E48FFF74BFC58
:104BE00078B90BF003FF2C490AF0EDFE29480122A9
:104BF00002A9FFF7B6FC20B90BF0F8FE27490AF02E
:104C0000E2FE44F2022306AA224926A808F0B6F9D9
:104C100026A912A8FFF722FE26A8FFF771FA16A808
:104C2000FFF736FD98B11E4D1E4F05F548762368F7
:104C3000002B21DDD5F8201312A80AF0C4FE394656
:104C400030460AF0B0FA2368013B2360EFE70BF02F
:104C5000CDFE15490AF0B7FE0BF0C8FE06990AF022
:104C6000B2FE06A80AF0FEF912A8FFF749FA02A858
:104C70000AF0F8F93BB0F0BD16A808F04FF8F0E7DD
:104C8000BCE10320B02A0E0070330E004CD9032083
:104C9000B62A0E0038DA0320892B0E00C02B0E0036
:104CA000C0E10320E82F0E00D72B0E002DE9F04FB6
:104CB000C1B002AF16469946044688460BF096FEF0
:104CC0006949054607F1A8000AF017FA214607F1DD
:104CD00074000AF012FA07F1740107F1A8000AF053
:104CE00013FB016828460AF06EFE07F174000AF013
:104CF000B9F907F1A8000AF0B5F95C4907F1A80075
:104D00000AF0FBF95A4B5B4A1B6812885A4807F1B4
:104D1000A80108F0AFFF054607F1A8000AF0A2F9C4
:104D200035BB564907F174000AF0E7F94F4907F11E
:104D300058000AF0E2F907F1580107F174000AF08F
:104D4000E3FA014607F1A8000AF022FA022107F16E
:104D5000A800FFF791FD07F1A8000AF083F907F119
:104D600058000AF07FF907F174000AF07BF91DE0A2
:104D7000434907F1A8000AF00BFA3F4807F1A801E0
:104D800008F0DAFF054607F1A8000AF06BF995B9BB
:104D90003C4907F1A8000AF0B0F907F1A800022188
:104DA000FFF76AFD07F1A8000AF05CF92846FC3716
:104DB000BD46BDE8F08F344907F1A8000AF0E8F9D4
:104DC0002D4807F1A80108F0D9FF054607F1A80012
:104DD0000AF048F90DB92D49DBE7314607F1A80083
:104DE0000AF0D6F9244807F1A80108F0E9FF0546C2
:104DF00007F1A8000AF036F9002D69D1244907F11E
:104E0000A8000AF07AF9032107F1A800FFF734FDA2
:104E100007F1A8000AF026F9314607F1A8000AF0C8
:104E2000B7F9154807F1A80108F0ECFF054607F1AE
:104E3000A8000AF017F97DBB164907F174000AF0C3
:104E40005CF9314607F174000AF05EFA014607F199
:104E5000A8000AF09DF907F1A8000221FFF70CFD58
:104E600007F1A8007DE700BF8F2C0E0048D6032075
:104E700084D9032080D9032044E00320EF2B0E00C7
:104E800070E50320042C0E00F4E40320152C0E0022
:104E9000262C0E003E2C0E00D94907F174000AF0B2
:104EA0002CF9314607F174000AF02EFA014607F199
:104EB000A8000AF06DF9032107F1A800FFF7DCFC58
:104EC00007F1A8000AF0CEF807F174000AF0CAF85A
:104ED000B9F1000F40F04081DFF870A3C9499AF89A
:104EE000003001949AF80120009203F5FA63C64A53
:104EF00007F1580009F0F4FC0BF078FDC3490546B2
:104F000007F1A8000AF0F9F807F1580107F1740059
:104F10000AF0F3F807F1740107F1A8000AF0F4F9B8
:104F2000016828460AF04FFD07F174000AF09AF86C
:104F300007F1A8000AF096F89AF8003001949AF860
:104F40000120B349009203F5FA63AF4A07F17400F8
:104F500009F0C6FC0BF04AFDAE49044607F1A80073
:104F60000AF0CBF807F1740107F148000AF0C5F820
:104F700007F1480107F1A8000AF0C6F901682046C8
:104F80000AF021FD07F148000AF06CF807F1A800CB
:104F90000AF068F807F1740407F1580107F1A80056
:104FA0000AF0ABF89C4807F1A80109F057F805464C
:104FB00007F1A8000AF056F8002D40F066819749E5
:104FC00007F148000AF099F807F1580107F1380095
:104FD0000AF093F807F1380107F148000AF094F954
:104FE000014607F1A8000AF0D3F8042107F1A80050
:104FF000FFF742FC07F1A8000AF034F807F1380087
:105000000AF030F807F148000AF02CF8B8F1000F68
:105010002CD007F1580107F1A8000AF06EF87E487D
:1050200007F1A80108F032FF054607F1A8000AF0D1
:1050300019F86DB97A4907F1A8000AF05EF807F18E
:10504000A8000221FFF718FC07F1A8000AF00AF8EF
:10505000744907F1A8000AF050F807F1A8000421EC
:10506000FFF70AFC07F1A80009F0FCFF6E4907F101
:1050700048000AF042F807F1580107F138000AF039
:105080003CF807F1380107F148000AF03DF967499B
:105090000AF046F921460AF043F9014607F1A80053
:1050A0000AF076F8042107F1A800FFF7E5FB07F105
:1050B000A80009F0D7FF07F1380009F0D3FF07F186
:1050C000480009F0CFFF5A490023224607F1A80003
:1050D00007F040FF64200AF0E7FD07F1B800FFF792
:1050E000D7FA0546002800F08B8139F00203E84624
:1050F00040F0D2804F4907F1480009F0FEFF4648D2
:1051000007F1480108F0A0FE044607F1480009F045
:10511000A9FF002C00F0C58007F1580107F14800F5
:1051200009F0EBFF3C4807F1480108F0B9FF0446DD
:1051300007F1480009F096FF002C40F0B28007F11B
:10514000B80007F0EBFDFFF703FD0025C54607F1AA
:10515000A800FEF7D5FF29E6B9F1010F78D1234663
:10516000354A364907F1740009F0BAFB0BF03EFCF2
:105170003349054607F1A80009F0BFFF214607F1B2
:10518000580009F0BAFF07F1580107F1A8000AF02A
:10519000BBF8016828460AF016FC07F1580009F030
:1051A00061FF07F1A80009F05DFF214607F15800F3
:1051B0000DF008FB0BF01AFC2249044607F1A80089
:1051C00009F09BFF07F1580107F1480009F095FF2E
:1051D00007F1480107F1A8000AF096F80168204697
:1051E0000AF0F1FB07F1480009F03CFF07F1A800C5
:1051F00009F038FF0BF0FAFB13490446AEE600BF96
:10520000512C0E00652C0E0018D603206F2C0E00BA
:10521000802C0E008D2C0E0044E00320DA2C0E00B2
:10522000EC2C0E00022D0E00052D0E000D2D0E0093
:1052300038DA032060320E009C2C0E00A12C0E00E8
:10524000A82C0E00B72C0E008F2C0E00EDE40320CE
:10525000B9F1020F7FF4A0AEAF4DB0492B780194A5
:105260006A78009203F5FA63AD4A07F1580009F035
:1052700037FB2B7801946A780092AA49A84A03F573
:10528000FA63204609F02CFB86E6A7480BF0C2FD26
:10529000A54808F031FDB9E6B9F1010F01D1A349E4
:1052A00029E7D7F8F030002B3DD0DC69A04B621E17
:1052B0009A423FF644AF08F09FFF0025C0B08246F7
:1052C00007F14800C7E9125587F850500BF032F843
:1052D000DFF854B20DF1080907F1B800FFF799F9AA
:1052E00038B3A54225D84FF48072494607F1B8007B
:1052F000FFF7D7F905447860FFF75AF80021072037
:105300000CF03FF900237A68494658460BF0BBFD84
:10531000012107200CF035F9C8200AF0C5FC854BA7
:105320009D42D9DD11E7D7F8F440002CBED02469A6
:10533000BCE707F1B80007F0F1FC08F05DFF7E491B
:10534000A0EB0A0507F1180009F0D7FE0A224FF476
:105350007A70B5FBF0F507F10800294609F06DFFFA
:1053600007F1080107F1180009F0CEFF734909F0B1
:10537000D7FFB4FBF5F10A22814607F1280009F0B6
:105380005CFF07F12801484609F0BEFF6C4909F0AF
:10539000C7FF0A220546002107F1380009F03AFF4D
:1053A00007F13801284609F0AFFF014607F1480030
:1053B00009F0EEFE042107F14800FFF75DFA07F15E
:1053C000480009F04FFE07F1380009F04BFE07F1E5
:1053D000280009F047FE07F1080009F043FE07F135
:1053E000180009F03FFEFFF73FF84F48C5460BF0A5
:1053F00011FD4D4808F080FC054680B9514900E098
:10540000514907F1480009F078FE07F148000221F0
:10541000FFF732FA07F1480009F024FE97E64B49FE
:1054200007F1380009F069FE314607F1080009F07C
:10543000AFFE474907F1080009F072FF07F1580174
:1054400009F06EFF014607F1180009F0A1FE07F10F
:105450001801354808F02AFC0A22014607F1280005
:1054600009F0C5FE07F1280107F1380009F04CFFEB
:10547000014607F1480009F08BFE042107F14800BE
:10548000FFF7FAF907F1480009F0ECFD07F12800F1
:1054900009F0E8FD07F1180009F0E4FD07F1080044
:1054A00009F0E0FD07F1380009F0DCFD294907F1BA
:1054B000380009F022FE0A22214607F1280009F0EF
:1054C000BCFE07F1280107F1380009F01DFF014675
:1054D00007F1480009F05CFE042107F14800FFF7DE
:1054E000CBF907F1480009F0BDFD07F1280009F0EC
:1054F000B9FD07F1380009F0B5FD0B4808F0E8FCEC
:10550000054608B914497CE7002107200CF039F85A
:1055100009F086F91BE600BFEDE40320652C0E00C0
:1055200018D60320C82C0E0044E00320122D0E00D4
:10553000FDFF0700400D0300142D0E00EF310E009B
:10554000182D0E004E2D0E00282D0E00682D0E0079
:1055500070330E007F2D0E00922D0E0038B50546DB
:1055600008F04AFE044608F047FE001BA84202D29B
:10557000FEF77AFFF7E738BD30B5002187B0054662
:1055800007200BF0FEFF1A480AF089FD194B002492
:10559000C3F88044C3F884440AF000F80AF082F8A3
:1055A00003A8CDE903448DF814400AF0C3FE41F28C
:1055B0008830FFF7D3FF1048234622462146406833
:1055C00009F0F6F80D4809F05BFA41F28830FFF770
:1055D000C5FF0B4B1B68009302222B46062103A834
:1055E000FEF790FE4FF47A70FFF7B8FF07B030BDBA
:1055F000A0E1032038DA032060E6032004E503205D
:1056000004DF032038B5046805467CB16368013BBC
:1056100063605BB9236820469B689847A368013B99
:10562000A3601BB923682046DB689847284638BD2D
:105630002DE9F04FEBB0924A9249934DDFF850A21A
:1056400056A8FEF7D1FD57A8FFF7DCFF8F4956A8F3
:1056500009F053FD042156A8FFF70EF956A809F0EA
:1056600001FD8B4956A809F093FD8A4956A809F017
:1056700057FE00230246884906A807F07FFC1AAEB1
:1056800056A809F0EFFC3046FFF742F800220AA9BD
:105690001EA807F0CDFB814B93F800804FF0000966
:1056A00008F5FA684F461EA8FEF7F2FF04460028E8
:1056B00000F0F680294602A809F01FFD0BF096F9CC
:1056C000044602A809F068FE0A22014656A809F01D
:1056D000A1FD569920460AF076F956A809F0C2FCB9
:1056E0001EA8FEF7C4FF002800F0B48002A809F04D
:1056F00053FE404500F0AE8002A809F04DFE08F1CF
:10570000FF33984200F0A6802EA8FFF701F8002290
:105710001EA932A807F08CFB0BF068F929460AF0A5
:1057200052F95C4C32A8FEF7B3FF00287CD032A8B7
:10573000FEF79DFF002864D00DF5847B5846FEF7E8
:10574000E7FF32A9002246A807F072FB0BF04EF9E2
:1057500029460AF038F946A8FEF79AFF5146002874
:1057600034D056A809F014FD214656A809F0D8FDFA
:10577000294609F0D5FD214609F0D2FD294609F058
:10578000CFFD214609F0CCFD294609F0C9FD01688D
:105790004148FEF791FE019056A809F063FC019B79
:1057A0000BB109F1010946A807F0B8FA56A8FEF7AF
:1057B000AFFF002232A95AA807F03AFB56A9584673
:1057C000FFF74CF856A8FEF79BFCC4E756A809F073
:1057D000DFFC214656A809F0A3FD294609F0A0FDEB
:1057E000214609F09DFD294609F09AFD01682A48E5
:1057F000FEF78DFE56A809F035FC58460137FEF736
:105800007FFC32A807F08AFA56A8FEF781FF002233
:105810001EA95AA807F00CFB56A92EA8FFF71EF8E0
:1058200056A8FEF76DFC7DE7514656A809F0B0FC7E
:10583000184956A809F074FD294609F071FD016860
:105840001548FEF764FE56A809F00CFC2EA8013797
:10585000FEF756FC1EA807F061FA56A8FEF758FF9F
:1058600000220AA95AA807F0E3FA56A93046FEF723
:10587000F5FF56A8FEF744FC02A809F0F3FB12E777
:10588000A42D0E00C12D0E00CD2D0E00C82D0E0032
:105890005CE5032070330E0038DA0320EDE40320CA
:1058A0000AA807F03BFA9F4942A809F026FC0A2201
:1058B00039462EA809F09BFC2EA942A809F024FD28
:1058C000994909F02DFD0A220546494656A809F0D6
:1058D0008EFC56A9284609F017FD9449026802A8D3
:1058E000FEF782FC03A8FFF78DFE56A809F0BAFB6D
:1058F0002EA809F0B7FB42A809F0B4FB89492EA8ED
:1059000009F0FBFB0A22394602A809F070FC02A943
:105910002EA809F0F9FC8449854F09F001FD0A22FF
:105920004946054642A809F062FC42A9284609F00A
:10593000EBFC014656A809F02BFC042156A8FEF703
:105940009BFF56A809F08EFB42A809F08BFB02A82A
:1059500009F088FB2EA809F085FB764A7349DFF829
:10596000DC9156A8FEF740FC57A8FFF74BFE7249A2
:1059700056A809F0C2FB042156A8FEF77DFF56A8E1
:1059800009F070FB23466D4A6D4956A807F0E2FA0C
:1059900056A906A8FEF762FF56A8FEF7B1FB56A867
:1059A000FEF7B6FE22460AA95AA807F041FA56A900
:1059B0003046FEF753FF56A8FEF7A2FB1EA8FEF7DF
:1059C00067FE0546002847D039462EA809F095FB0A
:1059D0000A22A8F1020156A809F009FC56A92EA82E
:1059E00009F0C5FC054656A809F03CFBE5B149465F
:1059F00056A809F082FB394642A809F07EFB42A96D
:105A000056A809F081FC01684D48FEF755FD054692
:105A100042A809F027FB56A809F024FBD5B90AF0E3
:105A2000E5FF484909F0CFFF1EA807F077F956A80F
:105A3000FEF76EFE00220AA95AA807F0F9F956A946
:105A40003046FEF70BFF56A8FEF75AFB2EA809F0CA
:105A500009FBB3E70134E7E70AA807F05FF931492A
:105A600042A809F04AFB0A2229462EA809F0BFFBEA
:105A70002EA942A809F048FC2B4909F051FC0A2242
:105A80000746214656A809F0B2FB56A9384609F048
:105A90003BFC2649026802A8FEF7A6FB03A8FFF715
:105AA000B1FD56A809F0DEFA2EA809F0DBFA42A8EB
:105AB00009F0D8FA1B492EA809F01FFB0A22294633
:105AC00002A809F094FB02A92EA809F01DFC1649B2
:105AD00009F026FC0A220546214642A809F087FB68
:105AE00042A9284609F010FC014656A809F050FBCF
:105AF000042156A8FEF7C0FE56A809F0B3FA42A842
:105B000009F0B0FA02A809F0ADFA2EA809F0AAFA35
:105B10003046FEF7F5FA06A8FEF7F2FA01206BB060
:105B2000BDE8F08FDB2D0E00DF2D0E00C12D0E0025
:105B3000CD2D0E00E42D0E00FF2D0E00B02A0E001C
:105B400038DA0320D82A0E002DE9F04F5F4C237875
:105B5000BFF35B8FDB07BDB006460AD42046FEF7D5
:105B6000A0FA30B15A48012108F0E4FF2046FEF7C0
:105B70009DFA4FF6FF725648002108F0F6FF01210A
:105B800013200BF0FEFC64200AF08EF8514803F05D
:105B900089FF50485522002104F0F0FA4D480021B9
:105BA00004F047FA552804464ED14A4C4A4F4B4D13
:105BB000FEF75AFC0122FF21204603F0AEFF0DF153
:105BC00016020A21204604F05DF90DF117020B219F
:105BD000204604F057F99DF81630262B04D19DF885
:105BE0001730422B00F08480394614A809F085FA5A
:105BF0009DF817309DF81620294610A809F0D2FB11
:105C000010A914A809F080FB014628A809F0C0FAE1
:105C1000012128A8FEF730FE28A809F023FA10A8D1
:105C200009F020FA14A809F01DFA41F288300AF0B0
:105C30003BF82B4B1B680093022240F2DC530621F9
:105C400028A8FEF75FFBB3E7264914A809F055FA28
:105C50000A22214610A809F0B8FA10A914A809F0E0
:105C600053FB014628A809F093FA012128A8FEF762
:105C700003FE28A809F0F6F910A809F0F3F914A812
:105C800009F0F0F9184A194928A8FEF7ADFA29A831
:105C9000FFF7B8FC43F698200AF006F8104B1B6893
:105CA0000093022240F2DC53062128A8FEF72AFBCB
:105CB0004FF47A7009F0F8FF09F05CF8FEF7D4FBB6
:105CC000012420463DB0BDE8F08F00BFF4D9032089
:105CD000F8D90320E0E40320502E0E00772E0E00AA
:105CE00004DF0320032E0E00462E0E00C12D0E00F1
:105CF0000121A548A44D03F00BFF0A2009F0D4FFB1
:105D0000A14804F081F80A2009F0CEFF07219E483F
:105D100004F04CF80A2009F0C7FF07219A4803F065
:105D200081FF0A2009F0C0FF0021974803F015FF0A
:105D30000A2009F0B9FF944804F024FA0A2009F077
:105D4000B3FF914804F022FA41F2883009F0ACFF29
:105D50008D4804F01DFA0A2009F0A6FF08F04CFA5D
:105D6000044608F049FA08224121284604F065F962
:105D7000B0B9FEF779FB0A2009F096FF08F03CFA6B
:105D800047F23052031B9342EDD9804928A809F00D
:105D9000B4F928A80121FEF76FFD28A809F062F9DF
:105DA0000A2009F081FF784804F04DF9784904464B
:105DB00014A809F0A2F90A22214610A809F017FA3E
:105DC00010A914A809F0A0FA014628A809F0E0F9E2
:105DD000042128A8FEF750FD28A809F043F910A8CF
:105DE00009F040F914A809F03DF96A4908A809F03A
:105DF00084F965480822412104F01FF9002800F0C9
:105E0000488314A8FEF784FC6249634D0CA809F08E
:105E100074F90A2009F048FF604910A809F06DF9EB
:105E200010A928A809F0B4F95D4928A809F078FA62
:105E300001460CA809F09DF928A809F013F910A84B
:105E400009F010F929780A2201F5FA6110A809F081
:105E5000CEF910A928A809F09BF9514928A809F002
:105E60005FFA01460CA809F02DFA28A809F0FAF803
:105E700010A809F0F7F80A22697810A809F0A5F926
:105E800010A928A809F084F9454928A809F048FA7A
:105E900001460CA809F016FA28A809F0E3F810A8A2
:105EA00009F0E0F83F4B1B781BB13F490CA809F003
:105EB0000DFA0AF09BFD3D49044628A809F01DF99A
:105EC0000CA928A809F020FA0168204609F07BFDFA
:105ED00028A809F0C7F80C993548FEF7CCFA002835
:105EE00040D02C4910A809F008F90CA928A809F0FD
:105EF0004FF92B4928A809F013FA314609F004FAA2
:105F0000014610A809F035F928A809F0ABF840F2CD
:105F1000016310AA264928A807F030F828A914A878
:105F2000FEF79CFC28A8FEF7EBF80A2009F0BCFE5F
:105F300018A8FEF7ADFB044600283BD118A806F0D0
:105F4000EDFE114804F01EF9642009F0ADFE0E4884
:105F500004F01CF941F2883009F0A6FE10A809F0FF
:105F600081F807E0124801220CA9FEF7FAFA04466C
:105F70000028B6D10CA809F075F814A8FEF7C0F8EF
:105F800008A809F06FF89CE6E0E403207D2E0E00DF
:105F90008B2E0E00E82F0E00EDE4032018D6032010
:105FA00070330E00F3E403208F2E0E00942E0E00AB
:105FB00038DA03200AF01AFDC249C34E09F003FD86
:105FC000C24928A80AF070FDC14809F0E7FF10EEA9
:105FD000100A0BF04BFE02460B46BE48BE4908F0C5
:105FE0007FFC28A809F0E0FE10EE100A0BF03EFE40
:105FF00002460B46B948BA4908F072FC2A78AB78D9
:1060000000936B78B749B84802F5FA6208F068FC6B
:106010006B790093EA782B79B449B54808F060FCB5
:106020000AF0E4FCB34909F0CEFC00233360FEF72C
:106030001BFA0AF0DBFCB04909F0C5FCAF49562257
:1060400014A8B046FEF753FBAD4E40F60705B14627
:10605000317814A8FEF750FB013DF9D1DFF874B296
:10606000A849A94EDFF8C4A2A84F172214A8FEF72A
:106070003EFB0AF0BBFCA64909F0A5FC9BF80030EA
:10608000B3729BF8013033739BF80230B3739BF803
:10609000033033741223CAF80030F5727573F57348
:1060A00075740AF0A3FC9B4909F08DFC9A4B9BF890
:1060B00000205A757A759BF801209A75BA759BF87D
:1060C0000220DA75FA759BF803201A76DFF80CB215
:1060D0003A761922CAF800200AF088FC8F4909F0A4
:1060E00072FC9BF80020B2779BF8012086F82020F4
:1060F0009BF8022086F822202422CAF80020F57797
:1061000086F8215086F823500AF070FC844909F083
:106110005AFC814B9BF8002083F83F2087F83F20F2
:106120009BF8012083F8402087F840209BF802204C
:1061300083F84120422387F84120CAF800300AF052
:1061400055FC784909F03FFC3023CAF80030664B13
:10615000324618462946B346AC46082902F10202E7
:1061600008D010F8015B82F82E5082F82FC0013160
:106170002546F2E715B14022CAF8002003930AF041
:1061800035FC694909F01FFC6348039B682213F83A
:10619000011BB95411540132702AF8D1634DDFF854
:1061A00050A12A600AF022FC614909F00CFC4E2340
:1061B0002B60554A0023504619461F46062902F116
:1061C000020208D010F8013B82F84C3082F84D7082
:1061D00001312346F2E70BB15A232B600AF006FC8B
:1061E000544909F0F0FB49494B4897230F461AF8E8
:1061F000012B5A541A5401339D2BF8D12B600AF00D
:10620000F5FB4D4909F0DFFB64232B604B4B1A680B
:106210000020013A2B686E2B09DC12F8011F0BF8E5
:1062200003100BEB0301023348702B60F2E70AF016
:10623000DDFB434909F0C7FBC2232B603F4BDFF86E
:10624000CCC01A683449013A2B68C72B08DC12F815
:10625000010F0CF803001078C85401332B60F3E7EA
:106260000AF0C4FB374909F0AEFB80232B603649A6
:1062700000231A461846052A06F1020608D011F82E
:10628000013B86F87E3086F87F0001322346F2E734
:106290000BB18A232B600AF0A9FB2C4909F093FB70
:1062A000F0232B602A4B1C491A68013A2B68F52B06
:1062B00050DC12F8010FF8541078C85401332B60E9
:1062C000F4E700BF992E0E006CE5032060E6032082
:1062D000A0E10320FCDE0320AF2E0E0034DA032001
:1062E000B52E0E00B92E0E0014DA0320C62E0E00B5
:1062F0001DDA0320D32E0E00E52E0E002C350E00E5
:10630000ECE4032082350E00D4D6032060D70320AE
:10631000F32E0E00012F0E0056D803200F2F0E0073
:106320001D2F0E002B2F0E00392F0E00B8E1032079
:10633000472F0E00552F0E00632F0E0004DA0320A6
:10634000722F0E00812F0E00E8DE0320902F0E002A
:106350005CE5032000232B600AF048FB4E4909F05E
:1063600032FB40F6080499F8001014A8FEF7C4F9AF
:10637000013CF8D149494A4D8A2214A8FEF7B7F9E1
:10638000484940F27D2214A8FEF7B1F94649F522AA
:1063900014A8FEF7ACF945494FF4907214A8FEF723
:1063A000A6F94349F52214A8FEF7A1F94149622252
:1063B00014A8FEF79CF94FF40064297814A8FEF79E
:1063C0009BF9013CF9D114223B4914A8FEF78FF93F
:1063D0000AF00CFB394909F0F6FA394803F062FB80
:1063E0000A2009F061FC374A374906A8FDF7FCFE90
:1063F00007A8FFF707F9324803F092FD0A2009F0D9
:1064000053FCC8F800402E4C1425204603F00EFE25
:10641000013D0646F9D12D4CDFF8A4A0DFF8B0907D
:10642000D92E01D1FF2D1ED0504603F0FFFDD8F824
:1064300000305A1CFF2A09F803000746C8F800205C
:1064400008DD494614A8FEF752F90023C8F80030C9
:10645000FEF70AF8013C354603D118A806F05EFCA9
:106460007CE53E46DCE7D8F800201AB1184914A8AC
:10647000FEF73DF9124803F089FE114803F0DCFAFB
:1064800018A806F04BFC002113200BF07AF8012429
:1064900064E508A808F0E6FD9F2F0E00D4D603207F
:1064A0007CD9032099350E0060D7032016380E00E2
:1064B00056D8032036390E0098390E00B82F0E003A
:1064C000E0E40320CD2F0E00C12D0E00C1270900EE
:1064D0000ADF032038B5064DC56104463430FFF7A6
:1064E00091F8204640F8185BFFF78CF8204638BD3D
:1064F0006C480E0038B504680D467CB1E168A942CD
:106500000CD035B129B128460CF052F910F0FF0F2C
:1065100004D02046FEF708F90446EEE7204638BDD1
:1065200000F11C02C0E9002200F50772C0E9022256
:10653000027E22F07F020276704770B50446B8B141
:106540000B68B3B18B68556896680133E818B042A0
:106550000FD850606DB11A46096828460CF0EEF865
:10656000237A256023F07F0343F005032372012083
:1065700070BD237A23F07F0323720020F8E770B107
:10658000037A002903F08003ADBF43F0080343F012
:106590000A0349420372B8BF0372016001207047C9
:1065A00070B5037A164613F07F0202BF23F07F0313
:1065B00043F020030372037A08BFC0E9002213F0FE
:1065C000200304460D460DD0FFF794FF48B931462D
:1065D0002046FEF7B1F820B1037AC56003F07F03CF
:1065E000037270BD1846FCE713B5837B04466BB994
:1065F000406801220DF1070109F053FA48B19DF8F6
:10660000073023EAE37363730123A373607B02B053
:1066100010BD4FF0FF33F4E770B504460025204667
:10662000FFF7E2FF0D2823D007D8D8B10938C0B250
:1066300001281DD94FF0000016E0202818D02F287F
:10664000F8D1A5732046FFF7CFFF2A2804D02F28C2
:1066500016D04FF0020007E0A57300262046FFF792
:10666000C3FF10B94FF0010070BD2F2802D10EB149
:10667000A573D4E7A0F12A035E425E41A573EDE75E
:10668000A5732046FFF7B0FF0028EBD00A28F7D10A
:10669000C5E708B5037A13F0200302D0FFF72AFFFD
:1066A00008BD1846FCE70000F0B585B0826800928E
:1066B000002601960D46D2E9011353605B1A044689
:1066C00002910393FFF790FFA67307462046FFF75A
:1066D0008BFF8742A67323D018B94FF0010005B095
:1066E000F0BD5C2817D12046FFF77EFF0028F4D0CC
:1066F00075280CD0104B1A79191D5AB1904203F12C
:106700000203F8D1487828B94FF00200E7E74FF0CC
:106710000400E4E7A67301466846FEF729F8D5E7CA
:106720006846FEF733F8286010B94FF00300D6E74B
:106730004FF00000D3E700BFDA2F0E002F2807D953
:10674000392803D95E280CD97A2805D8012070474A
:106750002B28FBD02D28F9D0A0F12E035842584108
:1067600070474028F8D95A28EFE7F0B585B00546BC
:106770000E46FFF739FF272829D0222827D0AA68FC
:10678000009200270197D2E90113284653605B1A53
:1067900002910393FFF728FF0446F0B1FFF7CEFF05
:1067A000E8B121466846AF73FDF7E2FF2846FFF7E0
:1067B0001BFF0446FFF7C2FF0028F2D16846FDF731
:1067C000E5FF0028306014BF0020032003E03146BD
:1067D0002846FFF769FF05B0F0BD0120FBE7022066
:1067E000F9E7000000280FDD11490023C20741BF6F
:1067F000DAB201EB8202D2ED007A20EE270A4010D5
:1068000003F10103F2D170470A494042002368B105
:10681000C20742BFDAB201EB8202D2ED007A4FEA40
:10682000600048BF20EE270A0133F0E7704700BF41
:10683000F4D50320DCD503202DE9F0410B782B2B78
:10684000044610D02D2B0FD1013101260A78A2F178
:106850003003092B4FF0000308D92E2A06D000225E
:10686000236062602FE001310026EFE74C4F0023E8
:106870004FF00A0C084610F8015BA5F13002D2B2C5
:10688000092A09D8BB4208D80CFB03F3D5439D4223
:1068900003D313440146EDE755B100220A25B3F5B1
:1068A000000F02F1010012D3B3FBF5F30246F6E745
:1068B00007EE903AF8EE677A002E2360C4ED017A75
:1068C00014BF0A23082323722046BDE8F081551A1D
:1068D00068180A4611F8017BA7F1300CBCF1090FCA
:1068E00040B2F5D92E2F11D1DFF8C8C00D460A27C6
:1068F0002A46013511783039C9B2092906D86345CD
:10690000F6D8013807FB031340B2F1E7117801F024
:10691000DF01452935D151782D2920D1951C01273A
:1069200000214FF00A0E2A4615F801CBACF1300CCD
:106930005FFA8CF8B8F1090F1DD80EFB01C142189F
:10694000262AF0DD8FB1DFED177A9FED177A002E42
:1069500008BFF0EE477AC4ED017A0C23B3E72B2988
:1069600014BF551C951C0027DAE7DFED107A9FED68
:10697000107A002EECE707B1494212781AB10023D1
:106980006DE70021F9E707EE903A0844B8EE670A90
:10699000FFF728FF0EB1B1EE400A84ED010ADCE7F3
:1069A000999999190000008000000000000080FF04
:1069B0000000807FCBCC0C002DE9F04794B08046DE
:1069C0000D46FFF711FE00240646A2460DF1100900
:1069D0003046E7B2FFF7B2FE60B13F2C09D088F82D
:1069E0000EA0404604F80960FFF7FEFD013406469C
:1069F000EEE7274614AB3B44002403F8404C9DF8D7
:106A00001030742B09D12B7A23F07F0343F0060357
:106A10002B7201232B60381F09E0662B0CD12B7AD7
:106A20002C6023F07F0343F006032B72781F18BFFE
:106A3000012014B0BDE8F0876E2BECD004A901A8AA
:106A4000FFF7FAFE9DF80C30019A0A2B09D00C2BA7
:106A500010D0082B17D12B7A23F07F0343F00803C3
:106A600004E02B7A23F07F0343F00A032B722A60A1
:106A70002046DEE72B7A23F07F0343F00C032B72D2
:106A8000029B2B60F4E74FF00200D2E773B5054696
:106A90000C46FFF7C1FDC6B2002E39D12846FFF7DC
:106AA000A3FD5B2818D008D8222823D0272821D07E
:106AB00021462846FFF780FF1AE07B28F8D1237A89
:106AC00023F07F0343F02003C4E9006623722146CC
:106AD000284600F066F80BE0237A23F07F0343F0AA
:106AE0004003C4E9006623722146284600F012F8EC
:106AF000C0B20DE001A92846FFF7D6FDC0B238B9F3
:106B0000237A23F07F0343F005032372019B236064
:106B100002B070BD70B5037B05460E4613B94FF049
:106B2000050070BDFFF760FD5B2802D04FF002004A
:106B3000F7E70023AB732846FFF76EFD10F0FF0F59
:106B4000EFD12846FFF750FD5D2820D10020A87323
:106B5000E7E72B7B013B2B732846FFF797FF2B7B47
:106B6000C0B201332B730028DBD12846FFF754FD58
:106B7000C4B20CB12046D4E72846FFF735FD5D28A6
:106B8000E4D02846FFF730FD2C28CFD1AC7329681C
:106B90003046FDF7D1FD01460028DAD14FF0030061
:106BA000BFE7F7B5037B06460D461BB94FF005005E
:106BB00003B0F0BDFFF718FD7B2802D04FF00200B4
:106BC000F6E70023B3733046FFF726FDC4B2002C6E
:106BD000EED13046FFF708FD7D2839D1B4730BE0C4
:106BE000037A63F07F030372019BC360074630465C
:106BF000FFF712FDC4B20CB12046D9E73046FFF7CB
:106C0000F3FC3A28DAD1337BB473013B3373394652
:106C10003046FFF73BFF337BC0B2013333730028AC
:106C2000C6D13046FFF7F8FCC4B2002CE4D13046A0
:106C3000FFF7DAFC7D28D1D03046FFF7D5FC2C28B1
:106C4000BCD1B4733046FFF7E7FCC0B20028AFD127
:106C500001A93046FFF789FDC0B20028A8D10199EB
:106C60002846FFF747FC07460028C0D13168284670
:106C7000FDF762FD0028B3D14FF0030098E7000054
:106C80002DE9F0410B782B2B044610D02D2B0FD182
:106C9000013101260A78A2F13003092B4FF00003DD
:106CA00008D92E2A06D00022236062602FE001312D
:106CB0000026EFE74C4F00234FF00A0C084610F86F
:106CC000015BA5F13002D2B2092A09D8BB4208D82B
:106CD0000CFB03F3D5439D4203D313440146EDE778
:106CE00055B100220A25B3F5000F02F1010012D3BD
:106CF000B3FBF5F30246F6E707EE903AF8EE677A53
:106D0000002E2360C4ED017A14BF0A2308232372E6
:106D10002046BDE8F081551A68180A4611F8017B33
:106D2000A7F1300CBCF1090F40B2F5D92E2F11D1CB
:106D3000DFF8C8C00D460A272A46013511783039D8
:106D4000C9B2092906D86345F6D8013807FB0313F1
:106D500040B2F1E7117801F0DF01452935D15178D2
:106D60002D2920D1951C012700214FF00A0E2A461B
:106D700015F801CBACF1300C5FFA8CF8B8F1090FC3
:106D80001DD80EFB01C14218262AF0DD8FB1DFEDC0
:106D9000177A9FED177A002E08BFF0EE477AC4ED00
:106DA000017A0C23B3E72B2914BF551C951C00272F
:106DB000DAE7DFED107A9FED107A002EECE707B1ED
:106DC000494212781AB100236DE70021F9E707EE76
:106DD000903A0844B8EE670AFFF704FD0EB1B1EE31
:106DE000400A84ED010ADCE79999991900000080B6
:106DF00000000000000080FF0000807FCBCC0C0072
:106E000030B50D46D0E9004187B0103420460191DD
:106E1000FFF73FFC38B1037A019903F07F03082B99
:106E200003D00A2B17D0286825E00368DB43DB0F6B
:106E3000002BF8D02046FFF72CFCE0B1037A03F0DA
:106E40007F03043B082B25D8DFE803F017170C2439
:106E50000C2410243B000368B3F1004F8CBF0023C7
:106E60000123E5E7006820EAE07004E00068B0F183
:106E7000004F0FD8404207B030BD016803A8FFF7AC
:106E8000FFFE9DF8143003980A2BF0D00C2B03D092
:106E9000082BE8D00020EEE7DDED047A9FED0A7ABA
:106EA000F4EEC77AF1EE10FAF4DB9FED087AF4EE17
:106EB000C77AF1EE10FAEDD8FDEEE77A17EE900AF8
:106EC000D9E7D0ED007AE9E7000000CF0000004FDD
:106ED00037B50446084601910BF0AEFC0246206827
:106EE00001990368DD68A84763681844606003B0CF
:106EF00030BD10B50446006803689B689847636816
:106F00001844606010BD000070B505460C4619B904
:106F10001049FFF7DDFF70BD2221FFF7EAFF013CBA
:106F200014F8011F39B10C4B1E7876B15A788A4299
:106F300006D00233F8E722212846FFF7DAFFEAE716
:106F40005C212846FFF7D5FF31462846FFF7D1FFE1
:106F5000E6E700BFE92F0E00DA2F0E000000000068
:106F6000F8B5DFED577AB4EEE70A0623F1EE10FA32
:106F70002DED028B0446B0EE408A837244DB514A09
:106F80005149142300252027D2ED057AF4EEC87A62
:106F9000F1EE10FA06D85818D0ED007A3D4428EEEC
:106FA000278A2DB2043B181D4FEA6707A2F104029D
:106FB000EAD14FF0FF36B5EEC08AF1EE10FA27DDC8
:106FC00018EE100A0AF052FE3BA3D3E900230BF09F
:106FD00021F9E8B13D493B4833461A0618D401EB84
:106FE0008306D6ED007AF4EEC87AF1EE10FA4FEA95
:106FF000830206DD0244D2ED007AED1B28EE278ADB
:107000002DB27F10013BE8E7202705260025D2E7B7
:10701000FCEEC87A2E49258117EE902A17EE903A99
:10702000C4ED007A0A26092B07D9B1FBF6F1B3FBB0
:10703000F6F3A07A0138A072F5E707EE902AB8EED1
:10704000670A07EE901A38EE408AB8EEE70A28EE93
:10705000008AFCEEC87AB8EE677A17EE900A38EE2E
:10706000478A38EE088ABCEEC88A18EE103A034404
:107070008B420FD263600A216368B3FBF1F201FB1C
:107080001233A3B994F90A30002B10DD013B626082
:10709000A372F1E70023013263602260002DEAD081
:1070A000092A81BF0135012325812360E3E7BDEC77
:1070B000028B2046F8BD00BFF168E388B5F8E43ED6
:1070C0008096184BF4D50320DCD50320C4D50320CB
:1070D00040420F0010B5044600680368521ADB688E
:1070E000984763681844606010BD70B586B00DF1B4
:1070F00016031A460A26B1FBF6F506FB15143034C2
:1071000003F8014D0C46092C2946F4D81946FFF71F
:10711000E1FF06B070BD000070B52DED028BB4EE3E
:10712000400AF1EE10FA8AB00446B0EE408A07D069
:107130003F492046FFF7CCFE0AB0BDEC028B70BD84
:10714000B5EE400AF1EE10FA06D070EE007AB4EE19
:10715000670AF1EE10FAEBD0B5EEC08AF1EE10FA44
:1071600005D52D212046FFF7C4FEB1EE488AB0EECA
:10717000480A01A8FFF7F4FE01992046FFF7B5FF82
:107180009DF90E10E1B1029B0DF11F050A460A267A
:10719000013A52B2501C08D0B3FBF6F006FB103394
:1071A000303305F801390346F2E7C9B208AA531A89
:1071B0002E20C94303F8010C11442046FFF78AFF33
:1071C000BDF90C30002B17DA1A492046FFF780FE74
:1071D000BDF90C300DF126015B420A460A2593FBEE
:1071E000F5F005FB1033303301F8013D034600286C
:1071F000F5D12046FFF76EFFBDF90C30002B9BDD6B
:1072000065212046FFF775FE0DF12601BDF90C3012
:107210000A460A2593FBF5F005FB1033303301F8DD
:10722000013D03B20028F5D12046FFF753FF83E765
:10723000E92F0E00EE2F0E0038B5027A02F07F0320
:107240000C2B05460C460DD812F07E0F0ED0023BDB
:107250000A2B0BD8DFE803F04E4E4949640A620A54
:10726000580A0C00202B22D0402B07D031495AE07D
:1072700090ED000A0846FFF74FFF38BD5B2120461E
:10728000FFF737FE2D686DB128462146FFF7D4FF82
:107290002846FDF749FA054620B12C212046FFF784
:1072A00028FEF0E75D212046FFF723FEE5E77B217E
:1072B0002046FFF71EFE2D68ADB1E9682046FFF7B6
:1072C00023FE3A212046FFF714FE28462146FFF709
:1072D000B3FF2846FDF728FA054620B12C212046A9
:1072E000FFF707FEE8E77D21DDE701682046FFF7AD
:1072F0000BFEC2E708680368D5E90012DB6898470F
:10730000636818446060B8E705682D212046FFF7E0
:10731000F0FD29462046FFF7E8FEAEE70168F9E7F1
:10732000036823B104492046FFF7D2FDA5E70349CE
:10733000F9E700BFE92F0E00F12F0E00F62F0E0027
:1073400010B5ADF5227D0146019007AC4648FDF72A
:10735000B3F82046019A444944F2022305F0FAFDAD
:107360000BA8FDF795F990B909F040FB3F4908F0EB
:107370002AFB1BA83D4A3E49FCF736FF1CA8FEF736
:1073800041F92046FCF7BCFE0DF5227D10BD1BA87F
:10739000FFF7C6F837491BAA1FA8FFF701F93649BE
:1073A0001BAAFFF7CAF835491BAA1FA8FFF7F8F870
:1073B00033491BAAFFF7C1F832491BAA1FA8FFF7E0
:1073C000EFF831491BAAFFF7B8F81BAA2F491FA8ED
:1073D000FFF7E6F82E4B1968FFF7D1F81BAA2D49E5
:1073E0001FA8FFF7DDF82C4B1968FFF7C8F82B49E9
:1073F0001BAA1FA8FFF7D4F829491BAAFFF79DF87D
:1074000028491BAA1FA8FFF7CBF827491BAAFFF79B
:1074100094F826491BAA1FA8FFF7C2F824491BAA03
:10742000FFF78BF823491BAA1FA8FFF7B9F82249D9
:107430001BAAFFF782F8002303A91FA80493039453
:10744000FFF7FAFE049B53B91C4903A807F055FE49
:1074500003A80221FDF710FA03A807F003FE0BA80A
:1074600005F05CFC8DE700BF38DA0320FC2F0E002E
:1074700019300E001F300E0004DA032023300E00F6
:107480005CE503202F300E0024DA032038300E0094
:107490000CE0032045300E000CD6032051300E00C6
:1074A000A8E103205E300E0070E503206B300E0073
:1074B000F4E4032078300E0090E1032080300E00C9
:1074C00013B50446084601910BF0B6F9019902463E
:1074D0002046FCF775FE63681844606002B010BD7A
:1074E00010B50446006807F002FF6368013363606B
:1074F00010BD000070B505460C4619B91049FFF7DC
:10750000DFFF70BD2221FFF7EBFF013C14F8011FE4
:1075100039B10C4B1E7876B15A788A4206D00233C4
:10752000F8E722212846FFF7DBFFEAE75C2128463F
:10753000FFF7D6FF31462846FFF7D2FFE6E700BF48
:10754000E92F0E00DA2F0E0010B5521A0446FCF790
:1075500037FE63681844606010BD70B586B00DF1E9
:1075600016031A460A26B1FBF6F506FB151430344D
:1075700003F8014D0C46092C2946F4D81946FFF7AB
:10758000E3FF06B070BD000070B52DED028BB4EEC8
:10759000400AF1EE10FA8AB00446B0EE408A07D0F5
:1075A0003F492046FFF78CFF0AB0BDEC028B70BD4F
:1075B000B5EE400AF1EE10FA06D070EE007AB4EEA5
:1075C000670AF1EE10FAEBD0B5EEC08AF1EE10FAD0
:1075D00005D52D212046FFF783FFB1EE488AB0EE96
:1075E000480A01A8FFF7BCFC01992046FFF7B5FF48
:1075F0009DF90E10E1B1029B0DF11F050A460A2606
:10760000013A52B2501C08D0B3FBF6F006FB10331F
:10761000303305F801390346F2E7C9B208AA531A14
:107620002E20C94303F8010C11442046FFF78CFFBC
:10763000BDF90C30002B17DA1A492046FFF740FF3E
:10764000BDF90C300DF126015B420A460A2593FB79
:10765000F5F005FB1033303301F8013D03460028F7
:10766000F5D12046FFF770FFBDF90C30002B9BDDF4
:1076700065212046FFF734FF0DF12601BDF90C30DE
:107680000A460A2593FBF5F005FB1033303301F869
:10769000013D03B20028F5D12046FFF755FF83E7EF
:1076A000E92F0E00EE2F0E0038B5027A02F07F03AC
:1076B0000C2B05460C460DD812F07E0F0ED0023B67
:1076C0000A2B0BD8DFE803F04E4E4949630A610AE2
:1076D000570A0C00202B22D0402B07D0304959E00C
:1076E00090ED000A0846FFF74FFF38BD5B212046AA
:1076F000FFF7F6FE2D686DB128462146FFF7D4FF4F
:107700002846FDF711F8054620B12C212046FFF749
:10771000E7FEF0E75D212046FFF7E2FEE5E77B218B
:107720002046FFF7DDFE2D68ADB1E9682046FFF782
:10773000E1FE3A212046FFF7D3FE28462146FFF717
:10774000B3FF2846FCF7F0FF054620B12C21204668
:10775000FFF7C6FEE8E77D21DDE701682046FFF779
:10776000C9FEC2E7D0E900122046FCF729FD636894
:1077700018446060B9E705682D212046FFF7B0FE88
:1077800029462046FFF7E9FEAFE70168F9E70368FD
:1077900023B104492046FFF793FEA6E70249F9E723
:1077A000E92F0E00F12F0E00F62F0E0070B5D1E973
:1077B000004188B010340546204616460191FEF778
:1077C00068FF98B3037A019903F07F03043B012B10
:1077D0002CD82046FEF75DFF044668B1037A03F01B
:1077E0007F03043B012B07D8016829B1284607F025
:1077F00084FC284608B070BD04AE0F49304607F03F
:107800007CFC0023029603935CB102A92046FFF79B
:107810004BFF3146284607F0A1FC304607F022FC1A
:10782000E7E7064902A8FFF74BFEF2E73146284694
:1078300007F0AEFCDDE700BFE82F0E00E92F0E00D9
:107840002DE9F047ADF5227D07AE0D46024683498E
:107850000023304605F07EFB0BA8FCF719FF1BAC9C
:1078600005F1080A05F11C0905F1380805F16A0758
:10787000002862D02046FEF753FE23686360E36869
:10788000A360237E059423F07F0323760A238DF8DB
:1078900018301FA9002303A8CDE903468DF81A303C
:1078A000FFF7F4F810F0FF0F0CD19DF81930002B02
:1078B00051D0237E13F0600F4DD103F07F03043BC2
:1078C000012B48D909F092F8654908F07CF803A823
:1078D000634A6449FCF788FC04A8FDF793FE0BA8F3
:1078E00005F01CFA2946604807F05DFC51465F48E8
:1078F00007F059FC49465E4807F055FC5D4B2A6B82
:107900001A605D4B6A6B5D481A60414607F04BFC9C
:1079100039465B4807F047FC05F17E01594807F0FE
:1079200042FC05F19201584807F03DFC3046FCF757
:10793000E7FB0DF5227DBDE8F08709F057F85349C4
:1079400008F041F82046514A4649FCF74DFC1CA876
:10795000FDF758FEC6E74E4B434A029301A903A820
:107960000194FFF723FF0399082228460AF04FFFEE
:1079700003A807F077FB474B3C4A029301A903A8F1
:107980000194FFF713FF0399142250460AF03FFFBA
:1079900003A807F067FB404B354A029301A903A8EF
:1079A0000194FFF703FF1422039948460AF02FFFC2
:1079B00003A807F057FB394B2E49049303A80394FF
:1079C000FFF71EFA364B28632B49049303A8039450
:1079D000FFF716FA334B686301A903A8274A0293FD
:1079E0000194FFF7E3FE0399322240460AF00FFFAD
:1079F00003A807F037FB2C4B214A029301A903A8E7
:107A00000194FFF7D3FE0399142238460AF0FFFED3
:107A100003A807F027FB254B1A4A029301A903A8E4
:107A20000194FFF7C3FE0399142205F17E000AF0CA
:107A3000EEFE03A807F016FB1D4B134A029301A9A3
:107A400003A80194FFF7B2FE0399322205F19200D8
:107A50000AF0DDFE03A807F005FB40E738DA032053
:107A600098300E00C3300E0004DA03205CE50320DA
:107A700024DA03200CE003200CD60320A8E1032025
:107A800070E50320F4E4032090E10320CA300E00E7
:107A90001F300E0023300E002F300E0038300E0045
:107AA00045300E0051300E005E300E006B300E007F
:107AB00078300E0030B599B08949054604A807F022
:107AC0001CFB042104A8FCF7D7FE04A807F0CAFA9F
:107AD000844904A807F05CFB834B844A1B68128826
:107AE000834804A906F0C6F8044604A807F0BAFAC9
:107AF0005CB9804904A807F000FB04A80221FCF748
:107B0000BBFE04A807F0AEFA59E07B4904A807F0D1
:107B10003FFB774804A906F00FF9044604A807F0D4
:107B2000A1FA0CB97549E5E7754904A807F030FBDF
:107B30006F4804A906F022F9044604A807F092FA57
:107B40000CB97049D6E7294604A807F021FB68481C
:107B500004A906F035F9044604A807F083FA002CBE
:107B600046D1694904A807F0C8FA032104A8FCF724
:107B700083FE04A807F076FA294604A807F008FB5C
:107B80005B4804A906F03EF9044604A807F06AFA27
:107B9000C4B95E4904A807F0B0FA294604A807F062
:107BA000B3FB0146684607F0F3FA02216846FCF78A
:107BB00063FE684607F056FA04A807F053FA204619
:107BC00019B030BD524904A807F097FA294604A815
:107BD00007F09AFB0146684607F0DAFA0321684687
:107BE000FCF74AFE684607F03DFA04A807F03AFAA7
:107BF000484904A807F081FA474904A807F084FB24
:107C0000464907F08DFB0146684607F0C1FA694610
:107C1000374806F067FA0446684607F023FA04A8D6
:107C200007F020FA0CB93E4964E73E493E48FCF7AC
:107C300043FC30B908F0DAFE3C4907F0C4FE0024EA
:107C4000BDE7384A384944F2022304A805F082F916
:107C500008A8FCF71DFD044688B1254D284609F00B
:107C6000DAF8D8B1284609F0DDFA0028F6D028461F
:107C700009F091F9C1B204A8FCF73EFDF2E72C49E6
:107C8000684607F03AFA02216846FCF7F5FD6846B7
:107C900007F0E8F904A8FCF733FAD0E708A805F0E4
:107CA0003DF80A2008F000F8114806F025F81048C1
:107CB00006F00EF90A2007F0F7FF1E49684607F0A4
:107CC0001CFA04216846FCF7D7FD684607F0CAF99C
:107CD00019491448FFF7B4FD04A8FCF711FA6EE740
:107CE000FA300E00A8E1032084D9032080D90320B4
:107CF00044E00320FD300E0070E503201A310E0031
:107D0000F4E4032027310E00262C0E003E2C0E003A
:107D1000512C0E0034310E0004DA032048310E00DD
:107D200054310E0066310E0038DA032071310E0036
:107D30008F310E00AB310E0010D603202DE9F04F2D
:107D40002DED028BBA4FDFF81083E7B03E463C685A
:107D5000FCF78AFB06A84146FCF7EAFA06A807F0FA
:107D60005BF880B1B34952A807F0C7F9042152A8C3
:107D7000FCF782FD52A807F075F94FF47A7007F00E
:107D800093FF06F0F7FF06A807F04DF8002800F073
:107D9000698100231A4618463568A74C00930721CD
:107DA00007F08BFF002319461A46606806F0D8FCDE
:107DB000A24952A807F0A1F9042152A8FCF75CFDE2
:107DC00052A807F04FF9A1464846FCF75BFA044673
:107DD00000283AD1013D4FF47A7007F065FF8C2DF1
:107DE000F2DC012007F088FF0121072009F0B8FB31
:107DF000642007F059FF924952A807F07EF9042148
:107E000052A8FCF739FD52A807F02CF901210720F0
:107E100009F0B7FB41F2883007F046FF2146072002
:107E200009F0AFFB4FF47A7007F03EFF854B1B68FB
:107E3000009352A840F2DC5302220621FCF762FABA
:107E40004FF47A7007F030FF81E73368DFF80C9267
:107E5000DFF80CA2DFF8E0B11E255D43002D40F3F2
:107E6000D780062009F0A6FB0446002840F0BD801C
:107E7000062009F09FFB20B96420643407F014FF4A
:107E8000F6E7494652A807F038F90A2229463EA8E3
:107E900007F0ADF93EA952A807F036FA514602683C
:107EA00034A8FCF7A1F935A8FDF7ACFB3EA807F014
:107EB000D9F852A807F0D6F8594652A808F0F4FDB0
:107EC000614934A807F019F952A807F06DFF06219F
:107ED0002AA807F0C6F92AA934A807F015FA5B49C1
:107EE00007F01EFA01463EA807F052F904213EA809
:107EF000FCF7C2FC3EA807F0B5F82AA807F0B2F8D4
:107F000034A807F0AFF8012007F0F6FE01210720A2
:107F100009F026FB642007F0C7FE0025B2EE048AB4
:107F200052A807F041FFC0EE087A07EE105AB8EEEB
:107F3000477AF1EE677AB4EEE77AF1EE10FA11D8EB
:107F40000021072009F01DFB4FF4FA7007F0ACFE8A
:107F50000121072009F015FB4FF4FA7007F0A4FE89
:107F60000135DDE735680023184600931A460721DE
:107F700007F0A3FEFCF778FA642007F095FEFCF703
:107F800017FAB4F5FA6F05F1FF357FF767AF42F2E4
:107F90000F739C423CDD012007F0AEFE012107205B
:107FA00009F0DEFA06F03CFC356806F041FC0446B8
:107FB00008BB0146072009F0E4FAFA2007F074FE36
:107FC0000121072009F0DDFAFA2007F06DFE8C2D63
:107FD0000DDC012007F090FE0121072009F0C0FA16
:107FE000642007F061FE1A4906E70024BBE7013D63
:107FF000FCF7DEF9D9E74FF0FF31164808F096F9A3
:108000000722002300931146104607F056FE9EE615
:10801000012007F071FE0121072009F0A1FA0021DB
:10802000072009F0AEFA0A2007F03EFE642009E7B7
:1080300084D90320B1310E0060E60320B4310E0074
:10804000C1310E0004DF0320F1310E0000320E00BA
:1080500003320E00BCE70320CCE50320D3310E0031
:10806000C12D0E00C349C44D52A807F046F80421A3
:1080700052A8FCF701FC52A806F0F4FF06F0BCF889
:108080002846FCF7FFF8B0B94FF47A70013C07F0CE
:108090000BFEFCF7E9F9002CF2DCB84BB8490122E1
:1080A00052A81A7007F029F852A80321FCF7E4FB44
:1080B00052A806F0D7FF3568DFF8C09206F09CF8AA
:1080C000824606F0B5FB00BB99F80040ECB94FF4CE
:1080D0007A70013D07F0E8FDFCF7C6F9AA2DF0DC47
:1080E000A84B8DF85041012252A81A70CDE9524494
:1080F00008F020F9A44952A806F0FFFF52A8032176
:10810000FCF7BAFB52A806F0ADFF356806F074F82C
:108110009E4904463EA806F0F0FFA4EB0A040A229A
:108120004FF47A7134A8B4FBF1F107F086F834A962
:108130003EA807F0E9F8014652A807F029F8042103
:1081400052A8FCF799FB52A806F08CFF34A806F061
:1081500089FF3EA806F086FF8D4807F03BFF062109
:108160000CA807F07EF88A4807F018FF062110A82F
:1081700007F077F8804920A808F096FC85492AA8DE
:1081800006F0BBFF0CA92AA807F0BEF8824907F049
:10819000C7F810A907F0B8F8804907F0C1F80446FD
:1081A00020A807F001FE062134A807F05AF834A9E8
:1081B000204607F0A9F87A4907F0B2F8044620A84B
:1081C00007F008FE06213EA807F04BF83EA920461E
:1081D00007F09AF8734907F0A3F8014652A806F091
:1081E000D7FF042152A8FCF747FB52A806F03AFF3C
:1081F0003EA806F037FF34A806F034FF2AA806F0A0
:1082000031FF20A807F0E6FDF3EE097AB4EEE70AA5
:10821000F1EE10FA40F11681012389F80030624D29
:1082200052A805F002FCBDF84C315298AB80286092
:1082300008F0DCFB29780A22044601F5FA6152A80D
:1082400006F0D5FF5299204607F0AAFB52A806F087
:1082500009FF08F0CBFB2F2107F0A6FB08F0C6FBB7
:108260000A220446697852A806F0AFFF52992046C8
:1082700007F096FB52A806F0F5FE08F0B7FB2F2199
:1082800007F092FB08F0B2FB0A220446A97852A834
:1082900006F09BFF5299204607F082FB52A806F099
:1082A000E1FE08F0A3FB202107F07EFB08F09EFB17
:1082B0000A220446E97852A806F087FF5299204620
:1082C00007F06EFB52A806F0CDFE08F08FFB3A21B6
:1082D00007F06AFB08F08AFB0A220446297952A8B3
:1082E00006F073FF5299204607F05AFB52A806F099
:1082F000B9FE08F07BFB3A2107F056FB08F076FB4D
:108300000A220446697952A806F05FFF5299204676
:1083100007F046FB52A806F0A5FE08F067FB07F041
:1083200046FBAB78012B2C460CD1EB780F2B09D1F7
:108330001E4952A806F0E1FE52A8FDF779F952A8AD
:1083400006F090FE6B7901932B790093EB78AA7875
:10835000174908A806F0C4FA08F048FB1549054675
:1083600052A806F0CAFE08A93EA806F0C6FE3EA91D
:1083700052A821E01E320E0060E60320F3E4032041
:1083800022320E0010E003202E320E00142D0E00BB
:10839000A0E103203A320E0040320E0045320E00BA
:1083A0004C320E00242B0E00EDE40320E82F0E00CB
:1083B0008D320E00A2320E0006F0A6FF016828469C
:1083C00007F001FB3EA806F04DFE52A806F04AFE5B
:1083D00008A952A806F091FE52A8FDF7B5FB054684
:1083E00052A806F03FFE002D40F0EF80BC493EA8A9
:1083F00006F083FE08A934A806F07FFE34A93EA843
:1084000006F082FF014652A806F0C2FE012152A8E2
:10841000FCF732FA52A806F025FE34A806F022FE38
:108420003EA806F01FFE41F2883007F03DFC4FF4F5
:108430009670FDF7A1F810A806F014FE0CA806F03F
:1084400011FE84E499F80030002B7FF4E8AEA54BD0
:108450001C78002C40F09B80A34BA4491B788DF81E
:10846000003022463C2352A808F058F853A8FDF7E4
:10847000C9F89F4B9F491B788DF8003022463C235A
:1084800052A808F04BF853A8FDF7BCF80C9A9A498B
:1084900052A8FBF7A9FE53A8FDF7B4F820A807F0EF
:1084A00083FC062152A806F0DCFE529A93493EA8AE
:1084B000FBF79AFE3FA8FDF7A5F852A806F0D2FDFB
:1084C00006F0B6F910B1204606F0CAF9FBF76BFECC
:1084D000F0B9A92D55DC8A4952A806F00EFE0221FA
:1084E00052A8FCF7C9F952A806F0BCFD854D3468C6
:1084F000DFF858A22946504606F027FF002846D04C
:10850000002C44DD4FF47A7007F0CEFB013CF1E71C
:10851000A92DE0DD07F04CFB0028DCD007F0AEFB16
:10852000824607F0A3FB834607F094FB059007F013
:108530006DFB044607F076FB054607F07FFB059BC5
:10854000C0B2EDB2E4B2DBB25FFA8BF21FFA8AF18D
:1085500002900195009452A805F01CF952A805F06C
:10856000F8F9FBF720FE684A684952A8FBF73CFE81
:1085700053A8FDF747F8664952A806F0BEFD04214E
:10858000AEE74FF4FA7007F08FFB013D9EE76149BB
:108590003EA806F0B2FD60493EA806F0B5FE5F4970
:1085A00006F0BEFE014652A806F0F2FD52A8FFF703
:1085B00081FA52A806F056FD3EA806F053FD584B2E
:1085C00058491868FEF7BCFE29E6574807F0E6FC54
:1085D000DFED567A564B20EE270AD3ED007AF8EEFF
:1085E000E77AB4EEE70AF1EE10FA33D551493EA826
:1085F00006F083FD4C4807F0D1FC062134A806F0B4
:1086000030FE34A93EA806F07FFE4B4906F088FEF6
:10861000014652A806F0BCFD012152A8FCF72CF936
:1086200052A806F01FFD34A806F01CFD3EA806F077
:1086300019FD0021132008F0A4FF4FF47A7007F011
:1086400033FB4FF46160FCF797FF4FF47A7007F04B
:108650002BFBF0E699F80060002E40F0D78108F07F
:10866000C5F93649054652A806F047FD08A93EA8B7
:1086700006F043FD3EA952A806F046FE01682846D2
:1086800007F0A1F93EA806F0EDFC52A806F0EAFCBE
:108690002B4952A806F07CFD334652AA314608A861
:1086A000FCF704FB054652A806F0DCFC002D40F068
:1086B00084802449244D52A806F01FFD022152A8AF
:1086C000FCF7DAF852A806F0CDFC2846FBF7DAFDF5
:1086D00000283DD14FF47A7007F0E6FAF5E700BFC5
:1086E000B7320E0010E0032009DF0320762B0E00C6
:1086F00008DF0320612B0E0054320E005D320E00A5
:1087000062320E0087320E0074320E00C3300E004B
:1087100081320E0034310E0004DA032070330E0073
:1087200014E0032010D60320A0E103200000C8427B
:108730000CD60320D6320E00FA320E00FD320E00A7
:1087400090E1032015330E0060E603205CE5032072
:108750005B4FDFF89081DFF888910026394652A8F8
:1087600006F016FD002352AA012108A8FCF79EFA84
:1087700008BBB6FA86F56D0952A806F073FC3DB346
:10878000414652A806F0B9FC022152A8FCF774F841
:1087900052A806F067FCFBF767FE01360022D9F805
:1087A0000400114605F0E4FF0028D7D04FF4FA701A
:1087B00007F07AFAF2E70025DEE7424952A806F010
:1087C0009CFC52A80421FCF757F852A806F04AFC7A
:1087D00062783D49237800913C49013A01EB8202DD
:1087E00003F5FA633A492AA806F07AF839493EA80F
:1087F00006F083FC38493EA806F086FD014652A8E3
:1088000006F0C6FC012352AA19462AA8FCF74EFA24
:10881000054652A806F026FC3EA806F023FC002DD3
:1088200064D12E492E4D52A806F067FC022152A8B1
:10883000FCF722F852A806F015FC41F2883007F048
:1088400033FA2846FBF71EFD0028FAD0214FDFF847
:108850008880DFF89490002539463EA806F04DFC4C
:1088600041463EA806F050FD014652A806F090FC95
:10887000012352AA19462AA8FCF718FAE8B9B5FA52
:1088800085F6760952A806F0EDFB3EA806F0EAFB55
:10889000002E37D0494652A806F02FFC022152A8DC
:1088A000FBF7EAFF52A806F0DDFB0D4E013530461E
:1088B000FBF7E8FC0028FAD0CEE70026E2E700BF8D
:1088C00090E1032031330E003D330E004CD90320DC
:1088D00036330E0034310E0004DA032042330E002A
:1088E00060E6032020330E004D330E009B4952A852
:1088F00006F003FC042152A8FBF7BEFF52A806F0C5
:10890000B1FB0025627823780092954A9549126858
:1089100003F5FA632AA805F0E3FF08F067F8924927
:10892000064652A806F0E9FB2AA93EA806F0E5FB98
:108930003EA952A806F0E8FC0168304607F043F86B
:108940003EA806F08FFB52A806F08CFB87482AA9A8
:10895000FBF791FD002800F06A8108F047F8844990
:10896000DFF83482DFF8349207F02DF800232AAACA
:108970007E4952A804F0EEFA52A97E48FBF76EFF3A
:1089800052A8FBF7BDFB3EA8FBF7C2FE7A490022C6
:1089900042A804F04DFA002742A8FBF779FE28B15F
:1089A00042A8FBF764FE002800F08D80724804F0B6
:1089B000B5F92AA96D48FBF7AAFD70491CA806F075
:1089C0009CFB0A22394618A806F011FC18A91CA81D
:1089D00006F09AFC014652A806F0DAFB042152A8E0
:1089E000FBF74AFF52A806F03DFB18A806F03AFB39
:1089F0001CA806F037FB3EA8FBF782FB52A8604A92
:108A00006049FBF7F1FB53A8FCF7FCFD52A805F009
:108A10000CF85298BDF84C3120605B48A38005F0FB
:108A2000D4F85A4B1868012800F01881022800F089
:108A30003481002840F01981E57821786278A378A4
:108A4000062D01F5FA6140F205810A2D00F2F5804C
:108A5000CDE901000B20009052A804F09BFE52A823
:108A600004F024FF04464A4804F020FF241A494930
:108A70003EA806F042FB0A2221461CA806F0B7FBDE
:108A80001CA93EA806F040FC014652A806F080FB57
:108A9000042152A8FBF7F0FE52A806F0E3FA1CA846
:108AA00006F0E0FA3EA806F0DDFA2046FCF764FD89
:108AB00010A806F0D7FA0CA806F0D4FA67B0BDECFF
:108AC000028BBDE8F08F8DF8200050980137002808
:108AD0003AD00D2208A901F0ABFB07F087FF414611
:108AE000064652A806F009FB08A91CA806F005FBDB
:108AF0001CA952A806F008FC0168DFF8A4A03046C3
:108B000006F061FF1CA806F0ADFA52A806F0AAFA1A
:108B100042A804F003F9514652A806F039FB02239B
:108B200052AA002108A8FCF7C1F8A8B9B5FA85F641
:108B3000760952A806F096FAA6B301354846FBF727
:108B4000A1FB0028FAD0E6E751980028C5D00D22F5
:108B500008A903F08DFCC0E70026EAE75E330E00AB
:108B60005CE5032063330E0072330E0038DA032015
:108B700080330E0008E5032018E5032093330E0030
:108B8000E0330E00C12D0E0058E503200CE0032059
:108B9000EDE40320C9450E00B3330E0060E6032068
:108BA00090E10320627823780092494A494912688B
:108BB00003F5FA6334A805F093FE2AA918A806F075
:108BC0009CFA08A914A806F098FA14A918A806F0A7
:108BD0009BFB34A9824652A806F08FFA08A91CA86C
:108BE00006F08BFA1CA952A806F08EFB51460246ED
:108BF0003948FBF7DAFC1CA806F034FA52A806F054
:108C000031FA14A806F02EFA18A806F02BFA52A88A
:108C1000FBF77EFD3246314956A804F009F952A906
:108C20003EA8FBF71BFE52A8FBF76AFAB4E607F072
:108C3000DDFE2B4906F0C7FEE0E60E2D03D8CDE998
:108C400001000F2007E7CDE9010001330720009064
:108C5000DBB201E7CDE901000720FCE6E378062B53
:108C600011D9112B03D9122B0DD00024FFE60022BD
:108C700021780133CDE90122DBB20093A378627839
:108C800001F5FA61E8E6A37821780022CDE9012216
:108C9000013307220092DBB2F1E700252178CDE90C
:108CA0000155E3780093A378627801F5FA6152A840
:108CB00004F070FD2B460122294600951CA804F003
:108CC00015FE3EA81CAA52A904F003FE3EA8C7E662
:108CD0005CE50320C9330E0038DA032018E50320D1
:108CE000D3330E0010B59A4800238EB01A461946A9
:108CF000406805F055FD974807F0F5F9954807F0ED
:108D0000CEF8954805F0A7FEFBF7AEFB934A9449D1
:108D1000944807F0FAFA0024934A9449914807F0DE
:108D2000F4FA9349934823462246CDE9004405F0DE
:108D30008FFD012322468E498F48CDE9004405F07E
:108D400087FD4FF0FF318D4807F0F0FA4FF4967130
:108D50008A4807F0EBFAB9EE040A06F009FF012190
:108D6000132008F0FDFB0121072008F0F9FB214644
:108D7000082008F0F5FB0121072008F0F1FB21464F
:108D8000062008F0EDFB08F09DFC7D4907F0AEFFE2
:108D900008F098FC07F0AEFFFBF70EFD6D4807F0FA
:108DA000FDF8DFED787A784B20EE270AD3ED007AD4
:108DB000F8EEE77AB4EEE70AF1EE10FA2ED5734931
:108DC00006A806F09AF9634807F0E8F8062102A819
:108DD00006F047FA02A906A806F096FA6C4906F0D2
:108DE0009FFA01460AA806F0D3F901210AA8FBF769
:108DF00043FD0AA806F036F902A806F033F906A8E2
:108E000006F030F92146132008F0BBFB4FF47A70CE
:108E100006F04AFF4FF46160FCF7AEFB04F078FD0A
:108E200007F0E4FD4FF4E13107F0D4FD594804F0B8
:108E3000CCFE0024584906A806F05FF922462146D8
:108E40000AA80A9405F008FA0A220A9902A806F06C
:108E5000CEF902A906A806F057FA01460AA806F0BC
:108E600097F904210AA8FBF707FD0AA806F0FAF80B
:108E700002A806F0F7F806A806F0F4F8474906A895
:108E800006F03BF9464902A806F037F902A906A800
:108E900006F03AFA01460AA806F07AF904210AA86F
:108EA000FBF7EAFC0AA806F0DDF802A806F0DAF8FB
:108EB00006A806F0D7F83B4906A806F01EF93A487E
:108EC000214600F00DFD062102A806F0CAF902A90C
:108ED00006A806F019FA01460AA806F059F9042175
:108EE0000AA8FBF7C9FC0AA806F0BCF802A806F01D
:108EF000B9F806A806F0B6F8264804F00BFDF8B954
:108F00002A490AA806F0F9F802210AA8FBF7B4FCDE
:108F10000AA806F0A7F8264A26490AA804F04EFC3B
:108F20000AA804F016FD41F2883006F0BDFE05F0F7
:108F300021FF214B21491868FEF782FC0EB010BDBD
:108F4000144804F03EFE134804F03FFEF1E700BF72
:108F500060E60320A0E1032004E50320E9330E00CE
:108F6000495B0D00DF020E00F2330E0031560D009A
:108F7000914A0D00762B0E00612B0E00BCE70320FA
:108F8000A08601000000C8420CD60320D6320E0095
:108F9000FA320E0058E50320FA330E0007340E00B3
:108FA0000D340E0018340E0024E0032024340E008B
:108FB00038340E0041340E0014E0032010D6032094
:108FC0006E4B70B500241C606D4B6E4E1C706E4B6A
:108FD000346001251D706D4BB3602846B480B471B8
:108FE00005F066FB6A4A6B49304608F0BBFB284631
:108FF000214605F06DFB6848684BC0F8943429237E
:1090000080F8AB34624A664980F8985480F8A954D5
:10901000C0F88044C0F88444C0F89C44A0F8A04440
:1090200080F8AE4408F09EFB21465E485E4E06F096
:109030005FFF574A5D495B4808F094FB2A460F21C1
:109040005B485C4D00F04DFB514A5B49584808F0C5
:1090500089FB4FF40073594A59495A48FBF7B0F954
:109060004B4A5949574808F07DFB2146574804F0C0
:1090700049FB5749574806F040F8454A5649554874
:1090800008F070FB5549564806F037F8404A5249F7
:10909000534808F067FB5349534806F02EF83C4A02
:1090A0004D49514808F05EFB5049514806F025F8FB
:1090B000374A49494E4808F055FB4E494E4806F09C
:1090C0001CF8334A44494C4808F04CFB28193146F7
:1090D000103406F012F8B4F5487FF7D12C4A47490E
:1090E000474C002008F03EFB4649474806F005F88B
:1090F000274A3949444808F035FB4449444805F0BB
:10910000FCFF234A3449424808F02CFB41494248BD
:1091100005F0F3FF1E4A30493F4808F023FB0522C3
:1091200011463E4800F032FC00213D4805F017FC96
:10913000174A3C493A4808F015FB4FF4A672002143
:10914000204609F009FB204608F010F904F11C0044
:1091500008F00CF90A23C4F848310D4A3249204678
:1091600008F000FB3148FBF7D3FA094A30492F4891
:1091700008F0F8FABDE87040FBF719BB04DF0320E4
:1091800008DF0320F0DE032009DF03200000FFFFDB
:10919000F0D9032005420D0038DA0320D0340E0048
:1091A000CF400D00A0E10320E82F0E0011FF0D00BD
:1091B00024E00320C0E1032045970D00694A0D001B
:1091C000905F010080E50320C3420D00EDE4032021
:1091D0004D340E00A8E1032065F00D0062340E004E
:1091E00070E503207D340E00F4E4032098340E0073
:1091F00090E1032066310E0014E00320D1400D0001
:1092000044E00320B4340E005CE50320BB340E00C0
:1092100004DA0320C1340E0024DA0320E0E4032042
:1092200004E503207DE90D00D5640D0008E5032069
:1092300001410D0010B503682F2B044604D9074ADD
:1092400000210A2005F01CFA23681F2B83BF03F0BE
:109250001F03034823604FF0A04010BDE9E10D005B
:1092600000030050F7B51B4C058823781A4EBFF356
:109270005B8F13F0010F09D12046FAF712FF28B1D6
:1092800004F062FF30602046FAF710FF33682D01CA
:109290005B5D5F012378BFF35B8FDB0709D40D486B
:1092A000FAF7FFFE28B104F04FFF30600948FAF7E3
:1092B000FDFE33682B4401A85B7803F01F033B439A
:1092C0000193FFF7B7FF019A01239340C0F80C35D3
:1092D00003B0F0BD98E503209CE50320F7B51B4CD7
:1092E000058823781A4EBFF35B8F13F0010F09D165
:1092F0002046FAF7D6FE28B104F026FF306020465B
:10930000FAF7D4FE33682D015B5D5F012378BFF36C
:109310005B8FDB0709D40D48FAF7C3FE28B104F0D0
:1093200013FF30600948FAF7C1FE33682B4401A8E7
:109330005B7803F01F033B430193FFF77BFF019A28
:1093400001239340C0F8083503B0F0BD98E5032031
:109350009CE503202DE9F341204D06882B78204F12
:10936000BFF35B8F13F0010F09D12846FAF799FE7E
:1093700028B104F0E9FE38602846FAF797FE3B680A
:1093800036019C5D2B78BFF35B8FDB074FEA4418F7
:1093900009D41248FAF785FE28B104F0D5FE3860EA
:1093A0000E48FAF783FE3B68334401A85C7804F06A
:1093B0001F0444EA08040194FFF73CFFD0F810357D
:1093C000019401A8FFF736FF019BD0F81005D840A3
:1093D00000F0010002B0BDE8F08100BF98E5032075
:1093E0009CE5032038B504460D462846002108F0C8
:1093F000B7F82580204638BD70B5054607F020FB3C
:109400002888002104F0A8FE07F01CFB7D24013C05
:1094100014F0FF042DD0022004F0E6FE2846FFF7EA
:1094200099FF0028F3D007F00BFB2846FFF71AFF3F
:109430000121288804F090FE07F004FB4FF4F0703F
:1094400004F0D2FE04F0E0FE00210646288804F075
:1094500083FE462004F0C8FE2846FFF77BFFB0FAE3
:1094600080F4304604F0D8FE4FF4CD70640904F067
:10947000BBFE204670BD70B511F00105044618D042
:1094800004F0C2FE05462046FFF7ECFE01212088CD
:1094900004F062FE012004F0A7FE2088002104F001
:1094A0005BFE284604F0B8FE3B20BDE8704004F0A7
:1094B0009BBE04F0A9FE06462046FFF7D3FE01211D
:1094C000208804F049FE412004F08EFE20882946C1
:1094D00004F042FE304604F09FFE0520E5E738B573
:1094E000044604F091FE05462046FFF7BBFE2088A7
:1094F000012104F031FE012004F076FE00212088D5
:1095000004F02AFE0D2004F06FFE2046FFF722FF34
:109510000446284604F080FE2E2004F065FE204616
:1095200038BD2DE9F0410446884616460827012536
:1095300018EA050F14BF012100212046FFF79BFF09
:109540006D00013FEDB2F3D166B107F079FA204624
:10955000FFF7C4FE2088012104F0FEFDBDE8F041C4
:1095600007F070BABDE8F081F8B507460826002577
:1095700001243846FFF7B3FF00B125436400013EE4
:10958000E4B2F6D12846F8BD70B500220C4655214C
:109590000646FFF7C6FF651E073415F8011F0022B7
:1095A0003046FFF7BEFFA542F7D170BD0022CC21A7
:1095B000FFF7B7BF002343808380C38003814381CB
:1095C000037370472DE9F04790F80C9004468846E5
:1095D000B9F1000F0DD0002060812073A31C08F1A9
:1095E000FF380A3413F8012B08F8012FA342F9D1F0
:1095F00004E0FFF701FF18B960812073BDE8F08730
:109600004A46F0212046FFF78CFF0126CA46354620
:109610002046FFF764FF07462046FFF760FF012F53
:109620000FD1012827D1402DD5D984F80A90B9F15E
:10963000000F01D101232373A378002BCBD001208D
:10964000CCE7874204EB0A030CD1A27AAA420ED9D6
:109650009A78164214BF0127002767B9082D00D851
:10966000E572A9469A7822EA06029A7009E00CBFD0
:1096700001270027F1E704EB0A020127937833431F
:109680009370394620467600FFF7F5FE16F0FF0688
:1096900004BF0AF1010A5FFA8AFA05F1010508BF61
:1096A0000126BAF1070FEDB2B2D9BCE730B50246D8
:1096B000014400208A4213D012F8015B082480EA9A
:1096C000050313F0010F4FEA50001CBF80F08C031C
:1096D000D8B2631E13F0FF044FEA5505EFD1E9E756
:1096E00030BD37B5002343608360C36003614361CD
:1096F000038340F2EE238276C36104460E2001917B
:10970000FAF7C9FC054610B10199FFF76BFE204638
:10971000256003B030BD38B500F110050C46006877
:109720002946FFF74FFF031E1DBF2B6823606B68A0
:10973000236014BF01200020636038BD00F11001D8
:10974000FFF7E9BF10B50446006810B10E2108F01C
:109750000EF8204610BD0068FFF72CBF2DE9F04140
:10976000837E04460D4616462BB90B781BB99FED38
:10977000570ABDE8F0812068FFF73EFEA37E002B6C
:109780005CD0002E5AD12068FFF710FF0022442140
:109790002068FFF7C6FEE06906F086FA2068FFF74A
:1097A0002BFEA37E002B4ED0002E4CD12068FFF75D
:1097B000FDFE20680022BE21FFF7B3FE2B78262B8A
:1097C00004D1002220681146FFF7ABFE261D04F1EC
:1097D0000D0837462068FFF7C7FE06F8010B46451F
:1097E000F8D108213846FFF761FF237B20769842A5
:1097F0006376BCD12B78262B47D029D8102B29D0C3
:10980000222BB4D1227A237902F06002202A36D0AA
:10981000402A37D012B923F00703237163792079E6
:1098200040EA032000B208F00FFA294B002208F0AA
:1098300075FA08F02DFD00EE100A9AE72068294617
:10984000FFF7A2FEA2E720682946FFF79DFEB0E7DA
:10985000282BD6E7E37AA288102B08BFA37A4FEA19
:10986000C20203BFC3F10C0322F00F029B1813B214
:1098700008BF1BB200EE103ABAEECE0A79E723F029
:109880000303CAE723F00103C7E7A579284608F0D8
:10989000DBF906466079C01007EE900AF8EEE77A29
:1098A0000F4617EE900A08F0E1F90A4B002208F083
:1098B00035FA2B0654BF084B084B002208F02EFA4D
:1098C00032463B4608F074F8B3E700BF0000C07FA3
:1098D0000000B03F0000A03F0000F03F0000F0BFDC
:1098E00013B5837E04460A463BB904F110012046B5
:1098F00002B0BDE81040FFF731BF037C002BF4D16C
:109900000191FFF728FF2046FFF718FF019A002872
:10991000EBD19FED020A02B010BD00BF0000C07F76
:1099200010B503682F2B044604D9074A00210A20EA
:1099300004F0A6FE23681F2B83BF03F01F03034818
:1099400023604FF0A04010BDE9E10D00000300507E
:1099500007B5019001A8FFF7E3FF019A01239340A7
:10996000C0F8083503B05DF804FB07B5019001A805
:10997000FFF7D6FF019A01239340C0F80C3503B0DE
:109980005DF804FB0368C9B29B6818472DE9F041F4
:10999000274E284F04460D4690B2012107F0E0FD06
:1099A0003378BFF35B8F13F0010F09D13046FAF71C
:1099B00078FB28B104F0C8FB38603046FAF776FB34
:1099C0003B6893F850803378BFF35B8FDB074FEA37
:1099D000481809D41648FAF764FB28B104F0B4FB20
:1099E00038601348FAF762FB3B6893F8510000F0C7
:1099F0001F0040EA0800FFF7ABFF6572013D0F2D25
:109A000009D8DFE805F00D08111113130F08080D30
:109A1000110F130811114223A3722046BDE8F081F3
:109A2000BA23F9E79023F7E77823F5E76023F3E714
:109A300098E503209CE5032070B5184C184D237859
:109A4000BFF35B8F13F0010F09D12046FAF729FB12
:109A500028B104F079FB28602046FAF727FB2B6831
:109A600093F850602378BFF35B8FDB074FEA46160D
:109A700009D40A48FAF715FB28B104F065FB286001
:109A80000648FAF713FB2B6893F8510000F01F000B
:109A90003043BDE87040FFF75BBF00BF98E503208F
:109AA0009CE5032070B5184C184D2378BFF35B8FED
:109AB00013F0010F09D12046FAF7F3FA28B104F0A8
:109AC00043FB28602046FAF7F1FA2B6893F85060C0
:109AD0002378BFF35B8FDB074FEA461609D40A48A9
