:02000002D0002C
:1040000000400D00B0480E00000006000D00050144
:084010000401DB0700000000C1
:04401800D8230E009B
:1040200009480A49884208B505D0094A824202D0A7
:10403000121A0EF063F80748074A0021121A0EF010
:104040006BF8014808BD00BFC4D503205C440E00D6
:10405000F0D90320F0D90320F0E7032070B5074E14
:10406000074C0BF0A5FDA41BA4080025A54200D118
:1040700070BD56F8043B98470135F7E724440E001D
:1040800048440E0004F016BD08B503F073FDBDE80A
:1040900008400BF04FBD0AF0EBB80AF0E9B80AF09F
:1040A000EFB80078B0FA80F0400970470123037040
:1040B0007047704703681847012A03D0022A03D0CB
:1040C000002070470160FBE70B680360F8E770476A
:1040D00038B5044D312405EB04100AF0A3FC013C73
:1040E000F9D238BDC0E1032010B5044B044640F8B6
:1040F000103B08F0F3FA204610BD00BF2C2E0E0036
:1041000010B5034B03600446FFF7EEFF204610BDD9
:10411000542E0E00836C13B1184606F0ADBEC06C71
:1041200008B107F035BC7047836C13B1184606F030
:104130005ABDC06C08B107F0D7BF4FF0FF307047D1
:1041400010B5102104460CF0F2FF204610BD10B54A
:104150000446FFF7C9FF204650210CF0E8FF204637
:1041600010BD10B50446FFF7CBFF204650210CF0E0
:10417000DEFF204610BD10B501230374836804469A
:1041800043B1C0689847012363740020BDE8104024
:1041900009F0BEBD00680028F5D083680BB90CF0AB
:1041A000CCFFC368EEE708B500200AF041F828B15B
:1041B0000AF01EF880F00100C0B208BD0120FCE743
:1041C00070B5064600680C468168114415460AF031
:1041D00047FC2544AC4205D014F8011B30680AF0B6
:1041E00066FDF7E7002070BD13B5054B1B788DF811
:1041F00000303C2304460BF071FE204602B010BD97
:1042000008DF032010B50446006808B10AF038F84A
:10421000204610BD0EB403B503AB002153F8042BA8
:1042200001930BF0D8F802B05DF804EB03B07047CF
:1042300073B5044608462279A36832B1A3B90B4985
:1042400002B0BDE870400BF08BB8094A267B094DDF
:104250000949647B012E18BF2946CDE9001407499E
:10426000FFF7D8FF02B070BD054AEFE7FD230E004F
:104270006A290E00F9230E00F5230E0013240E0008
:10428000EC230E0000224068114609F061BF10B512
:104290008368044613B1032201469847204610BDA7
:1042A00038B50568044635B12846FFF7F0FF102100
:1042B00028460CF03CFF20461421BDE838400CF0A5
:1042C00036BF10B5436904469BB1586809F0E8FC55
:1042D00078B963695A7C12B9586809F0E9FC6369D6
:1042E000586809F0EDFC60690023636108B1FFF7CD
:1042F000D7FF606908B1FFF7D3FF201DFFF7C7FFA5
:10430000204610BD10B586B004468DF81520089AD9
:10431000ADF81610CDE90132012200920DF115031E
:104320000DF116010AF020FA204606B010BD00007B
:1043300073B51E4B1D7806460C46ADB901221A70A6
:1043400029462A4601A8019509F066FC019B1E2B0F
:104350000AD103232068A3714FF40023A580A36032
:1043600010B109F08DFF2560B4F90430226843B91B
:1043700042B954F8063F3360A388B380304602B098
:1043800070BD22B19188012903D0042906D00422EE
:1043900005E092896281A1712381EAE702222381EB
:1043A0004FF6FF73A2716381E3E700BF00DA0320D9
:1043B00008B509F001FC014B186008BDB8E70320FF
:1043C00030B587B01D4600230446049322B1204B2C
:1043D0000593204B029204930023E360049B216029
:1043E0003BB1022202A9201D9847059B2361049B33
:1043F000E360194914200CF09CFE30B10022C0E9A2
:104400000022C0E9022202744274606190B1134B31
:104410001349C0E902340922CDE90005114B0430EB
:1044200009F036FC30B963691B7C4BB9012009F0F7
:10443000B3FBF8E760690023636108B1FFF730FF61
:10444000FFF7B6FF02A8FFF722FF204607B030BDF6
:10445000B5400D00B9400D002C420E0015100E00A5
:1044600030240E0077410D0008B5FFF7A1FFBDE82D
:10447000084009F0ADBE10B5D0F880448EB00A46B1
:1044800064B1002321466846ADF800308DF8023053
:1044900006F089FD00F001000EB010BDD0F88414C4
:1044A00041B1234668468DF83140ADF8324008F0FE
:1044B000D2F8EFE70846EDE700B50A46D0F88014D9
:1044C0008FB089B10023ADF800308DF80230684616
:1044D000012306F068FD10B1684605F071FE00F09A
:1044E00001000FB05DF804FBD0F884040028F6D07A
:1044F0008DF83110ADF8321001230146684608F0FE
:10450000AAF80028EBD0684607F039F9E7E710B5BC
:10451000D0F880448EB00A4684B100232146684614
:10452000ADF800308DF8023006F03DFD10B1684660
:1045300006F07BFC00F001000EB010BDD0F8841432
:1045400069B1234668468DF83140ADF8324008F035
:1045500082F80028EED0684607F06CF9EAE70846D2
:10456000E8E700B513460A68D0F880148FB071B13F
:104570000020ADF800008DF8020001F244416846C9
:1045800006F098FD00F001000FB05DF804FBD0F8D4
:1045900084040028F6D08DF83110ADF8321000F503
:1045A0008961684607F0AEFAECE7836B5BB1187877
:1045B00010F008001EBFD8695B69C01A0028B8BF98
:1045C0006FF000407047C06BA0B190F831301B070E
:1045D00011D5D0E90432D0E900105B1A62EB000279
:1045E0001846114600236FF000428B4208BF8242FA
:1045F00038BF1046704700231A46F1E708B510305F
:10460000FFF7D3FF08BD836B33B11B7813F0700F36
:1046100014BF012000207047C06B0028FBD090F829
:10462000313013F0500FF3E7836B23B9C06B0038C0
:1046300018BF0120704701207047836B13B11846E3
:1046400006F00CBAC06B08B107F08EBC4FF0FF301B
:10465000704707B501220DF107011030FFF7EDFF9C
:1046600001280CBF9DF807004FF0FF3003B05DF844
:1046700004FB836B13B1184606F06EBDC06B08B126
:1046800007F00CBB704708B51030FFF7F2FF08BD0C
:1046900007B501228DF8071010300DF10701FFF763
:1046A000E8FF03B05DF804FB00224FF47A71C0E923
:1046B0000121C0E91222014A02607047542E0E0007
:1046C000B0F90A3013B100EB031070471846704779
:1046D00010B50346D1E901021030824212D3A2F193
:1046E00010008860596859B1441A24114C815860EF
:1046F000002322F8063C02F8083C42F8043C10BDB6
:104700001860F4E70020FAE7826810B54AB1436800
:10471000C468A34237BF5C1C00234460D15428BF47
:10472000836010BD10B504460021FFF7EDFFA368BC
:104730003BB1D4E90001E368CA1A436813444360FB
:10474000E160A06810BD0121042009F05DBA0000FD
:1047500070B586B0234A244D0E23ADF80C300023EB
:10476000CDE9042305F5926603AC94E80E003046CB
:1047700008F03EFA95F8AB34C5F88C6423B931469D
:10478000284608F067F850BB0BF010FE17490AF0F6
:10479000FAFD012107200CF0D4FB41F288300AF029
:1047A00063FF002107200CF0CCFB43F698200AF0B1
:1047B0005BFF64200AF058FF0D4B1B680093022238
:1047C0004FF4967306212046FFF79CFD4FF47A7054
:1047D0000AF04AFF06B0BDE8704009F0ABBF06B072
:1047E00070BD00BF80F0FA0238DA032037240E00D3
:1047F00004DF032010B54B6843608B688360CB688F
:10480000C36004461031103007F07DFF204610BD14
:1048100030B50546BBB00C460BF0C8FD29680AF060
:10482000B2FD6A4906A80AF048F904A808F0DDFDBF
:1048300006A90AA80AF08CF99DF811306449013BD9
:1048400001EB83010EA80AF038F90EA926A80AF098
:104850007FF99DF810100A2201F5FA6112A80AF0FA
:10486000A6F912A926A80AF02FFA5A490AF038FA2E
:1048700001460AA80AF006FA12A80AF0D3F826A8F8
:104880000AF0D0F80EA80AF0CDF812A8FFF70CFF36
:1048900006995148FFF7EFFD00285AD0002306AAD9
:1048A0004D4926A808F04AF826A912A8FFF7A2FF4A
:1048B00026A8FFF725FC16A8FFF7A5FEB8B90BF050
:1048C00075FD46490AF05FFD16A807F007FF069937
:1048D0004148FFF7F1FD4048012206A9FFF741FEDC
:1048E00040B90BF063FD3E490AF04DFD02E016A809
:1048F00007F0F4FE44F202230AAA374926A808F07A
:104900001DF826A912A8FFF775FF26A8FFF7F8FBE8
:1049100016A8FFF789FE10BB0BF048FD314904468D
:1049200026A80AF0CAF80AA926A80AF0CDF9016853
:1049300020460AF028FD26A80AF074F812A8FFF70E
:10494000DFFB0AA80AF06EF806A80AF06BF83BB085
:1049500030BD0BF02BFD24490AF015FDBBE7611EAD
:10496000032907D8DFE801F0022B2D2F1F4912A8D9
:104970000AF0F6FC9DF8153003939DF814309DF86D
:10498000102002939DF8133001939DF8123000938C
:1049900002F5FA629DF81130154926A809F080FC4D
:1049A00026A912A80AF0DCFC296812A80AF0EBFC80
:1049B00064200AF059FE16A807F090FEBEE70D49E4
:1049C000D5E70D49D3E70D49D1E700BF6F240E00AD
:1049D0004CD9032076240E0038DA03207B240E0005
:1049E0008F240E00AB240E009F240E00C5240E0061
:1049F000F0240E00CE240E00D9240E00E6240E0072
:104A00001FB5084968460AF058F801216846FFF7C3
:104A1000FFFE68460AF006F809F08CFE05B05DF866
:104A200004FB00BF0B250E0070B590B005460C4688
:104A300004A827490AF041F8294668460AF03DF8DB
:104A4000694604A80AF040F922490AF049F92146CA
:104A5000064608A80AF031F808A930460AF034F9E9
:104A600001460CA80AF074F804210CA8FFF7D0FE48
:104A70000CA809F0D7FF08A809F0D4FF684609F090
:104A8000D1FF04A809F0CEFF29460CA80AF015F8BA
:104A900011490CA80AF039F906460CA809F0C2FF22
:104AA0001EB10E4821460AF05EF829460CA80AF00D
:104AB00004F80B490CA80AF028F905460CA809F0DF
:104AC000B1FF1DB1074821460AF04DF810B070BD86
:104AD0001C250E006B260E0021250E0004DA032093
:104AE00036250E0024DA0320F0B54B4C2368002B4A
:104AF000BBB040F38B80494902A809F0DEFF12A841
:104B0000FFF7D2FD684608F070FC45490AA809F095
:104B1000D4FF02A90AA80AF0D7F89DF8013041494C
:104B2000013B01EB830105460EA809F0C6FF0EA963
:104B300028460AF0C9F89DF800100A22054601F53A
:104B4000FA6126A80AF033F826A928460AF0BCF82C
:104B500035490AF0C5F8014606A809F0F9FF26A86C
:104B600009F060FF0EA809F05DFF0AA809F05AFFDE
:104B700002992E48FFF77FFC78B90BF017FC2C49FF
:104B80000AF001FC2948012202A9FFF7EAFC20B93A
:104B90000BF00CFC27490AF0F6FB44F2022306AAAC
:104BA000224926A807F0CAFE26A912A8FFF722FE6E
:104BB00026A8FFF7A5FA16A8FFF736FD98B11E4DF7
:104BC0001E4F05F548762368002B21DDD5F820130C
:104BD00012A80AF0D8FB3946304609F0C4FF236812
:104BE000013B2360EFE70BF0E1FB15490AF0CBFB3B
:104BF0000BF0DCFB06990AF0C6FB06A809F012FFD1
:104C000012A8FFF77DFA02A809F00CFF3BB0F0BD37
:104C100016A807F063FDF0E7BCE1032070240E0046
:104C200074240E004CD9032076240E0038DA0320B9
:104C300049250E0080250E00C0E103206A290E00E0
:104C400097250E002DE9F04FCBB002AF0446884601
:104C500007F1080082491646994609F02EFF81495E
:104C600007F1D00009F029FF7F4B804A1B681288AA
:104C70007F4807F1D00108F0DDFC054607F1D000C0
:104C800009F0D0FE35BB7B4907F19C0009F015FF08
:104C9000744907F1680009F010FF07F1680107F196
:104CA0009C000AF011F8014607F1D00009F050FF0E
:104CB000022107F1D000FFF7ABFD07F1D00009F0AA
:104CC000B1FE07F1680009F0ADFE07F19C0009F0A4
:104CD000A9FE1DE0684907F1D00009F039FF6448DA
:104CE00007F1D00108F008FD054607F1D00009F0F2
:104CF00099FEBDB9614907F1D00009F0DEFE07F168
:104D0000D0000221FFF784FD07F1D00009F08AFEF0
:104D100007F1080009F086FE284607F59277BD46A0
:104D2000BDE8F08F564907F1D00009F011FF504857
:104D300007F1D00108F002FD054607F1D00009F0A7
:104D400071FE0DB94F49D6E7314607F1D00009F0A1
:104D5000FFFE474807F1D00108F012FD054607F1B4
:104D6000D00009F05FFE002D50D1474907F1D00077
:104D700009F0A3FE032107F1D000FFF749FD07F179
:104D8000D00009F04FFE314607F1D00009F0E0FEF7
:104D9000374807F1D00108F015FD054607F1D000AE
:104DA00009F040FEB5B9394907F19C0009F085FECC
:104DB000314607F19C0009F087FF014607F1D0005A
:104DC00009F0C6FE07F1D0000221FFF721FD07F12F
:104DD000D00078E72E4907F19C0009F06EFE3146BD
:104DE00007F19C0009F070FF014607F1D00009F0BF
:104DF000AFFE032107F1D000FFF70AFD07F1D00055
:104E000009F010FE07F19C0009F00CFEB9F1000F4B
:104E100048D1204D22682B7801926A78DFF880A073
:104E20000092DAF800201C4903F5FA6307F16800E4
:104E300009F036FA07F1680107F1080009F093FE5E
:104E400022682B7801926A780092DAF800201349E0
:104E500003F5FA6307F19C0009F022FA32E000BF83
:104E60006A290E0048D6032084D9032080D9032064
:104E700044E00320AF250E0070E50320C4250E009A
:104E8000F4E40320D5250E00E6250E00FE250E00D5
:104E900011260E00EDE4032025260E0031260E001B
:104EA0005CE50320B9F1010F40F0DA80A9492368DD
:104EB000A94A07F19C0009F0F3F9214607F108001F
:104EC00009F037FE07F19C01204609F04CFE07F17E
:104ED000080107F1D00009F03BFEA04807F1D0011E
:104EE00008F09CFD054607F1D00009F09BFD002D60
:104EF00040F0DC809A4907F1580009F0DEFD07F127
:104F0000080107F1580009F0DFFE014607F1D00063
:104F100009F01EFE042107F1D000FFF779FC07F12C
:104F2000D00009F07FFD07F1580009F07BFDB8F1D2
:104F3000000F2CD007F1080107F1D00009F008FE9E
:104F4000864807F1D00108F081FC054607F1D00042
:104F500009F068FD6DB9834907F1D00009F0ADFD96
:104F600007F1D0000221FFF753FC07F1D00009F050
:104F700059FD7D4907F1D00009F09FFD07F1D000F0
:104F80000421FFF745FC07F1D00009F04BFD7749FC
:104F900007F1580009F091FD07F1080107F15800E9
:104FA00009F092FE724909F09BFE214609F08CFE41
:104FB000014607F1D00009F0CBFD042107F1D00034
:104FC000FFF726FC07F1D00009F02CFD07F158008F
:104FD00009F028FD67490023224607F1D00007F0B9
:104FE000ADFC64200AF040FB07F1E000FFF71CFB7A
:104FF0000546002800F0378139F00203E8465CD10D
:105000005D4907F1580009F058FD544807F158016F
:1050100008F0FAFB044607F1580009F003FD002CE4
:1050200050D007F1080107F1580009F091FD4B48F5
:1050300007F1580108F014FD044607F1580009F083
:10504000F1FC002C3ED107F1E00007F047FBFFF731
:105050004BFD0025C54607F1D000FFF751F857E694
:10506000B9F1020F7FF433AF444D22682B780192DF
:105070006A78DFF820A10092DAF80020404903F5B1
:10508000FA6307F1680009F00BF907F1680107F10D
:10509000080009F068FD22682B7801926A78009276
:1050A000DAF80020374903F5FA63D3E62B480BF012
:1050B00091FB2A4808F000FB39E7B9F1010F01D153
:1050C00031499EE7D7F81831002B3DD0DC692F4BD2
:1050D000621E9A42B7D808F06FFD0025C0B0824624
:1050E00007F15800C7E9165587F860500AF002FE2C
:1050F000DFF868B00DF1080907F1E000FFF755FA95
:10510000002849D0A54247D84FF48072494607F19C
:10511000E000FFF792FA05447860FFF749F90021B3
:1051200007200BF00EFF00237A68494658460BF023
:105130008AFB012107200BF004FFC8200AF094FA33
:10514000134B9D42D8DD84E7D7F81C41002CBED01C
:105150002469BCE743260E003E260E0044E00320EF
:105160005C260E006E260E0084260E0087260E009A
:105170008F260E0038DA0320E22B0E00EDE4032028
:1051800025260E004A260E0094260E00FDFF07007D
:10519000400D03005CE5032007F1E00007F09EFAF4
:1051A00008F00AFD7549A0EB0A0507F1280009F08F
:1051B00084FC0A224FF47A70B5FBF0F507F1180071
:1051C000294609F01AFD07F1180107F1280009F036
:1051D0007BFD6B4909F084FDB4FBF5F10A228146A1
:1051E00007F1380009F009FD07F13801484609F0D8
:1051F0006BFD644909F074FD0A220546002107F1A0
:10520000480009F0E7FC07F14801284609F05CFD79
:10521000014607F1580009F09BFC042107F15800F2
:10522000FFF7F6FA07F1580009F0FCFB07F1480018
:1052300009F0F8FB07F1380009F0F4FB07F118005A
:1052400009F0F0FB07F1280009F0ECFBFFF70CF97F
:105250004D48C5460BF0BEFA4B4808F02DFA0546FE
:1052600080B94A4900E04A4907F1580009F025FC95
:1052700007F158000221FFF7CBFA07F1580009F0B7
:10528000D1FBE8E6434907F1480009F016FC314636
:1052900007F1180009F05CFC3F4907F1180009F01C
:1052A0001FFD07F1080109F00FFD014607F1280075
:1052B00009F04EFC07F12801334808F0D7F90A221B
:1052C000014607F1380009F072FC07F1380107F1D7
:1052D000480009F0F9FC014607F1580009F038FCD4
:1052E000042107F15800FFF793FA07F1580009F07D
:1052F00099FB07F1380009F095FB07F1280009F048
:1053000091FB07F1180009F08DFB07F1480009F047
:1053100089FB224907F1480009F0CFFB0A22214608
:1053200007F1380009F069FC07F1380107F148007E
:1053300009F0CAFC014607F1580009F009FC0421F4
:1053400007F15800FFF764FA07F1580009F06AFB0B
:1053500007F1380009F066FB07F1480009F062FB2D
:10536000094808F095FA054608B90D497CE700217F
:1053700007200BF0E6FD08F033FF6CE696260E00E2
:10538000712B0E009A260E0044E00320D0260E005A
:10539000AA260E00EA260E0074240E0001270E0035
:1053A00014270E0038B5054608F006FC044608F040
:1053B00003FC001BA84202D2FFF756F8F7E738BDFE
:1053C00030B5002187B0054607200BF0BAFD1A481A
:1053D0000AF045FB194B0024C3F88044C3F8844409
:1053E00009F0BCFD09F03EFE03A8CDE903448DF8A9
:1053F00014400AF07FFC41F28830FFF7D3FF1048D9
:10540000234622462146406808F0B2FE0D4809F0C6
:1054100017F841F28830FFF7C5FF0B4B1B6800936C
:1054200002222B46062103A8FEF76CFF4FF47A7088
:10543000FFF7B8FF07B030BDA0E1032038DA032042
:1054400060E6032004E5032004DF032038B5046888
:1054500005467CB16368013B63605BB92368204605
:105460009B689847A368013BA3601BB9236820464B
:10547000DB689847284638BD2DE9F04FEBB0924ADB
:105480009249934DDFF850A256A8FEF7ADFE57A8FB
:10549000FFF7DCFF8F4956A809F00FFB042156A83F
:1054A000FFF7B6F956A809F0BDFA8B4956A809F0DE
:1054B0004FFB8A4956A809F013FC0023024688498D
:1054C00006A807F03BFA1AAE56A809F0ABFA304628
:1054D000FFF7EAF800220AA91EA807F089F9814B14
:1054E00093F800804FF0000908F5FA684F461EA8AF
:1054F000FFF79AF80446002800F0F680294602A833
:1055000009F0DBFA0AF052FF044602A809F024FC75
:105510000A22014656A809F05DFB5699204609F07B
:1055200032FF56A809F07EFA1EA8FFF76CF8002893
:1055300000F0B48002A809F00FFC404500F0AE80F6
:1055400002A809F009FC08F1FF33984200F0A68098
:105550002EA8FFF7A9F800221EA932A807F048F9E3
:105560000AF024FF294609F00EFF5C4C32A8FFF731
:105570005BF800287CD032A8FFF745F8002864D0FB
:105580000DF5847B5846FFF78FF832A9002246A814
:1055900007F02EF90AF00AFF294609F0F4FE46A8A2
:1055A000FFF742F85146002834D056A809F0D0FA47
:1055B000214656A809F094FB294609F091FB2146A3
:1055C00009F08EFB294609F08BFB214609F088FB88
:1055D000294609F085FB01684148FEF76DFF0190FF
:1055E00056A809F01FFA019B0BB109F1010946A861
:1055F00007F074F856A8FFF757F8002232A95AA806
:1056000007F0F6F856A95846FFF7F4F856A8FEF743
:1056100077FDC4E756A809F09BFA214656A809F081
:105620005FFB294609F05CFB214609F059FB29463E
:1056300009F056FB01682A48FEF769FF56A809F0F1
:10564000F1F958460137FEF75BFD32A807F046F83E
:1056500056A8FFF729F800221EA95AA807F0C8F893
:1056600056A92EA8FFF7C6F856A8FEF749FD7DE714
:10567000514656A809F06CFA184956A809F030FBB3
:10568000294609F02DFB01681548FEF740FF56A892
:1056900009F0C8F92EA80137FEF732FD1EA807F061
:1056A0001DF856A8FFF700F800220AA95AA807F02B
:1056B0009FF856A93046FFF79DF856A8FEF720FD43
:1056C00002A809F0AFF912E726270E0043270E00C3
:1056D0004F270E004A270E005CE5032074240E00BD
:1056E00038DA0320EDE403200AA806F0F7FF9F490B
:1056F00042A809F0E2F90A2239462EA809F057FA21
:105700002EA942A809F0E0FA994909F0E9FA0A221B
:105710000546494656A809F04AFA56A9284609F00E
:10572000D3FA9449026802A8FEF75EFD03A8FFF7CA
:105730008DFE56A809F076F92EA809F073F942A853
:1057400009F070F989492EA809F0B7F90A223946FB
:1057500002A809F02CFA02A92EA809F0B5FA84498A
:10576000854F09F0BDFA0A224946054642A809F0CC
:105770001EFA42A9284609F0A7FA014656A809F0E0
:10578000E7F9042156A8FFF743F856A809F04AF9AB
:1057900042A809F047F902A809F044F92EA809F037
:1057A00041F9764A7349DFF8DC9156A8FEF71CFDF3
:1057B00057A8FFF74BFE724956A809F07EF904215D
:1057C00056A8FFF725F856A809F02CF923466D4A8C
:1057D0006D4956A807F09EF856A906A8FFF70AF8E3
:1057E00056A8FEF78DFC56A8FEF75EFF22460AA9D2
:1057F0005AA806F0FDFF56A93046FEF7FBFF56A853
:10580000FEF77EFC1EA8FEF70FFF0546002847D0D6
:1058100039462EA809F051F90A22A8F1020156A82A
:1058200009F0C5F956A92EA809F081FA054656A82F
:1058300009F0F8F8E5B1494656A809F03EF93946AD
:1058400042A809F03AF942A956A809F03DFA0168C0
:105850004D48FEF731FE054642A809F0E3F856A888
:1058600009F0E0F8D5B90AF0A1FD484909F08BFD2F
:105870001EA806F033FF56A8FEF716FF00220AA95D
:105880005AA806F0B5FF56A93046FEF7B3FF56A852
:10589000FEF736FC2EA809F0C5F8B3E70134E7E7B8
:1058A0000AA806F01BFF314942A809F006F90A22AE
:1058B00029462EA809F07BF92EA942A809F004FA7E
:1058C0002B4909F00DFA0A220746214656A809F08D
:1058D0006EF956A9384609F0F7F92649026802A878
:1058E000FEF782FC03A8FFF7B1FD56A809F09AF86D
:1058F0002EA809F097F842A809F094F81B492EA8A1
:1059000009F0DBF80A22294602A809F050F902A999
:105910002EA809F0D9F9164909F0E2F90A2205463C
:10592000214642A809F043F942A9284609F0CCF9DA
:10593000014656A809F00CF9042156A8FEF768FFA5
:1059400056A809F06FF842A809F06CF802A809F00F
:1059500069F82EA809F066F83046FEF7D1FB06A8D4
:10596000FEF7CEFB01206BB0BDE8F08F5D270E0087
:1059700061270E0043270E004F270E0066270E00FA
:1059800081270E0070240E0038DA032098240E00C0
:105990002DE9F04F5F4C2378BFF35B8FDB07BDB081
:1059A00006460AD42046FEF77CFB30B15A48012156
:1059B00008F0A0FD2046FEF779FB4FF6FF7256482F
:1059C000002108F0B2FD012113200BF0BAFA642087
:1059D00009F04AFE514803F04DFF5048552200217E
:1059E00004F0B4FA4D48002104F00BFA552804469F
:1059F0004ED14A4C4A4F4B4DFEF736FD0122FF2156
:105A0000204603F072FF0DF116020A21204604F031
:105A100021F90DF117020B21204604F01BF99DF826
:105A20001630262B04D19DF81730422B00F08480CD
:105A3000394614A809F041F89DF817309DF8162052
:105A4000294610A809F08EF910A914A809F03CF90C
:105A5000014628A809F07CF8012128A8FEF7D8FE05
:105A600028A808F0DFFF10A808F0DCFF14A808F051
:105A7000D9FF41F2883009F0F7FD2B4B1B680093EA
:105A8000022240F2DC53062128A8FEF73BFCB3E7D4
:105A9000264914A809F011F80A22214610A809F095
:105AA00074F810A914A809F00FF9014628A809F004
:105AB0004FF8012128A8FEF7ABFE28A808F0B2FF96
:105AC00010A808F0AFFF14A808F0ACFF184A194955
:105AD00028A8FEF789FB29A8FFF7B8FC43F6982011
:105AE00009F0C2FD104B1B680093022240F2DC5308
:105AF000062128A8FEF706FC4FF47A7009F0B4FDE1
:105B000008F018FEFEF7B0FC012420463DB0BDE8C9
:105B1000F08F00BFF4D90320F8D90320E0E403207C
:105B2000D2270E00F9270E0004DF032085270E0080
:105B3000C8270E0043270E000121A548A44D03F0FD
:105B4000CFFE0A2009F090FDA14804F045F80A2094
:105B500009F08AFD07219E4804F010F80A2009F098
:105B600083FD07219A4803F045FF0A2009F07CFDD8
:105B70000021974803F0D9FE0A2009F075FD9448EA
:105B800004F0E8F90A2009F06FFD914804F0E6F905
:105B900041F2883009F068FD8D4804F0E1F90A20EF
:105BA00009F062FD08F008F8044608F005F808223C
:105BB0004121284604F029F9B0B9FEF755FC0A2026
:105BC00009F052FD07F0F8FF47F23052031B9342F1
:105BD000EDD9804928A808F070FF28A80121FEF718
:105BE00017FE28A808F01EFF0A2009F03DFD78489E
:105BF00004F011F97849044614A808F05EFF0A225F
:105C0000214610A808F0D3FF10A914A809F05CF8E9
:105C1000014628A808F09CFF042128A8FEF7F8FDFB
:105C200028A808F0FFFE10A808F0FCFE14A808F051
:105C3000F9FE6A4908A808F040FF6548082241219A
:105C400004F0E3F8002800F0408314A8FEF72CFDD0
:105C50006249634D0CA808F030FF0A2009F004FDEA
:105C6000604910A808F029FF10A928A808F070FFC3
:105C70005D4928A809F034F801460CA808F059FF3E
:105C800028A808F0CFFE10A808F0CCFE29780A2238
:105C900001F5FA6110A808F08AFF10A928A808F0F9
:105CA00057FF514928A809F01BF801460CA808F035
:105CB000E9FF28A808F0B6FE10A808F0B3FE0A22F3
:105CC000697810A808F061FF10A928A808F040FF23
:105CD000454928A809F004F801460CA808F0D2FFAD
:105CE00028A808F09FFE10A808F09CFE3F4B1B78E8
:105CF0001BB13F490CA808F0C9FF0AF057FB3D490A
:105D0000044628A808F0D9FE0CA928A808F0DCFF52
:105D10000168204609F037FB28A808F083FE0C999B
:105D20003548FEF7A8FB002840D02C4910A808F001
:105D3000C4FE0CA928A808F00BFF2B4928A808F0DE
:105D4000CFFF314608F0C0FF014610A808F0F1FE71
:105D500028A808F067FE40F2016310AA264928A887
:105D600006F0ECFD28A914A8FEF744FD28A8FEF7CC
:105D7000C7F90A2009F078FC18A8FEF755FC04467C
:105D800000283BD118A806F0A9FC114804F0E2F85D
:105D9000642009F069FC0E4804F0E0F841F2883014
:105DA00009F062FC10A808F03DFE07E0124801224D
:105DB0000CA9FEF7D6FB04460028B6D10CA808F0C3
:105DC00031FE14A8FEF79CF908A808F02BFE9CE60B
:105DD000E0E40320FF270E000D280E006A290E00C4
:105DE000EDE4032018D6032074240E00F3E403200E
:105DF00011280E0016280E0038DA03200AF0D6FA11
:105E0000BE49BF4E09F0BFFABE4928A80AF02CFBD4
:105E1000BD4809F0A3FD10EE100A0BF007FC0B467D
:105E20000246BA49BA4808F03BFA2A9AB949BA4830
:105E300008F036FA2A78AB7800936B78B749B848FF
:105E400002F5FA6208F02CFA6B790093EA782B7964
:105E5000B449B54808F024FA0AF0A8FAB34909F0A1
:105E600092FA00233360FEF7FFFA0AF09FFAB04976
:105E700009F089FAAF49562214A8B046FEF703FC90
:105E8000AD4E40F60705B146317814A8FEF700FC88
:105E9000013DF9D1DFF878B2A849A94EDFF8C4A2D4
:105EA000A84F172214A8FEF7EEFB0AF07FFAA649C6
:105EB00009F069FA9BF80030B3729BF80130337334
:105EC0009BF80230B3739BF8033033741223CAF883
:105ED0000030F5727573F57375740AF067FA9B49B3
:105EE00009F051FA9A4B9BF800205A757A759BF885
:105EF00001209A75BA759BF80220DA75FA759BF83D
:105F000003201A76DFF810B23A761922CAF8002078
:105F10000AF04CFA8F4909F036FA9BF80020B27764
:105F20009BF8012086F820209BF8022086F822208A
:105F30002422CAF80020F57786F8215086F82350ED
:105F40000AF034FA844909F01EFA814B9BF80020CC
:105F500083F83F2087F83F209BF8012083F84020FA
:105F600087F840209BF8022083F84120422387F8DD
:105F70004120CAF800300AF019FA784909F003FA0A
:105F80003023CAF80030664B324618462946B346DD
:105F9000AC46082902F1020208D010F8015B82F831
:105FA0002E5082F82FC001312546F2E715B140226C
:105FB000CAF8002003930AF0F9F9694909F0E3F9F6
:105FC0006348039B682213F8011BB9541154013232
:105FD000702AF8D1634DDFF850A12A600AF0E6F983
:105FE000614909F0D0F94E232B60554A00235046F1
:105FF00019461F46062902F1020208D010F8013B9B
:1060000082F84C3082F84D7001312346F2E70BB133
:106010005A232B600AF0CAF9544909F0B4F94949E6
:106020004B4897230F461AF8012B5A541A54013340
:106030009D2BF8D12B600AF0B9F94D4909F0A3F96D
:1060400064232B604B4B1A680020013A2B686E2B9F
:1060500009DC12F8011F0BF803100BEB03010233EC
:1060600048702B60F2E70AF0A1F9434909F08BF977
:10607000C2232B603F4BDFF8CCC01A683449013A89
:106080002B68C72B08DC12F8010F0CF803001078FE
:10609000C85401332B60F3E70AF088F9374909F057
:1060A00072F980232B60364900231A461846052AC8
:1060B00006F1020608D011F8013B86F87E3086F81A
:1060C0007F0001322346F2E70BB18A232B600AF0EE
:1060D0006DF92C4909F057F9F0232B602A4B1C4924
:1060E0001A68013A2B68F52B50DC12F8010FF854AE
:1060F0001078C85401332B60F4E700BF1B280E0052
:106100006CE5032060E60320A0E1032031280E00A7
:10611000FCDE032037280E0034DA03203B280E0073
:1061200014DA032048280E001DDA032055280E003B
:1061300067280E00742E0E00ECE40320CA2E0E0019
:10614000D4D6032060D7032075280E0083280E00C4
:1061500056D8032091280E009F280E00AD280E006F
:10616000BB280E00B8E10320C9280E00D7280E0076
:10617000E5280E0004DA0320F4280E0003290E009F
:10618000E8DE032012290E005CE5032000232B60CB
:106190000AF00CF94E4909F0F6F840F6080499F8AF
:1061A000001014A8FEF774FA013CF8D149494A4D91
:1061B0008A2214A8FEF767FA484940F27D2214A803
:1061C000FEF761FA4649F52214A8FEF75CFA454944
:1061D0004FF4907214A8FEF756FA4349F52214A81A
:1061E000FEF751FA4149622214A8FEF74CFA4FF427
:1061F0000064297814A8FEF74BFA013CF9D1142267
:106200003B4914A8FEF73FFA0AF0D0F8394909F0E3
:10621000BAF8394803F02EFB0A2009F025FA374A6C
:10622000374906A8FDF7E0FF07A8FFF70FF9324846
:1062300003F05EFD0A2009F017FAC8F800402E4C62
:106240001425204603F0DAFD013D0646F9D12D4C18
:10625000DFF8A4A0DFF8B090D92E01D1FF2D1ED019
:10626000504603F0CBFDD8F800305A1CFF2A09F83D
:1062700003000746C8F8002008DD494614A8FEF7C9
:1062800002FA0023C8F80030FEF7EEF8013C35466C
:1062900003D118A806F022FA84E53E46DCE7D8F8D8
:1062A00000201AB1184914A8FEF7EDF9124803F0BE
:1062B00055FE114803F0A8FA18A806F00FFA0021BD
:1062C00013200AF03EFE01246CE508A808F0AAFBA2
:1062D00021290E00D4D603207CD90320E12E0E0004
:1062E00060D703205E310E0056D803207E320E00A8
:1062F000E0320E003A290E00E0E403204F290E00A0
:1063000043270E00C12709000ADF032038B5064DD8
:10631000C56104463430FFF799F8204640F8185B11
:10632000FFF794F8204638BDB4410E0038B5046834
:106330000D467CB1E168A9420CD035B129B128469F
:106340000BF016FF10F0FF0F04D02046FEF7B8F94F
:106350000446EEE7204638BD00F11C02C0E90022E9
:1063600000F50772C0E90222027E22F07F02027667
:10637000704770B50446B8B10B68B3B18B68556807
:1063800096680133E818B0420FD850606DB11A46D4
:10639000096828460BF0B2FE237A256023F07F03BC
:1063A00043F005032372012070BD237A23F07F039D
:1063B00023720020F8E770B1037A002903F080030C
:1063C000ADBF43F0080343F00A0349420372B8BF6C
:1063D000037201600120704770B5037A164613F00E
:1063E0007F0202BF23F07F0343F020030372037A8E
:1063F00008BFC0E9002213F0200304460D460DD06B
:10640000FFF794FF48B931462046FEF761F920B105
:10641000037AC56003F07F03037270BD1846FCE782
:1064200013B5837B04466BB9406801220DF1070167
:1064300009F017F848B19DF8073023EAE373637356
:106440000123A373607B02B010BD4FF0FF33F4E76C
:1064500070B5044600252046FFF7E2FF0D2823D043
:1064600007D8D8B10938C0B201281DD94FF00000B3
:1064700016E0202818D02F28F8D1A5732046FFF762
:10648000CFFF2A2804D02F2816D04FF0020007E0B3
:10649000A57300262046FFF7C3FF10B94FF0010097
:1064A00070BD2F2802D10EB1A573D4E7A0F12A0345
:1064B0005E425E41A573EDE7A5732046FFF7B0FF8E
:1064C0000028EBD00A28F7D1C5E708B5037A13F006
:1064D000200302D0FFF72AFF08BD1846FCE70000A2
:1064E000F0B585B082680092002601960D46D2E98B
:1064F000011353605B1A044602910393FFF790FF68
:10650000A67307462046FFF78BFF8742A67323D06A
:1065100018B94FF0010005B0F0BD5C2817D1204636
:10652000FFF77EFF0028F4D075280CD0104B1A79A5
:10653000191D5AB1904203F10203F8D1487828B9E5
:106540004FF00200E7E74FF00400E4E7A6730146CE
:106550006846FEF7D9F8D5E76846FEF7E3F8286005
:1065600010B94FF00300D6E74FF00000D3E700BFAB
:106570005C290E002F2807D9392803D95E280CD9A9
:106580007A2805D8012070472B28FBD02D28F9D078
:10659000A0F12E035842584170474028F8D95A2894
:1065A000EFE7F0B585B005460E46FFF739FF27281F
:1065B00029D0222827D0AA68009200270197D2E983
:1065C0000113284653605B1A02910393FFF728FFDB
:1065D0000446F0B1FFF7CEFFE8B121466846AF733D
:1065E000FEF792F82846FFF71BFF0446FFF7C2FFAD
:1065F0000028F2D16846FEF795F80028306014BFF5
:106600000020032003E031462846FFF769FF05B06C
:10661000F0BD0120FBE70220F9E7000000280FDDB4
:1066200011490023C20741BFDAB201EB8202D2ED69
:10663000007A20EE270A401003F10103F2D17047DF
:106640000A494042002368B1C20742BFDAB201EBF7
:106650008202D2ED007A4FEA600048BF20EE270A9E
:106660000133F0E7704700BFF4D50320DCD50320E9
:106670002DE9F0410B782B2B044610D02D2B0FD198
:10668000013101260A78A2F13003092B4FF00003F3
:1066900008D92E2A06D00022236062602FE0013143
:1066A0000026EFE74C4F00234FF00A0C084610F885
:1066B000015BA5F13002D2B2092A09D8BB4208D841
:1066C0000CFB03F3D5439D4203D313440146EDE78E
:1066D00055B100220A25B3F5000F02F1010012D3D3
:1066E000B3FBF5F30246F6E707EE903AF8EE677A69
:1066F000002E2360C4ED017A14BF0A2308232372FD
:106700002046BDE8F081551A68180A4611F8017B49
:10671000A7F1300CBCF1090F40B2F5D92E2F11D1E1
:10672000DFF8C8C00D460A272A46013511783039EE
:10673000C9B2092906D86345F6D8013807FB031307
:1067400040B2F1E7117801F0DF01452935D15178E8
:106750002D2920D1951C012700214FF00A0E2A4631
:1067600015F801CBACF1300C5FFA8CF8B8F1090FD9
:106770001DD80EFB01C14218262AF0DD8FB1DFEDD6
:10678000177A9FED177A002E08BFF0EE477AC4ED16
:10679000017A0C23B3E72B2914BF551C951C002745
:1067A000DAE7DFED107A9FED107A002EECE707B103
:1067B000494212781AB100236DE70021F9E707EE8C
:1067C000903A0844B8EE670AFFF728FF0EB1B1EE21
:1067D000400A84ED010ADCE79999991900000080CC
:1067E00000000000000080FF0000807FCBCC0C0088
:1067F0002DE9F04794B080460D46FFF711FE0024C6
:106800000646A2460DF110093046E7B2FFF7B2FE88
:1068100060B13F2C09D088F80EA0404604F809600A
:10682000FFF7FEFD01340646EEE7274614AB3B4476
:10683000002403F8404C9DF81030742B09D12B7ABA
:1068400023F07F0343F006032B7201232B60381FD4
:1068500009E0662B0CD12B7A2C6023F07F0343F0E8
:1068600006032B72781F18BF012014B0BDE8F08713
:106870006E2BECD004A901A8FFF7FAFE9DF80C30AE
:10688000019A0A2B09D00C2B10D0082B17D12B7A88
:1068900023F07F0343F0080304E02B7A23F07F0307
:1068A00043F00A032B722A602046DEE72B7A23F09E
:1068B0007F0343F00C032B72029B2B60F4E74FF035
:1068C0000200D2E773B505460C46FFF7C1FDC6B21C
:1068D000002E39D12846FFF7A3FD5B2818D008D831
:1068E000222823D0272821D021462846FFF780FFE1
:1068F0001AE07B28F8D1237A23F07F0343F02003AA
:10690000C4E9006623722146284600F066F80BE0D1
:10691000237A23F07F0343F04003C4E90066237227
:106920002146284600F012F8C0B20DE001A9284621
:10693000FFF7D6FDC0B238B9237A23F07F0343F0C6
:1069400005032372019B236002B070BD70B5037B09
:1069500005460E4613B94FF0050070BDFFF760FD08
:106960005B2802D04FF00200F7E70023AB73284604
:10697000FFF76EFD10F0FF0FEFD12846FFF750FD37
:106980005D2820D10020A873E7E72B7B013B2B7308
:106990002846FFF797FF2B7BC0B201332B730028EB
:1069A000DBD12846FFF754FDC4B20CB12046D4E732
:1069B0002846FFF735FD5D28E4D02846FFF730FD77
:1069C0002C28CFD1AC7329683046FDF781FE0146F3
:1069D0000028DAD14FF00300BFE7F7B5037B064686
:1069E0000D461BB94FF0050003B0F0BDFFF718FDD1
:1069F0007B2802D04FF00200F6E70023B373304645
:106A0000FFF726FDC4B2002CEED13046FFF708FD9B
:106A10007D2839D1B4730BE0037A63F07F030372EE
:106A2000019BC36007463046FFF712FDC4B20CB1AC
:106A30002046D9E73046FFF7F3FC3A28DAD1337B1A
:106A4000B473013B337339463046FFF73BFF337B6A
:106A5000C0B2013333730028C6D13046FFF7F8FCCB
:106A6000C4B2002CE4D13046FFF7DAFC7D28D1D047
:106A70003046FFF7D5FC2C28BCD1B4733046FFF765
:106A8000E7FCC0B20028AFD101A93046FFF789FD6D
:106A9000C0B20028A8D101992846FFF747FC074655
:106AA0000028C0D131682846FDF712FE0028B3D176
:106AB0004FF0030098E700002DE9F0410B782B2BF5
:106AC000044610D02D2B0FD1013101260A78A2F1F6
:106AD0003003092B4FF0000308D92E2A06D00022DC
:106AE000236062602FE001310026EFE74C4F002366
:106AF0004FF00A0C084610F8015BA5F13002D2B243
:106B0000092A09D8BB4208D80CFB03F3D5439D42A0
:106B100003D313440146EDE755B100220A25B3F52E
:106B2000000F02F1010012D3B3FBF5F30246F6E7C2
:106B300007EE903AF8EE677A002E2360C4ED017AF2
:106B400014BF0A23082323722046BDE8F081551A9A
:106B500068180A4611F8017BA7F1300CBCF1090F47
:106B600040B2F5D92E2F11D1DFF8C8C00D460A2743
:106B70002A46013511783039C9B2092906D863454A
:106B8000F6D8013807FB031340B2F1E7117801F0A2
:106B9000DF01452935D151782D2920D1951C0127B8
:106BA00000214FF00A0E2A4615F801CBACF1300C4B
:106BB0005FFA8CF8B8F1090F1DD80EFB01C142181D
:106BC000262AF0DD8FB1DFED177A9FED177A002EC0
:106BD00008BFF0EE477AC4ED017A0C23B3E72B2906
:106BE00014BF551C951C0027DAE7DFED107A9FEDE6
:106BF000107A002EECE707B1494212781AB100234F
:106C00006DE70021F9E707EE903A0844B8EE670A0D
:106C1000FFF704FD0EB1B1EE400A84ED010ADCE796
:106C2000999999190000008000000000000080FF81
:106C30000000807FCBCC0C0030B50D46D0E9004180
:106C400087B0103420460191FFF73FFC38B1037A3A
:106C5000019903F07F03082B03D00A2B17D0286873
:106C600025E00368DB43DB0F002BF8D02046FFF75D
:106C70002CFCE0B1037A03F07F03043B082B25D8FA
:106C8000DFE803F017170C240C2410243B000368E2
:106C9000B3F1004F8CBF00230123E5E7006820EA31
:106CA000E07004E00068B0F1004F0FD8404207B038
:106CB00030BD016803A8FFF7FFFE9DF8143003986C
:106CC0000A2BF0D00C2B03D0082BE8D00020EEE7E5
:106CD000DDED047A9FED0A7AF4EEC77AF1EE10FA50
:106CE000F4DB9FED087AF4EEC77AF1EE10FAEDD8F6
:106CF000FDEEE77A17EE900AD9E7D0ED007AE9E7E2
:106D0000000000CF0000004F37B50446084601914F
:106D10000BF072FA0246206801990368DD68A84703
:106D200063681844606003B030BD10B50446006865
:106D300003689B68984763681844606010BD000052
:106D400070B505460C4619B91049FFF7DDFF70BD57
:106D50002221FFF7EAFF013C14F8011F39B10C4B67
:106D60001E7876B15A788A4206D00233F8E722219B
:106D70002846FFF7DAFFEAE75C212846FFF7D5FF50
:106D800031462846FFF7D1FFE6E700BF6B290E002A
:106D90005C290E0000000000F8B5DFED577AB4EE74
:106DA000E70A0623F1EE10FA2DED028B0446B0EE51
:106DB000408A837244DB514A51491423002520271D
:106DC000D2ED057AF4EEC87AF1EE10FA06D858182A
:106DD000D0ED007A3D4428EE278A2DB2043B181DE1
:106DE0004FEA6707A2F10402EAD14FF0FF36B5EE91
:106DF000C08AF1EE10FA27DD18EE100A0AF016FC30
:106E00003BA3D3E900230AF0E5FEE8B13D493B4846
:106E100033461A0618D401EB8306D6ED007AF4EE59
:106E2000C87AF1EE10FA4FEA830206DD0244D2ED91
:106E3000007AED1B28EE278A2DB27F10013BE8E790
:106E4000202705260025D2E7FCEEC87A2E492581A9
:106E500017EE902A17EE903AC4ED007A0A26092B15
:106E600007D9B1FBF6F1B3FBF6F3A07A0138A072B3
:106E7000F5E707EE902AB8EE670A07EE901A38EEAB
:106E8000408AB8EEE70A28EE008AFCEEC87AB8EE2F
:106E9000677A17EE900A38EE478A38EE088ABCEE19
:106EA000C88A18EE103A03448B420FD263600A215D
:106EB0006368B3FBF1F201FB1233A3B994F90A3012
:106EC000002B10DD013B6260A372F1E70023013269
:106ED00063602260002DEAD0092A81BF01350123B9
:106EE00025812360E3E7BDEC028B2046F8BD00BF9F
:106EF000F168E388B5F8E43E8096184BF4D503209A
:106F0000DCD50320C4D5032040420F0010B5044651
:106F100000680368521ADB68984763681844606029
:106F200010BD70B586B00DF116031A460A26B1FBE6
:106F3000F6F506FB1514303403F8014D0C46092C08
:106F40002946F4D81946FFF7E1FF06B070BD0000EE
:106F500070B52DED028BB4EE400AF1EE10FA8AB056
:106F60000446B0EE408A07D03F492046FFF7CCFEEA
:106F70000AB0BDEC028B70BDB5EE400AF1EE10FA1E
:106F800006D070EE007AB4EE670AF1EE10FAEBD09C
:106F9000B5EEC08AF1EE10FA05D52D212046FFF797
:106FA000C4FEB1EE488AB0EE480A01A8FFF7F4FE2D
:106FB00001992046FFF7B5FF9DF90E10E1B1029B44
:106FC0000DF11F050A460A26013A52B2501C08D09C
:106FD000B3FBF6F006FB1033303305F801390346F6
:106FE000F2E7C9B208AA531A2E20C94303F8010CCC
:106FF00011442046FFF78AFFBDF90C30002B17DA49
:107000001A492046FFF780FEBDF90C300DF126012C
:107010005B420A460A2593FBF5F005FB103330333B
:1070200001F8013D03460028F5D12046FFF76EFF29
:10703000BDF90C30002B9BDD65212046FFF775FE66
:107040000DF12601BDF90C300A460A2593FBF5F037
:1070500005FB1033303301F8013D03B20028F5D1B0
:107060002046FFF753FF83E76B290E0070290E00BF
:1070700038B5027A02F07F030C2B05460C460DD87A
:1070800012F07E0F0ED0023B0A2B0BD8DFE803F084
:107090004E4E4949640A620A580A0C00202B22D03D
:1070A000402B07D031495AE090ED000A0846FFF71F
:1070B0004FFF38BD5B212046FFF737FE2D686DB1CD
:1070C00028462146FFF7D4FF2846FDF7F9FA054682
:1070D00020B12C212046FFF728FEF0E75D21204655
:1070E000FFF723FEE5E77B212046FFF71EFE2D6814
:1070F000ADB1E9682046FFF723FE3A212046FFF7AD
:1071000014FE28462146FFF7B3FF2846FDF7D8FABC
:10711000054620B12C212046FFF707FEE8E77D2138
:10712000DDE701682046FFF70BFEC2E70868036849
:10713000D5E90012DB689847636818446060B8E7D7
:1071400005682D212046FFF7F0FD29462046FFF770
:10715000E8FEAEE70168F9E7036823B10449204679
:10716000FFF7D2FDA5E70349F9E700BF6B290E0041
:1071700073290E0078290E0010B5ADF5227D014669
:10718000019007AC4648FDF797F92046019A44491B
:1071900044F2022305F0BEFB0BA8FDF745FA90B9B7
:1071A00009F004F93F4908F0EEF81BA83D4A3E49B2
:1071B000FDF71AF81CA8FEF749F92046FCF7A0FFD6
:1071C0000DF5227D10BD1BA8FFF7C6F837491BAA95
:1071D0001FA8FFF701F936491BAAFFF7CAF835497E
:1071E0001BAA1FA8FFF7F8F833491BAAFFF7C1F83D
:1071F00032491BAA1FA8FFF7EFF831491BAAFFF776
:10720000B8F81BAA2F491FA8FFF7E6F82E4B1968FC
:10721000FFF7D1F81BAA2D491FA8FFF7DDF82C4B6B
:107220001968FFF7C8F82B491BAA1FA8FFF7D4F865
:1072300029491BAAFFF79DF828491BAA1FA8FFF799
:10724000CBF827491BAAFFF794F826491BAA1FA8C9
:10725000FFF7C2F824491BAAFFF78BF823491BAAA2
:107260001FA8FFF7B9F822491BAAFFF782F80023ED
:1072700003A91FA804930394FFF7FAFE049B53B9D4
:107280001C4903A807F019FC03A80221FDF7C0FA66
:1072900003A807F0C7FB0BA805F020FA8DE700BF95
:1072A00038DA03207E290E009B290E00A1290E004A
:1072B00004DA0320A5290E005CE50320B1290E00A5
:1072C00024DA0320BA290E000CE00320C7290E009F
:1072D0000CD60320D3290E00A8E10320E0290E00DC
:1072E00070E50320ED290E00F4E40320FA290E00D6
:1072F00090E10320022A0E0013B5044608460191CE
:107300000AF07AFF019902462046FCF759FF6368AC
:107310001844606002B010BD10B50446006807F064
:10732000C6FC63680133636010BD000070B505469C
:107330000C4619B91049FFF7DFFF70BD2221FFF796
:10734000EBFF013C14F8011F39B10C4B1E7876B1EC
:107350005A788A4206D00233F8E722212846FFF7FE
:10736000DBFFEAE75C212846FFF7D6FF31462846D7
:10737000FFF7D2FFE6E700BF6B290E005C290E0085
:1073800010B5521A0446FCF71BFF6368184460608E
:1073900010BD70B586B00DF116031A460A26B1FB72
:1073A000F6F506FB1514303403F8014D0C46092C94
:1073B0002946F4D81946FFF7E3FF06B070BD000078
:1073C00070B52DED028BB4EE400AF1EE10FA8AB0E2
:1073D0000446B0EE408A07D03F492046FFF78CFFB5
:1073E0000AB0BDEC028B70BDB5EE400AF1EE10FAAA
:1073F00006D070EE007AB4EE670AF1EE10FAEBD028
:10740000B5EEC08AF1EE10FA05D52D212046FFF722
:1074100083FFB1EE488AB0EE480A01A8FFF7BCFC32
:1074200001992046FFF7B5FF9DF90E10E1B1029BCF
:107430000DF11F050A460A26013A52B2501C08D027
:10744000B3FBF6F006FB1033303305F80139034681
:10745000F2E7C9B208AA531A2E20C94303F8010C57
:1074600011442046FFF78CFFBDF90C30002B17DAD2
:107470001A492046FFF740FFBDF90C300DF12601F7
:107480005B420A460A2593FBF5F005FB10333033C7
:1074900001F8013D03460028F5D12046FFF770FFB3
:1074A000BDF90C30002B9BDD65212046FFF734FF32
:1074B0000DF12601BDF90C300A460A2593FBF5F0C3
:1074C00005FB1033303301F8013D03B20028F5D13C
:1074D0002046FFF755FF83E76B290E0070290E0049
:1074E00038B5027A02F07F030C2B05460C460DD806
:1074F00012F07E0F0ED0023B0A2B0BD8DFE803F010
:107500004E4E4949630A610A570A0C00202B22D0CB
:10751000402B07D0304959E090ED000A0846FFF7AC
:107520004FFF38BD5B212046FFF7F6FE2D686DB199
:1075300028462146FFF7D4FF2846FDF7C1F8054647
:1075400020B12C212046FFF7E7FEF0E75D21204621
:10755000FFF7E2FEE5E77B212046FFF7DDFE2D6821
:10756000ADB1E9682046FFF7E1FE3A212046FFF77A
:10757000D3FE28462146FFF7B3FF2846FDF7A0F8C3
:10758000054620B12C212046FFF7C6FEE8E77D2105
:10759000DDE701682046FFF7C9FEC2E7D0E9001227
:1075A0002046FCF70DFE636818446060B9E7056883
:1075B0002D212046FFF7B0FE29462046FFF7E9FEC1
:1075C000AFE70168F9E7036823B104492046FFF7F4
:1075D00093FEA6E70249F9E76B290E0073290E0016
:1075E00078290E0070B5D1E9004188B01034054605
:1075F000204616460191FEF768FF98B3037A019979
:1076000003F07F03043B012B2CD82046FEF75DFFDF
:10761000044668B1037A03F07F03043B012B07D8CB
:10762000016829B1284607F048FA284608B070BD1D
:1076300004AE0F49304607F040FA00230296039348
:107640005CB102A92046FFF74BFF3146284607F000
:1076500065FA304607F0E6F9E7E7064902A8FFF7C2
:107660004BFEF2E73146284607F072FADDE700BF2D
:107670006A290E006B290E002DE9F047ADF5227D39
:1076800007AE0D46024683490023304605F042F915
:107690000BA8FCF7C9FF1BAC05F1080A05F11C0992
:1076A00005F1380805F16A07002862D02046FEF788
:1076B00053FE23686360E368A360237E059423F090
:1076C0007F0323760A238DF818301FA9002303A80F
:1076D000CDE903468DF81A30FFF7F4F810F0FF0FEC
:1076E0000CD19DF81930002B51D0237E13F0600F80
:1076F0004DD103F07F03043B012B48D908F056FE1F
:10770000654907F040FE03A8634A6449FCF76CFD35
:1077100004A8FDF79BFE0BA804F0E0FF2946604893
:1077200007F021FA51465F4807F01DFA49465E48C6
:1077300007F019FA5D4B2A6B1A605D4B6A6B5D4866
:107740001A60414607F00FFA39465B4807F00BFA1A
:1077500005F17E01594807F006FA05F192015848F3
:1077600007F001FA3046FCF7CBFC0DF5227DBDE8B1
:10777000F08708F01BFE534907F005FE2046514AEA
:107780004649FCF731FD1CA8FDF760FEC6E74E4BED
:10779000434A029301A903A80194FFF723FF039929
:1077A000082228460AF013FD03A807F03BF9474BCF
:1077B0003C4A029301A903A80194FFF713FF039920
:1077C000142250460AF003FD03A807F02BF9404BA2
:1077D000354A029301A903A80194FFF703FF14227D
:1077E000039948460AF0F3FC03A807F01BF9394B4C
:1077F0002E49049303A80394FFF71EFA364B28631F
:107800002B49049303A80394FFF716FA334B6863DC
:1078100001A903A8274A02930194FFF7E3FE039905
:10782000322240460AF0D3FC03A807F0FBF82C4BA9
:10783000214A029301A903A80194FFF7D3FE0399FB
:10784000142238460AF0C3FC03A807F0EBF8254BD6
:107850001A4A029301A903A80194FFF7C3FE0399F2
:10786000142205F17E000AF0B2FC03A807F0DAF852
:107870001D4B134A029301A903A80194FFF7B2FE1E
:107880000399322205F192000AF0A1FC03A807F047
:10789000C9F840E738DA03201A2A0E00452A0E00FC
:1078A00004DA03205CE5032024DA03200CE0032043
:1078B0000CD60320A8E1032070E50320F4E40320A4
:1078C00090E103204C2A0E00A1290E00A5290E00EC
:1078D000B1290E00BA290E00C7290E00D3290E00C7
:1078E000E0290E00ED290E00FA290E0030B599B0FE
:1078F0008949054604A807F0E0F8042104A8FCF72C
:1079000087FF04A807F08EF8844904A807F020F93F
:10791000834B844A1B681288834804A905F08AFEB9
:10792000044604A807F07EF85CB9804904A807F073
:10793000C4F804A80221FCF76BFF04A807F072F852
:1079400059E07B4904A807F003F9774804A905F03A
:10795000D3FE044604A807F065F80CB97549E5E7BD
:10796000754904A807F0F4F86F4804A905F0E6FE8D
:10797000044604A807F056F80CB97049D6E7294622
:1079800004A807F0E5F8684804A905F0F9FE0446E4
:1079900004A807F047F8002C46D1694904A807F06D
:1079A0008CF8032104A8FCF733FF04A807F03AF889
:1079B000294604A807F0CCF85B4804A905F002FFAB
:1079C000044604A807F02EF8C4B95E4904A807F0DD
:1079D00074F8294604A807F077F90146684607F0CD
:1079E000B7F802216846FCF713FF684607F01AF85B
:1079F00004A807F017F8204619B030BD524904A872
:107A000007F05BF8294604A807F05EF901466846CE
:107A100007F09EF803216846FCF7FAFE684607F077
:107A200001F804A806F0FEFF484904A807F045F84D
:107A3000474904A807F048F9464907F051F90146BB
:107A4000684607F085F86946374806F02BF8044683
:107A5000684606F0E7FF04A806F0E4FF0CB93E49CB
:107A600064E73E493E48FCF727FD30B908F09EFC2C
:107A70003C4907F088FC0024BDE7384A384944F205
:107A8000022304A804F046FF08A8FCF7CDFD044635
:107A900088B1254D284608F09EFED8B1284609F049
:107AA000A1F80028F6D0284608F055FFC1B204A876
:107AB000FCF7EEFDF2E72C49684606F0FEFF0221D6
:107AC0006846FCF7A5FE684606F0ACFF04A8FCF784
:107AD00017FBD0E708A804F001FE0A2007F0C4FD58
:107AE000114805F0E9FD104805F0D2FE0A2007F024
:107AF000BBFD1E49684606F0E0FF04216846FCF71E
:107B000087FE684606F08EFF19491448FFF7B4FD5A
:107B100004A8FCF7F5FA6EE77C2A0E00A8E1032022
:107B200084D9032080D9032044E003207F2A0E005B
:107B300070E503209C2A0E00F4E40320A92A0E001D
:107B4000E6250E00FE250E0011260E00B62A0E00B8
:107B500004DA0320CA2A0E00D62A0E00E82A0E00F4
:107B600038DA0320F32A0E00112B0E002D2B0E0005
:107B700010D603202DE9F04FB74FDFF80883DFB0B0
:107B80003D46414606A83C6806F097FFFCF76CFCB2
:107B900004A8B249FCF7CCFB04A806F01DFE80B196
:107BA000AF494AA806F089FF04214AA8FCF730FE35
:107BB0004AA806F037FF4FF47A7007F055FD06F03B
:107BC000B9FD04A806F00FFE002800F06181002333
:107BD0001A4618462E68A34C0093072107F04DFD66
:107BE000002319461A46606806F09AFA9E494AA888
:107BF00006F063FF04214AA8FCF70AFE4AA806F033
:107C000011FFA1464846FCF73DFB044600283DD144
:107C1000013E4FF47A7007F027FD8C2EF2DC012034
:107C200007F04AFD0121072009F07AF9642007F0E6
:107C30001BFD8E494AA806F040FF04214AA8FCF724
:107C4000E7FD4AA806F0EEFE0121072009F079F9C8
:107C500041F2883007F008FD2146072009F071F94C
:107C60004FF47A7007F000FD814B1B6800934AA81F
:107C700040F2DC5302220621FCF744FB4FF47A70F9
:107C800007F0F2FC06A806F0CDFE7AE72B68DFF8D5
:107C9000F891DFF8F8A1DFF8CCB11E265E43002E84
:107CA00040F3C980062009F065F90446002840F039
:107CB000AF80062009F05EF920B96420643407F033
:107CC000D3FCF6E749464AA806F0F7FE0A223146F9
:107CD00036A806F06CFF36A94AA806F0F5FF514613
:107CE00002682CA8FCF780FA2DA8FDF7AFFB36A898
:107CF00006F098FE4AA806F095FE59464AA808F0F4
:107D0000B3FB5C492CA806F0D8FE0A224C9922A8A5
:107D100006F04DFF22A92CA806F0D6FF564906F022
:107D2000DFFF014636A806F013FF042136A8FCF752
:107D30006FFD36A806F076FE22A806F073FE2CA88A
:107D400006F070FE012007F0B7FC0121072009F0C2
:107D5000E7F8642007F088FC00260021072009F0DE
:107D6000F0F84FF4FA7007F07FFC0121072009F0CA
:107D7000E8F801364FF4FA7007F076FC4C9B6FF090
:107D8000090293FBF2F3B342E7D22E6800231846B0
:107D900000931A46072107F070FCFCF765FB64208E
:107DA00007F062FCFCF704FBB4F5FA6F06F1FF364E
:107DB0007FF775AF42F20F739C423CDD012007F064
:107DC0007BFC0121072009F0ABF806F009FA2E68C8
:107DD00006F00EFA044608BB0146072009F0B1F888
:107DE000FA2007F041FC0121072009F0AAF8FA2047
:107DF00007F03AFC8C2E0DDC012007F05DFC012120
:107E0000072009F08DF8642007F02EFC1B4911E7CC
:107E10000024BBE7013EFCF7CBFAD9E74FF0FF3176
:107E2000174807F063FF072200230093114610460E
:107E300007F023FC26E7012007F03EFC0121072084
:107E400009F06EF80021072009F07BF80A2007F0FE
:107E50000BFC642014E700BF84D90320CCE5032089
:107E6000332B0E0060E60320362B0E00432B0E0052
:107E700004DF0320732B0E00822B0E00852B0E00D7
:107E8000BCE703206A290E00552B0E0043270E0085
:107E9000C349C44E4AA806F010FE04214AA8FCF7C4
:107EA000B7FC4AA806F0BEFD05F086FE3046FCF79A
:107EB000E9F9B0B94FF47A70013C07F0D5FBFCF753
:107EC000D3FA002CF2DCB84BB84901224AA81A7048
:107ED00006F0F3FD4AA80321FCF79AFC4AA806F035
:107EE000A1FDD5F800A0B04C05F066FE814606F075
:107EF0007FF908BB2678FEB94FF47A700AF1FF3A91
:107F000007F0B2FBFCF7B0FABAF1AA0FEFDCA84B0E
:107F10008DF8306101224AA81A70CDE94A6607F04F
:107F2000E9FEA4494AA806F0C8FD4AA80321FCF7C7
:107F30006FFC4AA806F076FD2E6805F03DFE9E49CE
:107F4000044636A806F0B9FDA4EB09040A224FF452
:107F50007A712CA8B4FBF1F106F04FFE2CA936A8DB
:107F600006F0B2FE01464AA806F0F2FD04214AA836
:107F7000FCF74EFC4AA806F055FD2CA806F052FD71
:107F800036A806F04FFD8D4807F004FD06210AA82B
:107F900006F047FE894807F0E1FC06210EA806F02E
:107FA00040FE804922A808F05FFA85491EA806F025
:107FB00084FD0AA91EA806F087FE824906F090FEFD
:107FC0000EA906F081FE804906F08AFE0A220446C8
:107FD00024992CA806F0EBFD2CA9204606F074FE8F
:107FE0007A4906F07DFE044622A807F0D3FB06215D
:107FF00036A806F016FE36A9204606F065FE74493E
:1080000006F06EFE01464AA806F0A2FD04214AA829
:10801000FCF7FEFB4AA806F005FD36A806F002FDB7
:108020002CA806F0FFFC1EA806F0FCFC22A807F016
:10803000B1FBF3EE097AB4EEE70AF1EE10FA5A4B0F
:1080400040F1F68001221A70624C4AA805F0CDF981
:10805000BDF82C314A98A380206008F0A7F9217858
:108060000A22064601F5FA614AA806F0A0FD4A99DF
:10807000304607F075F94AA806F0D4FC08F096F9E6
:108080002F2107F071F908F091F90A22064661786C
:108090004AA806F07AFD4A99304607F061F94AA8E5
:1080A00006F0C0FC08F082F92F2107F05DF908F016
:1080B0007DF90A220646A1784AA806F066FD4A998B
:1080C000304607F04DF94AA806F0ACFC08F06EF90E
:1080D000202107F049F908F069F90A220646E178FB
:1080E0004AA806F052FD4A99304607F039F94AA8E5
:1080F00006F098FC08F05AF93A2107F035F908F033
:1081000055F90A22064621794AA806F03EFD4A9909
:10811000304607F025F94AA806F084FC08F046F935
:108120003A2107F021F908F041F90A22617906465F
:108130004AA806F02AFD4A99304607F011F94AA8E4
:1081400006F070FC08F032F907F011F9A378012B62
:10815000A1460CD1E3780F2B09D141464AA806F07D
:10816000ACFC4AA8FDF788F94AA806F05BFC6379E5
:10817000019323790093E378A27817492CA806F09D
:108180008FF82CA906A806F0EEFC06A94AA806F06E
:10819000DFFC4AA8FDF7FCFB04464AA81EE000BF2E
:1081A000A02B0E0060E60320F3E40320A42B0E00B6
:1081B00010E00320B02B0E0096260E00A0E1032055
:1081C000BC2B0E00C22B0E00C72B0E00CE2B0E00B8
:1081D000E4240E00EDE403200F2C0E0006F022FC38
:1081E000002C40F0E580AE4936A806F066FC06A9F2
:1081F00036A806F069FD01464AA806F0A9FC01214F
:108200004AA8FCF705FB4AA806F00CFC36A806F0C5
:1082100009FC41F2883007F027FA4FF49670FDF719
:10822000CFF80EA806F0FEFB0AA806F0FBFB29E536
:108230001B78002B7FF408AF9A4B1C78002C40F081
:108240009980994B99491B788DF8003022463C2340
:108250004AA807F043FE4BA8FDF7F8F8944B954960
:108260001B788DF8003022463C234AA807F036FEE2
:108270004BA8FDF7EBF80A9A8F494AA8FBF7B4FF21
:108280004BA8FDF7E3F824990A224AA806F08FFCD0
:108290004A9A8A4936A8FBF7A7FF37A8FDF7D6F810
:1082A0004AA806F0BFFB05F0A3FF10B1204605F079
:1082B000B7FFFBF778FFF0B9A92E55DC80494AA833
:1082C00006F0FBFB02214AA8FCF7A2FA4AA806F036
:1082D000A9FB7C4E2C68DFF834923146484606F004
:1082E00014FD002846D0002C44DD4FF47A7007F0CE
:1082F000BBF9013CF1E7A92EE0DD07F039F90028D0
:10830000DCD007F09BF9814607F090F9824607F030
:1083100081F9834607F05AF9044607F063F90646E7
:1083200007F06CF9F6B2C0B2E4B25FFA8BF35FFA11
:108330008AF21FFA89F10290019600944AA804F08B
:1083400009FF4AA804F0E5FFFBF72DFF5E4A5F49ED
:108350004AA8FBF749FF4BA8FDF778F85C494AA803
:1083600006F0ABFB0421AEE74FF4FA7007F07CF99E
:10837000013E9EE7574936A806F09FFB564936A8AE
:1083800006F0A2FC554906F0ABFC01464AA806F0EF
:10839000DFFB4AA8FFF7AAFA4AA806F043FB36A873
:1083A00006F040FB4E4B4F491868FEF7E5FE4BE6E2
:1083B0004D4807F0D3FADFED4D7A4D4B20EE270AFA
:1083C000D3ED007AF8EEE77AB4EEE70AF1EE10FAB0
:1083D00033D5484936A806F070FB434807F0BEFA8B
:1083E00006211EA806F01DFC1EA936A806F06CFC8E
:1083F000414906F075FC01464AA806F0A9FB012197
:108400004AA8FCF705FA4AA806F00CFB1EA806F0DD
:1084100009FB36A806F006FB0021132008F091FDA9
:108420004FF47A7007F020F94FF46160FCF7C8FF51
:108430004FF47A7007F018F9F3E6304B1C78002CF3
:1084400040F0F78106A936A806F082FB2C494AA81D
:1084500006F07EFB234621464AAA36A8FCF7F2FB2B
:1084600004464AA806F0DEFA36A806F0DBFA002C2D
:1084700040F089802349244C4AA806F01EFB0221C3
:108480004AA8FCF7C5F94AA806F0CCFA2046FBF743
:10849000F9FE00283CD14FF47A7007F0E5F8F5E7D3
:1084A000242C0E0010E0032009DF032036250E00E7
:1084B00008DF032021250E00D62B0E00DF2B0E0037
:1084C000E42B0E00092C0E00F62B0E00452A0E00A0
:1084D000032C0E00B62A0E0004DA032074240E00CA
:1084E00014E0032010D60320A0E103200000C842BE
:1084F0000CD60320432C0E00672C0E00F3E403205F
:1085000090E103206A2C0E0060E603205CE5032066
:10851000834E844FDFF82C82002506A936A806F08A
:1085200017FB31464AA806F013FB00234AAA012193
:1085300036A8FCF787FB20BBB5FA85F464094AA886
:1085400006F070FA36A806F06DFA3CB339464AA830
:1085500006F0B3FA02214AA8FCF75AF94AA806F035
:1085600061FAFBF781FF01350022D8F804001146BB
:1085700005F0DEFD0028D0D04FF4FA7007F074F853
:10858000F2E70024DBE768494AA806F096FA4AA811
:108590000421FCF73DF94AA806F044FA99F80110C5
:1085A000624E634D013906EB810112A806F085FA8F
:1085B00012A91AA806F0CCFA99F800100A2201F5BF
:1085C000FA6116A806F0F3FA16A91AA806F07CFBC1
:1085D000584906F085FB014636A806F0B9FA564917
:1085E0001EA806F06AFA55491EA806F06DFB014662
:1085F0004AA806F0ADFA01234AAA194636A8FCF7A4
:1086000021FB04464AA806F00DFA1EA806F00AFA55
:1086100036A806F007FA16A806F004FA1AA806F01B
:1086200001FA12A806F0FEF9002C40F08F804449B0
:10863000444C4AA806F041FA02214AA8FCF7E8F89F
:108640004AA806F0EFF941F2883007F00DF820460D
:10865000FBF718FE0028FAD0DFF8D880DFF8D890B2
:10866000DFF8D8A000246978013906EB810112A84F
:1086700006F023FA12A91AA806F06AFA29780A2243
:1086800001F5FA6116A806F092FA16A91AA806F0E2
:108690001BFB414606F024FB014636A806F058FABB
:1086A00049461EA806F009FA51461EA806F00CFB22
:1086B00001464AA806F04CFA01234AAA194636A8F0
:1086C000FCF7C0FA48BBB4FA84F77F094AA806F061
:1086D000A9F91EA806F0A6F936A806F0A3F916A86F
:1086E00006F0A0F91AA806F09DF912A806F09AF96A
:1086F000002F37D01449134F4AA806F0DEF90221A3
:108700004AA8FCF785F84AA806F08CF901343846E7
:10871000FBF7B8FD0028FAD0A5E70027D6E700BF91
:1087200090E10320752C0E00862C0E004CD90320FE
:10873000EDE403208B2C0E00B62A0E0004DA032091
:10874000902C0E0060E603209B2C0E0094494AA852
:1087500006F0B3F904214AA8FCF75AF84AA806F033
:1087600061F900246A782B7800928E4A8E4912684B
:1087700003F5FA632CA805F093FD07F017FE8B496B
:1087800005464AA806F099F92CA936A806F095F9ED
:1087900036A94AA806F098FA0168284606F0F3FDC3
:1087A00036A806F03FF94AA806F03CF980482CA903
:1087B000FBF761FE002800F0BF8007F0F7FD7D4960
:1087C0007D4E7E4F06F0DFFD00232CAA78494AA893
:1087D00004F0A0F84AA97A48FCF70CF84AA8FBF77D
:1087E0008FFC36A8FBF760FF764900223AA803F019
:1087F000FFFF3AA8FBF718FF20B13AA8FBF703FFE9
:1088000000283DD06F4803F069FF07F0CFFD6E49A7
:1088100006F0B9FD66482CA9FBF779FE36A8FBF7F0
:108820006FFC4AA8694A6A49FBF7DEFC4BA8FCF7D3
:108830000DFE684D4AA804F0D8FD4A98BDF82C31C9
:1088400028606548AB8004F0A0FE644B18680128DE
:108850002A4600F09080022800F00C81002840F0A9
:108860009180EC7829786A78AB78062C01F5FA616A
:108870007DD90A2C66D8CDE901000B2000906DE06F
:10888000314606A806F06FF907F090FD5449DFF86D
:10889000588105464AA806F010F906A94AA806F02C
:1088A00013FA0168284606F06EFD4AA806F0BAF8E9
:1088B0003AA803F013FF06A91EA806F049F941469D
:1088C0004AA806F045F902234AAA00211EA8FCF78F
:1088D000B9F980B9B4FA84F56D094AA806F0A2F88E
:1088E0001EA806F09FF845B101343846FBF7CAFCD4
:1088F0000028FAD0DFE70025EFE72CA94AA806F008
:10890000DCF806A94AA806F0DFF901682848FBF759
:10891000D3FD4AA806F086F84AA8FBF7C5FE2A460A
:1089200028494EA803F064FF4AA936A8FBF762FF66
:108930004AA8FBF7E5FB5CE707F038FD294906F09C
:1089400022FD6EE70E2C03D8CDE901000F2095E73C
:10895000CDE90100013307200090DBB24AA804F002
:10896000F9FB4AA804F082FC0446284652E0CDE90F
:108970000100072082E7EB78062B37D9112B03D9AA
:10898000122B33D0002448E0002229780133CDE9AE
:108990000122DBB20093AB786A7801F5FA61DDE77A
:1089A000AC2C0E005CE50320B12C0E00C02C0E0098
:1089B00038DA0320CE2C0E004F270E0060E603208D
:1089C00008E5032018E50320E12C0E00262D0E00FB
:1089D00043270E00EDE4032058E503200CE00320BC
:1089E000F62C0E000C2D0E0090E103200020937851
:1089F0001178CDE901000720009001335278DBB2F5
:108A000001F5FA614AA804F0A5FB4AA804F02EFC7F
:108A10000446264804F02AFC241A254936A806F004
:108A20004CF80A2221461EA806F0C1F81EA936A855
:108A300006F04AF901464AA806F08AF804214AA835
:108A4000FBF7E6FE4AA805F0EDFF1EA805F0EAFFD9
:108A500036A805F0E7FF2046FCF7B2FC0EA805F0AB
:108A6000E1FF0AA805F0DEFF06A805F0DBFF5FB016
:108A7000BDE8F08F00242978CDE90144EB7800931C
:108A8000AB786A7801F5FA614AA804F063FB2346E3
:108A90000122214600941EA804F008FC36A81EAA54
:108AA0004AA904F0F6FB36A85CE700BFEDE403201A
:108AB000113F0E0010B59A4800238EB01A46194691
:108AC000406805F04DFB974806F0EDFF954806F02D
:108AD000C6FE954805F09FFCFBF7C6FC934A9449F7
:108AE000944807F0F2F80024934A9449914807F01B
:108AF000ECF89349934823462246CDE9004405F01B
:108B000087FB012322468E498F48CDE9004405F0BA
:108B10007FFB4FF0FF318D4807F0E8F84FF4967176
:108B20008A4807F0E3F8B9EE040A06F001FD0121D6
:108B3000132008F0F5F90121072008F0F1F921468A
:108B4000082008F0EDF90121072008F0E9F9214695
:108B5000062008F0E5F908F095FA7D4907F0A6FD32
:108B600008F090FA07F0A6FDFBF7F2FD6D4806F05D
:108B7000F5FEDFED787A784B20EE270AD3ED007A08
:108B8000F8EEE77AB4EEE70AF1EE10FA2ED5734963
:108B900006A805F092FF634806F0E0FE062102A851
:108BA00006F03FF802A906A806F08EF86C4906F018
:108BB00097F801460AA805F0CBFF01210AA8FBF7A8
:108BC00027FE0AA805F02EFF02A805F02BFF06A835
:108BD00005F028FF2146132008F0B3F94FF47A700E
:108BE00006F042FD4FF46160FCF7EAFB04F070FB15
:108BF00007F0DCFB4FF4E13107F0CCFB594804F0FF
:108C0000C4FC0024584906A805F057FF2246214617
:108C10000AA80A9405F000F80A220A9902A805F0A9
:108C2000C6FF02A906A806F04FF801460AA805F0FB
:108C30008FFF04210AA8FBF7EBFD0AA805F0F2FE5E
:108C400002A805F0EFFE06A805F0ECFE474906A8CD
:108C500005F033FF464902A805F02FFF02A906A838
:108C600006F032F801460AA805F072FF04210AA8AE
:108C7000FBF7CEFD0AA805F0D5FE02A805F0D2FE4E
:108C800006A805F0CFFE3B4906A805F016FF3A48B6
:108C9000214600F00DFD062102A805F0C2FF02A941
:108CA00006A806F011F801460AA805F051FF0421B4
:108CB0000AA8FBF7ADFD0AA805F0B4FE02A805F06E
:108CC000B1FE06A805F0AEFE264804F003FBF8B995
:108CD0002A490AA805F0F1FE02210AA8FBF798FD2F
:108CE0000AA805F09FFE264A26490AA804F046FA7B
:108CF0000AA804F00EFB41F2883006F0B5FC05F03E
:108D000019FD214B21491868FEF7B6FC0EB010BDC5
:108D1000144804F036FC134804F037FCF1E700BFB8
:108D200060E60320A0E1032004E503202F2D0E00C0
:108D300091590D009FFC0D00382D0E0079540D0047
:108D4000294A0D0036250E0021250E00BCE7032020
:108D5000A08601000000C8420CD60320432C0E0060
:108D6000672C0E0058E50320402D0E004D2D0E00FF
:108D7000532D0E005E2D0E0024E003206A2D0E0000
:108D80007E2D0E00872D0E0014E0032010D6032048
:108D90006E4B70B500241C606D4B6E4E1C706E4B9C
:108DA000346001251D706D4BB3602846B480B471EA
:108DB00005F05EF96A4A6B49304608F0B3F9284677
:108DC000214605F065F96848684BC0F894342923BA
:108DD00080F8AB34624A664980F8985480F8A95408
:108DE000C0F88044C0F88444C0F89C44A0F8A04473
:108DF00080F8AE4408F096F921465E485E4E06F0D3
:108E000057FD574A5D495B4808F08CF92A460F2107
:108E10005B485C4D00F04DFB514A5B49584808F0F7
:108E200081F94FF40073594A59495A48FBF7C8FA77
:108E30004B4A5949574808F075F92146574804F0FC
:108E400041F95749574805F038FE454A56495548B3
:108E500008F068F95549564805F02FFE404A524936
:108E6000534808F05FF95349534805F026FE3C4A41
:108E70004D49514808F056F95049514805F01DFE3A
:108E8000374A49494E4808F04DF94E494E4805F0D9
:108E900014FE334A44494C4808F044F92819314635
:108EA000103405F00AFEB4F5487FF7D12C4A474943
:108EB000474C002008F036F94649474805F0FDFDCB
:108EC000274A3949444808F02DF94449444805F0F7
:108ED000F4FD234A3449424808F024F94149424804
:108EE00005F0EBFD1E4A30493F4808F01BF905220A
:108EF00011463E4800F032FC00213D4805F00FFAD3
:108F0000174A3C493A4808F00DF94FF4A67200217F
:108F1000204609F001F9204607F008FF04F11C0083
:108F200007F004FF0A23C4F848310D4A32492046AD
:108F300008F0F8F83148FBF7B7FB094A30492F48E9
:108F400008F0F0F8BDE87040FBF7FDBB04DF03203C
:108F500008DF0320F0DE032009DF03200000FFFF0D
:108F6000F0D9032005420D0038DA0320182E0E0038
:108F7000CF400D00A0E103206A290E00D1F80D00BA
:108F800024E00320C0E1032015950D00014A0D00E7
:108F9000905F010080E50320C3420D00EDE4032053
:108FA000932D0E00A8E1032025EA0D00A82D0E0048
:108FB00070E50320C32D0E00F4E40320DE2D0E0027
:108FC00090E10320E82A0E0014E00320D1400D00B8
:108FD00044E00320FA2D0E005CE50320012E0E0074
:108FE00004DA0320072E0E0024DA0320E0E4032035
:108FF00004E503203DE30D000D630D0008E50320AB
:1090000001410D0010B503682F2B044604D9074A0F
:1090100000210A2005F014F823681F2B83BF03F0FA
:109020001F03034823604FF0A04010BDA9DB0D00D3
:1090300000030050F7B51B4C058823781A4EBFF388
:109040005B8F13F0010F09D12046FBF72AF828B1F6
:1090500004F05AFD30602046FBF728F833682D01F4
:109060005B5D5F012378BFF35B8FDB0709D40D489D
:10907000FBF717F828B104F047FD30600948FBF70B
:1090800015F833682B4401A85B7803F01F033B43BA
:109090000193FFF7B7FF019A01239340C0F80C3505
:1090A00003B0F0BD98E503209CE50320F7B51B4C09
:1090B000058823781A4EBFF35B8F13F0010F09D197
:1090C0002046FAF7EEFF28B104F01EFD306020467E
:1090D000FAF7ECFF33682D015B5D5F012378BFF386
:1090E0005B8FDB0709D40D48FAF7DBFF28B104F0EA
:1090F0000BFD30600948FAF7D9FF33682B4401A80B
:109100005B7803F01F033B430193FFF77BFF019A5A
:1091100001239340C0F8083503B0F0BD98E5032063
:109120009CE503202DE9F341204D06882B78204F44
:10913000BFF35B8F13F0010F09D12846FAF7B1FF97
:1091400028B104F0E1FC38602846FAF7AFFF3B682D
:1091500036019C5D2B78BFF35B8FDB074FEA441829
:1091600009D41248FAF79DFF28B104F0CDFC38600D
:109170000E48FAF79BFF3B68334401A85C7804F083
:109180001F0444EA08040194FFF73CFFD0F81035AF
:10919000019401A8FFF736FF019BD0F81005D840D5
:1091A00000F0010002B0BDE8F08100BF98E50320A7
:1091B0009CE5032038B504460D462846002107F0FB
:1091C000AFFE2580204638BD70B5054607F018F97A
:1091D0002888002104F0A0FC07F014F97D24013C4C
:1091E00014F0FF042DD0022004F0DEFC2846FFF727
:1091F00099FF0028F3D007F003F92846FFF71AFF7C
:109200000121288804F088FC07F0FCF84FF4F07086
:1092100004F0CAFC04F0D8FC00210646288804F0BB
:109220007BFC462004F0C0FC2846FFF77BFFB0FA29
:1092300080F4304604F0D0FC4FF4CD70640904F0A3
:10924000B3FC204670BD70B511F00105044618D07E
:1092500004F0BAFC05462046FFF7ECFE0121208809
:1092600004F05AFC012004F09FFC2088002104F047
:1092700053FC284604F0B0FC3B20BDE8704004F0ED
:1092800093BC04F0A1FC06462046FFF7D3FE012163
:10929000208804F041FC412004F086FC2088294607
:1092A00004F03AFC304604F097FC0520E5E738B5B9
:1092B000044604F089FC05462046FFF7BBFE2088E3
:1092C000012104F029FC012004F06EFC002120881B
:1092D00004F022FC0D2004F067FC2046FFF722FF7B
:1092E0000446284604F078FC2E2004F05DFC20465D
:1092F00038BD2DE9F0410446884616460827012569
:1093000018EA050F14BF012100212046FFF79BFF3B
:109310006D00013FEDB2F3D166B107F071F8204660
:10932000FFF7C4FE2088012104F0F6FBBDE8F04100
:1093300007F068B8BDE8F081F8B5074608260025B3
:1093400001243846FFF7B3FF00B125436400013E16
:10935000E4B2F6D12846F8BD70B500220C4655217E
:109360000646FFF7C6FF651E073415F8011F0022E9
:109370003046FFF7BEFFA542F7D170BD0022CC21D9
:10938000FFF7B7BF002343808380C38003814381FD
:10939000037370472DE9F04790F80C900446884617
:1093A000B9F1000F0DD0002060812073A31C08F1DB
:1093B000FF380A3413F8012B08F8012FA342F9D122
:1093C00004E0FFF701FF18B960812073BDE8F08762
:1093D0004A46F0212046FFF78CFF0126CA46354653
:1093E0002046FFF764FF07462046FFF760FF012F86
:1093F0000FD1012827D1402DD5D984F80A90B9F191
:10940000000F01D101232373A378002BCBD00120BF
:10941000CCE7874204EB0A030CD1A27AAA420ED908
:109420009A78164214BF0127002767B9082D00D883
:10943000E572A9469A7822EA06029A7009E00CBF02
:1094400001270027F1E704EB0A0201279378334351
:109450009370394620467600FFF7F5FE16F0FF06BA
:1094600004BF0AF1010A5FFA8AFA05F1010508BF93
:109470000126BAF1070FEDB2B2D9BCE730B502460A
:10948000014400208A4213D012F8015B082480EACC
:10949000050313F0010F4FEA50001CBF80F08C034E
:1094A000D8B2631E13F0FF044FEA5505EFD1E9E788
:1094B00030BD37B5002343608360C36003614361FF
:1094C000038340F2EE238276C36104460E200191AD
:1094D000FAF7E1FD054610B10199FFF76BFE204652
:1094E000256003B030BD38B500F110050C460068AA
:1094F0002946FFF74FFF031E1DBF2B6823606B68D3
:10950000236014BF01200020636038BD00F110010A
:10951000FFF7E9BF10B50446006810B10E2107F04F
:1095200006FE204610BD0068FFF72CBF2DE9F04174
:10953000837E04460D4616462BB90B781BB99FED6A
:10954000570ABDE8F0812068FFF73EFEA37E002B9E
:109550005CD0002E5AD12068FFF710FF0022442172
:109560002068FFF7C6FEE06906F07EF82068FFF786
:109570002BFEA37E002B4ED0002E4CD12068FFF78F
:10958000FDFE20680022BE21FFF7B3FE2B78262BBC
:1095900004D1002220681146FFF7ABFE261D04F11E
:1095A0000D0837462068FFF7C7FE06F8010B464551
:1095B000F8D108213846FFF761FF237B20769842D7
:1095C0006376BCD12B78262B47D029D8102B29D0F5
:1095D000222BB4D1227A237902F06002202A36D0DD
:1095E000402A37D012B923F0070323716379207919
:1095F00040EA032000B208F007F8294B002208F0E7
:109600006DF808F025FB00EE100A9AE7206829465D
:10961000FFF7A2FEA2E720682946FFF79DFEB0E70C
:10962000282BD6E7E37AA288102B08BFA37A4FEA4B
:10963000C20203BFC3F10C0322F00F029B1813B246
:1096400008BF1BB200EE103ABAEECE0A79E723F05B
:109650000303CAE723F00103C7E7A579284607F00B
:10966000D3FF06466079C01007EE900AF8EEE77A5D
:109670000F4617EE900A07F0D9FF0A4B002208F0B8
:109680002DF82B0654BF084B084B002208F026F893
:1096900032463B4607F06CFEB3E700BF0000C07FD8
:1096A0000000B03F0000A03F0000F03F0000F0BF0E
:1096B00013B5837E04460A463BB904F110012046E7
:1096C00002B0BDE81040FFF731BF037C002BF4D19E
:1096D0000191FFF728FF2046FFF718FF019A0028A5
:1096E000EBD19FED020A02B010BD00BF0000C07FA9
:1096F00010B503682F2B044604D9074A00210A201D
:1097000004F09EFC23681F2B83BF03F01F03034854
:1097100023604FF0A04010BDA9DB0D0000030050F6
:1097200007B5019001A8FFF7E3FF019A01239340D9
:10973000C0F8083503B05DF804FB07B5019001A837
:10974000FFF7D6FF019A01239340C0F80C3503B010
:109750005DF804FB0368C9B29B6818472DE9F04126
:10976000274E284F04460D4690B2012107F0D8FB42
:109770003378BFF35B8F13F0010F09D13046FAF74E
:1097800090FC28B104F0C0F938603046FAF78EFC3E
:109790003B6893F850803378BFF35B8FDB074FEA69
:1097A000481809D41648FAF77CFC28B104F0ACF943
:1097B00038601348FAF77AFC3B6893F8510000F0E0
:1097C0001F0040EA0800FFF7ABFF6572013D0F2D57
:1097D00009D8DFE805F00D08111113130F08080D63
:1097E000110F130811114223A3722046BDE8F08126
:1097F000BA23F9E79023F7E77823F5E76023F3E747
:1098000098E503209CE5032070B5184C184D23788B
:10981000BFF35B8F13F0010F09D12046FAF741FC2B
:1098200028B104F071F928602046FAF73FFC2B6854
:1098300093F850602378BFF35B8FDB074FEA46163F
:1098400009D40A48FAF72DFC28B104F05DF9286024
:109850000648FAF72BFC2B6893F8510000F01F0024
:109860003043BDE87040FFF75BBF00BF98E50320C1
:109870009CE5032070B5184C184D2378BFF35B8F1F
:1098800013F0010F09D12046FAF70BFC28B104F0C0
:109890003BF928602046FAF709FC2B6893F85060E2
:1098A0002378BFF35B8FDB074FEA461609D40A48DB
:1098B000FAF7F7FB28B104F027F928600648FAF711
:1098C000F5FB2B6893F8510000F01F003043BDE812
:1098D0007040FFF732BF00BF98E503209CE50320EE
:1098E000003918BF01210172704770B50646144651
:1098F0000D4607F0C7FBB17A490806F011FF07F0E3
:10990000C1FBE9B2FFF726FF07F0BCFBE1B2FFF7AE
:1099100021FF07F0B7FB06F022FF20B9012005F078
:10992000A3FE012070BD0020FCE7013910B5002224
:109930000446032903D8DFE801F00C213549FF2153
:10994000FFF7D3FF0022C7212046BDE81040FFF7F4
:10995000CCBFFF21FFF7C9FF4022C7212046FFF7F8
:10996000C4FF5E22CC212046FFF7BFFF4122CD215C
:109970002046FFF7BAFF5422CE21E5E7FF21FFF78B
:10998000B4FF4022C7212046FFF7AFFF6522CC215C
:109990002046FFF7AAFF4122CD212046FFF7A5FF71
:1099A0004F22E9E7FF21FFF7A0FF4022C721204611
:1099B000FFF79BFF5222CC212046FFF796FF412262
:1099C000CD212046FFF791FF6622D5E7FF21FFF763
:1099D0008CFF4022C7212046FFF787FF4222CC217F
:1099E0002046FFF782FF3F22CD212046FFF77DFF73
:1099F0007122C1E710B50446072900F2A980DFE80B
:109A000001F004233D526C86919C0022FF21FFF758
:109A10006CFF00227C212046FFF767FF18227D2182
:109A20002046FFF762FF05227C212046FFF75DFFFD
:109A300040227D212046FFF758FFA62220467D21A7
:109A4000BDE81040FFF751BF0022FF21FFF74DFF97
:109A500000227C212046FFF748FF18227D21204666
:109A6000FFF743FF05227C212046FFF73EFFA0229F
:109A70007D212046FFF739FF4022DFE70022FF214A
:109A8000FFF733FF00227C212046FFF72EFF18222C
:109A90007D212046FFF729FF05227C212046FFF784
:109AA00024FF4022E4E70022FF21FFF71EFF0022EF
:109AB0007C212046FFF719FF18227D212046FFF761
:109AC00014FF05227C212046FFF70FFF40227D2155
:109AD0002046FFF70AFFC022B0E70022FF21FFF770
