:02000002D0002C
:1040000000400D00504F0E00000006000D0005019D
:084010000401DB0700000000C1
:04401800082A0E0064
:1040200009480A49884208B505D0094A824202D0A7
:10403000121A0EF07BFB0748074A0021121A0EF0F5
:1040400083FB014808BD00BFC4D50320FC4A0E0015
:10405000F0D90320F0D90320F0E7032070B5074E14
:10406000074C0CF0BDF8A41BA4080025A54200D104
:1040700070BD56F8043B98470135F7E7CC4A0E006F
:10408000F04A0E0004F026BE08B503F04FFEBDE86E
:1040900008400CF067B80AF003BC0AF001BC0AF053
:1040A00007BC0078B0FA80F0400970470123037024
:1040B0007047704703681847012A03D0022A03D0CB
:1040C000002070470160FBE70B680360F8E770476A
:1040D00038B5044D312405EB04100AF0BBFF013C58
:1040E000F9D238BDC0E1032010B5044B044640F8B6
:1040F000103B08F00BFE204610BD00BFD4340E006C
:1041000010B5034B03600446FFF7EEFF204610BDD9
:10411000FC340E00836C13B1184607F065B8C06C10
:1041200008B107F0B5BE7047836C13B1184606F0AE
:1041300012BFC06C08B108F0EFBA4FF0FF30704703
:1041400010B5102104460DF00AFB204610BD10B535
:104150000446FFF7C9FF204650210DF000FB204622
:1041600010BD10B50446FFF7CBFF204650210DF0DF
:10417000F6FA204610BD10B5012303748368044687
:1041800043B1C0689847012363740020BDE8104024
:104190000AF0D6B800680028F5D083680BB90DF096
:1041A000E4FAC368EEE708B500200AF059FB28B12D
:1041B0000AF036FB80F00100C0B208BD0120FCE728
:1041C00070B5064600680C468168114415460AF031
:1041D0005FFF2544AC4205D014F8011B30680BF09A
:1041E0007EF8F7E7002070BD13B5054B1B788DF8FE
:1041F00000303C2304460CF089F9204602B010BD83
:1042000008DF032010B50446006808B10AF050FB2F
:10421000204610BD0EB403B503AB002153F8042BA8
:1042200001930BF0F0FB02B05DF804EB03B07047B4
:1042300073B5044608462279A36832B1A3B90B4985
:1042400002B0BDE870400BF0A3BB094A267B094DC4
:104250000949647B012E18BF2946CDE9001407499E
:10426000FFF7D8FF02B070BD054AEFE72D2A0E0018
:10427000D82F0E00292A0E00252A0E00432A0E00F0
:104280001C2A0E000022406811460AF079BA10B5C7
:104290008368044613B1032201469847204610BDA7
:1042A00038B50568044635B12846FFF7F0FF102100
:1042B00028460DF054FA20461421BDE838400DF090
:1042C0004EBA10B5436904469BB158680AF000F82D
:1042D00078B963695A7C12B958680AF001F86369C1
:1042E00058680AF005F860690023636108B1FFF7B8
:1042F000D7FF606908B1FFF7D3FF201DFFF7C7FFA5
:10430000204610BD10B586B004468DF81520089AD9
:10431000ADF81610CDE90132012200920DF115031E
:104320000DF116010AF038FD204606B010BD000060
:1043300073B51E4B1D7806460C46ADB901221A70A6
:1043400029462A4601A8019509F07EFF019B1E2BF4
:104350000AD103232068A3714FF40023A580A36032
:1043600010B10AF0A5FA2560B4F90430226843B907
:1043700042B954F8063F3360A388B380304602B098
:1043800070BD22B19188012903D0042906D00422EE
:1043900005E092896281A1712381EAE702222381EB
:1043A0004FF6FF73A2716381E3E700BF00DA0320D9
:1043B00008B509F019FF014B186008BDB8E70320E4
:1043C00030B587B01D4600230446049322B1204B2C
:1043D0000593204B029204930023E360049B216029
:1043E0003BB1022202A9201D9847059B2361049B33
:1043F000E360194914200DF0B4F930B10022C0E98E
:104400000022C0E9022202744274606190B1134B31
:104410001349C0E902340922CDE90005114B0430EB
:1044200009F04EFF30B963691B7C4BB9012009F0DC
:10443000CBFEF8E760690023636108B1FFF730FF46
:10444000FFF7B6FF02A8FFF722FF204607B030BDF6
:10445000B5400D00B9400D00D4480E0045160E00C1
:10446000602A0E0077410D0008B5FFF7A1FFBDE8F7
:1044700008400AF0C5B910B5D0F880448EB00A469D
:1044800064B1002321466846ADF800308DF8023053
:1044900006F041FF00F001000EB010BDD0F884140A
:1044A00041B1234668468DF83140ADF8324008F0FE
:1044B000EAFBEFE70846EDE700B50A46D0F88014BE
:1044C0008FB089B10023ADF800308DF80230684616
:1044D000012306F020FF10B1684605F0EDFF00F063
:1044E00001000FB05DF804FBD0F884040028F6D07A
:1044F0008DF83110ADF8321001230146684608F0FE
:10450000C2FB0028EBD0684607F0B9FBE7E710B51F
:10451000D0F880448EB00A4684B100232146684614
:10452000ADF800308DF8023006F0F5FE10B16846A7
:1045300006F033FE00F001000EB010BDD0F8841478
:1045400069B1234668468DF83140ADF8324008F035
:104550009AFB0028EED0684607F0ECFBEAE7084635
:10456000E8E700B513460A68D0F880148FB071B13F
:104570000020ADF800008DF8020001F244416846C9
:1045800006F050FF00F001000FB05DF804FBD0F81A
:1045900084040028F6D08DF83110ADF8321000F503
:1045A0008961684607F02EFDECE710B5134690B020
:1045B0001C68D0F880340A68ABB1002003F2444193
:1045C000ADF808008DF80A00034602A8019106F034
:1045D00053FE019918B1224602A806F075FF00F0BB
:1045E000010010B010BDD0F884040028F7D000F509
:1045F000896102A801918DF83930ADF83A3008F0A0
:10460000E2FA01990028EAD0224602A807F05EFDEE
:10461000E5E7836B5BB1187810F008001EBFD8691E
:104620005B69C01A0028B8BF6FF000407047C06BCC
:10463000A0B190F831301B0711D5D0E90432D0E990
:1046400000105B1A62EB00021846114600236FF05F
:1046500000428B4208BF824238BF10467047002399
:104660001A46F1E708B51030FFF7D3FF08BD836B9A
:1046700033B11B7813F0700F14BF01200020704776
:10468000C06B0028FBD090F8313013F0500FF3E7E7
:10469000836B23B9C06B003818BF0120704701201D
:1046A0007047836B13B1184606F090BBC06B08B11E
:1046B00007F072BF4FF0FF30704707B501220DF1D0
:1046C00007011030FFF7EDFF01280CBF9DF8070030
:1046D0004FF0FF3003B05DF804FB836B13B1184655
:1046E00006F0BABFC06B08B107F0A6BD704708B5A9
:1046F0001030FFF7F2FF08BD07B501228DF8071053
:1047000010300DF10701FFF7E8FF03B05DF804FB7F
:1047100000224FF47A71C0E90121C0E91222014A56
:1047200002607047FC340E00B0F90A3013B100EBA0
:10473000031070471846704710B50346D1E90102CF
:104740001030824212D3A2F110008860596859B12A
:10475000441A24114C815860002322F8063C02F8C8
:10476000083C42F8043C10BD1860F4E70020FAE76A
:10477000826810B54AB14368C468A34237BF5C1C65
:1047800000234460D15428BF836010BD10B5044697
:104790000021FFF7EDFFA3683BB1D4E90001E36816
:1047A000CA1A436813444360E160A06810BD012148
:1047B000042009F041BD000070B586B0234A244DA5
:1047C0000E23ADF80C300023CDE9042305F59266E5
:1047D00003AC94E80E00304608F022FD95F8AB34A7
:1047E000C5F88C6423B93146284608F04BFB50BB12
:1047F0000CF0F4F817490BF0DEF8012107200CF05B
:10480000B8FE41F288300BF047FA002107200CF087
:10481000B0FE43F698200BF03FFA64200BF03CFA10
:104820000D4B1B68009302224FF49673062120461D
:10483000FFF768FD4FF47A700BF02EFA06B0BDE872
:1048400070400AF08FBA06B070BD00BF80F0FA0267
:1048500038DA0320672A0E0004DF032010B54B6806
:1048600043608B688360CB68C360044610311030AE
:1048700008F061FA204610BD30B50546BBB00C46C5
:104880000CF0ACF829680BF096F86A4906A80AF013
:104890002CFC04A809F0C1F806A90AA80AF070FCCB
:1048A0009DF811306449013B01EB83010EA80AF029
:1048B0001CFC0EA926A80AF063FC9DF810100A2221
:1048C00001F5FA6112A80AF08AFC12A926A80AF0DA
:1048D00013FD5A490AF01CFD01460AA80AF0EAFC39
:1048E00012A80AF0B7FB26A80AF0B4FB0EA80AF03B
:1048F000B1FB12A8FFF70CFF06995148FFF7BBFD6B
:1049000000285AD0002306AA4D4926A808F02EFBFD
:1049100026A912A8FFF7A2FF26A8FFF7F1FB16A809
:10492000FFF7A5FEB8B90CF059F846490BF043F86B
:1049300016A808F0EBF906994148FFF7BDFD40487D
:10494000012206A9FFF70DFE40B90CF047F83E49D9
:104950000BF031F802E016A808F0D8F944F202236F
:104960000AAA374926A808F001FB26A912A8FFF7D2
:1049700075FF26A8FFF7C4FB16A8FFF789FE10BB3A
:104980000CF02CF83149044626A80AF0AEFB0AA91F
:1049900026A80AF0B1FC016820460BF00CF826A806
:1049A0000AF058FB12A8FFF7ABFB0AA80AF052FB6B
:1049B00006A80AF04FFB3BB030BD0CF00FF82449BD
:1049C0000AF0F9FFBBE7611E032907D8DFE801F011
:1049D000022B2D2F1F4912A80AF0DAFF9DF815307F
:1049E00003939DF814309DF8102002939DF8133026
:1049F00001939DF81230009302F5FA629DF8113090
:104A0000154926A809F064FF26A912A80AF0C0FFDC
:104A1000296812A80AF0CFFF64200BF03DF916A810
:104A200008F074F9BEE70D49D5E70D49D3E70D4904
:104A3000D1E700BF9F2A0E004CD90320A62A0E0002
:104A400038DA0320AB2A0E00BF2A0E00DB2A0E0044
:104A5000CF2A0E00F52A0E00202B0E00FE2A0E0093
:104A6000092B0E00162B0E001FB5084968460AF0E8
:104A70003CFB01216846FFF7FFFE68460AF0EAFAB0
:104A80000AF070F905B05DF804FB00BF3B2B0E0087
:104A900070B590B005460C4604A827490AF025FBDE
:104AA000294668460AF021FB694604A80AF024FC5E
:104AB00022490AF02DFC2146064608A80AF015FBFB
:104AC00008A930460AF018FC01460CA80AF058FB69
:104AD00004210CA8FFF7D0FE0CA80AF0BBFA08A826
:104AE0000AF0B8FA68460AF0B5FA04A80AF0B2FA71
:104AF00029460CA80AF0F9FA11490CA80AF01DFC85
:104B000006460CA80AF0A6FA1EB10E4821460AF085
:104B100042FB29460CA80AF0E8FA0B490CA80AF057
:104B20000CFC05460CA80AF095FA1DB10748214671
:104B30000AF031FB10B070BD4C2B0E00D92C0E00CA
:104B4000512B0E0004DA0320662B0E0024DA03201A
:104B5000F0B54B4C2368002BBBB040F38B80494928
:104B600002A80AF0C2FA12A8FFF7D2FD684608F0C0
:104B700054FF45490AA80AF0B8FA02A90AA80AF09F
:104B8000BBFB9DF801304149013B01EB8301054628
:104B90000EA80AF0AAFA0EA928460AF0ADFB9DF865
:104BA00000100A22054601F5FA6126A80AF017FB53
:104BB00026A928460AF0A0FB35490AF0A9FB0146C0
:104BC00006A80AF0DDFA26A80AF044FA0EA80AF0B0
:104BD00041FA0AA80AF03EFA02992E48FFF74BFC68
:104BE00078B90BF0FBFE2C490AF0E5FE29480122BA
:104BF00002A9FFF7B6FC20B90BF0F0FE27490AF036
:104C0000DAFE44F2022306AA224926A808F0AEF9E9
:104C100026A912A8FFF722FE26A8FFF771FA16A808
:104C2000FFF736FD98B11E4D1E4F05F548762368F7
:104C3000002B21DDD5F8201312A80AF0BCFE39465E
:104C400030460AF0A8FA2368013B2360EFE70BF037
:104C5000C5FE15490AF0AFFE0BF0C0FE06990AF03A
:104C6000AAFE06A80AF0F6F912A8FFF749FA02A868
:104C70000AF0F0F93BB0F0BD16A808F047F8F0E7ED
:104C8000BCE10320A02A0E0060330E004CD90320A3
:104C9000A62A0E0038DA0320792B0E00B02B0E0066
:104CA000C0E10320D82F0E00C72B0E002DE9F04FD6
:104CB000C1B002AF16469946044688460BF08EFEF8
:104CC0006949054607F1A8000AF00FFA214607F1E5
:104CD00074000AF00AFA07F1740107F1A8000AF05B
:104CE0000BFB016828460AF066FE07F174000AF023
:104CF000B1F907F1A8000AF0ADF95C4907F1A80085
:104D00000AF0F3F95A4B5B4A1B6812885A4807F1BC
:104D1000A80108F0A7FF054607F1A8000AF09AF9D4
:104D200035BB564907F174000AF0DFF94F4907F126
:104D300058000AF0DAF907F1580107F174000AF097
:104D4000DBFA014607F1A8000AF01AFA022107F17E
:104D5000A800FFF791FD07F1A8000AF07BF907F121
:104D600058000AF077F907F174000AF073F91DE0B2
:104D7000434907F1A8000AF003FA3F4807F1A801E8
:104D800008F0D2FF054607F1A8000AF063F995B9CB
:104D90003C4907F1A8000AF0A8F907F1A800022190
:104DA000FFF76AFD07F1A8000AF054F92846FC371E
:104DB000BD46BDE8F08F344907F1A8000AF0E0F9DC
:104DC0002D4807F1A80108F0D1FF054607F1A8001A
:104DD0000AF040F90DB92D49DBE7314607F1A8008B
:104DE0000AF0CEF9244807F1A80108F0E1FF0546D2
:104DF00007F1A8000AF02EF9002D69D1244907F126
:104E0000A8000AF072F9032107F1A800FFF734FDAA
:104E100007F1A8000AF01EF9314607F1A8000AF0D0
:104E2000AFF9154807F1A80108F0E4FF054607F1BE
:104E3000A8000AF00FF97DBB164907F174000AF0CB
:104E400054F9314607F174000AF056FA014607F1A9
:104E5000A8000AF095F907F1A8000221FFF70CFD60
:104E600007F1A8007DE700BF7F2C0E0048D6032085
:104E700084D9032080D9032044E00320DF2B0E00D7
:104E800070E50320F42B0E00F4E40320052C0E0043
:104E9000162C0E002E2C0E00D94907F174000AF0D2
:104EA00024F9314607F174000AF026FA014607F1A9
:104EB000A8000AF065F9032107F1A800FFF7DCFC60
:104EC00007F1A8000AF0C6F807F174000AF0C2F86A
:104ED000B9F1000F40F04081DFF870A3C9499AF89A
:104EE000003001949AF80120009203F5FA63C64A53
:104EF00007F1580009F0ECFC0BF070FDC3490546C2
:104F000007F1A8000AF0F1F807F1580107F1740061
:104F10000AF0EBF807F1740107F1A8000AF0ECF9C8
:104F2000016828460AF047FD07F174000AF092F87C
:104F300007F1A8000AF08EF89AF8003001949AF868
:104F40000120B349009203F5FA63AF4A07F17400F8
:104F500009F0BEFC0BF042FDAE49044607F1A80083
:104F60000AF0C3F807F1740107F148000AF0BDF830
:104F700007F1480107F1A8000AF0BEF901682046D0
:104F80000AF019FD07F148000AF064F807F1A800DB
:104F90000AF060F807F1740407F1580107F1A8005E
:104FA0000AF0A3F89C4807F1A80109F04FF805465C
:104FB00007F1A8000AF04EF8002D40F066819749ED
:104FC00007F148000AF091F807F1580107F138009D
:104FD0000AF08BF807F1380107F148000AF08CF964
:104FE000014607F1A8000AF0CBF8042107F1A80058
:104FF000FFF742FC07F1A8000AF02CF807F138008F
:105000000AF028F807F148000AF024F8B8F1000F78
:105010002CD007F1580107F1A8000AF066F87E4885
:1050200007F1A80108F02AFF054607F1A8000AF0D9
:1050300011F86DB97A4907F1A8000AF056F807F19E
:10504000A8000221FFF718FC07F1A8000AF002F8F7
:10505000744907F1A8000AF048F807F1A8000421F4
:10506000FFF70AFC07F1A80009F0F4FF6E4907F109
:1050700048000AF03AF807F1580107F138000AF041
:1050800034F807F1380107F148000AF035F96749AB
:105090000AF03EF921460AF03BF9014607F1A80063
:1050A0000AF06EF8042107F1A800FFF7E5FB07F10D
:1050B000A80009F0CFFF07F1380009F0CBFF07F196
:1050C000480009F0C7FF5A490023224607F1A8000B
:1050D00007F038FF64200AF0DFFD07F1B800FFF7A2
:1050E000D7FA0546002800F08B8139F00203E84624
:1050F00040F0D2804F4907F1480009F0F6FF4648DA
:1051000007F1480108F098FE044607F1480009F04D
:10511000A1FF002C00F0C58007F1580107F14800FD
:1051200009F0E3FF3C4807F1480108F0B1FF0446ED
:1051300007F1480009F08EFF002C40F0B28007F123
:10514000B80007F0E3FDFFF703FD0025C54607F1B2
:10515000A800FEF7D5FF29E6B9F1010F78D1234663
:10516000354A364907F1740009F0B2FB0BF036FC02
:105170003349054607F1A80009F0B7FF214607F1BA
:10518000580009F0B2FF07F1580107F1A8000AF032
:10519000B3F8016828460AF00EFC07F1580009F040
:1051A00059FF07F1A80009F055FF214607F1580003
:1051B0000DF000FB0BF012FC2249044607F1A80099
:1051C00009F093FF07F1580107F1480009F08DFF3E
:1051D00007F1480107F1A8000AF08EF8016820469F
:1051E0000AF0E9FB07F1480009F034FF07F1A800D5
:1051F00009F030FF0BF0F2FB13490446AEE600BFA6
:10520000412C0E00552C0E0018D603205F2C0E00EA
:10521000702C0E007D2C0E0044E00320CA2C0E00E2
:10522000DC2C0E00F22C0E00F52C0E00FD2C0E00D6
:1052300038DA032050320E008C2C0E00912C0E0018
:10524000982C0E00A72C0E007F2C0E00EDE40320FE
:10525000B9F1020F7FF4A0AEAF4DB0492B780194A5
:105260006A78009203F5FA63AD4A07F1580009F035
:105270002FFB2B7801946A780092AA49A84A03F57B
:10528000FA63204609F024FB86E6A7480BF0BAFD36
:10529000A54808F029FDB9E6B9F1010F01D1A349EC
:1052A00029E7D7F8F030002B3DD0DC69A04B621E17
:1052B0009A423FF644AF08F097FF0025C0B08246FF
:1052C00007F14800C7E9125587F850500BF02AF84B
:1052D000DFF854B20DF1080907F1B800FFF799F9AA
:1052E00038B3A54225D84FF48072494607F1B8007B
:1052F000FFF7D7F905447860FFF75AF80021072037
:105300000CF037F900237A68494658460BF0B3FD94
:10531000012107200CF02DF9C8200AF0BDFC854BB7
:105320009D42D9DD11E7D7F8F440002CBED02469A6
:10533000BCE707F1B80007F0E9FC08F055FF7E492B
:10534000A0EB0A0507F1180009F0CFFE0A224FF47E
:105350007A70B5FBF0F507F10800294609F065FF02
:1053600007F1080107F1180009F0C6FF734909F0B9
:10537000CFFFB4FBF5F10A22814607F1280009F0BE
:1053800054FF07F12801484609F0B6FF6C4909F0BF
:10539000BFFF0A220546002107F1380009F032FF5D
:1053A00007F13801284609F0A7FF014607F1480038
:1053B00009F0E6FE042107F14800FFF75DFA07F166
:1053C000480009F047FE07F1380009F043FE07F1F5
:1053D000280009F03FFE07F1080009F03BFE07F145
:1053E000180009F037FEFFF73FF84F48C5460BF0AD
:1053F00009FD4D4808F078FC054680B9514900E0A8
:10540000514907F1480009F070FE07F148000221F8
:10541000FFF732FA07F1480009F01CFE97E64B4906
:1054200007F1380009F061FE314607F1080009F084
:10543000A7FE474907F1080009F06AFF07F1580184
:1054400009F066FF014607F1180009F099FE07F11F
:105450001801354808F022FC0A22014607F128000D
:1054600009F0BDFE07F1280107F1380009F044FFFB
:10547000014607F1480009F083FE042107F14800C6
:10548000FFF7FAF907F1480009F0E4FD07F12800F9
:1054900009F0E0FD07F1180009F0DCFD07F1080054
:1054A00009F0D8FD07F1380009F0D4FD294907F1CA
:1054B000380009F01AFE0A22214607F1280009F0F7
:1054C000B4FE07F1280107F1380009F015FF014685
:1054D00007F1480009F054FE042107F14800FFF7E6
:1054E000CBF907F1480009F0B5FD07F1280009F0F4
:1054F000B1FD07F1380009F0ADFD0B4808F0E0FC04
:10550000054608B914497CE7002107200CF031F862
:1055100009F07EF91BE600BFEDE40320552C0E00D8
:1055200018D60320B82C0E0044E00320022D0E00F4
:10553000FDFF0700400D0300042D0E00DF310E00BB
:10554000082D0E003E2D0E00182D0E00582D0E00B9
:1055500060330E006F2D0E00822D0E0038B505460B
:1055600008F042FE044608F03FFE001BA84202D2AB
:10557000FEF77AFFF7E738BD30B5002187B0054662
:1055800007200BF0F6FF1A480AF081FD194B0024A2
:10559000C3F88044C3F8844409F0F8FF0AF07AF8AD
:1055A00003A8CDE903448DF814400AF0BBFE41F294
:1055B0008830FFF7D3FF1048234622462146406833
:1055C00009F0EEF80D4809F053FA41F28830FFF780
:1055D000C5FF0B4B1B68009302222B46062103A834
:1055E000FEF790FE4FF47A70FFF7B8FF07B030BDBA
:1055F000A0E1032038DA032060E6032004E503205D
:1056000004DF032038B5046805467CB16368013BBC
:1056100063605BB9236820469B689847A368013B99
:10562000A3601BB923682046DB689847284638BD2D
:105630002DE9F04FEBB0924A9249934DDFF850A21A
:1056400056A8FEF7D1FD57A8FFF7DCFF8F4956A8F3
:1056500009F04BFD042156A8FFF70EF956A809F0F2
:10566000F9FC8B4956A809F08BFD8A4956A809F028
:105670004FFE00230246884906A807F077FC1AAEC1
:1056800056A809F0E7FC3046FFF742F800220AA9C5
:105690001EA807F0C5FB814B93F800804FF000096E
:1056A00008F5FA684F461EA8FEF7F2FF04460028E8
:1056B00000F0F680294602A809F017FD0BF08EF9DC
:1056C000044602A809F060FE0A22014656A809F025
:1056D00099FD569920460AF06EF956A809F0BAFCD1
:1056E0001EA8FEF7C4FF002800F0B48002A809F04D
:1056F0004BFE404500F0AE8002A809F045FE08F1DF
:10570000FF33984200F0A6802EA8FFF701F8002290
:105710001EA932A807F084FB0BF060F929460AF0B5
:105720004AF95C4C32A8FEF7B3FF00287CD032A8BF
:10573000FEF79DFF002864D00DF5847B5846FEF7E8
:10574000E7FF32A9002246A807F06AFB0BF046F9F2
:1057500029460AF030F946A8FEF79AFF514600287C
:1057600034D056A809F00CFD214656A809F0D0FD0A
:10577000294609F0CDFD214609F0CAFD294609F068
:10578000C7FD214609F0C4FD294609F0C1FD0168A5
:105790004148FEF791FE019056A809F05BFC019B81
:1057A0000BB109F1010946A807F0B0FA56A8FEF7B7
:1057B000AFFF002232A95AA807F032FB56A958467B
:1057C000FFF74CF856A8FEF79BFCC4E756A809F073
:1057D000D7FC214656A809F09BFD294609F098FD03
:1057E000214609F095FD294609F092FD01682A48F5
:1057F000FEF78DFE56A809F02DFC58460137FEF73E
:105800007FFC32A807F082FA56A8FEF781FF00223B
:105810001EA95AA807F004FB56A92EA8FFF71EF8E8
:1058200056A8FEF76DFC7DE7514656A809F0A8FC86
:10583000184956A809F06CFD294609F069FD016870
:105840001548FEF764FE56A809F004FC2EA801379F
:10585000FEF756FC1EA807F059FA56A8FEF758FFA7
:1058600000220AA95AA807F0DBFA56A93046FEF72B
:10587000F5FF56A8FEF744FC02A809F0EBFB12E77F
:10588000942D0E00B12D0E00BD2D0E00B82D0E0072
:105890005CE5032060330E0038DA0320EDE40320DA
:1058A0000AA807F033FA9F4942A809F01EFC0A2211
:1058B00039462EA809F093FC2EA942A809F01CFD38
:1058C000994909F025FD0A220546494656A809F0DE
:1058D00086FC56A9284609F00FFD9449026802A8E3
:1058E000FEF782FC03A8FFF78DFE56A809F0B2FB75
:1058F0002EA809F0AFFB42A809F0ACFB89492EA8FD
:1059000009F0F3FB0A22394602A809F068FC02A953
:105910002EA809F0F1FC8449854F09F0F9FC0A2210
:105920004946054642A809F05AFC42A9284609F012
:10593000E3FC014656A809F023FC042156A8FEF713
:105940009BFF56A809F086FB42A809F083FB02A83A
:1059500009F080FB2EA809F07DFB764A7349DFF839
:10596000DC9156A8FEF740FC57A8FFF74BFE7249A2
:1059700056A809F0BAFB042156A8FEF77DFF56A8E9
:1059800009F068FB23466D4A6D4956A807F0DAFA1C
:1059900056A906A8FEF762FF56A8FEF7B1FB56A867
:1059A000FEF7B6FE22460AA95AA807F039FA56A908
:1059B0003046FEF753FF56A8FEF7A2FB1EA8FEF7DF
:1059C00067FE0546002847D039462EA809F08DFB12
:1059D0000A22A8F1020156A809F001FC56A92EA836
:1059E00009F0BDFC054656A809F034FBE5B149466F
:1059F00056A809F07AFB394642A809F076FB42A97D
:105A000056A809F079FC01684D48FEF755FD05469A
:105A100042A809F01FFB56A809F01CFBD5B90AF0F3
:105A2000DDFF484909F0C7FF1EA807F06FF956A827
:105A3000FEF76EFE00220AA95AA807F0F1F956A94E
:105A40003046FEF70BFF56A8FEF75AFB2EA809F0CA
:105A500001FBB3E70134E7E70AA807F057F931493A
:105A600042A809F042FB0A2229462EA809F0B7FBFA
:105A70002EA942A809F040FC2B4909F049FC0A2252
:105A80000746214656A809F0AAFB56A9384609F050
:105A900033FC2649026802A8FEF7A6FB03A8FFF71D
:105AA000B1FD56A809F0D6FA2EA809F0D3FA42A8FB
:105AB00009F0D0FA1B492EA809F017FB0A22294643
:105AC00002A809F08CFB02A92EA809F015FC1649C2
:105AD00009F01EFC0A220546214642A809F07FFB78
:105AE00042A9284609F008FC014656A809F048FBDF
:105AF000042156A8FEF7C0FE56A809F0ABFA42A84A
:105B000009F0A8FA02A809F0A5FA2EA809F0A2FA4D
:105B10003046FEF7F5FA06A8FEF7F2FA01206BB060
:105B2000BDE8F08FCB2D0E00CF2D0E00B12D0E0055
:105B3000BD2D0E00D42D0E00EF2D0E00A02A0E005C
:105B400038DA0320C82A0E002DE9F04F5F4C237885
:105B5000BFF35B8FDB07BDB006460AD42046FEF7D5
:105B6000A0FA30B15A48012108F0DCFF2046FEF7C8
:105B70009DFA4FF6FF725648002108F0EEFF012112
:105B800013200BF0F6FC64200AF086F8514803F06D
:105B900081FF50485522002104F0E8FA4D480021C9
:105BA00004F03FFA552804464ED14A4C4A4F4B4D1B
:105BB000FEF75AFC0122FF21204603F0A6FF0DF15B
:105BC00016020A21204604F055F90DF117020B21A7
:105BD000204604F04FF99DF81630262B04D19DF88D
:105BE0001730422B00F08480394614A809F07DFA62
:105BF0009DF817309DF81620294610A809F0CAFB19
:105C000010A914A809F078FB014628A809F0B8FAF1
:105C1000012128A8FEF730FE28A809F01BFA10A8D9
:105C200009F018FA14A809F015FA41F288300AF0C0
:105C300033F82B4B1B680093022240F2DC53062101
:105C400028A8FEF75FFBB3E7264914A809F04DFA30
:105C50000A22214610A809F0B0FA10A914A809F0E8
:105C60004BFB014628A809F08BFA012128A8FEF772
:105C700003FE28A809F0EEF910A809F0EBF914A822
:105C800009F0E8F9184A194928A8FEF7ADFA29A839
:105C9000FFF7B8FC43F6982009F0FEFF104B1B6895
:105CA0000093022240F2DC53062128A8FEF72AFBCB
:105CB0004FF47A7009F0F0FF09F054F8FEF7D4FBC6
:105CC000012420463DB0BDE8F08F00BFF4D9032089
:105CD000F8D90320E0E40320402E0E00672E0E00CA
:105CE00004DF0320F32D0E00362E0E00B12D0E0022
:105CF0000121A548A44D03F003FF0A2009F0CCFFC1
:105D0000A14804F079F80A2009F0C6FF07219E484F
:105D100004F044F80A2009F0BFFF07219A4803F075
:105D200079FF0A2009F0B8FF0021974803F00DFF22
:105D30000A2009F0B1FF944804F01CFA0A2009F087
:105D4000ABFF914804F01AFA41F2883009F0A4FF41
:105D50008D4804F015FA0A2009F09EFF08F044FA75
:105D6000044608F041FA08224121284604F05DF972
:105D7000B0B9FEF779FB0A2009F08EFF08F034FA7B
:105D800047F23052031B9342EDD9804928A809F00D
:105D9000ACF928A80121FEF76FFD28A809F05AF9EF
:105DA0000A2009F079FF784804F045F9784904465B
:105DB00014A809F09AF90A22214610A809F00FFA4E
:105DC00010A914A809F098FA014628A809F0D8F9F2
:105DD000042128A8FEF750FD28A809F03BF910A8D7
:105DE00009F038F914A809F035F96A4908A809F04A
:105DF0007CF965480822412104F017F9002800F0D9
:105E0000408314A8FEF784FC6249634D0CA809F096
:105E10006CF90A2009F040FF604910A809F065F903
:105E200010A928A809F0ACF95D4928A809F070FA72
:105E300001460CA809F095F928A809F00BF910A85B
:105E400009F008F929780A2201F5FA6110A809F089
:105E5000C6F910A928A809F093F9514928A809F012
:105E600057FA01460CA809F025FA28A809F0F2F81B
:105E700010A809F0EFF80A22697810A809F09DF936
:105E800010A928A809F07CF9454928A809F040FA8A
:105E900001460CA809F00EFA28A809F0DBF810A8B2
:105EA00009F0D8F83F4B1B781BB13F490CA809F00B
:105EB00005FA0AF093FD3D49044628A809F015F9B2
:105EC0000CA928A809F018FA0168204609F073FD0A
:105ED00028A809F0BFF80C993548FEF7CCFA00283D
:105EE00040D02C4910A809F000F90CA928A809F005
:105EF00047F92B4928A809F00BFA314609F0FCF9BB
:105F0000014610A809F02DF928A809F0A3F840F2DD
:105F1000016310AA264928A807F028F828A914A880
:105F2000FEF79CFC28A8FEF7EBF80A2009F0B4FE67
:105F300018A8FEF7ADFB044600283BD118A806F0D0
:105F4000E5FE114804F016F9642009F0A5FE0E489C
:105F500004F014F941F2883009F09EFE10A809F00F
:105F600079F807E0124801220CA9FEF7FAFA044674
:105F70000028B6D10CA809F06DF814A8FEF7C0F8F7
:105F800008A809F067F89CE6E0E403206D2E0E00F7
:105F90007B2E0E00D82F0E00EDE4032018D6032030
:105FA00060330E00F3E403207F2E0E00842E0E00DB
:105FB00038DA03200AF012FDBE49BF4E09F0FBFC9F
:105FC000BE4928A80AF068FDBD4809F0DFFF10EEC1
:105FD000100A0BF043FE0B460246BA49BA4808F0D5
:105FE00077FC2A9AB949BA4808F072FC2A78AB784B
:105FF00000936B78B749B84802F5FA6208F068FC7C
:106000006B790093EA782B79B449B54808F060FCC5
:106010000AF0E4FCB34909F0CEFC00233360FEF73C
:1060200023FA0AF0DBFCB04909F0C5FCAF4956225F
:1060300014A8B046FEF75BFBAD4E40F60705B1462F
:10604000317814A8FEF758FB013DF9D1DFF878B29A
:10605000A849A94EDFF8C4A2A84F172214A8FEF73A
:1060600046FB0AF0BBFCA64909F0A5FC9BF80030F2
:10607000B3729BF8013033739BF80230B3739BF813
:10608000033033741223CAF80030F5727573F57358
:1060900075740AF0A3FC9B4909F08DFC9A4B9BF8A0
:1060A00000205A757A759BF801209A75BA759BF88D
:1060B0000220DA75FA759BF803201A76DFF810B221
:1060C0003A761922CAF800200AF088FC8F4909F0B4
:1060D00072FC9BF80020B2779BF8012086F8202004
:1060E0009BF8022086F822202422CAF80020F577A7
:1060F00086F8215086F823500AF070FC844909F094
:106100005AFC814B9BF8002083F83F2087F83F2002
:106110009BF8012083F8402087F840209BF802205C
:1061200083F84120422387F84120CAF800300AF062
:1061300055FC784909F03FFC3023CAF80030664B23
:10614000324618462946B346AC46082902F10202F7
:1061500008D010F8015B82F82E5082F82FC0013170
:106160002546F2E715B14022CAF8002003930AF051
:1061700035FC694909F01FFC6348039B682213F84A
:10618000011BB95411540132702AF8D1634DDFF864
:1061900050A12A600AF022FC614909F00CFC4E2350
:1061A0002B60554A0023504619461F46062902F126
:1061B000020208D010F8013B82F84C3082F84D7092
:1061C00001312346F2E70BB15A232B600AF006FC9B
:1061D000544909F0F0FB49494B4897230F461AF8F8
:1061E000012B5A541A5401339D2BF8D12B600AF01D
:1061F000F5FB4D4909F0DFFB64232B604B4B1A681C
:106200000020013A2B686E2B09DC12F8011F0BF8F5
:1062100003100BEB0301023348702B60F2E70AF026
:10622000DDFB434909F0C7FBC2232B603F4BDFF87E
:10623000CCC01A683449013A2B68C72B08DC12F825
:10624000010F0CF803001078C85401332B60F3E7FA
:106250000AF0C4FB374909F0AEFB80232B603649B6
:1062600000231A461846052A06F1020608D011F83E
:10627000013B86F87E3086F87F0001322346F2E744
:106280000BB18A232B600AF0A9FB2C4909F093FB80
:10629000F0232B602A4B1C491A68013A2B68F52B16
:1062A00050DC12F8010FF8541078C85401332B60F9
:1062B000F4E700BF892E0E006CE5032060E60320A2
:1062C000A0E103209F2E0E00FCDE0320A52E0E0071
:1062D00034DA0320A92E0E0014DA0320B62E0E00A5
:1062E0001DDA0320C32E0E00D52E0E001C350E0025
:1062F000ECE4032072350E00D4D6032060D70320CF
:10630000E32E0E00F12E0E0056D80320FF2E0E00B5
:106310000D2F0E001B2F0E00292F0E00B8E10320B9
:10632000372F0E00452F0E00532F0E0004DA0320E6
:10633000622F0E00712F0E00E8DE0320802F0E006A
:106340005CE5032000232B600AF048FB4E4909F06E
:1063500032FB40F6080499F8001014A8FEF7CCF9B7
:10636000013CF8D149494A4D8A2214A8FEF7BFF9E9
:10637000484940F27D2214A8FEF7B9F94649F522B2
:1063800014A8FEF7B4F945494FF4907214A8FEF72B
:10639000AEF94349F52214A8FEF7A9F94149622252
:1063A00014A8FEF7A4F94FF40064297814A8FEF7A6
:1063B000A3F9013CF9D114223B4914A8FEF797F93F
:1063C0000AF00CFB394909F0F6FA394803F062FB90
:1063D0000A2009F061FC374A374906A8FDF704FF97
:1063E00007A8FFF70FF9324803F092FD0A2009F0E1
:1063F00053FCC8F800402E4C1425204603F00EFE36
:10640000013D0646F9D12D4CDFF8A4A0DFF8B0908D
:10641000D92E01D1FF2D1ED0504603F0FFFDD8F834
:1064200000305A1CFF2A09F803000746C8F800206C
:1064300008DD494614A8FEF75AF90023C8F80030D1
:10644000FEF712F8013C354603D118A806F05EFCB1
:1064500084E53E46DCE7D8F800201AB1184914A8B4
:10646000FEF745F9124803F089FE114803F0DCFA03
:1064700018A806F04BFC002113200BF07AF8012439
:106480006CE508A808F0E6FD8F2F0E00D4D6032097
:106490007CD9032089350E0060D7032006380E0012
:1064A00056D8032026390E0088390E00A82F0E007A
:1064B000E0E40320BD2F0E00B12D0E00C12709001E
:1064C0000ADF032038B5064DC56104463430FFF7B6
:1064D00099F8204640F8185BFFF794F8204638BD3D
:1064E0005C480E0038B504680D467CB1E168A942ED
:1064F0000CD035B129B128460CF052F910F0FF0F3D
:1065000004D02046FEF710F90446EEE7204638BDD9
:1065100000F11C02C0E9002200F50772C0E9022266
:10652000027E22F07F020276704770B50446B8B151
:106530000B68B3B18B68556896680133E818B042B0
:106540000FD850606DB11A46096828460CF0EEF875
:10655000237A256023F07F0343F005032372012093
:1065600070BD237A23F07F0323720020F8E770B117
:10657000037A002903F08003ADBF43F0080343F022
:106580000A0349420372B8BF0372016001207047D9
:1065900070B5037A164613F07F0202BF23F07F0323
:1065A00043F020030372037A08BFC0E9002213F00E
:1065B000200304460D460DD0FFF794FF48B931463D
:1065C0002046FEF7B9F820B1037AC56003F07F03D7
:1065D000037270BD1846FCE713B5837B04466BB9A4
:1065E000406801220DF1070109F053FA48B19DF806
:1065F000073023EAE37363730123A373607B02B064
:1066000010BD4FF0FF33F4E770B504460025204677
:10661000FFF7E2FF0D2823D007D8D8B10938C0B260
:1066200001281DD94FF0000016E0202818D02F288F
:10663000F8D1A5732046FFF7CFFF2A2804D02F28D2
:1066400016D04FF0020007E0A57300262046FFF7A2
:10665000C3FF10B94FF0010070BD2F2802D10EB159
:10666000A573D4E7A0F12A035E425E41A573EDE76E
:10667000A5732046FFF7B0FF0028EBD00A28F7D11A
:10668000C5E708B5037A13F0200302D0FFF72AFF0D
:1066900008BD1846FCE70000F0B585B0826800929E
:1066A000002601960D46D2E9011353605B1A044699
:1066B00002910393FFF790FFA67307462046FFF76A
:1066C0008BFF8742A67323D018B94FF0010005B0A5
:1066D000F0BD5C2817D12046FFF77EFF0028F4D0DC
:1066E00075280CD0104B1A79191D5AB1904203F13C
:1066F0000203F8D1487828B94FF00200E7E74FF0DD
:106700000400E4E7A67301466846FEF731F8D5E7D2
:106710006846FEF73BF8286010B94FF00300D6E753
:106720004FF00000D3E700BFCA2F0E002F2807D973
:10673000392803D95E280CD97A2805D8012070475A
:106740002B28FBD02D28F9D0A0F12E035842584118
:1067500070474028F8D95A28EFE7F0B585B00546CC
:106760000E46FFF739FF272829D0222827D0AA680C
:10677000009200270197D2E90113284653605B1A63
:1067800002910393FFF728FF0446F0B1FFF7CEFF15
:10679000E8B121466846AF73FDF7EAFF2846FFF7E8
:1067A0001BFF0446FFF7C2FF0028F2D16846FDF741
:1067B000EDFF0028306014BF0020032003E03146C5
:1067C0002846FFF769FF05B0F0BD0120FBE7022076
:1067D000F9E7000000280FDD11490023C20741BF7F
:1067E000DAB201EB8202D2ED007A20EE270A4010E5
:1067F00003F10103F2D170470A494042002368B116
:10680000C20742BFDAB201EB8202D2ED007A4FEA50
:10681000600048BF20EE270A0133F0E7704700BF51
:10682000F4D50320DCD503202DE9F0410B782B2B88
:10683000044610D02D2B0FD1013101260A78A2F188
:106840003003092B4FF0000308D92E2A06D000226E
:10685000236062602FE001310026EFE74C4F0023F8
:106860004FF00A0C084610F8015BA5F13002D2B2D5
:10687000092A09D8BB4208D80CFB03F3D5439D4233
:1068800003D313440146EDE755B100220A25B3F5C1
:10689000000F02F1010012D3B3FBF5F30246F6E755
:1068A00007EE903AF8EE677A002E2360C4ED017A85
:1068B00014BF0A23082323722046BDE8F081551A2D
:1068C00068180A4611F8017BA7F1300CBCF1090FDA
:1068D00040B2F5D92E2F11D1DFF8C8C00D460A27D6
:1068E0002A46013511783039C9B2092906D86345DD
:1068F000F6D8013807FB031340B2F1E7117801F035
:10690000DF01452935D151782D2920D1951C01274A
:1069100000214FF00A0E2A4615F801CBACF1300CDD
:106920005FFA8CF8B8F1090F1DD80EFB01C14218AF
:10693000262AF0DD8FB1DFED177A9FED177A002E52
:1069400008BFF0EE477AC4ED017A0C23B3E72B2998
:1069500014BF551C951C0027DAE7DFED107A9FED78
:10696000107A002EECE707B1494212781AB10023E1
:106970006DE70021F9E707EE903A0844B8EE670AA0
:10698000FFF728FF0EB1B1EE400A84ED010ADCE703
:10699000999999190000008000000000000080FF14
:1069A0000000807FCBCC0C002DE9F04794B08046EE
:1069B0000D46FFF711FE00240646A2460DF1100910
:1069C0003046E7B2FFF7B2FE60B13F2C09D088F83D
:1069D0000EA0404604F80960FFF7FEFD01340646AC
:1069E000EEE7274614AB3B44002403F8404C9DF8E7
:1069F0001030742B09D12B7A23F07F0343F0060368
:106A00002B7201232B60381F09E0662B0CD12B7AE7
:106A10002C6023F07F0343F006032B72781F18BF0E
:106A2000012014B0BDE8F0876E2BECD004A901A8BA
:106A3000FFF7FAFE9DF80C30019A0A2B09D00C2BB7
:106A400010D0082B17D12B7A23F07F0343F00803D3
:106A500004E02B7A23F07F0343F00A032B722A60B1
:106A60002046DEE72B7A23F07F0343F00C032B72E2
:106A7000029B2B60F4E74FF00200D2E773B50546A6
:106A80000C46FFF7C1FDC6B2002E39D12846FFF7EC
:106A9000A3FD5B2818D008D8222823D0272821D08E
:106AA00021462846FFF780FF1AE07B28F8D1237A99
:106AB00023F07F0343F02003C4E9006623722146DC
:106AC000284600F066F80BE0237A23F07F0343F0BA
:106AD0004003C4E9006623722146284600F012F8FC
:106AE000C0B20DE001A92846FFF7D6FDC0B238B903
:106AF000237A23F07F0343F005032372019B236075
:106B000002B070BD70B5037B05460E4613B94FF059
:106B1000050070BDFFF760FD5B2802D04FF002005A
:106B2000F7E70023AB732846FFF76EFD10F0FF0F69
:106B3000EFD12846FFF750FD5D2820D10020A87333
:106B4000E7E72B7B013B2B732846FFF797FF2B7B57
:106B5000C0B201332B730028DBD12846FFF754FD68
:106B6000C4B20CB12046D4E72846FFF735FD5D28B6
:106B7000E4D02846FFF730FD2C28CFD1AC7329682C
:106B80003046FDF7D9FD01460028DAD14FF0030069
:106B9000BFE7F7B5037B06460D461BB94FF005006E
:106BA00003B0F0BDFFF718FD7B2802D04FF00200C4
:106BB000F6E70023B3733046FFF726FDC4B2002C7E
:106BC000EED13046FFF708FD7D2839D1B4730BE0D4
:106BD000037A63F07F030372019BC360074630466C
:106BE000FFF712FDC4B20CB12046D9E73046FFF7DB
:106BF000F3FC3A28DAD1337BB473013B3373394663
:106C00003046FFF73BFF337BC0B2013333730028BC
:106C1000C6D13046FFF7F8FCC4B2002CE4D13046B0
:106C2000FFF7DAFC7D28D1D03046FFF7D5FC2C28C1
:106C3000BCD1B4733046FFF7E7FCC0B20028AFD137
:106C400001A93046FFF789FDC0B20028A8D10199FB
:106C50002846FFF747FC07460028C0D13168284680
:106C6000FDF76AFD0028B3D14FF0030098E700005C
:106C70002DE9F0410B782B2B044610D02D2B0FD192
:106C8000013101260A78A2F13003092B4FF00003ED
:106C900008D92E2A06D00022236062602FE001313D
:106CA0000026EFE74C4F00234FF00A0C084610F87F
:106CB000015BA5F13002D2B2092A09D8BB4208D83B
:106CC0000CFB03F3D5439D4203D313440146EDE788
:106CD00055B100220A25B3F5000F02F1010012D3CD
:106CE000B3FBF5F30246F6E707EE903AF8EE677A63
:106CF000002E2360C4ED017A14BF0A2308232372F7
:106D00002046BDE8F081551A68180A4611F8017B43
:106D1000A7F1300CBCF1090F40B2F5D92E2F11D1DB
:106D2000DFF8C8C00D460A272A46013511783039E8
:106D3000C9B2092906D86345F6D8013807FB031301
:106D400040B2F1E7117801F0DF01452935D15178E2
:106D50002D2920D1951C012700214FF00A0E2A462B
:106D600015F801CBACF1300C5FFA8CF8B8F1090FD3
:106D70001DD80EFB01C14218262AF0DD8FB1DFEDD0
:106D8000177A9FED177A002E08BFF0EE477AC4ED10
:106D9000017A0C23B3E72B2914BF551C951C00273F
:106DA000DAE7DFED107A9FED107A002EECE707B1FD
:106DB000494212781AB100236DE70021F9E707EE86
:106DC000903A0844B8EE670AFFF704FD0EB1B1EE41
:106DD000400A84ED010ADCE79999991900000080C6
:106DE00000000000000080FF0000807FCBCC0C0082
:106DF00030B50D46D0E9004187B0103420460191EE
:106E0000FFF73FFC38B1037A019903F07F03082BA9
:106E100003D00A2B17D0286825E00368DB43DB0F7B
:106E2000002BF8D02046FFF72CFCE0B1037A03F0EA
:106E30007F03043B082B25D8DFE803F017170C2449
:106E40000C2410243B000368B3F1004F8CBF0023D7
:106E50000123E5E7006820EAE07004E00068B0F193
:106E6000004F0FD8404207B030BD016803A8FFF7BC
:106E7000FFFE9DF8143003980A2BF0D00C2B03D0A2
:106E8000082BE8D00020EEE7DDED047A9FED0A7ACA
:106E9000F4EEC77AF1EE10FAF4DB9FED087AF4EE27
:106EA000C77AF1EE10FAEDD8FDEEE77A17EE900A08
:106EB000D9E7D0ED007AE9E7000000CF0000004FED
:106EC00037B50446084601910BF0AEFC0246206837
:106ED00001990368DD68A84763681844606003B0DF
:106EE00030BD10B50446006803689B689847636826
:106EF0001844606010BD000070B505460C4619B915
:106F00001049FFF7DDFF70BD2221FFF7EAFF013CCA
:106F100014F8011F39B10C4B1E7876B15A788A42A9
:106F200006D00233F8E722212846FFF7DAFFEAE726
:106F30005C212846FFF7D5FF31462846FFF7D1FFF1
:106F4000E6E700BFD92F0E00CA2F0E000000000098
:106F5000F8B5DFED577AB4EEE70A0623F1EE10FA42
:106F60002DED028B0446B0EE408A837244DB514A19
:106F70005149142300252027D2ED057AF4EEC87A72
:106F8000F1EE10FA06D85818D0ED007A3D4428EEFC
:106F9000278A2DB2043B181D4FEA6707A2F10402AD
:106FA000EAD14FF0FF36B5EEC08AF1EE10FA27DDD8
:106FB00018EE100A0AF052FE3BA3D3E900230BF0AF
:106FC00021F9E8B13D493B4833461A0618D401EB94
:106FD0008306D6ED007AF4EEC87AF1EE10FA4FEAA5
:106FE000830206DD0244D2ED007AED1B28EE278AEB
:106FF0002DB27F10013BE8E7202705260025D2E7C8
:10700000FCEEC87A2E49258117EE902A17EE903AA9
:10701000C4ED007A0A26092B07D9B1FBF6F1B3FBC0
:10702000F6F3A07A0138A072F5E707EE902AB8EEE1
:10703000670A07EE901A38EE408AB8EEE70A28EEA3
:10704000008AFCEEC87AB8EE677A17EE900A38EE3E
:10705000478A38EE088ABCEEC88A18EE103A034414
:107060008B420FD263600A216368B3FBF1F201FB2C
:107070001233A3B994F90A30002B10DD013B626092
:10708000A372F1E70023013263602260002DEAD091
:10709000092A81BF0135012325812360E3E7BDEC87
:1070A000028B2046F8BD00BFF168E388B5F8E43EE6
:1070B0008096184BF4D50320DCD50320C4D50320DB
:1070C00040420F0010B5044600680368521ADB689E
:1070D000984763681844606010BD70B586B00DF1C4
:1070E00016031A460A26B1FBF6F506FB15143034D2
:1070F00003F8014D0C46092C2946F4D81946FFF730
:10710000E1FF06B070BD000070B52DED028BB4EE4E
:10711000400AF1EE10FA8AB00446B0EE408A07D079
:107120003F492046FFF7CCFE0AB0BDEC028B70BD94
:10713000B5EE400AF1EE10FA06D070EE007AB4EE29
:10714000670AF1EE10FAEBD0B5EEC08AF1EE10FA54
:1071500005D52D212046FFF7C4FEB1EE488AB0EEDA
:10716000480A01A8FFF7F4FE01992046FFF7B5FF92
:107170009DF90E10E1B1029B0DF11F050A460A268A
:10718000013A52B2501C08D0B3FBF6F006FB1033A4
:10719000303305F801390346F2E7C9B208AA531A99
:1071A0002E20C94303F8010C11442046FFF78AFF43
:1071B000BDF90C30002B17DA1A492046FFF780FE84
:1071C000BDF90C300DF126015B420A460A2593FBFE
:1071D000F5F005FB1033303301F8013D034600287C
:1071E000F5D12046FFF76EFFBDF90C30002B9BDD7B
:1071F00065212046FFF775FE0DF12601BDF90C3023
:107200000A460A2593FBF5F005FB1033303301F8ED
:10721000013D03B20028F5D12046FFF753FF83E775
:10722000D92F0E00DE2F0E0038B5027A02F07F0350
:107230000C2B05460C460DD812F07E0F0ED0023BEB
:107240000A2B0BD8DFE803F04E4E4949640A620A64
:10725000580A0C00202B22D0402B07D031495AE08D
:1072600090ED000A0846FFF74FFF38BD5B2120462E
:10727000FFF737FE2D686DB128462146FFF7D4FF92
:107280002846FDF751FA054620B12C212046FFF78C
:1072900028FEF0E75D212046FFF723FEE5E77B218E
:1072A0002046FFF71EFE2D68ADB1E9682046FFF7C6
:1072B00023FE3A212046FFF714FE28462146FFF719
:1072C000B3FF2846FDF730FA054620B12C212046B1
:1072D000FFF707FEE8E77D21DDE701682046FFF7BD
:1072E0000BFEC2E708680368D5E90012DB6898471F
:1072F000636818446060B8E705682D212046FFF7F1
:10730000F0FD29462046FFF7E8FEAEE70168F9E701
:10731000036823B104492046FFF7D2FDA5E70349DE
:10732000F9E700BFD92F0E00E12F0E00E62F0E0067
:1073300010B5ADF5227D0146019007AC4648FDF73A
:10734000BBF82046019A444944F2022305F0FAFDB5
:107350000BA8FDF79DF990B909F040FB3F4908F0F3
:107360002AFB1BA83D4A3E49FCF73EFF1CA8FEF73E
:1073700049F92046FCF7C4FE0DF5227D10BD1BA87F
:10738000FFF7C6F837491BAA1FA8FFF701F93649CE
:107390001BAAFFF7CAF835491BAA1FA8FFF7F8F880
:1073A00033491BAAFFF7C1F832491BAA1FA8FFF7F0
:1073B000EFF831491BAAFFF7B8F81BAA2F491FA8FD
:1073C000FFF7E6F82E4B1968FFF7D1F81BAA2D49F5
:1073D0001FA8FFF7DDF82C4B1968FFF7C8F82B49F9
:1073E0001BAA1FA8FFF7D4F829491BAAFFF79DF88D
:1073F00028491BAA1FA8FFF7CBF827491BAAFFF7AC
:1074000094F826491BAA1FA8FFF7C2F824491BAA13
:10741000FFF78BF823491BAA1FA8FFF7B9F82249E9
:107420001BAAFFF782F8002303A91FA80493039463
:10743000FFF7FAFE049B53B91C4903A807F055FE59
:1074400003A80221FDF718FA03A807F003FE0BA812
:1074500005F05CFC8DE700BF38DA0320EC2F0E004E
:1074600009300E000F300E0004DA032013300E0036
:107470005CE503201F300E0024DA032028300E00C4
:107480000CE0032035300E000CD6032041300E00F6
:10749000A8E103204E300E0070E503205B300E00A3
:1074A000F4E4032068300E0090E1032070300E00F9
:1074B00013B50446084601910BF0B6F9019902464E
:1074C0002046FCF77DFE63681844606002B010BD82
:1074D00010B50446006807F002FF6368013363607B
:1074E00010BD000070B505460C4619B91049FFF7EC
:1074F000DFFF70BD2221FFF7EBFF013C14F8011FF5
:1075000039B10C4B1E7876B15A788A4206D00233D4
:10751000F8E722212846FFF7DBFFEAE75C2128464F
:10752000FFF7D6FF31462846FFF7D2FFE6E700BF58
:10753000D92F0E00CA2F0E0010B5521A0446FCF7C0
:107540003FFE63681844606010BD70B586B00DF1F1
:1075500016031A460A26B1FBF6F506FB151430345D
:1075600003F8014D0C46092C2946F4D81946FFF7BB
:10757000E3FF06B070BD000070B52DED028BB4EED8
:10758000400AF1EE10FA8AB00446B0EE408A07D005
:107590003F492046FFF78CFF0AB0BDEC028B70BD5F
:1075A000B5EE400AF1EE10FA06D070EE007AB4EEB5
:1075B000670AF1EE10FAEBD0B5EEC08AF1EE10FAE0
:1075C00005D52D212046FFF783FFB1EE488AB0EEA6
:1075D000480A01A8FFF7BCFC01992046FFF7B5FF58
:1075E0009DF90E10E1B1029B0DF11F050A460A2616
:1075F000013A52B2501C08D0B3FBF6F006FB103330
:10760000303305F801390346F2E7C9B208AA531A24
:107610002E20C94303F8010C11442046FFF78CFFCC
:10762000BDF90C30002B17DA1A492046FFF740FF4E
:10763000BDF90C300DF126015B420A460A2593FB89
:10764000F5F005FB1033303301F8013D0346002807
:10765000F5D12046FFF770FFBDF90C30002B9BDD04
:1076600065212046FFF734FF0DF12601BDF90C30EE
:107670000A460A2593FBF5F005FB1033303301F879
:10768000013D03B20028F5D12046FFF755FF83E7FF
:10769000D92F0E00DE2F0E0038B5027A02F07F03DC
:1076A0000C2B05460C460DD812F07E0F0ED0023B77
:1076B0000A2B0BD8DFE803F04E4E4949630A610AF2
:1076C000570A0C00202B22D0402B07D0304959E01C
:1076D00090ED000A0846FFF74FFF38BD5B212046BA
:1076E000FFF7F6FE2D686DB128462146FFF7D4FF5F
:1076F0002846FDF719F8054620B12C212046FFF752
:10770000E7FEF0E75D212046FFF7E2FEE5E77B219B
:107710002046FFF7DDFE2D68ADB1E9682046FFF792
:10772000E1FE3A212046FFF7D3FE28462146FFF727
:10773000B3FF2846FCF7F8FF054620B12C21204670
:10774000FFF7C6FEE8E77D21DDE701682046FFF789
:10775000C9FEC2E7D0E900122046FCF731FD63689C
:1077600018446060B9E705682D212046FFF7B0FE98
:1077700029462046FFF7E9FEAFE70168F9E703680D
:1077800023B104492046FFF793FEA6E70249F9E733
:10779000D92F0E00E12F0E00E62F0E0070B5D1E9B3
:1077A000004188B010340546204616460191FEF788
:1077B00068FF98B3037A019903F07F03043B012B20
:1077C0002CD82046FEF75DFF044668B1037A03F02B
:1077D0007F03043B012B07D8016829B1284607F035
:1077E00084FC284608B070BD04AE0F49304607F04F
:1077F0007CFC0023029603935CB102A92046FFF7AC
:107800004BFF3146284607F0A1FC304607F022FC2A
:10781000E7E7064902A8FFF74BFEF2E731462846A4
:1078200007F0AEFCDDE700BFD82F0E00D92F0E0009
:107830002DE9F047ADF5227D07AE0D46024683499E
:107840000023304605F07EFB0BA8FCF721FF1BACA4
:1078500005F1080A05F11C0905F1380805F16A0768
:10786000002862D02046FEF753FE23686360E36879
:10787000A360237E059423F07F0323760A238DF8EB
:1078800018301FA9002303A8CDE903468DF81A304C
:10789000FFF7F4F810F0FF0F0CD19DF81930002B12
:1078A00051D0237E13F0600F4DD103F07F03043BD2
:1078B000012B48D909F092F8654908F07CF803A833
:1078C000634A6449FCF790FC04A8FDF79BFE0BA8F3
:1078D00005F01CFA2946604807F05DFC51465F48F8
:1078E00007F059FC49465E4807F055FC5D4B2A6B92
:1078F0001A605D4B6A6B5D481A60414607F04BFCAD
:1079000039465B4807F047FC05F17E01594807F00E
:1079100042FC05F19201584807F03DFC3046FCF767
:10792000EFFB0DF5227DBDE8F08709F057F85349CC
:1079300008F041F82046514A4649FCF755FC1CA87E
:10794000FDF760FEC6E74E4B434A029301A903A828
:107950000194FFF723FF0399082228460AF04FFFFE
:1079600003A807F077FB474B3C4A029301A903A801
:107970000194FFF713FF0399142250460AF03FFFCA
:1079800003A807F067FB404B354A029301A903A8FF
:107990000194FFF703FF1422039948460AF02FFFD2
:1079A00003A807F057FB394B2E49049303A803940F
:1079B000FFF71EFA364B28632B49049303A8039460
:1079C000FFF716FA334B686301A903A8274A02930D
:1079D0000194FFF7E3FE0399322240460AF00FFFBD
:1079E00003A807F037FB2C4B214A029301A903A8F7
:1079F0000194FFF7D3FE0399142238460AF0FFFEE4
:107A000003A807F027FB254B1A4A029301A903A8F4
:107A10000194FFF7C3FE0399142205F17E000AF0DA
:107A2000EEFE03A807F016FB1D4B134A029301A9B3
:107A300003A80194FFF7B2FE0399322205F19200E8
:107A40000AF0DDFE03A807F005FB40E738DA032063
:107A500088300E00B3300E0004DA03205CE503200A
:107A600024DA03200CE003200CD60320A8E1032035
:107A700070E50320F4E4032090E10320BA300E0007
:107A80000F300E0013300E001F300E0028300E0095
:107A900035300E0041300E004E300E005B300E00CF
:107AA00068300E0030B599B08949054604A807F042
:107AB0001CFB042104A8FCF7DFFE04A807F0CAFAA7
:107AC000844904A807F05CFB834B844A1B68128836
:107AD000834804A906F0C6F8044604A807F0BAFAD9
:107AE0005CB9804904A807F000FB04A80221FCF758
:107AF000C3FE04A807F0AEFA59E07B4904A807F0DA
:107B00003FFB774804A906F00FF9044604A807F0E4
:107B1000A1FA0CB97549E5E7754904A807F030FBEF
:107B20006F4804A906F022F9044604A807F092FA67
:107B30000CB97049D6E7294604A807F021FB68482C
:107B400004A906F035F9044604A807F083FA002CCE
:107B500046D1694904A807F0C8FA032104A8FCF734
:107B60008BFE04A807F076FA294604A807F008FB64
:107B70005B4804A906F03EF9044604A807F06AFA37
:107B8000C4B95E4904A807F0B0FA294604A807F072
:107B9000B3FB0146684607F0F3FA02216846FCF79A
:107BA0006BFE684607F056FA04A807F053FA204621
:107BB00019B030BD524904A807F097FA294604A825
:107BC00007F09AFB0146684607F0DAFA0321684697
:107BD000FCF752FE684607F03DFA04A807F03AFAAF
:107BE000484904A807F081FA474904A807F084FB34
:107BF000464907F08DFB0146684607F0C1FA694621
:107C0000374806F067FA0446684607F023FA04A8E6
:107C100007F020FA0CB93E4964E73E493E48FCF7BC
:107C20004BFC30B908F0DAFE3C4907F0C4FE0024F2
:107C3000BDE7384A384944F2022304A805F082F926
:107C400008A8FCF725FD044688B1254D284609F013
:107C5000DAF8D8B1284609F0DDFA0028F6D028462F
:107C600009F091F9C1B204A8FCF746FDF2E72C49EE
:107C7000684607F03AFA02216846FCF7FDFD6846BF
:107C800007F0E8F904A8FCF73BFAD0E708A805F0EC
:107C90003DF80A2008F000F8114806F025F81048D1
:107CA00006F00EF90A2007F0F7FF1E49684607F0B4
:107CB0001CFA04216846FCF7DFFD684607F0CAF9A4
:107CC00019491448FFF7B4FD04A8FCF719FA6EE748
:107CD000EA300E00A8E1032084D9032080D90320D4
:107CE00044E00320ED300E0070E503200A310E0061
:107CF000F4E4032017310E00162C0E002E2C0E007B
:107D0000412C0E0024310E0004DA032038310E001D
:107D100044310E0056310E0038DA032061310E0076
:107D20007F310E009B310E0010D603202DE9F04F5D
:107D30002DED028BBA4FDFF81083E7B03E463C686A
:107D4000FCF792FB06A84146FCF7F2FA06A807F0FA
:107D50005BF880B1B34952A807F0C7F9042152A8D3
:107D6000FCF78AFD52A807F075F94FF47A7007F016
:107D700093FF06F0F7FF06A807F04DF8002800F083
:107D8000698100231A4618463568A74C00930721DD
:107D900007F08BFF002319461A46606806F0D8FCEE
:107DA000A24952A807F0A1F9042152A8FCF764FDEA
:107DB00052A807F04FF9A1464846FCF763FA04467B
:107DC00000283AD1013D4FF47A7007F065FF8C2D01
:107DD000F2DC012007F088FF0121072009F0B8FB41
:107DE000642007F059FF924952A807F07EF9042158
:107DF00052A8FCF741FD52A807F02CF901210720F9
:107E000009F0B7FB41F2883007F046FF2146072012
:107E100009F0AFFB4FF47A7007F03EFF854B1B680B
:107E2000009352A840F2DC5302220621FCF76AFAC2
:107E30004FF47A7007F030FF81E73368DFF80C9277
:107E4000DFF80CA2DFF8E0B11E255D43002D40F302
:107E5000D780062009F0A6FB0446002840F0BD802C
:107E6000062009F09FFB20B96420643407F014FF5A
:107E7000F6E7494652A807F038F90A2229463EA8F3
:107E800007F0ADF93EA952A807F036FA514602684C
:107E900034A8FCF7A9F935A8FDF7B4FB3EA807F014
:107EA000D9F852A807F0D6F8594652A808F0F4FDC0
:107EB000614934A807F019F952A807F06DFF0621AF
:107EC0002AA807F0C6F92AA934A807F015FA5B49D1
:107ED00007F01EFA01463EA807F052F904213EA819
:107EE000FCF7CAFC3EA807F0B5F82AA807F0B2F8DC
:107EF00034A807F0AFF8012007F0F6FE01210720B3
:107F000009F026FB642007F0C7FE0025B2EE048AC4
:107F100052A807F041FFC0EE087A07EE105AB8EEFB
:107F2000477AF1EE677AB4EEE77AF1EE10FA11D8FB
:107F30000021072009F01DFB4FF4FA7007F0ACFE9A
:107F40000121072009F015FB4FF4FA7007F0A4FE99
:107F50000135DDE735680023184600931A460721EE
:107F600007F0A3FEFCF780FA642007F095FEFCF70B
:107F70001FFAB4F5FA6F05F1FF357FF767AF42F2EC
:107F80000F739C423CDD012007F0AEFE012107206B
:107F900009F0DEFA06F03CFC356806F041FC0446C8
:107FA00008BB0146072009F0E4FAFA2007F074FE46
:107FB0000121072009F0DDFAFA2007F06DFE8C2D73
:107FC0000DDC012007F090FE0121072009F0C0FA26
:107FD000642007F061FE1A4906E70024BBE7013D73
:107FE000FCF7E6F9D9E74FF0FF31164808F096F9AB
:107FF0000722002300931146104607F056FE9EE626
:10800000012007F071FE0121072009F0A1FA0021EB
:10801000072009F0AEFA0A2007F03EFE642009E7C7
:1080200084D90320A1310E0060E60320A4310E00A4
:10803000B1310E0004DF0320E1310E00F0310E00FB
:10804000F3310E00BCE70320CCE50320C3310E0062
:10805000B12D0E00C349C44D52A807F046F80421C3
:1080600052A8FCF709FC52A806F0F4FF06F0BCF891
:108070002846FCF707F9B0B94FF47A70013C07F0D5
:108080000BFEFCF7F1F9002CF2DCB84BB8490122E9
:1080900052A81A7007F029F852A80321FCF7ECFB4C
:1080A00052A806F0D7FF3568DFF8C09206F09CF8BA
:1080B000824606F0B5FB00BB99F80040ECB94FF4DE
:1080C0007A70013D07F0E8FDFCF7CEF9AA2DF0DC4F
:1080D000A84B8DF85041012252A81A70CDE95244A4
:1080E00008F020F9A44952A806F0FFFF52A8032186
:1080F000FCF7C2FB52A806F0ADFF356806F074F835
:108100009E4904463EA806F0F0FFA4EB0A040A22AA
:108110004FF47A7134A8B4FBF1F107F086F834A972
:108120003EA807F0E9F8014652A807F029F8042113
:1081300052A8FCF7A1FB52A806F08CFF34A806F069
:1081400089FF3EA806F086FF8D4807F03BFF062119
:108150000CA807F07EF88A4807F018FF062110A83F
:1081600007F077F8804920A808F096FC85492AA8EE
:1081700006F0BBFF0CA92AA807F0BEF8824907F059
:10818000C7F810A907F0B8F8804907F0C1F804460D
:1081900020A807F001FE062134A807F05AF834A9F8
:1081A000204607F0A9F87A4907F0B2F8044620A85B
:1081B00007F008FE06213EA807F04BF83EA920462E
:1081C00007F09AF8734907F0A3F8014652A806F0A1
:1081D000D7FF042152A8FCF74FFB52A806F03AFF44
:1081E0003EA806F037FF34A806F034FF2AA806F0B0
:1081F00031FF20A807F0E6FDF3EE097AB4EEE70AB6
:10820000F1EE10FA40F11681012389F80030624D39
:1082100052A805F002FCBDF84C315298AB802860A2
:1082200008F0DCFB29780A22044601F5FA6152A81D
:1082300006F0D5FF5299204607F0AAFB52A806F097
:1082400009FF08F0CBFB2F2107F0A6FB08F0C6FBC7
:108250000A220446697852A806F0AFFF52992046D8
:1082600007F096FB52A806F0F5FE08F0B7FB2F21A9
:1082700007F092FB08F0B2FB0A220446A97852A844
:1082800006F09BFF5299204607F082FB52A806F0A9
:10829000E1FE08F0A3FB202107F07EFB08F09EFB27
:1082A0000A220446E97852A806F087FF5299204630
:1082B00007F06EFB52A806F0CDFE08F08FFB3A21C6
:1082C00007F06AFB08F08AFB0A220446297952A8C3
:1082D00006F073FF5299204607F05AFB52A806F0A9
:1082E000B9FE08F07BFB3A2107F056FB08F076FB5D
:1082F0000A220446697952A806F05FFF5299204687
:1083000007F046FB52A806F0A5FE08F067FB07F051
:1083100046FBAB78012B2C460CD1EB780F2B09D107
:108320001E4952A806F0E1FE52A8FDF781F952A8B5
:1083300006F090FE6B7901932B790093EB78AA7885
:10834000174908A806F0C4FA08F048FB1549054685
:1083500052A806F0CAFE08A93EA806F0C6FE3EA92D
:1083600052A821E00E320E0060E60320F3E4032061
:1083700012320E0010E003201E320E00042D0E00FB
:10838000A0E103202A320E0030320E0035320E00FA
:108390003C320E00142B0E00EDE40320D82F0E000B
:1083A0007D320E0092320E0006F0A6FF01682846CC
:1083B00007F001FB3EA806F04DFE52A806F04AFE6B
:1083C00008A952A806F091FE52A8FDF7BDFB05468C
:1083D00052A806F03FFE002D40F0EF80BC493EA8B9
:1083E00006F083FE08A934A806F07FFE34A93EA853
:1083F00006F082FF014652A806F0C2FE012152A8F3
:10840000FCF73AFA52A806F025FE34A806F022FE40
:108410003EA806F01FFE41F2883007F03DFC4FF405
:108420009670FDF7A9F810A806F014FE0CA806F047
:1084300011FE84E499F80030002B7FF4E8AEA54BE0
:108440001C78002C40F09B80A34BA4491B788DF82E
:10845000003022463C2352A808F058F853A8FDF7F4
:10846000D1F89F4B9F491B788DF8003022463C2362
:1084700052A808F04BF853A8FDF7C4F80C9A9A4993
:1084800052A8FBF7B1FE53A8FDF7BCF820A807F0EF
:1084900083FC062152A806F0DCFE529A93493EA8BE
:1084A000FBF7A2FE3FA8FDF7ADF852A806F0D2FDFB
:1084B00006F0B6F910B1204606F0CAF9FBF773FED4
:1084C000F0B9A92D55DC8A4952A806F00EFE02210A
:1084D00052A8FCF7D1F952A806F0BCFD854D3468CE
:1084E000DFF858A22946504606F027FF002846D05C
:1084F000002C44DD4FF47A7007F0CEFB013CF1E72D
:10850000A92DE0DD07F04CFB0028DCD007F0AEFB26
:10851000824607F0A3FB834607F094FB059007F023
:108520006DFB044607F076FB054607F07FFB059BD5
:10853000C0B2EDB2E4B2DBB25FFA8BF21FFA8AF19D
:1085400002900195009452A805F01CF952A805F07C
:10855000F8F9FBF728FE684A684952A8FBF744FE81
:1085600053A8FDF74FF8664952A806F0BEFD042156
:10857000AEE74FF4FA7007F08FFB013D9EE76149CB
:108580003EA806F0B2FD60493EA806F0B5FE5F4980
:1085900006F0BEFE014652A806F0F2FD52A8FFF713
:1085A00081FA52A806F056FD3EA806F053FD584B3E
:1085B00058491868FEF7BCFE29E6574807F0E6FC64
:1085C000DFED567A564B20EE270AD3ED007AF8EE0F
:1085D000E77AB4EEE70AF1EE10FA33D551493EA836
:1085E00006F083FD4C4807F0D1FC062134A806F0C4
:1085F00030FE34A93EA806F07FFE4B4906F088FE07
:10860000014652A806F0BCFD012152A8FCF734F93E
:1086100052A806F01FFD34A806F01CFD3EA806F087
:1086200019FD0021132008F0A4FF4FF47A7007F021
:1086300033FB4FF46160FCF79FFF4FF47A7007F053
:108640002BFBF0E699F80060002E40F0D78108F08F
:10865000C5F93649054652A806F047FD08A93EA8C7
:1086600006F043FD3EA952A806F046FE01682846E2
:1086700007F0A1F93EA806F0EDFC52A806F0EAFCCE
:108680002B4952A806F07CFD334652AA314608A871
:10869000FCF70CFB054652A806F0DCFC002D40F070
:1086A00084802449244D52A806F01FFD022152A8BF
:1086B000FCF7E2F852A806F0CDFC2846FBF7E2FDF5
:1086C00000283DD14FF47A7007F0E6FAF5E700BFD5
:1086D000A7320E0010E0032009DF0320662B0E00F6
:1086E00008DF0320512B0E0044320E004D320E00E5
:1086F00052320E0077320E0064320E00B3300E009C
:1087000071320E0024310E0004DA032060330E00B3
:1087100014E0032010D60320A0E103200000C8428B
:108720000CD60320C6320E00EA320E00ED320E00E7
:1087300090E1032005330E0060E603205CE5032092
:108740005B4FDFF89081DFF888910026394652A808
:1087500006F016FD002352AA012108A8FCF7A6FA8C
:1087600008BBB6FA86F56D0952A806F073FC3DB356
:10877000414652A806F0B9FC022152A8FCF77CF849
:1087800052A806F067FCFBF76FFE01360022D9F80D
:108790000400114605F0E4FF0028D7D04FF4FA702A
:1087A00007F07AFAF2E70025DEE7424952A806F020
:1087B0009CFC52A80421FCF75FF852A806F04AFC82
:1087C00062783D49237800913C49013A01EB8202ED
:1087D00003F5FA633A492AA806F07AF839493EA81F
:1087E00006F083FC38493EA806F086FD014652A8F3
:1087F00006F0C6FC012352AA19462AA8FCF756FA2D
:10880000054652A806F026FC3EA806F023FC002DE3
:1088100064D12E492E4D52A806F067FC022152A8C1
:10882000FCF72AF852A806F015FC41F2883007F050
:1088300033FA2846FBF726FD0028FAD0214FDFF84F
:108840008880DFF89490002539463EA806F04DFC5C
:1088500041463EA806F050FD014652A806F090FCA5
:10886000012352AA19462AA8FCF720FAE8B9B5FA5A
:1088700085F6760952A806F0EDFB3EA806F0EAFB65
:10888000002E37D0494652A806F02FFC022152A8EC
:10889000FBF7F2FF52A806F0DDFB0D4E0135304626
:1088A000FBF7F0FC0028FAD0CEE70026E2E700BF95
:1088B00090E1032021330E002D330E004CD903200C
:1088C00026330E0024310E0004DA032032330E006A
:1088D00060E6032010330E003D330E009B4952A882
:1088E00006F003FC042152A8FBF7C6FF52A806F0CD
:1088F000B1FB0025627823780092954A9549126869
:1089000003F5FA632AA805F0E3FF08F067F8924937
:10891000064652A806F0E9FB2AA93EA806F0E5FBA8
:108920003EA952A806F0E8FC0168304607F043F87B
:108930003EA806F08FFB52A806F08CFB87482AA9B8
:10894000FBF799FD002800F06A8108F047F8844998
:10895000DFF83482DFF8349207F02DF800232AAADA
:108960007E4952A804F0EEFA52A97E48FBF776FF42
:1089700052A8FBF7C5FB3EA8FBF7CAFE7A490022C6
:1089800042A804F04DFA002742A8FBF781FE28B167
:1089900042A8FBF76CFE002800F08D80724804F0BE
:1089A000B5F92AA96D48FBF7B2FD70491CA806F07D
:1089B0009CFB0A22394618A806F011FC18A91CA82D
:1089C00006F09AFC014652A806F0DAFB042152A8F0
:1089D000FBF752FF52A806F03DFB18A806F03AFB41
:1089E0001CA806F037FB3EA8FBF78AFB52A8604A9A
:1089F0006049FBF7F9FB53A8FCF704FE52A805F009
:108A00000CF85298BDF84C3120605B48A38005F00B
:108A1000D4F85A4B1868012800F01881022800F099
:108A20003481002840F01981E57821786278A378B4
:108A3000062D01F5FA6140F205810A2D00F2F5805C
:108A4000CDE901000B20009052A804F09BFE52A833
:108A500004F024FF04464A4804F020FF241A494940
:108A60003EA806F042FB0A2221461CA806F0B7FBEE
:108A70001CA93EA806F040FC014652A806F080FB67
:108A8000042152A8FBF7F8FE52A806F0E3FA1CA84E
:108A900006F0E0FA3EA806F0DDFA2046FCF76CFD91
:108AA00010A806F0D7FA0CA806F0D4FA67B0BDEC0F
:108AB000028BBDE8F08F8DF8200050980137002818
:108AC0003AD00D2208A901F0ABFB07F087FF414621
:108AD000064652A806F009FB08A91CA806F005FBEB
:108AE0001CA952A806F008FC0168DFF8A4A03046D3
:108AF00006F061FF1CA806F0ADFA52A806F0AAFA2B
:108B000042A804F003F9514652A806F039FB0223AB
:108B100052AA002108A8FCF7C9F8A8B9B5FA85F649
:108B2000760952A806F096FAA6B301354846FBF737
:108B3000A9FB0028FAD0E6E751980028C5D00D22FD
:108B400008A903F08DFCC0E70026EAE74E330E00CB
:108B50005CE5032053330E0062330E0038DA032045
:108B600070330E0008E5032018E5032083330E0060
:108B7000D0330E00B12D0E0058E503200CE0032089
:108B8000EDE40320B9450E00A3330E0060E6032098
:108B900090E10320627823780092494A494912689B
:108BA00003F5FA6334A805F093FE2AA918A806F085
:108BB0009CFA08A914A806F098FA14A918A806F0B7
:108BC0009BFB34A9824652A806F08FFA08A91CA87C
:108BD00006F08BFA1CA952A806F08EFB51460246FD
:108BE0003948FBF7E2FC1CA806F034FA52A806F05C
:108BF00031FA14A806F02EFA18A806F02BFA52A89B
:108C0000FBF786FD3246314956A804F009F952A90E
:108C10003EA8FBF723FE52A8FBF772FAB4E607F072
:108C2000DDFE2B4906F0C7FEE0E60E2D03D8CDE9A8
:108C300001000F2007E7CDE9010001330720009074
:108C4000DBB201E7CDE901000720FCE6E378062B63
:108C500011D9112B03D9122B0DD00024FFE60022CD
:108C600021780133CDE90122DBB20093A378627849
:108C700001F5FA61E8E6A37821780022CDE9012226
:108C8000013307220092DBB2F1E700252178CDE91C
:108C90000155E3780093A378627801F5FA6152A850
:108CA00004F070FD2B460122294600951CA804F013
:108CB00015FE3EA81CAA52A904F003FE3EA8C7E672
:108CC0005CE50320B9330E0038DA032018E50320F1
:108CD000C3330E0010B59A4800238EB01A461946C9
:108CE000406805F055FD974807F0F5F9954807F0FD
:108CF000CEF8954805F0A7FEFBF7B6FB934A9449DA
:108D0000944807F0FAFA0024934A9449914807F0EE
:108D1000F4FA9349934823462246CDE9004405F0EE
:108D20008FFD012322468E498F48CDE9004405F08E
:108D300087FD4FF0FF318D4807F0F0FA4FF4967140
:108D40008A4807F0EBFAB9EE040A06F009FF0121A0
:108D5000132008F0FDFB0121072008F0F9FB214654
:108D6000082008F0F5FB0121072008F0F1FB21465F
:108D7000062008F0EDFB08F09DFC7D4907F0AEFFF2
:108D800008F098FC07F0AEFFFBF716FD6D4807F002
:108D9000FDF8DFED787A784B20EE270AD3ED007AE4
:108DA000F8EEE77AB4EEE70AF1EE10FA2ED5734941
:108DB00006A806F09AF9634807F0E8F8062102A829
:108DC00006F047FA02A906A806F096FA6C4906F0E2
:108DD0009FFA01460AA806F0D3F901210AA8FBF779
:108DE0004BFD0AA806F036F902A806F033F906A8EA
:108DF00006F030F92146132008F0BBFB4FF47A70DF
:108E000006F04AFF4FF46160FCF7B6FB04F078FD12
:108E100007F0E4FD4FF4E13107F0D4FD594804F0C8
:108E2000CCFE0024584906A806F05FF922462146E8
:108E30000AA80A9405F008FA0A220A9902A806F07C
:108E4000CEF902A906A806F057FA01460AA806F0CC
:108E500097F904210AA8FBF70FFD0AA806F0FAF813
:108E600002A806F0F7F806A806F0F4F8474906A8A5
:108E700006F03BF9464902A806F037F902A906A810
:108E800006F03AFA01460AA806F07AF904210AA87F
:108E9000FBF7F2FC0AA806F0DDF802A806F0DAF803
:108EA00006A806F0D7F83B4906A806F01EF93A488E
:108EB000214600F00DFD062102A806F0CAF902A91C
:108EC00006A806F019FA01460AA806F059F9042185
:108ED0000AA8FBF7D1FC0AA806F0BCF802A806F025
:108EE000B9F806A806F0B6F8264804F00BFDF8B964
:108EF0002A490AA806F0F9F802210AA8FBF7BCFCE7
:108F00000AA806F0A7F8264A26490AA804F04EFC4B
:108F10000AA804F016FD41F2883006F0BDFE05F007
:108F200021FF214B21491868FEF782FC0EB010BDCD
:108F3000144804F03EFE134804F03FFEF1E700BF82
:108F400060E60320A0E1032004E50320D9330E00EE
:108F5000495B0D00CF020E00E2330E0031560D00CA
:108F6000914A0D00662B0E00512B0E00BCE703202A
:108F7000A08601000000C8420CD60320C6320E00B5
:108F8000EA320E0058E50320EA330E00F7330E00F4
:108F9000FD330E0008340E0024E0032014340E00CC
:108FA00028340E0031340E0014E0032010D60320C4
:108FB0006E4B70B500241C606D4B6E4E1C706E4B7A
:108FC000346001251D706D4BB3602846B480B471C8
:108FD00005F066FB6A4A6B49304608F0BBFB284641
:108FE000214605F06DFB6848684BC0F8943429238E
:108FF00080F8AB34624A664980F8985480F8A954E6
:10900000C0F88044C0F88444C0F89C44A0F8A04450
:1090100080F8AE4408F09EFB21465E485E4E06F0A6
:109020005FFF574A5D495B4808F094FB2A460F21D1
:109030005B485C4D00F04DFB514A5B49584808F0D5
:1090400089FB4FF40073594A59495A48FBF7B8F95C
:109050004B4A5949574808F07DFB2146574804F0D0
:1090600049FB5749574806F040F8454A5649554884
:1090700008F070FB5549564806F037F8404A524907
:10908000534808F067FB5349534806F02EF83C4A12
:109090004D49514808F05EFB5049514806F025F80B
:1090A000374A49494E4808F055FB4E494E4806F0AC
:1090B0001CF8334A44494C4808F04CFB2819314607
:1090C000103406F012F8B4F5487FF7D12C4A47491E
:1090D000474C002008F03EFB4649474806F005F89B
:1090E000274A3949444808F035FB4449444805F0CB
:1090F000FCFF234A3449424808F02CFB41494248CE
:1091000005F0F3FF1E4A30493F4808F023FB0522D3
:1091100011463E4800F032FC00213D4805F017FCA6
:10912000174A3C493A4808F015FB4FF4A672002153
:10913000204609F009FB204608F010F904F11C0054
:1091400008F00CF90A23C4F848310D4A3249204688
:1091500008F000FB3148FBF7DBFA094A30492F4899
:1091600008F0F8FABDE87040FBF721BB04DF0320EC
:1091700008DF0320F0DE032009DF03200000FFFFEB
:10918000F0D9032005420D0038DA0320C0340E0068
:10919000CF400D00A0E10320D82F0E0001FF0D00ED
:1091A00024E00320C0E1032035970D00694A0D003B
:1091B000905F010080E50320C3420D00EDE4032031
:1091C0003D340E00A8E1032055F00D0052340E008E
:1091D00070E503206D340E00F4E4032088340E00A3
:1091E00090E1032056310E0014E00320D1400D0021
:1091F00044E00320A4340E005CE50320AB340E00F1
:1092000004DA0320B1340E0024DA0320E0E4032062
:1092100004E503206DE90D00C5640D0008E5032099
:1092200001410D0010B503682F2B044604D9074AED
:1092300000210A2005F01CFA23681F2B83BF03F0CE
:109240001F03034823604FF0A04010BDD9E10D007B
:1092500000030050F7B51B4C058823781A4EBFF366
:109260005B8F13F0010F09D12046FAF71AFF28B1DE
:1092700004F062FF30602046FAF718FF33682D01D2
:109280005B5D5F012378BFF35B8FDB0709D40D487B
:10929000FAF707FF28B104F04FFF30600948FAF7EA
:1092A00005FF33682B4401A85B7803F01F033B43A1
:1092B0000193FFF7B7FF019A01239340C0F80C35E3
:1092C00003B0F0BD98E503209CE50320F7B51B4CE7
:1092D000058823781A4EBFF35B8F13F0010F09D175
:1092E0002046FAF7DEFE28B104F026FF3060204663
:1092F000FAF7DCFE33682D015B5D5F012378BFF375
:109300005B8FDB0709D40D48FAF7CBFE28B104F0D8
:1093100013FF30600948FAF7C9FE33682B4401A8EF
:109320005B7803F01F033B430193FFF77BFF019A38
:1093300001239340C0F8083503B0F0BD98E5032041
:109340009CE503202DE9F341204D06882B78204F22
:10935000BFF35B8F13F0010F09D12846FAF7A1FE86
:1093600028B104F0E9FE38602846FAF79FFE3B6812
:1093700036019C5D2B78BFF35B8FDB074FEA441807
:1093800009D41248FAF78DFE28B104F0D5FE3860F2
:109390000E48FAF78BFE3B68334401A85C7804F072
:1093A0001F0444EA08040194FFF73CFFD0F810358D
:1093B000019401A8FFF736FF019BD0F81005D840B3
:1093C00000F0010002B0BDE8F08100BF98E5032085
:1093D0009CE5032038B504460D462846002108F0D8
:1093E000B7F82580204638BD70B5054607F020FB4C
:1093F0002888002104F0A8FE07F01CFB7D24013C16
:1094000014F0FF042DD0022004F0E6FE2846FFF7FA
:1094100099FF0028F3D007F00BFB2846FFF71AFF4F
:109420000121288804F090FE07F004FB4FF4F0704F
:1094300004F0D2FE04F0E0FE00210646288804F085
:1094400083FE462004F0C8FE2846FFF77BFFB0FAF3
:1094500080F4304604F0D8FE4FF4CD70640904F077
:10946000BBFE204670BD70B511F00105044618D052
:1094700004F0C2FE05462046FFF7ECFE01212088DD
:1094800004F062FE012004F0A7FE2088002104F011
:109490005BFE284604F0B8FE3B20BDE8704004F0B7
:1094A0009BBE04F0A9FE06462046FFF7D3FE01212D
:1094B000208804F049FE412004F08EFE20882946D1
:1094C00004F042FE304604F09FFE0520E5E738B583
:1094D000044604F091FE05462046FFF7BBFE2088B7
:1094E000012104F031FE012004F076FE00212088E5
:1094F00004F02AFE0D2004F06FFE2046FFF722FF45
:109500000446284604F080FE2E2004F065FE204626
:1095100038BD2DE9F0410446884616460827012546
:1095200018EA050F14BF012100212046FFF79BFF19
:109530006D00013FEDB2F3D166B107F079FA204634
:10954000FFF7C4FE2088012104F0FEFDBDE8F041D4
:1095500007F070BABDE8F081F8B507460826002587
:1095600001243846FFF7B3FF00B125436400013EF4
:10957000E4B2F6D12846F8BD70B500220C4655215C
:109580000646FFF7C6FF651E073415F8011F0022C7
:109590003046FFF7BEFFA542F7D170BD0022CC21B7
:1095A000FFF7B7BF002343808380C38003814381DB
:1095B000037370472DE9F04790F80C9004468846F5
:1095C000B9F1000F0DD0002060812073A31C08F1B9
:1095D000FF380A3413F8012B08F8012FA342F9D100
:1095E00004E0FFF701FF18B960812073BDE8F08740
:1095F0004A46F0212046FFF78CFF0126CA46354631
:109600002046FFF764FF07462046FFF760FF012F63
:109610000FD1012827D1402DD5D984F80A90B9F16E
:10962000000F01D101232373A378002BCBD001209D
:10963000CCE7874204EB0A030CD1A27AAA420ED9E6
:109640009A78164214BF0127002767B9082D00D861
:10965000E572A9469A7822EA06029A7009E00CBFE0
:1096600001270027F1E704EB0A020127937833432F
:109670009370394620467600FFF7F5FE16F0FF0698
:1096800004BF0AF1010A5FFA8AFA05F1010508BF71
:109690000126BAF1070FEDB2B2D9BCE730B50246E8
:1096A000014400208A4213D012F8015B082480EAAA
:1096B000050313F0010F4FEA50001CBF80F08C032C
:1096C000D8B2631E13F0FF044FEA5505EFD1E9E766
:1096D00030BD37B5002343608360C36003614361DD
:1096E000038340F2EE238276C36104460E2001918B
:1096F000FAF7D1FC054610B10199FFF76BFE204641
:10970000256003B030BD38B500F110050C46006887
:109710002946FFF74FFF031E1DBF2B6823606B68B0
:10972000236014BF01200020636038BD00F11001E8
:10973000FFF7E9BF10B50446006810B10E2108F02C
:109740000EF8204610BD0068FFF72CBF2DE9F04150
:10975000837E04460D4616462BB90B781BB99FED48
:10976000570ABDE8F0812068FFF73EFEA37E002B7C
:109770005CD0002E5AD12068FFF710FF0022442150
:109780002068FFF7C6FEE06906F086FA2068FFF75A
:109790002BFEA37E002B4ED0002E4CD12068FFF76D
:1097A000FDFE20680022BE21FFF7B3FE2B78262B9A
:1097B00004D1002220681146FFF7ABFE261D04F1FC
:1097C0000D0837462068FFF7C7FE06F8010B46452F
:1097D000F8D108213846FFF761FF237B20769842B5
:1097E0006376BCD12B78262B47D029D8102B29D0D3
:1097F000222BB4D1227A237902F06002202A36D0BB
:10980000402A37D012B923F00703237163792079F6
:1098100040EA032000B208F00FFA294B002208F0BA
:1098200075FA08F02DFD00EE100A9AE72068294627
:10983000FFF7A2FEA2E720682946FFF79DFEB0E7EA
:10984000282BD6E7E37AA288102B08BFA37A4FEA29
:10985000C20203BFC3F10C0322F00F029B1813B224
:1098600008BF1BB200EE103ABAEECE0A79E723F039
:109870000303CAE723F00103C7E7A579284608F0E8
:10988000DBF906466079C01007EE900AF8EEE77A39
:109890000F4617EE900A08F0E1F90A4B002208F093
:1098A00035FA2B0654BF084B084B002208F02EFA5D
:1098B00032463B4608F074F8B3E700BF0000C07FB3
:1098C0000000B03F0000A03F0000F03F0000F0BFEC
:1098D00013B5837E04460A463BB904F110012046C5
:1098E00002B0BDE81040FFF731BF037C002BF4D17C
:1098F0000191FFF728FF2046FFF718FF019A002883
:10990000EBD19FED020A02B010BD00BF0000C07F86
:1099100010B503682F2B044604D9074A00210A20FA
:1099200004F0A6FE23681F2B83BF03F01F03034828
:1099300023604FF0A04010BDD9E10D00000300509E
:1099400007B5019001A8FFF7E3FF019A01239340B7
:10995000C0F8083503B05DF804FB07B5019001A815
:10996000FFF7D6FF019A01239340C0F80C3503B0EE
:109970005DF804FB0368C9B29B6818472DE9F04104
:10998000274E284F04460D4690B2012107F0E0FD16
:109990003378BFF35B8F13F0010F09D13046FAF72C
:1099A00080FB28B104F0C8FB38603046FAF77EFB34
:1099B0003B6893F850803378BFF35B8FDB074FEA47
:1099C000481809D41648FAF76CFB28B104F0B4FB28
:1099D00038601348FAF76AFB3B6893F8510000F0CF
:1099E0001F0040EA0800FFF7ABFF6572013D0F2D35
:1099F00009D8DFE805F00D08111113130F08080D41
:109A0000110F130811114223A3722046BDE8F08103
:109A1000BA23F9E79023F7E77823F5E76023F3E724
:109A200098E503209CE5032070B5184C184D237869
:109A3000BFF35B8F13F0010F09D12046FAF731FB1A
:109A400028B104F079FB28602046FAF72FFB2B6839
:109A500093F850602378BFF35B8FDB074FEA46161D
:109A600009D40A48FAF71DFB28B104F065FB286009
:109A70000648FAF71BFB2B6893F8510000F01F0013
:109A80003043BDE87040FFF75BBF00BF98E503209F
:109A90009CE5032070B5184C184D2378BFF35B8FFD
:109AA00013F0010F09D12046FAF7FBFA28B104F0B0
:109AB00043FB28602046FAF7F9FA2B6893F85060C8
:109AC0002378BFF35B8FDB074FEA461609D40A48B9
:109AD000FAF7E7FA28B104F02FFB28600648FAF7F6
