:02000002D0002C
:1040000000400D00D02D0E00000006000D0005013F
:084010000401E80500000000B6
:04401800B4070E00DB
:1040200009480A49884208B505D0094A824202D0A7
:10403000121A0BF07CFE0748074A0021121A0BF0F7
:1040400081FE014808BD00BF68D603201C290E0070
:10405000F4DA0320F4DA0320F0E7032070B509F066
:10406000F5F9074C074BE41AA40800251E46A542A3
:1040700004D056F8253098470135F8E770BD00BFE9
:104080000C290E00B4280E0004F05CBF08B504F043
:1040900025F8BDE8084009F09BB907F06BBD07F0B3
:1040A00071BD07F06FBD000008B5034A00210C2068
:1040B00007F04AFCFEE700BF71B50D000078B0FACA
:1040C00080F04009704701230370704710B5074C1A
:1040D0002168034639B10648064A006806F036F8FA
:1040E00010B100232360012010BD00BFF8DA0320C7
:1040F000FCDA032000DB032038B50C4D2B78044696
:1041000093B103460A490B480B4A0968006806F058
:104110001DF808B9002038BD34B12046FFF7D6FF9E
:104120000028F7D000232B70012038BD00DD0320CC
:1041300068D60320FCDA032000DB032070B50D4DA8
:104140002B68834204460E460ED00120FFF7D4FFB1
:1041500008B9002070BD084B084A1868214605F0D0
:10416000EBFF0028F5D02C60054B1978314319700E
:10417000012070BD68D60320FCDA032000DB032099
:1041800000DD032010B504460120FFF7B5FF78B12C
:104190000023084A194699540133B3F5007FFAD138
:1041A000054B064A1C60137843F00103137001208D
:1041B00010BD00BF00DB032068D6032000DD032014
:1041C00070B5C36801338B4205460C46164601D2D2
:1041D000002070BD90F82020C369102A0CBF080A87
:1041E000C80918440D4B1B68984208D195F8203037
:1041F000102B0B4B09D1E4B233F814300BE0002143
:10420000FFF79CFF0028F1D1E2E704F07F0453F8A8
:10421000243023F070433360012070BD68D6032042
:1042200000DB03202DE9F74302AEDFF8448046F8B7
:10423000041D0546174600244FF4007932460199C3
:104240002846FFF7BDFF78B12B7C95F8202009FAAE
:1042500003F31C444FF6F873102A18BF4346019A23
:104260009A42EBD33C60012003B0BDE8F08300BF6D
:10427000F8FFFF0F0129F8B506460C46174601D88E
:104280000020F8BDC36801339942F9D890F8203076
:10429000C569102B0CBF0B0ACB091D44124B1B68C0
:1042A0009D4208D196F82030102B104B0AD1E4B271
:1042B00023F814700AE000212846FFF73FFF00288A
:1042C000F0D1DDE704F07F0443F82470084A137846
:1042D00043F001031370337E012B81BFB368ED18E7
:1042E000044B1D600120F8BD68D6032000DB0320CD
:1042F00000DD0320F8DA03202DE9F74F14680646A5
:104300008B4617461CB101344FF0000A05E04B1EE6
:10431000D3F1000A04684AEB030AF368254603F167
:1043200001094FF00008F36898451DD24D4588BF3C
:10433000022501AA2946304688BF2C46FFF740FFD8
:1043400090B1019A6B1C0AB11C4602E01A1B9345FE
:1043500003D008F101081D46E5E76FF070422946D9
:104360003046FFF787FF58B900201CE005F1FF3801
:104370002A4641463046FFF77DFF0028F4D04546E7
:10438000AC42F3D3396831B93C60BAF1000F09D0BF
:104390000134346006E022463046FFF76BFF002808
:1043A000F2D1E1E7012003B0BDE8F08F73B502233D
:1043B0000F4E036005460C4601AA21462846FFF72A
:1043C000FFFE88B1002221462846FFF753FF58B16F
:1043D00095F82020019C4FF6F873102A18BF334639
:1043E0009C42E9D3012000E0002002B070BD00BF74
:1043F000F8FFFF0FF8B53D4B044619601546DAB1DA
:10440000042A01D90020F8BD00210846FFF796FED6
:104410000028F7D0364A02EB051393F8AE315B065D
:10442000F0D11B3502EB0515D5F80A30632BE9D91D
:10443000D5F80650002DE5D000212846FFF77EFE76
:104440000028DFD02A4BB3F80B20B2F5007FD9D17A
:10445000197C0029D6D0DA89002AD3D05A7B002AC9
:10446000D0D02176002122712174012094F810E02F
:1044700000FA0EF18A4206D00EF10101BEF1070FDB
:104480002174F3D9BEE7D88A08B1014601E0184A81
:10449000516AA160DA891E7C2A44E261B3F8117086
:1044A000678401FB06207A0102F2FF1200EB622210
:1044B00060626261B3F8131009B90D49096AAD1A57
:1044C000294421FA0EF540F6F4729542E56001D8D0
:1044D0000C2307E04FF6F472954285BFDB6A6362F6
:1044E0001023202384F820300120F8BDFCDA0320BB
:1044F00000DB032006F0B4BF10B503682F2B044681
:1045000004D9074A00210A2007F01EFA23681F2B4E
:1045100083BF03F01F03236002484FF0A04010BD8B
:1045200071B50D000003005007B502AB43F8040D50
:104530001846FFF7E1FF019A01239340C0F80835C0
:1045400003B05DF804FB07B502AB43F8040D184651
:10455000FFF7D2FF019A01239340C0F80C3503B056
:104560005DF804FB7FB5024608461379956833B1C0
:104570003DB90C4904B0BDE8704008F051BB0A4B8E
:1045800000E00A4B167B0A4C0A49527B0292012E2C
:1045900008BF214601910095074A002108F07DFBE4
:1045A00004B070BD390B0E008E1C0E00280B0E00DF
:1045B000310B0E00350B0E004F0B0E000368C9B215
:1045C0009B68184738B504460D4690B201210AF0A1
:1045D0009DF9134B1B6893F8500093F8513003F08A
:1045E0001F0343EA4010FFF79FFF6572102D12D89A
:1045F000DFE805F0110B110D0D0F0F0911110B0D57
:10460000090F110D0D00902306E0BA2304E0782372
:1046100002E0602300E04223A372204638BD00BFC1
:1046200010DD0320054B1B6893F8500093F85130C0
:1046300003F01F0343EA4010FFF776BF10DD0320AD
:10464000054B1B6893F8500093F8513003F01F039B
:1046500043EA4010FFF777BF10DD032009B901726C
:10466000704701230372704770B5064614460D4625
:104670000AF002FAB17A490809F0C9FC0AF0FCF91B
:10468000E9B2FFF79BFF0AF0F7F9E1B2FFF796FFF7
:104690000AF0F2F909F0C2FC20B9012008F03CFC54
:1046A000012070BD002070BD10B500220446042911
:1046B00055D8DFE801F05403172B3F00FF21FFF727
:1046C000D3FF4022C7212046FFF7CEFF5E22CC2138
:1046D0002046FFF7C9FF4122CD212046FFF7C4FF46
:1046E00054223AE0FF21FFF7BFFF4022C7212046B6
:1046F000FFF7BAFF6522CC212046FFF7B5FF412224
:10470000CD212046FFF7B0FF4F2226E0FF21FFF723
:10471000ABFF4022C7212046FFF7A6FF5222CC2143
:104720002046FFF7A1FF4122CD212046FFF79CFF45
:10473000662212E0FF21FFF797FF4022C7212046A3
:10474000FFF792FF4222CC212046FFF78DFF3F2248
:10475000CD212046FFF788FF7122CE2104E0FF2102
:10476000FFF782FF0022C7212046BDE81040FFF777
:104770007BBFF8B5002407460D462646FF2E05F1FF
:10478000040501D1FF2C09D035F8046C35F8024C32
:10479000314622463846FFF767FFEFE70120F8BDB4
:1047A000082916D8DFE801F0050715090B0D0F11D0
:1047B000130009490EE009490CE009490AE00949DA
:1047C00008E0094906E0094904E0094902E009490D
:1047D00000E00949FFF7CDBF74080E003A120E0041
:1047E000D4070E005C0A0E0014090E00DA120E0047
:1047F000B8090E0096110E0076130E0038B5437AF4
:10480000052B04462CD10122FF21FFF72DFF80222A
:1048100012212046FFF728FF642008F07DFB257A4F
:10482000012D17D10F492046FFF7A3FF0E4920465F
:10483000FFF79FFF0D492046FFF79BFF2A46FF2108
:104840002046FFF711FF152100222046FFF70CFF3D
:10485000074900E007492046BDE83840FFF789BF17
:1048600038BD00BF920B0E00000B0E006E0B0E0049
:1048700076130E008E0E0E0070B5044615460E46D9
:104880000AF0FAF8A17A490809F0C1FB0AF0F4F835
:104890003146FFF793FE0AF0EFF809F0BFFB0AF08C
:1048A000EBF8A17A0122D14009F0AAFB0AF0E4F862
:1048B00003681B69984728B10AF0DEF803685B6952
:1048C00098472870012008F027FB012070BD0000E8
:1048D00010B5084C2368DB070AD42046FFF7EEFB2F
:1048E00030B10121044807F073FA2046FFF7EBFBD3
:1048F000014810BD04DD032008DD032010B5044687
:10490000FFF7E6FF2146BDE8104007F019BB3C2049
:10491000FFF7F4BF7FB51B4B00931B4B02930024A2
:1049200001231A4D8DF80C300E468DF804408DF899
:104930000D40FFF7CDFF694607F092FA2B6893F818
:10494000500093F8513003F01F0343EA4010FFF783
:10495000FAFDF0B2FFF7D2FF2046FFF7CFFF2B683A
:10496000044693F8500093F8513003F01F0343EAD4
:104970004010FFF7D9FDFFF7ABFF07F058FA2046CC
:1049800004B070BDD0070E0000093D0010DD03200B
:104990003D21FFF7BFBF01F07F01FFF7BBBF10B59F
:1049A0001446FFF7F8FF204010BD70B542210546C0
:1049B000FFF7B0FF432104462846FFF7ABFF442131
:1049C00006462846FFF7A6FF44EA062400F07F00CB
:1049D00044EA004070BD0000F0B585B01B4B009369
:1049E000164600231A4A1B4D029201240F468DF8E9
:1049F00004308DF80D308DF80C40FFF769FF6946E3
:104A000007F02EFA2B6893F8500093F8513003F01A
:104A10001F0343EA4010FFF796FDF8B2FFF76EFF61
:104A2000F0B2FFF76BFF2B6893F8500093F851300A
:104A300003F01F0343EA4010FFF776FDFFF748FF3E
:104A400007F0F5F9204605B0F0BD00BFD0070E0015
:104A500000093D0010DD032041F08001FFF7BCBFDD
:104A600002228421FFF7B8BF01228421FFF7B4BFDF
:104A7000FFF7FABF08B506F0F3FC014B186008BD5C
:104A800010DD032010687047704703681847012A3B
:104A900002D0022A02D004E0016002E00B6800B1FB
:104AA000036000207047704738B5064D002404F5B8
:104AB00044702844103C07F013FC14F5487FF6D1ED
:104AC00038BD00BF84DF032010B501230374836861
:104AD00004460BB1C06806E0006828B183680BB9D2
:104AE0000AF037F8C3689847012363740020BDE8D3
:104AF000104006F0E9BD08B5002007F023F828B102
:104B000007F000F880F00100C0B208BD012008BD28
:104B1000037823F07F0319430170704713B5054BE9
:104B20001B788DF800303C23044608F02DFE20460B
:104B300002B010BD00DF032010B50446006808B1C4
:104B400007F020F8204610BD00231A461946406899
:104B500006F080BF00231A461946406806F082BF5F
:104B600000221146406806F06DBF10B58368044608
:104B700013B1032201469847204610BD38B50446BC
:104B800070B1056835B12846FFF7EFFF10212846C0
:104B900009F0CCFF20461421BDE8384009F0C6BF1B
:104BA00038BD10B543690446BBB1586806F054FDE2
:104BB00078B963695A7C12B9586806F055FD636983
:104BC000586806F059FD60690023636128B1FFF75A
:104BD000D5FF606908B1FFF7D1FF201DFFF7C5FFC2
:104BE000204610BD10B586B00446ADF8161006A9D3
:104BF00001F8032D089A02920122019300920B46BC
:104C00000DF1160107F004FA204606B010BD0000B1
:104C100073B51E4B1D7806460C46B5B902A8012295
:104C20001A7040F8045D2A46294606F0D1FC019B23
:104C30001E2B0AD103232068A3710823A580258198
:104C4000638110B106F09EFF2560B4F904300BB902
:104C500022689AB1216859B18A88012A03D0042AAE
:104C600006D1022205E089896181A271238105E0D4
:104C7000042223814FF6FF73A271638154F8063F2B
:104C80003360A388B380304602B070BD14DD0320CA
:104C900008B506F075FC014B186008BDECE6032072
:104CA00030B587B01D4600230446049322B1214B42
:104CB0000593214B029204930023E360049B21603F
:104CC0003BB1022202A9201D9847059B2361049B4A
:104CD000E3601A49142009F02DFF30B1002303745A
:104CE000036043608360C36043746061A0B1144B90
:104CF000836063691349DC606069134B8DE82100B0
:104D00000922043006F0A0FC30B963691B7C4BB962
:104D1000012006F025FCF8E760690023636108B113
:104D2000FFF72CFFFFF7B4FF02A8FFF71EFF204696
:104D300007B030BD8B4A0D008F4A0D00B4260E001F
:104D400001EA0D0096180E00C94A0D0008B5FFF7DC
:104D50009FFFBDE8084006F0BDBEB0F90A3013B1B0
:104D600000EB031070471846704710B54B688A680F
:104D700010339A4201D2002010BDA2F110038B60C3
:104D8000002BF8D0416819B15C1A24114C8100E065
:104D900003600021436022F8061C02F8081C42F858
:104DA000041C184610BD00000B780BB9036002E02C
:104DB000024B036000234360704700BF894A0D0027
:104DC000826810B54AB14368C468A34202D3002385
:104DD000836010BD5C1C4460D15410BD10B5044606
:104DE0000021FFF7EDFFA3683BB194E80600E368FC
:104DF0004868D31A03444B60E260A06810BD70B5E8
:104E0000064600680C4681681144154607F086FA8C
:104E10002544AC4205D014F8011B306807F075FB3F
:104E2000F7E7002070BD0121042006F0C1BB00009F
:104E30001FB50E21174806F08BF9044638BB08F061
:104E40001DFF154907F0FFFE0121072009F06FFD46
:104E500041F2883008F060F82146072009F067FD2C
:104E600043F6982008F058F80C4B1B680093022278
:104E70004FF49673062102A8FFF7B4FE4FF47A7040
:104E800008F04AF804B0BDE8104007F0A6B804B036
:104E900010BD00BFD0E303209D180E00A4E2032044
:104EA0004B6843608B688360CB68C36030B500F1AA
:104EB000100301F10F0200F11D0412F8015F03F865
:104EC000015B9C42F9D10B6A036230BD70B50546A7
:104ED000A4B00C4608F0D2FE296807F0B4FE63497E
:104EE00006A807F044FA04A805F06FFF06A912A867
:104EF00007F05FFA9DF811105D4B013901EB81015C
:104F000019440EA807F033FA0EA912A807F00AFBFD
:104F10009DF810100A22064601F5FA611BA807F059
:104F200076FA1BA9304607F0FDFA524907F006FB56
:104F300001460AA807F03DFA1BA807F0D1F90EA810
:104F400007F0CEF912A807F0CBF912A805F078FA0D
:104F50000123069A48491BA806F09AF91BA912A832
:104F6000FFF79EFF12A805F0B1FAA0B112A805F054
:104F700075FA60B908F082FE404907F064FE12A895
:104F800005F098FA06993C4806F0F0F908E012A8F6
:104F900005F090FA0EE008F071FE394907F053FE73
:104FA0000699354806F0C6F920B908F067FE35497C
:104FB00007F049FE17230A9A2F491BA806F068F943
:104FC0001BA912A8FFF76CFF12A805F07FFA90B991
:104FD00008F054FE2C4904461BA807F0C8F90AA99A
:104FE0001BA807F09FFA0168204607F02CFE1BA8BB
:104FF00007F076F931E0611E03290DD8DFE801F0F2
:1050000002040608214904E0214902E0214900E0A8
:10501000214912A807F004FE9DF8151003919DF890
:1050200014109DF8102002919DF8131001919DF825
:1050300012109DF81130009102F5FA6217491BA871
:1050400006F0B0FD1BA912A807F0EAFD296812A816
:1050500007F0F9FD12A805F02DFA0AA807F040F9AB
:1050600006A807F03DF924B070BD00BFD5180E00AA
:105070007CD70320DB180E00D0E30320E0180E00DD
:1050800004190E00F4180E0010190E002A190E0053
:1050900033190E003E190E004B190E0055190E0063
:1050A0001FB50849684607F062F901216846FFF715
:1050B0000DFF684607F014F906F08FFF05B05DF8A4
:1050C00004FB00BF70190E0070B590B005460C4689
:1050D00004A8274907F04BF92946684607F047F925
:1050E000694604A807F01EFA224907F027FA21466C
:1050F000064608A807F03BF908A9304607F012FA5F
:1051000001460CA807F055F904210CA8FFF7DEFEB4
:105110000CA807F0E5F808A807F0E2F8684607F0E1
:10512000DFF804A807F0DCF829460CA807F01FF9FF
:1051300011490CA807F014FA06460CA807F0D0F89D
:105140001EB121460D4807F03FF929460CA807F08B
:105150000EF90B490CA807F003FA05460CA807F056
:10516000BFF81DB12146074807F02EF910B070BDF9
:1051700081190E00D01A0E0086190E0074DF03206C
:105180009B190E0064DF032070B5474B1A68002A94
:10519000A4B01D4640F38680444902A807F0E7F812
:1051A00012A805F04DF9684605F00FFE40490AA81F
:1051B00007F0DDF802A90AA807F0B4F99DF801107C
:1051C0003C4B013901EB8101194404460EA807F05C
:1051D000CEF80EA9204607F0A5F99DF800100A2286
:1051E000044601F5FA611BA807F011F91BA9204636
:1051F00007F098F9304907F0A1F9014606A807F031
:10520000D8F81BA807F06CF80EA807F069F80AA8F0
:1052100007F066F80299294806F07EF870B908F0A0
:105220002DFD274907F00FFD0299244806F082F86A
:1052300020B908F023FD234907F005FD1723069A3E
:105240001E491BA806F024F81BA912A8FFF728FE88
:1052500012A805F03BF950B908F010FD1A4907F003
:10526000F2FC08F00BFD069907F0EDFC14E00E4C83
:10527000164E2B68002B0CDDD6F8201312A807F071
:10528000E2FC1349134807F09FF82368013B2360B1
:10529000EFE712A805F00EF906A807F021F802A81A
:1052A00007F01EF824B070BD4CDF0320D5180E00A7
:1052B000D9180E007CD70320DB180E00D0E30320A2
:1052C000AE190E00E5190E00FC190E0084DF032054
:1052D0008E1C0E00A4E203202DE9F04FC1B002AFF6
:1052E00004468A4607F10C00BA4915461E4607F0E7
:1052F0003EF8B94907F1C40007F039F8B74BB84A8E
:105300001B681288B74807F1C40105F031F98046DF
:1053100007F1C40006F0E4FFB8F1000F20D1B24954
:1053200007F1900007F023F8AB4907F16C0007F094
:105330001EF807F16C0107F1900007F0F3F8014641
:1053400007F1C40007F035F8022107F1C400FFF7A8
:10535000BDFD07F1C40006F0C3FF07F16C007CE05F
:10536000A24907F1C40007F024F807F1C4019D48E1
:1053700005F060F9804607F1C40006F0B1FFB8F10E
:10538000000F01D19A4912E09A4907F1C40007F0D1
:1053900010F807F1C401934805F06EF9804607F153
:1053A000C40006F09DFFB8F1000F0ED1924907F13D
:1053B000C40006F0DCFF07F1C4000221FFF786FD00
:1053C00007F1C40006F08CFF75E2294607F1C4001E
:1053D00006F0EFFF07F1C401824805F06FF980463F
:1053E00007F1C40006F07CFFB8F1000F58D18349E3
:1053F00007F1C40006F0BBFF032107F1C400FFF76B
:1054000065FD07F1C40006F06BFF294607F1C400F3
:1054100006F0CFFF07F1C401724805F071F980462C
:1054200007F1C40006F05CFFB8F1000F1CD174490D
:1054300007F1900006F09BFF294607F1900007F066
:1054400071F8014607F1C40006F0B3FF07F1C4008C
:105450000221FFF73BFD07F1C40006F041FF07F111
:10546000900006F03DFF26E2664907F1900006F045
:105470007EFF294607F1900007F054F8014607F136
:10548000C40006F096FF032107F1C400FFF71EFDDC
:1054900007F1C40006F024FF07F1900006F020FF9A
:1054A00036BBDFF87C81226898F80030019298F8CA
:1054B0000120DFF87091009203F5FA63D9F800201B
:1054C000514907F1900006F06DFB07F1900107F1DB
:1054D0000C0006F079FF226898F80030019298F8E5
:1054E0000120009203F5FA63D9F80020474936E01D
:1054F000012E0CD12368464A464907F1C40006F044
:1055000051FB214607F10C0006F044FF2BE0022E70
:105510002ED1DFF80C81226898F80030019298F8BB
:105520000120DFF80091009203F5FA63D9F800201A
:10553000354907F1900006F035FB07F1900107F1BE
:105540000C0006F041FF226898F80030019298F8AC
:1055500001200092D9F800202F4903F5FA6307F1E2
:10556000C40006F01FFB07F1C401204606F02CFF23
:1055700007F10C0107F16C0006F01BFF07F16C014D
:10558000184805F0E9F9804607F16C0006F0A8FE1E
:10559000B8F1000F48D1214907F15C0006F0E7FEA1
:1055A00007F10C0107F15C0006F0BCFF014607F1B2
:1055B0006C0006F0FEFE042107F16C00FFF786FC8C
:1055C00007F16C0006F08CFE07F15C0006F088FE27
:1055D00030E000BF8E1C0E00F0D60320B8D70320A9
:1055E00038DA032044DD0320141A0E003CDF0320C8
:1055F000291A0E0050DF03203A1A0E004B1A0E0033
:10560000631A0E00761A0E008A1A0E00961A0E0001
:10561000A31A0E00A81A0E00AF1A0E00C11A0E002F
:10562000B8DE0320A0DE0320A64808F0EFFDA54861
:1056300004F0E0FFBAF1000F2ED007F10C0107F1E2
:105640006C0006F0B6FE07F16C019E4805F09CF870
:10565000804607F16C0006F043FEB8F1000F0DD153
:10566000994907F16C0006F082FE07F16C000221F7
:10567000FFF72CFC07F16C0006F032FE934907F1AE
:105680006C0006F074FE07F16C000421FFF71EFCAD
:1056900007F16C0006F024FE8D4907F15C0006F06E
:1056A00066FE07F10C0107F15C0006F03BFF89493B
:1056B00006F044FF214606F035FF014607F16C0075
:1056C00006F077FE042107F16C00FFF7FFFB07F1FE
:1056D0006C0006F005FE07F15C0006F001FE0123F8
:1056E00022687D4907F16C0005F0D2FD642007F0C7
:1056F00013FC07F16C0004F0E9FE002869D036F0D5
:105700000203E84601D1754902E0012E27D1744910
:1057100007F15C0006F02BFE07F15C01694805F01B
:1057200011F8044607F15C0006F0DAFDBCB107F1A0
:105730000C0107F15C0006F03CFE07F15C016148DA
:1057400005F02CF9044607F15C0006F0C9FD34B9F8
:1057500007F16C0004F0AEFEFFF716FD37E007F12D
:105760006C0004F090FE5F4B421E9A420646EFD852
:1057700005F006FFDFF884B1C0B004460DF1080A59
:105780004FF0000907F16C0004F081FE18B34E459C
:1057900021D34FF48072514607F16C0004F066FE8D
:1057A00081447860FFF774FA0021072009F0BFF800
:1057B00000237A684348514608F056FD012107202E
:1057C00009F0B5F8642007F0A7FBD945DADDC54636
:1057D00071E0454963E007F16C0004F06BFE05F0F1
:1057E000CFFE4249041B07F12C0006F0C0FD4FF428
:1057F0007A730A22B4FBF3F407F11C00214606F089
:105800002CFE07F11C0107F12C0006F08BFE384935
:1058100006F094FEB6FBF4F10A22814607F13C0043
:1058200006F01BFE07F13C01484606F07BFE3149BD
:1058300006F084FE0A220446002107F14C0006F01F
:10584000F9FD07F14C01204606F06CFE014607F118
:105850005C0006F0AEFD042107F15C00FFF736FBAB
:1058600007F15C0006F03CFD07F14C0006F038FD46
:1058700007F13C0006F034FD07F11C0006F030FD96
:1058800007F12C0006F02CFDFFF760FA0D48C54625
:1058900008F0BCFC0B4804F0ADFE88BB164907F1CC
:1058A0005C0006F064FD07F15C000221FFF70EFBCF
:1058B00007F15C0086E507F10C0006F011FD002001
:1058C0009AE000BF44DD0320D31A0E00E91A0E004F
:1058D000EC1A0E00F41A0E00D0E30320E81E0E00AE
:1058E000F91A0E00FDFF0700FB1A0E00771B0E00D1
:1058F0002A240E007B1B0E00211B0E00400D03000E
:105900003F4907F14C0006F032FD294607F11C0023
:1059100006F04FFD3B4907F11C0006F00FFE07F1B2
:105920000C0106F0FFFD014607F12C0006F041FDD9
:1059300007F12C01344804F037FE0A22014607F132
:105940003C0006F064FD07F13C0107F14C0006F055
:10595000E9FD014607F15C0006F02BFD042107F18B
:105960005C00FFF7B3FA07F15C0006F0B9FC07F141
:105970003C0006F0B5FC07F12C0006F0B1FC07F185
:105980001C0006F0ADFC07F14C0006F0A9FC1F4915
:1059900007F14C0006F0EBFC0A22314607F13C000F
:1059A00006F05BFD07F13C0107F14C0006F0BAFD83
:1059B000014607F15C0006F0FCFC042107F15C00E5
:1059C000FFF784FA07F15C0006F08AFC07F13C005F
:1059D00006F086FC07F14C0006F082FC0A4804F051
:1059E000F5FE08B90A495AE70720002108F09FFF91
:1059F00007F10C0006F074FCFC37BD46BDE8F08FE3
:105A00003B1B0E00D9180E0044DD0320521B0E0074
:105A1000651B0E00F0B5B3B0B54929A806F0A7FC88
:105A2000042129A8FFF752FA29A806F059FCB14928
:105A300029A806F0BEFCB04929A806F07FFD012385
:105A40000268AE4905A805F023FC29A806F048FC29
:105A5000012205A90EA805F097FCA94B1E78002786
:105A600006F5FA663D460EA804F030FD044600280F
:105A700000F0A1800EA804F0EFFC014601A806F09A
:105A800076FC08F0FBF8044601A806F09FFD0A2208
:105A9000014629A806F0CEFC2999204607F0D3F844
:105AA00029A806F01DFC0EA804F0D8FC002872D02E
:105AB00001A806F08BFD86426DD001A806F086FD98
:105AC000731E984240F05B8165E017A804F0C6FCA5
:105AD000002837D017A9012220A805F055FC08F0AE
:105AE000CDF8044620A804F0B7FC0146204607F094
:105AF000AAF820A804F0EAFC7E49002840F04F8173
:105B000029A806F056FC7C4929A806F017FD044692
:105B10000EA804F0A1FC0146204606F00FFD7649D0
:105B200006F00CFD044617A804F096FC014620463A
:105B300006F004FD0168714805F00AFC29A806F08A
:105B4000CFFB013517A804F0B5FC0EA929A8012246
:105B500005F01AFC29A917A8FFF7A2F917A804F065
:105B6000B5FC0028B1D1634929A806F022FC62499E
:105B700029A806F0E3FC04460EA804F06DFC0146DB
:105B8000204606F0DBFC01685C4805F0E1FB29A833
:105B900006F0A6FB01350EA804F08CFC012205A935
:105BA00029A805F0F1FB29A90EA8FFF779F901A8AA
:105BB00006F096FB57E705A804F07CFC514917A8AE
:105BC00006F0D5FB0A22294601A806F020FC01A90F
:105BD00017A806F0A7FC4C4906F0B0FC0A220546BF
:105BE000394620A806F013FC20A9284606F09AFCA6
:105BF000014629A806F0DDFB042129A8FFF766F974
:105C000029A806F06DFB20A806F06AFB01A806F0A3
:105C100067FB17A806F064FB3C4929A806F0A7FB20
:105C2000042129A8FFF752F929A806F059FB0123FE
:105C3000374A324929A805F02BFB29A905A8FFF707
:105C40002FF905A929A8012205F09EFB29A90EA874
:105C5000FFF726F90EA804F039FC054600285BD0B2
:105C60000EA804F0F9FB014617A806F080FB0A22F3
:105C7000B11E29A806F0CBFB29A917A806F082FCC3
:105C8000054629A806F02CFB0DB3214929A806F0EA
:105C90006EFB0EA804F0E0FB014620A806F067FBAF
:105CA00020A929A806F03EFC0168144805F05EFB17
:105CB000054620A806F014FB29A806F011FB2DB913
:105CC00007F0DCFF134906F0BEFF00E001340EA828
:105CD00004F0F0FB012205A929A805F055FB29A92C
:105CE0000EA8FFF7DDF817A806F0FAFAB2E700BF32
:105CF0008B1B0E00A0DE0320D9180E00D0E303207A
:105D0000B8DE0320901B0E00941B0E00991B0E00A2
:105D1000D5180E00FD180E0005A804F0CBFB3E4977
:105D200017A806F024FB0A22294601A806F06FFBFB
:105D300001A917A806F0F6FB384906F0FFFB0A2276
:105D40000546214620A806F062FB20A9284606F059
:105D5000E9FB014629A806F02CFB042129A8FFF73E
:105D6000B5F829A806F0BCFA20A806F0B9FA01A8EF
:105D700006F0B6FA17A806F0B3FA33B0F0BD0EA9D4
:105D8000012217A805F000FB07F078FF044617A8CA
:105D900004F062FB0146204606F055FFDEE629A826
:105DA00006F007FB1E4929A806F0C8FB04460EA80A
:105DB00004F052FB0146204606F0C0FB184906F0ED
:105DC000BDFB044617A804F047FB0146204606F039
:105DD000B5FB134906F0B2FB044620A804F03CFBD7
:105DE0000146204606F0AAFB01680E4805F0BEFAFF
:105DF000044629A806F074FA04B1013720A804F07B
:105E000059FB17A929A8012205F0BEFA29A920A843
:105E1000FFF746F86DE600BF901B0E00941B0E00C6
:105E2000D9180E00D0E3032038B5054605F0A8FBCD
:105E3000044605F0A5FB001BA84202D2FEF786FF30
:105E4000F7E738BD1FB500210446072008F06FFDB5
:105E5000144807F063FA144805F09CF906F08CFC2E
:105E600006F04AFD05F046FE41F28830FFF7DCFF00
:105E70000E48FEF76FFE0E4805F04DFF41F28830E8
:105E8000FFF7D2FF0B4B1B6800930222234606212B
:105E900002A8FEF7A7FE41F28830FFF7C5FF04B065
:105EA00010BD00BFB0DE0320D0E30320C0E4032018
:105EB00028DF0320A4E2032038B5046805467CB13E
:105EC0006368013B63605BB9236820469B68984721
:105ED000A368013BA3601BB923682046DB68984791
:105EE000284638BD2DE9F04F0646A7B0594C236827
:105EF000DB070AD42046FEF7E1F830B1012156480D
:105F000005F066FF2046FEF7DEF84FF6FF7200212F
:105F1000514805F078FF0121132008F008FD4FF4E7
:105F2000FA6006F0F9FF4D48FEF78AFB5522002182
:105F30004A48FEF791FD00214848FEF72CFD552800
:105F400004466DD0464913A806F011FA0A222146EC
:105F50000FA806F04AFA0FA913A806F0E3FA0146C3
:105F60001CA806F026FA01211CA8FEF7AFFF1CA80A
:105F700006F0B6F90FA806F0B3F913A806F0B0F9C9
:105F8000384A39491CA8FEF7C9FD1DA8FFF794FF40
:105F900043F6982006F0C0FF344B1B6800930222A2
:105FA00040F2DC5306211CA8FEF71CFE4FF47A7069
:105FB00006F0B2FF06F011F8FEF7C8FE96E7422B96
:105FC0005AD02B4913A806F0D2F99DF813309DF84A
:105FD000122028490FA806F0FFFA0FA913A806F00F
:105FE000A1FA01461CA806F0E4F901211CA8FEF75D
:105FF0006DFF1CA806F074F90FA806F071F913A83C
:1060000006F06EF941F2883006F086FF174B1B68E8
:106010000093022240F2DC5306211CA8FEF7E2FDA9
:10602000FEF794FE0122FF210C48FEF71DFB0DF147
:1060300012020A210948FEF71FFC0DF113020B2181
:106040000648FEF719FC9DF81230262B9DF81330F8
:10605000B7D1B4E704DD032008DD032004DF03200B
:106060009D1B0E00E01B0E00EA1B0E00A4E20320A5
:10607000F11B0E00181C0E0001219848FEF7EEFAE5
:10608000642006F049FF9548FEF7B8FB642006F04F
:1060900043FF08219148FEF783FB642006F03CFF94
:1060A00000218E48FEF700FB642006F035FF8B4888
:1060B000FEF7DEFC642006F02FFF8848FEF7D4FCD4
:1060C00042F2107006F028FF8448FEF7C9FC6420F5
:1060D00006F022FF05F054FA044605F051FA0822B2
:1060E00041217E48FEF75BFCB0B9FEF72FFE0A2087
:1060F00006F012FF05F044FA47F23053001B9842B5
:10610000EDD977491CA806F032F91CA80121FEF749
:10611000DDFE1CA806F0E4F8642006F0FDFE6F48E2
:10612000FEF743FC6F49044613A806F020F90A2243
:1061300021460FA806F06BF90FA913A806F0F2F993
:1061400001461CA806F035F904211CA8FEF7BEFE86
:106150001CA806F0C5F80FA806F0C2F813A806F0B0
:10616000BFF8614907A806F002F9082241215B48FF
:10617000FEF715FC002800F0B78213A804F060F9C0
:1061800059495A4D0BA806F0F2F8642006F0C4FEF7
:1061900057490FA806F0EBF80FA91CA806F009F95B
:1061A00054491CA806F0CAF901460BA806F0F2F8FB
:1061B0001CA806F095F80FA806F092F829780A2294
:1061C00001F5FA610FA806F022F90FA91CA806F044
:1061D000F0F848491CA806F0B1F901460BA806F0F2
:1061E00081F91CA806F07CF80FA806F079F80A22BD
:1061F00069780FA806F0F9F80FA91CA806F0D9F8DD
:106200003C491CA806F09AF901460BA806F06AF969
:106210001CA806F065F80FA806F062F8364B1B784C
:106220001BB136490BA806F061F907F027FD344988
:1062300004461CA806F09BF80BA91CA806F072F9EE
:106240000168204606F0FFFC1CA806F049F80B99EF
:106250002C4805F061F8002838D023490FA806F033
:1062600086F80BA91CA806F0A4F822491CA806F081
:1062700065F9314606F056F901460FA806F08AF88E
:106280001CA806F02DF852230F9A1E491CA804F0F2
:10629000FFFF1CA913A8FEF703FE642006F03CFED6
:1062A00013A804F013F9044670BB13A804F002F914
:1062B0000A48FEF7DDFB642006F02EFE0748FEF7D5
:1062C000D3FB41F2883006F027FE02E20B990D481D
:1062D00005F030F80028C0D10446FDE104DF0320BA
:1062E0001E1C0E002C1C0E008E1C0E00B8DE03209F
:1062F000C0D60320D9180E0094DE0320301C0E00F7
:10630000351C0E00D0E303208C498D4F1CA807F0EC
:10631000FFFC8C4806F09EFF10EE100A08F0C8FE45
:106320000B4602468849894805F03CFC1E9A88497C
:10633000884805F037FC2A78A9786B788648009160
:1063400002F5FA62854905F02DFC2B79EA78697926
:10635000834D00918348844905F024FC2A688349D1
:1063600013A804F000F800232B60FEF7EFFC562280
:106370007F4913A803F0F7FF40F607043978704E01
:1063800013A803F0E5FF013CF8D117227949DFF8A3
:10639000048213A803F0E7FF774878490A222346CE
:1063A00010F8014F54548C180232102A6370734C49
:1063B000F6DDDFF898E17248724915230EEB03020F
:1063C0006F4F12F8152C1A545A540133192BDFF859
:1063D000B491F3D16C4A1E23002012F8011FE1543E
:1063E000E1180233222B4870F7DD5A493F23CA18BF
:1063F00012F83F2CFA5409F803200133422BF6D14E
:10640000624A3023002012F8011FE154E1180233E0
:106410003E2B4870F7DD50496823CA1812F8682CE3
:10642000FA5409F803200133702BF6D1584A4E2351
:10643000002012F8011FE154E1180233582B487074
:10644000F7DD48499723CA1812F8972CFA5409F82F
:10645000032001339D2BF6D164234FF0000ADFF8AF
:1064600034B1C8F800305246D8F8003003926E2B91
:106470004849029311DC5146474806F099F8029BBF
:106480000178E154DBF80030039AE11802334A70D6
:106490000AF1010ACBF80030E6E7C2230B604FF0A7
:1064A000000B8A46D8F800300293C72B19DC5946F6
:1064B000394806F07DF8029B0278FA545946DAF81A
:1064C00000303548029306F073F8029B027809F811
:1064D0000320DAF8003001330BF1010BCAF8003069
:1064E000E0E72E4A8023002012F8011FE154E11852
:1064F0000233882B4870F7DDF023DFF898A0C8F846
:1065000000300024D8F800B0BBF1F50F4ADC21467A
:10651000234806F04DF821460378214807F80B3050
:10652000DAF800B006F044F8037809F80B30DAF82E
:10653000003001330134CAF80030E3E7C0E403203F
:106540009EDE0320B0DE03203A1C0E00FCDE03209A
:10655000401C0E00E9DE032010DF0320441C0E0067
:1065600098DE03203CDD0320511C0E00A8E203202E
:106570002D140E0016140E00FBDE0320B3D80320EA
:10658000BDD703203FD90320E8DE03200FDF03201F
:106590003BDD032038DF032074DF03205FDF0320AF
:1065A000A0DE0320534B00221A6040F60804317825
:1065B00013A803F0CDFE013CF9D18A224E494F4E7B
:1065C00013A803F0D0FE40F27D224D4913A803F03A
:1065D000CAFEF5224B4913A803F0C5FE4FF4907292
:1065E000494913A803F0BFFEF522484913A803F058
:1065F000BAFE6222464913A803F0B5FE4FF40064C8
:10660000317813A803F0A4FE013CF9D114224149CA
:1066100013A803F0A8FE07F031FB3F4906F013FB77
:106620003E48FEF70DF8642006F076FC3C4A3D49F2
:1066300005A8FEF773FA06A8FFF73EFC3748FEF7F9
:1066400066F9642006F068FC2C6014253348FEF7D8
:106650009FF9013D0646F9D14FF4FA7006F05CFC53
:10666000314C324FDFF8C890D92E01D1FF2D1BD00D
:106670002A48FEF78DF93B685A1CFF2A80463A608B
:1066800009F8030007DD2A4913A803F06CFE002374
:106690003B60FEF75BFB013C354601D04646E3E735
:1066A00013A803F007FF14E0204B1A681AB1204921
:1066B00013A803F058FE1948FEF7D6F91748FDF75E
:1066C000B1FF13A803F0F6FE0021132008F02FF904
:1066D00001240FA805F004FE0BA805F001FE07A891
:1066E00005F0FEFD204602E007A805F0F9FD27B001
:1066F000BDE8F08F38DF0320B3D80320BCD70320D8
:1067000083140E00BDD7032000170E003FD90320CD
:1067100034180E0020180E005E1C0E0004DF03204B
:10672000731C0E00EA1B0E00C127090098DE03202F
:10673000A8E2032038B5064DC56104463430FFF7A2
:10674000BBFB204640F8185BFFF7B6FB204638BD80
:1067500024260E0038B504680D467CB1E168A942D4
:106760000CD035B129B1284609F02AFB10F0FF0FF3
:1067700004D02046FEF7F1FA0446EEE7204638BD85
:1067800008B500F11C0302460360436013B100F535
:10679000077100E0194691600BB102F5077302F131
:1067A0001800D3600021FEF7B3F9104608BD0000C1
:1067B0001FB50023019303930C23ADF80430044B61
:1067C0000293042201AB05F075F905B05DF804FBF6
:1067D000854A0D00F8B50446C0B10B6800F1080603
:1067E000ABB18B68556897680133E818B8420ED88A
:1067F000506065B11A460968284609F098FA304693
:106800000521FEF785F925600120F8BDF8BD304669
:106810000021FEF77DF90020F8BD10B502460C46B8
:1068200070B1002900F1080003DB0821FEF770F9C0
:1068300003E00A21FEF76CF964421460012010BDE8
:1068400010BD70B51646027A12F07F0204460D465E
:1068500005D120210830FEF75BF922606260237ABF
:1068600003F0200303F0FF0073B129462046FFF731
:1068700071FF48B931462046FEF777FA20B1037A16
:10688000C56003F07F03037270BD13B5837B0446BC
:1068900083B901220DF10701406806F04DFA10B1ED
:1068A0009DF8073001E04FF0FF3323EAE373637391
:1068B0000123A373607B02B010BD70B504460025B0
:1068C0002046FFF7E2FF0A2803D809281DD2B0B1FD
:1068D0002FE0202819D02F2802D00D2829D114E02C
:1068E000A5732046FFF7D1FF2A2802D02F2816D003
:1068F0001CE0A57300262046FFF7C7FF10B94FF034
:10690000010070BD2F2802D10EB1A573D8E7A0F108
:106910002A035E425E41A573EDE70A28D0D0A57335
:106920002046FFF7B2FF0028F7D1E8E74FF002005A
:1069300070BD4FF0000070BD08B5027A02F0200271
:1069400002F0FF0312B1FFF705FF08BD184608BDAE
:10695000F0B585B0826800920025019593680E46D7
:10696000516853605B1A044602910393FFF78DFF51
:10697000A57307462046FFF788FF8742A57323D0FB
:1069800010B94FF0010029E05C2818D12046FFF72C
:106990007CFF0028F5D0752801D0114B05E04FF0A1
:1069A00004001BE0904204D002331A78002AF9D187
:1069B00004E0587810B94FF002000FE0A5730146CB
:1069C0006846FEF7FDF9D5E76846FEF707FA30603E
:1069D00010B94FF0030001E04FF0000005B0F0BD2A
:1069E000841C0E00A0F15F031B2B13D9A0F14103FF
:1069F000192B0FD9A0F12B03DBB20E2B04D9A0F178
:106A00002E0250425041704747F6E57222FA03F3D6
:106A1000DB07F4D501207047F0B585B004460E467B
:106A2000FFF733FF27282DD022282BD0A268009211
:106A30000025019551689368536020465B1A0291C6
:106A40000393FFF722FF0746D0B1FFF7CBFFA8B1B2
:106A500039466846A573FEF7B3F92046FFF715FFE0
:106A60000746FFF7BFFF0028F2D16846FEF7B6F9E8
:106A7000002830600CBF0320002007E0022005E062
:106A8000012003E031462046FFF762FF05B0F0BD6C
:106A900000280FDD11490023C20741BFDAB201EB24
:106AA0008202D2ED007A20EE270A401003F10103A2
:106AB000F2D170470A494042002368B1C20742BF81
:106AC000DAB201EB8202D2ED007A4FEA600048BFF1
:106AD00020EE270A0133F0E7704700BF9CD6032061
:106AE00084D603202DE9F0410B782B2B044604D0EB
:106AF0002D2B03D10131012601E0013100260B7855
:106B0000A3F13002092A02D92E2B40F089804F4F81
:106B100000234FF00A0E084610F8015BA5F1300281
:106B2000D2B2092A09D8BB4208D80EFB03F3D543D9
:106B3000AB4203D813440146EDE71DB10022444F98
:106B40000A250EE007EE903AF8EE677A002E2360F1
:106B5000C4ED017A0CBF08230A2373E00246B3FB9D
:106B6000F5F3BB4202F10100F8D8521A50180D4655
:106B700011F8017BA7F1300EBEF1090F40B2F5D933
:106B80002E2F10D1DFF8DCE00A270D4601312A78DC
:106B9000303AD2B2092A06D87345F6D8013807FB35
:106BA000032340B2F1E72A7802F0DF02452A34D10C
:106BB0006A782D2A02D1A91C012704E02B2A14BFD0
:106BC000691CA91C002700224FF00A0C0D4611F881
:106BD00001EBAEF1300E5FFA8EF8B8F1090F19D85B
:106BE0000CFB02E28518262DF0DD47B19FED197AE6
:106BF000DFED197A002E18BFF0EE477A07E09FED1F
:106C0000177ADFED177A002E08BFF0EE477AC4ED51
:106C1000017A16E017B1524200E00022297821B132
:106C200000230022236062600CE007EE903A1044DB
:106C3000B8EEE70AFFF72CFF0EB1B1EE400A84ED83
:106C4000010A0C2323722046BDE8F0819999991915
:106C5000FFFF7F0000000080000000000000807F38
:106C6000000080FFCBCC0C002DE9F04395B08046AE
:106C70000D46FFF70AFE00240746A1463846E6B255
:106C8000FFF7B0FE58B13F2C09D004AB88F80E9046
:106C9000E7544046FFF7F9FD01340746EEE714AB31
:106CA0003344002403F8404C9DF81030742B07D176
:106CB000062105F10800FDF72BFF01232B600DE0F5
:106CC000662B09D105F108000621FDF721FF2C6094
:106CD000701F18BF012020E06E2B01D1301FF8E794
:106CE00004A901A8FFF7FEFE9DF80C10019A0A29DD
:106CF00003D00C2907D008290DD105F10800FDF7B4
:106D000007FF2A6005E005F10800029AFDF700FF81
:106D10002A60204601E04FF0020015B0BDE8F08384
:106D200070B588B00C460646FFF7C7FD01A98DF87F
:106D3000040004A8FEF738F8049B002B3ED1059D03
:106D400015F001053AD13046FFF79FFD272810D1F5
:106D500003A93046FFF7FCFD02A98DF8080006A83C
:106D6000FEF722F8069B63BB079810F0010228D1BA
:106D70002AE007D82228EBD021463046FFF774FFDF
:106D8000C0B229E05B280BD104F108004021FDF7D7
:106D9000BFFE256065602146304600F056F8EFE7FB
:106DA0007B28E9D104F108002021FDF7B1FE256020
:106DB00065602146304600F0AEF8E1E79DF804003A
:106DC0000AE09DF8080007E004F108000521039D92
:106DD000FDF79EFE2560104608B070BD30B5036813
:106DE0004360C368836089B004460D4618300021B3
:106DF000FDF78EFE002304F1100104A88DF81E306B
:106E00008DF81C20049405950694FFF789FF01A9CD
:106E10008DF8040002A8FDF7C7FF029B8BB9039B06
:106E2000DB070ED49DF81D305BB1237E13F0600F9D
:106E300007D103F07F03043B012B84BF02238DF8AD
:106E400004309DF8040009B030BD70B5037B88B0F4
:106E500004460E4613B94FF005005AE0FFF715FD42
:106E60005B2810D10023A3732046FFF726FD01A95C
:106E70008DF8040002A8FDF797FF029BBBB9039BA6
:106E8000DA0714D416E04FF0020042E0237B013B06
:106E900023732046FFF744FF237B8DF80400013362
:106EA000237301A904A8FDF77FFF049B53B19DF84C
:106EB00004002EE02046FFF7E8FC5D2820D10020EA
:106EC000A07326E0059BDB07F1D42046FFF7F5FC15
:106ED00001A98DF8040006A8FDF766FF069B002BAC
:106EE000E5D1079B13F00105E1D12046FFF7CDFC6A
:106EF0005D28E4D02046FFF7C8FC2C28C3D1A57339
:106F000021683046FDF731FF01460028BED14FF021
:106F1000030008B070BDF0B5037B8FB005460E4688
:106F200013B94FF00500A1E0FFF7AFFC7B2840F05C
:106F300095800023AB732846FFF7BFFC69468DF8A8
:106F4000000002A8FDF730FF029B002B73D10398CD
:106F500010F001046FD12846FFF797FC7D2856D02A
:106F600001A92846FFF758FD69468DF8000004A8DE
:106F7000FDF71AFF049B002B5DD1059BD9075DD55A
:106F800059E0037A63F07F030372019BC3600446F8
:106F90002846FFF792FC69468DF8000006A8FDF729
:106FA00003FF069B002B46D1079B13F0010742D13C
:106FB0002846FFF76AFC3A2850D12B7BAF73013B80
:106FC0002B7321462846FFF7ABFE2B7B8DF8000084
:106FD00001332B73694608A8FDF7E6FE089B53BBF7
:106FE000099BDA0727D42846FFF767FC69468DF826
:106FF00000000AA8FDF7D8FE0A9BE3B90B9810F031
:10700000010418D12846FFF740FC7D2802D1AC735B
:1070100020462BE02846FFF738FC2C281ED1AC7305
:107020002846FFF74AFC69468DF800000CA8FDF7DA
:10703000BBFE0C9BABB19DF8000017E001993046F8
:10704000FFF788FB04460028A2D129683046FDF7E7
:107050008CFE002895D14FF0030007E04FF00200AE
:1070600004E00D9BDB077FF57BAFE4E70FB0F0BDDD
:107070002DE9F0410B782B2B044604D02D2B03D1A6
:107080000131012601E0013100260B78A3F1300225
:10709000092A02D92E2B40F089804F4F00234FF050
:1070A0000A0E084610F8015BA5F13002D2B2092A97
:1070B00009D8BB4208D80EFB03F3D543AB4203D833
:1070C00013440146EDE71DB10022444F0A250EE0AE
:1070D00007EE903AF8EE677A002E2360C4ED017A4D
:1070E0000CBF08230A2373E00246B3FBF5F3BB424F
:1070F00002F10100F8D8521A50180D4611F8017B20
:10710000A7F1300EBEF1090F40B2F5D92E2F10D1E4
:10711000DFF8DCE00A270D4601312A78303AD2B296
:10712000092A06D87345F6D8013807FB032340B275
:10713000F1E72A7802F0DF02452A34D16A782D2A55
:1071400002D1A91C012704E02B2A14BF691CA91C29
:10715000002700224FF00A0C0D4611F801EBAEF1AA
:10716000300E5FFA8EF8B8F1090F19D80CFB02E265
:107170008518262DF0DD47B19FED197ADFED197ADC
:10718000002E18BFF0EE477A07E09FED177ADFED8B
:10719000177A002E08BFF0EE477AC4ED017A16E0A8
:1071A00017B1524200E00022297821B100230022C9
:1071B000236062600CE007EE903A1044B8EEE70AF4
:1071C000FFF766FC0EB1B1EE400A84ED010A0C2314
:1071D00023722046BDE8F08199999919FFFF7F003D
:1071E00000000080000000000000807F000080FFA1
:1071F000CBCC0C007FB590E8300010340E46204612
:107200002946FFF799FB002859D0037A03F07F0342
:10721000082B08D00A2B52D10368B3F1004F8CBF62
:107220000023012302E00368DB43DB0F002B46D081
:1072300029462046FFF780FB002843D0037A03F05D
:107240007F03043B082B3CD8DFE803F00909053B2A
:10725000053B073B2400006814E000680DE001686E
:1072600001A8FFF705FF9DF80C3001980A2B04D008
:107270000C2B0CD0082B24D104E0B0F1004F20D807
:1072800040421FE0B0F1004F28BF00201AE0DDEDC2
:10729000027A01E0D0ED007A9FED0B7AF4EEC77A26
:1072A000F1EE10FA0DDB9FED097AF4EEC77AF1EEFC
:1072B00010FA06D8FDEEE77A17EE900A02E0306881
:1072C00000E0002004B070BD000000CF0000004FBF
:1072D00000680368DB68184738B5044608460D4661
:1072E00008F0B0FD294602462046FFF7F1FF63682B
:1072F0001844606038BD10B50446006803689B6898
:10730000984763681844606010BD000070B505467A
:107310000C4619B91149FFF7DFFF70BD2221FFF7B5
:10732000EAFF013C14F8011F71B10D4B13F8026C18
:107330007EB1023313F8032C8A42F7D15C21284630
:10734000FFF7D9FF314604E022212846FFF7D3FF9B
:1073500070BD2846FFF7CFFFE4E700BF8F1C0E008B
:10736000821C0E0000000000F8B5DFED557AB4EE87
:10737000E70A0623F1EE10FA2DED028B0446B0EE7B
:10738000408A83721CDB4F4B4F4AA3F11801002542
:10739000202772ED017AF4EEC87AF1EE10FA9CBF64
:1073A000D3ED057AED19A3F104039CBF28EE278ADB
:1073B0002DB299424FEA6707EBD14FF0FF3602E05A
:1073C000202705260025B5EEC08AF1EE10FA21DD52
:1073D00018EE100A07F06CFE37A3D3E9002308F07B
:1073E00037F9B8B1394A3A49731C13D0B300D018F1
:1073F000D0ED007AF4EEC87AF1EE10FA06DD0B4417
:10740000D3ED007AED1B28EE278A2DB2013E7F10C6
:1074100076B2E9E7FCEEC87A2E49258117EE903A5C
:1074200017EE902AC4ED007A0A26092A07D9B1FB83
:10743000F6F1B2FBF6F2A07A0138A072F5E707EE9A
:10744000903AB8EE670A07EE901A38EE408AB8EE26
:10745000E70A28EE008AFCEEC87AB8EE670A17EE53
:10746000900A38EE408A38EE088ABCEEC88A18EED8
:10747000102A0244914201D962600AE000220133DD
:10748000626023602DB1092B81BF01350123258165
:1074900023600A216368B3FBF1F201FB12333BB9AD
:1074A00094F90A30002B03DD013B6260A372F1E71F
:1074B000BDEC028B2046F8BDF168E388B5F8E43EE8
:1074C0008096184B84D60320B4D603206CD60320B4
:1074D0009CD6032040420F0010B5521A0446FFF715
:1074E000F7FE63681844606010BD30B587B00B4686
:1074F0000DF116010A460A25B3FBF5F405FB14331A
:10750000303301F8013D2346002CF5D1FFF7E4FFAD
:1075100007B030BDF0B52DED028BB4EE400AF1EEB0
:1075200010FA8BB00446B0EE408A04D73C4920469E
:10753000FFF7D2FE6FE09FED3B7AF0EEC07AF4EEFB
:10754000477AF1EE10FAF1DCB5EEC00AF1EE10FA6E
:1075500004D52D21FFF7CFFEB1EE488AB0EE480AE0
:1075600001A8FFF701FF01992046FFF7BEFF9DF933
:107570000E10C9B108AD029B08462A460A270138F9
:1075800040B2461C08D0B3FBF7F607FB1633303386
:1075900005F8013D3346F2E7C9B2511A2E2301F82E
:1075A000013D2046FFF798FFBDF90C30002B17DA9C
:1075B0001D492046FFF790FEBDF90C300DF1260164
:1075C0005B420A460A2593FBF5F005FB1033303386
:1075D00001F8013D03460028F5D12046FFF77CFF66
:1075E000BDF90C30002B16DD65212046FFF783FE28
:1075F0000DF12601BDF90C300A460A2593FBF5F082
:1076000005FB1033303301F8013D03B2002BF5D1F7
:107610002046FFF761FF0BB0BDEC028BF0BD00BF51
:107620008F1C0E00FFFF7F7F941C0E0038B5037A7D
:1076300003F07F03062B05460C4667D008D8022BC3
:107640006AD3032B54D901682046FFF75FFE38BD8B
:107650000C2B15D00AD8082B53D00A2B5CD1056807
:107660002D212046FFF747FE29464BE0202B1ED058
:10767000402B51D15B212046FFF73DFE2D6812E0E3
:1076800090ED000A0846FFF745FF38BD2846214621
:10769000FFF7CCFF2846FDF760FB054628B12C21FB
:1076A0002046FFF728FE002DF0D15D211CE07B2154
:1076B0002046FFF720FE2D68ADB1E9682046FFF7B0
:1076C00025FE3A212046FFF716FE28462146FFF701
:1076D000ADFF2846FDF741FB054620B12C21204691
:1076E000FFF709FEE8E77D212046FFF704FE38BDDD
:1076F00090E806002046FFF7EBFD636818446060E1
:1077000038BD01682046FFF7F0FE38BD03680BB1B5
:10771000044902E0044900E004492046FFF7DCFD8B
:1077200038BD00BF971C0E009C1C0E008F1C0E0065
:1077300030B5ADF5157D0146054604AC444803F06F
:1077400015FE204617232A46414903F0A1FD204695
:1077500002F0BCFE68B906F091FA3E4905F073FAF2
:107760000DA83C4A3C49FDF7D9F90EA8FEF7A4FB49
:107770006AE00DA8FFF704F80DAA384911A8FFF731
:1077800060F80DAA3649FFF725F80DAA354911A86A
:10779000FFF757F80DAA3449FFF71CF80DAA334933
:1077A00011A8FFF74EF80DAA3149FFF713F80DAAFB
:1077B000304911A8FFF745F82F4B1968FFF72DF84E
:1077C0000DAA2E4911A8FFF73CF82D4B1968FFF7B9
:1077D00024F80DAA2B4911A8FFF733F80DAA2A495E
:1077E000FEF7F8FF0DAA294911A8FFF72AF80DAAFC
:1077F0002749FEF7EFFF0DAA264911A8FFF721F848
:107800000DAA2549FEF7E6FF0DAA244911A8FFF7A6
:1078100018F80DAA2249FEF7DDFF0023694611A8DA
:1078200001930094FFF702FF019B53B91D4968467D
:1078300004F09DFD68460221FDF748FB684604F010
:107840004FFD204602F036FE0DF5157D30BD00BF20
:10785000D0E30320A21C0E00BF1C0E00C51C0E00AE
:1078600074DF0320C91C0E00A0DE0320D51C0E000F
:1078700064DF0320DE1C0E0090DE0320EB1C0E00F4
:10788000B4D60320F71C0E0018DF0320041D0E00E1
:107890003CDF0320111D0E0050DF03201E1D0E00D3
:1078A000C0DE0320261D0E0038B5044608460D46EE
:1078B00008F0C8FA294602462046FDF7A0FA636898
:1078C0001844606038BD10B50446006804F01DFE21
:1078D00063680133636010BD70B505460C4619B985
:1078E0001149FFF7E1FF70BD2221FFF7ECFF013CDA
:1078F00014F8011F71B10D4B13F8026C7EB1023305
:1079000013F8032C8A42F7D15C212846FFF7DBFFEE
:10791000314604E022212846FFF7D5FF70BD2846F6
:10792000FFF7D1FFE4E700BF8F1C0E00821C0E00A2
:1079300010B5521A0446FDF762FA63681844606095
:1079400010BD30B587B00B460DF116010A460A2569
:10795000B3FBF5F405FB1433303301F8013D234646
:10796000002CF5D1FFF7E4FF07B030BDF0B52DEDE9
:10797000028BB4EE400AF1EE10FA8BB00446B0EE82
:10798000408A04D73C492046FFF78EFF6FE09FED09
:107990003B7AF0EEC07AF4EE477AF1EE10FAF1DCC1
:1079A000B5EEC00AF1EE10FA04D52D21FFF78BFFDA
:1079B000B1EE488AB0EE480A01A8FFF7D5FC01995C
:1079C0002046FFF7BEFF9DF90E10C9B108AD029B1E
:1079D00008462A460A27013840B2461C08D0B3FBA5
:1079E000F7F607FB1633303305F8013D3346F2E76F
:1079F000C9B2511A2E2301F8013D2046FFF798FF26
:107A0000BDF90C30002B17DA1D492046FFF74CFF5B
:107A1000BDF90C300DF126015B420A460A2593FBA5
:107A2000F5F005FB1033303301F8013D0346002823
:107A3000F5D12046FFF77CFFBDF90C30002B16DD99
:107A400065212046FFF73FFF0DF12601BDF90C30FF
:107A50000A460A2593FBF5F005FB1033303301F895
:107A6000013D03B2002BF5D12046FFF761FF0BB0BB
:107A7000BDEC028BF0BD00BF8F1C0E00FFFF7F7FAF
:107A8000941C0E0038B5037A03F07F03062B0546DD
:107A90000C4667D008D8022B6AD3032B54D901684F
:107AA0002046FFF719FF38BD0C2B15D00AD8082B3C
:107AB00053D00A2B5CD105682D212046FFF703FF28
:107AC00029464BE0202B1ED0402B51D15B21204674
:107AD000FFF7F9FE2D6812E090ED000A0846FFF767
:107AE00045FF38BD28462146FFF7CCFF2846FDF765
:107AF00034F9054628B12C212046FFF7E4FE002D7D
:107B0000F0D15D211CE07B212046FFF7DCFE2D68D3
:107B1000ADB1E9682046FFF7DFFE3A212046FFF7C6
:107B2000D2FE28462146FFF7ADFF2846FDF715F99E
:107B3000054620B12C212046FFF7C5FEE8E77D2150
:107B40002046FFF7C0FE38BD90E806002046FDF74E
:107B500056F963681844606038BD01682046FFF735
:107B6000F0FE38BD03680BB1044902E0044900E0AF
:107B700004492046FFF798FE38BD00BF971C0E0051
:107B80009C1C0E008F1C0E00F0B591E850001034C4
:107B900087B00546314620461746FEF7CDFE88B32E
:107BA000037A03F07F03043B012B2BD82046314698
:107BB000FEF7C2FE044658B1037A03F07F03043B8C
:107BC000012B05D8016819B1284604F0D0FB1DE04F
:107BD00002AE1049304604F0CAFB00230096019320
:107BE00024B169462046FFF74DFF03E00A49684685
:107BF000FFF75AFE3146284604F062FB304604F097
:107C00006FFB03E03946284604F0D3FB284607B053
:107C1000F0BD00BF8E1C0E008F1C0E002DE9F04F32
:107C2000ADF51B7D0C460246012379490AA803F0F5
:107C30002FFB0AA802F04AFC13AD04F1080604F178
:107C40001C0704F1380804F16A0904F17E0A04F102
:107C5000920B002800F09B802846FEF791FD4FF024
:107C60000A020AA92846FFF7B9F801A98DF804000D
:107C700004A8FDF799F8049B002B40F0BB80059BFE
:107C8000DB0700F1B780634B634A039302A906A8A0
:107C90000295FFF779FF08220699204608F0BDF803
:107CA00006A804F01DFB5D4B5D4A039302A906A8DC
:107CB0000295FFF769FF14220699304608F0ADF8E7
:107CC00006A804F00DFB574B574A039302A906A8D8
:107CD0000295FFF759FF14220699384608F09DF8DF
:107CE00006A804F0FDFA514B5149079306A80695E2
:107CF000FFF780FA4F4B20634F49079306A806957C
:107D0000FFF778FA4D4B60634D4A039302A906A82A
:107D10000295FFF739FF32220699404608F07DF8B8
:107D200006A804F0DDFA474B474A039302A906A8C8
:107D30000295FFF729FF14220699484608F06DF8CE
:107D400006A804F0CDFA414B414A039302A906A8C4
:107D50000295FFF719FF14220699504608F05DF8C6
:107D600006A804F0BDFA3B4B3B4A039302A906A8C0
:107D70000295FFF709FF32220699584608F04DF8A0
:107D800006A804F0ADFA0AA802F094FB0CE005F096
:107D900075FF324904F057FF2846304A3049FCF756
:107DA000BDFE14A8FEF788F821461B4804F00CFB22
:107DB00031461B4804F008FB39461B4804F004FB1D
:107DC0001B4B226B1A601C4B626B1D481A604146AC
:107DD00004F0FAFA49461C4804F0F6FA51461C48E9
:107DE00004F0F2FA59461C4804F0EEFA0DF51B7D3A
:107DF000BDE8F08F05F042FF1A4904F024FF06A801
:107E0000184A1749FCF78AFE07A8FEF755F8BAE7A3
:107E1000D0E30320C51C0E0074DF0320C91C0E0034
:107E2000A0DE0320D51C0E0064DF0320DE1C0E0044
:107E300090DE0320EB1C0E00B4D60320F71C0E00CE
:107E400018DF0320041D0E003CDF0320111D0E006F
:107E500050DF03201E1D0E00C0DE03203E1D0E005D
:107E60006E1D0E00751D0E0030B58FB0844904469E
:107E700005A804F07CFA042105A8FDF727F805A859
:107E800004F02EFA7F4905A804F093FA7E4B7F4A4E
:107E90001B6812887E4805A902F06AFB054605A802
:107EA00004F01EFA0DB97B490DE07B4905A804F0EA
:107EB00080FA05A9764802F0BDFB054605A804F046
:107EC0000FFA5DB9754905A804F051FA05A8022119
:107ED000FCF7FCFF05A804F003FACEE0704905A802
:107EE00004F067FA05A96A4802F0C6FB054605A832
:107EF00004F0F6F90DB96B49E5E7214605A804F051
:107F000058FA05A9624802F0D9FB054605A804F015
:107F1000E7F9002D44D1644905A804F028FA0321AB
:107F200005A8FCF7D3FF05A804F0DAF9214605A857
:107F300004F03FFA05A9564802F0E2FB054605A801
:107F400004F0CEF9B5B9594901A804F010FA214658
:107F500001A804F0E7FA014605A804F02AFA022174
:107F600005A8FCF7B3FF05A804F0BAF901A804F0CE
:107F7000B7F982E04E4901A804F0F9F9214601A8B9
:107F800004F0D0FA014605A804F013FA032105A86D
:107F9000FCF79CFF05A804F0A3F901A804F0A0F9E0
:107FA000444901A804F0E3F9434901A804F0BAFAEE
:107FB000424904F0C3FA014605A804F0FAF905A9FC
:107FC000334802F00DFD044605A804F089F901A824
:107FD00004F086F90CB93A4975E73A493A4803F092
:107FE000C5F920B905F04AFE384904F02CFE05A871
:107FF0001723344A344903F04BF905A802F066FA16
:1080000080B1234806F003F9B8B1214806F0EAFA36
:108010000028F6D01E4806F08EF9C1B205A802F07D
:1080200097F9F2E72A4901A804F0A1F901A8022171
:10803000FCF74CFF01A804F053F905A802F03AFA46
:108040000A2004F069FF124802F0D4FA104802F046
:10805000BDFB0A2004F060FF1E4901A804F087F967
:1080600004210DEB0100FCF731FF01A804F038F901
:1080700014481949FFF7D2FD00E000200FB030BDD1
:10808000A01D0E0018DF0320B8D7032038DA032024
:1080900044DD0320A31D0E003CDF0320C01D0E00A5
:1080A00050DF0320CD1D0E004B1A0E00631A0E0088
:1080B000761A0E00DA1D0E0074DF0320EE1D0E008E
:1080C000FA1D0E000C1E0E00D0E30320171E0E003A
:1080D000351E0E00511E0E00B8D603202DE9F04FBC
:1080E000A74FC9B03E46A748FCF72EFD03F0FAFCA7
:1080F000A5493C6806A804F03AF9FCF727FE04A855
:10810000A249FCF785FD04A803F0BAFF80B1A0499D
:108110003EA804F02CF904213EA8FCF7D7FE3EA8A7
:1081200004F0DEF84FF47A7004F0F6FE03F055FF29
:1081300004A803F0ACFF002800F03A8100250722D4
:1081400011461046346800952B4604F019FF8D48FF
:108150002B462A462946406803F05CFC8D493EA820
:1081600004F005F93EA80421FCF7B0FE3EA804F097
:10817000B7F88448FCF7F4FC0546002849D1013CD7
:108180004FF47A7004F0C8FE8C2CF2DC012004F06D
:1081900017FF0121072006F0B9FB642004F0BCFEA4
:1081A0007D49B3E035684FF496735D4307220023A1
:1081B00010460093114604F0E3FEFCF7C7FD64206F
:1081C00004F0AAFEFCF764FDB4F5FA6F05F1FF3583
:1081D00023DD42F20F739C4240F3C680012004F07D
:1081E000EFFE0121072006F091FB03F07BFC3468D1
:1081F00003F088FC054600286DD04FF0FF3167483A
:1082000005F0C5F90722002300931146104604F03B
:10821000B7FE35684FF496735D43002D40F3A4809C
:10822000062006F09DFB002853D10446062006F0E8
:1082300097FB20B96420643404F06EFEF6E75149E0
:108240003EA805F065FD56492BA804F090F80A22D7
:10825000409922A804F0DBF822A92BA804F062F9C7
:10826000504904F06BF9014634A804F0A2F8042147
:1082700034A8FCF72BFE34A804F032F822A804F04E
:108280002FF82BA804F02CF8012004F099FE01210E
:10829000072006F03BFB642004F03EFE00256FF053
:1082A0000909409B93FBF9F39D423FF67BAF002108
:1082B000072006F03CFB4FF4FA7004F02DFE01217C
:1082C000072006F034FB4FF4FA7004F025FE013568
:1082D000E7E700246AE70146072006F028FBFA20BA
:1082E00004F01AFE0121072006F021FBFA2004F019
:1082F00013FE8C2C34DC012004F062FE01210720E7
:1083000006F004FB642004F007FE27493EA804F0B1
:108310002EF804213EA8FCF7D9FD3EA803F0E0FFAB
:108320000121072006F003FB41F2883004F0F4FD40
:108330002946072006F0FBFA4FF47A7004F0ECFDB2
:108340001A4B1B680093022240F2DC5306213EA820
:10835000FCF748FC4FF47A7004F0DEFD00F000BD3D
:10836000013CFCF795FC43E7012004F029FE0A20BC
:1083700004F0D2FD4FF41670FDF764FDEAE700BF8C
:10838000B8D70320C0E403208E1C0E003CE4032079
:10839000571E0E005A1E0E00671E0E00F0E6032048
:1083A000791E0E00881E0E008B1E0E00A4E2032014
:1083B0009E493EA803F0DBFF04213EA8FCF786FDA2
:1083C0003EA803F08DFF03F0DBF89948FCF7C8FBEB
:1083D000B0B94FF47A70013C04F09EFDFCF7B6FC96
:1083E000002CF2DC934B944901223EA81A7003F052
:1083F000BEFF3EA80321FCF769FD3EA803F070FF15
:10840000346803F0BDF8814603F07CFBC0B94FF43B
:108410007A70013C04F080FDFCF798FCAA2CF3DC98
:10842000864B01221A7003F065FB85493EA803F0D4
:108430009EFF3EA80321FCF749FD3EA803F050FF34
:10844000346803F09DF87F49054634A803F08FFF98
:10845000C9EB05050A224FF47A712BA8B5FBF1F19F
:1084600003F0FBFF2BA934A804F05CF801463EA8FA
:1084700003F09FFF04213EA8FCF728FD3EA803F06F
:108480002FFF2BA803F02CFF34A803F029FF6E4820
:10849000DFF8A09104F0F4FE06210AA803F0F1FF32
:1084A000694804F0D7FE06210EA803F0EAFF6049F0
:1084B00034A805F02DFC65491EA803F058FF0AA951
:1084C0001EA804F02FF8624904F038F80EA904F051
:1084D00029F8604904F032F80A220546369922A8A4
:1084E00003F095FF22A9284604F01CF85A4904F02D
:1084F00025F8054634A804F0CDFD06212BA803F08D
:10850000C0FF2BA9284604F00DF8544904F016F8D2
:1085100001463EA803F04DFF04213EA8FCF7D6FC1F
:108520003EA803F0DDFE2BA803F0DAFE22A803F03C
:10853000D7FE1EA803F0D4FE34A804F0ABFDF3EE82
:10854000097AB4EEE70AF1EE10FA44BF012389F884
:10855000003099F80030002B40F09A80374B1D789E
:10856000EDB13F492BA803F002FF3E492BA803F0D1
:10857000D9FF3D4903F0E2FF01463EA803F019FF91
:108580003EA8FFF771FC3EA803F0AAFE2BA803F05B
:10859000A7FE364B36491868FFF7CAF878E0354B26
:1085A00035491B788DF800302A463C233EA805F05B
:1085B000EBF83FA8FDF780FC304B31491B788DF874
:1085C00000302A463C233EA805F0DEF83FA8FDF720
:1085D00073FC0A9A2B493EA8FCF7A0FA3FA8FDF7C6
:1085E0006BFC0A2236993EA803F011FF3E9A2649F9
:1085F0002BA8FCF793FA2CA8FDF75EFC3EA803F02D
:108600006FFE03F07FFA10B1284603F093FAFCF7EF
:1086100072FA002840F0AF83A92C00F3A6831B490F
:108620003EA803F0A4FE0221DFE300BFA61E0E0059
:10863000C0E4032094DE0320AA1E0E00E8DE03201F
:10864000B61E0E00771B0E00B0DE0320C21E0E0009
:10865000C81E0E00CD1E0E00D41E0E0049190E00BD
:10866000DA1D0E0074DF0320D9180E00ECDE0320A3
:10867000B8D603209DDE03209B190E0000DF0320E7
:1086800086190E00DC1E0E00E51E0E00EA1E0E000E
:10869000B74C3EA802F099FBBDF8FC303E98A38091
:1086A000206005F0EBFA21780A22054601F5FA610F
:1086B0003EA803F0ACFE3E99284604F0B1FA3EA86D
:1086C00003F00EFE05F0DAFA2F2104F0ADFA05F002
:1086D000D5FA0A22054661783EA803F086FE3E9947
:1086E000284604F09DFA3EA803F0FAFD05F0C6FA0C
:1086F0002F2104F099FA05F0C1FA0A220546A17863
:108700003EA803F072FE3E99284604F089FA3EA87E
:1087100003F0E6FD05F0B2FA202104F085FA05F039
:10872000ADFA0A220546E1783EA803F05EFE3E99C6
:10873000284604F075FA3EA803F0D2FD05F09EFA33
:108740003A2104F071FA05F099FA0A2205462179D6
:108750003EA803F04AFE3E99284604F061FA3EA87E
:1087600003F0BEFD05F08AFA3A2104F05DFA05F047
:1087700085FA0A22054661793EA803F036FE3E9945
:10878000284604F04DFA3EA803F0AAFD05F076FA5B
:1087900004F04DFAA378012B254603D1E3780F2B83
:1087A00000F03A836179E378A27801912179009110
:1087B0003EA8704903F0F6F93EA906A803F004FEAE
:1087C00006A92BA803F0F5FD2BA8FDF78BFB0446AB
:1087D0002BA803F085FDF4B9674922A803F0C7FD73
:1087E00006A922A803F09EFE01462BA803F0E1FD96
:1087F00001212BA8FCF76AFB2BA803F071FD22A82E
:1088000003F06EFD41F2883004F086FB4FF4967061
:10881000FDF718FB9EE2594804F01CFDDFED587A85
:10882000584B20EE270AD3ED007AF8EEE77AB4EE43
:10883000E70AF1EE10FA33D5534922A803F097FD69
:108840004E4804F007FD06211EA803F01AFE1EA9DB
:1088500022A803F067FE4D4903F070FE01462BA8E5
:1088600003F0A7FD01212BA8FCF730FB2BA803F098
:1088700037FD1EA803F034FD22A803F031FD0021CE
:10888000132006F054F84FF47A7004F045FB4FF4CF
:108890006160FDF7D7FA4FF47A7004F03DFB59E2BE
:1088A00099F80040002C40F0A18106A922A803F00D
:1088B00080FD37492BA803F07CFD234621462BAAD7
:1088C00022A8FCF709FD04462BA803F009FD22A805
:1088D00003F006FD002C63D12E492BA803F047FDC1
:1088E0002BA80221FCF7F2FA2BA803F0F9FC2A4886
:1088F000FCF736F920B94FF47A7004F00DFBF6E777
:10890000254F002606A922A803F053FD20492BA8D5
:1089100003F04FFD00232BAA012122A8FCF7DCFC69
:1089200018B9B6FA86F4640900E000242BA803F015
:10893000D7FC22A803F0D4FC002C3CD017492BA86C
:1089400003F015FD02212BA8FCF7C0FA2BA803F0B9
:10895000C7FCFCF7FBF9013600221146786803F0EA
:1089600061F80028CED04FF4FA7004F0D5FAF3E79E
:10897000B8DE0320021F0E00171F0E00B0DE03201A
:108980000000C842B4D60320361F0E005A1F0E0046
:10899000C0DE03205D1F0E00C0E40320681F0E0030
:1089A000AC492BA803F0E3FC2BA80421FCF78EFABA
:1089B0002BA803F095FC6978A74C013901EB8101E4
:1089C000214412A803F0D3FC12A91AA803F0F1FC69
:1089D0002978A24D0A2201F5FA6116A803F017FDC5
:1089E00016A91AA803F09EFD9D4903F0A7FD0146B4
:1089F00022A803F0DEFC9B491EA803F0B8FC9A49AC
:108A00001EA803F08FFD01462BA803F0D2FC012322
:108A10002BAA194622A8FCF75FFC06462BA803F0F8
:108A20005FFC1EA803F05CFC22A803F059FC16A80A
:108A300003F056FC1AA803F053FC12A803F050FCF4
:108A40002746002E6FD189492BA803F090FC022104
:108A50002BA8FCF73BFA2BA803F042FC41F288302C
:108A600004F05AFA8248FCF77BF80028FAD0002478
:108A70006978013901EB8101394412A803F077FCD0
:108A800012A91AA803F095FC29780A2201F5FA61C7
:108A900016A803F0BCFC16A91AA803F043FD704900
:108AA00003F04CFD014622A803F083FC6D491EA88B
:108AB00003F05DFC6C491EA803F034FD01462BA8B1
:108AC00003F077FC01232BAA194622A8FCF704FC2B
:108AD00018B9B4FA84F6760900E000262BA803F052
:108AE000FFFB1EA803F0FCFB22A803F0F9FB16A86D
:108AF00003F0F6FB1AA803F0F3FB12A803F0F0FB57
:108B0000EEB15C492BA803F032FC02212BA8FCF744
:108B1000DDF92BA803F0E4FB01345548FCF720F8FD
:108B20000028FAD0A4E754492BA803F020FC042124
:108B30002BA8FCF7CBF92BA803F0D2FB00246A7812
:108B40002B7800924D4A4E49126803F5FA633EA80D
:108B500003F028F805F092F84A4905462BA803F0DF
:108B600006FC3EA922A803F002FC22A92BA803F0D0
:108B7000D9FC0168284604F066F822A803F0B0FB8F
:108B80002BA803F0ADFB3EA93F4802F0C5FB00B3A4
:108B900005F074F83D4904F056F83EAA01233A491D
:108BA0002BA802F075FB2BA93948FCF779F90122B3
:108BB000374922A802F0E8FB22A801F087FC002830
:108BC00000F02D8122A801F049FC002840F0278107
:108BD00032E105F053F82F4904F035F82BA82E4A5E
:108BE0002E49FBF79BFF2CA8FDF766F92BA81B4D20
:108BF00002F0EBF82B98BDF8B03028602848AB8025
:108C000002F0B5F9274B1868012815D0022858D072
:108C1000002871D1EC78AB786A782978062C07D9CE
:108C20000A2C40F260810E2C40F26181013342E057
:108C30000290019007205DE1E878C31F0A2B33D82A
:108C400000240130AB786A78297802940194C0B28C
:108C500050E100BF791F0E007CD70320B8DE03204F
:108C60007E1F0E00DA1D0E0074DF0320831F0E002E
:108C7000C0E403208E1F0E009F1F0E00A0DE032005
:108C8000A41F0E00B31F0E00D0E30320C11F0E006F
:108C900018DD0320D41F0E00EF1F0E00EA1B0E008C
:108CA0009CDE032090DE0320122825D8AB786A785A
:108CB0002978013300200290019007200090DBB258
:108CC00019E10024AB786A78297802940194E87855
:108CD000009001F5FA612BA801F02AFF234601223A
:108CE000214600941EA801F0D1FF22A81EAA2BA99C
:108CF00001F0BFFF22A804E10024864922A803F066
:108D000036FB0A2221461EA803F081FB1EA922A8D9
:108D100003F008FC01462BA803F04BFB04212BA811
:108D2000FCF7D4F82BA803F0DBFA1EA803F0D8FA5E
:108D300022A803F0D5FA2046FDF784F80EA803F028
:108D4000CFFA0AA803F0CCFA06A803F0C9FA49B092
:108D5000BDE8F08F0EA803F0C3FA0AA803F0C0FA2A
:108D600006A803F0BDFAFFF7BEB94FF4FA7004F09D
:108D7000D3F8013C4BE4A92C7FF751AC04F060F828
:108D800000283FF44CAC04F0B3F8824604F0A8F895
:108D9000834604F09BF8804604F07AF8044604F019
:108DA00081F8054604F088F8EDB2C0B2E4B25FFA8B
:108DB00088F35FFA8BF21FFA8AF102900195009412
:108DC0003EA801F0B5FE3EA801F093FFFBF793FE2D
:108DD000514A52493EA8FBF7A1FE3FA8FDF76CF8A7
:108DE0004F493EA803F0C3FA04213EA8FCF76EF8F1
:108DF0003EA803F075FA34684A494B4803F0B0FBCB
:108E000000283FF4AEAB002C7FF7ABAB4FF47A7089
:108E100004F082F8013CEFE7FCF7FCFDC2E44348B4
:108E200001F048FB04F02AFF414903F00CFF3EA982
:108E3000404802F08DFAD1E622A801F00DFB014670
:108E400006A803F0C1FA04F019FF3B4905462BA818
:108E500003F08DFA06A92BA803F064FB01682846ED
:108E600003F0F1FE2BA803F03BFA22A801F022FB4D
:108E700006A91EA803F09DFA30492BA803F099FA21
:108E800002232BAA00211EA8FCF726FA18B9B4FA6F
:108E900084F56D0900E000252BA803F021FA1EA837
:108EA00003F01EFA35B101342548FBF759FE0028BE
:108EB000FAD0DDE73EA92BA803F059FA06A92BA8A2
:108EC00003F030FB01681B4802F050FA2BA803F0B6
:108ED00007FA2BA80122154902F056FA2BA922A85D
:108EE000FBF7DEFF68E6029001900B2002E00290A3
:108EF00001900F20009001F5FA612BA801F018FEF7
:108F00002BA801F0A3FE0446284601F09FFE241A78
:108F1000F3E600BF41210E00F81F0E006E1D0E008B
:108F200005200E00FC1E0E00A0DE032018DD03202D
:108F30000B200E00D0E3032020200E00C0DE032013
:108F4000C0E4032010B588488EB0FBF7FDFD8748CC
:108F500004F002FA854804F015F9854802F0C4FED1
:108F6000FBF7F4FE834A8449844804F0F9FA844903
:108F70008448FDF71DFC002483498448FDF718FC54
:108F800023462246824901940094824802F0CAFD99
:108F9000012322467E49019400947F4802F0C2FDDD
:108FA0004FF0FF317D4804F0F2FA4FF496717B48A0
:108FB00004F0EDFAB9EE040A03F026FF01211320B4
:108FC00005F0A4FC0121072005F0A0FC21460820A3
:108FD00005F09CFC0121072005F098FC21460620A5
:108FE00005F094FC05F048FD6D4904F0D1FF05F053
:108FF00043FD04F0D1FFFBF71BFF5C4804F02AF9A6
:10900000DFED687A684B20EE270AD3ED007AF8EEA0
:10901000E77AB4EEE70AF1EE10FA2ED5634906A816
:1090200003F0A5F9514804F015F9062102A803F050
:1090300028FA02A906A803F075FA5D4903F07EFA42
:1090400001460AA803F0B5F901210AA8FBF73EFF83
:109050000AA803F045F902A803F042F906A803F0B4
:109060003FF92146132005F062FC4FF47A7003F0BB
:1090700053FF4FF46160FCF7E5FE4E4906A803F08C
:1090800076F9002211460AA80A9202F0A1FA0A22F1
:109090000A9902A803F0BBF902A906A803F042FA54
:1090A00001460AA803F085F904210AA8FBF70EFF80
:1090B0000AA803F015F902A803F012F906A803F0B4
:1090C0000FF901F0F5FD04F0D9FD4FF4E13104F0A2
:1090D000C9FD394801F04BFF384906A803F047F9AC
:1090E000374902A803F043F902A906A803F01AFAC7
:1090F00001460AA803F05DF904210AA8FBF7E6FE81
:109100000AA803F0EDF802A803F0EAF806A803F0B5
:10911000E7F8294801F0CEFDC8B92A490AA803F0AA
:1091200026F902210AA8FBF7D1FE0AA803F0D8F815
:10913000254A26490AA801F00FFD0AA801F0D9FD29
:1091400041F2883003F0E8FE02F047FF05E01A48DC
:1091500001F009FF184801F00AFF1D4B1D4918686E
:10916000FEF75CFD0EB010BDC0E40320B0DE0320AE
:1091700028DF032036200E00E55E0D0035D50D00FA
:10918000A0DE03203F200E0064DF03204C200E00F1
:10919000C9500D009B190E0086190E00F0E6032041
:1091A000A08601000000C842B4D60320361F0E007E
:1091B0005A1F0E0055200E009CDE032062200E0078
:1091C00068200E006E200E0082200E008B200E0004
:1091D000ECDE0320B8D6032010B52421044605F0A8
:1091E000A5FC204610BD00005E4B70B500241C603D
:1091F0005D4B5E4D1C705E4B01261E7002F030F917
:109200004FF6FF736B812C60AC80AC712C813046C3
:1092100002F0B2FB574A5849284605F079FC21462E
:10922000304602F0B9FB21465448554D03F0D2FFB9
:10923000504A5449514805F06BFC4FF40073524AB0
:1092400052495348FBF72CFD4A4A5249504805F011
:109250005FFC2146504801F01DFC5049504803F086
:1092600086F8444A4F494E4805F052FC4E494F4853
:1092700003F07DF83F4A4B494C4805F049FC4C4906
:109280004C4803F074F83B4A46494A4805F040FC14
:1092900049494A4803F06BF8364A4249474805F0C5
:1092A00037FC4749474803F062F8324A3D49454890
:1092B00005F02EFC28194449103403F058F8B4F591
:1092C000487FF7D12B4A4149414C002005F020FC52
:1092D0004049414803F04BF8264A32493E4805F0E0
:1092E00017FC3E493E4803F042F8224A2D493C48CB
:1092F00005F00EFC3B493C4803F039F81D4A29496A
:10930000394805F005FC052211463848FBF75AF9A3
:109310000021374802F07DFC164A3649344805F0F2
:10932000F7FB4FF4A6720021204606F00BFD204605
:1093300005F0F4F904F11C0005F0F0F90A230D4AD8
:109340002D49C4F84831204605F0E2FB2B4801F0D6
:1093500077F8084A2A49294805F0DAFBBDE8704049
:10936000FBF761BDA4E2032000DF03202CDF032014
:109370009DDE0320F4DA0320394B0D00B0DE03201C
:1093800084DF0320F3D10D00A1500D00905F010098
:10939000D0DE0320A34B0D00B8DE032097200E0083
:1093A00018DF0320E1C20D00A7200E003CDF0320E0
:1093B000AB200E0050DF0320B4200E00C0DE0320DF
:1093C0000C1E0E00ECDE03208E1C0E00A94A0D00C0
:1093D00044DD0320C0200E00A0DE0320C6200E00C6
:1093E00074DF0320CC200E0064DF032004DF0320A1
:1093F00028DF032031BC0D0035670D0018DD032088
:10940000A74A0D00704710B52821044605F08EFBD1
:10941000204610BD10B500F10C0204460121406A3F
:10942000FAF76AFF60B1236A2BB9E3682362237AF3
:1094300063F07F032372237A43F020032372012019
:1094400010BD70B50546FFF7E5FF08B9002070BDF7
:109450006A6AEB68167C1479023B03FA06F65369D4
:1094600033445E1E3CB13019FAF78CFE0028EDD073
:10947000013CE4B2F6E76B6A1A7C4FF40073934048
:10948000EA691344EB61012070BD000010B5044689
:109490004069FAF753FE18B1207E024B03EB4010EF
:1094A00010BD00BF00DB0320002270B50138134659
:1094B0002E2410F8015F202D08D0082A02BFCC54BA
:1094C0005D1CEBB25D1C0678CE54EBB201320B2A68
:1094D000EFD10022CA5470BD2DE9FF410D464B1E4D
:1094E00001F10A02202103F8011F9342FBD1461E1D
:1094F00000224FF0070E16F8013F83B32E2B06D142
:10950000BEF10A0F30D008224FF00A0EF3E7184CD4
:10951000EC4604F1100820686168674603C7083408
:109520004445BC46F7D10DF1FF3010F8011F11B1D1
:109530008B42FAD118E0964516D3A3F121015D299B
:1095400012D8A3F16100192802F1010198BF203B54
:109550002A44C9B298BFDBB213700A46CBE7287819
:10956000203818BF012000E0002004B0BDE8F081E1
:10957000D2200E0038B5427A04460D460AB10020CA
:1095800038BD91F82030102B06D1022343720262BD
:109590004B8C5B01C3610CE0202BF0D103234372A1
:1095A000496A016200F11C022846FAF73BFE0028D6
:1095B000E5D00023012065622072E36023616361CE
:1095C000237638BD2DE9F74F437A0446894617467E
:1095D00013B94FF0FF306DE0037ADA07F9D5C369AC
:1095E00002699B1A9F4200D99FB2DFF8D4A0DFF82E
:1095F000D4B0B846B8F1000F35D0637A2269606AFA
:10960000022BC2F308064FEA522302D1406A1844E3
:1096100018E00579013D1D40EDB25EB955B912B9AA
:10962000236AE36006E004F10C02E168FAF7C8FD82
:109630000028CED0636AE0681A7C5B6902389040EB
:1096400018442844C6F50075237AA845CCBFADB2AE
:1096500045465B0602D4B5F5007F1AD1DAF8003032
:10966000984202D115E038B224E00146CDF80090CE
:109670002B463246DBF8000000F054FD0028A8D04D
:109680002369C5EB08082B44A94423611FFA88F815
:10969000B0E70021FAF752FD00289AD0074B1E448C
:1096A000711909F1FF338E42EAD016F8012B03F845
:1096B000012FF8E703B0BDE8F08F00BF00DB032007
:1096C00068D60320FCDA032038B5437A012B05461F
:1096D0000C4616D90369DA0613D120222146284602
:1096E000FFF770FF40B2202809D1237863B1E52B42
:1096F000F3D02E2BF1D0E37A1B07EED438BDC01780
:1097000038BD4FF0FF3038BD184638BD37B5437A05
:10971000012B044601D800200FE0036901220DF15E
:109720000701C3F34315FFF74DFF0128F3D1236968
:1097300003481F33236100EB451003B030BD00BF69
:1097400000DB0320F8B5437A04460E460BB900202F
:10975000F8BDC2698A42FAD3022B01D01EB9E66075
:1097600026610120F8BD636A20691B7C421E03F15B
:109770000901731ECA40CB409A4200D828B9226A18
:10978000E2601D4604F10C0709E09B1AF9E73A462E
:10979000E168606AFAF714FD013D0028D7D0002D7A
:1097A000F5D1DDE770B5437A04460E4643B390F930
:1097B0000830002B1ADA0121FFF768FE0546F8B1E0
:1097C000637A012B9CBFE369C361238C4383638C61
:1097D00083820C4B1B682BB100F11601183098479F
:1097E0002B8B6B82237A03F07F0323721EB9237ABB
:1097F00023F0100323723046BDE87040FAF77CBCBA
:10980000002070BDACE3032010B501210446FFF732
:10981000C9FF10B100236372012010BDF7B5437A70
:10982000012B04460D460BD1027A920708D5C26976
:109830008A4205D3002A40D02669FFF783FF08B982
:1098400000203BE03DB9216A606AFAF7AFFD0028CD
:10985000F6D025621EE001AAE168606AFAF7B0FC62
:109860000028EDD0606A164B90F8207001994FF6F1
:10987000F872102F08BF134699420BD2FAF796FDE3
:109880000028DDD06FF07042E168606AFAF7F2FC00
:109890000028D5D0237AE56163F07F03237201218C
:1098A0002046FFF77FFF0028CAD0B5422946204650
:1098B00028BF3146FFF746FF00E0184603B0F0BD71
:1098C000F8FFFF0F38B51D4B03EB41131546DA7A4D
:1098D00012F0110F044604D015F0420F01D0002001
:1098E00038BD174A217612686261998A090421629B
:1098F0005A8B11432162DA7A12F0180203D1DB6924
:10990000E361012309E0102AE9D104F11C02606A35
:10991000FAF788FC0028E2D00423637205F00F03F5
:10992000002123726B06E160216104D52046BDE869
:109930003840FFF773BF012038BD00BF00DB0320B4
:1099400068D603202DE9F043447A85B00646884660
:109950001F46002C78D101A91046FFF7BDFD002855
:1099600072D0D8F82430DFF8FC907362C8F80C404D
:10997000C8F81040D8F81050D8F81C309D4221D2B9
:109980004046FFF7C3FEC5F34315014600285BD0F0
:10999000037873B1E52B59D00B2201A806F0B8F972
:1099A0000028E7D107F03003302B4DD03A46294646
:1099B00046E034B9D9F80030357673610B78002B66
:1099C00046D1012407F01203122B3DD134B10121FD
:1099D0003046FFF75BFD044650B935E098F8093092
:1099E000022B31D04046FFF72CFD68B334761B4C78
:1099F00020220021204606F0A5F901AB03CB206010
:109A000061601A889B78A372154B22811B682BB169
:109A100004F10E0104F11000984706E0212222749F
:109A2000A373282208236274E373238A6382238347
:109A3000E389E3820120FAF75FFB28B1317E3A46E1
:109A40003046FFF73FFF05E0002003E0002CB1D0D7
:109A500001248FE705B0BDE8F08300BF00DB0320E1
:109A6000ACE3032068D603202DE9F043332389B00B
:109A700007468846FFF766FF002869D001240423C3
:109A80003C727B723846FFF7DCFC002860D0214630
:109A90003846FFF787FE00285AD021463846FFF7A0
:109AA000F5FC0346002853D01022C2726D460246D0
:109AB00000F1200E6C46106851682E4603C608322D
:109AC00072453546F7D19D8A5E8B20210023E2182E
:109AD00001330A2B5170FAD17B6A386A1A7C5B69B0
