:02000002D0002C
:1040000000400D0074300E00000006000D00050198
:084010000401E80500000000B6
:04401800D8090E00B5
:1040200009480A49884208B505D0094A824202D0A7
:10403000121A0BF08EFF0748074A0021121A0BF0E4
:1040400093FF014808BD00BF78D60320CC2B0E009B
:10405000F8DA0320F8DA0320F0E7032070B509F05E
:1040600007FB074C074BE41AA40800251E46A5428F
:1040700004D056F8253098470135F8E770BD00BFE9
:10408000B42B0E005C2B0E0004F076BE08B503F0D6
:1040900001FFBDE8084009F0ADBA07F08DBE07F09A
:1040A00093BE07F091BE000008B5034A00210C2022
:1040B00007F074FDFEE700BFC5B70D000078B0FA49
:1040C00080F04009704701230370704710B5036802
:1040D0002F2B044604D9074A00210A2007F05EFD71
:1040E00023681F2B83BF03F01F03236002484FF098
:1040F000A04010BDC5B70D000003005007B502ABCE
:1041000043F8040D1846FFF7E1FF019A012393409D
:10411000C0F8083503B05DF804FB07B502AB43F8FF
:10412000040D1846FFF7D2FF019A01239340C0F80F
:104130000C3503B05DF804FB7FB5024608461379E1
:10414000956833B13DB90C4904B0BDE8704008F042
:1041500079BE0A4B00E00A4B167B0A4C0A49527B97
:104160000292012E08BF214601910095074A0021C5
:1041700008F0A5FE04B070BD5D0D0E00EA1E0E0035
:104180004C0D0E00550D0E00590D0E00730D0E0056
:104190000368C9B29B68184738B504460D4690B20B
:1041A00001210AF0C5FC134B1B6893F8500093F8EB
:1041B000513003F01F0343EA4010FFF79FFF657281
:1041C000102D12D8DFE805F0110B110D0D0F0F099E
:1041D00011110B0D090F110D0D00902306E0BA23EC
:1041E00004E0782302E0602300E04223A37220462B
:1041F00038BD00BF08DB0320054B1B6893F8500057
:1042000093F8513003F01F0343EA4010FFF776BFE5
:1042100008DB0320054B1B6893F8500093F85130DE
:1042200003F01F0343EA4010FFF777BF08DB0320CA
:1042300009B90172704701230372704770B50646D1
:1042400014460D460AF02AFDB17A490809F0F1FF3B
:104250000AF024FDE9B2FFF79BFF0AF01FFDE1B26F
:10426000FFF796FF0AF01AFD09F0EAFF20B90120D6
:1042700008F064FF012070BD002070BD10B5002261
:104280000446042955D8DFE801F05403172B3F00FA
:10429000FF21FFF7D3FF4022C7212046FFF7CEFFC3
:1042A0005E22CC212046FFF7C9FF4122CD212046C6
:1042B000FFF7C4FF54223AE0FF21FFF7BFFF40227F
:1042C000C7212046FFF7BAFF6522CC212046FFF721
:1042D000B5FF4122CD212046FFF7B0FF4F2226E057
:1042E000FF21FFF7ABFF4022C7212046FFF7A6FFC3
:1042F0005222CC212046FFF7A1FF4122CD212046AA
:10430000FFF79CFF662212E0FF21FFF797FF402294
:10431000C7212046FFF792FF4222CC212046FFF71B
:104320008DFF3F22CD212046FFF788FF7122CE214D
:1043300004E0FF21FFF782FF0022C7212046BDE8ED
:104340001040FFF77BBF10B50446072900F2A98093
:10435000DFE801F0041E334D67727D880022FF21E3
:10436000FFF76CFF00227C212046FFF767FF182231
:104370007D212046FFF762FF05227C212046FFF7C2
:104380005DFF40227D212046FFF758FFA62282E0F4
:104390000022FF21FFF752FF00227C212046FFF779
:1043A0004DFF18227D212046FFF748FF05227C2182
:1043B0002046FFF743FFA02213E00022FF21FFF772
:1043C0003DFF00227C212046FFF738FF18227D2187
:1043D0002046FFF733FF05227C212046FFF72EFF02
:1043E00040227D212046FFF729FF402253E0002292
:1043F000FF21FFF723FF00227C212046FFF71EFF4D
:1044000018227D212046FFF719FF05227C21204636
:10441000FFF714FF40227D212046FFF70FFFC02247
:1044200039E00022FF21FFF709FF00227C2120460E
:10443000FFF704FF18221FE00022FF21FFF7FEFE16
:1044400000227C212046FFF7F9FE402214E00022E2
:10445000FF21FFF7F3FE00227C212046FFF7EEFE4E
:10446000582209E00022FF21FFF7E8FE00227C210C
:104470002046FFF7E3FE00227D212046FFF7DEFE07
:1044800005227C212046FFF7D9FE80227D2120468F
:10449000FFF7D4FE802220467D21BDE81040FFF7C3
:1044A000CDBE10BDF8B5002407460D462646FF2EAA
:1044B00005F1040501D1FF2C09D035F8046C35F85D
:1044C000024C314622463846FFF7B8FEEFE701209E
:1044D000F8BD0000082916D8DFE801F00507150926
:1044E0000B0D0F11130009490EE009490CE00949B1
:1044F0000AE0094908E0094906E0094904E00949D8
:1045000002E0094900E00949FFF7CCBF980A0E0014
:104510005E140E00F8090E00800C0E00380B0E0021
:10452000FE140E00DC0B0E00BA130E009A150E00DE
:1045300038B5437A052B04462CD10122FF21FFF721
:104540007DFE802212212046FFF778FE642008F0CD
:10455000F5FD257A012D17D10F492046FFF7A2FF5F
:104560000E492046FFF79EFF0D492046FFF79AFFB0
:104570002A46FF212046FFF761FE15210022204632
:10458000FFF75CFE074900E007492046BDE83840D8
:10459000FFF788BF38BD00BFB60D0E00240D0E001A
:1045A000920D0E009A150E00B2100E0070B5044662
:1045B00015460E460AF072FBA17A490809F039FE49
:1045C0000AF06CFB3146FFF7E3FD0AF067FB09F0E8
:1045D00037FE0AF063FBA17A0122D14009F022FEE6
:1045E0000AF05CFB03681B69984728B10AF056FB88
:1045F00003685B6998472870012008F09FFD01203F
:1046000070BD000010B5084C2368DB070AD42046B3
:10461000FFF754FD30B10121044807F0FBFC2046B0
:10462000FFF751FD014810BDFCDA032000DB032039
:1046300010B50446FFF7E6FF2146BDE8104007F03D
:10464000A1BD3C20FFF7F4BF7FB51B4B00931B4B74
:104650000293002401231A4D8DF80C300E468DF87C
:1046600004408DF80D40FFF7CDFF694607F01AFDB5
:104670002B6893F8500093F8513003F01F0343EA7E
:104680004010FFF74AFDF0B2FFF7D2FF2046FFF7D8
:10469000CFFF2B68044693F8500093F8513003F095
:1046A0001F0343EA4010FFF729FDFFF7ABFF07F0B8
:1046B000E0FC204604B070BDF4090E0000127A0040
:1046C00008DB03203D21FFF7BFBF01F07F01FFF7AB
:1046D000BBBF10B51446FFF7F8FF204010BD70B502
:1046E00042210546FFF7B0FF432104462846FFF765
:1046F000ABFF442106462846FFF7A6FF44EA0624FE
:1047000000F07F0044EA004070BD0000F0B585B0C5
:104710001B4B0093164600231A4A1B4D029201249C
:104720000F468DF804308DF80D308DF80C40FFF7F2
:1047300069FF694607F0B6FC2B6893F8500093F8C0
:10474000513003F01F0343EA4010FFF7E6FCF8B2D4
:10475000FFF76EFFF0B2FFF76BFF2B6893F8500086
:1047600093F8513003F01F0343EA4010FFF7C6FCF3
:10477000FFF748FF07F07DFC204605B0F0BD00BF05
:10478000F4090E0000127A0008DB032041F08001DA
:10479000FFF7BCBF02228421FFF7B8BF01228421AA
:1047A000FFF7B4BFFFF7FABF08B506F083FF014B70
:1047B000186008BD08DB0320704703681847012A0A
:1047C00002D0022A02D004E0016002E00B6800B1CE
:1047D000036000207047704738B5064D002404F58B
:1047E00044702844103C07F09DFE14F5487FF6D134
:1047F00038BD00BF7CDD032010B50123037483683E
:1048000004460BB1C06806E0006828B183680BB9A4
:104810000AF0B1FAC3689847012363740020BDE829
:10482000104007F07BB808B5002007F0ADFA28B1BA
:1048300007F08AFA80F00100C0B208BD012008BD6F
:10484000037823F07F0319430170704713B5054BBC
:104850001B788DF800303C23044609F0A7F8204669
:1048600002B010BDF8DC032010B50446006808B1A2
:1048700007F0AAFA204610BD00231A4619464068E0
:1048800007F012BA00231A461946406807F014BA16
:1048900000221146406807F0FFB910B5836804464E
:1048A00013B1032201469847204610BD38B504468F
:1048B00070B1056835B12846FFF7EFFF1021284693
:1048C0000AF046FA20461421BDE838400AF040BA02
:1048D00038BD10B543690446BBB1586806F0E6FF21
:1048E00078B963695A7C12B9586806F0E7FF6369C2
:1048F000586806F0EBFF60690023636128B1FFF799
:10490000D5FF606908B1FFF7D1FF201DFFF7C5FF94
:10491000204610BD10B586B00446ADF8161006A9A5
:1049200001F8032D089A02920122019300920B468E
:104930000DF1160107F08EFC204606B010BD0000F8
:1049400073B51E4B1D7806460C46B5B902A8012268
:104950001A7040F8045D2A46294606F063FF019B61
:104960001E2B0AD103232068A3710823A58025816B
:10497000638110B107F028FA2560B4F904300BB94F
:1049800022689AB1216859B18A88012A03D0042A81
:1049900006D1022205E089896181A271238105E0A7
:1049A000042223814FF6FF73A271638154F8063FFE
:1049B0003360A388B380304602B070BD0CDB0320A7
:1049C00008B506F007FF014B186008BDECE60320B0
:1049D00030B587B01D4600230446049322B1214B15
:1049E0000593214B029204930023E360049B216012
:1049F0003BB1022202A9201D9847059B2361049B1D
:104A0000E3601A4914200AF0A7F930B100230374B7
:104A1000036043608360C36043746061A0B1144B62
:104A2000836063691349DC606069134B8DE8210082
:104A30000922043006F032FF30B963691B7C4BB9A0
:104A4000012006F0B7FEF8E760690023636108B152
:104A5000FFF72CFFFFF7B4FF02A8FFF71EFF204669
:104A600007B030BDBB470D00BF470D005C290E00ED
:104A700025EC0D00BA1A0E00F9470D0008B5FFF736
:104A80009FFFBDE8084007F047B9B0F90A3013B1FD
:104A900000EB031070471846704710B54B688A68E2
:104AA00010339A4201D2002010BDA2F110038B6096
:104AB000002BF8D0416819B15C1A24114C8100E038
:104AC00003600021436022F8061C02F8081C42F82B
:104AD000041C184610BD00000B780BB9036002E0FF
:104AE000024B036000234360704700BFB9470D00CD
:104AF000826810B54AB14368C468A34202D3002358
:104B0000836010BD5C1C4460D15410BD10B50446D8
:104B10000021FFF7EDFFA3683BB194E80600E368CE
:104B20004868D31A03444B60E260A06810BD70B5BA
:104B3000064600680C4681681144154607F010FDD2
:104B40002544AC4205D014F8011B306807F0FFFD86
:104B5000F7E7002070BD0121042006F053BE0000DD
:104B60001FB50E21184805F061FA044650BB09F044
:104B700097F9164908F079F90121072009F0E9FFB2
:104B800041F2883008F0DAFA2146072009F0E1FF07
:104B900043F6982008F0D2FA642008F0CFFA0C4BC4
:104BA0001B68009302224FF49673062102A8FFF7B8
:104BB000B1FE4FF47A7008F0C1FA04B0BDE81040BD
:104BC00007F02DBB04B010BDA4E10320C11A0E00F4
:104BD0009CE003204B6843608B688360CB68C360B4
:104BE00030B500F1100301F10F0200F11D0412F8BD
:104BF000015F03F8015B9C42F9D10B6A036230BD8F
:104C000070B50546A4B00C4609F04AF9296808F0C9
:104C10002CF9624906A807F0CCFC04A805F043F87B
:104C200006A912A807F0E7FC9DF811305C49013B8A
:104C300001EB83010EA807F0BCFC0EA912A807F037
:104C400093FD9DF810100A22064601F5FA611BA893
:104C500007F0FFFC1BA9304607F086FD514907F01D
:104C60008FFD01460AA807F0C6FC1BA807F05AFCF6
:104C70000EA807F057FC12A807F054FC12A804F085
:104C80004DFB0123069A48491BA805F06FFA1BA9A2
:104C900012A8FFF79FFF12A804F086FBA0B112A88C
:104CA00004F04AFB60B909F0FBF8404908F0DDF870
:104CB00012A804F06DFB06993B4805F0C5FA08E020
:104CC00012A804F065FB0EE009F0EAF8384908F094
:104CD000CCF80699344805F09BFA20B909F0E0F8C1
:104CE000344908F0C2F817230A9A2F491BA805F087
:104CF0003DFA1BA912A8FFF76DFF12A804F054FBA0
:104D000090B909F0CDF82C4904461BA807F051FCD6
:104D10000AA91BA807F028FD0168204608F0A5F89D
:104D20001BA807F0FFFB31E0611E03290DD8DFE867
:104D300001F002040608214904E0214902E021496A
:104D400000E0214912A808F07DF89DF815100391A4
:104D50009DF814109DF8102002919DF813100191F8
:104D60009DF812109DF81130009102F5FA62174972
:104D70001BA807F039F81BA912A808F063F82968E6
:104D800012A808F072F812A804F002FB0AA807F0B3
:104D9000C9FB06A807F0C6FB24B070BDF91A0E00C7
:104DA00088D70320FF1A0E00A4E10320041B0E0085
:104DB000281B0E00181B0E00341B0E004E1B0E008D
:104DC000571B0E00621B0E006F1B0E00791B0E009E
:104DD0001FB50849684607F0ECFB01216846FFF75C
:104DE0000FFF684607F09EFB07F019FA05B05DF863
:104DF00004FB00BF941B0E0070B590B005460C4636
:104E000004A8274907F0D5FB2946684607F0D1FBDF
:104E1000694604A807F0A8FC224907F0B1FC214626
:104E2000064608A807F0C5FB08A9304607F09CFC19
:104E300001460CA807F0DFFB04210CA8FFF7E0FEF9
:104E40000CA807F06FFB08A807F06CFB684607F09A
:104E500069FB04A807F066FB29460CA807F0A9FB2C
:104E600011490CA807F09EFC06460CA807F05AFB57
:104E70001EB121460D4807F0C9FB29460CA807F0D2
:104E800098FB0B490CA807F08DFC05460CA807F011
:104E900049FB1DB12146074807F0B8FB10B070BDB3
:104EA000A51B0E00F41C0E00AA1B0E006CDD0320D7
:104EB000BF1B0E005CDD032070B5474B1A68002A4B
:104EC000A4B01D4640F38580444902A807F071FB59
:104ED00012A804F023FA684604F0E5FE40490AA847
:104EE00007F067FB02A90AA807F03EFC9DF8013015
:104EF0003C49013B01EB830104460EA807F059FB36
:104F00000EA9204607F030FC9DF800100A22044646
:104F100001F5FA611BA807F09CFB1BA9204607F0CE
:104F200023FC314907F02CFC014606A807F063FB7F
:104F30001BA807F0F7FA0EA807F0F4FA0AA807F082
:104F4000F1FA0299294805F055F970B908F0A8FF5F
:104F5000274907F08AFF0299244805F059F920B93A
:104F600008F09EFF234907F080FF1723069A1F4988
:104F70001BA805F0FBF81BA912A8FFF72BFE12A82F
:104F800004F012FA50B908F08BFF1B4907F06DFFCF
:104F900008F086FF069907F068FF14E00E4C174EE4
:104FA0002B68002B0CDDD6F8201312A807F05DFF4C
:104FB0001349144807F02AFB2368013B2360EFE7FD
:104FC00012A804F0E5F906A807F0ACFA02A807F069
:104FD000A9FA24B070BD00BF44DD0320F91A0E0009
:104FE000FD1A0E0088D70320FF1A0E00A4E103204B
:104FF000D21B0E00091C0E00201C0E007CDD0320BD
:10500000EA1E0E009CE003202DE9F04FC1B002AF74
:1050100004468A4607F10C00BA4915461E4607F0B9
:10502000C8FAB94907F1C40007F0C3FAB74BB84A48
:105030001B681288B74807F1C40104F007FA8046DC
:1050400007F1C40007F06EFAB8F1000F20D1B249A1
:1050500007F1900007F0ADFAAB4907F16C0007F0DB
:10506000A8FA07F16C0107F1900007F07DFB0146FB
:1050700007F1C40007F0BFFA022107F1C400FFF7EF
:10508000BFFD07F1C40007F04DFA07F16C007CE0AA
:10509000A24907F1C40007F0AEFA07F1C4019D4828
:1050A00004F036FA804607F1C40007F03BFAB8F185
:1050B000000F01D19A4912E09A4907F1C40007F0A4
:1050C0009AFA07F1C401934804F044FA804607F1C4
:1050D000C40007F027FAB8F1000F0ED1924907F18A
:1050E000C40007F066FA07F1C4000221FFF788FD4B
:1050F00007F1C40007F016FA77E2294607F1C40069
:1051000007F079FA07F1C401824804F045FA8046B5
:1051100007F1C40007F006FAB8F1000F58D183492F
:1051200007F1C40007F045FA032107F1C400FFF7B7
:1051300067FD07F1C40007F0F5F9294607F1C4003F
:1051400007F059FA07F1C401724804F047FA8046A3
:1051500007F1C40007F0E6F9B8F1000F1CD174495B
:1051600007F1900007F025FA294607F1900007F0B3
:10517000FBFA014607F1C40007F03DFA07F1C4004D
:105180000221FFF73DFD07F1C40007F0CBF907F15D
:10519000900007F0C7F928E2664907F1900007F090
:1051A00008FA294607F1900007F0DEFA014607F1F8
:1051B000C40007F020FA032107F1C400FFF720FD27
:1051C00007F1C40007F0AEF907F1900007F0AAF963
:1051D00036BBDFF87C81226898F80030019298F89D
:1051E0000120DFF87091009203F5FA63D9F80020EE
:1051F000514907F1900006F0F7FD07F1900107F122
:105200000C0007F003FA226898F80030019298F831
:105210000120009203F5FA63D9F80020474936E0EF
:10522000012E0CD12368464A464907F1C40006F016
:10523000DBFD214607F10C0007F0CEF92BE0022E32
:105240002ED1DFF80C81226898F80030019298F88E
:105250000120DFF80091009203F5FA63D9F80020ED
:10526000354907F1900006F0BFFD07F1900107F105
:105270000C0007F0CBF9226898F80030019298F8FA
:1052800001200092D9F800202F4903F5FA6307F1B5
:10529000C40006F0A9FD07F1C401204607F0B6F9E5
:1052A00007F10C0107F16C0007F0A5F907F16C019B
:1052B000184804F0BFFA804607F16C0007F032F995
:1052C000B8F1000F48D1214907F15C0007F071F9EE
:1052D00007F10C0107F15C0007F046FA014607F1FF
:1052E0006C0007F088F9042107F16C00FFF788FCD7
:1052F00007F16C0007F016F907F15C0007F012F9EE
:1053000030E000BFEA1E0E00FCD60320B8D7032011
:1053100038DA03203CDB0320381C0E0034DD032088
:105320004D1C0E0048DD03205E1C0E006F1C0E009D
:10533000871C0E009A1C0E00AE1C0E00BA1C0E003C
:10534000C71C0E00CC1C0E00D31C0E00E51C0E006A
:10535000B0DC032098DC0320A74809F069F8A648D0
:1053600004F0B6F8BAF1000F2ED007F10C0107F1E6
:105370006C0007F040F907F16C019F4804F072F9E6
:10538000804607F16C0007F0CDF8B8F1000F0DD1A1
:105390009A4907F16C0007F00CF907F16C00022143
:1053A000FFF72EFC07F16C0007F0BCF8944907F1F9
:1053B0006C0007F0FEF807F16C000421FFF720FCF9
:1053C00007F16C0007F0AEF88E4907F15C0007F0BA
:1053D000F0F807F10C0107F15C0007F0C5F98A4904
:1053E00007F0CEF9214607F0BFF9014607F16C003E
:1053F00007F001F9042107F16C00FFF701FC07F148
:105400006C0007F08FF807F15C0007F08BF80123C0
:1054100022687E4907F16C0004F0A8FE642007F0C2
:105420008DFE07F16C0003F0BFFF00286BD036F053
:105430000203E84601D1764902E0012E27D17549E1
:1054400007F15C0007F0B5F807F15C016A4804F069
:10545000E7F8044607F15C0007F064F8BCB107F117
:105460000C0107F15C0007F0C6F807F15C01624827
:1054700004F002FA044607F15C0007F053F834B96F
:1054800007F16C0003F084FFFFF716FD39E007F128
:105490006C0003F066FF604B421E9A420646EFD84E
:1054A00006F098F9C0B0044606F046FCDFF880B17B
:1054B0000DF1080A4FF0000907F16C0003F055FFE9
:1054C00018B34E4521D34FF48072514607F16C005A
:1054D00003F03AFF81447860FFF772FA0021072059
:1054E00009F037FB00237A684348514608F0CEFFA5
:1054F0000121072009F02DFBC82007F01FFED94528
:10550000DADDC54671E0454963E007F16C0003F060
:105510003FFF06F05FF94249041B07F12C0007F03A
:1055200048F84FF47A730A22B4FBF3F407F11C0035
:10553000214607F0B4F807F11C0107F12C0007F031
:1055400013F9384907F01CF9B6FBF4F10A22814639
:1055500007F13C0007F0A3F807F13C01484607F0CB
:1055600003F9314907F00CF90A220446002107F13A
:105570004C0007F081F807F14C01204607F0F4F8E1
:10558000014607F15C0007F036F8042107F15C00E2
:10559000FFF736FB07F15C0006F0C4FF07F14C0093
:1055A00006F0C0FF07F13C0006F0BCFF07F11C004D
:1055B00006F0B8FF07F12C0006F0B4FFFFF75EFA23
:1055C0000D48C54608F034FF0B4803F081FF88BB47
:1055D000164907F15C0006F0ECFF07F15C000221C0
:1055E000FFF70EFB07F15C0084E507F10C0006F005
:1055F00099FF00209CE000BF3CDB0320F71C0E005D
:105600000D1D0E00101D0E00181D0E00A4E103203C
:1056100062210E001D1D0E00FDFF07001F1D0E0064
:105620009B1D0E00F1200E009F1D0E00451D0E005B
:10563000400D0300404907F14C0006F0BAFF29462F
:1056400007F11C0006F0D7FF3C4907F11C0007F0EA
:1056500097F807F10C0107F087F8014607F12C00D5
:1056600006F0C9FF07F12C01354803F00BFF0A22B1
:10567000014607F13C0006F0ECFF07F13C0107F1A1
:105680004C0007F071F8014607F15C0006F0B3FF2B
:10569000042107F15C00FFF7B3FA07F15C0006F0A4
:1056A00041FF07F13C0006F03DFF07F12C0006F03A
:1056B00039FF07F11C0006F035FF07F14C0006F03A
:1056C00031FF204907F14C0006F073FF0A223146F2
:1056D00007F13C0006F0E3FF07F13C0107F14C0045
:1056E00007F042F8014607F15C0006F084FF042150
:1056F00007F15C00FFF784FA07F15C0006F012FF87
:1057000007F13C0006F00EFF07F14C0006F00AFF1F
:105710000B4803F0C9FF08B90B495AE707200021DD
:1057200009F017FA06F000FB07F10C0006F0FAFE8C
:10573000FC37BD46BDE8F08F5F1D0E00FD1A0E0060
:105740003CDB0320761D0E00891D0E0038B5054692
:1057500006F040F8044606F03DF8001BA84202D2CD
:10576000FFF78CF9F7E738BD1FB500210446072085
:1057700009F0EFF9144807F0E3FE144804F078FC50
:1057800007F00CF907F0CAF906F0D6FA41F28830B2
:10579000FFF7DCFF0E48FFF775F80E4806F0DDFB5B
:1057A00041F28830FFF7D2FF0B4B1B6800930222B7
:1057B0002346062102A8FFF7ADF84FF47A70FFF7F1
:1057C000C5FF04B010BD00BFA8DC0320A4E1032086
:1057D000C0E4032020DD03209CE0032038B50468EA
:1057E00005467CB16368013B63605BB92368204672
:1057F0009B689847A368013BA3601BB923682046B8
:10580000DB689847284638BD2DE9F041B2B06B4AB5
:105810006B4929A8FFF71AF82AA8FFF7DFFF6949A3
:1058200029A806F0C6FE042129A8FFF7E9F929A84E
:1058300006F078FE644929A806F0DDFE634929A830
:1058400006F09EFF01230268614905A804F08EFC62
:1058500029A806F067FE012205A90EA804F002FDA2
:105860005C4B1F78002607F5FA6735460EA803F053
:105870009BFD0446002800F0AF800EA803F05AFDFF
:10588000014601A806F095FE08F00AFB044601A8AF
:1058900006F0AFFF0A22014629A806F0EDFE29997D
:1058A000204607F0E2FA29A806F03CFE0EA803F015
:1058B00043FD002872D001A806F09BFF87426DD0FF
:1058C00001A806F096FF7B1E984240F0558165E0E6
:1058D00017A803F031FD002837D017A9012220A80E
:1058E00004F0C0FC08F0DCFA044620A803F022FD16
:1058F0000146204607F0B9FA20A803F055FD3249C9
:10590000002840F0498129A806F075FE2F4929A8F2
:1059100006F036FF04460EA803F00CFD01462046B3
:1059200006F02EFF294906F02BFF044617A803F0C6
:1059300001FD0146204606F023FF0168244804F0DB
:1059400075FC29A806F0EEFD013517A803F020FD2F
:105950000EA929A8012204F085FC29A917A8FFF7A0
:1059600039F917A803F020FD0028B1D1164929A85C
:1059700006F041FE154929A806F002FF04460EA8CC
:1059800003F0D8FC0146204606F0FAFE01681048F4
:1059900004F04CFC29A806F0C5FD01350EA803F063
:1059A000F7FC012205A929A804F05CFC29A90EA88E
:1059B000FFF710F901A806F0B5FD57E7AF1D0E007F
:1059C000CC1D0E00D31D0E0098DC0320FD1A0E0026
:1059D000A4E10320B0DC032005A803F0D9FC8C4926
:1059E00020A806F0E6FD0A22294617A806F031FE97
:1059F00017A920A806F0B8FE864906F0C1FE0A22C3
:105A00008046314629A806F024FE29A9404606F022
:105A1000ABFE8149026801A8FEF718FF02A8FFF754
:105A2000DDFE29A806F07EFD17A806F07BFD20A864
:105A300006F078FD764917A806F0BBFD0A22294634
:105A400001A806F006FE01A917A806F08DFE71490F
:105A500006F096FE0A220546314620A806F0F9FD1A
:105A600020A9284606F080FE014629A806F0C3FDBD
:105A7000042129A8FFF7C4F829A806F053FD20A89F
:105A800006F050FD01A806F04DFD17A806F04AFDEE
:105A9000624A614929A8FEF7D9FE2AA8FFF79EFEAF
:105AA0005F4929A806F085FD042129A8FFF7A8F879
:105AB00029A806F037FD01235A4A5B4929A804F0BA
:105AC00055FB29A905A8FFF785F805A929A80122F2
:105AD00004F0C8FB29A90EA8FFF77CF80EA803F074
:105AE00063FC0546002800F0A5800EA803F022FC08
:105AF000014617A806F05DFD0A22B91E29A806F086
:105B0000A8FD29A917A806F05FFE054629A806F0FA
:105B100009FD0DB3434929A806F04BFD0EA803F07B
:105B200009FC014620A806F044FD20A929A806F09A
:105B30001BFE01683C4804F087FB054620A806F0E0
:105B4000F1FC29A806F0EEFC2DB908F0A9F93749B7
:105B500007F08BF900E001340EA803F019FC0122D4
:105B600005A929A804F07EFB29A90EA8FFF732F8A1
:105B700017A806F0D7FCB1E70EA9012217A804F078
:105B800071FB08F08DF9044617A803F0D3FB01461A
:105B9000204607F06AF9E4E629A806F02CFD24491E
:105BA00029A806F0EDFD04460EA803F0C3FB01464C
:105BB000204606F0E5FD1E4906F0E2FD044617A862
:105BC00003F0B8FB0146204606F0DAFD184906F05E
:105BD000D7FD044620A803F0ADFB0146204606F0A1
:105BE000CFFD0168104804F02FFB044629A806F0F9
:105BF00099FC04B1013620A803F0CAFB17A929A813
:105C0000012204F02FFB29A920A8FEF7E3FF73E689
:105C1000D81D0E00DC1D0E00CC1D0E00E11D0E0077
:105C2000FC1D0E00F91A0E00A4E10320211B0E003A
:105C3000FD1A0E0005A803F0ABFB2E4920A806F0C4
:105C4000B8FC0A22294617A806F003FD17A920A8C8
:105C500006F08AFD284906F093FD0A2206462146F1
:105C600029A806F0F6FC29A9304606F07DFD234957
:105C7000026801A8FEF7EAFD02A8FFF7AFFD29A818
:105C800006F050FC17A806F04DFC20A806F04AFCD0
:105C9000184917A806F08DFC0A22294601A806F02B
:105CA000D8FC01A917A806F05FFD134906F068FDAE
:105CB0000A220546214620A806F0CBFC20A928464A
:105CC00006F052FD014629A806F095FC042129A8FA
:105CD000FEF796FF29A806F025FC20A806F022FC76
:105CE00001A806F01FFC17A806F01CFC012032B02A
:105CF000BDE8F081D81D0E00DC1D0E00CC1D0E008D
:105D00002DE9F0430646A5B0594C2368DB070AD4B9
:105D10002046FEF7D3F930B10121564806F07AF952
:105D20002046FEF7D0F94FF6FF720021514806F0E9
:105D30008CF90121132008F00CFF642007F0FEF914
:105D40004D48FEF767FA552200214B48FEF71EFD2D
:105D500000214948FEF7B9FC552804466DD0474953
:105D600011A806F026FC0A2221460DA806F05FFCC9
:105D70000DA911A806F0F8FC01461AA806F03BFC94
:105D800001211AA8FEF73CFF1AA806F0CBFB0DA8CC
:105D900006F0C8FB11A806F0C5FB394A39491AA814
:105DA000FEF754FD1BA8FFF719FD43F6982007F0F6
:105DB000C5F9354B1B680093022240F2DC530621E3
:105DC0001AA8FEF7A7FD4FF47A7007F0B7F906F0AE
:105DD00026FAFEF753FE97E7422B5BD02B4911A81A
:105DE00006F0E7FB9DF80B309DF80A2028490DA826
:105DF00006F004FD0DA911A806F0B6FC01461AA88C
:105E000006F0F9FB01211AA8FEF7FAFE1AA806F01F
:105E100089FB0DA806F086FB11A806F083FB41F272
:105E2000883007F08BF9184B1B680093022240F270
:105E3000DC5306211AA8FEF76DFDFEF71FFE0122B6
:105E4000FF210D48FEF7FAF90DF10A020A210A486E
:105E5000FEF7ACFB0DF10B020B210748FEF7A6FB8A
:105E60009DF80A30262B9DF80B30B7D1B4E700BF60
:105E7000FCDA032000DB0320FCDC0320001E0E0004
:105E8000431E0E00CC1D0E009CE003204D1E0E0094
:105E9000741E0E0001219C48FEF7CAF90A2007F083
:105EA0004DF99948FEF744FB0A2007F047F907210E
:105EB0009548FEF70FFB0A2007F040F907219248AA
:105EC000FEF741FA0A2007F039F900218E48FEF763
:105ED000D5F90A2007F032F98B48FEF763FC0A2057
:105EE00007F02CF98848FEF759FC41F2883007F09A
:105EF00025F98548FEF74EFC0A2007F01FF905F04A
:105F000069FC044605F066FC082241217E48FEF744
:105F1000E0FBB0B9FEF7B2FD0A2007F00FF905F07B
:105F200059FC47F23053001B9842EDD977491AA823
:105F300006F03FFB1AA80121FEF762FE1AA806F040
:105F4000F1FA0A2007F0FAF86F48FEF7C8FB70492B
:105F5000044611A806F02DFB0A2221460DA806F0E2
:105F600078FB0DA911A806F0FFFB01461AA806F060
:105F700042FB04211AA8FEF743FE1AA806F0D2FA43
:105F80000DA806F0CFFA11A806F0CCFA614905A8D1
:105F900006F00FFB082241215B48FEF79AFB002820
:105FA00000F0AA8211A803F0B9F95A495A4D09A87C
:105FB00006F0FFFA0A2007F0C1F858490DA806F0CC
:105FC000F8FA0DA91AA806F016FB55491AA806F00A
:105FD000D7FB014609A806F0FFFA1AA806F0A2FAB4
:105FE0000DA806F09FFA29780A2201F5FA610DA89A
:105FF00006F02FFB0DA91AA806F0FDFA48491AA8C9
:1060000006F0BEFB014609A806F08EFB1AA806F0B2
:1060100089FA0DA806F086FA0A2269780DA806F01A
:1060200006FB0DA91AA806F0E6FA3D491AA806F0E3
:10603000A7FB014609A806F077FB1AA806F072FA3A
:106040000DA806F06FFA374B1B781BB1364909A82B
:1060500006F06EFB07F024FF344904461AA806F048
:10606000A8FA09A91AA806F07FFB0168204606F0E5
:10607000FCFE1AA806F056FA09992D4804F0BAF861
:10608000002838D023490DA806F093FA09A91AA8C8
:1060900006F0B1FA22491AA806F072FB314606F062
:1060A00063FB01460DA806F097FA1AA806F03AFA23
:1060B00052230D9A1E491AA804F058F81AA911A8DB
:1060C000FEF788FD0A2007F039F811A803F06CF9F3
:1060D000044678BB11A803F05BF90B48FEF762FB9E
:1060E000642007F02BF80848FEF758FB41F288308F
:1060F00007F024F8F5E109990D4804F089F8002823
:10610000C0D10446F0E100BFFCDC03207A1E0E0083
:10611000881E0E00EA1E0E00B0DC0320CCD6032041
:10612000FD1A0E008CDC03208C1E0E00911E0E004A
:10613000A4E10320BC49BD4CBD4E1AA807F0FAFEED
:10614000BC4807F099F910EE100A09F0C3F80B46A5
:106150000246B949B94805F047FE1C9AB849B94802
:1061600005F042FE2A78A9786B78B748009102F5CD
:10617000FA62B64905F038FE6979EA782B79B448B5
:106180000091B44905F030FE00232360FEF776FC51
:106190005622B14911A803F054F840F607073178A8
:1061A000A34D11A803F042F8013FF8D11722AB49E3
:1061B000AB4E11A803F045F8AA48AB490A2210F8E3
:1061C000013F53548B180232102A5F70A64BF6DD44
:1061D000DFF868C2DFF898E2A44F15220CEB020149
:1061E000A34811F8151C02F80E10D1550132192AD6
:1061F0009E49F3D19F4F1E224FF0000C17F801EF7C
:1062000003F802E003EB020E0232222A8EF801C0EC
:10621000F4DDDFF830E23F220EEB020717F83F7C97
:1062200087548F540132422AF6D1934F30224FF0D7
:10623000000C17F801EF03F802E003EB020E023244
:106240003E2A8EF801C0F4DDDFF8FCE168220EEB97
:10625000020717F8687C87548F540132702AF6D1F0
:10626000864F4E224FF0000C17F801EF03F802E0C2
:1062700003EB020E0232582A8EF801C0F4DDDFF87B
:10628000D0E197220EEB020717F8977C87548F54C2
:1062900001329D2AF6D164223260794ADFF8C0814A
:1062A000126802F1FF3EF4464FF0000932686C4F6D
:1062B0006E2A09DC1CF8017F9F549F18023287F870
:1062C0000190C8F80020F1E7C2223A603268C72A7C
:1062D00009DC1EF801CF00F802C09EF800C001F8EA
:1062E00002C00132F1E7674F80224FF0000C17F82F
:1062F00001EF03F802E003EB020E0232882A8EF867
:1063000001C0F4DDF02333605F4B554F1A68013A4A
:106310003368F52B0ADC12F801EF00F803E092F87D
:1063200000E001F803E001333B60F1E74C4B002251
:106330001A6040F60806297811A802F077FF013E9E
:10634000F9D18A224849514E11A802F07AFF40F251
:106350007D224F4911A802F074FFF522444911A88B
:1063600002F06FFF4FF490724A4911A802F069FFE2
:10637000F5223E4911A802F064FF6222464911A8A5
:1063800002F05FFF4FF40065317811A802F04EFF74
:10639000013DF9D11422414911A802F052FF07F042
:1063A0007FFD3F4906F061FD3E48FDF733FF0A20BF
:1063B00006F0C4FE3C4A3D4903A8FEF747FA04A88C
:1063C000FFF70CFA3748FEF73CF90A2006F0B6FE54
:1063D000256014253348FEF775F9013D0646F9D1CD
:1063E000334C124FDFF8CC90D92E01D1FF2D63D062
:1063F0002C48FEF767F93B685A1CFF2A80463A6032
:1064000009F8030007DD2B4911A802F01AFF002349
:106410003B60FEF733FB013C354601D04646E3E7DF
:1064200011A802F0B5FF5CE0C0E4032090DC03207B
:1064300096DC0320A8DC0320961E0E00F4DC03206B
:106440009C1E0E00E1DC032008DD0320A01E0E00D0
:1064500034DB0320AD1E0E0051160E003A160E005E
:1064600030DD0320F3DC0320B3D803203FD9032021
:10647000BDD70320E0DC032007DD032033DB03204E
:106480006CDD032057DD032098DC0320BCD70320FC
:10649000A7160E0024190E00581A0E00441A0E00FA
:1064A000BA1E0E00FCDC0320CF1E0E00CC1D0E0019
:1064B000C1270900A0E00320124B1A681AB1124943
:1064C00011A802F0BEFE1148FEF768F90F48FDF76B
:1064D00093FE11A802F05CFF0021132008F039FBA5
:1064E00001240DA806F01EF809A806F01BF805A85F
:1064F00006F018F8204602E005A806F013F825B0CB
:10650000BDE8F08390DC0320A0E00320FCDC032046
:1065100038B5064DC56104463430FFF75FF92046B3
:1065200040F8185BFFF75AF9204638BDCC280E001A
:1065300038B504680D467CB1E168A9420CD035B18C
:1065400029B1284609F04EFD10F0FF0F04D0204677
:10655000FEF79BFA0446EEE7204638BD08B500F189
:106560001C0302460360436013B100F5077100E0AD
:10657000194691600BB102F5077302F11800D36060
:106580000021FEF75DF9104608BDF8B50446C0B11C
:106590000B6800F10806ABB18B685568976801334A
:1065A000E818B8420ED8506065B11A460968284606
:1065B00009F0CFFC30460521FEF742F925600120A5
:1065C000F8BDF8BD30460021FEF73AF90020F8BDCD
:1065D00010B502460C4670B1002900F1080003DB3B
:1065E0000821FEF72DF903E00A21FEF729F964429C
:1065F0001460012010BD10BD70B51646027A12F06D
:106600007F0204460D4605D120210830FEF718F917
:1066100022606260237A03F0200303F0FF0073B16D
:1066200029462046FFF784FF48B931462046FEF749
:1066300034FA20B1037AC56003F07F03037270BDA2
:1066400013B5837B044683B901220DF1070140682D
:1066500006F084FC10B19DF8073001E04FF0FF33E5
:1066600023EAE37363730123A373607B02B010BD5D
:1066700070B5044600252046FFF7E2FF0A2803D83C
:1066800009281DD2B0B12FE0202819D02F2802D020
:106690000D2829D114E0A5732046FFF7D1FF2A2841
:1066A00002D02F2816D01CE0A57300262046FFF745
:1066B000C7FF10B94FF0010070BD2F2802D10EB1F5
:1066C000A573D8E7A0F12A035E425E41A573EDE70A
:1066D0000A28D0D0A5732046FFF7B2FF0028F7D1D3
:1066E000E8E74FF0020070BD4FF0000070BD08B544
:1066F000027A02F0200202F0FF0312B1FFF718FF46
:1067000008BD184608BD0000F0B585B0826800924B
:106710000025019593680E46516853605B1A044644
:1067200002910393FFF78CFFA57307462046FFF7FE
:1067300087FF8742A57323D010B94FF0010029E0ED
:106740005C2818D12046FFF77BFF0028F5D075287C
:1067500001D0114B05E04FF004001BE0904204D043
:1067600002331A78002AF9D104E0587810B94FF0B2
:1067700002000FE0A57301466846FEF7B9F9D5E7B8
:106780006846FEF7C3F9306010B94FF0030001E02E
:106790004FF0000005B0F0BDE01E0E00A0F15F0359
:1067A0001B2B13D9A0F14103192B0FD9A0F12B03F7
:1067B000DBB20E2B04D9A0F12E025042504170479B
:1067C00047F6E57222FA03F3DB07F4D501207047A0
:1067D000F0B585B004460E46FFF732FF27282DD0CE
:1067E00022282BD0A2680092002501955168936859
:1067F000536020465B1A02910393FFF721FF07467F
:10680000D0B1FFF7CBFFA8B139466846A573FEF7B4
:106810006FF92046FFF714FF0746FFF7BFFF002878
:10682000F2D16846FEF772F9002830600CBF0320F1
:10683000002007E0022005E0012003E03146204669
:10684000FFF762FF05B0F0BD00280FDD11490023FE
:10685000C20741BFDAB201EB8202D2ED007A20EE2C
:10686000270A401003F10103F2D170470A49404260
:10687000002368B1C20742BFDAB201EB8202D2ED57
:10688000007A4FEA600048BF20EE270A0133F0E7A4
:10689000704700BFA8D6032090D603202DE9F04111
:1068A0000B782B2B044604D02D2B03D1013101266C
:1068B00001E0013100260B78A3F13002092A02D948
:1068C0002E2B40F089804F4F00234FF00A0E0846D0
:1068D00010F8015BA5F13002D2B2092A09D8BB42F7
:1068E00008D80EFB03F3D543AB4203D8134401464B
:1068F000EDE71DB10022444F0A250EE007EE903A65
:10690000F8EE677A002E2360C4ED017A0CBF0823ED
:106910000A2373E00246B3FBF5F3BB4202F1010028
:10692000F8D8521A50180D4611F8017BA7F1300E15
:10693000BEF1090F40B2F5D92E2F10D1DFF8DCE0FF
:106940000A270D4601312A78303AD2B2092A06D8F0
:106950007345F6D8013807FB032340B2F1E72A78E4
:1069600002F0DF02452A34D16A782D2A02D1A91C0F
:10697000012704E02B2A14BF691CA91C0027002250
:106980004FF00A0C0D4611F801EBAEF1300E5FFA34
:106990008EF8B8F1090F19D80CFB02E28518262DE4
:1069A000F0DD47B19FED197ADFED197A002E18BF9F
:1069B000F0EE477A07E09FED177ADFED177A002EA9
:1069C00008BFF0EE477AC4ED017A16E017B15242E3
:1069D00000E00022297821B10023002223606260B8
:1069E0000CE007EE903A1044B8EEE70AFFF72CFFF0
:1069F0000EB1B1EE400A84ED010A0C232372204649
:106A0000BDE8F08199999919FFFF7F00000000808F
:106A1000000000000000807F000080FFCBCC0C0055
:106A20002DE9F04395B080460D46FFF709FE00249E
:106A30000746A1463846E6B2FFF7B0FE58B13F2CF4
:106A400009D004AB88F80E90E7544046FFF7F8FDF4
:106A500001340746EEE714AB3344002403F8404CFE
:106A60009DF81030742B07D1062105F10800FDF7C1
:106A7000E7FE01232B600DE0662B09D105F108002C
:106A80000621FDF7DDFE2C60701F18BF012020E0FD
:106A90006E2B01D1301FF8E704A901A8FFF7FEFE15
:106AA0009DF80C10019A0A2903D00C2907D0082957
:106AB0000DD105F10800FDF7C3FE2A6005E005F1E0
:106AC0000800029AFDF7BCFE2A60204601E04FF064
:106AD000020015B0BDE8F08370B588B00C460646DC
:106AE000FFF7C6FD01A98DF8040004A8FDF7F4FF27
:106AF000049B002B3ED1059D15F001053AD130468F
:106B0000FFF79EFD272810D103A93046FFF7FCFDB3
:106B100002A98DF8080006A8FDF7DEFF069B63BBFF
:106B2000079810F0010228D12AE007D82228EBD0DC
:106B300021463046FFF774FFC0B229E05B280BD135
:106B400004F108004021FDF77BFE256065602146C9
:106B5000304600F056F8EFE77B28E9D104F1080051
:106B60002021FDF76DFE256065602146304600F06E
:106B7000AEF8E1E79DF804000AE09DF8080007E0A0
:106B800004F108000521039DFDF75AFE256010461B
:106B900008B070BD30B503684360C368836089B0D6
:106BA00004460D4618300021FDF74AFE002304F18B
:106BB000100104A88DF81E308DF81C200494059552
:106BC0000694FFF789FF01A98DF8040002A8FDF7DC
:106BD00083FF029B8BB9039BDB070ED49DF81D300E
:106BE0005BB1237E13F0600F07D103F07F03043BFA
:106BF000012B84BF02238DF804309DF8040009B0F6
:106C000030BD70B5037B88B004460E4613B94FF013
:106C100005005AE0FFF714FD5B2810D10023A37391
:106C20002046FFF725FD01A98DF8040002A8FDF715
:106C300053FF029BBBB9039BDA0714D416E04FF055
:106C4000020042E0237B013B23732046FFF744FF11
:106C5000237B8DF804000133237301A904A8FDF7F9
:106C60003BFF049B53B19DF804002EE02046FFF744
:106C7000E7FC5D2820D10020A07326E0059BDB0700
:106C8000F1D42046FFF7F4FC01A98DF8040006A812
:106C9000FDF722FF069B002BE5D1079B13F00105B2
:106CA000E1D12046FFF7CCFC5D28E4D02046FFF779
:106CB000C7FC2C28C3D1A57321683046FDF7EDFE33
:106CC00001460028BED14FF0030008B070BDF0B5FA
:106CD000037B8FB005460E4613B94FF00500A1E0C7
:106CE000FFF7AEFC7B2840F095800023AB7328466D
:106CF000FFF7BEFC69468DF8000002A8FDF7ECFE28
:106D0000029B002B73D1039810F001046FD1284629
:106D1000FFF796FC7D2856D001A92846FFF758FDBD
:106D200069468DF8000004A8FDF7D6FE049B002BF1
:106D30005DD1059BD9075DD559E0037A63F07F03E8
:106D40000372019BC36004462846FFF791FC694625
:106D50008DF8000006A8FDF7BFFE069B002B46D16C
:106D6000079B13F0010742D12846FFF769FC3A2838
:106D700050D12B7BAF73013B2B7321462846FFF785
:106D8000ABFE2B7B8DF8000001332B73694608A8FE
:106D9000FDF7A2FE089B53BB099BDA0727D42846C0
:106DA000FFF766FC69468DF800000AA8FDF794FE1F
:106DB0000A9BE3B90B9810F0010418D12846FFF79D
:106DC0003FFC7D2802D1AC7320462BE02846FFF71C
:106DD00037FC2C281ED1AC732846FFF749FC6946C6
:106DE0008DF800000CA8FDF777FE0C9BABB19DF869
:106DF000000017E001993046FFF79AFB044600288F
:106E0000A2D129683046FDF748FE002895D14FF001
:106E1000030007E04FF0020004E00D9BDB077FF565
:106E20007BAFE4E70FB0F0BD2DE9F0410B782B2BE1
:106E3000044604D02D2B03D10131012601E001319C
:106E400000260B78A3F13002092A02D92E2B40F03C
:106E500089804F4F00234FF00A0E084610F8015B5F
:106E6000A5F13002D2B2092A09D8BB4208D80EFBDC
:106E700003F3D543AB4203D813440146EDE71DB1FC
:106E80000022444F0A250EE007EE903AF8EE677AAA
:106E9000002E2360C4ED017A0CBF08230A2373E09F
:106EA0000246B3FBF5F3BB4202F10100F8D8521AD7
:106EB00050180D4611F8017BA7F1300EBEF1090FF5
:106EC00040B2F5D92E2F10D1DFF8DCE00A270D46AD
:106ED00001312A78303AD2B2092A06D87345F6D859
:106EE000013807FB032340B2F1E72A7802F0DF0202
:106EF000452A34D16A782D2A02D1A91C012704E041
:106F00002B2A14BF691CA91C002700224FF00A0C71
:106F10000D4611F801EBAEF1300E5FFA8EF8B8F1C4
:106F2000090F19D80CFB02E28518262DF0DD47B1B8
:106F30009FED197ADFED197A002E18BFF0EE477A2F
:106F400007E09FED177ADFED177A002E08BFF0EE0D
:106F5000477AC4ED017A16E017B1524200E00022F0
:106F6000297821B100230022236062600CE007EE43
:106F7000903A1044B8EEE70AFFF766FC0EB1B1EEA6
:106F8000400A84ED010A0C2323722046BDE8F081FB
:106F900099999919FFFF7F00000000800000000010
:106FA0000000807F000080FFCBCC0C007FB590E814
:106FB000300010340E4620462946FFF798FB002883
:106FC00059D0037A03F07F03082B08D00A2B52D143
:106FD0000368B3F1004F8CBF0023012302E0036874
:106FE000DB43DB0F002B46D029462046FFF77FFB13
:106FF000002843D0037A03F07F03043B082B3CD8DE
:10700000DFE803F00909053B053B073B2400006866
:1070100014E000680DE0016801A8FFF705FF9DF886
:107020000C3001980A2B04D00C2B0CD0082B24D147
:1070300004E0B0F1004F20D840421FE0B0F1004F13
:1070400028BF00201AE0DDED027A01E0D0ED007AE1
:107050009FED0B7AF4EEC77AF1EE10FA0DDB9FED9F
:10706000097AF4EEC77AF1EE10FA06D8FDEEE77A67
:1070700017EE900A02E0306800E0002004B070BD16
:10708000000000CF0000004F00680368DB6818476D
:1070900038B5044608460D4608F0E6FF2946024684
:1070A0002046FFF7F1FF63681844606038BD10B5F3
:1070B0000446006803689B689847636818446060EA
:1070C00010BD000070B505460C4619B91149FFF70F
:1070D000DFFF70BD2221FFF7EAFF013C14F8011F1A
:1070E00071B10D4B13F8026C7EB1023313F8032C0F
:1070F0008A42F7D15C212846FFF7D9FF314604E0E8
:1071000022212846FFF7D3FF70BD2846FFF7CFFFA7
:10711000E4E700BFEB1E0E00DE1E0E0000000000C4
:10712000F8B5DFED557AB4EEE70A0623F1EE10FA72
:107130002DED028B0446B0EE408A83721CDB4F4B70
:107140004F4AA3F118010025202772ED017AF4EED1
:10715000C87AF1EE10FA9CBFD3ED057AED19A3F1D0
:1071600004039CBF28EE278A2DB299424FEA670795
:10717000EBD14FF0FF3602E0202705260025B5EEC3
:10718000C08AF1EE10FA21DD18EE100A08F0A2F81C
:1071900037A3D3E9002308F06DFBB8B1394A3A4967
:1071A000731C13D0B300D018D0ED007AF4EEC87A77
:1071B000F1EE10FA06DD0B44D3ED007AED1B28EE5C
:1071C000278A2DB2013E7F1076B2E9E7FCEEC87A3D
:1071D0002E49258117EE903A17EE902AC4ED007AD9
:1071E0000A26092A07D9B1FBF6F1B2FBF6F2A07A1A
:1071F0000138A072F5E707EE903AB8EE670A07EE9D
:10720000901A38EE408AB8EEE70A28EE008AFCEEC3
:10721000C87AB8EE670A17EE900A38EE408A38EE60
:10722000088ABCEEC88A18EE102A0244914201D99D
:1072300062600AE000220133626023602DB1092BF5
:1072400081BF01350123258123600A216368B3FBD7
:10725000F1F201FB12333BB994F90A30002B03DD44
:10726000013B6260A372F1E7BDEC028B2046F8BDE2
:10727000F168E388B5F8E43E8096184B90D6032079
:10728000C0D6032078D60320A8D6032040420F00A2
:1072900010B5521A0446FFF7F7FE636818446060A1
:1072A00010BD30B587B00B460DF116010A460A2510
:1072B000B3FBF5F405FB1433303301F8013D2346ED
:1072C000002CF5D1FFF7E4FF07B030BDF0B52DED90
:1072D000028BB4EE400AF1EE10FA8BB00446B0EE29
:1072E000408A04D73C492046FFF7D2FE6FE09FED6D
:1072F0003B7AF0EEC07AF4EE477AF1EE10FAF1DC68
:10730000B5EEC00AF1EE10FA04D52D21FFF7CFFE3D
:10731000B1EE488AB0EE480A01A8FFF701FF0199D3
:107320002046FFF7BEFF9DF90E10C9B108AD029BC4
:1073300008462A460A27013840B2461C08D0B3FB4B
:10734000F7F607FB1633303305F8013D3346F2E715
:10735000C9B2511A2E2301F8013D2046FFF798FFCC
:10736000BDF90C30002B17DA1D492046FFF790FEBF
:10737000BDF90C300DF126015B420A460A2593FB4C
:10738000F5F005FB1033303301F8013D03460028CA
:10739000F5D12046FFF77CFFBDF90C30002B16DD40
:1073A00065212046FFF783FE0DF12601BDF90C3063
:1073B0000A460A2593FBF5F005FB1033303301F83C
:1073C000013D03B2002BF5D12046FFF761FF0BB062
:1073D000BDEC028BF0BD00BFEB1E0E00FFFF7F7FF8
:1073E000F01E0E0038B5037A03F07F03062B054626
:1073F0000C4667D008D8022B6AD3032B54D90168F6
:107400002046FFF75FFE38BD0C2B15D00AD8082B9D
:1074100053D00A2B5CD105682D212046FFF747FE8B
:1074200029464BE0202B1ED0402B51D15B2120461A
:10743000FFF73DFE2D6812E090ED000A0846FFF7C9
:1074400045FF38BD28462146FFF7CCFF2846FDF70B
:107450001CFB054628B12C212046FFF728FE002DF5
:10746000F0D15D211CE07B212046FFF720FE2D6836
:10747000ADB1E9682046FFF725FE3A212046FFF727
:1074800016FE28462146FFF7ADFF2846FDF7FDFA18
:10749000054620B12C212046FFF709FEE8E77D21B3
:1074A0002046FFF704FE38BD90E806002046FFF7AF
:1074B000EBFD63681844606038BD01682046FFF743
:1074C000F0FE38BD03680BB1044902E0044900E056
:1074D00004492046FFF7DCFD38BD00BFF31E0E0057
:1074E000F81E0E00EB1E0E0030B5ADF5157D014601
:1074F000054604AC444802F0A7FE204617232A465E
:10750000414902F033FE204601F04EFF68B906F013
:10751000C7FC3E4905F0A9FC0DA83C4A3C49FDF7D3
:1075200095F90EA8FEF75AF96AE00DA8FFF716F8CC
:107530000DAA384911A8FFF75FF80DAA3649FFF7E1
:1075400024F80DAA354911A8FFF756F80DAA3449B9
:10755000FFF71BF80DAA334911A8FFF74DF80DAA44
:107560003149FFF712F80DAA304911A8FFF744F886
:107570002F4B1968FFF72CF80DAA2E4911A8FFF719
:107580003BF82D4B1968FFF723F80DAA2B4911A8DA
:10759000FFF732F80DAA2A49FEF7F7FF0DAA29498D
:1075A00011A8FFF729F80DAA2749FEF7EEFF0DAA4B
:1075B000264911A8FFF720F80DAA2549FEF7E5FF97
:1075C0000DAA244911A8FFF717F80DAA2249FEF7C2
:1075D000DCFF0023694611A801930094FFF702FF26
:1075E000019B53B91D49684604F0E3FF6846022138
:1075F000FDF706FB684604F095FF204601F0C8FE43
:107600000DF5157D30BD00BFA4E10320FE1E0E0068
:107610001B1F0E00211F0E006CDD0320251F0E0016
:1076200098DC0320311F0E005CDD03203A1F0E00A2
:1076300088DC0320471F0E00C0D60320531F0E0016
:1076400010DD0320601F0E0034DD03206D1F0E00CF
:1076500048DD03207A1F0E00B8DC0320821F0E00D5
:1076600038B5044608460D4608F0FEFC2946024699
:107670002046FDF75CFA63681844606038BD10B5B9
:107680000446006805F063F863680133636010BD69
:1076900070B505460C4619B91149FFF7E1FF70BDF9
:1076A0002221FFF7ECFF013C14F8011F71B10D4BD3
:1076B00013F8026C7EB1023313F8032C8A42F7D11F
:1076C0005C212846FFF7DBFF314604E022212846F3
:1076D000FFF7D5FF70BD2846FFF7D1FFE4E700BFF5
:1076E000EB1E0E00DE1E0E0010B5521A0446FDF70A
:1076F0001EFA63681844606010BD30B587B00B4651
:107700000DF116010A460A25B3FBF5F405FB143307
:10771000303301F8013D2346002CF5D1FFF7E4FF9B
:1077200007B030BDF0B52DED028BB4EE400AF1EE9E
:1077300010FA8BB00446B0EE408A04D73C4920468C
:10774000FFF78EFF6FE09FED3B7AF0EEC07AF4EE2C
:10775000477AF1EE10FAF1DCB5EEC00AF1EE10FA5C
:1077600004D52D21FFF78BFFB1EE488AB0EE480A11
:1077700001A8FFF7D5FC01992046FFF7BEFF9DF950
:107780000E10C9B108AD029B08462A460A270138E7
:1077900040B2461C08D0B3FBF7F607FB1633303374
:1077A00005F8013D3346F2E7C9B2511A2E2301F81C
:1077B000013D2046FFF798FFBDF90C30002B17DA8A
:1077C0001D492046FFF74CFFBDF90C300DF1260195
:1077D0005B420A460A2593FBF5F005FB1033303374
:1077E00001F8013D03460028F5D12046FFF77CFF54
:1077F000BDF90C30002B16DD65212046FFF73FFF59
:107800000DF12601BDF90C300A460A2593FBF5F06F
:1078100005FB1033303301F8013D03B2002BF5D1E5
:107820002046FFF761FF0BB0BDEC028BF0BD00BF3F
:10783000EB1E0E00FFFF7F7FF01E0E0038B5037AAF
:1078400003F07F03062B05460C4667D008D8022BB1
:107850006AD3032B54D901682046FFF719FF38BDBE
:107860000C2B15D00AD8082B53D00A2B5CD10568F5
:107870002D212046FFF703FF29464BE0202B1ED089
:10788000402B51D15B212046FFF7F9FE2D6812E015
:1078900090ED000A0846FFF745FF38BD284621460F
:1078A000FFF7CCFF2846FDF7F0F8054628B12C215C
:1078B0002046FFF7E4FE002DF0D15D211CE07B2186
:1078C0002046FFF7DCFE2D68ADB1E9682046FFF7E2
:1078D000DFFE3A212046FFF7D2FE28462146FFF779
:1078E000ADFF2846FDF7D1F8054620B12C212046F2
:1078F000FFF7C5FEE8E77D212046FFF7C0FE38BD53
:1079000090E806002046FDF712F9636818446060AD
:1079100038BD01682046FFF7F0FE38BD03680BB1A3
:10792000044902E0044900E004492046FFF798FEBC
:1079300038BD00BFF31E0E00F81E0E00EB1E0E0039
:10794000F0B591E85000103487B005463146204626
:107950001746FEF7CCFE88B3037A03F07F03043B9F
:10796000012B2BD820463146FEF7C1FE044658B104
:10797000037A03F07F03043B012B05D8016819B19A
:10798000284604F016FE1DE002AE1049304604F011
:1079900010FE00230096019324B169462046FFF7AC
:1079A0004DFF03E00A496846FFF75AFE3146284674
:1079B00004F0A8FD304604F0B5FD03E03946284642
:1079C00004F019FE284607B0F0BD00BFEA1E0E0005
:1079D000EB1E0E002DE9F04FADF51B7D0C46024667
:1079E000012379490AA802F0C1FB0AA801F0DCFCD6
:1079F00013AD04F1080604F11C0704F1380804F182
:107A00006A0904F17E0A04F1920B002800F09B80C1
:107A10002846FEF7A3FD4FF00A020AA92846FFF701
:107A2000B9F801A98DF8040004A8FDF755F8049BE6
:107A3000002B40F0BB80059BDB0700F1B780634B58
:107A4000634A039302A906A80295FFF779FF08226B
:107A50000699204608F0F3FA06A804F063FD5D4B92
:107A60005D4A039302A906A80295FFF769FF142255
:107A70000699304608F0E3FA06A804F053FD574B88
:107A8000574A039302A906A80295FFF759FF14224B
:107A90000699384608F0D3FA06A804F043FD514B86
:107AA0005149079306A80695FFF780FA4F4B2063CC
:107AB0004F49079306A80695FFF778FA4D4B606388
:107AC0004D4A039302A906A80295FFF739FF322217
:107AD0000699404608F0B3FA06A804F023FD474B88
:107AE000474A039302A906A80295FFF729FF14222B
:107AF0000699484608F0A3FA06A804F013FD414B86
:107B0000414A039302A906A80295FFF719FF142220
:107B10000699504608F093FA06A804F003FD3B4B83
:107B20003B4A039302A906A80295FFF709FF3222F8
:107B30000699584608F083FA06A804F0F3FC0AA850
:107B400001F026FC0CE006F0ABF9324905F08DF9A6
:107B50002846304A3049FCF779FE14A8FDF73EFE6E
:107B600021461B4804F052FD31461B4804F04EFDEF
:107B700039461B4804F04AFD1B4B226B1A601C4B14
:107B8000626B1D481A60414604F040FD49461C489E
:107B900004F03CFD51461C4804F038FD59461C4891
:107BA00004F034FD0DF51B7DBDE8F08F06F078F98B
:107BB0001A4905F05AF906A8184A1749FCF746FE73
:107BC00007A8FDF70BFEBAE7A4E10320211F0E0072
:107BD0006CDD0320251F0E0098DC0320311F0E00F2
:107BE0005CDD03203A1F0E0088DC0320471F0E00D7
:107BF000C0D60320531F0E0010DD0320601F0E00AF
:107C000034DD03206D1F0E0048DD03207A1F0E00B7
:107C1000B8DC03209A1F0E00CA1F0E00D11F0E00F1
:107C200030B58FB08449044605A804F0C2FC042195
:107C300005A8FCF7E5FF05A804F074FC7F4905A83A
:107C400004F0D9FC7E4B7F4A1B6812887E4805A948
:107C500001F0FCFB054605A804F064FC0DB97B4966
:107C60000DE07B4905A804F0C6FC05A9764801F0A3
:107C70004FFC054605A804F055FC5DB9754905A8FB
:107C800004F097FC05A80221FCF7BAFF05A804F050
:107C900049FCCEE0704905A804F0ADFC05A96A488E
:107CA00001F058FC054605A804F03CFC0DB96B49F1
:107CB000E5E7214605A804F09EFC05A9624801F00D
:107CC0006BFC054605A804F02DFC002D44D1644949
:107CD00005A804F06EFC032105A8FCF791FF05A898
:107CE00004F020FC214605A804F085FC05A95648AF
:107CF00001F074FC054605A804F014FCB5B9594917
:107D000001A804F056FC214601A804F02DFD01460F
:107D100005A804F070FC022105A8FCF771FF05A876
:107D200004F000FC01A804F0FDFB82E04E4901A82C
:107D300004F03FFC214601A804F016FD014605A809
:107D400004F059FC032105A8FCF75AFF05A804F02C
:107D5000E9FB01A804F0E6FB444901A804F029FC72
:107D6000434901A804F000FD424904F009FD014621
:107D700005A804F040FC05A9334801F09FFD044626
:107D800005A804F0CFFB01A804F0CCFB0CB93A49DC
:107D900075E73A493A4802F057FA20B906F080F8F8
:107DA000384905F062F805A81723344A344902F02F
:107DB000DDF905A801F0F8FA80B1234806F039FB97
:107DC000B8B1214806F020FD0028F6D01E4806F084
:107DD000C4FBC1B205A801F029FAF2E72A4901A8BB
:107DE00004F0E7FB01A80221FCF70AFF01A804F058
:107DF00099FB05A801F0CCFA0A2005F09FF912487A
:107E000001F066FB104801F04FFC0A2005F096F9DE
:107E10001E4901A804F0CDFB04210DEB0100FCF785
:107E2000EFFE01A804F07EFB14481949FFF7D2FDCC
:107E300000E000200FB030BDFC1F0E0010DD03205D
:107E4000B8D7032038DA03203CDB0320FF1F0E00E5
:107E500034DD03201C200E0048DD032029200E0005
:107E60006F1C0E00871C0E009A1C0E0036200E00A0
:107E70006CDD03204A200E0056200E0068200E0004
:107E8000A4E1032073200E0091200E00AD200E000F
:107E9000C4D603202DE9F04FBD4FC9B03D46BD49C2
:107EA0003C6806A804F085FBFCF7E8FD04A8BA4985
:107EB000FCF746FD04A804F005FA80B1B7493EA8D6
:107EC00004F077FB04213EA8FCF79AFE3EA804F0DC
:107ED00029FB4FF47A7005F031F904F0A0F904A8F9
:107EE00004F0F7F9002800F06F8100242E68009458
:107EF000234622460721204605F054F9A848234688
:107F000022462146406803F0AFFEA6493EA804F091
:107F100050FB3EA80421FCF773FE3EA804F002FBD0
:107F20009F48FCF7B5FC044628BB013E4FF47A702D
:107F300005F004F98C2EF3DC012005F053F9012142
:107F4000072006F0F5FD642005F0F8F896493EA8F4
:107F500004F02FFB04213EA8FCF752FE3EA804F0DB
:107F6000E1FA0121072006F0F4FD41F2883005F026
:107F7000E5F82146D0E02E681E235E43002E40F334
:107F8000F480062006F0FEFD00286FD1044606208E
:107F900006F0F8FD20B96420643405F0CFF8F6E768
:107FA00082493EA804F005FB0A22314634A804F0B9
:107FB00050FB34A93EA804F0D7FB7D4902682BA8EA
:107FC000FCF744FC2CA8FDF709FC34A804F0AAFA3D
:107FD0003EA804F0A7FA72493EA805F0ABFF754928
:107FE0002BA804F0E6FA0A22409922A804F031FBFB
:107FF00022A92BA804F0B8FB6F4904F0C1FB01468D
:1080000034A804F0F8FA042134A8FCF7F9FD34A8E8
:1080100004F088FA22A804F085FA2BA804F082FA6A
:10802000012005F0DFF80121072006F081FD642022
:1080300005F084F800266FF00908409B93FBF8F3E5
:108040009E4211D80021072006F083FD4FF4FA70FC
:1080500005F074F80121072006F07BFD4FF4FA705B
:1080600005F06CF80136E8E72E6800E000240023F4
:10807000184600931A46072105F094F8FCF7FEFC19
:10808000642005F05BF8FCF79BFCB4F5FA6F06F191
:10809000FF367FF773AF42F20F739C4265DD01201C
:1080A00005F0A0F80121072006F042FD03F03CFE98
:1080B0002C6803F049FE0646002848D101460720F7
:1080C00006F047FDFA2005F039F80121072006F0F7
:1080D00040FDFA2005F032F88C2C34DC012005F04C
:1080E00081F80121072006F023FD642005F026F821
:1080F00032493EA804F05DFA04213EA8FCF780FD59
:108100003EA804F00FFA0121072006F022FD41F2FB
:10811000883005F013F83146072006F01AFD4FF4B9
:108120007A7005F00BF8264B1B680093022240F290
:10813000DC5306213EA8FCF7EDFB4FF47A7004F007
:10814000FDFF00F06CBD013CFCF73AFCB1E74FF0DD
:10815000FF311C4805F02DFB072200230093114638
:10816000104605F01FF800F05ABD012005F03AF85E
:108170000121072006F0DCFC0021072006F0E9FCC5
:108180000A2004F0DBFF4FF41670FDF7EDFAD4E798
:10819000B8D70320EA1E0E0040E40320B3200E00EF
:1081A000C0E40320B6200E00C3200E00D5200E0030
:1081B000CC1D0E00F3200E0002210E0005210E0042
:1081C0009CE00320F0E60320A0493EA804F0F1F96A
:1081D00004213EA8FCF714FD3EA804F0A3F903F027
:1081E000F9FA9B48FCF754FBB0B94FF47A70013CA4
:1081F00004F0A4FFFCF742FC002CF2DC954B9649FE
:1082000001223EA81A7004F0D4F93EA80321FCF71D
:10821000F7FC3EA804F086F92C68DFF8388203F0FA
:10822000D9FA814603F090FD8A4ED8B998F800300B
:10823000C3B94FF47A70013C04F080FFFCF71EFCD8
:10824000AA2CEFDC854B01221A7003F075FD8449DE
:108250003EA804F0AEF93EA80321FCF7D1FC3EA8ED
:1082600004F060F9D5F8008003F0B4FA7D490446C3
:1082700034A804F09EF9C9EB04040A224FF47A7181
:108280002BA8B4FBF1F104F00AFA2BA934A804F0EE
:108290006BFA01463EA804F0AEF904213EA8FCF7B3
:1082A000AFFC3EA804F03EF92BA804F03BF934A83B
:1082B00004F038F96C4805F0F5F806210AA804F036
:1082C00002FA694805F0D8F806210EA804F0FBF977
:1082D0005F4934A805F02EFE64491EA804F069F930
:1082E0000AA91EA804F040FA614904F049FA0EA94F
:1082F00004F03AFA5F4904F043FA0A220446369938
:1083000022A804F0A6F922A9204604F02DFA5A4921
:1083100004F036FA044634A804F0CEFF06212BA858
:1083200004F0D1F92BA9204604F01EFA534904F0B9
:1083300027FA01463EA804F05EF904213EA8FCF7A6
:108340005FFC3EA804F0EEF82BA804F0EBF822A89E
:1083500004F0E8F81EA804F0E5F834A804F0ACFF37
:10836000F3EE097AB4EEE70AF1EE10FA44BF012306
:1083700033703378002B40F09980384B1C78ECB187
:108380003F492BA804F015F93E492BA804F0ECF95D
:108390003D4904F0F5F901463EA804F02CF93EA849
:1083A000FFF73EFC3EA804F0BDF82BA804F0BAF895
:1083B000364B37491868FFF797F877E0354B364961
:1083C0001B788DF8003022463C233EA805F0EEFADB
:1083D0003FA8FDF703FA314B31491B788DF8003087
:1083E00022463C233EA805F0E1FA3FA8FDF7F6F946
:1083F0000A9A2C493EA8FCF729FA3FA8FDF7EEF9A6
:108400000A2236993EA804F024F93E9A26492BA860
:10841000FCF71CFA2CA8FDF7E1F93EA804F082F85D
:1084200003F092FC10B1204603F0A6FCFCF7FBF928
:10843000002840F0F983B8F1A90F40F330844FF4DD
:10844000FA7004F07BFE08F1FF38EFE720210E0000
:10845000C0E403208CDC032024210E00E0DC032098
:1084600030210E009B1D0E00A8DC03203C210E00D5
:1084700042210E0047210E004E210E006D1B0E0002
:1084800036200E006CDD0320FD1A0E00E4DC032014
:10849000C4D6032095DC0320BF1B0E00F8DC0320AC
:1084A000AA1B0E0056210E005F210E00B74C3EA8FD
:1084B00001F0F9FBBDF8FC303E98A380206005F088
:1084C000EFFC21780A22804601F5FA613EA804F00B
:1084D000C0F83E99404604F0B5FC3EA804F022F8EE
:1084E00005F0DEFC2F2104F0B1FC05F0D9FC0A22D6
:1084F000804661783EA804F09AF83E99404604F020
:10850000A1FC3EA804F00EF805F0CAFC2F2104F0EF
:108510009DFC05F0C5FC0A228046A1783EA804F027
:1085200086F83E99404604F08DFC3EA803F0FAFF21
:1085300005F0B6FC202104F089FC05F0B1FC0A220C
:108540008046E1783EA804F072F83E99404604F077
:1085500079FC3EA803F0E6FF05F0A2FC3A2104F006
:1085600075FC05F09DFC0A22804621793EA804F0A6
:108570005EF83E99404604F065FC3EA803F0D2FF49
:1085800005F08EFC3A2104F061FC05F089FC0A221A
:10859000804661793EA804F04AF83E99404604F0CE
:1085A00051FC3EA803F0BEFF05F07AFC04F051FC3C
:1085B000A378012BA04603D1E3780F2B00F08B8327
:1085C0006179E378A2780191217900913EA8704900
:1085D00003F00AFC3EA906A804F018F806A92BA887
:1085E00004F009F82BA8FDF78BFB04462BA803F039
:1085F00099FFF4B9674922A803F0DBFF06A922A876
:1086000004F0B2F801462BA803F0F5FF01212BA8D6
:10861000FCF7F6FA2BA803F085FF22A803F082FFEF
:1086200041F2883004F08AFD4FF49670FDF79CF813
:10863000EFE2594804F020FFDFED587A584B20EE66
:10864000270AD3ED007AF8EEE77AB4EEE70AF1EE06
:1086500010FA33D5534922A803F0ABFF4E4804F07B
:108660000BFF06211EA804F02EF81EA922A804F074
:108670007BF84D4904F084F801462BA803F0BBFFBA
:1086800001212BA8FCF7BCFA2BA803F04BFF1EA876
:1086900003F048FF22A803F045FF0021132006F055
:1086A00058FA4FF47A7004F049FD4FF46160FDF719
:1086B0005BF84FF47A7004F041FDAAE23478002CA4
:1086C00040F01E8206A922A803F095FF37492BA887
:1086D00003F091FF234621462BAA22A8FCF794FC25
:1086E00004462BA803F01EFF22A803F01BFF002C5A
:1086F00064D12F492BA803F05CFF2BA80221FCF7C3
:108700007FFA2BA803F00EFF2A48FCF7C1F820B926
:108710004FF47A7004F012FDF6E7264E002506A904
:1087200022A803F068FF21492BA803F064FF00236F
:108730002BAA012122A8FCF767FC18B9B5FA85F429
:10874000640900E000242BA803F0ECFE22A803F04B
:10875000E9FE002C3DD018492BA803F02AFF022186
:108760002BA8FCF74DFA2BA803F0DCFEFCF786F9EA
:10877000013500221146706803F07EFA0028CED041
:108780004FF4FA7004F0DAFCF3E700BFB0DC03202A
:108790006A210E007F210E00A8DC03200000C842E1
:1087A000C0D603209E210E00C2210E00B8DC03209B
:1087B000C5210E00C0E40320D0210E00AB492BA838
:1087C00003F0F7FE2BA80421FCF71AFA2BA803F0FC
:1087D000A9FE98F80110A64CA64F013904EB8101BF
:1087E00012A803F0E6FE12A91AA803F004FF98F8F5
:1087F00000100A2201F5FA6116A803F02AFF16A953
:108800001AA803F0B1FF9C4903F0BAFF014622A861
:1088100003F0F1FE99491EA803F0CBFE98491EA86B
:1088200003F0A2FF01462BA803F0E5FE01232BAACB
:10883000194622A8FCF7E8FB05462BA803F072FEB8
:108840001EA803F06FFE22A803F06CFE16A803F02A
:1088500069FE1AA803F066FE12A803F063FE002D5D
:108860006ED188492BA803F0A4FE02212BA8FCF7A7
:10887000C7F92BA803F056FE41F2883004F05EFCE5
:108880008148FCF705F80028FAD0002679780139EC
:1088900004EB810112A803F08CFE12A91AA803F0C0
:1088A000AAFE39780A2201F5FA6116A803F0D1FE72
:1088B00016A91AA803F058FF6F4903F061FF01469B
:1088C00022A803F098FE6D491EA803F072FE6C49C1
:1088D0001EA803F049FF01462BA803F08CFE0123DC
:1088E0002BAA194622A8FCF78FFB18B9B6FA86F511
:1088F0006D0900E000252BA803F014FE1EA803F06C
:1089000011FE22A803F00EFE16A803F00BFE1AA813
:1089100003F008FE12A803F005FEEDB15B492BA899
:1089200003F047FE02212BA8FCF76AF92BA803F0FD
:10893000F9FD01365448FBF7ABFF0028FAD0A5E754
:1089400053492BA803F035FE04212BA8FCF758F956
:108950002BA803F0E7FD00267A783B7800924D4A79
:108960004D49126803F5FA633EA803F03DFA05F09D
:1089700097FA4A4904462BA803F01BFE3EA922A8F9
:1089800003F017FE22A92BA803F0EEFE0168204693
:1089900004F06BFA22A803F0C5FD2BA803F0C2FD7A
:1089A0003EA93F4801F026FC002800F09C8005F01D
:1089B00077FA3C4904F059FA3EAA012338492BA81A
:1089C00001F0D4FB2BA93848FCF704F90122364901
:1089D00022A801F047FC22A800F0E6FC002800F0E5
:1089E000858122A800F0A8FC002840F07F8122A801
:1089F00000F0A0FC014606A803F008FE05F050FABE
:108A00002A4904462BA803F0D4FD06A92BA803F09D
:108A1000ABFE0168204604F028FA2BA803F082FD83
:108A200022A800F0B5FC06A91EA803F0E4FD204929
:108A30002BA803F0E0FD02232BAA00211EA8FCF7BF
:108A4000E3FA18B9B6FA86F4640900E000242BA80A
:108A500003F068FD1EA803F065FD5CB301360A480B
:108A6000FBF716FF0028FAD0DDE700BFE1210E007A
:108A700088D70320B0DC0320E6210E0036200E004C
:108A80006CDD0320EB210E00C0E40320F6210E0074
:108A900007220E0098DC03200C220E001B220E0081
:108AA000A4E1032029220E0010DB032085220E0002
:108AB000B8DC03203EA92BA803F07BFD06A92BA858
:108AC00003F052FE01689B4801F0BEFB2BA803F0A7
:108AD00029FD2BA80122984901F0C4FB2BA922A84B
:108AE000FCF778F877E705F0DBF9944904F0BDF975
:108AF0002BA8934A9349FBF7A9FE2CA8FCF76EFE1E
:108B00002BA8914D01F0CFF82B98BDF8B03028601C
:108B10008E48AB8001F099F98D4B1868012815D06B
:108B200002282DD0002846D1EC78AB786A782978D5
:108B3000062C07D90A2C40F2E6800E2C40F2E78082
:108B4000013317E0029001900720E3E0E878C31FAB
:108B50000A2B08D800240130AB786A78297802946F
:108B60000194C0B2D6E0122825D8AB786A7829786B
:108B7000013300200290019007200090DBB2CAE090
:108B80000024AB786A78297802940194E878009000
:108B900001F5FA612BA800F039FF23460122214696
:108BA00000941EA800F0E0FF22A81EAA2BA900F046
:108BB000CEFF22A8B5E00024664922A803F0F9FC04
:108BC0000A2221461EA803F044FD1EA922A803F094
:108BD000CBFD01462BA803F00EFD04212BA8FCF7CA
:108BE0000FF82BA803F09EFC1EA803F09BFC22A804
:108BF00003F098FC2046FCF7B7FD0EA803F092FCAA
:108C00000AA803F08FFC06A803F08CFC49B0BDE86D
:108C1000F08F0EA803F086FC0AA803F083FC06A8D8
:108C200003F080FCFFF73BB9B8F1A90F37DD04F082
:108C300019FA002833D004F06DFA814604F062FA84
:108C4000824604F055FA834604F034FA044604F0F0
:108C50003BFA804604F042FAC0B20290E4B25FFAF6
:108C600088F05FFA8BF35FFA8AF21FFA89F10190BC
:108C700000943EA800F0CAFE3EA800F0A8FFFBF753
:108C8000D2FD354A35493EA8FBF7E0FD3FA8FCF789
:108C9000A5FD33493EA803F08CFC042104E03149D2
:108CA0003EA803F086FC02213EA8FBF7A9FF3EA8E0
:108CB00003F038FC2C682C492C4803F073FD002885
:108CC0003FF45EAB002C7FF75BAB4FF47A7004F09F
:108CD00035FA013CEFE726493EA803F06AFC3EA8BE
:108CE000FCF792FD3EA803F01DFC69E4124800F079
:108CF0004FFB05F0D5F81F4904F0B7F83EA90D4821
:108D000001F094FAF4E6029001900B2002E0029048
:108D100001900F20009001F5FA612BA800F076FE7B
:108D20002BA800F001FF0446284600F0FDFE241A9F
:108D300042E700BFA4E1032010DB03203C220E0029
:108D400057220E00CC1D0E00B0DC032094DC032063
:108D500088DC0320C5230E0060220E00CA1F0E000F
:108D60006D220E0073220E0064210E0098DC032099
:108D7000EA1E0E009B220E0010B587488EB0FBF74E
:108D80007BFD864804F0FAFB844804F00DFB844820
:108D900003F0CCF8FBF772FE824A8349834804F063
:108DA000F1FC0024824A8349804804F0EBFC23460E
:108DB0002246814901940094804802F0D5FF0123A6
:108DC00022467D49019400947D4802F0CDFF4FF08A
:108DD000FF317C4804F0EDFC4FF49671794804F0C3
:108DE000E8FCB9EE040A04F021F90121132005F092
:108DF0009FFE0121072005F09BFE2146082005F07B
:108E000097FE0121072005F093FE2146062005F07C
:108E10008FFE05F043FF6C4905F0CCF905F03EFFED
:108E200005F0CCF9FBF79CFE5C4804F025FBDFED78
:108E3000677A674B20EE270AD3ED007AF8EEE77ADF
:108E4000B4EEE70AF1EE10FA2ED5624906A803F057
:108E5000B0FB524804F010FB062102A803F033FCDB
:108E600002A906A803F080FC5B4903F089FC0146D7
:108E70000AA803F0C0FB01210AA8FBF7C1FE0AA85B
:108E800003F050FB02A803F04DFB06A803F04AFBD9
:108E90002146132005F05DFE4FF47A7004F04EF980
:108EA0004FF46160FCF760FC00F070FE04F0F8FF26
:108EB0004FF4E13104F0E8FF484800F0C6FF4849AC
:108EC00006A803F076FB002211460AA80A9202F0D7
:108ED000A9FC0A220A9902A803F0BBFB02A906A872
:108EE00003F042FC01460AA803F085FB04210AA80E
:108EF000FBF786FE0AA803F015FB02A803F012FB9D
:108F000006A803F00FFB374906A803F052FB3649C9
:108F100002A803F04EFB02A906A803F025FC0146B7
:108F20000AA803F068FB04210AA8FBF769FE0AA857
:108F300003F0F8FA02A803F0F5FA06A803F0F2FA33
:108F4000264800F025FEC8B928490AA803F031FBDD
:108F500002210AA8FBF754FE0AA803F0E3FA244A08
:108F600024490AA800F066FD0AA800F030FE41F28C
:108F7000883004F0E3F803F052F905E0174800F0F8
:108F800060FF164800F061FF1B4B1C491868FEF794
:108F900021FD0EB010BD00BFC0E40320A8DC0320FB
:108FA00020DD0320B0220E00015D0D0059D70D0019
:108FB000B9220E0009580D00F94D0D00BF1B0E001F
:108FC000AA1B0E00F0E60320A08601000000C842A4
:108FD000C0D603209E210E00C2210E0094DC032087
:108FE000C1220E00CE220E00D4220E00DB220E0083
:108FF000EF220E00F8220E00E4DC0320C4D603208A
:1090000010B52421044605F0A3FE204610BD000043
:109010005E4B70B500241C605D4B5E4D1C705E4B5A
:1090200001261E7002F046FB4FF6FF736B812C6029
:10903000AC80AC712C81304602F0C8FD574A5849CB
:10904000284605F077FE2146304602F0CFFD214646
:109050005448554D04F0D0F9504A5449514805F050
:1090600069FE4FF40073524A52495348FBF7B0FC73
:109070004A4A5249504805F05DFE2146504800F0EA
:1090800077FC5049504803F094FA444A4F494E48FF
:1090900005F050FE4E494F4803F08BFA3F4A4B49CA
:1090A0004C4805F047FE4C494C4803F082FA3B4AD5
:1090B00046494A4805F03EFE49494A4803F079FAD4
:1090C000364A4249474805F035FE4749474803F0CC
:1090D00070FA324A3D49454805F02CFE28194449AA
:1090E000103403F066FAB4F5487FF7D12B4A4149B2
:1090F000414C002005F01EFE4049414803F059FA5A
:10910000264A32493E4805F015FE3E493E4803F0E6
:1091100050FA224A2D493C4805F00CFE3B493C4898
:1091200003F047FA1D4A2949394805F003FE052294
:1091300011463848FBF730F80021374802F08BFE23
:10914000164A3649344805F0F5FD4FF4A672002161
:10915000204606F009FF204605F0F2FB04F11C0052
:1091600005F0EEFB0A230D4A2D49C4F8483120468C
:1091700005F0E0FD2B4800F0D1F8084A2A492948BB
:1091800005F0D8FDBDE87040FBF7E5BC9CE003208E
:10919000F8DC032024DD032095DC0320F8DA03202B
:1091A00069480D00A8DC03207CDD032017D40D00E6
:1091B000D14D0D00905F0100C8DC0320D3480D00A5
:1091C000B0DC032004230E0010DD032025C50D00B4
:1091D00019230E0034DD032034230E0048DD032064
:1091E0004F230E00B8DC032068200E00E4DC0320CF
:1091F000EA1E0E00D9470D003CDB03206B230E0056
:1092000098DC032072230E006CDD032078230E000F
:109210005CDD0320FCDC032020DD032075BE0D0097
:1092200011650D0010DB0320D7470D0013B502AB0D
:10923000026803F8011DD46819460122A04702B054
:1092400010BD10B5036A04461BB9012363600020FA
:1092500010BD0020586092B2206A02F003F9236A20
:109260005B68002BF1D110BD006A08B102F0D4B9DF
:109270007047006A10B1012101F0C0BE704707B508
:1092800001220DF1070101F0C9FD01280CBF9DF875
:1092900007004FF0FF3003B05DF804FB08B5006A2B
:1092A00010B1FFF7ECFF08BD4FF0FF3008BD38B537
:1092B0000546006A50B1FFF7E2FF431C044604D0A4
:1092C000286A0169013901F069FE204638BD0000B5
:1092D000002370B543604FF47A7383600E4B0360D4
:1092E000044628200D46164602F066FD206280B135
:1092F0002B4605F1280253F8041B40F8041B934247
:10930000F9D10C22314604F1100006F0CAFE002308
:109310002377204670BD00BF88230E004FF47A717A
:10932000002281600249426001600262027470475B
:1093300088230E0010307047006A20B1407A01285F
:1093400094BF00200120704708B5006A08B101F001
:1093500065FD08BD036A0BB1186970474FF0FF3017
:109360007047006A00B1C069704708B5036A0146DA
:1093700063B1FFF7F6FF02460846FFF7EBFF47F63B
:10938000FF73101A984228BF184608BD184608BD3A
:1093900010B50446006A30B101F062FE206A02F0A6
:1093A00013FD0023236210BD006A18B1407A00301B
:1093B00018BF0120704702F07DB902F07BB92DE99A
:1093C000F74300F1380806464FF487720021404603
:1093D00006F0CAFD00242546274606F11C09D6F8EA
:1093E00048319F4217DABCB94FF47A7003F0A6FEF9
:1093F000484605F009FA20B3484605F0AEF86B1C64
:10940000DBB23544032B85F8380094BF00240124D7
:1094100000271D46ECE794B102AC002344F8043D5C
:10942000B8F8002098F80230ADF8042006F11C00CE
:10943000A37004F0FDFF204606F05AFC03E020462E
:1094400001E00137CBE703B0BDE8F08338B5C0F8E1
:10945000483100F11C04054600230968204605F048
:10946000BFF8204604F0E5FF08B9002038BD2846C3
:10947000FFF7A5FFC8386328F7D8204604F0D8FFC7
:10948000012038BD30B585B004460D4668460F4909
:1094900003F08FF82946684603F066F9016804F185
:1094A0001C0003F0E2FC684603F03CF82046FFF79E
:1094B00086FFC838632804D804F13C0006F018FC85
:1094C00001E04FF0FF3005B030BD00BFAC230E000F
:1094D00010B5044605F080F92046FFF770FFC83844
:1094E00063288CBF0020012010BD38B505460968EF
:1094F0001C30144603F0B9FC2846FFF760FF6423D4
:1095000094FBF3F490FBF3F0231A5842584138BD12
:1095100030B589B004460D4668460D4903F049F858
:109520002946684603F020F9014604A803F063F8D1
:109530004FF4967204A92046FFF7D7FF044604A80B
:1095400002F0F0FF684602F0EDFF204609B030BDA2
:10955000BC230E0030B589B004460D4668460D495F
:1095600003F027F82946684603F0FEF8014604A8F0
:1095700003F041F8C82204A92046FFF7B6FF0446CD
:1095800004A802F0CFFF684602F0CCFF204609B0E5
:1095900030BD00BFC2230E0030B589B004460D4671
:1095A00068460D4903F005F82946684603F0DCF8E3
:1095B000014604A803F01FF8C82204A92046FFF7BB
:1095C00094FF044604A802F0ADFF684602F0AAFF2B
:1095D000204609B030BD00BFC8230E0030B589B0A9
:1095E00004460D4668460D4902F0E3FF29466846E9
:1095F00003F0BAF8014604A802F0FDFFC82204A94E
:109600002046FFF772FF044604A802F08BFF68466D
:1096100002F088FF204609B030BD00BFCD230E0008
:1096200030B589B004460D4668460D4902F0C1FFC9
:109630002946684603F098F8014604A802F0DBFFCB
:10964000C82204A92046FFF750FF044604A802F0F0
:1096500069FF684602F066FF204609B030BD00BFD2
:10966000D7230E0030B589B004460D4668460D4933
:1096700002F09FFF2946684603F076F8014604A8E9
:1096800002F0B9FFC82204A92046FFF72EFF0446C6
:1096900004A802F047FF684602F044FF204609B0E4
:1096A00030BD00BFDD230E001FB5044607496846E4
:1096B00002F07FFFC82269462046FFF716FF0446E6
:1096C000684602F02FFF204604B010BDE8230E00CC
:1096D0002DE9F043044600F11C0895B04549404689
:1096E00004F1380703F0C1FB4FF4877200213846BC
:1096F00006F03AFC00263546B146D4F84831002B36
:109700002CDD5EBB4FF47A7003F018FD404605F087
:109710007BF890B1B5F5877F61D13A88BB78CDF8F9
:1097200038900EA8ADF838208DF83A3006F0E0FAFF
:10973000C838632803D9002059E0032DEDDC3846F2
:1097400006F092FC373004F1370320449842D4D01D
:1097500013F8012F292A08BF0126F7E726493846C2
:1097600006F0B2FC00252449002006F0ADFC0028DC
:10977000E1D006F0BDFA02AB43F825000135062D15
:10978000F1D19DF814009DF810309DF80C209DF843
:109790000810009008A804F009FB204605F01CF80A
:1097A000204604F045FE09AE144B0E930FCE0FADCC
:1097B0000FC533682B70069A079B03EB022292B207
:1097C00000230EA9204604F08DFF204604F031FE50
:1097D000204604F02EFE003018BF012007E040466E
:1097E00004F0BBFE0135631983F837008EE715B02E
:1097F000BDE8F083F2230E00F7230E00AC270E0025
:10980000F0B585B005460F461646FFF761FF0446E2
:1098100060B13946684602F0EEFE32466946284697
:10982000FFF763FE0446684602F07CFE204605B062
:10983000F0BD000030B589B004460D4668460D49BC
:1098400002F0B7FE2946684602F08EFF014604A8E2
:1098500002F0D1FE962204A92046FFF7D1FF04466C
:1098600004A802F05FFE684602F05CFE204609B0E4
:1098700030BD00BFFB230E0030B589B004460D4655
:1098800068460D4902F095FE2946684602F06CFFD5
:10989000014604A802F0AFFE962204A92046FFF775
:1098A000AFFF044604A802F03DFE684602F03AFE0F
:1098B000204609B030BD00BF01240E0030B589B08C
:1098C00004460D4668460D4902F073FE2946684677
:1098D00002F04AFF014604A802F08DFE962204A978
:1098E0002046FFF78DFF044604A802F01BFE6846E1
:1098F00002F018FE204609B030BD00BF07240E005C
:10990000B0F5FA6F30B528BFA0F5FA60104D28BF4A
:1099100080B292B200230133DCB2A14205D9EC1827
:1099200014F8014C224492B2F5E7022903D98307C7
:1099300004BF013292B200EBC003C11C00EBC300B4
:1099400000EB8000431E03EBA100104480B230BD49
:109950000D240E0003784078303BDBB20A2B28BF81
:10996000002303EB8303303800EB4300C0B27047A1
:10997000234B3C220B4430B5B3FBF2F402FB143111
:109980004171B4FBF2F102FB1142182402714FF451
:109990006162B3FBF2F2B2FBF4F104FB1122C2707C
:1099A000184AB3FBF2F300229BB20270017811F067
:1099B00003040CBF0122002202F5B6759D4207DAAE
:1099C000C2F57E429332134401319BB20170EDE740
:1099D00001220D4D427041786A1812F8012C1CB911
:1099E000022904BF0132D2B292B2934204D39B1A2D
:1099F00001319BB24170EEE70133837030BD00BF8F
:109A000080BC92C7805101000D240E00B1F5FA6FA1
:109A100083709DF80030C37028BFA1F5FA619DF8EE
:109A20000430037128BF89B29DF80830017042707C
:109A30004371704730B50D4685B0044608684968E3
:109A400001AB03C32889A97A188004AD99700DF180
:109A50000D00FFF77FFF15F80C3D2070413B122BE6
:109A600030D8DFE803F0192F2F2D2F172F2F2F0AB3
:109A70002F2F202B292F2F2F27009DF80530612B0A
:109A800006D09DF806306E2B0CBF0623072318E086
:109A9000012316E0022314E09DF80630722B0CBF60
:109AA000042308230DE09DF80630722B0CBF03231E
:109AB000052306E0092304E00A2302E00B2300E06B
:109AC0000C23637002A8FFF745FFA070106851686F
:109AD0002B4603C32846FFF73DFFE0700DF107005A
