:02000002D0002C
:1040000000400D0040300E00000006000D000501CC
:084010000401E80500000000B6
:04401800D8090E00B5
:1040200009480A49884208B505D0094A824202D0A7
:10403000121A0BF08EFF0748074A0021121A0BF0E4
:1040400093FF014808BD00BF6CD603208C2B0E00E7
:10405000F8DA0320F8DA0320F0E7032070B509F05E
:1040600007FB074C074BE41AA40800251E46A5428F
:1040700004D056F8253098470135F8E770BD00BFE9
:10408000742B0E001C2B0E0005F08CB808B504F044
:1040900019F9BDE8084009F0ADBA07F08DBE07F088
:1040A00093BE07F091BE000008B5034A00210C2022
:1040B00007F074FDFEE700BFC5B70D000078B0FA49
:1040C00080F04009704701230370704710B5074C1A
:1040D0002168034639B10648064A006806F060F9CF
:1040E00010B100232360012010BD00BFFCDA0320C3
:1040F00000DB032004DB032038B50C4D2B7804468D
:1041000093B103460A490B480B4A0968006806F058
:1041100047F908B9002038BD34B12046FFF7D6FF73
:104120000028F7D000232B70012038BD04DD0320C8
:104130006CD6032000DB032004DB032070B50D4D9B
:104140002B68834204460E460ED00120FFF7D4FFB1
:1041500008B9002070BD084B084A1868214606F0CF
:1041600015F90028F5D02C60054B197831431970EA
:10417000012070BD6CD6032000DB032004DB03208C
:1041800004DD032010B504460120FFF7B5FF78B128
:104190000023084A194699540133B3F5007FFAD138
:1041A000054B064A1C60137843F00103137001208D
:1041B00010BD00BF04DB03206CD6032004DD032008
:1041C00070B5C36801338B4205460C46164601D2D2
:1041D000002070BD90F82020C369102A0CBF080A87
:1041E000C80918440D4B1B68984208D195F8203037
:1041F000102B0B4B09D1E4B233F814300BE0002143
:10420000FFF79CFF0028F1D1E2E704F07F0453F8A8
:10421000243023F070433360012070BD6CD603203E
:1042200004DB03202DE9F74302AEDFF8448046F8B3
:10423000041D0546174600244FF4007932460199C3
:104240002846FFF7BDFF78B12B7C95F8202009FAAE
:1042500003F31C444FF6F873102A18BF4346019A23
:104260009A42EBD33C60012003B0BDE8F08300BF6D
:10427000F8FFFF0F0129F8B506460C46174601D88E
:104280000020F8BDC36801339942F9D890F8203076
:10429000C569102B0CBF0B0ACB091D44124B1B68C0
:1042A0009D4208D196F82030102B104B0AD1E4B271
:1042B00023F814700AE000212846FFF73FFF00288A
:1042C000F0D1DDE704F07F0443F82470084A137846
:1042D00043F001031370337E012B81BFB368ED18E7
:1042E000044B1D600120F8BD6CD6032004DB0320C5
:1042F00004DD0320FCDA03202DE9F74F146806469D
:104300008B4617461CB101344FF0000A05E04B1EE6
:10431000D3F1000A04684AEB030AF368254603F167
:1043200001094FF00008F36898451DD24D4588BF3C
:10433000022501AA2946304688BF2C46FFF740FFD8
:1043400090B1019A6B1C0AB11C4602E01A1B9345FE
:1043500003D008F101081D46E5E76FF070422946D9
:104360003046FFF787FF58B900201CE005F1FF3801
:104370002A4641463046FFF77DFF0028F4D04546E7
:10438000AC42F3D3396831B93C60BAF1000F09D0BF
:104390000134346006E022463046FFF76BFF002808
:1043A000F2D1E1E7012003B0BDE8F08F73B502233D
:1043B0000F4E036005460C4601AA21462846FFF72A
:1043C000FFFE88B1002221462846FFF753FF58B16F
:1043D00095F82020019C4FF6F873102A18BF334639
:1043E0009C42E9D3012000E0002002B070BD00BF74
:1043F000F8FFFF0FF8B53D4B044619601546DAB1DA
:10440000042A01D90020F8BD00210846FFF796FED6
:104410000028F7D0364A02EB051393F8AE315B065D
:10442000F0D11B3502EB0515D5F80A30632BE9D91D
:10443000D5F80650002DE5D000212846FFF77EFE76
:104440000028DFD02A4BB3F80B20B2F5007FD9D17A
:10445000197C0029D6D0DA89002AD3D05A7B002AC9
:10446000D0D02176002122712174012094F810E02F
:1044700000FA0EF18A4206D00EF10101BEF1070FDB
:104480002174F3D9BEE7D88A08B1014601E0184A81
:10449000516AA160DA891E7C2A44E261B3F8117086
:1044A000678401FB06207A0102F2FF1200EB622210
:1044B00060626261B3F8131009B90D49096AAD1A57
:1044C000294421FA0EF540F6F4729542E56001D8D0
:1044D0000C2307E04FF6F472954285BFDB6A6362F6
:1044E0001023202384F820300120F8BD00DB0320B6
:1044F00004DB032007F0DEB810B503682F2B044659
:1045000004D9074A00210A2007F048FB23681F2B23
:1045100083BF03F01F03236002484FF0A04010BD8B
:10452000C5B70D000003005007B502AB43F8040DFA
:104530001846FFF7E1FF019A01239340C0F80835C0
:1045400003B05DF804FB07B502AB43F8040D184651
:10455000FFF7D2FF019A01239340C0F80C3503B056
:104560005DF804FB7FB5024608461379956833B1C0
:104570003DB90C4904B0BDE8704008F063BC0A4B7B
:1045800000E00A4B167B0A4C0A49527B0292012E2C
:1045900008BF214601910095074A002108F08FFCD1
:1045A00004B070BD5D0D0E00EA1E0E004C0D0E0035
:1045B000550D0E00590D0E00730D0E000368C9B2A3
:1045C0009B68184738B504460D4690B201210AF0A1
:1045D000AFFA134B1B6893F8500093F8513003F077
:1045E0001F0343EA4010FFF79FFF6572102D12D89A
:1045F000DFE805F0110B110D0D0F0F0911110B0D57
:10460000090F110D0D00902306E0BA2304E0782372
:1046100002E0602300E04223A372204638BD00BFC1
:1046200014DD0320054B1B6893F8500093F85130BC
:1046300003F01F0343EA4010FFF776BF14DD0320A9
:10464000054B1B6893F8500093F8513003F01F039B
:1046500043EA4010FFF777BF14DD032009B9017268
:10466000704701230372704770B5064614460D4625
:104670000AF014FBB17A490809F0DBFD0AF00EFBE1
:10468000E9B2FFF79BFF0AF009FBE1B2FFF796FFE3
:104690000AF004FB09F0D4FD20B9012008F04EFD1A
:1046A000012070BD002070BD10B500220446042911
:1046B00055D8DFE801F05403172B3F00FF21FFF727
:1046C000D3FF4022C7212046FFF7CEFF5E22CC2138
:1046D0002046FFF7C9FF4122CD212046FFF7C4FF46
:1046E00054223AE0FF21FFF7BFFF4022C7212046B6
:1046F000FFF7BAFF6522CC212046FFF7B5FF412224
:10470000CD212046FFF7B0FF4F2226E0FF21FFF723
:10471000ABFF4022C7212046FFF7A6FF5222CC2143
:104720002046FFF7A1FF4122CD212046FFF79CFF45
:10473000662212E0FF21FFF797FF4022C7212046A3
:10474000FFF792FF4222CC212046FFF78DFF3F2248
:10475000CD212046FFF788FF7122CE2104E0FF2102
:10476000FFF782FF0022C7212046BDE81040FFF777
:104770007BBF10B50446072900F2A980DFE801F0ED
:10478000041E334D67727D880022FF21FFF76CFF06
:1047900000227C212046FFF767FF18227D2120465A
:1047A000FFF762FF05227C212046FFF75DFF4022D4
:1047B0007D212046FFF758FFA62282E00022FF213C
:1047C000FFF752FF00227C212046FFF74DFF182201
:1047D0007D212046FFF748FF05227C212046FFF778
:1047E00043FFA02213E00022FF21FFF73DFF00223C
:1047F0007C212046FFF738FF18227D212046FFF755
:1048000033FF05227C212046FFF72EFF40227D2129
:104810002046FFF729FF402253E00022FF21FFF747
:1048200023FF00227C212046FFF71EFF18227D2156
:104830002046FFF719FF05227C212046FFF714FFD1
:1048400040227D212046FFF70FFFC02239E00022E1
:10485000FF21FFF709FF00227C212046FFF704FF1C
:1048600018221FE00022FF21FFF7FEFE00227C211C
:104870002046FFF7F9FE402214E00022FF21FFF757
:10488000F3FE00227C212046FFF7EEFE582209E0CD
:104890000022FF21FFF7E8FE00227C212046FFF7DF
:1048A000E3FE00227D212046FFF7DEFE05227C216B
:1048B0002046FFF7D9FE80227D212046FFF7D4FE57
:1048C000802220467D21BDE81040FFF7CDBE10BDFF
:1048D000F8B5002407460D462646FF2E05F10405CF
:1048E00001D1FF2C09D035F8046C35F8024C314663
:1048F00022463846FFF7B8FEEFE70120F8BD00007A
:10490000082916D8DFE801F0050715090B0D0F116E
:10491000130009490EE009490CE009490AE0094978
:1049200008E0094906E0094904E0094902E00949AB
:1049300000E00949FFF7CCBF980A0E005E140E0094
:10494000F8090E00800C0E00380B0E00FE140E004D
:10495000DC0B0E00BA130E009A150E0038B5437A20
:10496000052B04462CD10122FF21FFF77DFE80227A
:1049700012212046FFF778FE642008F0DFFB257A3D
:10498000012D17D10F492046FFF7A2FF0E492046FF
:10499000FFF79EFF0D492046FFF79AFF2A46FF21A9
:1049A0002046FFF761FE152100222046FFF75CFE3E
:1049B000074900E007492046BDE83840FFF788BFB7
:1049C00038BD00BFB60D0E00240D0E00920D0E0076
:1049D0009A150E00B2100E0070B5044615460E462C
:1049E0000AF05CF9A17A490809F023FC0AF056F9AB
:1049F0003146FFF7E3FD0AF051F909F021FC0AF016
:104A00004DF9A17A0122D14009F00CFC0AF046F9D7
:104A100003681B69984728B10AF040F903685B698D
:104A200098472870012008F089FB012070BD000024
:104A300010B5084C2368DB070AD42046FFF73EFB7D
:104A400030B10121044807F0E5FA2046FFF73BFBAF
:104A5000014810BD08DD03200CDD032010B504461D
:104A6000FFF7E6FF2146BDE8104007F08BBB3C2076
:104A7000FFF7F4BF7FB51B4B00931B4B0293002441
:104A800001231A4D8DF80C300E468DF804408DF838
:104A90000D40FFF7CDFF694607F004FB2B6893F844
:104AA000500093F8513003F01F0343EA4010FFF722
:104AB0004AFDF0B2FFF7D2FF2046FFF7CFFF2B6889
:104AC000044693F8500093F8513003F01F0343EA73
:104AD0004010FFF729FDFFF7ABFF07F0CAFA2046A9
:104AE00004B070BDF4090E0000127A0014DD03203A
:104AF0003D21FFF7BFBF01F07F01FFF7BBBF10B53E
:104B00001446FFF7F8FF204010BD70B5422105465E
:104B1000FFF7B0FF432104462846FFF7ABFF4421CF
:104B200006462846FFF7A6FF44EA062400F07F0069
:104B300044EA004070BD0000F0B585B01B4B009307
:104B4000164600231A4A1B4D029201240F468DF887
:104B500004308DF80D308DF80C40FFF769FF694681
:104B600007F0A0FA2B6893F8500093F8513003F047
:104B70001F0343EA4010FFF7E6FCF8B2FFF76EFFB1
:104B8000F0B2FFF76BFF2B6893F8500093F85130A9
:104B900003F01F0343EA4010FFF7C6FCFFF748FF8E
:104BA00007F067FA204605B0F0BD00BFF4090E001B
:104BB00000127A0014DD032041F08001FFF7BCBF32
:104BC00002228421FFF7B8BF01228421FFF7B4BF7E
:104BD000FFF7FABF08B506F06DFD014B186008BD80
:104BE00014DD0320704703681847012A02D0022A07
:104BF00002D004E0016002E00B6800B10360002015
:104C00007047704738B5064D002404F544702844B9
:104C1000103C07F087FC14F5487FF6D138BD00BF83
:104C200088DF032010B501230374836804460BB1A9
:104C3000C06806E0006828B183680BB90AF09BF8E9
:104C4000C3689847012363740020BDE8104006F054
:104C500065BE08B5002007F097F828B107F074F892
:104C600080F00100C0B208BD012008BD037823F028
:104C70007F0319430170704713B5054B1B788DF8FE
:104C800000303C23044608F091FE204602B010BDDF
:104C900004DF032010B50446006808B107F094F85B
:104CA000204610BD00231A461946406806F0FCBF96
:104CB00000231A461946406806F0FEBF002211463E
:104CC000406806F0E9BF10B58368044613B10322BB
:104CD00001469847204610BD38B5044670B10568B6
:104CE00035B12846FFF7EFFF102128460AF030F8CB
:104CF00020461421BDE838400AF02AB838BD10B566
:104D000043690446BBB1586806F0D0FD78B96369C1
:104D10005A7C12B9586806F0D1FD6369586806F0EC
:104D2000D5FD60690023636128B1FFF7D5FF606995
:104D300008B1FFF7D1FF201DFFF7C5FF204610BDCA
:104D400010B586B00446ADF8161006A901F8032D7B
:104D5000089A02920122019300920B460DF116016E
:104D600007F078FA204606B010BD000073B51E4B60
:104D70001D7806460C46B5B902A801221A7040F803
:104D8000045D2A46294606F04DFD019B1E2B0AD1E3
:104D900003232068A3710823A5802581638110B1B6
:104DA00007F012F82560B4F904300BB922689AB103
:104DB000216859B18A88012A03D0042A06D1022227
:104DC00005E089896181A271238105E004222381A4
:104DD0004FF6FF73A271638154F8063F3360A388D6
:104DE000B380304602B070BD18DD032008B506F070
:104DF000F1FC014B186008BDECE6032030B587B02C
:104E00001D4600230446049322B1214B0593214BF8
:104E1000029204930023E360049B21603BB10222D1
:104E200002A9201D9847059B2361049BE3601A4952
:104E3000142009F091FF30B1002303740360436034
:104E40008360C36043746061A0B1144B8360636985
:104E50001349DC606069134B8DE82100092204309E
:104E600006F01CFD30B963691B7C4BB9012006F0CC
:104E7000A1FCF8E760690023636108B1FFF72CFF2C
:104E8000FFF7B4FF02A8FFF71EFF204607B030BDB2
:104E9000E74B0D00EB4B0D001C290E0025EC0D001F
:104EA000BA1A0E00254C0D0008B5FFF79FFFBDE8AC
:104EB000084006F031BFB0F90A3013B100EB03101F
:104EC00070471846704710B54B688A6810339A428D
:104ED00001D2002010BDA2F110038B60002BF8D08E
:104EE000416819B15C1A24114C8100E00360002173
:104EF000436022F8061C02F8081C42F8041C1846FD
:104F000010BD00000B780BB9036002E0024B036098
:104F100000234360704700BFE54B0D00826810B569
:104F20004AB14368C468A34202D30023836010BD22
:104F30005C1C4460D15410BD10B504460021FFF73D
:104F4000EDFFA3683BB194E80600E3684868D31A14
:104F500003444B60E260A06810BD70B5064600686F
:104F60000C4681681144154607F0FAFA2544AC4214
:104F700005D014F8011B306807F0E9FBF7E70020C3
:104F800070BD0121042006F03DBC00001FB50E21BC
:104F9000184806F007FA044650BB08F081FF16498E
:104FA00007F063FF0121072009F0D3FD41F28830AB
:104FB00008F0C4F82146072009F0CBFD43F69820FD
:104FC00008F0BCF8642008F0B9F80C4B1B6800939B
:104FD00002224FF49673062102A8FFF7B1FE4FF4A8
:104FE0007A7008F0ABF804B0BDE8104007F017B9CC
:104FF00004B010BDD4E30320C11A0E00A8E20320C0
:105000004B6843608B688360CB68C36030B500F148
:10501000100301F10F0200F11D0412F8015F03F803
:10502000015B9C42F9D10B6A036230BD70B5054645
:10503000A4B00C4608F034FF296807F016FF634956
:1050400006A807F0B6FA04A805F0E9FF06A912A819
:1050500007F0D1FA9DF811105D4B013901EB810188
:1050600019440EA807F0A5FA0EA912A807F07CFBB8
:105070009DF810100A22064601F5FA611BA807F0F8
:10508000E8FA1BA9304607F06FFB524907F078FB9E
:1050900001460AA807F0AFFA1BA807F043FA0EA8CA
:1050A00007F040FA12A807F03DFA12A805F0F2FA4C
:1050B0000123069A48491BA806F014FA1BA912A856
:1050C000FFF79EFF12A805F02BFBA0B112A805F078
:1050D000EFFA60B908F0E4FE404907F0C6FE12A8F6
:1050E00005F012FB06993C4806F06AFA08E012A89F
:1050F00005F00AFB0EE008F0D3FE394907F0B5FED3
:105100000699354806F040FA20B908F0C9FE35493D
:1051100007F0ABFE17230A9A2F491BA806F0E2F905
:105120001BA912A8FFF76CFF12A805F0F9FA90B9B5
:1051300008F0B6FE2C4904461BA807F03AFA0AA963
:105140001BA807F011FB0168204607F08EFE1BA884
:1051500007F0E8F931E0611E03290DD8DFE801F01E
:1051600002040608214904E0214902E0214900E047
:10517000214912A807F066FE9DF8151003919DF8CD
:1051800014109DF8102002919DF8131001919DF8C4
:1051900012109DF81130009102F5FA6217491BA810
:1051A00006F022FE1BA912A807F04CFE296812A8DF
:1051B00007F05BFE12A805F0A7FA0AA807F0B2F9FB
:1051C00006A807F0AFF924B070BD00BFF91A0E00B1
:1051D00080D70320FF1A0E00D4E30320041B0E0027
:1051E000281B0E00181B0E00341B0E004E1B0E0059
:1051F000571B0E00621B0E006F1B0E00791B0E006A
:105200001FB50849684607F0D4F901216846FFF741
:105210000DFF684607F086F907F001F805B05DF864
:1052200004FB00BF941B0E0070B590B005460C4601
:1052300004A8274907F0BDF92946684607F0B9F9DF
:10524000694604A807F090FA224907F099FA214626
:10525000064608A807F0ADF908A9304607F084FA19
:1052600001460CA807F0C7F904210CA8FFF7DEFEE1
:105270000CA807F057F908A807F054F9684607F09A
:1052800051F904A807F04EF929460CA807F091F946
:1052900011490CA807F086FA06460CA807F042F957
:1052A0001EB121460D4807F0B1F929460CA807F0B8
:1052B00080F90B490CA807F075FA05460CA807F011
:1052C00031F91DB12146074807F0A0F910B070BDB3
:1052D000A51B0E00F41C0E00AA1B0E0078DF032095
:1052E000BF1B0E0068DF032070B5474B1A68002A09
:1052F000A4B01D4640F38680444902A807F059F93E
:1053000012A805F0C7F9684605F089FE40490AA8C9
:1053100007F04FF902A90AA807F026FA9DF8011034
:105320003C4B013901EB8101194404460EA807F0FA
:1053300040F90EA9204607F017FA9DF800100A223E
:10534000044601F5FA611BA807F083F91BA9204662
:1053500007F00AFA304907F013FA014606A807F0E9
:105360004AF91BA807F0DEF80EA807F0DBF80AA838
:1053700007F0D8F80299294806F0F8F870B908F053
:105380008FFD274907F071FD0299244806F0FCF8CB
:1053900020B908F085FD234907F067FD1723069A19
:1053A0001E491BA806F09EF81BA912A8FFF728FEAD
:1053B00012A805F0B5F950B908F072FD1A4907F0C6
:1053C00054FD08F06DFD069907F04FFD14E00E4CFA
:1053D000164E2B68002B0CDDD6F8201312A807F010
:1053E00044FD1349134807F011F92368013B23607A
:1053F000EFE712A805F088F906A807F093F802A8CD
:1054000007F090F824B070BD50DF0320F91A0E00A9
:10541000FD1A0E0080D70320FF1A0E00D4E30320EC
:10542000D21B0E00091C0E00201C0E0088DF03207A
:10543000EA1E0E00A8E203202DE9F04FC1B002AF32
:1054400004468A4607F10C00BA4915461E4607F085
:10545000B0F8B94907F1C40007F0ABF8B74BB84A48
:105460001B681288B74807F1C40105F0ABF9804604
:1054700007F1C40007F056F8B8F1000F20D1B24987
:1054800007F1900007F095F8AB4907F16C0007F0C1
:1054900090F807F16C0107F1900007F065F90146FB
:1054A00007F1C40007F0A7F8022107F1C400FFF7D5
:1054B000BDFD07F1C40007F035F807F16C007CE092
:1054C000A24907F1C40007F096F807F1C4019D480E
:1054D00005F0DAF9804607F1C40007F023F8B8F1C7
:1054E000000F01D19A4912E09A4907F1C40007F070
:1054F00082F807F1C401934805F0E8F9804607F106
:10550000C40007F00FF8B8F1000F0ED1924907F16F
:10551000C40007F04EF807F1C4000221FFF786FD32
:1055200007F1C40006F0FEFF77E2294607F1C40048
:1055300007F061F807F1C401824805F0E9F98046F7
:1055400007F1C40006F0EEFFB8F1000F58D183490F
:1055500007F1C40007F02DF8032107F1C400FFF79D
:1055600065FD07F1C40006F0DDFF294607F1C40020
:1055700007F041F807F1C401724805F0EBF98046E5
:1055800007F1C40006F0CEFFB8F1000F1CD174493A
:1055900007F1900007F00DF8294607F1900007F099
:1055A000E3F8014607F1C40007F025F807F1C4004D
:1055B0000221FFF73BFD07F1C40006F0B3FF07F13E
:1055C000900006F0AFFF28E2664907F1900006F070
:1055D000F0FF294607F1900007F0C6F8014607F1F1
:1055E000C40007F008F8032107F1C400FFF71EFD0F
:1055F00007F1C40006F096FF07F1900006F092FF55
:1056000036BBDFF87C81226898F80030019298F868
:105610000120DFF87091009203F5FA63D9F80020B9
:10562000514907F1900006F0DFFB07F1900107F107
:105630000C0006F0EBFF226898F80030019298F811
:105640000120009203F5FA63D9F80020474936E0BB
:10565000012E0CD12368464A464907F1C40006F0E2
:10566000C3FB214607F10C0006F0B6FF2BE0022E2B
:105670002ED1DFF80C81226898F80030019298F85A
:105680000120DFF80091009203F5FA63D9F80020B9
:10569000354907F1900006F0A7FB07F1900107F1EB
:1056A0000C0006F0B3FF226898F80030019298F8D9
:1056B00001200092D9F800202F4903F5FA6307F181
:1056C000C40006F091FB07F1C401204606F09EFFDE
:1056D00007F10C0107F16C0006F08DFF07F16C017A
:1056E000184805F063FA804607F16C0006F01AFFCF
:1056F000B8F1000F48D1214907F15C0006F059FFCD
:1057000007F10C0107F15C0007F02EF8014607F1E4
:105710006C0006F070FF042107F16C00FFF786FCB7
:1057200007F16C0006F0FEFE07F15C0006F0FAFEE1
:1057300030E000BFEA1E0E00F4D60320BCD70320E1
:105740003CDA032048DD0320381C0E0040DF032034
:105750004D1C0E0054DF03205E1C0E006F1C0E005B
:10576000871C0E009A1C0E00AE1C0E00BA1C0E0008
:10577000C71C0E00CC1C0E00D31C0E00E51C0E0036
:10578000BCDE0320A4DE0320A74808F051FEA64893
:1057900005F05AF8BAF1000F2ED007F10C0107F10D
:1057A0006C0006F028FF07F16C019F4805F016F920
:1057B000804607F16C0006F0B5FEB8F1000F0DD180
:1057C0009A4907F16C0006F0F4FE07F16C00022123
:1057D000FFF72CFC07F16C0006F0A4FE944907F1DA
:1057E0006C0006F0E6FE07F16C000421FFF71EFCDA
:1057F00007F16C0006F096FE8E4907F15C0006F09A
:10580000D8FE07F10C0107F15C0006F0ADFF8A49F4
:1058100006F0B6FF214606F0A7FF014607F16C002F
:1058200006F0E9FE042107F16C00FFF7FFFB07F12A
:105830006C0006F077FE07F15C0006F073FE0123B2
:1058400022687E4907F16C0005F04CFE642007F0E9
:1058500075FC07F16C0004F063FF00286BD036F094
:105860000203E84601D1764902E0012E27D17549AD
:1058700007F15C0006F09DFE07F15C016A4805F047
:105880008BF8044607F15C0006F04CFEBCB107F152
:105890000C0107F15C0006F0AEFE07F15C01624806
:1058A00005F0A6F9044607F15C0006F03BFE34B9AA
:1058B00007F16C0004F028FFFFF716FD39E007F14F
:1058C0006C0004F00AFF604B421E9A420646EFD875
:1058D00005F080FFC0B0044606F02EFADFF880B174
:1058E0000DF1080A4FF0000907F16C0004F0F9FE11
:1058F00018B34E4521D34FF48072514607F16C0026
:1059000004F0DEFE81447860FFF770FA0021072082
:1059100009F01FF900237A684348514608F0B6FDA4
:105920000121072009F015F9C82007F007FCD94527
:10593000DADDC54671E0454963E007F16C0004F02B
:10594000E3FE05F047FF4249041B07F12C0006F077
:1059500030FE4FF47A730A22B4FBF3F407F11C0013
:10596000214606F09CFE07F11C0107F12C0006F011
:10597000FBFE384906F004FFB6FBF4F10A2281462B
:1059800007F13C0006F08BFE07F13C01484606F0AB
:10599000EBFE314906F0F4FE0A220446002107F12D
:1059A0004C0006F069FE07F14C01204606F0DCFED3
:1059B000014607F15C0006F01EFE042107F15C00C1
:1059C000FFF734FB07F15C0006F0ACFD07F14C007B
:1059D00006F0A8FD07F13C0006F0A4FD07F11C004D
:1059E00006F0A0FD07F12C0006F09CFDFFF75CFA25
:1059F0000D48C54608F01CFD0B4804F025FF88BB88
:105A0000164907F15C0006F0D4FD07F15C000221A5
:105A1000FFF70CFB07F15C0084E507F10C0006F0D2
:105A200081FD00209CE000BF48DD0320F71C0E0034
:105A30000D1D0E00101D0E00181D0E00D4E30320D6
:105A400062210E001D1D0E00FDFF07001F1D0E0030
:105A50009B1D0E00F1200E009F1D0E00451D0E0027
:105A6000400D0300404907F14C0006F0A2FD294615
:105A700007F11C0006F0BFFD3C4907F11C0006F0D1
:105A80007FFE07F10C0106F06FFE014607F12C00C6
:105A900006F0B1FD07F12C01354804F0AFFE0A22F3
:105AA000014607F13C0006F0D4FD07F13C0107F187
:105AB0004C0006F059FE014607F15C0006F09BFD24
:105AC000042107F15C00FFF7B1FA07F15C0006F072
:105AD00029FD07F13C0006F025FD07F12C0006F03A
:105AE00021FD07F11C0006F01DFD07F14C0006F03A
:105AF00019FD204907F14C0006F05BFD0A223146F2
:105B000007F13C0006F0CBFD07F13C0107F14C002A
:105B100006F02AFE014607F15C0006F06CFD042148
:105B200007F15C00FFF782FA07F15C0006F0FAFC6F
:105B300007F13C0006F0F6FC07F14C0006F0F2FC21
:105B40000B4804F06DFF08B90B495AE70720002104
:105B500008F0FFFF06F0E8F807F10C0006F0E2FCA1
:105B6000FC37BD46BDE8F08F5F1D0E00FD1A0E002C
:105B700048DD0320761D0E00891D0E0038B5054650
:105B800005F028FE044605F025FE001BA84202D2BF
:105B9000FFF78AF9F7E738BD1FB500210446072053
:105BA00008F0D7FF144807F0CBFC144805F01CFCA4
:105BB00006F0F4FE06F0B2FF06F0BEF841F28830BF
:105BC000FFF7DCFF0E48FFF773F80E4806F0C5F943
:105BD00041F28830FFF7D2FF0B4B1B680093022283
:105BE0002346062102A8FFF7ABF84FF47A70FFF7BF
:105BF000C5FF04B010BD00BFB4DE0320D4E3032012
:105C0000C0E403202CDF0320A8E2032038B5046899
:105C100005467CB16368013B63605BB9236820463D
:105C20009B689847A368013BA3601BB92368204683
:105C3000DB689847284638BD2DE9F041B2B06B4A81
:105C40006B4929A8FFF718F82AA8FFF7DFFF694971
:105C500029A806F0AEFC042129A8FFF7E7F929A836
:105C600006F060FC644929A806F0C5FC634929A830
:105C700006F086FD01230268614905A805F032FCA3
:105C800029A806F04FFC012205A90EA805F0A6FCE4
:105C90005C4B1F78002607F5FA6735460EA804F01E
:105CA0003FFD0446002800F0AF800EA804F0FEFC83
:105CB000014601A806F07DFC08F0F2F8044601A8B0
:105CC00006F097FD0A22014629A806F0D5FC29997D
:105CD000204607F0CAF829A806F024FC0EA804F014
:105CE000E7FC002872D001A806F083FD87426DD042
:105CF00001A806F07EFD7B1E984240F0558165E0CC
:105D000017A804F0D5FC002837D017A9012220A835
:105D100005F064FC08F0C4F8044620A804F0C6FCB2
:105D20000146204607F0A1F820A804F0F9FC32490A
:105D3000002840F0498129A806F05DFC2F4929A8D8
:105D400006F01EFD04460EA804F0B0FC01462046F5
:105D500006F016FD294906F013FD044617A804F0C5
:105D6000A5FC0146204606F00BFD0168244805F01D
:105D700019FC29A806F0D6FB013517A804F0C4FCCD
:105D80000EA929A8012205F029FC29A917A8FFF7C7
:105D900037F917A804F0C4FC0028B1D1164929A886
:105DA00006F029FC154929A806F0EAFC04460EA8CD
:105DB00004F07CFC0146204606F0E2FC0168104835
:105DC00005F0F0FB29A806F0ADFB01350EA804F0A4
:105DD0009BFC012205A929A805F000FC29A90EA811
:105DE000FFF70EF901A806F09DFB57E7AF1D0E0067
:105DF000CC1D0E00D31D0E00A4DE0320FD1A0E00E4
:105E0000D4E30320BCDE032005A804F07DFC8C490C
:105E100020A806F0CEFB0A22294617A806F019FC96
:105E200017A920A806F0A0FC864906F0A9FC0A22C2
:105E30008046314629A806F00CFC29A9404606F008
:105E400093FC8149026801A8FEF716FF02A8FFF73C
:105E5000DDFE29A806F066FB17A806F063FB20A864
:105E600006F060FB764917A806F0A3FB0A22294634
:105E700001A806F0EEFB01A917A806F075FC714910
:105E800006F07EFC0A220546314620A806F0E1FB1A
:105E900020A9284606F068FC014629A806F0ABFBBD
:105EA000042129A8FFF7C2F829A806F03BFB20A887
:105EB00006F038FB01A806F035FB17A806F032FB08
:105EC000624A614929A8FEF7D7FE2AA8FFF79EFE7D
:105ED0005F4929A806F06DFB042129A8FFF7A6F861
:105EE00029A806F01FFB01235A4A5B4929A805F09F
:105EF000F9FA29A905A8FFF783F805A929A801221D
:105F000005F06CFB29A90EA8FFF77AF80EA804F09B
:105F100007FC0546002800F0A5800EA804F0C6FB8B
:105F2000014617A806F045FB0A22B91E29A806F06B
:105F300090FB29A917A806F047FC054629A806F0FA
:105F4000F1FA0DB3434929A806F033FB0EA804F07B
:105F5000ADFB014620A806F02CFB20A929A806F0DD
:105F600003FC01683C4805F02BFB054620A806F021
:105F7000D9FA29A806F0D6FA2DB907F091FF3749CA
:105F800006F073FF00E001340EA804F0BDFB01220F
:105F900005A929A805F022FB29A90EA8FFF730F8CA
:105FA00017A806F0BFFAB1E70EA9012217A805F05D
:105FB00015FB07F075FF044617A804F077FB0146B0
:105FC000204606F052FFE4E629A806F014FB244917
:105FD00029A806F0D5FB04460EA804F067FB01468D
:105FE000204606F0CDFB1E4906F0CAFB044617A862
:105FF00004F05CFB0146204606F0C2FB184906F09F
:10600000BFFB044620A804F051FB0146204606F0E1
:10601000B7FB0168104805F0D3FA044629A806F03A
:1060200081FA04B1013620A804F06EFB17A929A853
:10603000012205F0D3FA29A920A8FEF7E1FF73E6B3
:10604000D81D0E00DC1D0E00CC1D0E00E11D0E0043
:10605000FC1D0E00F91A0E00D4E30320211B0E00D4
:10606000FD1A0E0005A804F04FFB2E4920A806F0EB
:10607000A0FA0A22294617A806F0EBFA17A920A8C9
:1060800006F072FB284906F07BFB0A2206462146F1
:1060900029A806F0DEFA29A9304606F065FB234957
:1060A000026801A8FEF7E8FD02A8FFF7AFFD29A8E6
:1060B00006F038FA17A806F035FA20A806F032FAEA
:1060C000184917A806F075FA0A22294601A806F011
:1060D000C0FA01A917A806F047FB134906F050FBC8
:1060E0000A220546214620A806F0B3FA20A9284630
:1060F00006F03AFB014629A806F07DFA042129A8FA
:10610000FEF794FF29A806F00DFA20A806F00AFA77
:1061100001A806F007FA17A806F004FA012032B029
:10612000BDE8F081D81D0E00DC1D0E00CC1D0E0058
:106130002DE9F0430646A5B0594C2368DB070AD485
:106140002046FDF7BBFF30B10121564805F062FF44
:106150002046FDF7B8FF4FF6FF720021514805F0C9
:1061600074FF0121132008F0F4FC642006F0E6FF20
:106170004D48FEF765FA552200214B48FEF71CFDFD
:1061800000214948FEF7B7FC552804466DD0474921
:1061900011A806F00EFA0A2221460DA806F047FAC9
:1061A0000DA911A806F0E0FA01461AA806F023FA94
:1061B00001211AA8FEF73AFF1AA806F0B3F90DA8B4
:1061C00006F0B0F911A806F0ADF9394A39491AA814
:1061D000FEF752FD1BA8FFF719FD43F6982006F0C5
:1061E000ADFF354B1B680093022240F2DC530621C1
:1061F0001AA8FEF7A5FD4FF47A7006F09FFF06F08F
:106200000EF8FEF751FE97E7422B5BD02B4911A801
:1062100006F0CFF99DF80B309DF80A2028490DA80B
:1062200006F0ECFA0DA911A806F09EFA01461AA88C
:1062300006F0E1F901211AA8FEF7F8FE1AA806F007
:1062400071F90DA806F06EF911A806F06BF941F28C
:10625000883006F073FF184B1B680093022240F24F
:10626000DC5306211AA8FEF76BFDFEF71DFE012286
:10627000FF210D48FEF7F8F90DF10A020A210A483C
:10628000FEF7AAFB0DF10B020B210748FEF7A4FB5A
:106290009DF80A30262B9DF80B30B7D1B4E700BF2C
:1062A00008DD03200CDD032008DF0320001E0E00A4
:1062B000431E0E00CC1D0E00A8E203204D1E0E0052
:1062C000741E0E0001219C48FEF7C8F90A2006F052
:1062D00035FF9948FEF742FB0A2006F02FFF072101
:1062E0009548FEF70DFB0A2006F028FF072192488B
:1062F000FEF73FFA0A2006F021FF00218E48FEF744
:10630000D3F90A2006F01AFF8B48FEF761FC0A2039
:1063100006F014FF8848FEF757FC41F2883006F07B
:106320000DFF8548FEF74CFC0A2006F007FF05F03C
:1063300051FA044605F04EFA082241217E48FEF744
:10634000DEFBB0B9FEF7B0FD0A2006F0F7FE05F05F
:1063500041FA47F23053001B9842EDD977491AA809
:1063600006F027F91AA80121FEF760FE1AA806F028
:10637000D9F80A2006F0E2FE6F48FEF7C6FB704926
:10638000044611A806F015F90A2221460DA806F0C8
:1063900060F90DA911A806F0E7F901461AA806F060
:1063A0002AF904211AA8FEF741FE1AA806F0BAF845
:1063B0000DA806F0B7F811A806F0B4F8614905A8D1
:1063C00006F0F7F8082241215B48FEF798FB002809
:1063D00000F0AA8211A804F05DF95A495A4D09A8A3
:1063E00006F0E7F80A2006F0A9FE58490DA806F0C5
:1063F000E0F80DA91AA806F0FEF855491AA806F00B
:10640000BFF9014609A806F0E7F81AA806F08AF8CD
:106410000DA806F087F829780A2201F5FA610DA87F
:1064200006F017F90DA91AA806F0E5F848491AA8C8
:1064300006F0A6F9014609A806F076F91AA806F0B2
:1064400071F80DA806F06EF80A2269780DA806F01A
:10645000EEF80DA91AA806F0CEF83D491AA806F0E4
:106460008FF9014609A806F05FF91AA806F05AF854
:106470000DA806F057F8374B1B781BB1364909A811
:1064800006F056F907F00CFD344904461AA806F048
:1064900090F809A91AA806F067F90168204606F0E5
:1064A000E4FC1AA806F03EF809992D4805F05EF8BC
:1064B000002838D023490DA806F07BF809A91AA8AE
:1064C00006F099F822491AA806F05AF9314606F062
:1064D0004BF901460DA806F07FF81AA806F022F83D
:1064E00052230D9A1E491AA804F0FCFF1AA911A8FC
:1064F000FEF786FD0A2006F021FE11A804F010F92F
:10650000044678BB11A804F0FFF80B48FEF760FBC7
:10651000642006F013FE0848FEF756FB41F288306F
:1065200006F00CFEF5E109990D4805F02DF800285C
:10653000C0D10446F0E100BF08DF03207A1E0E0040
:10654000881E0E00EA1E0E00BCDE0320C4D6032007
:10655000FD1A0E0098DE03208C1E0E00911E0E0008
:10656000D4E30320BC49BD4CBD4E1AA807F0E2FCA1
:10657000BC4806F081FF10EE100A08F0ABFE0B4697
:106580000246B949B94805F02FFC1C9AB849B948E8
:1065900005F02AFC2A78A9786B78B748009102F5B3
:1065A000FA62B64905F020FC6979EA782B79B4489B
:1065B0000091B44905F018FC00232360FEF774FC39
:1065C0005622B14911A803F0F8FF40F607073178C9
:1065D000A34D11A803F0E6FF013FF8D11722AB4904
:1065E000AB4E11A803F0E9FFAA48AB490A2210F804
:1065F000013F53548B180232102A5F70A64BF6DD10
:10660000DFF868C2DFF898E2A44F15220CEB020114
:10661000A34811F8151C02F80E10D1550132192AA1
:106620009E49F3D19F4F1E224FF0000C17F801EF47
:1066300003F802E003EB020E0232222A8EF801C0B8
:10664000F4DDDFF830E23F220EEB020717F83F7C63
:1066500087548F540132422AF6D1934F30224FF0A3
:10666000000C17F801EF03F802E003EB020E023210
:106670003E2A8EF801C0F4DDDFF8FCE168220EEB63
:10668000020717F8687C87548F540132702AF6D1BC
:10669000864F4E224FF0000C17F801EF03F802E08E
:1066A00003EB020E0232582A8EF801C0F4DDDFF847
:1066B000D0E197220EEB020717F8977C87548F548E
:1066C00001329D2AF6D164223260794ADFF8C08116
:1066D000126802F1FF3EF4464FF0000932686C4F39
:1066E0006E2A09DC1CF8017F9F549F18023287F83C
:1066F0000190C8F80020F1E7C2223A603268C72A48
:1067000009DC1EF801CF00F802C09EF800C001F8B5
:1067100002C00132F1E7674F80224FF0000C17F8FA
:1067200001EF03F802E003EB020E0232882A8EF832
:1067300001C0F4DDF02333605F4B554F1A68013A16
:106740003368F52B0ADC12F801EF00F803E092F849
:1067500000E001F803E001333B60F1E74C4B00221D
:106760001A6040F60806297811A803F01BFF013EC5
:10677000F9D18A224849514E11A803F01EFF40F278
:106780007D224F4911A803F018FFF522444911A8B2
:1067900003F013FF4FF490724A4911A803F00DFF64
:1067A000F5223E4911A803F008FF6222464911A8CC
:1067B00003F003FF4FF40065317811A803F0F2FEF7
:1067C000013DF9D11422414911A803F0F6FE07F06A
:1067D00067FB3F4906F049FB3E48FDF731FF0A20C1
:1067E00006F0ACFC3C4A3D4903A8FEF745FA04A874
:1067F000FFF70CFA3748FEF73AF90A2006F09EFC3C
:10680000256014253348FEF773F9013D0646F9D19A
:10681000334C124FDFF8CC90D92E01D1FF2D63D02D
:106820002C48FEF765F93B685A1CFF2A80463A60FF
:1068300009F8030007DD2B4911A803F0BEFE002371
:106840003B60FEF731FB013C354601D04646E3E7AD
:1068500011A803F059FF5CE0C0E403209CDE032094
:10686000A2DE0320B4DE0320961E0E0000DF03200C
:106870009C1E0E00EDDE032014DF0320A01E0E0080
:1068800040DD0320AD1E0E0051160E003A160E001C
:106890003CDF0320FFDE0320B7D8032043D90320C9
:1068A000C1D70320ECDE032013DF03203FDD0320EC
:1068B00078DF032063DF0320A4DE0320C0D703209A
:1068C000A7160E0024190E00581A0E00441A0E00C6
:1068D000BA1E0E0008DF0320CF1E0E00CC1D0E00D6
:1068E000C1270900ACE20320124B1A681AB1124901
:1068F00011A803F062FE1148FEF766F90F48FDF794
:1069000091FE11A803F000FF0021132008F021F9E7
:1069100001240DA805F006FE09A805F003FE05A850
:1069200005F000FE204602E005A805F0FBFD25B0BD
:10693000BDE8F0839CDE0320ACE2032008DF0320E7
:1069400038B5064DC56104463430FFF75FF920467F
:1069500040F8185BFFF75AF9204638BD8C280E0026
:1069600038B504680D467CB1E168A9420CD035B158
:1069700029B1284609F036FB10F0FF0F04D020465D
:10698000FEF799FA0446EEE7204638BD08B500F157
:106990001C0302460360436013B100F5077100E079
:1069A000194691600BB102F5077302F11800D3602C
:1069B0000021FEF75BF9104608BDF8B50446C0B1EA
:1069C0000B6800F10806ABB18B6855689768013316
:1069D000E818B8420ED8506065B11A4609682846D2
:1069E00009F0B7FA30460521FEF740F9256001208D
:1069F000F8BDF8BD30460021FEF738F90020F8BD9B
:106A000010B502460C4670B1002900F1080003DB06
:106A10000821FEF72BF903E00A21FEF727F964426B
:106A20001460012010BD10BD70B51646027A12F038
:106A30007F0204460D4605D120210830FEF716F9E5
:106A400022606260237A03F0200303F0FF0073B139
:106A500029462046FFF784FF48B931462046FEF715
:106A600032FA20B1037AC56003F07F03037270BD70
:106A700013B5837B044683B901220DF107014068F9
:106A800006F06CFA10B19DF8073001E04FF0FF33CB
:106A900023EAE37363730123A373607B02B010BD29
:106AA00070B5044600252046FFF7E2FF0A2803D808
:106AB00009281DD2B0B12FE0202819D02F2802D0EC
:106AC0000D2829D114E0A5732046FFF7D1FF2A280D
:106AD00002D02F2816D01CE0A57300262046FFF711
:106AE000C7FF10B94FF0010070BD2F2802D10EB1C1
:106AF000A573D8E7A0F12A035E425E41A573EDE7D6
:106B00000A28D0D0A5732046FFF7B2FF0028F7D19E
:106B1000E8E74FF0020070BD4FF0000070BD08B50F
:106B2000027A02F0200202F0FF0312B1FFF718FF11
:106B300008BD184608BD0000F0B585B08268009217
:106B40000025019593680E46516853605B1A044610
:106B500002910393FFF78CFFA57307462046FFF7CA
:106B600087FF8742A57323D010B94FF0010029E0B9
:106B70005C2818D12046FFF77BFF0028F5D0752848
:106B800001D0114B05E04FF004001BE0904204D00F
:106B900002331A78002AF9D104E0587810B94FF07E
:106BA00002000FE0A57301466846FEF7B7F9D5E786
:106BB0006846FEF7C1F9306010B94FF0030001E0FC
:106BC0004FF0000005B0F0BDE01E0E00A0F15F0325
:106BD0001B2B13D9A0F14103192B0FD9A0F12B03C3
:106BE000DBB20E2B04D9A0F12E0250425041704767
:106BF00047F6E57222FA03F3DB07F4D5012070476C
:106C0000F0B585B004460E46FFF732FF27282DD099
:106C100022282BD0A2680092002501955168936824
:106C2000536020465B1A02910393FFF721FF07464A
:106C3000D0B1FFF7CBFFA8B139466846A573FEF780
:106C40006DF92046FFF714FF0746FFF7BFFF002846
:106C5000F2D16846FEF770F9002830600CBF0320BF
:106C6000002007E0022005E0012003E03146204635
:106C7000FFF762FF05B0F0BD00280FDD11490023CA
:106C8000C20741BFDAB201EB8202D2ED007A20EEF8
:106C9000270A401003F10103F2D170470A4940422C
:106CA000002368B1C20742BFDAB201EB8202D2ED23
:106CB000007A4FEA600048BF20EE270A0133F0E770
:106CC000704700BFA0D6032088D603202DE9F041ED
:106CD0000B782B2B044604D02D2B03D10131012638
:106CE00001E0013100260B78A3F13002092A02D914
:106CF0002E2B40F089804F4F00234FF00A0E08469C
:106D000010F8015BA5F13002D2B2092A09D8BB42C2
:106D100008D80EFB03F3D543AB4203D81344014616
:106D2000EDE71DB10022444F0A250EE007EE903A30
:106D3000F8EE677A002E2360C4ED017A0CBF0823B9
:106D40000A2373E00246B3FBF5F3BB4202F10100F4
:106D5000F8D8521A50180D4611F8017BA7F1300EE1
:106D6000BEF1090F40B2F5D92E2F10D1DFF8DCE0CB
:106D70000A270D4601312A78303AD2B2092A06D8BC
:106D80007345F6D8013807FB032340B2F1E72A78B0
:106D900002F0DF02452A34D16A782D2A02D1A91CDB
:106DA000012704E02B2A14BF691CA91C002700221C
:106DB0004FF00A0C0D4611F801EBAEF1300E5FFA00
:106DC0008EF8B8F1090F19D80CFB02E28518262DB0
:106DD000F0DD47B19FED197ADFED197A002E18BF6B
:106DE000F0EE477A07E09FED177ADFED177A002E75
:106DF00008BFF0EE477AC4ED017A16E017B15242AF
:106E000000E00022297821B1002300222360626083
:106E10000CE007EE903A1044B8EEE70AFFF72CFFBB
:106E20000EB1B1EE400A84ED010A0C232372204614
:106E3000BDE8F08199999919FFFF7F00000000805B
:106E4000000000000000807F000080FFCBCC0C0021
:106E50002DE9F04395B080460D46FFF709FE00246A
:106E60000746A1463846E6B2FFF7B0FE58B13F2CC0
:106E700009D004AB88F80E90E7544046FFF7F8FDC0
:106E800001340746EEE714AB3344002403F8404CCA
:106E90009DF81030742B07D1062105F10800FDF78D
:106EA000E5FE01232B600DE0662B09D105F10800FA
:106EB0000621FDF7DBFE2C60701F18BF012020E0CB
:106EC0006E2B01D1301FF8E704A901A8FFF7FEFEE1
:106ED0009DF80C10019A0A2903D00C2907D0082923
:106EE0000DD105F10800FDF7C1FE2A6005E005F1AE
:106EF0000800029AFDF7BAFE2A60204601E04FF032
:106F0000020015B0BDE8F08370B588B00C460646A7
:106F1000FFF7C6FD01A98DF8040004A8FDF7F2FFF4
:106F2000049B002B3ED1059D15F001053AD130465A
:106F3000FFF79EFD272810D103A93046FFF7FCFD7F
:106F400002A98DF8080006A8FDF7DCFF069B63BBCD
:106F5000079810F0010228D12AE007D82228EBD0A8
:106F600021463046FFF774FFC0B229E05B280BD101
:106F700004F108004021FDF779FE25606560214697
:106F8000304600F056F8EFE77B28E9D104F108001D
:106F90002021FDF76BFE256065602146304600F03C
:106FA000AEF8E1E79DF804000AE09DF8080007E06C
:106FB00004F108000521039DFDF758FE25601046E9
:106FC00008B070BD30B503684360C368836089B0A2
:106FD00004460D4618300021FDF748FE002304F159
:106FE000100104A88DF81E308DF81C20049405951E
:106FF0000694FFF789FF01A98DF8040002A8FDF7A8
:1070000081FF029B8BB9039BDB070ED49DF81D30DB
:107010005BB1237E13F0600F07D103F07F03043BC5
:10702000012B84BF02238DF804309DF8040009B0C1
:1070300030BD70B5037B88B004460E4613B94FF0DF
:1070400005005AE0FFF714FD5B2810D10023A3735D
:107050002046FFF725FD01A98DF8040002A8FDF7E1
:1070600051FF029BBBB9039BDA0714D416E04FF023
:10707000020042E0237B013B23732046FFF744FFDD
:10708000237B8DF804000133237301A904A8FDF7C5
:1070900039FF049B53B19DF804002EE02046FFF712
:1070A000E7FC5D2820D10020A07326E0059BDB07CC
:1070B000F1D42046FFF7F4FC01A98DF8040006A8DE
:1070C000FDF720FF069B002BE5D1079B13F0010580
:1070D000E1D12046FFF7CCFC5D28E4D02046FFF745
:1070E000C7FC2C28C3D1A57321683046FDF7EBFE01
:1070F00001460028BED14FF0030008B070BDF0B5C6
:10710000037B8FB005460E4613B94FF00500A1E092
:10711000FFF7AEFC7B2840F095800023AB73284638
:10712000FFF7BEFC69468DF8000002A8FDF7EAFEF5
:10713000029B002B73D1039810F001046FD12846F5
:10714000FFF796FC7D2856D001A92846FFF758FD89
:1071500069468DF8000004A8FDF7D4FE049B002BBF
:107160005DD1059BD9075DD559E0037A63F07F03B4
:107170000372019BC36004462846FFF791FC6946F1
:107180008DF8000006A8FDF7BDFE069B002B46D13A
:10719000079B13F0010742D12846FFF769FC3A2804
:1071A00050D12B7BAF73013B2B7321462846FFF751
:1071B000ABFE2B7B8DF8000001332B73694608A8CA
:1071C000FDF7A0FE089B53BB099BDA0727D428468E
:1071D000FFF766FC69468DF800000AA8FDF792FEED
:1071E0000A9BE3B90B9810F0010418D12846FFF769
:1071F0003FFC7D2802D1AC7320462BE02846FFF7E8
:1072000037FC2C281ED1AC732846FFF749FC694691
:107210008DF800000CA8FDF775FE0C9BABB19DF836
:10722000000017E001993046FFF79AFB044600285A
:10723000A2D129683046FDF746FE002895D14FF0CF
:10724000030007E04FF0020004E00D9BDB077FF531
:107250007BAFE4E70FB0F0BD2DE9F0410B782B2BAD
:10726000044604D02D2B03D10131012601E0013168
:1072700000260B78A3F13002092A02D92E2B40F008
:1072800089804F4F00234FF00A0E084610F8015B2B
:10729000A5F13002D2B2092A09D8BB4208D80EFBA8
:1072A00003F3D543AB4203D813440146EDE71DB1C8
:1072B0000022444F0A250EE007EE903AF8EE677A76
:1072C000002E2360C4ED017A0CBF08230A2373E06B
:1072D0000246B3FBF5F3BB4202F10100F8D8521AA3
:1072E00050180D4611F8017BA7F1300EBEF1090FC1
:1072F00040B2F5D92E2F10D1DFF8DCE00A270D4679
:1073000001312A78303AD2B2092A06D87345F6D824
:10731000013807FB032340B2F1E72A7802F0DF02CD
:10732000452A34D16A782D2A02D1A91C012704E00C
:107330002B2A14BF691CA91C002700224FF00A0C3D
:107340000D4611F801EBAEF1300E5FFA8EF8B8F190
:10735000090F19D80CFB02E28518262DF0DD47B184
:107360009FED197ADFED197A002E18BFF0EE477AFB
:1073700007E09FED177ADFED177A002E08BFF0EED9
:10738000477AC4ED017A16E017B1524200E00022BC
:10739000297821B100230022236062600CE007EE0F
:1073A000903A1044B8EEE70AFFF766FC0EB1B1EE72
:1073B000400A84ED010A0C2323722046BDE8F081C7
:1073C00099999919FFFF7F000000008000000000DC
:1073D0000000807F000080FFCBCC0C007FB590E8E0
:1073E000300010340E4620462946FFF798FB00284F
:1073F00059D0037A03F07F03082B08D00A2B52D10F
:107400000368B3F1004F8CBF0023012302E003683F
:10741000DB43DB0F002B46D029462046FFF77FFBDE
:10742000002843D0037A03F07F03043B082B3CD8A9
:10743000DFE803F00909053B053B073B2400006832
:1074400014E000680DE0016801A8FFF705FF9DF852
:107450000C3001980A2B04D00C2B0CD0082B24D113
:1074600004E0B0F1004F20D840421FE0B0F1004FDF
:1074700028BF00201AE0DDED027A01E0D0ED007AAD
:107480009FED0B7AF4EEC77AF1EE10FA0DDB9FED6B
:10749000097AF4EEC77AF1EE10FA06D8FDEEE77A33
:1074A00017EE900A02E0306800E0002004B070BDE2
:1074B000000000CF0000004F00680368DB68184739
:1074C00038B5044608460D4608F0CEFD294602466A
:1074D0002046FFF7F1FF63681844606038BD10B5BF
:1074E0000446006803689B689847636818446060B6
:1074F00010BD000070B505460C4619B91149FFF7DB
:10750000DFFF70BD2221FFF7EAFF013C14F8011FE5
:1075100071B10D4B13F8026C7EB1023313F8032CDA
:107520008A42F7D15C212846FFF7D9FF314604E0B3
:1075300022212846FFF7D3FF70BD2846FFF7CFFF73
:10754000E4E700BFEB1E0E00DE1E0E000000000090
:10755000F8B5DFED557AB4EEE70A0623F1EE10FA3E
:107560002DED028B0446B0EE408A83721CDB4F4B3C
:107570004F4AA3F118010025202772ED017AF4EE9D
:10758000C87AF1EE10FA9CBFD3ED057AED19A3F19C
:1075900004039CBF28EE278A2DB299424FEA670761
:1075A000EBD14FF0FF3602E0202705260025B5EE8F
:1075B000C08AF1EE10FA21DD18EE100A07F08AFEFB
:1075C00037A3D3E9002308F055F9B8B1394A3A494D
:1075D000731C13D0B300D018D0ED007AF4EEC87A43
:1075E000F1EE10FA06DD0B44D3ED007AED1B28EE28
:1075F000278A2DB2013E7F1076B2E9E7FCEEC87A09
:107600002E49258117EE903A17EE902AC4ED007AA4
:107610000A26092A07D9B1FBF6F1B2FBF6F2A07AE5
:107620000138A072F5E707EE903AB8EE670A07EE68
:10763000901A38EE408AB8EEE70A28EE008AFCEE8F
:10764000C87AB8EE670A17EE900A38EE408A38EE2C
:10765000088ABCEEC88A18EE102A0244914201D969
:1076600062600AE000220133626023602DB1092BC1
:1076700081BF01350123258123600A216368B3FBA3
:10768000F1F201FB12333BB994F90A30002B03DD10
:10769000013B6260A372F1E7BDEC028B2046F8BDAE
:1076A000F168E388B5F8E43E8096184B88D603204D
:1076B000B8D6032070D60320A0D6032040420F0086
:1076C00010B5521A0446FFF7F7FE6368184460606D
:1076D00010BD30B587B00B460DF116010A460A25DC
:1076E000B3FBF5F405FB1433303301F8013D2346B9
:1076F000002CF5D1FFF7E4FF07B030BDF0B52DED5C
:10770000028BB4EE400AF1EE10FA8BB00446B0EEF4
:10771000408A04D73C492046FFF7D2FE6FE09FED38
:107720003B7AF0EEC07AF4EE477AF1EE10FAF1DC33
:10773000B5EEC00AF1EE10FA04D52D21FFF7CFFE09
:10774000B1EE488AB0EE480A01A8FFF701FF01999F
:107750002046FFF7BEFF9DF90E10C9B108AD029B90
:1077600008462A460A27013840B2461C08D0B3FB17
:10777000F7F607FB1633303305F8013D3346F2E7E1
:10778000C9B2511A2E2301F8013D2046FFF798FF98
:10779000BDF90C30002B17DA1D492046FFF790FE8B
:1077A000BDF90C300DF126015B420A460A2593FB18
:1077B000F5F005FB1033303301F8013D0346002896
:1077C000F5D12046FFF77CFFBDF90C30002B16DD0C
:1077D00065212046FFF783FE0DF12601BDF90C302F
:1077E0000A460A2593FBF5F005FB1033303301F808
:1077F000013D03B2002BF5D12046FFF761FF0BB02E
:10780000BDEC028BF0BD00BFEB1E0E00FFFF7F7FC3
:10781000F01E0E0038B5037A03F07F03062B0546F1
:107820000C4667D008D8022B6AD3032B54D90168C1
:107830002046FFF75FFE38BD0C2B15D00AD8082B69
:1078400053D00A2B5CD105682D212046FFF747FE57
:1078500029464BE0202B1ED0402B51D15B212046E6
:10786000FFF73DFE2D6812E090ED000A0846FFF795
:1078700045FF38BD28462146FFF7CCFF2846FDF7D7
:107880001AFB054628B12C212046FFF728FE002DC3
:10789000F0D15D211CE07B212046FFF720FE2D6802
:1078A000ADB1E9682046FFF725FE3A212046FFF7F3
:1078B00016FE28462146FFF7ADFF2846FDF7FBFAE6
:1078C000054620B12C212046FFF709FEE8E77D217F
:1078D0002046FFF704FE38BD90E806002046FFF77B
:1078E000EBFD63681844606038BD01682046FFF70F
:1078F000F0FE38BD03680BB1044902E0044900E022
:1079000004492046FFF7DCFD38BD00BFF31E0E0022
:10791000F81E0E00EB1E0E0030B5ADF5157D0146CC
:10792000054604AC444803F04BFE204617232A4684
:10793000414903F0D7FD204602F0F2FE68B906F097
:10794000AFFA3E4905F091FA0DA83C4A3C49FDF7D3
:1079500093F90EA8FEF75AF96AE00DA8FFF716F89A
:107960000DAA384911A8FFF75FF80DAA3649FFF7AD
:1079700024F80DAA354911A8FFF756F80DAA344985
:10798000FFF71BF80DAA334911A8FFF74DF80DAA10
:107990003149FFF712F80DAA304911A8FFF744F852
:1079A0002F4B1968FFF72CF80DAA2E4911A8FFF7E5
:1079B0003BF82D4B1968FFF723F80DAA2B4911A8A6
:1079C000FFF732F80DAA2A49FEF7F7FF0DAA294959
:1079D00011A8FFF729F80DAA2749FEF7EEFF0DAA17
:1079E000264911A8FFF720F80DAA2549FEF7E5FF63
:1079F0000DAA244911A8FFF717F80DAA2249FEF78E
:107A0000DCFF0023694611A801930094FFF702FFF1
:107A1000019B53B91D49684604F0CBFD684602211D
:107A2000FDF704FB684604F07DFD204602F06CFE85
:107A30000DF5157D30BD00BFD4E30320FE1E0E0002
:107A40001B1F0E00211F0E0078DF0320251F0E00D4
:107A5000A4DE0320311F0E0068DF03203A1F0E0052
:107A600094DE0320471F0E00B8D60320531F0E00DC
:107A70001CDF0320601F0E0040DF03206D1F0E007F
:107A800054DF03207A1F0E00C4DE0320821F0E0085
:107A900038B5044608460D4608F0E6FA294602467F
:107AA0002046FDF75AFA63681844606038BD10B587
:107AB0000446006804F04BFE63680133636010BD48
:107AC00070B505460C4619B91149FFF7E1FF70BDC5
:107AD0002221FFF7ECFF013C14F8011F71B10D4B9F
:107AE00013F8026C7EB1023313F8032C8A42F7D1EB
:107AF0005C212846FFF7DBFF314604E022212846BF
:107B0000FFF7D5FF70BD2846FFF7D1FFE4E700BFC0
:107B1000EB1E0E00DE1E0E0010B5521A0446FDF7D5
:107B20001CFA63681844606010BD30B587B00B461E
:107B30000DF116010A460A25B3FBF5F405FB1433D3
:107B4000303301F8013D2346002CF5D1FFF7E4FF67
:107B500007B030BDF0B52DED028BB4EE400AF1EE6A
:107B600010FA8BB00446B0EE408A04D73C49204658
:107B7000FFF78EFF6FE09FED3B7AF0EEC07AF4EEF8
:107B8000477AF1EE10FAF1DCB5EEC00AF1EE10FA28
:107B900004D52D21FFF78BFFB1EE488AB0EE480ADD
:107BA00001A8FFF7D5FC01992046FFF7BEFF9DF91C
:107BB0000E10C9B108AD029B08462A460A270138B3
:107BC00040B2461C08D0B3FBF7F607FB1633303340
:107BD00005F8013D3346F2E7C9B2511A2E2301F8E8
:107BE000013D2046FFF798FFBDF90C30002B17DA56
:107BF0001D492046FFF74CFFBDF90C300DF1260161
:107C00005B420A460A2593FBF5F005FB103330333F
:107C100001F8013D03460028F5D12046FFF77CFF1F
:107C2000BDF90C30002B16DD65212046FFF73FFF24
:107C30000DF12601BDF90C300A460A2593FBF5F03B
:107C400005FB1033303301F8013D03B2002BF5D1B1
:107C50002046FFF761FF0BB0BDEC028BF0BD00BF0B
:107C6000EB1E0E00FFFF7F7FF01E0E0038B5037A7B
:107C700003F07F03062B05460C4667D008D8022B7D
:107C80006AD3032B54D901682046FFF719FF38BD8A
:107C90000C2B15D00AD8082B53D00A2B5CD10568C1
:107CA0002D212046FFF703FF29464BE0202B1ED055
:107CB000402B51D15B212046FFF7F9FE2D6812E0E1
:107CC00090ED000A0846FFF745FF38BD28462146DB
:107CD000FFF7CCFF2846FDF7EEF8054628B12C212A
:107CE0002046FFF7E4FE002DF0D15D211CE07B2152
:107CF0002046FFF7DCFE2D68ADB1E9682046FFF7AE
:107D0000DFFE3A212046FFF7D2FE28462146FFF744
:107D1000ADFF2846FDF7CFF8054620B12C212046BF
:107D2000FFF7C5FEE8E77D212046FFF7C0FE38BD1E
:107D300090E806002046FDF710F96368184460607B
:107D400038BD01682046FFF7F0FE38BD03680BB16F
:107D5000044902E0044900E004492046FFF798FE88
:107D600038BD00BFF31E0E00F81E0E00EB1E0E0005
:107D7000F0B591E85000103487B0054631462046F2
:107D80001746FEF7CCFE88B3037A03F07F03043B6B
:107D9000012B2BD820463146FEF7C1FE044658B1D0
:107DA000037A03F07F03043B012B05D8016819B166
:107DB000284604F0FEFB1DE002AE1049304604F0F8
:107DC000F8FB00230096019324B169462046FFF793
:107DD0004DFF03E00A496846FFF75AFE3146284640
:107DE00004F090FB304604F09DFB03E03946284642
:107DF00004F001FC284607B0F0BD00BFEA1E0E00EB
:107E0000EB1E0E002DE9F04FADF51B7D0C46024632
:107E1000012379490AA803F065FB0AA802F080FC57
:107E200013AD04F1080604F11C0704F1380804F14D
:107E30006A0904F17E0A04F1920B002800F09B808D
:107E40002846FEF7A3FD4FF00A020AA92846FFF7CD
:107E5000B9F801A98DF8040004A8FDF753F8049BB4
:107E6000002B40F0BB80059BDB0700F1B780634B24
:107E7000634A039302A906A80295FFF779FF082237
:107E80000699204608F0DBF806A804F04BFB5D4B92
:107E90005D4A039302A906A80295FFF769FF142221
:107EA0000699304608F0CBF806A804F03BFB574B88
:107EB000574A039302A906A80295FFF759FF142217
:107EC0000699384608F0BBF806A804F02BFB514B86
:107ED0005149079306A80695FFF780FA4F4B206398
:107EE0004F49079306A80695FFF778FA4D4B606354
:107EF0004D4A039302A906A80295FFF739FF3222E3
:107F00000699404608F09BF806A804F00BFB474B87
:107F1000474A039302A906A80295FFF729FF1422F6
:107F20000699484608F08BF806A804F0FBFA414B86
:107F3000414A039302A906A80295FFF719FF1422EC
:107F40000699504608F07BF806A804F0EBFA3B4B84
:107F50003B4A039302A906A80295FFF709FF3222C4
:107F60000699584608F06BF806A804F0DBFA0AA850
:107F700002F0CAFB0CE005F093FF324904F075FFF4
:107F80002846304A3049FCF777FE14A8FDF73EFE3C
:107F900021461B4804F03AFB31461B4804F036FBEF
:107FA00039461B4804F032FB1B4B226B1A601C4BFA
:107FB000626B1D481A60414604F028FB49461C4884
:107FC00004F024FB51461C4804F020FB59461C4891
:107FD00004F01CFB0DF51B7DBDE8F08F05F060FF84
:107FE0001A4904F042FF06A8184A1749FCF744FE54
:107FF00007A8FDF70BFEBAE7D4E30320211F0E000C
:1080000078DF0320251F0E00A4DE0320311F0E00A1
:1080100068DF03203A1F0E0094DE0320471F0E0086
:10802000B8D60320531F0E001CDF0320601F0E0074
:1080300040DF03206D1F0E0054DF03207A1F0E0067
:10804000C4DE03209A1F0E00CA1F0E00D11F0E00AF
:1080500030B58FB08449044605A804F0AAFA04217B
:1080600005A8FCF7E3FF05A804F05CFA7F4905A822
:1080700004F0C1FA7E4B7F4A1B6812887E4805A92E
:1080800002F0A0FB054605A804F04CFA0DB97B49A7
:108090000DE07B4905A804F0AEFA05A9764802F088
:1080A000F3FB054605A804F03DFA5DB9754905A83E
:1080B00004F07FFA05A80221FCF7B8FF05A804F038
:1080C00031FACEE0704905A804F095FA05A96A488E
:1080D00002F0FCFB054605A804F024FA0DB96B4933
:1080E000E5E7214605A804F086FA05A9624802F0F2
:1080F0000FFC054605A804F015FA002D44D164498B
:1081000005A804F056FA032105A8FCF78FFF05A87F
:1081100004F008FA214605A804F06DFA05A95648AE
:1081200002F018FC054605A804F0FCF9B5B9594958
:1081300001A804F03EFA214601A804F015FB01460F
:1081400005A804F058FA022105A8FCF76FFF05A85E
:1081500004F0E8F901A804F0E5F982E04E4901A82D
:1081600004F027FA214601A804F0FEFA014605A80A
:1081700004F041FA032105A8FCF758FF05A804F014
:10818000D1F901A804F0CEF9444901A804F011FA8C
:10819000434901A804F0E8FA424904F0F1FA014623
:1081A00005A804F028FA05A9334802F043FD044667
:1081B00005A804F0B7F901A804F0B4F90CB93A49DC
:1081C00075E73A493A4803F0FBF920B905F068FE33
:1081D000384904F04AFE05A81723344A344903F00D
:1081E00081F905A802F09CFA80B1234806F021F934
:1081F000B8B1214806F008FB0028F6D01E4806F06A
:10820000ACF9C1B205A802F0CDF9F2E72A4901A8FC
:1082100004F0CFF901A80221FCF708FF01A804F03F
:1082200081F905A802F070FA0A2004F087FF1248CD
:1082300002F00AFB104802F0F3FB0A2004F07EFF74
:108240001E4901A804F0B5F904210DEB0100FCF76B
:10825000EDFE01A804F066F914481949FFF7D2FDB4
:1082600000E000200FB030BDFC1F0E001CDF03201B
:10827000BCD703203CDA032048DD0320FF1F0E009B
:1082800040DF03201C200E0054DF032029200E00B5
:108290006F1C0E00871C0E009A1C0E0036200E006C
:1082A00078DF03204A200E0056200E0068200E00C2
:1082B000D4E3032073200E0091200E00AD200E00A9
:1082C000BCD603202DE9F04FBE4FC9B03D46BE4994
:1082D0003C6806A804F06DF9FCF7E6FD04A8BB496C
:1082E000FCF744FD04A803F0EDFF80B1B8493EA8B7
:1082F00004F05FF904213EA8FCF798FE3EA804F0C4
:1083000011F94FF47A7004F019FF03F088FF04A804
:1083100003F0DFFF002800F0718100242E68009434
:10832000234622460721204604F03CFFA948234665
:1083300022462146406803F097FCA7493EA804F076
:1083400038F93EA80421FCF771FE3EA804F0EAF8D3
:10835000A048FCF7B3FC044628BB013E4FF47A70FA
:1083600004F0ECFE8C2EF3DC012004F03BFF012135
:10837000072006F0DDFB642004F0E0FE97493EA8EC
:1083800004F017F904213EA8FCF750FE3EA804F0C3
:10839000C9F80121072006F0DCFB41F2883004F027
:1083A000CDFE2146D1E02E684FF496735E43002E39
:1083B00040F3F480062006F0E5FB00286FD1044668
:1083C000062006F0DFFB20B96420643404F0B6FE1A
:1083D000F6E783493EA804F0ECF80A22314634A8B7
:1083E00004F037F934A93EA804F0BEF97D490268CB
:1083F0002BA8FCF741FC2CA8FDF708FC34A804F0DE
:1084000091F83EA804F08EF872493EA805F092FD5E
:1084100075492BA804F0CDF80A22409922A804F04F
:1084200018F922A92BA804F09FF9704904F0A8F9C3
:10843000014634A804F0DFF8042134A8FCF7F6FD67
:1084400034A804F06FF822A804F06CF82BA804F00C
:1084500069F8012004F0C6FE0121072006F068FB40
:10846000642004F06BFE00266FF00908409B93FB2C
:10847000F8F39E4211D80021072006F06AFB4FF462
:10848000FA7004F05BFE0121072006F062FB4FF456
:10849000FA7004F053FE0136E8E72E6800E000248D
:1084A0000722002310460093114604F07BFEFCF7E0
:1084B000FBFC642004F042FEFCF798FCB4F5FA6F74
:1084C00006F1FF367FF773AF42F20F739C4265DD12
:1084D000012004F087FE0121072006F029FB03F0AC
:1084E00023FC2C6803F030FC0646002848D10146E6
:1084F000072006F02EFBFA2004F020FE01210720C1
:1085000006F027FBFA2004F019FE8C2C34DC012045
:1085100004F068FE0121072006F00AFB642004F045
:108520000DFE33493EA804F044F804213EA8FCF7B0
:108530007DFD3EA803F0F6FF0121072006F009FBB0
:1085400041F2883004F0FAFD3146072006F001FBC5
:108550004FF47A7004F0F2FD264B1B680093022260
:1085600040F2DC5306213EA8FCF7EAFB4FF47A7098
:1085700004F0E4FD00F06BBD013CFCF737FCB1E713
:108580004FF0FF311C4805F014F907220023009337
:108590001146104604F006FE00F059BD012004F01B
:1085A00021FE0121072006F0C3FA0021072006F072
:1085B000D0FA0A2004F0C2FD4FF41670FDF7ECFA71
:1085C000D4E700BFBCD70320EA1E0E0040E403201E
:1085D000B3200E00C0E40320B6200E00C3200E001E
:1085E000D5200E00CC1D0E00F3200E0002210E003F
:1085F00005210E00A8E20320F0E603209F493EA8D3
:1086000003F0D7FF04213EA8FCF710FD3EA803F0BD
:1086100089FF03F0DFF89A48FCF750FBB0B94FF43C
:108620007A70013C04F08AFDFCF73EFC002CF2DC81
:10863000944B954901223EA81A7003F0BAFF3EA858
:108640000321FCF7F3FC3EA803F06CFF2C688D4E71
:1086500003F0C0F8814603F077FBDFF82882D0B939
:108660003378C3B94FF47A70013C04F067FDFCF72E
:108670001BFCAA2CEFDC854B01221A7003F05CFB7B
:1086800083493EA803F095FF3EA80321FCF7CEFCEA
:108690003EA803F047FF2E6803F09CF87D4904468E
:1086A00034A803F086FFC9EB04040A224FF47A7160
:1086B0002BA8B4FBF1F103F0F2FF2BA934A804F0CE
:1086C00053F801463EA803F096FF04213EA8FCF7AC
:1086D000ADFC3EA803F026FF2BA803F023FF34A82F
:1086E00003F020FF6C4804F0DDFE06210AA803F029
:1086F000EAFF694804F0C0FE06210EA803F0E3FF7C
:108700005F4934A805F016FC64491EA803F051FF28
:108710000AA91EA804F028F8614904F031F80EA94E
:1087200004F022F85F4904F02BF80A220446369937
:1087300022A803F08EFF22A9204604F015F85A491A
:1087400004F01EF8044634A804F0B6FD06212BA858
:1087500003F0B9FF2BA9204604F006F8534904F0B2
:108760000FF801463EA803F046FF04213EA8FCF79F
:108770005DFC3EA803F0D6FE2BA803F0D3FE22A892
:1087800003F0D0FE1EA803F0CDFE34A804F094FD43
:10879000F3EE097AB4EEE70AF1EE10FA44BF0123D2
:1087A00088F8003098F80030002B40F09780374B65
:1087B0001C78ECB13E492BA803F0FBFE3D492BA8E9
:1087C00003F0D2FF3C4903F0DBFF01463EA803F073
:1087D00012FF3EA8FFF73CFC3EA803F0A3FE2BA827
:1087E00003F0A0FE354B36491868FFF795F875E0A1
:1087F000344B35491B788DF8003022463C233EA887
:1088000005F0D4F83FA8FDF701FA304B30491B784A
:108810008DF8003022463C233EA805F0C7F83FA85B
:10882000FDF7F4F90A9A2B493EA8FCF725FA3FA870
:10883000FDF7ECF90A2236993EA803F00AFF3E9AAA
:1088400025492BA8FCF718FA2CA8FDF7DFF93EA85C
:1088500003F068FE03F078FA10B1204603F08CFABA
:10886000FCF7F7F9002840F0F783A92E40F32D8498
:108870004FF4FA7004F062FC013EF1E720210E0093
:10888000C0E4032098DE032024210E00ECDE032048
:1088900030210E009B1D0E00B4DE03203C210E0093
:1088A00042210E0047210E004E210E006D1B0E00CE
:1088B00036200E0078DF0320FD1A0E00F0DE0320C4
:1088C000BCD60320A1DE0320BF1B0E0004DF032063
:1088D000AA1B0E0056210E005F210E00B74C3EA8C9
:1088E00002F09DFBBDF8FC303E98A380206005F0AF
:1088F000D7FA21780A22064601F5FA613EA803F06C
:10890000A8FE3E99304604F09DFA3EA803F00AFE08
:1089100005F0C6FA2F2104F099FA05F0C1FA0A22EF
:10892000064661783EA803F082FE3E99304604F088
:1089300089FA3EA803F0F6FD05F0B2FA2F2104F003
:1089400085FA05F0ADFA0A220646A1783EA803F0A2
:108950006EFE3E99304604F075FA3EA803F0E2FD43
:1089600005F09EFA202104F071FA05F099FA0A2226
:108970000646E1783EA803F05AFE3E99304604F0E0
:1089800061FA3EA803F0CEFD05F08AFA3A2104F020
:108990005DFA05F085FA0A22064621793EA803F021
:1089A00046FE3E99304604F04DFA3EA803F0BAFD6B
:1089B00005F076FA3A2104F049FA05F071FA0A2234
:1089C000064661793EA803F032FE3E99304604F037
:1089D00039FA3EA803F0A6FD05F062FA04F039FA70
:1089E000A378012B264603D1E3780F2B00F089836F
:1089F0006179E378A2780191217900913EA87049CC
:108A000003F0F2F93EA906A803F000FE06A92BA880
:108A100003F0F1FD2BA8FDF78BFB04462BA803F018
:108A200081FDF4B9674922A803F0C3FD06A922A875
:108A300003F09AFE01462BA803F0DDFD01212BA8CF
:108A4000FCF7F4FA2BA803F06DFD22A803F06AFDF1
:108A500041F2883004F072FB4FF49670FDF79CF8F9
:108A6000EFE2594804F008FDDFED587A584B20EE4C
:108A7000270AD3ED007AF8EEE77AB4EEE70AF1EED2
:108A800010FA33D5534922A803F093FD4E4804F061
:108A9000F3FC06211EA803F016FE1EA922A803F06F
:108AA00063FE4D4903F06CFE01462BA803F0A3FDC5
:108AB00001212BA8FCF7BAFA2BA803F033FD1EA85E
:108AC00003F030FD22A803F02DFD0021132006F055
:108AD00040F84FF47A7004F031FB4FF46160FDF719
:108AE0005BF84FF47A7004F029FBAAE298F8004092
:108AF000002C40F01D8206A922A803F07CFD374916
:108B00002BA803F078FD234621462BAA22A8FCF7C8
:108B100093FC04462BA803F005FD22A803F002FDF8
:108B2000002C63D12E492BA803F043FD2BA8022172
:108B3000FCF77CFA2BA803F0F5FC2A48FCF7BEF8FA
:108B400020B94FF47A7004F0F9FAF6E7254F0025C2
:108B500006A922A803F04FFD20492BA803F04BFDE6
:108B600000232BAA012122A8FCF766FC18B9B5FA4C
:108B700085F4640900E000242BA803F0D3FC22A8AC
:108B800003F0D0FC002C3CD017492BA803F011FDBA
:108B900002212BA8FCF74AFA2BA803F0C3FCFCF730
:108BA00083F9013500221146786803F065F8002842
:108BB000CED04FF4FA7004F0C1FAF3E7BCDE032024
:108BC0006A210E007F210E00B4DE03200000C8429F
:108BD000B8D603209E210E00C2210E00C4DE032061
:108BE000C5210E00C0E40320D0210E00AB492BA804
:108BF00003F0DFFC2BA80421FCF718FA2BA803F0E4
:108C000091FC7178A64C013901EB8101214412A835
:108C100003F0CFFC12A91AA803F0EDFC3178A14EA5
:108C20000A2201F5FA6116A803F013FD16A91AA885
:108C300003F09AFD9C4903F0A3FD014622A803F02E
:108C4000DAFC9A491EA803F0B4FC99491EA803F067
:108C50008BFD01462BA803F0CEFC01232BAA19465D
:108C600022A8FCF7E9FB05462BA803F05BFC1EA835
:108C700003F058FC22A803F055FC16A803F052FCA0
:108C80001AA803F04FFC12A803F04CFC2746002D55
:108C90006FD188492BA803F08CFC02212BA8FCF78C
:108CA000C5F92BA803F03EFC41F2883004F046FAE7
:108CB0008148FCF703F80028FAD0002571780139C3
:108CC00001EB8101394412A803F073FC12A91AA820
:108CD00003F091FC31780A2201F5FA6116A803F03D
:108CE000B8FC16A91AA803F03FFD6F4903F048FD30
:108CF000014622A803F07FFC6C491EA803F059FC32
:108D00006B491EA803F030FD01462BA803F073FC4D
:108D100001232BAA194622A8FCF78EFB18B9B5FA35
:108D200085F4640900E000242BA803F0FBFB1EA8D7
:108D300003F0F8FB22A803F0F5FB16A803F0F2FB02
:108D40001AA803F0EFFB12A803F0ECFBECB15B49AF
:108D50002BA803F02EFC02212BA8FCF767F92BA807
:108D600003F0E0FB01355448FBF7A8FF0028FAD0D8
:108D7000A4E753492BA803F01CFC04212BA8FCF703
:108D800055F92BA803F0CEFB0025727833780092BA
:108D90004C4A4D49126803F5FA633EA803F024F8E3
:108DA00005F07EF8494904462BA803F002FC3EA9D1
:108DB00022A803F0FEFB22A92BA803F0D5FC016832
:108DC000204604F052F822A803F0ACFB2BA803F0D5
:108DD000A9FB3EA93E4802F0C9FB002800F09B8099
:108DE00005F05EF83B4904F040F83EAA01233849FB
:108DF0002BA802F077FB2BA93748FCF701F90122D9
:108E0000354922A802F0EAFB22A801F089FC0028DB
:108E100000F0828122A801F04BFC002840F07C8108
:108E200022A801F043FC014606A803F0EFFB05F081
:108E300037F82A4904462BA803F0BBFB06A92BA848
:108E400003F092FC0168204604F00FF82BA803F011
:108E500069FB22A801F058FC06A91EA803F0CBFB71
:108E60001F492BA803F0C7FB02232BAA00211EA831
:108E7000FCF7E2FA18B9B5FA85F4640900E00024B9
:108E80002BA803F04FFB1EA803F04CFB54B3013595
:108E90000948FBF713FF0028FAD0DDE7E1210E00B7
:108EA00080D70320BCDE0320E6210E0036200E0012
:108EB00078DF0320EB210E00C0E40320F6210E0032
:108EC00007220E00A4DE03200C220E001B220E003F
:108ED000D4E3032029220E001CDD032085220E008E
:108EE000C4DE03203EA92BA803F063FB06A92BA830
:108EF00003F03AFC01689A4802F062FB2BA803F0E9
:108F000011FB2BA80122974902F068FB2BA922A88C
:108F1000FCF776F878E704F0C3FF934903F0A5FF68
:108F20002BA8924A9249FBF7A7FE2CA8FCF76EFEED
:108F30002BA8904D02F073F82B98BDF8B030286044
:108F40008D48AB8002F03DF98C4B1868012815D094
:108F500002282DD0002846D1EC78AB786A782978A1
:108F6000062C07D90A2C40F2E4800E2C40F2E58052
:108F7000013317E0029001900720E1E0E878C31F79
:108F80000A2B08D800240130AB786A78297802943B
:108F90000194C0B2D4E0122825D8AB786A78297839
:108FA000013300200290019007200090DBB2C8E05E
:108FB0000024AB786A78297802940194E8780090CC
:108FC00001F5FA612BA801F0DDFE234601222146BE
:108FD00000941EA801F084FF22A81EAA2BA901F06C
:108FE00072FF22A8B3E00024654922A803F0E1FA49
:108FF0000A2221461EA803F02CFB1EA922A803F07A
:10900000B3FB01462BA803F0F6FA04212BA8FCF7CA
:109010000DF82BA803F086FA1EA803F083FA22A805
:1090200003F080FA2046FCF7B7FD0EA803F07AFAA9
:109030000AA803F077FA06A803F074FA49B0BDE86D
:10904000F08F0EA803F06EFA0AA803F06BFA06A8D8
:1090500003F068FAFFF73BB9A92E36DD04F002F8F9
:10906000002832D004F056F8814604F04BF88246CE
:1090700004F03EF8834604F01DF8044604F024F89A
:10908000064604F02BF8F6B2C0B2E4B25FFA8BF3F6
:109090005FFA8AF21FFA89F10290019600943EA8C5
:1090A00001F070FE3EA801F04EFFFBF7D2FD354AFD
:1090B00035493EA8FBF7E0FD3FA8FCF7A7FD334983
:1090C0003EA803F076FA042104E031493EA803F0FB
:1090D00070FA02213EA8FBF7A9FF3EA803F022FA8E
:1090E0002C682C492C4803F05DFB00283FF462AB50
:1090F000002C7FF75FAB4FF47A7004F01FF8013C4F
:10910000EFE726493EA803F054FA3EA8FCF794FD89
:109110003EA803F007FA6BE4124801F0F5FA04F0F8
:10912000BFFE1F4903F0A1FE3EA90D4802F03AFA26
:10913000F6E6029001900B2002E0029001900F20D1
:10914000009001F5FA612BA801F01CFE2BA801F09C
:10915000A7FE0446284601F0A3FE241A44E700BFF8
:10916000D4E303201CDD03203C220E0057220E0016
:10917000CC1D0E00BCDE0320A0DE032094DE032005
:10918000AD230E0060220E00CA1F0E006D220E00DD
:1091900073220E0064210E00A4DE0320EA1E0E00DE
:1091A0009B220E0010B587488EB0FBF77BFD8648EA
:1091B00004F0E4F9844804F0F7F8844802F0B6FEBD
:1091C000FBF772FE824A8349834804F0DBFA0024ED
:1091D000824A8349804804F0D5FA234622468149D1
:1091E00001940094804802F0BFFD012322467D498E
:1091F000019400947D4802F0B7FD4FF0FF317C48A8
:1092000004F0D7FA4FF49671794804F0D2FAB9EE27
:10921000040A03F00BFF0121132005F089FC012152
:10922000072005F085FC2146082005F081FC01217E
:10923000072005F07DFC2146062005F079FC05F0AD
:109240002DFD6C4904F0B6FF05F028FD04F0B6FFD3
:10925000FBF79CFE5C4804F00FF9DFED677A674B83
:1092600020EE270AD3ED007AF8EEE77AB4EEE70AAB
:10927000F1EE10FA2ED5624906A803F09AF9524889
:1092800004F0FAF8062102A803F01DFA02A906A8C4
:1092900003F06AFA5B4903F073FA01460AA803F087
:1092A000AAF901210AA8FBF7C1FE0AA803F03AF9BE
:1092B00002A803F037F906A803F034F92146132079
:1092C00005F047FC4FF47A7003F038FF4FF461600B
:1092D000FCF762FC4C4906A803F06BF9002211462A
:1092E0000AA80A9202F09EFA0A220A9902A803F03A
:1092F000B0F902A906A803F037FA01460AA803F05C
:109300007AF904210AA8FBF791FE0AA803F00AF9EA
:1093100002A803F007F906A803F004F901F0F2FD32
:1093200004F0BEFD4FF4E13104F0AEFD374801F02A
:1093300048FF374906A803F03CF9364902A803F074
:1093400038F902A906A803F00FFA01460AA803F0AB
:1093500052F904210AA8FBF769FE0AA803F0E2F813
:1093600002A803F0DFF806A803F0DCF8274801F0B4
:10937000CBFDC8B928490AA803F01BF902210AA8A5
:10938000FBF754FE0AA803F0CDF8244A24490AA8A2
:1093900001F00CFD0AA801F0D6FD41F2883003F07F
:1093A000CDFE02F03CFF05E0184801F006FF17482B
:1093B00001F007FF1B4B1C491868FEF723FD0EB098
:1093C00010BD00BFC0E40320B4DE03202CDF032067
:1093D000B0220E0031610D0059D70D00B9220E00E8
:1093E000395C0D0029520D00BF1B0E00AA1B0E0098
:1093F000F0E60320A08601000000C842B8D6032092
:109400009E210E00C2210E00C1220E00A0DE03200C
:10941000CE220E00D4220E00DB220E00EF220E0020
:10942000F8220E00F0DE0320BCD6032010B5242164
:10943000044605F08DFC204610BD00005E4B70B563
:1094400000241C605D4B5E4D1C705E4B01261E703F
:1094500002F030F94FF6FF736B812C60AC80AC7179
:109460002C81304602F0B2FB574A5849284605F095
:1094700061FC2146304602F0B9FB21465448554D67
:1094800003F0BAFF504A5449514805F053FC4FF4D9
:109490000073524A52495348FBF7B0FC4A4A5249BA
:1094A000504805F047FC2146504801F01DFC50494A
:1094B000504803F07EF8444A4F494E4805F03AFCC4
:1094C0004E494F4803F075F83F4A4B494C4805F068
:1094D00031FC4C494C4803F06CF83B4A46494A4839
:1094E00005F028FC49494A4803F063F8364A4249E6
:1094F000474805F01FFC4749474803F05AF8324AED
:109500003D49454805F016FC28194449103403F03C
:1095100050F8B4F5487FF7D12B4A4149414C00201F
:1095200005F008FC4049414803F043F8264A324917
:109530003E4805F0FFFB3E493E4803F03AF8224A18
:109540002D493C4805F0F6FB3B493C4803F031F817
:109550001D4A2949394805F0EDFB052211463848D6
:10956000FBF730F80021374802F075FC164A3649FF
:10957000344805F0DFFB4FF4A6720021204606F0C8
:10958000F3FC204605F0DCF904F11C0005F0D8F9E5
:109590000A230D4A2D49C4F84831204605F0CAFB7C
:1095A0002B4801F077F8084A2A49294805F0C2FB00
:1095B000BDE87040FBF7E5BCA8E2032004DF032010
:1095C00030DF0320A1DE0320F8DA0320954C0D00E4
:1095D000B4DE032088DF032017D40D0001520D00F4
:1095E000905F0100D4DE0320FF4C0D00BCDE0320A1
:1095F00004230E001CDF032025C50D0014230E00DC
:1096000040DF032018230E0054DF032021230E0027
:10961000C4DE032068200E00F0DE0320EA1E0E00E8
:10962000054C0D0048DD03202D230E00A4DE032091
:1096300034230E0078DF03203A230E0068DF032076
:1096400008DF03202CDF032075BE0D0041690D00EB
:109650001CDD0320034C0D00704710B52821044683
:1096600005F076FB204610BD10B500F10C02044653
:109670000121406AFAF740FE60B1236A2BB9E36822
:109680002362237A63F07F032372237A43F020035B
:109690002372012010BD70B50546FFF7E5FF08B93C
:1096A000002070BD6A6AEB68167C1479023B03FAED
:1096B00006F6536933445E1E3CB13019FAF762FD79
:1096C0000028EDD0013CE4B2F6E76B6A1A7C4FF457
:1096D00000739340EA691344EB61012070BD000000
:1096E00010B504464069FAF729FD18B1207E024BF7
:1096F00003EB401010BD00BF04DB0320002270B557
:10970000013813462E2410F8015F202D08D0082AB6
:1097100002BFCC545D1CEBB25D1C0678CE54EBB29C
:1097200001320B2AEFD10022CA5470BD2DE9FF414E
:109730000D464B1E01F10A02202103F8011F93423E
:10974000FBD1461E00224FF0070E16F8013F83B3EF
:109750002E2B06D1BEF10A0F30D008224FF00A0E90
:10976000F3E7184CEC4604F110082068616867467E
:1097700003C708344445BC46F7D10DF1FF3010F85B
:10978000011F11B18B42FAD118E0964516D3A3F10F
:1097900021015D2912D8A3F16100192802F101010C
:1097A00098BF203B2A44C9B298BFDBB213700A4667
:1097B000CBE72878203818BF012000E0002004B053
:1097C000BDE8F08140230E0038B5427A04460D46CC
:1097D0000AB1002038BD91F82030102B06D10223A9
:1097E000437202624B8C5B01C3610CE0202BF0D111
:1097F00003234372496A016200F11C022846FAF70A
:1098000011FD0028E5D00023012065622072E3608D
:1098100023616361237638BD2DE9F74F437A04460F
:109820008946174613B94FF0FF306DE0037ADA0727
:10983000F9D5C36902699B1A9F4200D99FB2DFF82C
:10984000D4A0DFF8D4B0B846B8F1000F35D0637AB1
:109850002269606A022BC2F308064FEA522302D142
:10986000406A184418E00579013D1D40EDB25EB92B
:1098700055B912B9236AE36006E004F10C02E1680D
:10988000FAF79EFC0028CED0636AE0681A7C5B6918
:109890000238904018442844C6F50075237AA8453C
:1098A000CCBFADB245465B0602D4B5F5007F1AD1F8
:1098B000DAF80030984202D115E038B224E00146CF
:1098C000CDF800902B463246DBF8000000F054FD46
:1098D0000028A8D02369C5EB08082B44A9442361BC
:1098E0001FFA88F8B0E70021FAF728FC00289AD080
:1098F000074B1E44711909F1FF338E42EAD016F866
:10990000012B03F8012FF8E703B0BDE8F08F00BF8B
:1099100004DB03206CD6032000DB032038B5437A38
:10992000012B05460C4616D90369DA0613D120220D
:1099300021462846FFF770FF40B2202809D123783E
:1099400063B1E52BF3D02E2BF1D0E37A1B07EED4D5
:1099500038BDC01738BD4FF0FF3038BD184638BD90
:1099600037B5437A012B044601D800200FE0036984
:1099700001220DF10701C3F34315FFF74DFF012845
:10998000F3D1236903481F33236100EB451003B073
:1099900030BD00BF04DB0320F8B5437A04460E4611
:1099A0000BB90020F8BDC2698A42FAD3022B01D05C
:1099B0001EB9E66026610120F8BD636A20691B7C40
:1099C000421E03F10901731ECA40CB409A4200D8DF
:1099D00028B9226AE2601D4604F10C0709E09B1ACF
:1099E000F9E73A46E168606AFAF7EAFB013D0028C8
:1099F000D7D0002DF5D1DDE770B5437A04460E4689
:109A000043B390F90830002B1ADA0121FFF768FE02
:109A10000546F8B1637A012B9CBFE369C361238CCF
:109A20004383638C83820C4B1B682BB100F11601BE
:109A3000183098472B8B6B82237A03F07F032372B5
:109A40001EB9237A23F0100323723046BDE870401C
:109A5000FAF752BB002070BDB0E3032010B501211E
:109A60000446FFF7C9FF10B100236372012010BD47
:109A7000F7B5437A012B04460D460BD1027A9207C3
:109A800008D5C2698A4205D3002A40D02669FFF76B
:109A900083FF08B900203BE03DB9216A606AFAF70C
:109AA00085FC0028F6D025621EE001AAE168606A04
:109AB000FAF786FB0028EDD0606A164B90F820700C
:109AC00001994FF6F872102F08BF134699420BD236
:109AD000FAF76CFC0028DDD06FF07042E168606A34
