:02000002D0002C
:1040000000400D00302F0E00000006000D000501DD
:084010000401E80500000000B6
:04401800CC080E00C2
:1040200009480A49884208B505D0094A824202D0A7
:10403000121A0BF008FF0748074A0021121A0BF06A
:104040000DFF014808BD00BF68D603207C2A0E0082
:10405000F4DA0320F4DA0320F0E7032070B509F066
:1040600081FA074C074BE41AA40800251E46A54216
:1040700004D056F8253098470135F8E770BD00BFE9
:10408000682A0E00102A0E0004F0F6BF08B504F0EE
:1040900081F8BDE8084009F027BA07F0F7BD07F03E
:1040A000FDBD07F0FBBD000008B5034A00210C2050
:1040B00007F0DEFCFEE700BF99B60D000078B0FA0D
:1040C00080F04009704701230370704710B5074C1A
:1040D0002168034639B10648064A006806F0CAF866
:1040E00010B100232360012010BD00BFF8DA0320C7
:1040F000FCDA032000DB032038B50C4D2B78044696
:1041000093B103460A490B480B4A0968006806F058
:10411000B1F808B9002038BD34B12046FFF7D6FF0A
:104120000028F7D000232B70012038BD00DD0320CC
:1041300068D60320FCDA032000DB032070B50D4DA8
:104140002B68834204460E460ED00120FFF7D4FFB1
:1041500008B9002070BD084B084A1868214606F0CF
:104160007FF80028F5D02C60054B19783143197081
:10417000012070BD68D60320FCDA032000DB032099
:1041800000DD032010B504460120FFF7B5FF78B12C
:104190000023084A194699540133B3F5007FFAD138
:1041A000054B064A1C60137843F00103137001208D
:1041B00010BD00BF00DB032068D6032000DD032014
:1041C00070B5C36801338B4205460C46164601D2D2
:1041D000002070BD90F82020C369102A0CBF080A87
:1041E000C80918440D4B1B68984208D195F8203037
:1041F000102B0B4B09D1E4B233F814300BE0002143
:10420000FFF79CFF0028F1D1E2E704F07F0453F8A8
:10421000243023F070433360012070BD68D6032042
:1042200000DB03202DE9F74302AEDFF8448046F8B7
:10423000041D0546174600244FF4007932460199C3
:104240002846FFF7BDFF78B12B7C95F8202009FAAE
:1042500003F31C444FF6F873102A18BF4346019A23
:104260009A42EBD33C60012003B0BDE8F08300BF6D
:10427000F8FFFF0F0129F8B506460C46174601D88E
:104280000020F8BDC36801339942F9D890F8203076
:10429000C569102B0CBF0B0ACB091D44124B1B68C0
:1042A0009D4208D196F82030102B104B0AD1E4B271
:1042B00023F814700AE000212846FFF73FFF00288A
:1042C000F0D1DDE704F07F0443F82470084A137846
:1042D00043F001031370337E012B81BFB368ED18E7
:1042E000044B1D600120F8BD68D6032000DB0320CD
:1042F00000DD0320F8DA03202DE9F74F14680646A5
:104300008B4617461CB101344FF0000A05E04B1EE6
:10431000D3F1000A04684AEB030AF368254603F167
:1043200001094FF00008F36898451DD24D4588BF3C
:10433000022501AA2946304688BF2C46FFF740FFD8
:1043400090B1019A6B1C0AB11C4602E01A1B9345FE
:1043500003D008F101081D46E5E76FF070422946D9
:104360003046FFF787FF58B900201CE005F1FF3801
:104370002A4641463046FFF77DFF0028F4D04546E7
:10438000AC42F3D3396831B93C60BAF1000F09D0BF
:104390000134346006E022463046FFF76BFF002808
:1043A000F2D1E1E7012003B0BDE8F08F73B502233D
:1043B0000F4E036005460C4601AA21462846FFF72A
:1043C000FFFE88B1002221462846FFF753FF58B16F
:1043D00095F82020019C4FF6F873102A18BF334639
:1043E0009C42E9D3012000E0002002B070BD00BF74
:1043F000F8FFFF0FF8B53D4B044619601546DAB1DA
:10440000042A01D90020F8BD00210846FFF796FED6
:104410000028F7D0364A02EB051393F8AE315B065D
:10442000F0D11B3502EB0515D5F80A30632BE9D91D
:10443000D5F80650002DE5D000212846FFF77EFE76
:104440000028DFD02A4BB3F80B20B2F5007FD9D17A
:10445000197C0029D6D0DA89002AD3D05A7B002AC9
:10446000D0D02176002122712174012094F810E02F
:1044700000FA0EF18A4206D00EF10101BEF1070FDB
:104480002174F3D9BEE7D88A08B1014601E0184A81
:10449000516AA160DA891E7C2A44E261B3F8117086
:1044A000678401FB06207A0102F2FF1200EB622210
:1044B00060626261B3F8131009B90D49096AAD1A57
:1044C000294421FA0EF540F6F4729542E56001D8D0
:1044D0000C2307E04FF6F472954285BFDB6A6362F6
:1044E0001023202384F820300120F8BDFCDA0320BB
:1044F00000DB032007F048B810B503682F2B0446F3
:1045000004D9074A00210A2007F0B2FA23681F2BBA
:1045100083BF03F01F03236002484FF0A04010BD8B
:1045200099B60D000003005007B502AB43F8040D27
:104530001846FFF7E1FF019A01239340C0F80835C0
:1045400003B05DF804FB07B502AB43F8040D184651
:10455000FFF7D2FF019A01239340C0F80C3503B056
:104560005DF804FB7FB5024608461379956833B1C0
:104570003DB90C4904B0BDE8704008F0DDBB0A4B02
:1045800000E00A4B167B0A4C0A49527B0292012E2C
:1045900008BF214601910095074A002108F009FC57
:1045A00004B070BD510C0E00DE1D0E00400C0E005C
:1045B000490C0E004D0C0E00670C0E000368C9B2CA
:1045C0009B68184738B504460D4690B201210AF0A1
:1045D00029FA134B1B6893F8500093F8513003F0FD
:1045E0001F0343EA4010FFF79FFF6572102D12D89A
:1045F000DFE805F0110B110D0D0F0F0911110B0D57
:10460000090F110D0D00902306E0BA2304E0782372
:1046100002E0602300E04223A372204638BD00BFC1
:1046200010DD0320054B1B6893F8500093F85130C0
:1046300003F01F0343EA4010FFF776BF10DD0320AD
:10464000054B1B6893F8500093F8513003F01F039B
:1046500043EA4010FFF777BF10DD032009B901726C
:10466000704701230372704770B5064614460D4625
:104670000AF08EFAB17A490809F055FD0AF088FA75
:10468000E9B2FFF79BFF0AF083FAE1B2FFF796FF6A
:104690000AF07EFA09F04EFD20B9012008F0C8FCAE
:1046A000012070BD002070BD10B500220446042911
:1046B00055D8DFE801F05403172B3F00FF21FFF727
:1046C000D3FF4022C7212046FFF7CEFF5E22CC2138
:1046D0002046FFF7C9FF4122CD212046FFF7C4FF46
:1046E00054223AE0FF21FFF7BFFF4022C7212046B6
:1046F000FFF7BAFF6522CC212046FFF7B5FF412224
:10470000CD212046FFF7B0FF4F2226E0FF21FFF723
:10471000ABFF4022C7212046FFF7A6FF5222CC2143
:104720002046FFF7A1FF4122CD212046FFF79CFF45
:10473000662212E0FF21FFF797FF4022C7212046A3
:10474000FFF792FF4222CC212046FFF78DFF3F2248
:10475000CD212046FFF788FF7122CE2104E0FF2102
:10476000FFF782FF0022C7212046BDE81040FFF777
:104770007BBFF8B5002407460D462646FF2E05F1FF
:10478000040501D1FF2C09D035F8046C35F8024C32
:10479000314622463846FFF767FFEFE70120F8BDB4
:1047A000082916D8DFE801F0050715090B0D0F11D0
:1047B000130009490EE009490CE009490AE00949DA
:1047C00008E0094906E0094904E0094902E009490D
:1047D00000E00949FFF7CDBF8C090E0052130E000F
:1047E000EC080E00740B0E002C0A0E00F2130E00E3
:1047F000D00A0E00AE120E008E140E0038B5437AA9
:10480000052B04462CD10122FF21FFF72DFF80222A
:1048100012212046FFF728FF642008F009FC257AC2
:10482000012D17D10F492046FFF7A3FF0E4920465F
:10483000FFF79FFF0D492046FFF79BFF2A46FF2108
:104840002046FFF711FF152100222046FFF70CFF3D
:10485000074900E007492046BDE83840FFF789BF17
:1048600038BD00BFAA0C0E00180C0E00860C0E00FE
:104870008E140E00A60F0E0070B5044615460E46A7
:104880000AF086F9A17A490809F04DFC0AF080F98E
:104890003146FFF793FE0AF07BF909F04BFC0AF072
:1048A00077F9A17A0122D14009F036FC0AF070F9BB
:1048B00003681B69984728B10AF06AF903685B69C5
:1048C00098472870012008F0B3FB012070BD00005C
:1048D00010B5084C2368DB070AD42046FFF7EEFB2F
:1048E00030B10121044807F0FFFA2046FFF7EBFB47
:1048F000014810BD04DD032008DD032010B5044687
:10490000FFF7E6FF2146BDE8104007F0A5BB3C20BD
:10491000FFF7F4BF7FB51B4B00931B4B02930024A2
:1049200001231A4D8DF80C300E468DF804408DF899
:104930000D40FFF7CDFF694607F01EFB2B6893F88B
:10494000500093F8513003F01F0343EA4010FFF783
:10495000FAFDF0B2FFF7D2FF2046FFF7CFFF2B683A
:10496000044693F8500093F8513003F01F0343EAD4
:104970004010FFF7D9FDFFF7ABFF07F0E4FA204640
:1049800004B070BDE8080E0000093D0010DD0320F2
:104990003D21FFF7BFBF01F07F01FFF7BBBF10B59F
:1049A0001446FFF7F8FF204010BD70B542210546C0
:1049B000FFF7B0FF432104462846FFF7ABFF442131
:1049C00006462846FFF7A6FF44EA062400F07F00CB
:1049D00044EA004070BD0000F0B585B01B4B009369
:1049E000164600231A4A1B4D029201240F468DF8E9
:1049F00004308DF80D308DF80C40FFF769FF6946E3
:104A000007F0BAFA2B6893F8500093F8513003F08E
:104A10001F0343EA4010FFF796FDF8B2FFF76EFF61
:104A2000F0B2FFF76BFF2B6893F8500093F851300A
:104A300003F01F0343EA4010FFF776FDFFF748FF3E
:104A400007F081FA204605B0F0BD00BFE8080E006F
:104A500000093D0010DD032041F08001FFF7BCBFDD
:104A600002228421FFF7B8BF01228421FFF7B4BFDF
:104A7000FFF7FABF08B506F087FD014B186008BDC7
:104A800010DD0320704703681847012A02D0022A6C
:104A900002D004E0016002E00B6800B10360002076
:104AA0007047704738B5064D002404F5447028441B
:104AB000103C07F0A1FC14F5487FF6D138BD00BFCB
:104AC00084DF032010B501230374836804460BB10F
:104AD000C06806E0006828B183680BB90AF0C5F821
:104AE000C3689847012363740020BDE8104006F0B6
:104AF0007FBE08B5002007F0B1F828B107F08EF8A6
:104B000080F00100C0B208BD012008BD037823F089
:104B10007F0319430170704713B5054B1B788DF85F
:104B200000303C23044608F0BBFE204602B010BD16
:104B300000DF032010B50446006808B107F0AEF8A6
:104B4000204610BD00231A461946406807F016B8E3
:104B500000231A461946406807F018B8002211468B
:104B6000406807F003B810B58368044613B1032208
:104B700001469847204610BD38B5044670B1056817
:104B800035B12846FFF7EFFF102128460AF05AF802
:104B900020461421BDE838400AF054B838BD10B59D
:104BA00043690446BBB1586806F0EAFD78B9636909
:104BB0005A7C12B9586806F0EBFD6369586806F034
:104BC000EFFD60690023636128B1FFF7D5FF6069DD
:104BD00008B1FFF7D1FF201DFFF7C5FF204610BD2C
:104BE00010B586B00446ADF8161006A901F8032DDD
:104BF000089A02920122019300920B460DF11601D0
:104C000007F092FA204606B010BD000073B51E4BA7
:104C10001D7806460C46B5B902A801221A7040F864
:104C2000045D2A46294606F067FD019B1E2B0AD12A
:104C300003232068A3710823A5802581638110B117
:104C400007F02CF82560B4F904300BB922689AB14A
:104C5000216859B18A88012A03D0042A06D1022288
:104C600005E089896181A271238105E00422238105
:104C70004FF6FF73A271638154F8063F3360A38837
:104C8000B380304602B070BD14DD032008B506F0D5
:104C90000BFD014B186008BDECE6032030B587B072
:104CA0001D4600230446049322B1214B0593214B5A
:104CB000029204930023E360049B21603BB1022233
:104CC00002A9201D9847059B2361049BE3601A49B4
:104CD000142009F0BBFF30B100230374036043606C
:104CE0008360C36043746061A0B1144B83606369E7
:104CF0001349DC606069134B8DE821000922043000
:104D000006F036FD30B963691B7C4BB9012006F013
:104D1000BBFCF8E760690023636108B1FFF72CFF73
:104D2000FFF7B4FF02A8FFF71EFF204607B030BD13
:104D3000874A0D008B4A0D0010280E0019EB0D005C
:104D4000AE190E00C54A0D0008B5FFF79FFFBDE87C
:104D5000084006F04BBFB0F90A3013B100EB031066
:104D600070471846704710B54B688A6810339A42EE
:104D700001D2002010BDA2F110038B60002BF8D0EF
:104D8000416819B15C1A24114C8100E003600021D4
:104D9000436022F8061C02F8081C42F8041C18465E
:104DA00010BD00000B780BB9036002E0024B0360FA
:104DB00000234360704700BF854A0D00826810B52C
:104DC0004AB14368C468A34202D30023836010BD84
:104DD0005C1C4460D15410BD10B504460021FFF79F
:104DE000EDFFA3683BB194E80600E3684868D31A76
:104DF00003444B60E260A06810BD70B506460068D1
:104E00000C4681681144154607F014FB2544AC425A
:104E100005D014F8011B306807F003FCF7E7002009
:104E200070BD0121042006F057BC00001FB50E2103
:104E3000174806F021FA044638BB08F0ABFF1549C5
:104E400007F08DFF0121072009F0FDFD41F28830B8
:104E500008F0EEF82146072009F0F5FD43F698200A
:104E600008F0E6F80C4B1B68009302224FF496738F
:104E7000062102A8FFF7B4FE4FF47A7008F0D8F8C4
:104E800004B0BDE8104007F034B904B010BD00BF55
:104E9000D0E30320B5190E00A4E203204B68436061
:104EA0008B688360CB68C36030B500F1100301F1FB
:104EB0000F0200F11D0412F8015F03F8015B9C4230
:104EC000F9D10B6A036230BD70B50546A4B00C463B
:104ED00008F060FF296807F042FF634906A807F061
:104EE000D2FA04A806F005F806A912A807F0EDFA10
:104EF0009DF811105D4B013901EB810119440EA899
:104F000007F0C1FA0EA912A807F098FB9DF810103F
:104F10000A22064601F5FA611BA807F004FB1BA94B
:104F2000304607F08BFB524907F094FB01460AA874
:104F300007F0CBFA1BA807F05FFA0EA807F05CFA9F
:104F400012A807F059FA12A805F00EFB0123069AE1
:104F500048491BA806F030FA1BA912A8FFF79EFFCC
:104F600012A805F047FBA0B112A805F00BFB60B931
:104F700008F010FF404907F0F2FE12A805F02EFBE2
:104F800006993C4806F086FA08E012A805F026FBD0
:104F90000EE008F0FFFE394907F0E1FE06993548BA
:104FA00006F05CFA20B908F0F5FE354907F0D7FEA7
:104FB00017230A9A2F491BA806F0FEF91BA912A86D
:104FC000FFF76CFF12A805F015FB90B908F0E2FEA0
:104FD0002C4904461BA807F056FA0AA91BA807F09B
:104FE0002DFB0168204607F0BAFE1BA807F004FA63
:104FF00031E0611E03290DD8DFE801F00204060844
:10500000214904E0214902E0214900E0214912A898
:1050100007F092FE9DF8151003919DF814109DF86D
:10502000102002919DF8131001919DF812109DF827
:105030001130009102F5FA6217491BA806F03EFEF6
:105040001BA912A807F078FE296812A807F087FEAE
:1050500012A805F0C3FA0AA807F0CEF906A807F0CF
:10506000CBF924B070BD00BFED190E007CD7032032
:10507000F3190E00D0E30320F8190E001C1A0E00DD
:105080000C1A0E00281A0E00421A0E004B1A0E00BF
:10509000561A0E00631A0E006D1A0E001FB508494D
:1050A000684607F0F0F901216846FFF70DFF6846F2
:1050B00007F0A2F907F01DF805B05DF804FB00BF8A
:1050C000881A0E0070B590B005460C4604A8274912
:1050D00007F0D9F92946684607F0D5F9694604A8CA
:1050E00007F0ACFA224907F0B5FA2146064608A8AF
:1050F00007F0C9F908A9304607F0A0FA01460CA844
:1051000007F0E3F904210CA8FFF7DEFE0CA807F076
:1051100073F908A807F070F9684607F06DF904A85C
:1051200007F06AF929460CA807F0ADF911490CA857
:1051300007F0A2FA06460CA807F05EF91EB1214658
:105140000D4807F0CDF929460CA807F09CF90B494A
:105150000CA807F091FA05460CA807F04DF91DB10F
:105160002146074807F0BCF910B070BD991A0E002F
:10517000E81B0E009E1A0E0074DF0320B31A0E0007
:1051800064DF032070B5474B1A68002AA4B01D469F
:1051900040F38680444902A807F075F912A805F08B
:1051A000E3F9684605F0A5FE40490AA807F06BF947
:1051B00002A90AA807F042FA9DF801103C4B0139F8
:1051C00001EB8101194404460EA807F05CF90EA911
:1051D000204607F033FA9DF800100A22044601F534
:1051E000FA611BA807F09FF91BA9204607F026FAD1
:1051F000304907F02FFA014606A807F066F91BA808
:1052000007F0FAF80EA807F0F7F80AA807F0F4F884
:105210000299294806F014F970B908F0BBFD274936
:1052200007F09DFD0299244806F018F920B908F00E
:10523000B1FD234907F093FD1723069A1E491BA8C9
:1052400006F0BAF81BA912A8FFF728FE12A805F06D
:10525000D1F950B908F09EFD1A4907F080FD08F019
:1052600099FD069907F07BFD14E00E4C164E2B6855
:10527000002B0CDDD6F8201312A807F070FD13499F
:10528000134807F02DF92368013B2360EFE712A8CC
:1052900005F0A4F906A807F0AFF802A807F0ACF8EB
:1052A00024B070BD4CDF0320ED190E00F1190E0083
:1052B0007CD70320F3190E00D0E30320C61A0E009A
:1052C000FD1A0E00141B0E0084DF0320DE1D0E00ED
:1052D000A4E203202DE9F04FC1B002AF04468A4694
:1052E00007F10C00BA4915461E4607F0CCF8B9493B
:1052F00007F1C40007F0C7F8B74BB84A1B6812881B
:10530000B74807F1C40105F0C7F9804607F1C400AA
:1053100007F072F8B8F1000F20D1B24907F1900000
:1053200007F0B1F8AB4907F16C0007F0ACF807F1F2
:105330006C0107F1900007F081F9014607F1C40004
:1053400007F0C3F8022107F1C400FFF7BDFD07F124
:10535000C40007F051F807F16C007CE0A24907F1A6
:10536000C40007F0B2F807F1C4019D4805F0F6F952
:10537000804607F1C40007F03FF8B8F1000F01D1F3
:105380009A4912E09A4907F1C40007F09EF807F124
:10539000C401934805F004FA804607F1C40007F001
:1053A0002BF8B8F1000F0ED1924907F1C40007F0B5
:1053B0006AF807F1C4000221FFF786FD07F1C40077
:1053C00007F01AF875E2294607F1C40007F07DF8E6
:1053D00007F1C401824805F005FA804607F1C400D0
:1053E00007F00AF8B8F1000F58D1834907F1C4005B
:1053F00007F049F8032107F1C400FFF765FD07F145
:10540000C40006F0F9FF294607F1C40007F05DF873
:1054100007F1C401724805F007FA804607F1C4009D
:1054200006F0EAFFB8F1000F1CD1744907F19000B3
:1054300007F029F8294607F1900007F0FFF8014628
:1054400007F1C40007F041F807F1C4000221FFF79B
:105450003BFD07F1C40006F0CFFF07F1900006F016
:10546000CBFF26E2664907F1900007F00CF82946C9
:1054700007F1900007F0E2F8014607F1C40007F0D9
:1054800024F8032107F1C400FFF71EFD07F1C40053
:1054900006F0B2FF07F1900006F0AEFF36BBDFF872
:1054A0007C81226898F80030019298F80120DFF89A
:1054B0007091009203F5FA63D9F80020514907F181
:1054C000900006F0FBFB07F1900107F10C0007F0DC
:1054D00007F8226898F80030019298F801200092AD
:1054E00003F5FA63D9F80020474936E0012E0CD1C4
:1054F0002368464A464907F1C40006F0DFFB21460F
:1055000007F10C0006F0D2FF2BE0022E2ED1DFF8BF
:105510000C81226898F80030019298F80120DFF899
:105520000091009203F5FA63D9F80020354907F19C
:10553000900006F0C3FB07F1900107F10C0006F0A4
:10554000CFFF226898F80030019298F8012000926D
:10555000D9F800202F4903F5FA6307F1C40006F0DB
:10556000ADFB07F1C401204606F0BAFF07F10C01BC
:1055700007F16C0006F0A9FF07F16C01184805F06F
:105580007FFA804607F16C0006F036FFB8F1000F95
:1055900048D1214907F15C0006F075FF07F10C01C5
:1055A00007F15C0007F04AF8014607F16C0006F0CD
:1055B0008CFF042107F16C00FFF786FC07F16C00FB
:1055C00006F01AFF07F15C0006F016FF30E000BF9E
:1055D000DE1D0E00F0D60320B8D7032038DA0320F2
:1055E00044DD03202C1B0E003CDF0320411B0E007A
:1055F00050DF0320521B0E00631B0E007B1B0E00AE
:105600008E1B0E00A21B0E00AE1B0E00BB1B0E005D
:10561000C01B0E00C71B0E00D91B0E00B8DE0320F6
:10562000A0DE0320A64808F07DFEA54805F076F828
:10563000BAF1000F2ED007F10C0107F16C0006F053
:1056400044FF07F16C019E4805F032F9804607F1EE
:105650006C0006F0D1FEB8F1000F0DD1994907F1A9
:105660006C0006F010FF07F16C000221FFF72CFC24
:1056700007F16C0006F0C0FE934907F16C0006F0DC
:1056800002FF07F16C000421FFF71EFC07F16C001C
:1056900006F0B2FE8D4907F15C0006F0F4FE07F15A
:1056A0000C0107F15C0006F0C9FF894906F0D2FF42
:1056B000214606F0C3FF014607F16C0006F005FF26
:1056C000042107F16C00FFF7FFFB07F16C0006F007
:1056D00093FE07F15C0006F08FFE012322687D49EE
:1056E00007F16C0005F068FE642007F0A1FC07F1EB
:1056F0006C0004F07FFF002869D036F00203E84612
:1057000001D1754902E0012E27D1744907F15C00EF
:1057100006F0B9FE07F15C01694805F0A7F80446F8
:1057200007F15C0006F068FEBCB107F10C0107F15F
:105730005C0006F0CAFE07F15C01614805F0C2F9A1
:10574000044607F15C0006F057FE34B907F16C001F
:1057500004F044FFFFF716FD37E007F16C0004F09A
:1057600026FF5F4B421E9A420646EFD805F09CFF8B
:10577000DFF884B1C0B004460DF1080A4FF000090B
:1057800007F16C0004F017FF18B34E4521D34FF416
:105790008072514607F16C0004F0FCFE8144786091
:1057A000FFF774FA0021072009F04DF900237A6809
:1057B0004348514608F0E4FD0121072009F043F970
:1057C000642007F035FCD945DADDC54671E045496E
:1057D00063E007F16C0004F001FF05F065FF42494A
:1057E000041B07F12C0006F04EFE4FF47A730A22D8
:1057F000B4FBF3F407F11C00214606F0BAFE07F1F2
:105800001C0107F12C0006F019FF384906F022FFB1
:10581000B6FBF4F10A22814607F13C0006F0A9FE2E
:1058200007F13C01484606F009FF314906F012FF36
:105830000A220446002107F14C0006F087FE07F11A
:105840004C01204606F0FAFE014607F15C0006F026
:105850003CFE042107F15C00FFF736FB07F15C001A
:1058600006F0CAFD07F14C0006F0C6FD07F13C004A
:1058700006F0C2FD07F11C0006F0BEFD07F12C008A
:1058800006F0BAFDFFF760FA0D48C54608F04AFD7C
:105890000B4804F043FF88BB164907F15C0006F093
:1058A000F2FD07F15C000221FFF70EFB07F15C003F
:1058B00086E507F10C0006F09FFD00209AE000BF8E
:1058C00044DD0320EB1B0E00011C0E00041C0E0027
:1058D0000C1C0E00D0E3032056200E00111C0E00FD
:1058E000FDFF0700131C0E008F1C0E00E51F0E00AD
:1058F000931C0E00391C0E00400D03003F4907F1B8
:105900004C0006F0C0FD294607F11C0006F0DDFD45
:105910003B4907F11C0006F09DFE07F10C0106F063
:105920008DFE014607F12C0006F0CFFD07F12C019A
:10593000344804F0CDFE0A22014607F13C0006F08F
:10594000F2FD07F13C0107F14C0006F077FE01463D
:1059500007F15C0006F0B9FD042107F15C00FFF7D8
:10596000B3FA07F15C0006F047FD07F13C0006F0D2
:1059700043FD07F12C0006F03FFD07F11C0006F087
:105980003BFD07F14C0006F037FD1F4907F14C00C5
:1059900006F079FD0A22314607F13C0006F0E9FDE8
:1059A00007F13C0107F14C0006F048FE014607F103
:1059B0005C0006F08AFD042107F15C00FFF784FA21
:1059C00007F15C0006F018FD07F13C0006F014FD3D
:1059D00007F14C0006F010FD0A4804F08BFF08B9EF
:1059E0000A495AE70720002109F02DF807F10C00B9
:1059F00006F002FDFC37BD46BDE8F08F531C0E00DB
:105A0000F1190E0044DD03206A1C0E007D1C0E00FF
:105A100038B5054605F048FE044605F045FE001B76
:105A2000A84202D2FFF790F9F7E738BD1FB5002171
:105A30000446072009F007F8144807F0FBFC144857
:105A400005F03CFC06F024FF06F0E2FF06F0DEF86D
:105A500041F28830FFF7DCFF0E48FFF779F80E4877
:105A600006F0E5F941F28830FFF7D2FF0B4B1B68D7
:105A7000009302222346062102A8FFF7B1F84FF453
:105A80007A70FFF7C5FF04B010BD00BFB0DE032081
:105A9000D0E30320C0E4032028DF0320A4E2032096
:105AA00038B5046805467CB16368013B63605BB947
:105AB000236820469B689847A368013BA3601BB9F5
:105AC00023682046DB689847284638BD2DE9F04119
:105AD000B2B06B4A6B4929A8FFF71EF82AA8FFF756
:105AE000DFFF694929A806F0CEFC042129A8FFF7A9
:105AF000EBF929A806F080FC644929A806F0E5FC2A
:105B0000634929A806F0A6FD01230268614905A89A
:105B100005F052FC29A806F06FFC012205A90EA889
:105B200005F0C6FC5C4B1F78002607F5FA67354682
:105B30000EA804F05FFD0446002800F0AF800EA818
:105B400004F01EFD014601A806F09DFC08F022F9B4
:105B5000044601A806F0C6FD0A22014629A806F05F
:105B6000F5FC2999204607F0FAF829A806F044FC2C
:105B70000EA804F007FD002872D001A806F0B2FDBF
:105B800087426DD001A806F0ADFD7B1E984240F023
:105B9000558165E017A804F0F5FC002837D017A957
:105BA000012220A805F084FC08F0F4F8044620A89F
:105BB00004F0E6FC0146204607F0D1F820A804F0E6
:105BC00019FD3249002840F0498129A806F07DFCE2
:105BD0002F4929A806F03EFD04460EA804F0D0FC8B
:105BE0000146204606F036FD294906F033FD0446FD
:105BF00017A804F0C5FC0146204606F02BFD0168FD
:105C0000244805F039FC29A806F0F6FB013517A851
:105C100004F0E4FC0EA929A8012205F049FC29A9F9
:105C200017A8FFF73BF917A804F0E4FC0028B1D14E
:105C3000164929A806F049FC154929A806F00AFDCD
:105C400004460EA804F09CFC0146204606F002FD26
:105C50000168104805F010FC29A806F0CDFB0135BD
:105C60000EA804F0BBFC012205A929A805F020FC20
:105C700029A90EA8FFF712F901A806F0BDFB57E706
:105C8000A31C0E00C01C0E00C71C0E00A0DE0320CB
:105C9000F1190E00D0E30320B8DE032005A804F0BC
:105CA0009DFC8C4920A806F0EEFB0A22294617A885
:105CB00006F039FC17A920A806F0C0FC864906F0BA
:105CC000C9FC0A228046314629A806F02CFC29A9E5
:105CD000404606F0B3FC8149026801A8FEF71CFFAC
:105CE00002A8FFF7DDFE29A806F086FB17A806F03C
:105CF00083FB20A806F080FB764917A806F0C3FBBB
:105D00000A22294601A806F00EFC01A917A806F0F0
:105D100095FC714906F09EFC0A220546314620A8F2
:105D200006F001FC20A9284606F088FC014629A8B7
:105D300006F0CBFB042129A8FFF7C6F829A806F036
:105D40005BFB20A806F058FB01A806F055FB17A83E
:105D500006F052FB624A614929A8FEF7DDFE2AA837
:105D6000FFF79EFE5F4929A806F08DFB042129A8B4
:105D7000FFF7AAF829A806F03FFB01235A4A5B491E
:105D800029A805F019FB29A905A8FFF787F805A997
:105D900029A8012205F08CFB29A90EA8FFF77EF89F
:105DA0000EA804F027FC0546002800F0A5800EA8E8
:105DB00004F0E6FB014617A806F065FB0A22B91EAF
:105DC00029A806F0B0FB29A917A806F067FC05462C
:105DD00029A806F011FB0DB3434929A806F053FB8F
:105DE0000EA804F0CDFB014620A806F04CFB20A92C
:105DF00029A806F023FC01683C4805F04BFB05464A
:105E000020A806F0F9FA29A806F0F6FA2DB907F04D
:105E1000C1FF374906F0A3FF00E001340EA804F0EB
:105E2000DDFB012205A929A805F042FB29A90EA83E
:105E3000FFF734F817A806F0DFFAB1E70EA9012240
:105E400017A805F035FB07F0A5FF044617A804F0D6
:105E500097FB0146204606F082FFE4E629A806F0FB
:105E600034FB244929A806F0F5FB04460EA804F0EB
:105E700087FB0146204606F0EDFB1E4906F0EAFBD3
:105E8000044617A804F07CFB0146204606F0E2FB1E
:105E9000184906F0DFFB044620A804F071FB014618
:105EA000204606F0D7FB0168104805F0F3FA0446D7
:105EB00029A806F0A1FA04B1013620A804F08EFB4F
:105EC00017A929A8012205F0F3FA29A920A8FEF7AD
:105ED000E5FF73E6CC1C0E00D01C0E00C01C0E00AB
:105EE000D51C0E00F01C0E00ED190E00D0E30320AF
:105EF000151A0E00F1190E0005A804F06FFB2E49CB
:105F000020A806F0C0FA0A22294617A806F00BFBC3
:105F100017A920A806F092FB284906F09BFB0A224D
:105F20000646214629A806F0FEFA29A9304606F0C1
:105F300085FB2349026801A8FEF7EEFD02A8FFF7E2
:105F4000AFFD29A806F058FA17A806F055FA20A8C0
:105F500006F052FA184917A806F095FA0A222946BF
:105F600001A806F0E0FA01A917A806F067FB13499B
:105F700006F070FB0A220546214620A806F0D3FA57
:105F800020A9284606F05AFB014629A806F09DFAEA
:105F9000042129A8FEF798FF29A806F02DFA20A8C9
:105FA00006F02AFA01A806F027FA17A806F024FA44
:105FB000012032B0BDE8F081CC1C0E00D01C0E00D8
:105FC000C01C0E002DE9F04F0646A7B0594C2368BF
:105FD000DB070AD42046FEF771F830B1012156489C
:105FE00005F082FF2046FEF76EF84FF6FF720021A3
:105FF000514805F094FF0121132008F024FD4FF4CF
:10600000FA6007F015F84D48FEF71AFB55220021FB
:106010004A48FEF721FD00214848FEF7BCFC552800
:1060200004466DD0464913A806F02DFA0A222146EF
:106030000FA806F066FA0FA913A806F0FFFA0146AA
:106040001CA806F042FA01211CA8FEF73DFF1CA87F
:1060500006F0D2F90FA806F0CFF913A806F0CCF994
:10606000384A39491CA8FEF757FD1DA8FFF718FD4F
:1060700043F6982006F0DCFF344B1B6800930222A5
:1060800040F2DC5306211CA8FEF7AAFD4FF47A70FB
:1060900006F0CEFF06F02DF8FEF756FE96E7422BEF
:1060A0005AD02B4913A806F0EEF99DF813309DF84D
:1060B000122028490FA806F01BFB0FA913A806F011
:1060C000BDFA01461CA806F000FA01211CA8FEF743
:1060D000FBFE1CA806F090F90FA806F08DF913A896
:1060E00006F08AF941F2883006F0A2FF174B1B68D0
:1060F0000093022240F2DC5306211CA8FEF770FD3B
:10610000FEF722FE0122FF210C48FEF7ADFA0DF149
:1061100012020A210948FEF7AFFB0DF113020B2111
:106120000648FEF7A9FB9DF81230262B9DF8133088
:10613000B7D1B4E704DD032008DD032004DF03202A
:10614000F41C0E00371D0E00C01C0E00A4E203203C
:10615000411D0E00681D0E0001219848FEF77EFAD1
:10616000642006F065FF9548FEF748FB642006F0C2
:106170005FFF08219148FEF713FB642006F058FFEB
:1061800000218E48FEF790FA642006F051FF8B48FC
:10619000FEF76EFC642006F04BFF8848FEF764FCB7
:1061A00042F2107006F044FF8448FEF759FC642068
:1061B00006F03EFF05F078FA044605F075FA08226D
:1061C00041217E48FEF7EBFBB0B9FEF7BDFD0A208A
:1061D00006F02EFF05F068FA47F23053001B984294
:1061E000EDD977491CA806F04EF91CA80121FEF74D
:1061F0006BFE1CA806F000F9642006F019FF6F483A
:10620000FEF7D3FB6F49044613A806F03CF90A22B7
:1062100021460FA806F087F90FA913A806F00EFA79
:1062200001461CA806F051F904211CA8FEF74CFEFB
:106230001CA806F0E1F80FA806F0DEF813A806F097
:10624000DBF8614907A806F01EF9082241215B48E6
:10625000FEF7A5FB002800F0B78213A804F084F92C
:1062600059495A4D0BA806F00EF9642006F0E0FEDD
:1062700057490FA806F007F90FA91CA806F025F941
:1062800054491CA806F0E6F901460BA806F00EF9E1
:106290001CA806F0B1F80FA806F0AEF829780A227B
:1062A00001F5FA610FA806F03EF90FA91CA806F047
:1062B0000CF948491CA806F0CDF901460BA806F0D8
:1062C0009DF91CA806F098F80FA806F095F80A2288
:1062D00069780FA806F015F90FA91CA806F0F5F8C3
:1062E0003C491CA806F0B6F901460BA806F086F951
:1062F0001CA806F081F80FA806F07EF8364B1B7834
:106300001BB136490BA806F07DF907F043FD34496F
:1063100004461CA806F0B7F80BA91CA806F08EF9D5
:106320000168204606F01BFD1CA806F065F80B99D5
:106330002C4805F085F8002838D023490FA806F02E
:10634000A2F80BA91CA806F0C0F822491CA806F068
:1063500081F9314606F072F901460FA806F0A6F859
:106360001CA806F049F852230F9A1E491CA805F0F4
:1063700023F81CA913A8FEF791FD642006F058FE2F
:1063800013A804F037F9044670BB13A804F026F9EB
:106390000A48FEF76DFB642006F04AFE0748FEF748
:1063A00063FB41F2883006F043FE02E20B990D4890
:1063B00005F054F80028C0D10446FDE104DF0320B5
:1063C0006E1D0E007C1D0E00DE1D0E00B8DE0320CB
:1063D000C0D60320F1190E0094DE0320801D0E00AC
:1063E000851D0E00D0E303208C498D4F1CA807F0BB
:1063F0001BFD8C4806F0BAFF10EE100A08F0E4FE10
:106400000B4602468849894805F058FC1E9A88497F
:10641000884805F053FC2A78A9786B788648009163
:1064200002F5FA62854905F049FC2B79EA78697929
:10643000834D00918348844905F040FC2A688349D4
:1064400013A804F024F800232B60FEF77DFC5622ED
:106450007F4913A804F01BF840F607043978704E02
:1064600013A804F009F8013CF8D117227949DFF8A4
:10647000048213A804F00BF8774878490A222346CF
:1064800010F8014F54548C180232102A6370734C68
:10649000F6DDDFF898E17248724915230EEB03022E
:1064A0006F4F12F8152C1A545A540133192BDFF878
:1064B000B491F3D16C4A1E23002012F8011FE1545D
:1064C000E1180233222B4870F7DD5A493F23CA18DE
:1064D00012F83F2CFA5409F803200133422BF6D16D
:1064E000624A3023002012F8011FE154E118023300
:1064F0003E2B4870F7DD50496823CA1812F8682C03
:10650000FA5409F803200133702BF6D1584A4E2370
:10651000002012F8011FE154E1180233582B487093
:10652000F7DD48499723CA1812F8972CFA5409F84E
:10653000032001339D2BF6D164234FF0000ADFF8CE
:1065400034B1C8F800305246D8F8003003926E2BB0
:106550004849029311DC5146474806F0B5F8029BC2
:106560000178E154DBF80030039AE11802334A70F5
:106570000AF1010ACBF80030E6E7C2230B604FF0C6
:10658000000B8A46D8F800300293C72B19DC594615
:10659000394806F099F8029B0278FA545946DAF81D
:1065A00000303548029306F08FF8029B027809F814
:1065B0000320DAF8003001330BF1010BCAF8003088
:1065C000E0E72E4A8023002012F8011FE154E11871
:1065D0000233882B4870F7DDF023DFF898A0C8F865
:1065E00000300024D8F800B0BBF1F50F4ADC21469A
:1065F000234806F069F821460378214807F80B3054
:10660000DAF800B006F060F8037809F80B30DAF831
:10661000003001330134CAF80030E3E7C0E403205E
:106620009EDE0320B0DE03208A1D0E00FCDE032068
:10663000901D0E00E9DE032010DF0320941D0E00E4
:1066400098DE03203CDD0320A11D0E00A8E20320FC
:1066500045150E002E150E00FBDE0320B3D80320D7
:10666000BDD703203FD90320E8DE03200FDF03203E
:106670003BDD032038DF032074DF03205FDF0320CE
:10668000A0DE0320534B00221A6040F60804317844
:1066900013A803F0F1FE013CF9D18A224E494F4E76
:1066A00013A803F0F4FE40F27D224D4913A803F035
:1066B000EEFEF5224B4913A803F0E9FE4FF4907269
:1066C000494913A803F0E3FEF522484913A803F053
:1066D000DEFE6222464913A803F0D9FE4FF400649F
:1066E000317813A803F0C8FE013CF9D114224149C6
:1066F00013A803F0CCFE07F04DFB3F4906F02FFB3B
:106700003E48FDF79DFF642006F092FC3C4A3D495F
:1067100005A8FEF701FA06A8FFF7C2F93748FEF709
:10672000F6F8642006F084FC2C6014253348FEF74C
:106730002FF9013D0646F9D14FF4FA7006F078FCC6
:10674000314C324FDFF8C890D92E01D1FF2D1BD02C
:106750002A48FEF71DF93B685A1CFF2A80463A601A
:1067600009F8030007DD2A4913A803F090FE00236F
:106770003B60FEF7E9FA013C354601D04646E3E7C7
:1067800013A803F02BFF14E0204B1A681AB120491C
:1067900013A803F07CFE1948FEF766F91748FDF7C9
:1067A00041FF13A803F01AFF0021132008F04BF952
:1067B00001240FA805F020FE0BA805F01DFE07A878
:1067C00005F01AFE204602E007A805F015FE27B0E6
:1067D000BDE8F08F38DF0320B3D80320BCD70320F7
:1067E0009B150E00BDD7032018180E003FD90320BB
:1067F0004C190E0038190E00AE1D0E0004DF0320E8
:10680000C31D0E00C01C0E00C127090098DE032026
:10681000A8E2032038B5064DC56104463430FFF7C1
:106820003FF9204640F8185BFFF73AF9204638BD9B
:1068300080270E0038B504680D467CB1E168A94296
:106840000CD035B129B1284609F046FB10F0FF0FF6
:1068500004D02046FEF77FFA0446EEE7204638BD16
:1068600008B500F11C0302460360436013B100F554
:10687000077100E0194691600BB102F5077302F150
:106880001800D3600021FEF741F9104608BDF8B5A5
:106890000446C0B10B6800F10806ABB18B685568BF
:1068A00097680133E818B8420ED8506065B11A46AF
:1068B0000968284609F0C7FA30460521FEF726F98F
:1068C00025600120F8BDF8BD30460021FEF71EF915
:1068D0000020F8BD10B502460C4670B1002900F149
:1068E000080003DB0821FEF711F903E00A21FEF797
:1068F0000DF964421460012010BD10BD70B516463C
:10690000027A12F07F0204460D4605D1202108309C
:10691000FEF7FCF822606260237A03F0200303F0A4
:10692000FF0073B129462046FFF784FF48B931467E
:106930002046FEF718FA20B1037AC56003F07F0302
:10694000037270BD13B5837B044683B901220DF138
:106950000701406806F07CFA10B19DF8073001E0AD
:106960004FF0FF3323EAE37363730123A373607B68
:1069700002B010BD70B5044600252046FFF7E2FFC7
:106980000A2803D809281DD2B0B12FE0202819D039
:106990002F2802D00D2829D114E0A5732046FFF737
:1069A000D1FF2A2802D02F2816D01CE0A57300267C
:1069B0002046FFF7C7FF10B94FF0010070BD2F2828
:1069C00002D10EB1A573D8E7A0F12A035E425E4161
:1069D000A573EDE70A28D0D0A5732046FFF7B2FFD4
:1069E0000028F7D1E8E74FF0020070BD4FF000003B
:1069F00070BD08B5027A02F0200202F0FF0312B166
:106A0000FFF718FF08BD184608BD0000F0B585B0B7
:106A1000826800920025019593680E465168536084
:106A20005B1A044602910393FFF78CFFA573074698
:106A30002046FFF787FF8742A57323D010B94FF098
:106A4000010029E05C2818D12046FFF77BFF0028D1
:106A5000F5D0752801D0114B05E04FF004001BE084
:106A6000904204D002331A78002AF9D104E0587811
:106A700010B94FF002000FE0A57301466846FEF71B
:106A80009DF9D5E76846FEF7A7F9306010B94FF0D9
:106A9000030001E04FF0000005B0F0BDD41D0E0072
:106AA000A0F15F031B2B13D9A0F14103192B0FD9C0
:106AB000A0F12B03DBB20E2B04D9A0F12E02504221
:106AC0005041704747F6E57222FA03F3DB07F4D52D
:106AD00001207047F0B585B004460E46FFF732FF3F
:106AE00027282DD022282BD0A268009200250195BE
:106AF00051689368536020465B1A02910393FFF735
:106B000021FF0746D0B1FFF7CBFFA8B13946684651
:106B1000A573FEF753F92046FFF714FF0746FFF76A
:106B2000BFFF0028F2D16846FEF756F90028306012
:106B30000CBF0320002007E0022005E0012003E055
:106B400031462046FFF762FF05B0F0BD00280FDD9B
:106B500011490023C20741BFDAB201EB8202D2ED34
:106B6000007A20EE270A401003F10103F2D17047AA
:106B70000A494042002368B1C20742BFDAB201EBC2
:106B80008202D2ED007A4FEA600048BF20EE270A69
:106B90000133F0E7704700BF9CD6032084D6032062
:106BA0002DE9F0410B782B2B044604D02D2B03D17B
:106BB0000131012601E0013100260B78A3F13002FA
:106BC000092A02D92E2B40F089804F4F00234FF025
:106BD0000A0E084610F8015BA5F13002D2B2092A6C
:106BE00009D8BB4208D80EFB03F3D543AB4203D808
:106BF00013440146EDE71DB10022444F0A250EE083
:106C000007EE903AF8EE677A002E2360C4ED017A21
:106C10000CBF08230A2373E00246B3FBF5F3BB4223
:106C200002F10100F8D8521A50180D4611F8017BF4
:106C3000A7F1300EBEF1090F40B2F5D92E2F10D1B9
:106C4000DFF8DCE00A270D4601312A78303AD2B26B
:106C5000092A06D87345F6D8013807FB032340B24A
:106C6000F1E72A7802F0DF02452A34D16A782D2A2A
:106C700002D1A91C012704E02B2A14BF691CA91CFE
:106C8000002700224FF00A0C0D4611F801EBAEF17F
:106C9000300E5FFA8EF8B8F1090F19D80CFB02E23A
:106CA0008518262DF0DD47B19FED197ADFED197AB1
:106CB000002E18BFF0EE477A07E09FED177ADFED60
:106CC000177A002E08BFF0EE477AC4ED017A16E07D
:106CD00017B1524200E00022297821B1002300229E
:106CE000236062600CE007EE903A1044B8EEE70AC9
:106CF000FFF72CFF0EB1B1EE400A84ED010A0C2320
:106D000023722046BDE8F08199999919FFFF7F0011
:106D100000000080000000000000807F000080FF75
:106D2000CBCC0C002DE9F04395B080460D46FFF723
:106D300009FE00240746A1463846E6B2FFF7B0FE3A
:106D400058B13F2C09D004AB88F80E90E754404668
:106D5000FFF7F8FD01340746EEE714AB3344002497
:106D600003F8404C9DF81030742B07D1062105F133
:106D70000800FDF7CBFE01232B600DE0662B09D147
:106D800005F108000621FDF7C1FE2C60701F18BF39
:106D9000012020E06E2B01D1301FF8E704A901A8E3
:106DA000FFF7FEFE9DF80C10019A0A2903D00C296A
:106DB00007D008290DD105F10800FDF7A7FE2A60CC
:106DC00005E005F10800029AFDF7A0FE2A602046C2
:106DD00001E04FF0020015B0BDE8F08370B588B057
:106DE0000C460646FFF7C6FD01A98DF8040004A86D
:106DF000FDF7D8FF049B002B3ED1059D15F0010542
:106E00003AD13046FFF79EFD272810D103A930461E
:106E1000FFF7FCFD02A98DF8080006A8FDF7C2FFE8
:106E2000069B63BB079810F0010228D12AE007D81F
:106E30002228EBD021463046FFF774FFC0B229E08C
:106E40005B280BD104F108004021FDF75FFE2560AF
:106E500065602146304600F056F8EFE77B28E9D11F
:106E600004F108002021FDF751FE256065602146F0
:106E7000304600F0AEF8E1E79DF804000AE09DF826
:106E8000080007E004F108000521039DFDF73EFE20
:106E90002560104608B070BD30B503684360C36814
:106EA000836089B004460D4618300021FDF72EFEA0
:106EB000002304F1100104A88DF81E308DF81C2069
:106EC000049405950694FFF789FF01A98DF8040045
:106ED00002A8FDF767FF029B8BB9039BDB070ED46B
:106EE0009DF81D305BB1237E13F0600F07D103F0D6
:106EF0007F03043B012B84BF02238DF804309DF8EF
:106F0000040009B030BD70B5037B88B004460E465E
:106F100013B94FF005005AE0FFF714FD5B2810D1BC
:106F20000023A3732046FFF725FD01A98DF8040077
:106F300002A8FDF737FF029BBBB9039BDA0714D405
:106F400016E04FF0020042E0237B013B2373204612
:106F5000FFF744FF237B8DF804000133237301A95D
:106F600004A8FDF71FFF049B53B19DF804002EE019
:106F70002046FFF7E7FC5D2820D10020A07326E023
:106F8000059BDB07F1D42046FFF7F4FC01A98DF83F
:106F9000040006A8FDF706FF069B002BE5D1079B22
:106FA00013F00105E1D12046FFF7CCFC5D28E4D0C9
:106FB0002046FFF7C7FC2C28C3D1A57321683046B3
:106FC000FDF7D1FE01460028BED14FF0030008B006
:106FD00070BDF0B5037B8FB005460E4613B94FF078
:106FE0000500A1E0FFF7AEFC7B2840F09580002370
:106FF000AB732846FFF7BEFC69468DF8000002A877
:10700000FDF7D0FE029B002B73D1039810F0010412
:107010006FD12846FFF796FC7D2856D001A9284657
:10702000FFF758FD69468DF8000004A8FDF7BAFE89
:10703000049B002B5DD1059BD9075DD559E0037AF0
:1070400063F07F030372019BC36004462846FFF789
:1070500091FC69468DF8000006A8FDF7A3FE069B8B
:10706000002B46D1079B13F0010742D12846FFF7BA
:1070700069FC3A2850D12B7BAF73013B2B7321461F
:107080002846FFF7ABFE2B7B8DF8000001332B73F6
:10709000694608A8FDF786FE089B53BB099BDA07E3
:1070A00027D42846FFF766FC69468DF800000AA839
:1070B000FDF778FE0A9BE3B90B9810F0010418D194
:1070C0002846FFF73FFC7D2802D1AC7320462BE019
:1070D0002846FFF737FC2C281ED1AC732846FFF753
:1070E00049FC69468DF800000CA8FDF75BFE0C9B7F
:1070F000ABB19DF8000017E001993046FFF79AFB0D
:1071000004460028A2D129683046FDF72CFE00284D
:1071100095D14FF0030007E04FF0020004E00D9B13
:10712000DB077FF57BAFE4E70FB0F0BD2DE9F04161
:107130000B782B2B044604D02D2B03D101310126D3
:1071400001E0013100260B78A3F13002092A02D9AF
:107150002E2B40F089804F4F00234FF00A0E084637
:1071600010F8015BA5F13002D2B2092A09D8BB425E
:1071700008D80EFB03F3D543AB4203D813440146B2
:10718000EDE71DB10022444F0A250EE007EE903ACC
:10719000F8EE677A002E2360C4ED017A0CBF082355
:1071A0000A2373E00246B3FBF5F3BB4202F1010090
:1071B000F8D8521A50180D4611F8017BA7F1300E7D
:1071C000BEF1090F40B2F5D92E2F10D1DFF8DCE067
:1071D0000A270D4601312A78303AD2B2092A06D858
:1071E0007345F6D8013807FB032340B2F1E72A784C
:1071F00002F0DF02452A34D16A782D2A02D1A91C77
:10720000012704E02B2A14BF691CA91C00270022B7
:107210004FF00A0C0D4611F801EBAEF1300E5FFA9B
:107220008EF8B8F1090F19D80CFB02E28518262D4B
:10723000F0DD47B19FED197ADFED197A002E18BF06
:10724000F0EE477A07E09FED177ADFED177A002E10
:1072500008BFF0EE477AC4ED017A16E017B152424A
:1072600000E00022297821B100230022236062601F
:107270000CE007EE903A1044B8EEE70AFFF766FC20
:107280000EB1B1EE400A84ED010A0C2323722046B0
:10729000BDE8F08199999919FFFF7F0000000080F7
:1072A000000000000000807F000080FFCBCC0C00BD
:1072B0007FB590E8300010340E4620462946FFF78F
:1072C00098FB002859D0037A03F07F03082B08D0DD
:1072D0000A2B52D10368B3F1004F8CBF0023012366
:1072E00002E00368DB43DB0F002B46D02946204633
:1072F000FFF77FFB002843D0037A03F07F03043BB2
:10730000082B3CD8DFE803F00909053B053B073BA8
:107310002400006814E000680DE0016801A8FFF790
:1073200005FF9DF80C3001980A2B04D00C2B0CD0D3
:10733000082B24D104E0B0F1004F20D840421FE0D8
:10734000B0F1004F28BF00201AE0DDED027A01E025
:10735000D0ED007A9FED0B7AF4EEC77AF1EE10FAD9
:107360000DDB9FED097AF4EEC77AF1EE10FA06D83C
:10737000FDEEE77A17EE900A02E0306800E00020A8
:1073800004B070BD000000CF0000004F006803682B
:10739000DB68184738B5044608460D4608F0DEFDA0
:1073A000294602462046FFF7F1FF636818446060F3
:1073B00038BD10B50446006803689B689847636849
:1073C0001844606010BD000070B505460C4619B940
:1073D0001149FFF7DFFF70BD2221FFF7EAFF013CF3
:1073E00014F8011F71B10D4B13F8026C7EB102331A
:1073F00013F8032C8A42F7D15C212846FFF7D9FF06
:10740000314604E022212846FFF7D3FF70BD28460D
:10741000FFF7CFFFE4E700BFDF1D0E00D21D0E0017
:10742000F8B5DFED557AB4EEE70A0623F1EE10FA6F
:107430002DED028B0446B0EE408A83721CDB4F4B6D
:107440004F4AA3F118010025202772ED017AF4EECE
:10745000C87AF1EE10FA9CBFD3ED057AED19A3F1CD
:1074600004039CBF28EE278A2DB299424FEA670792
:10747000EBD14FF0FF3602E0202705260025B5EEC0
:10748000C08AF1EE10FA21DD18EE100A07F09CFE1A
:1074900037A3D3E9002308F067F9B8B1394A3A496C
:1074A000731C13D0B300D018D0ED007AF4EEC87A74
:1074B000F1EE10FA06DD0B44D3ED007AED1B28EE59
:1074C000278A2DB2013E7F1076B2E9E7FCEEC87A3A
:1074D0002E49258117EE903A17EE902AC4ED007AD6
:1074E0000A26092A07D9B1FBF6F1B2FBF6F2A07A17
:1074F0000138A072F5E707EE903AB8EE670A07EE9A
:10750000901A38EE408AB8EEE70A28EE008AFCEEC0
:10751000C87AB8EE670A17EE900A38EE408A38EE5D
:10752000088ABCEEC88A18EE102A0244914201D99A
:1075300062600AE000220133626023602DB1092BF2
:1075400081BF01350123258123600A216368B3FBD4
:10755000F1F201FB12333BB994F90A30002B03DD41
:10756000013B6260A372F1E7BDEC028B2046F8BDDF
:10757000F168E388B5F8E43E8096184B84D6032082
:10758000B4D603206CD603209CD6032040420F00C3
:1075900010B5521A0446FFF7F9FE6368184460609C
:1075A00010BD30B587B00B460DF116010A460A250D
:1075B000B3FBF5F405FB1433303301F8013D2346EA
:1075C000002CF5D1FFF7E4FF07B030BDF0B52DED8D
:1075D000028BB4EE400AF1EE10FA8BB00446B0EE26
:1075E000408A04D73C492046FFF7D4FE6FE09FED68
:1075F0003B7AF0EEC07AF4EE477AF1EE10FAF1DC65
:10760000B5EEC00AF1EE10FA04D52D21FFF7D1FE38
:10761000B1EE488AB0EE480A01A8FFF701FF0199D0
:107620002046FFF7BEFF9DF90E10C9B108AD029BC1
:1076300008462A460A27013840B2461C08D0B3FB48
:10764000F7F607FB1633303305F8013D3346F2E712
:10765000C9B2511A2E2301F8013D2046FFF798FFC9
:10766000BDF90C30002B17DA1D492046FFF792FEBA
:10767000BDF90C300DF126015B420A460A2593FB49
:10768000F5F005FB1033303301F8013D03460028C7
:10769000F5D12046FFF77CFFBDF90C30002B16DD3D
:1076A00065212046FFF785FE0DF12601BDF90C305E
:1076B0000A460A2593FBF5F005FB1033303301F839
:1076C000013D03B2002BF5D12046FFF761FF0BB05F
:1076D000BDEC028BF0BD00BFDF1D0E00FFFF7F7F02
:1076E000E41D0E0038B5037A03F07F03062B054630
:1076F0000C4667D008D8022B6AD3032B54D90168F3
:107700002046FFF761FE38BD0C2B15D00AD8082B98
:1077100053D00A2B5CD105682D212046FFF749FE86
:1077200029464BE0202B1ED0402B51D15B21204617
:10773000FFF73FFE2D6812E090ED000A0846FFF7C4
:1077400045FF38BD28462146FFF7CCFF2846FDF708
:1077500002FB054628B12C212046FFF72AFE002D0A
:10776000F0D15D211CE07B212046FFF722FE2D6831
:10777000ADB1E9682046FFF727FE3A212046FFF722
:1077800018FE28462146FFF7ADFF2846FDF7E3FA2D
:10779000054620B12C212046FFF70BFEE8E77D21AE
:1077A0002046FFF706FE38BD90E806002046FFF7AA
:1077B000EDFD63681844606038BD01682046FFF73E
:1077C000F0FE38BD03680BB1044902E0044900E053
:1077D00004492046FFF7DEFD38BD00BFE71D0E005F
:1077E000EC1D0E00DF1D0E0030B5ADF5157D014618
:1077F000054604AC444803F04DFE204617232A46B4
:10780000414903F0D9FD204602F0F4FE68B906F0C4
:10781000C1FA3E4905F0A3FA0DA83C4A3C49FDF7E0
:107820007BF90EA8FEF73CF96AE00DA8FFF718F8FF
:107830000DAA384911A8FFF761F80DAA3649FFF7DC
:1078400026F80DAA354911A8FFF758F80DAA3449B2
:10785000FFF71DF80DAA334911A8FFF74FF80DAA3D
:107860003149FFF714F80DAA304911A8FFF746F87F
:107870002F4B1968FFF72EF80DAA2E4911A8FFF714
:107880003DF82D4B1968FFF725F80DAA2B4911A8D3
:10789000FFF734F80DAA2A49FEF7F9FF0DAA294986
:1078A00011A8FFF72BF80DAA2749FEF7F0FF0DAA44
:1078B000264911A8FFF722F80DAA2549FEF7E7FF90
:1078C0000DAA244911A8FFF719F80DAA2249FEF7BD
:1078D000DEFF0023694611A801930094FFF702FF21
:1078E000019B53B91D49684604F0CDFD684602214D
:1078F000FDF7EAFA684604F07FFD204602F06EFECE
:107900000DF5157D30BD00BFD0E30320F21D0E0044
:107910000F1E0E00151E0E0074DF0320191E0E0030
:10792000A0DE0320251E0E0064DF03202E1E0E00A5
:1079300090DE03203B1E0E00B4D60320471E0E002F
:1079400018DF0320541E0E003CDF0320611E0E00D2
:1079500050DF03206E1E0E00C0DE0320761E0E00D8
:1079600038B5044608460D4608F0F8FA294602469E
:107970002046FDF742FA63681844606038BD10B5D0
:107980000446006804F04DFE63680133636010BD77
:1079900070B505460C4619B91149FFF7E1FF70BDF6
:1079A0002221FFF7ECFF013C14F8011F71B10D4BD0
:1079B00013F8026C7EB1023313F8032C8A42F7D11C
:1079C0005C212846FFF7DBFF314604E022212846F0
:1079D000FFF7D5FF70BD2846FFF7D1FFE4E700BFF2
:1079E000DF1D0E00D21D0E0010B5521A0446FDF721
:1079F00004FA63681844606010BD30B587B00B4668
:107A00000DF116010A460A25B3FBF5F405FB143304
:107A1000303301F8013D2346002CF5D1FFF7E4FF98
:107A200007B030BDF0B52DED028BB4EE400AF1EE9B
:107A300010FA8BB00446B0EE408A04D73C49204689
:107A4000FFF78EFF6FE09FED3B7AF0EEC07AF4EE29
:107A5000477AF1EE10FAF1DCB5EEC00AF1EE10FA59
:107A600004D52D21FFF78BFFB1EE488AB0EE480A0E
:107A700001A8FFF7D5FC01992046FFF7BEFF9DF94D
:107A80000E10C9B108AD029B08462A460A270138E4
:107A900040B2461C08D0B3FBF7F607FB1633303371
:107AA00005F8013D3346F2E7C9B2511A2E2301F819
:107AB000013D2046FFF798FFBDF90C30002B17DA87
:107AC0001D492046FFF74CFFBDF90C300DF1260192
:107AD0005B420A460A2593FBF5F005FB1033303371
:107AE00001F8013D03460028F5D12046FFF77CFF51
:107AF000BDF90C30002B16DD65212046FFF73FFF56
:107B00000DF12601BDF90C300A460A2593FBF5F06C
:107B100005FB1033303301F8013D03B2002BF5D1E2
:107B20002046FFF761FF0BB0BDEC028BF0BD00BF3C
:107B3000DF1D0E00FFFF7F7FE41D0E0038B5037AC6
:107B400003F07F03062B05460C4667D008D8022BAE
:107B50006AD3032B54D901682046FFF719FF38BDBB
:107B60000C2B15D00AD8082B53D00A2B5CD10568F2
:107B70002D212046FFF703FF29464BE0202B1ED086
:107B8000402B51D15B212046FFF7F9FE2D6812E012
:107B900090ED000A0846FFF745FF38BD284621460C
:107BA000FFF7CCFF2846FDF7D6F8054628B12C2173
:107BB0002046FFF7E4FE002DF0D15D211CE07B2183
:107BC0002046FFF7DCFE2D68ADB1E9682046FFF7DF
:107BD000DFFE3A212046FFF7D2FE28462146FFF776
:107BE000ADFF2846FDF7B7F8054620B12C21204609
:107BF000FFF7C5FEE8E77D212046FFF7C0FE38BD50
:107C000090E806002046FDF7F8F8636818446060C5
:107C100038BD01682046FFF7F0FE38BD03680BB1A0
:107C2000044902E0044900E004492046FFF798FEB9
:107C300038BD00BFE71D0E00EC1D0E00DF1D0E005D
:107C4000F0B591E85000103487B005463146204623
:107C50001746FEF7CEFE88B3037A03F07F03043B9A
:107C6000012B2BD820463146FEF7C3FE044658B1FF
:107C7000037A03F07F03043B012B05D8016819B197
:107C8000284604F000FC1DE002AE1049304604F026
:107C9000FAFB00230096019324B169462046FFF7C2
:107CA0004DFF03E00A496846FFF75AFE3146284671
:107CB00004F092FB304604F09FFB03E0394628466F
:107CC00004F003FC284607B0F0BD00BFDE1D0E0027
:107CD000DF1D0E002DE9F04FADF51B7D0C46024671
:107CE000012379490AA803F067FB0AA802F082FC85
:107CF00013AD04F1080604F11C0704F1380804F17F
:107D00006A0904F17E0A04F1920B002800F09B80BE
:107D10002846FEF7A5FD4FF00A020AA92846FFF7FC
:107D2000BBF801A98DF8040004A8FDF73BF8049BFB
:107D3000002B40F0BB80059BDB0700F1B780634B55
:107D4000634A039302A906A80295FFF779FF082268
:107D50000699204608F0EDF806A804F04DFB5D4BAF
:107D60005D4A039302A906A80295FFF769FF142252
:107D70000699304608F0DDF806A804F03DFB574BA5
:107D8000574A039302A906A80295FFF759FF142248
:107D90000699384608F0CDF806A804F02DFB514BA3
:107DA0005149079306A80695FFF782FA4F4B2063C7
:107DB0004F49079306A80695FFF77AFA4D4B606383
:107DC0004D4A039302A906A80295FFF739FF322214
:107DD0000699404608F0ADF806A804F00DFB474BA5
:107DE000474A039302A906A80295FFF729FF142228
:107DF0000699484608F09DF806A804F0FDFA414BA4
:107E0000414A039302A906A80295FFF719FF14221D
:107E10000699504608F08DF806A804F0EDFA3B4BA1
:107E20003B4A039302A906A80295FFF709FF3222F5
:107E30000699584608F07DF806A804F0DDFA0AA86D
:107E400002F0CCFB0CE005F0A5FF324904F087FFFF
:107E50002846304A3049FCF75FFE14A8FDF720FEA3
:107E600021461B4804F03CFB31461B4804F038FB1C
:107E700039461B4804F034FB1B4B226B1A601C4B29
:107E8000626B1D481A60414604F02AFB49461C48B3
:107E900004F026FB51461C4804F022FB59461C48BE
:107EA00004F01EFB0DF51B7DBDE8F08F05F072FFA1
:107EB0001A4904F054FF06A8184A1749FCF72CFE8B
:107EC00007A8FDF7EDFDBAE7D0E30320151E0E006D
:107ED00074DF0320191E0E00A0DE0320251E0E00F5
:107EE00064DF03202E1E0E0090DE03203B1E0E00DA
:107EF000B4D60320471E0E0018DF0320541E0E00C8
:107F00003CDF0320611E0E0050DF03206E1E0E00BA
:107F1000C0DE03208E1E0E00BE1E0E00C51E0E000B
:107F200030B58FB08449044605A804F0ACFA0421AA
:107F300005A8FCF7C9FF05A804F05EFA7F4905A86B
:107F400004F0C3FA7E4B7F4A1B6812887E4805A95D
:107F500002F0A2FB054605A804F04EFA0DB97B49D4
:107F60000DE07B4905A804F0B0FA05A9764802F0B7
:107F7000F5FB054605A804F03FFA5DB9754905A86B
:107F800004F081FA05A80221FCF79EFF05A804F081
:107F900033FACEE0704905A804F097FA05A96A48BB
:107FA00002F0FEFB054605A804F026FA0DB96B4960
:107FB000E5E7214605A804F088FA05A9624802F021
:107FC00011FC054605A804F017FA002D44D16449B8
:107FD00005A804F058FA032105A8FCF775FF05A8C9
:107FE00004F00AFA214605A804F06FFA05A95648DC
:107FF00002F01AFC054605A804F0FEF9B5B9594986
:1080000001A804F040FA214601A804F017FB01463C
:1080100005A804F05AFA022105A8FCF755FF05A8A7
:1080200004F0EAF901A804F0E7F982E04E4901A85A
:1080300004F029FA214601A804F000FB014605A836
:1080400004F043FA032105A8FCF73EFF05A804F05D
:10805000D3F901A804F0D0F9444901A804F013FAB7
:10806000434901A804F0EAFA424904F0F3FA014650
:1080700005A804F02AFA05A9334802F045FD044694
:1080800005A804F0B9F901A804F0B6F90CB93A4909
:1080900075E73A493A4803F0FDF920B905F07AFE50
:1080A000384904F05CFE05A81723344A344903F02C
:1080B00083F905A802F09EFA80B1234806F033F94F
:1080C000B8B1214806F01AFB0028F6D01E4806F089
:1080D000BEF9C1B205A802F0CFF9F2E72A4901A81A
:1080E00004F0D1F901A80221FCF7EEFE01A804F08A
:1080F00083F905A802F072FA0A2004F099FF1248E9
:1081000002F00CFB104802F0F5FB0A2004F090FF8F
:108110001E4901A804F0B7F904210DEB0100FCF79A
:10812000D3FE01A804F068F914481949FFF7D2FDFD
:1081300000E000200FB030BDF01E0E0018DF03205D
:10814000B8D7032038DA032044DD0320F31E0E00E5
:108150003CDF0320101F0E0050DF03201D1F0E0008
:10816000631B0E007B1B0E008E1B0E002A1F0E00D1
:1081700074DF03203E1F0E004A1F0E005C1F0E001E
:10818000D0E30320671F0E00851F0E00A11F0E0005
:10819000B8D603202DE9F04FC04FC9B03D46C048C6
:1081A000FCF7D0FC03F02AFDBE493C6806A804F0A9
:1081B0006AF9FCF7C9FD04A8BB49FCF727FD04A830
:1081C00003F0EAFF80B1B9493EA804F05CF904214C
:1081D0003EA8FCF779FE3EA804F00EF94FF47A7041
:1081E00004F026FF03F085FF04A803F0DCFF00285D
:1081F00000F0708100242E68009423462246072157
:10820000204604F049FFA6482346224621464068FE
:1082100003F094FCA6493EA804F035F93EA80421D9
:10822000FCF752FE3EA804F0E7F89D48FCF796FCE8
:10823000044628BB013E4FF47A7004F0F9FE8C2E00
:10824000F3DC012004F048FF0121072006F0EAFBDF
:10825000642004F0EDFE97493EA804F014F90421CF
:108260003EA8FCF731FE3EA804F0C6F80121072025
:1082700006F0E9FB41F2883004F0DAFE2146D1E055
:108280002E684FF496735E43002E40F3F480062070
:1082900006F0F2FB00286FD10446062006F0ECFB46
:1082A00020B96420643404F0C3FEF6E782493EA896
:1082B00004F0E9F80A22314634A804F034F934A96C
:1082C0003EA804F0BBF97D4902682BA8FCF724FC0A
:1082D0002CA8FDF7E5FB34A804F08EF83EA804F0C6
:1082E0008BF86F493EA805F09FFD75492BA804F057
:1082F000CAF80A22409922A804F015F922A92BA84D
:1083000004F09CF96F4904F0A5F9014634A804F083
:10831000DCF8042134A8FCF7D7FD34A804F06CF88D
:1083200022A804F069F82BA804F066F8012004F0F4
:10833000D3FE0121072006F075FB642004F078FECF
:1083400000266FF00909409B93FBF9F39E4211D878
:108350000021072006F077FB4FF4FA7004F068FE66
:108360000121072006F06FFB4FF4FA7004F060FE65
:108370000136E8E72E6800E00024072200231046BB
:108380000093114604F088FEFCF7DEFC642004F044
:108390004FFEFCF77BFCB4F5FA6F06F1FF367FF772
:1083A00073AF42F20F739C4265DD012004F094FE2E
:1083B0000121072006F036FB03F020FC2C6803F0B7
:1083C0002DFC0646002848D10146072006F03BFB5D
:1083D000FA2004F02DFE0121072006F034FBFA20DC
:1083E00004F026FE8C2C34DC012004F075FE012103
:1083F000072006F017FB642004F01AFE32493EA85D
:1084000004F041F804213EA8FCF75EFD3EA803F00D
:10841000F3FF0121072006F016FB41F2883004F03B
:1084200007FE3146072006F00EFB4FF47A7004F089
:10843000FFFD264B1B680093022240F2DC5306210D
:108440003EA8FCF7CDFB4FF47A7004F0F1FD00F08C
:1084500068BD013CFCF71AFCB1E74FF0FF311C4846
:1084600005F021F90722002300931146104604F07D
:1084700013FE00F056BD012004F02EFE012107205E
:1084800006F0D0FA0021072006F0DDFA0A2004F0F9
:10849000CFFD4FF41670FDF7C9FAD4E7B8D7032023
:1084A000C0E40320DE1D0E003CE40320A71F0E00E5
:1084B000AA1F0E00B71F0E00C91F0E00C01C0E0021
:1084C000E71F0E00F61F0E00F91F0E00A4E20320A6
:1084D000F0E603209E493EA803F0D5FF04213EA804
:1084E000FCF7F2FC3EA803F087FF03F0DDF89948A3
:1084F000FCF734FBB0B94FF47A70013C04F098FDFE
:10850000FCF722FC002CF2DC934B944901223EA89C
:108510001A7003F0B8FF3EA80321FCF7D5FC3EA873
:1085200003F06AFF2C6803F0BFF8814603F076FB86
:10853000C0B94FF47A70013C04F07AFDFCF704FCFA
:10854000AA2CF3DC864B01221A7003F05FFB8549ED
:108550003EA803F098FF3EA80321FCF7B5FC3EA817
:1085600003F04AFF2C6803F09FF87F49064634A8C1
:1085700003F089FFC9EB06060A224FF47A712BA893
:10858000B6FBF1F103F0F5FF2BA934A804F056F87F
:1085900001463EA803F099FF04213EA8FCF794FC95
:1085A0003EA803F029FF2BA803F026FF34A803F010
:1085B00023FF6E48DFF8A09104F0EEFE06210AA822
:1085C00003F0EBFF694804F0D1FE06210EA803F08A
:1085D000E4FF604934A805F027FC65491EA803F0B4
:1085E00052FF0AA91EA804F029F8624904F032F8E3
:1085F0000EA904F023F8604904F02CF80A2206467C
:10860000369922A803F08FFF22A9304604F016F80D
:108610005A4904F01FF8064634A804F0C7FD0621A5
:108620002BA803F0BAFF2BA9304604F007F85449F1
:1086300004F010F801463EA803F047FF04213EA8CD
:10864000FCF742FC3EA803F0D7FE2BA803F0D4FEB3
:1086500022A803F0D1FE1EA803F0CEFE34A804F039
:10866000A5FDF3EE097AB4EEE70AF1EE10FA44BF85
:10867000012389F8003099F80030002B40F09880F1
:10868000374B1E78EEB13F492BA803F0FCFE3E4964
:108690002BA803F0D3FF3D4903F0DCFF01463EA8C1
:1086A00003F013FF3EA8FFF73BFC3EA803F0A4FE37
:1086B0002BA803F0A1FE364B36491868FFF794F853
:1086C00076E0354B35491B788DF8003032463C2337
:1086D0003EA805F0E5F83FA8FDF7E2F9304B314937
:1086E0001B788DF8003032463C233EA805F0D8F8C0
:1086F0003FA8FDF7D5F90A9A2B493EA8FCF70CFADA
:108700003FA8FDF7CDF90A2236993EA803F00BFFEA
:108710003E9A26492BA8FCF7FFF92CA8FDF7C0F9D3
:108720003EA803F069FE03F079FA10B1304603F079
:108730008DFAFCF7DEF9002840F0F883A92C40F30D
:108740002E844FF4FA7004F073FC013CF1E700BF93
:1087500014200E00C0E4032094DE032018200E0035
:10876000E8DE032024200E008F1C0E00B0DE032064
:1087700030200E0036200E003B200E0042200E005E
:10878000611A0E002A1F0E0074DF0320F1190E007B
:10879000ECDE0320B8D603209DDE0320B31A0E00C2
:1087A00000DF03209E1A0E004A200E0053200E0008
:1087B000B74C3EA802F09DFBBDF8FC303E98A3806C
:1087C000206005F0E7FA21780A22064601F5FA61F1
:1087D0003EA803F0A8FE3E99304604F0ADFA3EA84C
:1087E00003F00AFE05F0D6FA2F2104F0A9FA05F0ED
:1087F000D1FA0A22064661783EA803F082FE3E992D
:10880000304604F099FA3EA803F0F6FD05F0C2FAEE
:108810002F2104F095FA05F0BDFA0A220646A17848
:108820003EA803F06EFE3E99304604F085FA3EA85D
:1088300003F0E2FD05F0AEFA202104F081FA05F024
:10884000A9FA0A220646E1783EA803F05AFE3E99AC
:10885000304604F071FA3EA803F0CEFD05F09AFA16
:108860003A2104F06DFA05F095FA0A2206462179BC
:108870003EA803F046FE3E99304604F05DFA3EA85D
:1088800003F0BAFD05F086FA3A2104F059FA05F032
:1088900081FA0A22064661793EA803F032FE3E992B
:1088A000304604F049FA3EA803F0A6FD05F072FA3E
:1088B00004F049FAA378012B264603D1E3780F2B65
:1088C00000F089836179E378A278019121790091A0
:1088D0003EA8704903F0F2F93EA906A803F000FE95
:1088E00006A92BA803F0F1FD2BA8FDF76BFB0446AE
:1088F0002BA803F081FDF4B9674922A803F0C3FD5A
:1089000006A922A803F09AFE01462BA803F0DDFD7C
:1089100001212BA8FCF7D8FA2BA803F06DFD22A8A3
:1089200003F06AFD41F2883004F082FB4FF4967048
:10893000FDF77CF8EFE2594804F018FDDFED587AB6
:10894000584B20EE270AD3ED007AF8EEE77AB4EE22
:10895000E70AF1EE10FA33D5534922A803F093FD4C
:108960004E4804F003FD06211EA803F016FE1EA9C2
:1089700022A803F063FE4D4903F06CFE01462BA8CC
:1089800003F0A3FD01212BA8FCF79EFA2BA803F00E
:1089900033FD1EA803F030FD22A803F02DFD0021B9
:1089A000132006F050F84FF47A7004F041FB4FF4B6
:1089B0006160FDF73BF84FF47A7004F039FBAAE2EE
:1089C00099F80040002C40F01D8206A922A803F06F
:1089D0007CFD37492BA803F078FD234621462BAABE
:1089E00022A8FCF777FC04462BA803F005FD22A87B
:1089F00003F002FD002C63D12E492BA803F043FDA8
:108A00002BA80221FCF760FA2BA803F0F5FC2A48FA
:108A1000FCF7A4F820B94FF47A7004F009FBF6E7EC
:108A2000254F002506A922A803F04FFD20492BA8B9
:108A300003F04BFD00232BAA012122A8FCF74AFCDE
:108A400018B9B5FA85F4640900E000242BA803F0F6
:108A5000D3FC22A803F0D0FC002C3CD017492BA853
:108A600003F011FD02212BA8FCF72EFA2BA803F02E
:108A7000C3FCFCF769F9013500221146786803F060
:108A800065F80028CED04FF4FA7004F0D1FAF3E77D
:108A9000B8DE03205E200E0073200E00B0DE03203F
:108AA0000000C842B4D6032092200E00B6200E006B
:108AB000C0DE0320B9200E00C0E40320C4200E0055
:108AC000AB492BA803F0DFFC2BA80421FCF7FCF931
:108AD0002BA803F091FC7178A64CA74D013901EB4E
:108AE0008101214412A803F0CEFC12A91AA803F0B8
:108AF000ECFC31780A2201F5FA6116A803F013FDA7
:108B000016A91AA803F09AFD9C4903F0A3FD01469B
:108B100022A803F0DAFC9A491EA803F0B4FC994994
:108B20001EA803F08BFD01462BA803F0CEFC012309
:108B30002BAA194622A8FCF7CDFB06462BA803F06A
:108B40005BFC1EA803F058FC22A803F055FC16A8F5
:108B500003F052FC1AA803F04FFC12A803F04CFCDF
:108B60002746002E6FD188492BA803F08CFC0221E8
:108B70002BA8FCF7A9F92BA803F03EFC41F28830A2
:108B800004F056FA8148FBF7E9FF0028FAD00024E8
:108B90006978013901EB8101394412A803F073FCB3
:108BA00012A91AA803F091FC29780A2201F5FA61AA
:108BB00016A803F0B8FC16A91AA803F03FFD6F49E8
:108BC00003F048FD014622A803F07FFC6C491EA873
:108BD00003F059FC6B491EA803F030FD01462BA899
:108BE00003F073FC01232BAA194622A8FCF772FBA1
:108BF00018B9B4FA84F6760900E000262BA803F031
:108C0000FBFB1EA803F0F8FB22A803F0F5FB16A857
:108C100003F0F2FB1AA803F0EFFB12A803F0ECFB41
:108C2000EEB15B492BA803F02EFC02212BA8FCF728
:108C30004BF92BA803F0E0FB01345448FBF78EFFFF
:108C40000028FAD0A4E753492BA803F01CFC042108
:108C50002BA8FCF739F92BA803F0CEFB00246A7887
:108C60002B7800924C4A4D49126803F5FA633EA8EE
:108C700003F024F805F08EF8494905462BA803F0C7
:108C800002FC3EA922A803F0FEFB22A92BA803F0B8
:108C9000D5FC0168284604F062F822A803F0ACFB7A
:108CA0002BA803F0A9FB3EA93E4802F0C9FB00280F
:108CB00000F09B8005F06EF83B4904F050F83EAAA6
:108CC000012338492BA802F077FB2BA93748FCF782
:108CD000E5F80122354922A802F0EAFB22A801F0BA
:108CE00089FC002800F0828122A801F04BFC0028BA
:108CF00040F07C8122A801F043FC014606A803F065
:108D0000EFFB05F047F82A4905462BA803F0BBFB0B
:108D100006A92BA803F092FC0168284604F01FF86E
:108D20002BA803F069FB22A801F058FC06A91EA895
:108D300003F0CBFB1F492BA803F0C7FB02232BAA90
:108D400000211EA8FCF7C6FA18B9B4FA84F56D091B
:108D500000E000252BA803F04FFB1EA803F04CFBFE
:108D600055B301340948FBF7F9FE0028FAD0DDE7D6
:108D7000D5200E007CD70320B8DE0320DA200E00B9
:108D80002A1F0E0074DF0320DF200E00C0E4032042
:108D9000EA200E00FB200E00A0DE032000210E00C2
:108DA0000F210E00D0E303201D210E0018DD03204B
:108DB00079210E00C0DE03203EA92BA803F063FB3F
:108DC00006A92BA803F03AFC01689A4802F062FB5E
:108DD0002BA803F011FB2BA80122974902F068FB96
:108DE0002BA922A8FCF75AF878E704F0D3FF93499F
:108DF00003F0B5FF2BA8924A9249FBF78DFE2CA8F1
:108E0000FCF74EFE2BA8904D02F073F82B98BDF89E
:108E1000B03028608D48AB8002F03DF98C4B18686B
:108E2000012815D002282DD0002846D1EC78AB7847
:108E30006A782978062C07D90A2C40F2E4800E2C97
:108E400040F2E580013317E0029001900720E1E055
:108E5000E878C31F0A2B08D800240130AB786A7861
:108E6000297802940194C0B2D4E0122825D8AB78B6
:108E70006A78297801330020029001900720009041
:108E8000DBB2C8E00024AB786A78297802940194B8
:108E9000E878009001F5FA612BA801F0DDFE234689
:108EA0000122214600941EA801F084FF22A81EAAD8
:108EB0002BA901F072FF22A8B3E00024654922A883
:108EC00003F0E1FA0A2221461EA803F02CFB1EA99A
:108ED00022A803F0B3FB01462BA803F0F6FA042105
:108EE0002BA8FBF7F1FF2BA803F086FA1EA803F0CE
:108EF00083FA22A803F080FA2046FCF797FD0EA81B
:108F000003F07AFA0AA803F077FA06A803F074FAD5
:108F100049B0BDE8F08F0EA803F06EFA0AA803F07E
:108F20006BFA06A803F068FAFFF739B9A92C36DD09
:108F300004F012F8002832D004F066F8824604F0FB
:108F40005BF8834604F04EF8804604F02DF80446A2
:108F500004F034F8064604F03BF8F6B2C0B2E4B2CE
:108F60005FFA88F35FFA8BF21FFA8AF1029001969A
:108F700000943EA801F070FE3EA801F04EFFFBF702
:108F8000B8FD354A35493EA8FBF7C6FD3FA8FCF7BA
:108F900087FD33493EA803F076FA042104E0314905
:108FA0003EA803F070FA02213EA8FBF78DFF3EA811
:108FB00003F022FA2C682C492C4803F05DFB0028B2
:108FC0003FF461AB002C7FF75EAB4FF47A7004F096
:108FD0002FF8013CEFE726493EA803F054FA3EA8DB
:108FE000FCF774FD3EA803F007FA6BE4124801F0A9
:108FF000F5FA04F0CFFE1F4903F0B1FE3EA90D487B
:1090000002F03AFAF6E6029001900B2002E002909C
:1090100001900F20009001F5FA612BA801F01CFED1
:109020002BA801F0A7FE0446284601F0A3FE241A4F
:1090300044E700BFD0E3032018DD032030210E00F9
:109040004B210E00C01C0E00B8DE03209CDE032066
:1090500090DE0320A1220E0054210E00BE1E0E0041
:1090600061210E0067210E0058200E00A0DE0320B3
:10907000DE1D0E008F210E0010B587488EB0FBF765
:1090800061FD864804F0F4F9844804F007F9844847
:1090900002F0B6FEFBF758FE824A8349834804F08B
:1090A000EBFA0024824A8349804804F0E5FA23461B
:1090B0002246814901940094804802F0BFFD0123BB
:1090C00022467D49019400947D4802F0B7FD4FF09F
:1090D000FF317C4804F0E7FA4FF49671794804F0C8
:1090E000E2FAB9EE040A03F01BFF0121132005F098
:1090F00099FC0121072005F095FC2146082005F088
:1091000091FC0121072005F08DFC2146062005F089
:1091100089FC05F03DFD6C4904F0C6FF05F038FD03
:1091200004F0C6FFFBF782FE5C4804F01FF9DFED98
:10913000677A674B20EE270AD3ED007AF8EEE77ADC
:10914000B4EEE70AF1EE10FA2ED5624906A803F054
:109150009AF9524804F00AF9062102A803F01DFA10
:1091600002A906A803F06AFA5B4903F073FA014604
:109170000AA803F0AAF901210AA8FBF7A5FE0AA88C
:1091800003F03AF902A803F037F906A803F034F91E
:109190002146132005F057FC4FF47A7003F048FF86
:1091A0004FF46160FCF742FC4C4906A803F06BF9F0
:1091B000002211460AA80A9202F09EFA0A220A998F
:1091C00002A803F0B0F902A906A803F037FA014695
:1091D0000AA803F07AF904210AA8FBF775FE0AA889
:1091E00003F00AF902A803F007F906A803F004F94E
:1091F00001F0F2FD04F0CEFD4FF4E13104F0BEFDCC
:10920000374801F048FF374906A803F03CF93649D2
:1092100002A803F038F902A906A803F00FFA0146E4
:109220000AA803F052F904210AA8FBF74DFE0AA888
:1092300003F0E2F802A803F0DFF806A803F0DCF878
:10924000274801F0CBFDC8B928490AA803F01BF94B
:1092500002210AA8FBF738FE0AA803F0CDF8244A39
:1092600024490AA801F00CFD0AA801F0D6FD41F23C
:10927000883003F0DDFE02F03CFF05E0184801F005
:1092800006FF174801F007FF1B4B1C491868FEF743
:1092900021FD0EB010BD00BFC0E40320B0DE0320EE
:1092A00028DF0320A4210E00C55F0D004DD60D0060
:1092B000AD210E00CD5A0D00C5500D00B31A0E00A1
:1092C0009E1A0E00F0E60320A08601000000C842AE
:1092D000B4D6032092200E00B6200E00B5210E0059
:1092E0009CDE0320C2210E00C8210E00CF210E00FB
:1092F000E3210E00EC210E00ECDE0320B8D60320A3
:1093000010B52421044605F09DFC204610BD000048
:109310005E4B70B500241C605D4B5E4D1C705E4B57
:1093200001261E7002F030F94FF6FF736B812C603E
:10933000AC80AC712C81304602F0B2FB574A5849E0
:10934000284605F071FC2146304602F0B9FB214663
:109350005448554D03F0CAFF504A5449514805F04E
:1093600063FC4FF40073524A52495348FBF796FC92
:109370004A4A5249504805F057FC2146504801F0EE
:109380001DFC5049504803F07EF8444A4F494E486E
:1093900005F04AFC4E494F4803F075F83F4A4B49E7
:1093A0004C4805F041FC4C494C4803F06CF83B4AF2
:1093B00046494A4805F038FC49494A4803F063F8F1
:1093C000364A4249474805F02FFC4749474803F0D1
:1093D0005AF8324A3D49454805F026FC28194449C7
:1093E000103403F050F8B4F5487FF7D12B4A4149C7
:1093F000414C002005F018FC4049414803F043F877
:10940000264A32493E4805F00FFC3E493E4803F0EB
:109410003AF8224A2D493C4805F006FC3B493C48B5
:1094200003F031F81D4A2949394805F0FDFB0522B2
:1094300011463848FBF7C6F80021374802F075FCA2
:10944000164A3649344805F0EFFB4FF4A672002166
:10945000204606F003FD204605F0ECF904F11C005F
:1094600005F0E8F90A230D4A2D49C4F84831204691
:1094700005F0DAFB2B4801F077F8084A2A49294819
:1094800005F0D2FBBDE87040FBF7CBBCA4E20320A3
:1094900000DF03202CDF03209DDE0320F4DA03200D
:1094A000354B0D00B0DE032084DF03200BD30D000D
:1094B0009D500D00905F0100D0DE03209F4B0D00FA
:1094C000B8DE0320F8210E0018DF0320F9C30D00D9
:1094D00008220E003CDF03200C220E0050DF032088
:1094E00015220E00C0DE03205C1F0E00ECDE032000
:1094F000DE1D0E00A54A0D0044DD032021220E00D2
:10950000A0DE032027220E0074DF03202D220E0090
:1095100064DF032004DF032028DF032049BD0D00A2
:1095200015680D0018DD0320A34A0D00704710B523
:109530002821044605F086FB204610BD10B500F139
:109540000C0204460121406AFAF7D6FE60B1236A94
:109550002BB9E3682362237A63F07F032372237AB3
:1095600043F020032372012010BD70B50546FFF7BC
:10957000E5FF08B9002070BD6A6AEB68167C1479B3
:10958000023B03FA06F6536933445E1E3CB13019C0
:10959000FAF7F8FD0028EDD0013CE4B2F6E76B6A7B
:1095A0001A7C4FF400739340EA691344EB61012085
:1095B00070BD000010B504464069FAF7BFFD18B150
:1095C000207E024B03EB401010BD00BF00DB0320E8
:1095D000002270B5013813462E2410F8015F202DAB
:1095E00008D0082A02BFCC545D1CEBB25D1C067883
:1095F000CE54EBB201320B2AEFD10022CA5470BD17
:109600002DE9FF410D464B1E01F10A02202103F80E
:10961000011F9342FBD1461E00224FF0070E16F8A1
:10962000013F83B32E2B06D1BEF10A0F30D00822A2
:109630004FF00A0EF3E7184CEC4604F110082068CE
:109640006168674603C708344445BC46F7D10DF14D
:10965000FF3010F8011F11B18B42FAD118E0964586
:1096600016D3A3F121015D2912D8A3F161001928B5
:1096700002F1010198BF203B2A44C9B298BFDBB276
:1096800013700A46CBE72878203818BF012000E085
:10969000002004B0BDE8F08133220E0038B5427AD4
:1096A00004460D460AB1002038BD91F82030102B39
:1096B00006D10223437202624B8C5B01C3610CE052
:1096C000202BF0D103234372496A016200F11C028E
:1096D0002846FAF7A7FD0028E5D00023012065629F
:1096E0002072E36023616361237638BD2DE9F74F73
:1096F000437A04468946174613B94FF0FF306DE0B0
:10970000037ADA07F9D5C36902699B1A9F4200D927
:109710009FB2DFF8D4A0DFF8D4B0B846B8F1000F9C
:1097200035D0637A2269606A022BC2F308064FEAD9
:10973000522302D1406A184418E00579013D1D40CA
:10974000EDB25EB955B912B9236AE36006E004F1DF
:109750000C02E168FAF734FD0028CED0636AE068B5
:109760001A7C5B690238904018442844C6F500759D
:10977000237AA845CCBFADB245465B0602D4B5F509
:10978000007F1AD1DAF80030984202D115E038B2E1
:1097900024E00146CDF800902B463246DBF800006D
:1097A00000F054FD0028A8D02369C5EB08082B441D
:1097B000A94423611FFA88F8B0E70021FAF7BEFC3C
:1097C00000289AD0074B1E44711909F1FF338E42CD
:1097D000EAD016F8012B03F8012FF8E703B0BDE833
:1097E000F08F00BF00DB032068D60320FCDA0320E3
:1097F00038B5437A012B05460C4616D90369DA06BB
:1098000013D1202221462846FFF770FF40B22028BE
:1098100009D1237863B1E52BF3D02E2BF1D0E37A75
:109820001B07EED438BDC01738BD4FF0FF3038BD30
:10983000184638BD37B5437A012B044601D80020BD
:109840000FE0036901220DF10701C3F34315FFF790
:109850004DFF0128F3D1236903481F33236100EB37
:10986000451003B030BD00BF00DB0320F8B5437ADC
:1098700004460E460BB90020F8BDC2698A42FAD3ED
:10988000022B01D01EB9E66026610120F8BD636A93
:1098900020691B7C421E03F10901731ECA40CB40A4
:1098A0009A4200D828B9226AE2601D4604F10C07EA
:1098B00009E09B1AF9E73A46E168606AFAF780FC2A
:1098C000013D0028D7D0002DF5D1DDE770B5437AF2
:1098D00004460E4643B390F90830002B1ADA0121F2
:1098E000FFF768FE0546F8B1637A012B9CBFE36978
:1098F000C361238C4383638C83820C4B1B682BB125
:1099000000F11601183098472B8B6B82237A03F0F5
:109910007F0323721EB9237A23F01003237230468B
:10992000BDE87040FAF7E8BB002070BDACE303204F
:1099300010B501210446FFF7C9FF10B1002363727F
:10994000012010BDF7B5437A012B04460D460BD11B
:10995000027A920708D5C2698A4205D3002A40D00C
:109960002669FFF783FF08B900203BE03DB9216A73
:10997000606AFAF71BFD0028F6D025621EE001AAF6
:10998000E168606AFAF71CFC0028EDD0606A164BAB
:1099900090F8207001994FF6F872102F08BF134607
:1099A00099420BD2FAF702FD0028DDD06FF0704229
:1099B000E168606AFAF75EFC0028D5D0237AE56199
:1099C00063F07F03237201212046FFF77FFF002809
:1099D000CAD0B5422946204628BF3146FFF746FF88
:1099E00000E0184603B0F0BDF8FFFF0F38B51D4B7F
:1099F00003EB41131546DA7A12F0110F044604D036
:109A000015F0420F01D0002038BD174A21761268A8
:109A10006261998A090421625A8B11432162DA7AC0
:109A200012F0180203D1DB69E361012309E0102A77
:109A3000E9D104F11C02606AFAF7F4FB0028E2D0D5
:109A40000423637205F00F03002123726B06E160AB
:109A5000216104D52046BDE83840FFF773BF0120DF
:109A600038BD00BF00DB032068D603202DE9F0439A
:109A7000447A85B0064688461F46002C78D101A955
:109A80001046FFF7BDFD002872D0D8F82430DFF86B
:109A9000FC907362C8F80C40C8F81040D8F8105019
:109AA000D8F81C309D4221D24046FFF7C3FEC5F3D3
:109AB0004315014600285BD0037873B1E52B59D0DC
:109AC0000B2201A806F0B0F90028E7D107F0300317
:109AD000302B4DD03A46294646E034B9D9F800300B
