:02000002D0002C
:1040000000400D0030300E00000006000D000501DC
:084010000401E80500000000B6
:04401800D4090E00B9
:1040200009480A49884208B505D0094A824202D0A7
:10403000121A0BF08CFF0748074A0021121A0BF0E6
:1040400091FF014808BD00BF6CD603207C2B0E00F9
:10405000F8DA0320F8DA0320F0E7032070B509F05E
:1040600005FB074C074BE41AA40800251E46A54291
:1040700004D056F8253098470135F8E770BD00BFE9
:10408000702B0E00182B0E0004F074BE08B503F060
:1040900001FFBDE8084009F0ABBA07F08BBE07F09E
:1040A00091BE07F08FBE000008B5034A00210C2026
:1040B00007F072FDFEE700BFC1B70D000078B0FA4F
:1040C00080F04009704701230370704710B5036802
:1040D0002F2B044604D9074A00210A2007F05CFD73
:1040E00023681F2B83BF03F01F03236002484FF098
:1040F000A04010BDC1B70D000003005007B502ABD2
:1041000043F8040D1846FFF7E1FF019A012393409D
:10411000C0F8083503B05DF804FB07B502AB43F8FF
:10412000040D1846FFF7D2FF019A01239340C0F80F
:104130000C3503B05DF804FB7FB5024608461379E1
:10414000956833B13DB90C4904B0BDE8704008F042
:1041500077BE0A4B00E00A4B167B0A4C0A49527B99
:104160000292012E08BF214601910095074A0021C5
:1041700008F0A3FE04B070BD590D0E00E61E0E003F
:10418000480D0E00510D0E00550D0E006F0D0E0066
:104190000368C9B29B68184738B504460D4690B20B
:1041A00001210AF0C3FC134B1B6893F8500093F8ED
:1041B000513003F01F0343EA4010FFF79FFF657281
:1041C000102D12D8DFE805F0110B110D0D0F0F099E
:1041D00011110B0D090F110D0D00902306E0BA23EC
:1041E00004E0782302E0602300E04223A37220462B
:1041F00038BD00BF08DB0320054B1B6893F8500057
:1042000093F8513003F01F0343EA4010FFF776BFE5
:1042100008DB0320054B1B6893F8500093F85130DE
:1042200003F01F0343EA4010FFF777BF08DB0320CA
:1042300009B90172704701230372704770B50646D1
:1042400014460D460AF028FDB17A490809F0EFFF3F
:104250000AF022FDE9B2FFF79BFF0AF01DFDE1B273
:10426000FFF796FF0AF018FD09F0E8FF20B90120DA
:1042700008F062FF012070BD002070BD10B5002263
:104280000446042955D8DFE801F05403172B3F00FA
:10429000FF21FFF7D3FF4022C7212046FFF7CEFFC3
:1042A0005E22CC212046FFF7C9FF4122CD212046C6
:1042B000FFF7C4FF54223AE0FF21FFF7BFFF40227F
:1042C000C7212046FFF7BAFF6522CC212046FFF721
:1042D000B5FF4122CD212046FFF7B0FF4F2226E057
:1042E000FF21FFF7ABFF4022C7212046FFF7A6FFC3
:1042F0005222CC212046FFF7A1FF4122CD212046AA
:10430000FFF79CFF662212E0FF21FFF797FF402294
:10431000C7212046FFF792FF4222CC212046FFF71B
:104320008DFF3F22CD212046FFF788FF7122CE214D
:1043300004E0FF21FFF782FF0022C7212046BDE8ED
:104340001040FFF77BBF10B50446072900F2A98093
:10435000DFE801F0041E334D67727D880022FF21E3
:10436000FFF76CFF00227C212046FFF767FF182231
:104370007D212046FFF762FF05227C212046FFF7C2
:104380005DFF40227D212046FFF758FFA62282E0F4
:104390000022FF21FFF752FF00227C212046FFF779
:1043A0004DFF18227D212046FFF748FF05227C2182
:1043B0002046FFF743FFA02213E00022FF21FFF772
:1043C0003DFF00227C212046FFF738FF18227D2187
:1043D0002046FFF733FF05227C212046FFF72EFF02
:1043E00040227D212046FFF729FF402253E0002292
:1043F000FF21FFF723FF00227C212046FFF71EFF4D
:1044000018227D212046FFF719FF05227C21204636
:10441000FFF714FF40227D212046FFF70FFFC02247
:1044200039E00022FF21FFF709FF00227C2120460E
:10443000FFF704FF18221FE00022FF21FFF7FEFE16
:1044400000227C212046FFF7F9FE402214E00022E2
:10445000FF21FFF7F3FE00227C212046FFF7EEFE4E
:10446000582209E00022FF21FFF7E8FE00227C210C
:104470002046FFF7E3FE00227D212046FFF7DEFE07
:1044800005227C212046FFF7D9FE80227D2120468F
:10449000FFF7D4FE802220467D21BDE81040FFF7C3
:1044A000CDBE10BDF8B5002407460D462646FF2EAA
:1044B00005F1040501D1FF2C09D035F8046C35F85D
:1044C000024C314622463846FFF7B8FEEFE701209E
:1044D000F8BD0000082916D8DFE801F00507150926
:1044E0000B0D0F11130009490EE009490CE00949B1
:1044F0000AE0094908E0094906E0094904E00949D8
:1045000002E0094900E00949FFF7CCBF940A0E0018
:104510005A140E00F4090E007C0C0E00340B0E0031
:10452000FA140E00D80B0E00B6130E0096150E00EE
:1045300038B5437A052B04462CD10122FF21FFF721
:104540007DFE802212212046FFF778FE642008F0CD
:10455000F3FD257A012D17D10F492046FFF7A2FF61
:104560000E492046FFF79EFF0D492046FFF79AFFB0
:104570002A46FF212046FFF761FE15210022204632
:10458000FFF75CFE074900E007492046BDE83840D8
:10459000FFF788BF38BD00BFB20D0E00200D0E0022
:1045A0008E0D0E0096150E00AE100E0070B504466E
:1045B00015460E460AF070FBA17A490809F037FE4D
:1045C0000AF06AFB3146FFF7E3FD0AF065FB09F0EC
:1045D00035FE0AF061FBA17A0122D14009F020FEEC
:1045E0000AF05AFB03681B69984728B10AF054FB8C
:1045F00003685B6998472870012008F09DFD012041
:1046000070BD000010B5084C2368DB070AD42046B3
:10461000FFF754FD30B10121044807F0F9FC2046B2
:10462000FFF751FD014810BDFCDA032000DB032039
:1046300010B50446FFF7E6FF2146BDE8104007F03D
:104640009FBD3C20FFF7F4BF7FB51B4B00931B4B76
:104650000293002401231A4D8DF80C300E468DF87C
:1046600004408DF80D40FFF7CDFF694607F018FDB7
:104670002B6893F8500093F8513003F01F0343EA7E
:104680004010FFF74AFDF0B2FFF7D2FF2046FFF7D8
:10469000CFFF2B68044693F8500093F8513003F095
:1046A0001F0343EA4010FFF729FDFFF7ABFF07F0B8
:1046B000DEFC204604B070BDF0090E0000127A0046
:1046C00008DB03203D21FFF7BFBF01F07F01FFF7AB
:1046D000BBBF10B51446FFF7F8FF204010BD70B502
:1046E00042210546FFF7B0FF432104462846FFF765
:1046F000ABFF442106462846FFF7A6FF44EA0624FE
:1047000000F07F0044EA004070BD0000F0B585B0C5
:104710001B4B0093164600231A4A1B4D029201249C
:104720000F468DF804308DF80D308DF80C40FFF7F2
:1047300069FF694607F0B4FC2B6893F8500093F8C2
:10474000513003F01F0343EA4010FFF7E6FCF8B2D4
:10475000FFF76EFFF0B2FFF76BFF2B6893F8500086
:1047600093F8513003F01F0343EA4010FFF7C6FCF3
:10477000FFF748FF07F07BFC204605B0F0BD00BF07
:10478000F0090E0000127A0008DB032041F08001DE
:10479000FFF7BCBF02228421FFF7B8BF01228421AA
:1047A000FFF7B4BFFFF7FABF08B506F081FF014B72
:1047B000186008BD08DB0320704703681847012A0A
:1047C00002D0022A02D004E0016002E00B6800B1CE
:1047D000036000207047704738B5064D002404F58B
:1047E00044702844103C07F09BFE14F5487FF6D136
:1047F00038BD00BF7CDD032010B50123037483683E
:1048000004460BB1C06806E0006828B183680BB9A4
:104810000AF0AFFAC3689847012363740020BDE82B
:10482000104007F079B808B5002007F0ABFA28B1BE
:1048300007F088FA80F00100C0B208BD012008BD71
:10484000037823F07F0319430170704713B5054BBC
:104850001B788DF800303C23044609F0A5F820466B
:1048600002B010BDF8DC032010B50446006808B1A2
:1048700007F0A8FA204610BD00231A4619464068E2
:1048800007F010BA00231A461946406807F012BA1A
:1048900000221146406807F0FDB910B58368044650
:1048A00013B1032201469847204610BD38B504468F
:1048B00070B1056835B12846FFF7EFFF1021284693
:1048C0000AF044FA20461421BDE838400AF03EBA06
:1048D00038BD10B543690446BBB1586806F0E4FF23
:1048E00078B963695A7C12B9586806F0E5FF6369C4
:1048F000586806F0E9FF60690023636128B1FFF79B
:10490000D5FF606908B1FFF7D1FF201DFFF7C5FF94
:10491000204610BD10B586B00446ADF8161006A9A5
:1049200001F8032D089A02920122019300920B468E
:104930000DF1160107F08CFC204606B010BD0000FA
:1049400073B51E4B1D7806460C46B5B902A8012268
:104950001A7040F8045D2A46294606F061FF019B63
:104960001E2B0AD103232068A3710823A58025816B
:10497000638110B107F026FA2560B4F904300BB951
:1049800022689AB1216859B18A88012A03D0042A81
:1049900006D1022205E089896181A271238105E0A7
:1049A000042223814FF6FF73A271638154F8063FFE
:1049B0003360A388B380304602B070BD0CDB0320A7
:1049C00008B506F005FF014B186008BDECE60320B2
:1049D00030B587B01D4600230446049322B1214B15
:1049E0000593214B029204930023E360049B216012
:1049F0003BB1022202A9201D9847059B2361049B1D
:104A0000E3601A4914200AF0A5F930B100230374B9
:104A1000036043608360C36043746061A0B1144B62
:104A2000836063691349DC606069134B8DE8210082
:104A30000922043006F030FF30B963691B7C4BB9A2
:104A4000012006F0B5FEF8E760690023636108B154
:104A5000FFF72CFFFFF7B4FF02A8FFF71EFF204669
:104A600007B030BDBB470D00BF470D0018290E0031
:104A700021EC0D00B61A0E00F9470D0008B5FFF73E
:104A80009FFFBDE8084007F045B9B0F90A3013B1FF
:104A900000EB031070471846704710B54B688A68E2
:104AA00010339A4201D2002010BDA2F110038B6096
:104AB000002BF8D0416819B15C1A24114C8100E038
:104AC00003600021436022F8061C02F8081C42F82B
:104AD000041C184610BD00000B780BB9036002E0FF
:104AE000024B036000234360704700BFB9470D00CD
:104AF000826810B54AB14368C468A34202D3002358
:104B0000836010BD5C1C4460D15410BD10B50446D8
:104B10000021FFF7EDFFA3683BB194E80600E368CE
:104B20004868D31A03444B60E260A06810BD70B5BA
:104B3000064600680C4681681144154607F00EFDD4
:104B40002544AC4205D014F8011B306807F0FDFD88
:104B5000F7E7002070BD0121042006F051BE0000DF
:104B60001FB50E21184805F05FFA044650BB09F046
:104B700095F9164908F077F90121072009F0E7FFB8
:104B800041F2883008F0D8FA2146072009F0DFFF0B
:104B900043F6982008F0D0FA642008F0CDFA0C4BC8
:104BA0001B68009302224FF49673062102A8FFF7B8
:104BB000B1FE4FF47A7008F0BFFA04B0BDE81040BF
:104BC00007F02BBB04B010BDA4E10320BD1A0E00FA
:104BD0009CE003204B6843608B688360CB68C360B4
:104BE00030B500F1100301F10F0200F11D0412F8BD
:104BF000015F03F8015B9C42F9D10B6A036230BD8F
:104C000070B50546A4B00C4609F048F9296808F0CB
:104C10002AF9634906A807F0CAFC04A805F041F880
:104C200006A912A807F0E5FC9DF811105D4B0139AB
:104C300001EB810119440EA807F0B9FC0EA912A8D6
:104C400007F090FD9DF810100A22064601F5FA6162
:104C50001BA807F0FCFC1BA9304607F083FD524956
:104C600007F08CFD01460AA807F0C3FC1BA807F05B
:104C700057FC0EA807F054FC12A807F051FC12A82C
:104C800004F04AFB0123069A48491BA805F06CFA78
:104C90001BA912A8FFF79EFF12A804F083FBA0B186
:104CA00012A804F047FB60B909F0F8F8404908F091
:104CB000DAF812A804F06AFB06993C4805F0C2FA3B
:104CC00008E012A804F062FB0EE009F0E7F83949A9
:104CD00008F0C9F80699354805F098FA20B909F0A6
:104CE000DDF8354908F0BFF817230A9A2F491BA8A9
:104CF00005F03AFA1BA912A8FFF76CFF12A804F0FE
:104D000051FB90B909F0CAF82C4904461BA807F0DA
:104D10004EFC0AA91BA807F025FD0168204608F0F3
:104D2000A2F81BA807F0FCFB31E0611E03290DD897
:104D3000DFE801F002040608214904E0214902E00D
:104D4000214900E0214912A808F07AF89DF81510D1
:104D500003919DF814109DF8102002919DF81310F6
:104D600001919DF812109DF81130009102F5FA6240
:104D700017491BA807F036F81BA912A808F060F81D
:104D8000296812A808F06FF812A804F0FFFA0AA820
:104D900007F0C6FB06A807F0C3FB24B070BD00BF38
:104DA000F51A0E007CD70320FB1A0E00A4E10320A5
:104DB000001B0E00241B0E00141B0E00301B0E00E7
:104DC0004A1B0E00531B0E005E1B0E006B1B0E00D9
:104DD000751B0E001FB50849684607F0E8FB012166
:104DE0006846FFF70DFF684607F09AFB07F015FAD3
:104DF00005B05DF804FB00BF901B0E0070B590B0CD
:104E000005460C4604A8274907F0D1FB2946684609
:104E100007F0CDFB694604A807F0A4FC224907F07F
:104E2000ADFC2146064608A807F0C1FB08A930469C
:104E300007F098FC01460CA807F0DBFB04210CA846
:104E4000FFF7DEFE0CA807F06BFB08A807F068FB75
:104E5000684607F065FB04A807F062FB29460CA82A
:104E600007F0A5FB11490CA807F09AFC06460CA810
:104E700007F056FB1EB121460D4807F0C5FB294639
:104E80000CA807F094FB0B490CA807F089FC054619
:104E90000CA807F045FB1DB12146074807F0B4FBFD
:104EA00010B070BDA11B0E00F01C0E00A61B0E0062
:104EB0006CDD0320BB1B0E005CDD032070B5474B8F
:104EC0001A68002AA4B01D4640F38680444902A80F
:104ED00007F06DFB12A804F01FFA684604F0E1FE2B
:104EE00040490AA807F063FB02A90AA807F03AFCA8
:104EF0009DF801103C4B013901EB81011944044636
:104F00000EA807F054FB0EA9204607F02BFC9DF8D5
:104F100000100A22044601F5FA611BA807F097FB6E
:104F20001BA9204607F01EFC304907F027FC01466C
:104F300006A807F05EFB1BA807F0F2FA0EA807F020
:104F4000EFFA0AA807F0ECFA0299294805F050F99F
:104F500070B908F0A3FF274907F085FF029924489C
:104F600005F054F920B908F099FF234907F07BFFB9
:104F70001723069A1E491BA805F0F6F81BA912A8CC
:104F8000FFF728FE12A804F00DFA50B908F086FFCA
:104F90001A4907F068FF08F081FF069907F063FFE0
:104FA00014E00E4C164E2B68002B0CDDD6F82013A7
:104FB00012A807F058FF1349134807F025FB236890
:104FC000013B2360EFE712A804F0E0F906A807F020
:104FD000A7FA02A807F0A4FA24B070BD44DD0320AC
:104FE000F51A0E00F91A0E007CD70320FB1A0E00EA
:104FF000A4E10320CE1B0E00051C0E001C1C0E009D
:105000007CDD0320E61E0E009CE003202DE9F04F1E
:10501000C1B002AF04468A4607F10C00BA491546F2
:105020001E4607F0C4FAB94907F1C40007F0BFFAF9
:10503000B74BB84A1B681288B74807F1C40104F09F
:1050400003FA804607F1C40007F06AFAB8F1000FCE
:1050500020D1B24907F1900007F0A9FAAB4907F156
:105060006C0007F0A4FA07F16C0107F1900007F05B
:1050700079FB014607F1C40007F0BBFA022107F1F2
:10508000C400FFF7BDFD07F1C40007F049FA07F1BE
:105090006C007CE0A24907F1C40007F0AAFA07F10E
:1050A000C4019D4804F032FA804607F1C40007F0BD
:1050B00037FAB8F1000F01D19A4912E09A4907F185
:1050C000C40007F096FA07F1C401934804F040FACF
:1050D000804607F1C40007F023FAB8F1000F0ED1A3
:1050E000924907F1C40007F062FA07F1C4000221F7
:1050F000FFF786FD07F1C40007F012FA77E22946B0
:1051000007F1C40007F075FA07F1C401824804F002
:1051100041FA804607F1C40007F002FAB8F1000F27
:1051200058D1834907F1C40007F041FA032107F180
:10513000C400FFF765FD07F1C40007F0F1F9294647
:1051400007F1C40007F055FA07F1C401724804F0F2
:1051500043FA804607F1C40007F0E2F9B8F1000F06
:105160001CD1744907F1900007F021FA294607F194
:10517000900007F0F7FA014607F1C40007F039FA8A
:1051800007F1C4000221FFF73BFD07F1C40007F05F
:10519000C7F907F1900007F0C3F928E2664907F163
:1051A000900007F004FA294607F1900007F0DAFAB8
:1051B000014607F1C40007F01CFA032107F1C400FF
:1051C000FFF71EFD07F1C40007F0AAF907F19000F0
:1051D00007F0A6F936BBDFF87C81226898F800302A
:1051E000019298F80120DFF87091009203F5FA63BC
:1051F000D9F80020514907F1900006F0F3FD07F1BE
:10520000900107F10C0007F0FFF9226898F80030D0
:10521000019298F80120009203F5FA63D9F8002072
:10522000474936E0012E0CD12368464A464907F12A
:10523000C40006F0D7FD214607F10C0007F0CAF9BB
:105240002BE0022E2ED1DFF80C81226898F8003076
:10525000019298F80120DFF80091009203F5FA63BB
:10526000D9F80020354907F1900006F0BBFD07F1A1
:10527000900107F10C0007F0C7F9226898F8003098
:10528000019298F801200092D9F800202F4903F5E7
:10529000FA6307F1C40006F0A5FD07F1C40120463A
:1052A00007F0B2F907F10C0107F16C0007F0A1F962
:1052B00007F16C01184804F0BBFA804607F16C0056
:1052C00007F02EF9B8F1000F48D1214907F15C0031
:1052D00007F06DF907F10C0107F15C0007F042FAE5
:1052E000014607F16C0007F084F9042107F16C0016
:1052F000FFF786FC07F16C0007F012F907F15C007C
:1053000007F00EF930E000BFE61E0E00F0D60320D5
:10531000B8D7032038DA03203CDB0320341C0E000E
:1053200034DD0320491C0E0048DD03205A1C0E000A
:105330006B1C0E00831C0E00961C0E00AA1C0E0097
:10534000B61C0E00C31C0E00C81C0E00CF1C0E00A5
:10535000E11C0E00B0DC032098DC0320A74809F014
:1053600065F8A64804F0B2F8BAF1000F2ED007F1A4
:105370000C0107F16C0007F03CF907F16C019F4844
:1053800004F06EF9804607F16C0007F0C9F8B8F137
:10539000000F0DD19A4907F16C0007F008F907F1E9
:1053A0006C000221FFF72CFC07F16C0007F0B8F845
:1053B000944907F16C0007F0FAF807F16C0004213A
:1053C000FFF71EFC07F16C0007F0AAF88E4907F101
:1053D0005C0007F0ECF807F10C0107F15C0007F046
:1053E000C1F98A4907F0CAF9214607F0BBF901461D
:1053F00007F16C0007F0FDF8042107F16C00FFF7DE
:10540000FFFB07F16C0007F08BF807F15C0007F079
:1054100087F8012322687E4907F16C0004F0A4FE9E
:10542000642007F089FE07F16C0003F0BBFF002841
:105430006BD036F00203E84601D1764902E0012E36
:1054400027D1754907F15C0007F0B1F807F15C015D
:105450006A4804F0E3F8044607F15C0007F060F8DE
:10546000BCB107F10C0107F15C0007F0C2F807F1CD
:105470005C01624804F0FEF9044607F15C0007F0A5
:105480004FF834B907F16C0003F080FFFFF716FD09
:1054900039E007F16C0003F062FF604B421E9A4254
:1054A0000646EFD806F094F9C0B0044606F042FC78
:1054B000DFF880B10DF1080A4FF0000907F16C0028
:1054C00003F051FF18B34E4521D34FF4807251467B
:1054D00007F16C0003F036FF81447860FFF770FA43
:1054E0000021072009F033FB00237A684348514626
:1054F00008F0CAFF0121072009F029FBC82007F0A6
:105500001BFED945DADDC54671E0454963E007F188
:105510006C0003F03BFF06F05BF94249041B07F106
:105520002C0007F044F84FF47A730A22B4FBF3F42A
:1055300007F11C00214607F0B0F807F11C0107F144
:105540002C0007F00FF9384907F018F9B6FBF4F111
:105550000A22814607F13C0007F09FF807F13C0161
:10556000484607F0FFF8314907F008F90A220446D7
:10557000002107F14C0007F07DF807F14C012046AF
:1055800007F0F0F8014607F15C0007F032F804215B
:1055900007F15C00FFF734FB07F15C0006F0C0FF89
:1055A00007F14C0006F0BCFF07F13C0006F0B8FF25
:1055B00007F11C0006F0B4FF07F12C0006F0B0FF65
:1055C000FFF75CFA0D48C54608F030FF0B4803F0C2
:1055D0007DFF88BB164907F15C0006F0E8FF07F184
:1055E0005C000221FFF70CFB07F15C0084E507F18A
:1055F0000C0006F095FF00209CE000BF3CDB032080
:10560000F31C0E00091D0E000C1D0E00141D0E00D3
:10561000A4E103205E210E00191D0E00FDFF07000E
:105620001B1D0E00971D0E00ED200E009B1D0E0091
:10563000411D0E00400D0300404907F14C0006F0EB
:10564000B6FF294607F11C0006F0D3FF3C4907F1DD
:105650001C0007F093F807F10C0107F083F80146EE
:1056600007F12C0006F0C5FF07F12C01354803F0C7
:1056700007FF0A22014607F13C0006F0E8FF07F1A8
:105680003C0107F14C0007F06DF8014607F15C00A2
:1056900006F0AFFF042107F15C00FFF7B1FA07F154
:1056A0005C0006F03DFF07F13C0006F039FF07F112
:1056B0002C0006F035FF07F11C0006F031FF07F162
:1056C0004C0006F02DFF204907F14C0006F06FFF5B
:1056D0000A22314607F13C0006F0DFFF07F13C01EA
:1056E00007F14C0007F03EF8014607F15C0006F0B8
:1056F00080FF042107F15C00FFF782FA07F15C00EC
:1057000006F00EFF07F13C0006F00AFF07F14C001F
:1057100006F006FF0B4803F0C5FF08B90B495AE72E
:105720000720002109F013FA06F0FCFA07F10C003B
:1057300006F0F6FEFC37BD46BDE8F08F5B1D0E009F
:10574000F91A0E003CDB0320721D0E00851D0E00B1
:1057500038B5054606F03CF8044606F039F8001B5B
:10576000A84202D2FFF78AF9F7E738BD1FB500213A
:105770000446072009F0EBF9144807F0DFFE14484F
:1057800004F074FC07F008F907F0C6F906F0D2FA45
:1057900041F28830FFF7DCFF0E48FFF773F80E4840
:1057A00006F0D9FB41F28830FFF7D2FF0B4B1B68A4
:1057B000009302222346062102A8FFF7ABF84FF41C
:1057C0007A70FFF7C5FF04B010BD00BFA8DC03204E
:1057D000A4E10320C0E4032020DD03209CE003209B
:1057E00038B5046805467CB16368013B63605BB90A
:1057F000236820469B689847A368013BA3601BB9B8
:1058000023682046DB689847284638BD2DE9F041DB
:10581000B2B06B4A6B4929A8FFF718F82AA8FFF71E
:10582000DFFF694929A806F0C2FE042129A8FFF775
:10583000E7F929A806F074FE644929A806F0D9FE04
:10584000634929A806F09AFF01230268614905A867
:1058500004F08AFC29A806F063FE012205A90EA81F
:1058600004F0FEFC5C4B1F78002607F5FA6735460E
:105870000EA803F097FD0446002800F0AF800EA8A4
:1058800003F056FD014601A806F091FE08F006FB64
:10589000044601A806F0ABFF0A22014629A806F03B
:1058A000E9FE2999204607F0DEFA29A806F038FE1D
:1058B0000EA803F03FFD002872D001A806F097FF64
:1058C00087426DD001A806F092FF7B1E984240F0FF
:1058D000558165E017A803F02DFD002837D017A9E2
:1058E000012220A804F0BCFC08F0D8FA044620A845
:1058F00003F01EFD0146204607F0B5FA20A803F08C
:1059000051FD3249002840F0498129A806F071FE76
:105910002F4929A806F032FF04460EA803F008FD1F
:105920000146204606F02AFF294906F027FF0446D3
:1059300017A803F0FDFC0146204606F01FFF016892
:10594000244804F071FC29A806F0EAFD013517A8E7
:1059500003F01CFD0EA929A8012204F081FC29A94D
:1059600017A8FFF737F917A803F01CFD0028B1D1DD
:10597000164929A806F03DFE154929A806F0FEFEA5
:1059800004460EA803F0D4FC0146204606F0F6FEBD
:105990000168104804F048FC29A806F0C1FD013553
:1059A0000EA803F0F3FC012205A929A804F058FC75
:1059B00029A90EA8FFF70EF901A806F0B1FD57E7D7
:1059C000AB1D0E00C81D0E00CF1D0E0098DC03207D
:1059D000F91A0E00A4E10320B0DC032005A803F0AF
:1059E000D5FC8C4920A806F0E2FD0A22294617A81A
:1059F00006F02DFE17A920A806F0B4FE864906F091
:105A0000BDFE0A228046314629A806F020FE29A9BB
:105A1000404606F0A7FE8149026801A8FEF716FF7E
:105A200002A8FFF7DDFE29A806F07AFD17A806F008
:105A300077FD20A806F074FD764917A806F0B7FD9B
:105A40000A22294601A806F002FE01A917A806F0BD
:105A500089FE714906F092FE0A220546314620A8C9
:105A600006F0F5FD20A9284606F07CFE014629A88F
:105A700006F0BFFD042129A8FFF7C2F829A806F007
:105A80004FFD20A806F04CFD01A806F049FD17A81F
:105A900006F046FD624A614929A8FEF7D7FE2AA80A
:105AA000FFF79EFE5F4929A806F081FD042129A881
:105AB000FFF7A6F829A806F033FD01235A4A5B49EF
:105AC00029A804F051FB29A905A8FFF783F805A927
:105AD00029A8012204F0C4FB29A90EA8FFF77AF82F
:105AE0000EA803F05FFC0546002800F0A5800EA874
:105AF00003F01EFC014617A806F059FD0A22B91E44
:105B000029A806F0A4FD29A917A806F05BFE054602
:105B100029A806F005FD0DB3434929A806F047FD65
:105B20000EA803F005FC014620A806F040FD20A9C0
:105B300029A806F017FE01683C4804F083FB0546DF
:105B400020A806F0EDFC29A806F0EAFC2DB908F023
:105B5000A5F9374907F087F900E001340EA803F0F2
:105B600015FC012205A929A804F07AFB29A90EA891
:105B7000FFF730F817A806F0D3FCB1E70EA9012211
:105B800017A804F06DFB08F089F9044617A803F084
:105B9000CFFB0146204607F066F9E4E629A806F0A7
:105BA00028FD244929A806F0E9FD04460EA803F0C3
:105BB000BFFB0146204606F0E1FD1E4906F0DEFD72
:105BC000044617A803F0B4FB0146204606F0D6FDB4
:105BD000184906F0D3FD044620A803F0A9FB0146AE
:105BE000204606F0CBFD0168104804F02BFB04466C
:105BF00029A806F095FC04B1013620A803F0C6FBE5
:105C000017A929A8012204F02BFB29A920A8FEF737
:105C1000E1FF73E6D41D0E00D81D0E00C81D0E0056
:105C2000DD1D0E00F81D0E00F51A0E00A4E1032084
:105C30001D1B0E00F91A0E0005A803F0A7FB2E4944
:105C400020A806F0B4FC0A22294617A806F0FFFC9B
:105C500017A920A806F086FD284906F08FFD0A2224
:105C60000646214629A806F0F2FC29A9304606F08E
:105C700079FD2349026801A8FEF7E8FD02A8FFF7B5
:105C8000AFFD29A806F04CFC17A806F049FC20A897
:105C900006F046FC184917A806F089FC0A22294696
:105CA00001A806F0D4FC01A917A806F05BFD134972
:105CB00006F064FD0A220546214620A806F0C7FC2E
:105CC00020A9284606F04EFD014629A806F091FCC1
:105CD000042129A8FEF794FF29A806F021FC20A89A
:105CE00006F01EFC01A806F01BFC17A806F018FC25
:105CF000012032B0BDE8F081D41D0E00D81D0E0089
:105D0000C81D0E002DE9F0430646A5B0594C236886
:105D1000DB070AD42046FEF7D1F930B101215648FD
:105D200006F076F92046FEF7CEF94FF6FF72002115
:105D3000514806F088F90121132008F008FF64207B
:105D400007F0FAF94D48FEF765FA552200214B4855
:105D5000FEF71CFD00214948FEF7B7FC5528044614
:105D60006DD0474911A806F022FC0A2221460DA851
:105D700006F05BFC0DA911A806F0F4FC01461AA878
:105D800006F037FC01211AA8FEF73AFF1AA806F020
:105D9000C7FB0DA806F0C4FB11A806F0C1FB394AE9
:105DA00039491AA8FEF752FD1BA8FFF719FD43F663
:105DB000982007F0C1F9354B1B680093022240F28E
:105DC000DC5306211AA8FEF7A5FD4FF47A7007F000
:105DD000B3F906F022FAFEF751FE97E7422B5BD0AB
:105DE0002B4911A806F0E3FB9DF80B309DF80A2023
:105DF00028490DA806F000FD0DA911A806F0B2FC77
:105E000001461AA806F0F5FB01211AA8FEF7F8FED4
:105E10001AA806F085FB0DA806F082FB11A806F073
:105E20007FFB41F2883007F087F9184B1B6800931D
:105E3000022240F2DC5306211AA8FEF76BFDFEF7A2
:105E40001DFE0122FF210D48FEF7F8F90DF10A02AF
:105E50000A210A48FEF7AAFB0DF10B020B210748A5
:105E6000FEF7A4FB9DF80A30262B9DF80B30B7D126
:105E7000B4E700BFFCDA032000DB0320FCDC0320D6
:105E8000FC1D0E003F1E0E00C81D0E009CE00320EE
:105E9000491E0E00701E0E0001219C48FEF7C8F935
:105EA0000A2007F049F99948FEF742FB0A2007F05B
:105EB00043F907219548FEF70DFB0A2007F03CF94E
:105EC00007219248FEF73FFA0A2007F035F9002132
:105ED0008E48FEF7D3F90A2007F02EF98B48FEF71B
:105EE00061FC0A2007F028F98848FEF757FC41F2C8
:105EF000883007F021F98548FEF74CFC0A2007F0AE
:105F00001BF905F065FC044605F062FC08224121FE
:105F10007E48FEF7DEFBB0B9FEF7B0FD0A2007F0C1
:105F20000BF905F055FC47F23053001B9842EDD9B0
:105F300077491AA806F03BFB1AA80121FEF760FE7C
:105F40001AA806F0EDFA0A2007F0F6F86F48FEF7F7
:105F5000C6FB7049044611A806F029FB0A22214617
:105F60000DA806F074FB0DA911A806F0FBFB014675
:105F70001AA806F03EFB04211AA8FEF741FE1AA853
:105F800006F0CEFA0DA806F0CBFA11A806F0C8FA72
:105F9000614905A806F00BFB082241215B48FEF78A
:105FA00098FB002800F0AA8211A803F0B5F95A491D
:105FB0005A4D09A806F0FBFA0A2007F0BDF8584927
:105FC0000DA806F0F4FA0DA91AA806F012FB55491F
:105FD0001AA806F0D3FB014609A806F0FBFA1AA896
:105FE00006F09EFA0DA806F09BFA29780A2201F520
:105FF000FA610DA806F02BFB0DA91AA806F0F9FA14
:1060000048491AA806F0BAFB014609A806F08AFB1F
:106010001AA806F085FA0DA806F082FA0A22697815
:106020000DA806F002FB0DA91AA806F0E2FA3D49F8
:106030001AA806F0A3FB014609A806F073FB1AA8EC
:1060400006F06EFA0DA806F06BFA374B1B781BB101
:10605000364909A806F06AFB07F020FF34490446D8
:106060001AA806F0A4FA09A91AA806F07BFB016891
:10607000204606F0F8FE1AA806F052FA09992D48B3
:1060800004F0B6F8002838D023490DA806F08FFA9E
:1060900009A91AA806F0ADFA22491AA806F06EFB63
:1060A000314606F05FFB01460DA806F093FA1AA8E8
:1060B00006F036FA52230D9A1E491AA804F054F835
:1060C0001AA911A8FEF786FD0A2007F035F811A8D5
:1060D00003F068F9044678BB11A803F057F90B48A0
:1060E000FEF760FB642007F027F80848FEF756FB30
:1060F00041F2883007F020F8F5E109990D4804F0E5
:1061000085F80028C0D10446F0E100BFFCDC032084
:10611000761E0E00841E0E00E61E0E00B0DC03206C
:10612000C0D60320F91A0E008CDC0320881E0E0056
:106130008D1E0E00A4E10320BC49BD4CBD4E1AA823
:1061400007F0F6FEBC4807F095F910EE100A09F0CA
:10615000BFF80B460246B949B94805F043FE1C9A00
:10616000B849B94805F03EFE2A78A9786B78B74857
:10617000009102F5FA62B64905F034FE6979EA78D1
:106180002B79B4480091B44905F02CFE002323601C
:10619000FEF774FC5622B14911A803F050F840F6FE
:1061A00007073178A34D11A803F03EF8013FF8D15D
:1061B0001722AB49AB4E11A803F041F8AA48AB49EE
:1061C0000A2210F8013F53548B180232102A5F70D4
:1061D000A64BF6DDDFF868C2DFF898E2A44F15227F
:1061E0000CEB0201A34811F8151C02F80E10D15552
:1061F0000132192A9E49F3D19F4F1E224FF0000C05
:1062000017F801EF03F802E003EB020E0232222A34
:106210008EF801C0F4DDDFF830E23F220EEB02071A
:1062200017F83F7C87548F540132422AF6D1934F9E
:1062300030224FF0000C17F801EF03F802E003EBF7
:10624000020E02323E2A8EF801C0F4DDDFF8FCE1D6
:1062500068220EEB020717F8687C87548F540132CE
:10626000702AF6D1864F4E224FF0000C17F801EF3E
:1062700003F802E003EB020E0232582A8EF801C046
:10628000F4DDDFF8D0E197220EEB020717F8977CD8
:1062900087548F5401329D2AF6D164223260794AA4
:1062A000DFF8C081126802F1FF3EF4464FF00009AA
:1062B00032686C4F6E2A09DC1CF8017F9F549F18CE
:1062C000023287F80190C8F80020F1E7C2223A6054
:1062D0003268C72A09DC1EF801CF00F802C09EF818
:1062E00000C001F802C00132F1E7674F80224FF091
:1062F000000C17F801EF03F802E003EB020E023284
:10630000882A8EF801C0F4DDF02333605F4B554FCF
:106310001A68013A3368F52B0ADC12F801EF00F82D
:1063200003E092F800E001F803E001333B60F1E79D
:106330004C4B00221A6040F60806297811A802F09A
:1063400073FF013EF9D18A224849514E11A802F04B
:1063500076FF40F27D224F4911A802F070FFF5222E
:10636000444911A802F06BFF4FF490724A4911A8FA
:1063700002F065FFF5223E4911A802F060FF62229B
:10638000464911A802F05BFF4FF40065317811A86F
:1063900002F04AFF013DF9D11422414911A802F04F
:1063A0004EFF07F07BFD3F4906F05DFD3E48FDF7DF
:1063B00031FF0A2006F0C0FE3C4A3D4903A8FEF723
:1063C00045FA04A8FFF70CFA3748FEF73AF90A2015
:1063D00006F0B2FE256014253348FEF773F9013D3F
:1063E0000646F9D1334C124FDFF8CC90D92E01D1AB
:1063F000FF2D63D02C48FEF765F93B685A1CFF2A35
:1064000080463A6009F8030007DD2B4911A802F025
:1064100016FF00233B60FEF731FB013C354601D0FF
:106420004646E3E711A802F0B1FF5CE0C0E40320B8
:1064300090DC032096DC0320A8DC0320921E0E00D3
:10644000F4DC0320981E0E00E1DC032008DD0320AD
:106450009C1E0E0034DB0320A91E0E004D160E00FC
:1064600036160E0030DD0320F3DC0320B3D8032002
:106470003FD90320BDD70320E0DC032007DD032044
:1064800033DB03206CDD032057DD032098DC032081
:10649000BCD70320A3160E0020190E00541A0E00BC
:1064A000401A0E00B61E0E00FCDC0320CB1E0E00B0
:1064B000C81D0E00C1270900A0E00320124B1A6876
:1064C0001AB1124911A802F0BAFE1148FEF766F996
:1064D0000F48FDF791FE11A802F058FF002113208C
:1064E00008F035FB01240DA806F01AF809A806F0FB
:1064F00017F805A806F014F8204602E005A806F0F3
:106500000FF825B0BDE8F08390DC0320A0E0032065
:10651000FCDC032038B5064DC56104463430FFF776
:106520005FF9204640F8185BFFF75AF9204638BD5E
:1065300088280E0038B504680D467CB1E168A94290
:106540000CD035B129B1284609F04AFD10F0FF0FF3
:1065500004D02046FEF799FA0446EEE7204638BDFF
:1065600008B500F11C0302460360436013B100F557
:10657000077100E0194691600BB102F5077302F153
:106580001800D3600021FEF75BF9104608BDF8B58E
:106590000446C0B10B6800F10806ABB18B685568C2
:1065A00097680133E818B8420ED8506065B11A46B2
:1065B0000968284609F0CBFC30460521FEF740F972
:1065C00025600120F8BDF8BD30460021FEF738F9FE
:1065D0000020F8BD10B502460C4670B1002900F14C
:1065E000080003DB0821FEF72BF903E00A21FEF780
:1065F00027F964421460012010BD10BD70B5164625
:10660000027A12F07F0204460D4605D1202108309F
:10661000FEF716F922606260237A03F0200303F08C
:10662000FF0073B129462046FFF784FF48B9314681
:106630002046FEF732FA20B1037AC56003F07F03EB
:10664000037270BD13B5837B044683B901220DF13B
:106650000701406806F080FC10B19DF8073001E0AA
:106660004FF0FF3323EAE37363730123A373607B6B
:1066700002B010BD70B5044600252046FFF7E2FFCA
:106680000A2803D809281DD2B0B12FE0202819D03C
:106690002F2802D00D2829D114E0A5732046FFF73A
:1066A000D1FF2A2802D02F2816D01CE0A57300267F
:1066B0002046FFF7C7FF10B94FF0010070BD2F282B
:1066C00002D10EB1A573D8E7A0F12A035E425E4164
:1066D000A573EDE70A28D0D0A5732046FFF7B2FFD7
:1066E0000028F7D1E8E74FF0020070BD4FF000003E
:1066F00070BD08B5027A02F0200202F0FF0312B169
:10670000FFF718FF08BD184608BD0000F0B585B0BA
:10671000826800920025019593680E465168536087
:106720005B1A044602910393FFF78CFFA57307469B
:106730002046FFF787FF8742A57323D010B94FF09B
:10674000010029E05C2818D12046FFF77BFF0028D4
:10675000F5D0752801D0114B05E04FF004001BE087
:10676000904204D002331A78002AF9D104E0587814
:1067700010B94FF002000FE0A57301466846FEF71E
:10678000B7F9D5E76846FEF7C1F9306010B94FF0A8
:10679000030001E04FF0000005B0F0BDDC1E0E006C
:1067A000A0F15F031B2B13D9A0F14103192B0FD9C3
:1067B000A0F12B03DBB20E2B04D9A0F12E02504224
:1067C0005041704747F6E57222FA03F3DB07F4D530
:1067D00001207047F0B585B004460E46FFF732FF42
:1067E00027282DD022282BD0A268009200250195C1
:1067F00051689368536020465B1A02910393FFF738
:1068000021FF0746D0B1FFF7CBFFA8B13946684654
:10681000A573FEF76DF92046FFF714FF0746FFF753
:10682000BFFF0028F2D16846FEF770F900283060FB
:106830000CBF0320002007E0022005E0012003E058
:1068400031462046FFF762FF05B0F0BD00280FDD9E
:1068500011490023C20741BFDAB201EB8202D2ED37
:10686000007A20EE270A401003F10103F2D17047AD
:106870000A494042002368B1C20742BFDAB201EBC5
:106880008202D2ED007A4FEA600048BF20EE270A6C
:106890000133F0E7704700BF9CD6032084D6032065
:1068A0002DE9F0410B782B2B044604D02D2B03D17E
:1068B0000131012601E0013100260B78A3F13002FD
:1068C000092A02D92E2B40F089804F4F00234FF028
:1068D0000A0E084610F8015BA5F13002D2B2092A6F
:1068E00009D8BB4208D80EFB03F3D543AB4203D80B
:1068F00013440146EDE71DB10022444F0A250EE086
:1069000007EE903AF8EE677A002E2360C4ED017A24
:106910000CBF08230A2373E00246B3FBF5F3BB4226
:1069200002F10100F8D8521A50180D4611F8017BF7
:10693000A7F1300EBEF1090F40B2F5D92E2F10D1BC
:10694000DFF8DCE00A270D4601312A78303AD2B26E
:10695000092A06D87345F6D8013807FB032340B24D
:10696000F1E72A7802F0DF02452A34D16A782D2A2D
:1069700002D1A91C012704E02B2A14BF691CA91C01
:10698000002700224FF00A0C0D4611F801EBAEF182
:10699000300E5FFA8EF8B8F1090F19D80CFB02E23D
:1069A0008518262DF0DD47B19FED197ADFED197AB4
:1069B000002E18BFF0EE477A07E09FED177ADFED63
:1069C000177A002E08BFF0EE477AC4ED017A16E080
:1069D00017B1524200E00022297821B100230022A1
:1069E000236062600CE007EE903A1044B8EEE70ACC
:1069F000FFF72CFF0EB1B1EE400A84ED010A0C2323
:106A000023722046BDE8F08199999919FFFF7F0014
:106A100000000080000000000000807F000080FF78
:106A2000CBCC0C002DE9F04395B080460D46FFF726
:106A300009FE00240746A1463846E6B2FFF7B0FE3D
:106A400058B13F2C09D004AB88F80E90E75440466B
:106A5000FFF7F8FD01340746EEE714AB334400249A
:106A600003F8404C9DF81030742B07D1062105F136
:106A70000800FDF7E5FE01232B600DE0662B09D130
:106A800005F108000621FDF7DBFE2C60701F18BF22
:106A9000012020E06E2B01D1301FF8E704A901A8E6
:106AA000FFF7FEFE9DF80C10019A0A2903D00C296D
:106AB00007D008290DD105F10800FDF7C1FE2A60B5
:106AC00005E005F10800029AFDF7BAFE2A602046AB
:106AD00001E04FF0020015B0BDE8F08370B588B05A
:106AE0000C460646FFF7C6FD01A98DF8040004A870
:106AF000FDF7F2FF049B002B3ED1059D15F001052B
:106B00003AD13046FFF79EFD272810D103A9304621
:106B1000FFF7FCFD02A98DF8080006A8FDF7DCFFD1
:106B2000069B63BB079810F0010228D12AE007D822
:106B30002228EBD021463046FFF774FFC0B229E08F
:106B40005B280BD104F108004021FDF779FE256098
:106B500065602146304600F056F8EFE77B28E9D122
:106B600004F108002021FDF76BFE256065602146D9
:106B7000304600F0AEF8E1E79DF804000AE09DF829
:106B8000080007E004F108000521039DFDF758FE09
:106B90002560104608B070BD30B503684360C36817
:106BA000836089B004460D4618300021FDF748FE89
:106BB000002304F1100104A88DF81E308DF81C206C
:106BC000049405950694FFF789FF01A98DF8040048
:106BD00002A8FDF781FF029B8BB9039BDB070ED454
:106BE0009DF81D305BB1237E13F0600F07D103F0D9
:106BF0007F03043B012B84BF02238DF804309DF8F2
:106C0000040009B030BD70B5037B88B004460E4661
:106C100013B94FF005005AE0FFF714FD5B2810D1BF
:106C20000023A3732046FFF725FD01A98DF804007A
:106C300002A8FDF751FF029BBBB9039BDA0714D4EE
:106C400016E04FF0020042E0237B013B2373204615
:106C5000FFF744FF237B8DF804000133237301A960
:106C600004A8FDF739FF049B53B19DF804002EE002
:106C70002046FFF7E7FC5D2820D10020A07326E026
:106C8000059BDB07F1D42046FFF7F4FC01A98DF842
:106C9000040006A8FDF720FF069B002BE5D1079B0B
:106CA00013F00105E1D12046FFF7CCFC5D28E4D0CC
:106CB0002046FFF7C7FC2C28C3D1A57321683046B6
:106CC000FDF7EBFE01460028BED14FF0030008B0EF
:106CD00070BDF0B5037B8FB005460E4613B94FF07B
:106CE0000500A1E0FFF7AEFC7B2840F09580002373
:106CF000AB732846FFF7BEFC69468DF8000002A87A
:106D0000FDF7EAFE029B002B73D1039810F00104FB
:106D10006FD12846FFF796FC7D2856D001A928465A
:106D2000FFF758FD69468DF8000004A8FDF7D4FE72
:106D3000049B002B5DD1059BD9075DD559E0037AF3
:106D400063F07F030372019BC36004462846FFF78C
:106D500091FC69468DF8000006A8FDF7BDFE069B74
:106D6000002B46D1079B13F0010742D12846FFF7BD
:106D700069FC3A2850D12B7BAF73013B2B73214622
:106D80002846FFF7ABFE2B7B8DF8000001332B73F9
:106D9000694608A8FDF7A0FE089B53BB099BDA07CC
:106DA00027D42846FFF766FC69468DF800000AA83C
:106DB000FDF792FE0A9BE3B90B9810F0010418D17D
:106DC0002846FFF73FFC7D2802D1AC7320462BE01C
:106DD0002846FFF737FC2C281ED1AC732846FFF756
:106DE00049FC69468DF800000CA8FDF775FE0C9B68
:106DF000ABB19DF8000017E001993046FFF79AFB10
:106E000004460028A2D129683046FDF746FE002836
:106E100095D14FF0030007E04FF0020004E00D9B16
:106E2000DB077FF57BAFE4E70FB0F0BD2DE9F04164
:106E30000B782B2B044604D02D2B03D101310126D6
:106E400001E0013100260B78A3F13002092A02D9B2
:106E50002E2B40F089804F4F00234FF00A0E08463A
:106E600010F8015BA5F13002D2B2092A09D8BB4261
:106E700008D80EFB03F3D543AB4203D813440146B5
:106E8000EDE71DB10022444F0A250EE007EE903ACF
:106E9000F8EE677A002E2360C4ED017A0CBF082358
:106EA0000A2373E00246B3FBF5F3BB4202F1010093
:106EB000F8D8521A50180D4611F8017BA7F1300E80
:106EC000BEF1090F40B2F5D92E2F10D1DFF8DCE06A
:106ED0000A270D4601312A78303AD2B2092A06D85B
:106EE0007345F6D8013807FB032340B2F1E72A784F
:106EF00002F0DF02452A34D16A782D2A02D1A91C7A
:106F0000012704E02B2A14BF691CA91C00270022BA
:106F10004FF00A0C0D4611F801EBAEF1300E5FFA9E
:106F20008EF8B8F1090F19D80CFB02E28518262D4E
:106F3000F0DD47B19FED197ADFED197A002E18BF09
:106F4000F0EE477A07E09FED177ADFED177A002E13
:106F500008BFF0EE477AC4ED017A16E017B152424D
:106F600000E00022297821B1002300222360626022
:106F70000CE007EE903A1044B8EEE70AFFF766FC23
:106F80000EB1B1EE400A84ED010A0C2323722046B3
:106F9000BDE8F08199999919FFFF7F0000000080FA
:106FA000000000000000807F000080FFCBCC0C00C0
:106FB0007FB590E8300010340E4620462946FFF792
:106FC00098FB002859D0037A03F07F03082B08D0E0
:106FD0000A2B52D10368B3F1004F8CBF0023012369
:106FE00002E00368DB43DB0F002B46D02946204636
:106FF000FFF77FFB002843D0037A03F07F03043BB5
:10700000082B3CD8DFE803F00909053B053B073BAB
:107010002400006814E000680DE0016801A8FFF793
:1070200005FF9DF80C3001980A2B04D00C2B0CD0D6
:10703000082B24D104E0B0F1004F20D840421FE0DB
:10704000B0F1004F28BF00201AE0DDED027A01E028
:10705000D0ED007A9FED0B7AF4EEC77AF1EE10FADC
:107060000DDB9FED097AF4EEC77AF1EE10FA06D83F
:10707000FDEEE77A17EE900A02E0306800E00020AB
:1070800004B070BD000000CF0000004F006803682E
:10709000DB68184738B5044608460D4608F0E2FF9D
:1070A000294602462046FFF7F1FF636818446060F6
:1070B00038BD10B50446006803689B68984763684C
:1070C0001844606010BD000070B505460C4619B943
:1070D0001149FFF7DFFF70BD2221FFF7EAFF013CF6
:1070E00014F8011F71B10D4B13F8026C7EB102331D
:1070F00013F8032C8A42F7D15C212846FFF7D9FF09
:10710000314604E022212846FFF7D3FF70BD284610
:10711000FFF7CFFFE4E700BFE71E0E00DA1E0E0008
:10712000F8B5DFED557AB4EEE70A0623F1EE10FA72
:107130002DED028B0446B0EE408A83721CDB4F4B70
:107140004F4AA3F118010025202772ED017AF4EED1
:10715000C87AF1EE10FA9CBFD3ED057AED19A3F1D0
:1071600004039CBF28EE278A2DB299424FEA670795
:10717000EBD14FF0FF3602E0202705260025B5EEC3
:10718000C08AF1EE10FA21DD18EE100A08F0A0F81E
:1071900037A3D3E9002308F06BFBB8B1394A3A4969
:1071A000731C13D0B300D018D0ED007AF4EEC87A77
:1071B000F1EE10FA06DD0B44D3ED007AED1B28EE5C
:1071C000278A2DB2013E7F1076B2E9E7FCEEC87A3D
:1071D0002E49258117EE903A17EE902AC4ED007AD9
:1071E0000A26092A07D9B1FBF6F1B2FBF6F2A07A1A
:1071F0000138A072F5E707EE903AB8EE670A07EE9D
:10720000901A38EE408AB8EEE70A28EE008AFCEEC3
:10721000C87AB8EE670A17EE900A38EE408A38EE60
:10722000088ABCEEC88A18EE102A0244914201D99D
:1072300062600AE000220133626023602DB1092BF5
:1072400081BF01350123258123600A216368B3FBD7
:10725000F1F201FB12333BB994F90A30002B03DD44
:10726000013B6260A372F1E7BDEC028B2046F8BDE2
:10727000F168E388B5F8E43E8096184B84D6032085
:10728000B4D603206CD603209CD6032040420F00C6
:1072900010B5521A0446FFF7F9FE6368184460609F
:1072A00010BD30B587B00B460DF116010A460A2510
:1072B000B3FBF5F405FB1433303301F8013D2346ED
:1072C000002CF5D1FFF7E4FF07B030BDF0B52DED90
:1072D000028BB4EE400AF1EE10FA8BB00446B0EE29
:1072E000408A04D73C492046FFF7D4FE6FE09FED6B
:1072F0003B7AF0EEC07AF4EE477AF1EE10FAF1DC68
:10730000B5EEC00AF1EE10FA04D52D21FFF7D1FE3B
:10731000B1EE488AB0EE480A01A8FFF701FF0199D3
:107320002046FFF7BEFF9DF90E10C9B108AD029BC4
:1073300008462A460A27013840B2461C08D0B3FB4B
:10734000F7F607FB1633303305F8013D3346F2E715
:10735000C9B2511A2E2301F8013D2046FFF798FFCC
:10736000BDF90C30002B17DA1D492046FFF792FEBD
:10737000BDF90C300DF126015B420A460A2593FB4C
:10738000F5F005FB1033303301F8013D03460028CA
:10739000F5D12046FFF77CFFBDF90C30002B16DD40
:1073A00065212046FFF785FE0DF12601BDF90C3061
:1073B0000A460A2593FBF5F005FB1033303301F83C
:1073C000013D03B2002BF5D12046FFF761FF0BB062
:1073D000BDEC028BF0BD00BFE71E0E00FFFF7F7FFC
:1073E000EC1E0E0038B5037A03F07F03062B05462A
:1073F0000C4667D008D8022B6AD3032B54D90168F6
:107400002046FFF761FE38BD0C2B15D00AD8082B9B
:1074100053D00A2B5CD105682D212046FFF749FE89
:1074200029464BE0202B1ED0402B51D15B2120461A
:10743000FFF73FFE2D6812E090ED000A0846FFF7C7
:1074400045FF38BD28462146FFF7CCFF2846FDF70B
:107450001CFB054628B12C212046FFF72AFE002DF3
:10746000F0D15D211CE07B212046FFF722FE2D6834
:10747000ADB1E9682046FFF727FE3A212046FFF725
:1074800018FE28462146FFF7ADFF2846FDF7FDFA16
:10749000054620B12C212046FFF70BFEE8E77D21B1
:1074A0002046FFF706FE38BD90E806002046FFF7AD
:1074B000EDFD63681844606038BD01682046FFF741
:1074C000F0FE38BD03680BB1044902E0044900E056
:1074D00004492046FFF7DEFD38BD00BFEF1E0E0059
:1074E000F41E0E00E71E0E0030B5ADF5157D014609
:1074F000054604AC444802F0A5FE204617232A4660
:10750000414902F031FE204601F04CFF68B906F017
:10751000C5FC3E4905F0A7FC0DA83C4A3C49FDF7D7
:1075200095F90EA8FEF75CF96AE00DA8FFF718F8C8
:107530000DAA384911A8FFF761F80DAA3649FFF7DF
:1075400026F80DAA354911A8FFF758F80DAA3449B5
:10755000FFF71DF80DAA334911A8FFF74FF80DAA40
:107560003149FFF714F80DAA304911A8FFF746F882
:107570002F4B1968FFF72EF80DAA2E4911A8FFF717
:107580003DF82D4B1968FFF725F80DAA2B4911A8D6
:10759000FFF734F80DAA2A49FEF7F9FF0DAA294989
:1075A00011A8FFF72BF80DAA2749FEF7F0FF0DAA47
:1075B000264911A8FFF722F80DAA2549FEF7E7FF93
:1075C0000DAA244911A8FFF719F80DAA2249FEF7C0
:1075D000DEFF0023694611A801930094FFF702FF24
:1075E000019B53B91D49684604F0E1FF684602213A
:1075F000FDF706FB684604F093FF204601F0C6FE47
:107600000DF5157D30BD00BFA4E10320FA1E0E006C
:10761000171F0E001D1F0E006CDD0320211F0E0022
:1076200098DC03202D1F0E005CDD0320361F0E00AA
:1076300088DC0320431F0E00B4D603204F1F0E002A
:1076400010DD03205C1F0E0034DD0320691F0E00D7
:1076500048DD0320761F0E00B8DC03207E1F0E00DD
:1076600038B5044608460D4608F0FCFC294602469B
:107670002046FDF75CFA63681844606038BD10B5B9
:107680000446006805F061F863680133636010BD6B
:1076900070B505460C4619B91149FFF7E1FF70BDF9
:1076A0002221FFF7ECFF013C14F8011F71B10D4BD3
:1076B00013F8026C7EB1023313F8032C8A42F7D11F
:1076C0005C212846FFF7DBFF314604E022212846F3
:1076D000FFF7D5FF70BD2846FFF7D1FFE4E700BFF5
:1076E000E71E0E00DA1E0E0010B5521A0446FDF712
:1076F0001EFA63681844606010BD30B587B00B4651
:107700000DF116010A460A25B3FBF5F405FB143307
:10771000303301F8013D2346002CF5D1FFF7E4FF9B
:1077200007B030BDF0B52DED028BB4EE400AF1EE9E
:1077300010FA8BB00446B0EE408A04D73C4920468C
:10774000FFF78EFF6FE09FED3B7AF0EEC07AF4EE2C
:10775000477AF1EE10FAF1DCB5EEC00AF1EE10FA5C
:1077600004D52D21FFF78BFFB1EE488AB0EE480A11
:1077700001A8FFF7D5FC01992046FFF7BEFF9DF950
:107780000E10C9B108AD029B08462A460A270138E7
:1077900040B2461C08D0B3FBF7F607FB1633303374
:1077A00005F8013D3346F2E7C9B2511A2E2301F81C
:1077B000013D2046FFF798FFBDF90C30002B17DA8A
:1077C0001D492046FFF74CFFBDF90C300DF1260195
:1077D0005B420A460A2593FBF5F005FB1033303374
:1077E00001F8013D03460028F5D12046FFF77CFF54
:1077F000BDF90C30002B16DD65212046FFF73FFF59
:107800000DF12601BDF90C300A460A2593FBF5F06F
:1078100005FB1033303301F8013D03B2002BF5D1E5
:107820002046FFF761FF0BB0BDEC028BF0BD00BF3F
:10783000E71E0E00FFFF7F7FEC1E0E0038B5037AB7
:1078400003F07F03062B05460C4667D008D8022BB1
:107850006AD3032B54D901682046FFF719FF38BDBE
:107860000C2B15D00AD8082B53D00A2B5CD10568F5
:107870002D212046FFF703FF29464BE0202B1ED089
:10788000402B51D15B212046FFF7F9FE2D6812E015
:1078900090ED000A0846FFF745FF38BD284621460F
:1078A000FFF7CCFF2846FDF7F0F8054628B12C215C
:1078B0002046FFF7E4FE002DF0D15D211CE07B2186
:1078C0002046FFF7DCFE2D68ADB1E9682046FFF7E2
:1078D000DFFE3A212046FFF7D2FE28462146FFF779
:1078E000ADFF2846FDF7D1F8054620B12C212046F2
:1078F000FFF7C5FEE8E77D212046FFF7C0FE38BD53
:1079000090E806002046FDF712F9636818446060AD
:1079100038BD01682046FFF7F0FE38BD03680BB1A3
:10792000044902E0044900E004492046FFF798FEBC
:1079300038BD00BFEF1E0E00F41E0E00E71E0E0045
:10794000F0B591E85000103487B005463146204626
:107950001746FEF7CEFE88B3037A03F07F03043B9D
:10796000012B2BD820463146FEF7C3FE044658B102
:10797000037A03F07F03043B012B05D8016819B19A
:10798000284604F014FE1DE002AE1049304604F013
:107990000EFE00230096019324B169462046FFF7AE
:1079A0004DFF03E00A496846FFF75AFE3146284674
:1079B00004F0A6FD304604F0B3FD03E03946284646
:1079C00004F017FE284607B0F0BD00BFE61E0E000B
:1079D000E71E0E002DE9F04FADF51B7D0C4602466B
:1079E000012379490AA802F0BFFB0AA801F0DAFCDA
:1079F00013AD04F1080604F11C0704F1380804F182
:107A00006A0904F17E0A04F1920B002800F09B80C1
:107A10002846FEF7A5FD4FF00A020AA92846FFF7FF
:107A2000BBF801A98DF8040004A8FDF755F8049BE4
:107A3000002B40F0BB80059BDB0700F1B780634B58
:107A4000634A039302A906A80295FFF779FF08226B
:107A50000699204608F0F1FA06A804F061FD5D4B96
:107A60005D4A039302A906A80295FFF769FF142255
:107A70000699304608F0E1FA06A804F051FD574B8C
:107A8000574A039302A906A80295FFF759FF14224B
:107A90000699384608F0D1FA06A804F041FD514B8A
:107AA0005149079306A80695FFF782FA4F4B2063CA
:107AB0004F49079306A80695FFF77AFA4D4B606386
:107AC0004D4A039302A906A80295FFF739FF322217
:107AD0000699404608F0B1FA06A804F021FD474B8C
:107AE000474A039302A906A80295FFF729FF14222B
:107AF0000699484608F0A1FA06A804F011FD414B8A
:107B0000414A039302A906A80295FFF719FF142220
:107B10000699504608F091FA06A804F001FD3B4B87
:107B20003B4A039302A906A80295FFF709FF3222F8
:107B30000699584608F081FA06A804F0F1FC0AA854
:107B400001F024FC0CE006F0A9F9324905F08BF9AC
:107B50002846304A3049FCF779FE14A8FDF740FE6C
:107B600021461B4804F050FD31461B4804F04CFDF3
:107B700039461B4804F048FD1B4B226B1A601C4B16
:107B8000626B1D481A60414604F03EFD49461C48A0
:107B900004F03AFD51461C4804F036FD59461C4895
:107BA00004F032FD0DF51B7DBDE8F08F06F076F98F
:107BB0001A4905F058F906A8184A1749FCF746FE75
:107BC00007A8FDF70DFEBAE7A4E103201D1F0E0074
:107BD0006CDD0320211F0E0098DC03202D1F0E00FA
:107BE0005CDD0320361F0E0088DC0320431F0E00DF
:107BF000B4D603204F1F0E0010DD03205C1F0E00C3
:107C000034DD0320691F0E0048DD0320761F0E00BF
:107C1000B8DC0320961F0E00C61F0E00CD1F0E00FD
:107C200030B58FB08449044605A804F0C0FC042197
:107C300005A8FCF7E5FF05A804F072FC7F4905A83C
:107C400004F0D7FC7E4B7F4A1B6812887E4805A94A
:107C500001F0FAFB054605A804F062FC0DB97B496A
:107C60000DE07B4905A804F0C4FC05A9764801F0A5
:107C70004DFC054605A804F053FC5DB9754905A8FF
:107C800004F095FC05A80221FCF7BAFF05A804F052
:107C900047FCCEE0704905A804F0ABFC05A96A4892
:107CA00001F056FC054605A804F03AFC0DB96B49F5
:107CB000E5E7214605A804F09CFC05A9624801F00F
:107CC00069FC054605A804F02BFC002D44D164494D
:107CD00005A804F06CFC032105A8FCF791FF05A89A
:107CE00004F01EFC214605A804F083FC05A95648B3
:107CF00001F072FC054605A804F012FCB5B959491B
:107D000001A804F054FC214601A804F02BFD014613
:107D100005A804F06EFC022105A8FCF771FF05A878
:107D200004F0FEFB01A804F0FBFB82E04E4901A831
:107D300004F03DFC214601A804F014FD014605A80D
:107D400004F057FC032105A8FCF75AFF05A804F02E
:107D5000E7FB01A804F0E4FB444901A804F027FC78
:107D6000434901A804F0FEFC424904F007FD014626
:107D700005A804F03EFC05A9334801F09DFD04462A
:107D800005A804F0CDFB01A804F0CAFB0CB93A49E0
:107D900075E73A493A4802F055FA20B906F07EF8FC
:107DA000384905F060F805A81723344A344902F031
:107DB000DBF905A801F0F6FA80B1234806F037FB9D
:107DC000B8B1214806F01EFD0028F6D01E4806F086
:107DD000C2FBC1B205A801F027FAF2E72A4901A8BF
:107DE00004F0E5FB01A80221FCF70AFF01A804F05A
:107DF00097FB05A801F0CAFA0A2005F09DF9124880
:107E000001F064FB104801F04DFC0A2005F094F9E4
:107E10001E4901A804F0CBFB04210DEB0100FCF787
:107E2000EFFE01A804F07CFB14481949FFF7D2FDCE
:107E300000E000200FB030BDF81F0E0010DD032061
:107E4000B8D7032038DA03203CDB0320FB1F0E00E9
:107E500034DD032018200E0048DD032025200E000D
:107E60006B1C0E00831C0E00961C0E0032200E00B0
:107E70006CDD032046200E0052200E0064200E0010
:107E8000A4E103206F200E008D200E00A9200E001B
:107E9000B8D603202DE9F04FBE4FC9B03D46BE49CC
:107EA0003C6806A804F083FBFCF7E8FD04A8BB4986
:107EB000FCF746FD04A804F003FA80B1B8493EA8D7
:107EC00004F075FB04213EA8FCF79AFE3EA804F0DE
:107ED00027FB4FF47A7005F02FF904F09EF904A8FF
:107EE00004F0F5F9002800F0718100242E68009458
:107EF000234622460721204605F052F9A948234689
:107F000022462146406803F0ADFEA7493EA804F092
:107F10004EFB3EA80421FCF773FE3EA804F000FBD4
:107F2000A048FCF7B5FC044628BB013E4FF47A702C
:107F300005F002F98C2EF3DC012005F051F9012146
:107F4000072006F0F3FD642005F0F6F897493EA8F7
:107F500004F02DFB04213EA8FCF752FE3EA804F0DD
:107F6000DFFA0121072006F0F2FD41F2883005F02A
:107F7000E3F82146D1E02E684FF496735E43002E5D
:107F800040F3F480062006F0FBFD00286FD1044684
:107F9000062006F0F5FD20B96420643405F0CCF825
:107FA000F6E783493EA804F002FB0A22314634A8D2
:107FB00004F04DFB34A93EA804F0D4FB7D490268CF
:107FC0002BA8FCF743FC2CA8FDF70AFC34A804F00E
:107FD000A7FA3EA804F0A4FA72493EA805F0A8FF4B
:107FE00075492BA804F0E3FA0A22409922A804F06C
:107FF0002EFB22A92BA804F0B5FB704904F0BEFBB0
:10800000014634A804F0F5FA042134A8FCF7F8FD81
:1080100034A804F085FA22A804F082FA2BA804F010
:108020007FFA012005F0DCF80121072006F07EFD33
:10803000642005F081F800266FF00908409B93FB4F
:10804000F8F39E4211D80021072006F080FD4FF47E
:10805000FA7005F071F80121072006F078FD4FF461
:10806000FA7005F069F80136E8E72E6800E00024B0
:108070000023184600931A46072105F091F8FCF7F3
:10808000FDFC642005F058F8FCF79AFCB4F5FA6F93
:1080900006F1FF367FF773AF42F20F739C4265DD46
:1080A000012005F09DF80121072006F03FFD03F0B7
:1080B00039FE2C6803F046FE0646002848D10146EA
:1080C000072006F044FDFA2005F036F801210720CC
:1080D00006F03DFDFA2005F02FF88C2C34DC012051
:1080E00005F07EF80121072006F020FD642005F050
:1080F00023F833493EA804F05AFA04213EA8FCF7BD
:108100007FFD3EA804F00CFA0121072006F01FFDB8
:1081100041F2883005F010F83146072006F017FDCF
:108120004FF47A7005F008F8264B1B680093022282
:1081300040F2DC5306213EA8FCF7ECFB4FF47A70CA
:1081400004F0FAFF00F06BBD013CFCF739FCB1E72D
:108150004FF0FF311C4805F02AFB07220023009353
:108160001146104605F01CF800F059BD012005F03D
:1081700037F80121072006F0D9FC0021072006F07E
:10818000E6FC0A2004F0D8FF4FF41670FDF7EEFA73
:10819000D4E700BFB8D70320E61E0E0040E403205A
:1081A000AF200E00C0E40320B2200E00BF200E005E
:1081B000D1200E00C81D0E00EF200E00FE200E0084
:1081C00001210E009CE00320F0E603209F493EA819
:1081D00004F0EDF904213EA8FCF712FD3EA804F0DE
:1081E0009FF903F0F5FA9A48FCF752FBB0B94FF447
:1081F0007A70013C04F0A0FFFCF740FC002CF2DC9C
:10820000944B954901223EA81A7004F0D0F93EA87B
:108210000321FCF7F5FC3EA804F082F92C688D4E92
:1082200003F0D6FA814603F08DFDDFF82882D0B93D
:108230003378C3B94FF47A70013C04F07DFFFCF74A
:108240001DFCAA2CEFDC854B01221A7003F072FD95
:1082500083493EA804F0ABF93EA80321FCF7D0FC0B
:108260003EA804F05DF92E6803F0B2FA7D49044699
:1082700034A804F09CF9C9EB04040A224FF47A7183
:108280002BA8B4FBF1F104F008FA2BA934A804F0F0
:1082900069FA01463EA804F0ACF904213EA8FCF7B7
:1082A000AFFC3EA804F03CF92BA804F039F934A83F
:1082B00004F036F96C4805F0F3F806210AA804F03A
:1082C00000FA694805F0D6F806210EA804F0F9F97D
:1082D0005F4934A805F02CFE64491EA804F067F934
:1082E0000AA91EA804F03EFA614904F047FA0EA953
:1082F00004F038FA5F4904F041FA0A22044636993C
:1083000022A804F0A4F922A9204604F02BFA5A4925
:1083100004F034FA044634A804F0CCFF06212BA85C
:1083200004F0CFF92BA9204604F01CFA534904F0BD
:1083300025FA01463EA804F05CF904213EA8FCF7AA
:108340005FFC3EA804F0ECF82BA804F0E9F822A8A2
:1083500004F0E6F81EA804F0E3F834A804F0AAFF3D
:10836000F3EE097AB4EEE70AF1EE10FA44BF012306
:1083700088F8003098F80030002B40F09780374B99
:108380001C78ECB13E492BA804F011F93D492BA80B
:1083900004F0E8F93C4904F0F1F901463EA804F084
:1083A00028F93EA8FFF73CFC3EA804F0B9F82BA83A
:1083B00004F0B6F8354B36491868FFF795F875E0C4
:1083C000344B35491B788DF8003022463C233EA8BB
:1083D00005F0EAFA3FA8FDF703FA304B30491B7865
:1083E0008DF8003022463C233EA805F0DDFA3FA878
:1083F000FDF7F6F90A9A2B493EA8FCF727FA3FA8A1
:10840000FDF7EEF90A2236993EA804F020F93E9ACB
:1084100025492BA8FCF71AFA2CA8FDF7E1F93EA88C
:1084200004F07EF803F08EFC10B1204603F0A2FCAD
:10843000FCF7F9F9002840F0F783A92E40F32D84CA
:108440004FF4FA7004F078FE013EF1E71C210E00B3
:10845000C0E403208CDC032020210E00E0DC03209C
:108460002C210E00971D0E00A8DC032038210E00E1
:108470003E210E0043210E004A210E00691B0E0012
:1084800032200E006CDD0320F91A0E00E4DC03201C
:10849000B8D6032095DC0320BB1B0E00F8DC0320BC
:1084A000A61B0E0052210E005B210E00B74C3EA809
:1084B00001F0F7FBBDF8FC303E98A380206005F08A
:1084C000EDFC21780A22064601F5FA613EA804F087
:1084D000BEF83E99304604F0B3FC3EA804F020F804
:1084E00005F0DCFC2F2104F0AFFC05F0D7FC0A22DC
:1084F000064661783EA804F098F83E99304604F0AC
:108500009FFC3EA804F00CF805F0C8FC2F2104F0F5
:108510009BFC05F0C3FC0A220646A1783EA804F0A5
:1085200084F83E99304604F08BFC3EA803F0F8FF37
:1085300005F0B4FC202104F087FC05F0AFFC0A2212
:108540000646E1783EA804F070F83E99304604F003
:1085500077FC3EA803F0E4FF05F0A0FC3A2104F00C
:1085600073FC05F09BFC0A22064621793EA804F024
:108570005CF83E99304604F063FC3EA803F0D0FF5F
:1085800005F08CFC3A2104F05FFC05F087FC0A2220
:10859000064661793EA804F048F83E99304604F05A
:1085A0004FFC3EA803F0BCFF05F078FC04F04FFC44
:1085B000A378012B264603D1E3780F2B00F08983A3
:1085C0006179E378A2780191217900913EA8704900
:1085D00003F008FC3EA906A804F016F806A92BA88B
:1085E00004F007F82BA8FDF78DFB04462BA803F039
:1085F00097FFF4B9674922A803F0D9FF06A922A87A
:1086000004F0B0F801462BA803F0F3FF01212BA8DA
:10861000FCF7F6FA2BA803F083FF22A803F080FFF3
:1086200041F2883004F088FD4FF49670FDF79EF813
:10863000EFE2594804F01EFFDFED587A584B20EE68
:10864000270AD3ED007AF8EEE77AB4EEE70AF1EE06
:1086500010FA33D5534922A803F0A9FF4E4804F07D
:1086600009FF06211EA804F02CF81EA922A804F078
:1086700079F84D4904F082F801462BA803F0B9FFC0
:1086800001212BA8FCF7BCFA2BA803F049FF1EA878
:1086900003F046FF22A803F043FF0021132006F059
:1086A00056FA4FF47A7004F047FD4FF46160FDF71D
:1086B0005DF84FF47A7004F03FFDAAE298F80040AC
:1086C000002C40F01D8206A922A803F092FF374932
:1086D0002BA803F08EFF234621462BAA22A8FCF7E5
:1086E00095FC04462BA803F01BFF22A803F018FFFB
:1086F000002C63D12E492BA803F059FF2BA802218F
:10870000FCF77EFA2BA803F00BFF2A48FCF7C0F811
:1087100020B94FF47A7004F00FFDF6E7254F0025DD
:1087200006A922A803F065FF20492BA803F061FFEA
:1087300000232BAA012122A8FCF768FC18B9B5FA7E
:1087400085F4640900E000242BA803F0E9FE22A8C8
:1087500003F0E6FE002C3CD017492BA803F027FFBE
:1087600002212BA8FCF74CFA2BA803F0D9FEFCF74A
:1087700085F9013500221146786803F07BFA00285C
:10878000CED04FF4FA7004F0D7FCF3E7B0DC03204E
:1087900066210E007B210E00A8DC03200000C842E9
:1087A000B4D603209A210E00BE210E00B8DC0320AF
:1087B000C1210E00C0E40320CC210E00AB492BA840
:1087C00003F0F5FE2BA80421FCF71AFA2BA803F0FE
:1087D000A7FE7178A64C013901EB8101214412A852
:1087E00003F0E5FE12A91AA803F003FF3178A14EA9
:1087F0000A2201F5FA6116A803F029FF16A91AA8A2
:1088000003F0B0FF9C4903F0B9FF014622A803F032
:10881000F0FE9A491EA803F0CAFE99491EA803F06B
:10882000A1FF01462BA803F0E4FE01232BAA194661
:1088300022A8FCF7EBFB05462BA803F071FE1EA84F
:1088400003F06EFE22A803F06BFE16A803F068FE8C
:108850001AA803F065FE12A803F062FE2746002D59
:108860006FD188492BA803F0A2FE02212BA8FCF7A8
:10887000C7F92BA803F054FE41F2883004F05CFCE9
:108880008148FCF705F80028FAD0002571780139F5
:1088900001EB8101394412A803F089FE12A91AA83C
:1088A00003F0A7FE31780A2201F5FA6116A803F059
:1088B000CEFE16A91AA803F055FF6F4903F05EFF1C
:1088C000014622A803F095FE6C491EA803F06FFE36
:1088D0006B491EA803F046FF01462BA803F089FE52
:1088E00001232BAA194622A8FCF790FB18B9B5FA68
:1088F00085F4640900E000242BA803F011FE1EA8F3
:1089000003F00EFE22A803F00BFE16A803F008FEEB
:108910001AA803F005FE12A803F002FEECB15B49B1
:108920002BA803F044FE02212BA8FCF769F92BA821
:1089300003F0F6FD01355448FBF7AAFF0028FAD0F2
:10894000A4E753492BA803F032FE04212BA8FCF71F
:1089500057F92BA803F0E4FD0025727833780092D4
:108960004C4A4D49126803F5FA633EA803F03AFAFF
:1089700005F094FA494904462BA803F018FE3EA9D5
:1089800022A803F014FE22A92BA803F0EBFE016835
:10899000204604F068FA22A803F0C2FD2BA803F0D9
:1089A000BFFD3EA93E4801F023FC002800F09B805B
:1089B00005F074FA3B4904F056FA3EAA01233849FF
:1089C0002BA801F0D1FB2BA93748FCF703F90122B2
:1089D000354922A801F044FC22A800F0E3FC00285D
:1089E00000F0828122A800F0A5FC002840F07C81E4
:1089F00022A800F09DFC014606A803F005FE05F044
:108A00004DFA2A4904462BA803F0D1FD06A92BA84C
:108A100003F0A8FE0168204604F025FA2BA803F015
:108A20007FFD22A800F0B2FC06A91EA803F0E1FD1C
:108A30001F492BA803F0DDFD02232BAA00211EA84D
:108A4000FCF7E4FA18B9B5FA85F4640900E00024EB
:108A50002BA803F065FD1EA803F062FD54B3013599
:108A60000948FBF715FF0028FAD0DDE7DD210E00ED
:108A70007CD70320B0DC0320E2210E0032200E0060
:108A80006CDD0320E7210E00C0E40320F2210E007C
:108A900003220E0098DC032008220E0017220E008D
:108AA000A4E1032025220E0010DB032081220E000A
:108AB000B8DC03203EA92BA803F079FD06A92BA85A
:108AC00003F050FE01689A4801F0BCFB2BA803F0AC
:108AD00027FD2BA80122974901F0C2FB2BA922A850
:108AE000FCF778F878E705F0D9F9934904F0BBF979
:108AF0002BA8924A9249FBF7A9FE2CA8FCF770FE1E
:108B00002BA8904D01F0CDF82B98BDF8B03028601F
:108B10008D48AB8001F097F98C4B1868012815D06F
:108B200002282DD0002846D1EC78AB786A782978D5
:108B3000062C07D90A2C40F2E4800E2C40F2E58086
:108B4000013317E0029001900720E1E0E878C31FAD
:108B50000A2B08D800240130AB786A78297802946F
:108B60000194C0B2D4E0122825D8AB786A7829786D
:108B7000013300200290019007200090DBB2C8E092
:108B80000024AB786A78297802940194E878009000
:108B900001F5FA612BA800F037FF23460122214698
:108BA00000941EA800F0DEFF22A81EAA2BA900F048
:108BB000CCFF22A8B3E00024654922A803F0F7FC0B
:108BC0000A2221461EA803F042FD1EA922A803F096
:108BD000C9FD01462BA803F00CFD04212BA8FCF7CE
:108BE0000FF82BA803F09CFC1EA803F099FC22A808
:108BF00003F096FC2046FCF7B9FD0EA803F090FCAC
:108C00000AA803F08DFC06A803F08AFC49B0BDE871
:108C1000F08F0EA803F084FC0AA803F081FC06A8DC
:108C200003F07EFCFFF73BB9A92E36DD04F018FAFD
:108C3000002832D004F06CFA814604F061FA8246D2
:108C400004F054FA834604F033FA044604F03AFA86
:108C5000064604F041FAF6B2C0B2E4B25FFA8BF312
:108C60005FFA8AF21FFA89F10290019600943EA8F9
:108C700000F0CAFE3EA800F0A8FFFBF7D4FD354A7D
:108C800035493EA8FBF7E2FD3FA8FCF7A9FD3349B3
:108C90003EA803F08CFC042104E031493EA803F017
:108CA00086FC02213EA8FBF7ABFF3EA803F038FC90
:108CB0002C682C492C4803F073FD00283FF462AB6C
:108CC000002C7FF75FAB4FF47A7004F035FA013C6B
:108CD000EFE726493EA803F06AFC3EA8FCF796FDA4
:108CE0003EA803F01DFC6BE4124800F04FFB05F0BA
:108CF000D5F81F4904F0B7F83EA90D4801F094FAE1
:108D0000F6E6029001900B2002E0029001900F2005
:108D1000009001F5FA612BA800F076FE2BA800F078
:108D200001FF0446284600F0FDFE241A44E700BF78
:108D3000A4E1032010DB032038220E0053220E0092
:108D4000C81D0E00B0DC032094DC032088DC032067
:108D500081230E005C220E00C61F0E0069220E0049
:108D60006F220E0060210E0098DC0320E61E0E002C
:108D700097220E0010B587488EB0FBF77DFD864820
:108D800004F0FAFB844804F00DFB844803F0CCF8AF
:108D9000FBF774FE824A8349834804F0F1FC002407
:108DA000824A8349804804F0EBFC234622468149ED
:108DB00001940094804802F0D5FF012322467D49AA
:108DC000019400947D4802F0CDFF4FF0FF317C48C4
:108DD00004F0EDFC4FF49671794804F0E8FCB9EE2C
:108DE000040A04F021F90121132005F09FFE01215E
:108DF000072005F09BFE2146082005F097FE012183
:108E0000072005F093FE2146062005F08FFE05F0B1
:108E100043FF6C4905F0CCF905F03EFF05F0CCF9B5
:108E2000FBF79EFE5C4804F025FBDFED677A674B9D
:108E300020EE270AD3ED007AF8EEE77AB4EEE70ADF
:108E4000F1EE10FA2ED5624906A803F0B0FB5248A5
:108E500004F010FB062102A803F033FC02A906A8C7
:108E600003F080FC5B4903F089FC01460AA803F08B
:108E7000C0FB01210AA8FBF7C3FE0AA803F050FBC0
:108E800002A803F04DFB06A803F04AFB214613207D
:108E900005F05DFE4FF47A7004F04EF94FF4616016
:108EA000FCF764FC4C4906A803F081FB0022114644
:108EB0000AA80A9202F0B4FC0A220A9902A803F056
:108EC000C6FB02A906A803F04DFC01460AA803F060
:108ED00090FB04210AA8FBF793FE0AA803F020FBED
:108EE00002A803F01DFB06A803F01AFB00F04CFEDD
:108EF00004F0D4FF4FF4E13104F0C4FF374800F030
:108F0000A2FF374906A803F052FB364902A803F036
:108F10004EFB02A906A803F025FC01460AA803F0AF
:108F200068FB04210AA8FBF76BFE0AA803F0F8FA15
:108F300002A803F0F5FA06A803F0F2FA274800F0B9
:108F400025FEC8B928490AA803F031FB02210AA866
:108F5000FBF756FE0AA803F0E3FA244A24490AA8BC
:108F600000F066FD0AA800F030FE41F2883004F0FF
:108F7000E3F803F052F905E0184800F060FF1748E5
:108F800000F061FF1B4B1C491868FEF723FD0EB073
:108F900010BD00BFC0E40320A8DC032020DD0320B7
:108FA000AC220E00055D0D0055D70D00B5220E0058
:108FB0000D580D00FD4D0D00BB1B0E00A61B0E0035
:108FC000F0E60320A08601000000C842B4D60320CA
:108FD0009A210E00BE210E00BD220E0094DC03205B
:108FE000CA220E00D0220E00D7220E00EB220E0065
:108FF000F4220E00E4DC0320B8D6032010B52421AF
:10900000044605F0A3FE204610BD00005E4B70B57F
:1090100000241C605D4B5E4D1C705E4B01261E7073
:1090200002F046FB4FF6FF736B812C60AC80AC7195
:109030002C81304602F0C8FD574A5849284605F0B1
:1090400077FE2146304602F0CFFD21465448554D6B
:1090500004F0D0F9504A5449514805F069FE4FF4E4
:109060000073524A52495348FBF7B2FC4A4A5249EC
:10907000504805F05DFE2146504800F077FC50490D
:10908000504803F094FA444A4F494E4805F050FEC8
:109090004E494F4803F08BFA3F4A4B494C4805F084
:1090A00047FE4C494C4803F082FA3B4A46494A483D
:1090B00005F03EFE49494A4803F079FA364A4249EA
:1090C000474805F035FE4749474803F070FA324AF1
:1090D0003D49454805F02CFE28194449103403F059
:1090E00066FAB4F5487FF7D12B4A4149414C00203C
:1090F00005F01EFE4049414803F059FA264A32491C
:109100003E4805F015FE3E493E4803F050FA224A1B
:109110002D493C4805F00CFE3B493C4803F047FA1A
:109120001D4A2949394805F003FE052211463848F1
:10913000FBF732F80021374802F08BFE164A364919
:10914000344805F0F5FD4FF4A6720021204606F0E4
:1091500009FF204605F0F2FB04F11C0005F0EEFBD0
:109160000A230D4A2D49C4F84831204605F0E0FD98
:109170002B4800F0D1F8084A2A49294805F0D8FDC3
:10918000BDE87040FBF7E7BC9CE00320F8DC03205F
:1091900024DD032095DC0320F8DA032069480D0064
:1091A000A8DC03207CDD032013D40D00D54D0D0079
:1091B000905F0100C8DC0320D3480D00B0DC032021
:1091C00000230E0010DD032021C50D0010230E002A
:1091D00034DD032014230E0048DD03201D230E0080
:1091E000B8DC032064200E00E4DC0320E61E0E0041
:1091F000D9470D003CDB032029230E0098DC032017
:1092000030230E006CDD032036230E005CDD0320CE
:10921000FCDC032020DD032071BE0D0015650D0070
:1092200010DB0320D7470D0013B502AB026803F82B
:10923000011DD46819460122A04702B010BD10B527
:10924000036A04461BB901236360002010BD00209F
:10925000586092B2206A02F003F9236A5B68002B1F
:10926000F1D110BD006A08B102F0D4B97047006AAC
:1092700010B1012101F0C0BE704707B501220DF108
:10928000070101F0C9FD01280CBF9DF807004FF050
:10929000FF3003B05DF804FB08B5006A10B1FFF7BA
:1092A000ECFF08BD4FF0FF3008BD38B50546006A39
:1092B00050B1FFF7E2FF431C044604D0286A01695D
:1092C000013901F069FE204638BD0000002370B569
:1092D00043604FF47A7383600E4B0360044628208A
:1092E0000D46164602F066FD206280B12B4605F160
:1092F000280253F8041B40F8041B9342F9D10C22B6
:10930000314604F1100006F0CAFE00232377204600
:1093100070BD00BF44230E004FF47A7100228160BB
:1093200002494260016002620274704744230E00E9
:1093300010307047006A20B1407A012894BF0020A5
:109340000120704708B5006A08B101F065FD08BD4D
:10935000036A0BB1186970474FF0FF307047006A1D
:1093600000B1C069704708B5036A014663B1FFF7F1
:10937000F6FF02460846FFF7EBFF47F6FF73101AA9
:10938000984228BF184608BD184608BD10B50446C7
:10939000006A30B101F062FE206A02F013FD002382
:1093A000236210BD006A18B1407A003018BF012056
:1093B000704702F07DB902F07BB92DE9F74300F167
:1093C000380806464FF487720021404606F0CAFD71
:1093D00000242546274606F11C09D6F848319F424D
:1093E00017DABCB94FF47A7003F0A6FE484605F0D0
:1093F00009FA20B3484605F0AEF86B1CDBB23544E1
:10940000032B85F8380094BF0024012400271D4653
:10941000ECE794B102AC002344F8043DB8F8002016
:1094200098F80230ADF8042006F11C00A37004F097
:10943000FDFF204606F05AFC03E0204601E001371C
:10944000CBE703B0BDE8F08338B5C0F8483100F190
:109450001C04054600230968204605F0BFF8204695
:1094600004F0E5FF08B9002038BD2846FFF7A5FF46
:10947000C8386328F7D8204604F0D8FF012038BD4B
:1094800030B585B004460D4668460F4903F08FF8A5
:109490002946684603F066F9016804F11C0003F0F0
:1094A000E2FC684603F03CF82046FFF786FFC83828
:1094B000632804D804F13C0006F018FC01E04FF0EA
:1094C000FF3005B030BD00BF68230E0010B5044664
:1094D00005F080F92046FFF770FFC83863288CBF7D
:1094E0000020012010BD38B5054609681C3014461F
:1094F00003F0B9FC2846FFF760FF642394FBF3F404
:1095000090FBF3F0231A5842584138BD30B589B06A
:1095100004460D4668460D4903F049F82946684659
:1095200003F020F9014604A803F063F84FF49672A3
:1095300004A92046FFF7D7FF044604A802F0F0FF75
:10954000684602F0EDFF204609B030BD78230E00DA
:1095500030B589B004460D4668460D4903F027F83A
:109560002946684603F0FEF8014604A803F041F8D6
:10957000C82204A92046FFF7B6FF044604A802F05B
:10958000CFFF684602F0CCFF204609B030BD00BFD7
:109590007E230E0030B589B004460D4668460D495D
:1095A00003F005F82946684603F0DCF8014604A8F4
:1095B00003F01FF8C82204A92046FFF794FF0446D1
:1095C00004A802F0ADFF684602F0AAFF204609B0E9
:1095D00030BD00BF84230E0030B589B004460D466F
:1095E00068460D4902F0E3FF2946684603F0BAF8E1
:1095F000014604A802F0FDFFC82204A92046FFF797
:1096000072FF044604A802F08BFF684602F088FF50
:10961000204609B030BD00BF89230E0030B589B0A7
:1096200004460D4668460D4902F0C1FF29466846CA
:1096300003F098F8014604A802F0DBFFC82204A951
:109640002046FFF750FF044604A802F069FF684671
:1096500002F066FF204609B030BD00BF93230E0024
:1096600030B589B004460D4668460D4902F09FFFAB
:109670002946684603F076F8014604A802F0B9FFCF
:10968000C82204A92046FFF72EFF044604A802F0D2
:1096900047FF684602F044FF204609B030BD00BFD6
:1096A00099230E001FB504460749684602F07FFF64
:1096B000C82269462046FFF716FF0446684602F0B6
:1096C0002FFF204604B010BDA4230E002DE9F04367
:1096D000044600F11C0895B04549404604F138079E
:1096E00003F0C1FB4FF487720021384606F03AFCC4
:1096F00000263546B146D4F84831002B2CDD5EBB40
:109700004FF47A7003F018FD404605F07BF890B1F5
:10971000B5F5877F61D13A88BB78CDF838900EA82F
:10972000ADF838208DF83A3006F0E0FAC8386328F2
:1097300003D9002059E0032DEDDC384606F092FCF9
:10974000373004F1370320449842D4D013F8012F66
:10975000292A08BF0126F7E72649384606F0B2FC59
:1097600000252449002006F0ADFC0028E1D006F0D9
:10977000BDFA02AB43F825000135062DF1D19DF865
:1097800014009DF810309DF80C209DF808100090F2
:1097900008A804F009FB204605F01CF8204604F058
:1097A00045FE09AE144B0E930FCE0FAD0FC53368B7
:1097B0002B70069A079B03EB022292B200230EA99C
:1097C000204604F08DFF204604F031FE204604F0D0
:1097D0002EFE003018BF012007E0404604F0BBFE1B
:1097E0000135631983F837008EE715B0BDE8F083C3
:1097F000AE230E00B3230E0068270E00F0B585B02F
:1098000005460F461646FFF761FF044660B139462C
:10981000684602F0EEFE324669462846FFF763FED0
:109820000446684602F07CFE204605B0F0BD00000C
:1098300030B589B004460D4668460D4902F0B7FEC2
:109840002946684602F08EFF014604A802F0D1FEC8
:10985000962204A92046FFF7D1FF044604A802F08F
:109860005FFE684602F05CFE204609B030BD00BFD6
:10987000B7230E0030B589B004460D4668460D4941
:1098800002F095FE2946684602F06CFF014604A8E6
:1098900002F0AFFE962204A92046FFF7AFFF044670
:1098A00004A802F03DFE684602F03AFE204609B0E8
:1098B00030BD00BFBD230E0030B589B004460D4653
:1098C00068460D4902F073FE2946684602F04AFFD9
:1098D000014604A802F08DFE962204A92046FFF757
:1098E0008DFF044604A802F01BFE684602F018FE35
:1098F000204609B030BD00BFC3230E00B0F5FA6F9B
:1099000030B528BFA0F5FA60104D28BF80B292B2E2
:1099100000230133DCB2A14205D9EC1814F8014C44
:10992000224492B2F5E7022903D9830704BF01322A
:1099300092B200EBC003C11C00EBC30000EB80003F
:10994000431E03EBA100104480B230BDC9230E00BA
:1099500003784078303BDBB20A2B28BF002303EBAF
:109960008303303800EB4300C0B27047234B3C22E6
:109970000B4430B5B3FBF2F402FB14314171B4FB7C
:10998000F2F102FB1142182402714FF46162B3FB41
:10999000F2F2B2FBF4F104FB1122C270184AB3FBDD
:1099A000F2F300229BB20270017811F003040CBFA5
:1099B0000122002202F5B6759D4207DAC2F57E4209
:1099C0009332134401319BB20170EDE701220D4D3A
:1099D000427041786A1812F8012C1CB9022904BFA0
:1099E0000132D2B292B2934204D39B1A01319BB29C
:1099F0004170EEE70133837030BD00BF80BC92C779
:109A000080510100C9230E00B1F5FA6F83709DF8F3
:109A10000030C37028BFA1F5FA619DF804300371CE
:109A200028BF89B29DF808300170427043717047B9
:109A300030B50D4685B004460868496801AB03C3DC
:109A40002889A97A188004AD99700DF10D00FFF7EF
:109A50007FFF15F80C3D2070413B122B30D8DFE81A
:109A600003F0192F2F2D2F172F2F2F0A2F2F202BD9
:109A7000292F2F2F27009DF80530612B06D09DF848
:109A800006306E2B0CBF0623072318E0012316E0D7
:109A9000022314E09DF80630722B0CBF0423082328
:109AA0000DE09DF80630722B0CBF0323052306E062
:109AB000092304E00A2302E00B2300E00C23637077
:109AC00002A8FFF745FFA070106851682B4603C33A
:109AD0002846FFF73DFFE0700DF10700FFF738FF64
