:02000002D0002C
:1040000000400D00702D0E00000006000D0005019F
:084010000401E80500000000B6
:0440180054070E003B
:1040200009480A49884208B505D0094A824202D0A7
:10403000121A0BF04CFE0748074A0021121A0BF027
:1040400051FE014808BD00BF6CD60320BC280E00FD
:10405000F8DA0320F8DA0320F0E7032070B509F05E
:10406000C5F9074C074BE41AA40800251E46A542D3
:1040700004D056F8253098470135F8E770BD00BFE9
:10408000AC280E0054280E0004F03CBF08B504F024
:1040900005F8BDE8084009F06BB907F04BBD07F023
:1040A00051BD07F04FBD000008B5034A00210C20A8
:1040B00007F02AFCFEE700BF31B50D000078B0FA2A
:1040C00080F04009704701230370704710B5074C1A
:1040D0002168034639B10648064A006806F016F81A
:1040E00010B100232360012010BD00BFFCDA0320C3
:1040F00000DB032004DB032038B50C4D2B7804468D
:1041000093B103460A490B480B4A0968006805F059
:10411000FDFF08B9002038BD34B12046FFF7D6FFB7
:104120000028F7D000232B70012038BD04DD0320C8
:104130006CD6032000DB032004DB032070B50D4D9B
:104140002B68834204460E460ED00120FFF7D4FFB1
:1041500008B9002070BD084B084A1868214605F0D0
:10416000CBFF0028F5D02C60054B1978314319702E
:10417000012070BD6CD6032000DB032004DB03208C
:1041800004DD032010B504460120FFF7B5FF78B128
:104190000023084A194699540133B3F5007FFAD138
:1041A000054B064A1C60137843F00103137001208D
:1041B00010BD00BF04DB03206CD6032004DD032008
:1041C00070B5C36801338B4205460C46164601D2D2
:1041D000002070BD90F82020C369102A0CBF080A87
:1041E000C80918440D4B1B68984208D195F8203037
:1041F000102B0B4B09D1E4B233F814300BE0002143
:10420000FFF79CFF0028F1D1E2E704F07F0453F8A8
:10421000243023F070433360012070BD6CD603203E
:1042200004DB03202DE9F74302AEDFF8448046F8B3
:10423000041D0546174600244FF4007932460199C3
:104240002846FFF7BDFF78B12B7C95F8202009FAAE
:1042500003F31C444FF6F873102A18BF4346019A23
:104260009A42EBD33C60012003B0BDE8F08300BF6D
:10427000F8FFFF0F0129F8B506460C46174601D88E
:104280000020F8BDC36801339942F9D890F8203076
:10429000C569102B0CBF0B0ACB091D44124B1B68C0
:1042A0009D4208D196F82030102B104B0AD1E4B271
:1042B00023F814700AE000212846FFF73FFF00288A
:1042C000F0D1DDE704F07F0443F82470084A137846
:1042D00043F001031370337E012B81BFB368ED18E7
:1042E000044B1D600120F8BD6CD6032004DB0320C5
:1042F00004DD0320FCDA03202DE9F74F146806469D
:104300008B4617461CB101344FF0000A05E04B1EE6
:10431000D3F1000A04684AEB030AF368254603F167
:1043200001094FF00008F36898451DD24D4588BF3C
:10433000022501AA2946304688BF2C46FFF740FFD8
:1043400090B1019A6B1C0AB11C4602E01A1B9345FE
:1043500003D008F101081D46E5E76FF070422946D9
:104360003046FFF787FF58B900201CE005F1FF3801
:104370002A4641463046FFF77DFF0028F4D04546E7
:10438000AC42F3D3396831B93C60BAF1000F09D0BF
:104390000134346006E022463046FFF76BFF002808
:1043A000F2D1E1E7012003B0BDE8F08F73B502233D
:1043B0000F4E036005460C4601AA21462846FFF72A
:1043C000FFFE88B1002221462846FFF753FF58B16F
:1043D00095F82020019C4FF6F873102A18BF334639
:1043E0009C42E9D3012000E0002002B070BD00BF74
:1043F000F8FFFF0FF8B53D4B044619601546DAB1DA
:10440000042A01D90020F8BD00210846FFF796FED6
:104410000028F7D0364A02EB051393F8AE315B065D
:10442000F0D11B3502EB0515D5F80A30632BE9D91D
:10443000D5F80650002DE5D000212846FFF77EFE76
:104440000028DFD02A4BB3F80B20B2F5007FD9D17A
:10445000197C0029D6D0DA89002AD3D05A7B002AC9
:10446000D0D02176002122712174012094F810E02F
:1044700000FA0EF18A4206D00EF10101BEF1070FDB
:104480002174F3D9BEE7D88A08B1014601E0184A81
:10449000516AA160DA891E7C2A44E261B3F8117086
:1044A000678401FB06207A0102F2FF1200EB622210
:1044B00060626261B3F8131009B90D49096AAD1A57
:1044C000294421FA0EF540F6F4729542E56001D8D0
:1044D0000C2307E04FF6F472954285BFDB6A6362F6
:1044E0001023202384F820300120F8BD00DB0320B6
:1044F00004DB032006F094BF10B503682F2B04469D
:1045000004D9074A00210A2007F0FEF923681F2B6F
:1045100083BF03F01F03236002484FF0A04010BD8B
:1045200031B50D000003005007B502AB43F8040D90
:104530001846FFF7E1FF019A01239340C0F80835C0
:1045400003B05DF804FB07B502AB43F8040D184651
:10455000FFF7D2FF019A01239340C0F80C3503B056
:104560005DF804FB7FB5024608461379956833B1C0
:104570003DB90C4904B0BDE8704008F021BB0A4BBE
:1045800000E00A4B167B0A4C0A49527B0292012E2C
:1045900008BF214601910095074A002108F04DFB14
:1045A00004B070BDD90A0E002E1C0E00C80A0E0001
:1045B000D10A0E00D50A0E00EF0A0E000368C9B238
:1045C0009B68184738B504460D4690B201210AF0A1
:1045D0006DF9134B1B6893F8500093F8513003F0BA
:1045E0001F0343EA4010FFF79FFF6572102D12D89A
:1045F000DFE805F0110B110D0D0F0F0911110B0D57
:10460000090F110D0D00902306E0BA2304E0782372
:1046100002E0602300E04223A372204638BD00BFC1
:1046200014DD0320054B1B6893F8500093F85130BC
:1046300003F01F0343EA4010FFF776BF14DD0320A9
:10464000054B1B6893F8500093F8513003F01F039B
:1046500043EA4010FFF777BF14DD032009B9017268
:10466000704701230372704770B5064614460D4625
:104670000AF0D2F9B17A490809F099FC0AF0CCF9AC
:10468000E9B2FFF79BFF0AF0C7F9E1B2FFF796FF27
:104690000AF0C2F909F092FC20B9012008F00CFCE4
:1046A000012070BD002070BD10B500220446042911
:1046B00055D8DFE801F05403172B3F00FF21FFF727
:1046C000D3FF4022C7212046FFF7CEFF5E22CC2138
:1046D0002046FFF7C9FF4122CD212046FFF7C4FF46
:1046E00054223AE0FF21FFF7BFFF4022C7212046B6
:1046F000FFF7BAFF6522CC212046FFF7B5FF412224
:10470000CD212046FFF7B0FF4F2226E0FF21FFF723
:10471000ABFF4022C7212046FFF7A6FF5222CC2143
:104720002046FFF7A1FF4122CD212046FFF79CFF45
:10473000662212E0FF21FFF797FF4022C7212046A3
:10474000FFF792FF4222CC212046FFF78DFF3F2248
:10475000CD212046FFF788FF7122CE2104E0FF2102
:10476000FFF782FF0022C7212046BDE81040FFF777
:104770007BBFF8B5002407460D462646FF2E05F1FF
:10478000040501D1FF2C09D035F8046C35F8024C32
:10479000314622463846FFF767FFEFE70120F8BDB4
:1047A000082916D8DFE801F0050715090B0D0F11D0
:1047B000130009490EE009490CE009490AE00949DA
:1047C00008E0094906E0094904E0094902E009490D
:1047D00000E00949FFF7CDBF14080E00DA110E0002
:1047E00074070E00FC090E00B4080E007A120E00C9
:1047F00058090E0036110E0016130E0038B5437A14
:10480000052B04462CD10122FF21FFF72DFF80222A
:1048100012212046FFF728FF642008F04DFB257A7F
:10482000012D17D10F492046FFF7A3FF0E4920465F
:10483000FFF79FFF0D492046FFF79BFF2A46FF2108
:104840002046FFF711FF152100222046FFF70CFF3D
:10485000074900E007492046BDE83840FFF789BF17
:1048600038BD00BF320B0E00A00A0E000E0B0E006A
:1048700016130E002E0E0E0070B5044615460E4699
:104880000AF0CAF8A17A490809F091FB0AF0C4F8C5
:104890003146FFF793FE0AF0BFF809F08FFB0AF0EC
:1048A000BBF8A17A0122D14009F07AFB0AF0B4F8F2
:1048B00003681B69984728B10AF0AEF803685B6982
:1048C00098472870012008F0F7FA012070BD000019
:1048D00010B5084C2368DB070AD42046FFF7EEFB2F
:1048E00030B10121044807F053FA2046FFF7EBFBF3
:1048F000014810BD08DD03200CDD032010B504467F
:10490000FFF7E6FF2146BDE8104007F0F9BA3C206A
:10491000FFF7F4BF7FB51B4B00931B4B02930024A2
:1049200001231A4D8DF80C300E468DF804408DF899
:104930000D40FFF7CDFF694607F072FA2B6893F838
:10494000500093F8513003F01F0343EA4010FFF783
:10495000FAFDF0B2FFF7D2FF2046FFF7CFFF2B683A
:10496000044693F8500093F8513003F01F0343EAD4
:104970004010FFF7D9FDFFF7ABFF07F038FA2046EC
:1049800004B070BD70070E0000093D0014DD032067
:104990003D21FFF7BFBF01F07F01FFF7BBBF10B59F
:1049A0001446FFF7F8FF204010BD70B542210546C0
:1049B000FFF7B0FF432104462846FFF7ABFF442131
:1049C00006462846FFF7A6FF44EA062400F07F00CB
:1049D00044EA004070BD0000F0B585B01B4B009369
:1049E000164600231A4A1B4D029201240F468DF8E9
:1049F00004308DF80D308DF80C40FFF769FF6946E3
:104A000007F00EFA2B6893F8500093F8513003F03A
:104A10001F0343EA4010FFF796FDF8B2FFF76EFF61
:104A2000F0B2FFF76BFF2B6893F8500093F851300A
:104A300003F01F0343EA4010FFF776FDFFF748FF3E
:104A400007F0D5F9204605B0F0BD00BF70070E0095
:104A500000093D0014DD032041F08001FFF7BCBFD9
:104A600002228421FFF7B8BF01228421FFF7B4BFDF
:104A7000FFF7FABF08B506F0D3FC014B186008BD7C
:104A800014DD032010687047704703681847012A37
:104A900002D0022A02D004E0016002E00B6800B1FB
:104AA000036000207047704738B5064D002404F5B8
:104AB00044702844103C07F0F3FB14F5487FF6D10E
:104AC00038BD00BF88DF032010B50123037483685D
:104AD00004460BB1C06806E0006828B183680BB9D2
:104AE0000AF007F8C3689847012363740020BDE803
:104AF000104006F0C9BD08B5002007F003F828B142
:104B000006F0E0FF80F00100C0B208BD012008BD42
:104B1000037823F07F0319430170704713B5054BE9
:104B20001B788DF800303C23044608F0FDFD20463C
:104B300002B010BD04DF032010B50446006808B1C0
:104B400007F000F8204610BD00231A4619464068B9
:104B500006F060BF00231A461946406806F062BF9F
:104B600000221146406806F04DBF10B58368044628
:104B700013B1032201469847204610BD38B50446BC
:104B800070B1056835B12846FFF7EFFF10212846C0
:104B900009F09CFF20461421BDE8384009F096BF7B
:104BA00038BD10B543690446BBB1586806F034FD02
:104BB00078B963695A7C12B9586806F035FD6369A3
:104BC000586806F039FD60690023636128B1FFF77A
:104BD000D5FF606908B1FFF7D1FF201DFFF7C5FFC2
:104BE000204610BD10B586B00446ADF8161006A9D3
:104BF00001F8032D089A02920122019300920B46BC
:104C00000DF1160107F0E4F9204606B010BD0000D2
:104C100073B51E4B1D7806460C46B5B902A8012295
:104C20001A7040F8045D2A46294606F0B1FC019B43
:104C30001E2B0AD103232068A3710823A580258198
:104C4000638110B106F07EFF2560B4F904300BB922
:104C500022689AB1216859B18A88012A03D0042AAE
:104C600006D1022205E089896181A271238105E0D4
:104C7000042223814FF6FF73A271638154F8063F2B
:104C80003360A388B380304602B070BD18DD0320C6
:104C900008B506F055FC014B186008BDECE6032092
:104CA00030B587B01D4600230446049322B1214B42
:104CB0000593214B029204930023E360049B21603F
:104CC0003BB1022202A9201D9847059B2361049B4A
:104CD000E3601A49142009F0FDFE30B1002303748B
:104CE000036043608360C36043746061A0B1144B90
:104CF000836063691349DC606069134B8DE82100B0
:104D00000922043006F080FC30B963691B7C4BB982
:104D1000012006F005FCF8E760690023636108B133
:104D2000FFF72CFFFFF7B4FF02A8FFF71EFF204696
:104D300007B030BD8B4A0D008F4A0D0054260E007F
:104D4000A1E90D0036180E00C94A0D0008B5FFF79D
:104D50009FFFBDE8084006F09DBEB0F90A3013B1D0
:104D600000EB031070471846704710B54B688A680F
:104D700010339A4201D2002010BDA2F110038B60C3
:104D8000002BF8D0416819B15C1A24114C8100E065
:104D900003600021436022F8061C02F8081C42F858
:104DA000041C184610BD00000B780BB9036002E02C
:104DB000024B036000234360704700BF894A0D0027
:104DC000826810B54AB14368C468A34202D3002385
:104DD000836010BD5C1C4460D15410BD10B5044606
:104DE0000021FFF7EDFFA3683BB194E80600E368FC
:104DF0004868D31A03444B60E260A06810BD70B5E8
:104E0000064600680C4681681144154607F066FAAC
:104E10002544AC4205D014F8011B306807F055FB5F
:104E2000F7E7002070BD0121042006F0A1BB0000BF
:104E30001FB50E21174806F06BF9044638BB08F081
:104E4000EDFE154907F0CFFE0121072009F03FFDD7
:104E500041F2883008F030F82146072009F037FD8C
:104E600043F6982008F028F80C4B1B6800930222A8
:104E70004FF49673062102A8FFF7B4FE4FF47A7040
:104E800008F01AF804B0BDE8104007F086B804B086
:104E900010BD00BFD4E303203D180E00A8E203209C
:104EA0004B6843608B688360CB68C36030B500F1AA
:104EB000100301F10F0200F11D0412F8015F03F865
:104EC000015B9C42F9D10B6A036230BD70B50546A7
:104ED000A4B00C4608F0A2FE296807F084FE6349DE
:104EE00006A807F024FA04A805F04FFF06A912A8A7
:104EF00007F03FFA9DF811105D4B013901EB81017C
:104F000019440EA807F013FA0EA912A807F0EAFA3E
:104F10009DF810100A22064601F5FA611BA807F059
:104F200056FA1BA9304607F0DDFA524907F0E6FAB7
:104F300001460AA807F01DFA1BA807F0B1F90EA850
:104F400007F0AEF912A807F0ABF912A805F058FA6D
:104F50000123069A48491BA806F07AF91BA912A852
:104F6000FFF79EFF12A805F091FAA0B112A805F074
:104F700055FA60B908F052FE404907F034FE12A815
:104F800005F078FA06993C4806F0D0F908E012A836
:104F900005F070FA0EE008F041FE394907F023FEF3
:104FA0000699354806F0A6F920B908F037FE3549CC
:104FB00007F019FE17230A9A2F491BA806F048F993
:104FC0001BA912A8FFF76CFF12A805F05FFA90B9B1
:104FD00008F024FE2C4904461BA807F0A8F90AA9EA
:104FE0001BA807F07FFA0168204607F0FCFD1BA80C
:104FF00007F056F931E0611E03290DD8DFE801F012
:1050000002040608214904E0214902E0214900E0A8
:10501000214912A807F0D4FD9DF8151003919DF8C1
:1050200014109DF8102002919DF8131001919DF825
:1050300012109DF81130009102F5FA6217491BA871
:1050400006F090FD1BA912A807F0BAFD296812A866
:1050500007F0C9FD12A805F00DFA0AA807F020F91B
:1050600006A807F01DF924B070BD00BF75180E002A
:1050700080D703207B180E00D4E3032080180E0095
:10508000A4180E0094180E00B0180E00CA180E00D6
:10509000D3180E00DE180E00EB180E00F5180E00E7
:1050A0001FB50849684607F042F901216846FFF735
:1050B0000DFF684607F0F4F806F06FFF05B05DF8E5
:1050C00004FB00BF10190E0070B590B005460C46E9
:1050D00004A8274907F02BF92946684607F027F965
:1050E000694604A807F0FEF9224907F007FA2146AD
:1050F000064608A807F01BF908A9304607F0F2F9A0
:1051000001460CA807F035F904210CA8FFF7DEFED4
:105110000CA807F0C5F808A807F0C2F8684607F021
:10512000BFF804A807F0BCF829460CA807F0FFF860
:1051300011490CA807F0F4F906460CA807F0B0F8DE
:105140001EB121460D4807F01FF929460CA807F0AB
:10515000EEF80B490CA807F0E3F905460CA807F098
:105160009FF81DB12146074807F00EF910B070BD39
:1051700021190E00701A0E0026190E0078DF032088
:105180003B190E0068DF032070B5474B1A68002AF0
:10519000A4B01D4640F38680444902A807F0C7F832
:1051A00012A805F02DF9684605F0EFFD40490AA860
:1051B00007F0BDF802A90AA807F094F99DF80110BC
:1051C0003C4B013901EB8101194404460EA807F05C
:1051D000AEF80EA9204607F085F99DF800100A22C6
:1051E000044601F5FA611BA807F0F1F81BA9204657
:1051F00007F078F9304907F081F9014606A807F071
:10520000B8F81BA807F04CF80EA807F049F80AA850
:1052100007F046F80299294806F05EF870B908F0E0
:10522000FDFC274907F0DFFC0299244806F062F8EC
:1052300020B908F0F3FC234907F0D5FC1723069AA0
:105240001E491BA806F004F81BA912A8FFF728FEA8
:1052500012A805F01BF950B908F0E0FC1A4907F054
:10526000C2FC08F0DBFC069907F0BDFC14E00E4C14
:10527000164E2B68002B0CDDD6F8201312A807F071
:10528000B2FC1349134807F07FF82368013B236001
:10529000EFE712A805F0EEF806A807F001F802A85B
:1052A00006F0FEFF24B070BD50DF032075180E001D
:1052B00079180E0080D703207B180E00D4E303205A
:1052C0004E190E0085190E009C190E0088DF032070
:1052D0002E1C0E00A8E203202DE9F04FC1B002AF52
:1052E00004468A4607F10C00BA4915461E4607F0E7
:1052F0001EF8B94907F1C40007F019F8B74BB84ACE
:105300001B681288B74807F1C40105F011F98046FF
:1053100007F1C40006F0C4FFB8F1000F20D1B24974
:1053200007F1900007F003F8AB4907F16C0006F0B5
:10533000FEFF07F16C0107F1900007F0D3F801467A
:1053400007F1C40007F015F8022107F1C400FFF7C8
:10535000BDFD07F1C40006F0A3FF07F16C007CE07F
:10536000A24907F1C40007F004F807F1C4019D4801
:1053700005F040F9804607F1C40006F091FFB8F14E
:10538000000F01D19A4912E09A4907F1C40006F0D2
:10539000F0FF07F1C401934805F04EF9804607F18C
:1053A000C40006F07DFFB8F1000F0ED1924907F15D
:1053B000C40006F0BCFF07F1C4000221FFF786FD20
:1053C00007F1C40006F06CFF75E2294607F1C4003E
:1053D00006F0CFFF07F1C401824805F04FF980467F
:1053E00007F1C40006F05CFFB8F1000F58D1834903
:1053F00007F1C40006F09BFF032107F1C400FFF78B
:1054000065FD07F1C40006F04BFF294607F1C40013
:1054100006F0AFFF07F1C401724805F051F980466C
:1054200007F1C40006F03CFFB8F1000F1CD174492D
:1054300007F1900006F07BFF294607F1900007F086
:1054400051F8014607F1C40006F093FF07F1C400CC
:105450000221FFF73BFD07F1C40006F021FF07F131
:10546000900006F01DFF26E2664907F1900006F065
:105470005EFF294607F1900007F034F8014607F176
:10548000C40006F076FF032107F1C400FFF71EFDFC
:1054900007F1C40006F004FF07F1900006F000FFDA
:1054A00036BBDFF87C81226898F80030019298F8CA
:1054B0000120DFF87091009203F5FA63D9F800201B
:1054C000514907F1900006F04DFB07F1900107F1FB
:1054D0000C0006F059FF226898F80030019298F805
:1054E0000120009203F5FA63D9F80020474936E01D
:1054F000012E0CD12368464A464907F1C40006F044
:1055000031FB214607F10C0006F024FF2BE0022EB0
:105510002ED1DFF80C81226898F80030019298F8BB
:105520000120DFF80091009203F5FA63D9F800201A
:10553000354907F1900006F015FB07F1900107F1DE
:105540000C0006F021FF226898F80030019298F8CC
:1055500001200092D9F800202F4903F5FA6307F1E2
:10556000C40006F0FFFA07F1C401204606F00CFF64
:1055700007F10C0107F16C0006F0FBFE07F16C016E
:10558000184805F0C9F9804607F16C0006F088FE5E
:10559000B8F1000F48D1214907F15C0006F0C7FEC1
:1055A00007F10C0107F15C0006F09CFF014607F1D2
:1055B0006C0006F0DEFE042107F16C00FFF786FCAC
:1055C00007F16C0006F06CFE07F15C0006F068FE67
:1055D00030E000BF2E1C0E00F4D60320BCD7032001
:1055E0003CDA032048DD0320B4190E0040DF03201D
:1055F000C9190E0054DF0320DA190E00EB190E0052
:10560000031A0E00161A0E002A1A0E00361A0E0081
:10561000431A0E00481A0E004F1A0E00611A0E00AF
:10562000BCDE0320A4DE0320A64808F0BFFDA54889
:1056300004F0C0FFBAF1000F2ED007F10C0107F102
:105640006C0006F096FE07F16C019E4805F07CF8B0
:10565000804607F16C0006F023FEB8F1000F0DD173
:10566000994907F16C0006F062FE07F16C00022117
:10567000FFF72CFC07F16C0006F012FE934907F1CE
:105680006C0006F054FE07F16C000421FFF71EFCCD
:1056900007F16C0006F004FE8D4907F15C0006F08E
:1056A00046FE07F10C0107F15C0006F01BFF89497B
:1056B00006F024FF214606F015FF014607F16C00B5
:1056C00006F057FE042107F16C00FFF7FFFB07F11E
:1056D0006C0006F0E5FD07F15C0006F0E1FD01233A
:1056E00022687D4907F16C0005F0B2FD642007F0E7
:1056F000E3FB07F16C0004F0C9FE002869D036F026
:105700000203E84601D1754902E0012E27D1744910
:1057100007F15C0006F00BFE07F15C01694804F03C
:10572000F1FF044607F15C0006F0BAFDBCB107F1D9
:105730000C0107F15C0006F01CFE07F15C016148FA
:1057400005F00CF9044607F15C0006F0A9FD34B938
:1057500007F16C0004F08EFEFFF716FD37E007F14D
:105760006C0004F070FE5F4B421E9A420646EFD872
:1057700005F0E6FEDFF884B1C0B004460DF1080A7A
:105780004FF0000907F16C0004F061FE18B34E45BC
:1057900021D34FF48072514607F16C0004F046FEAD
:1057A00081447860FFF774FA0021072009F08FF830
:1057B00000237A684348514608F026FD012107205E
:1057C00009F085F8642007F077FBD945DADDC54696
:1057D00071E0454963E007F16C0004F04BFE05F011
:1057E000AFFE4249041B07F12C0006F0A0FD4FF468
:1057F0007A730A22B4FBF3F407F11C00214606F089
:105800000CFE07F11C0107F12C0006F06BFE384975
:1058100006F074FEB6FBF4F10A22814607F13C0063
:1058200006F0FBFD07F13C01484606F05BFE3149FE
:1058300006F064FE0A220446002107F14C0006F03F
:10584000D9FD07F14C01204606F04CFE014607F158
:105850005C0006F08EFD042107F15C00FFF736FBCB
:1058600007F15C0006F01CFD07F14C0006F018FD86
:1058700007F13C0006F014FD07F11C0006F010FDD6
:1058800007F12C0006F00CFDFFF760FA0D48C54645
:1058900008F08CFC0B4804F08DFE88BB164907F11C
:1058A0005C0006F044FD07F15C000221FFF70EFBEF
:1058B00007F15C0086E507F10C0006F0F1FC002022
:1058C0009AE000BF48DD0320731A0E00891A0E000B
:1058D0008C1A0E00941A0E00D4E30320881E0E00CA
:1058E000991A0E00FDFF07009B1A0E00171B0E00F1
:1058F000CA230E001B1B0E00C11A0E00400D030030
:105900003F4907F14C0006F012FD294607F11C0043
:1059100006F02FFD3B4907F11C0006F0EFFD07F1F3
:105920000C0106F0DFFD014607F12C0006F021FD19
:1059300007F12C01344804F017FE0A22014607F152
:105940003C0006F044FD07F13C0107F14C0006F075
:10595000C9FD014607F15C0006F00BFD042107F1CB
:105960005C00FFF7B3FA07F15C0006F099FC07F161
:105970003C0006F095FC07F12C0006F091FC07F1C5
:105980001C0006F08DFC07F14C0006F089FC1F4955
:1059900007F14C0006F0CBFC0A22314607F13C002F
:1059A00006F03BFD07F13C0107F14C0006F09AFDC3
:1059B000014607F15C0006F0DCFC042107F15C0005
:1059C000FFF784FA07F15C0006F06AFC07F13C007F
:1059D00006F066FC07F14C0006F062FC0A4804F091
:1059E000D5FE08B90A495AE70720002108F06FFFE1
:1059F00007F10C0006F054FCFC37BD46BDE8F08F03
:105A0000DB1A0E0079180E0048DD0320F21A0E0092
:105A1000051B0E00F0B5B3B0B54929A806F087FC08
:105A2000042129A8FFF752FA29A806F039FCB14948
:105A300029A806F09EFCB04929A806F05FFD0123C5
:105A40000268AE4905A805F003FC29A806F028FC69
:105A5000012205A90EA805F077FCA94B1E780027A6
:105A600006F5FA663D460EA804F010FD044600282F
:105A700000F0A1800EA804F0CFFC014601A806F0BA
:105A800056FC08F0CBF8044601A806F070FD0A2287
:105A9000014629A806F0AEFC2999204607F0A3F894
:105AA00029A806F0FDFB0EA804F0B8FC002872D06F
:105AB00001A806F05CFD86426DD001A806F057FDF6
:105AC000731E984240F05B8165E017A804F0A6FCC5
:105AD000002837D017A9012220A805F035FC08F0CE
:105AE0009DF8044620A804F097FC0146204607F0E4
:105AF0007AF820A804F0CAFC7E49002840F04F81C3
:105B000029A806F036FC7C4929A806F0F7FC0446D3
:105B10000EA804F081FC0146204606F0EFFC764911
:105B200006F0ECFC044617A804F076FC014620467B
:105B300006F0E4FC0168714805F0EAFB29A806F0CC
:105B4000AFFB013517A804F095FC0EA929A8012286
:105B500005F0FAFB29A917A8FFF7A2F917A804F086
:105B600095FC0028B1D1634929A806F002FC6249DE
:105B700029A806F0C3FC04460EA804F04DFC01461B
:105B8000204606F0BBFC01685C4805F0C1FB29A873
:105B900006F086FB01350EA804F06CFC012205A975
:105BA00029A805F0D1FB29A90EA8FFF779F901A8CA
:105BB00006F076FB57E705A804F05CFC514917A8EE
:105BC00006F0B5FB0A22294601A806F000FC01A94F
:105BD00017A806F087FC4C4906F090FC0A220546FF
:105BE000394620A806F0F3FB20A9284606F07AFCE7
:105BF000014629A806F0BDFB042129A8FFF766F994
:105C000029A806F04DFB20A806F04AFB01A806F0E3
:105C100047FB17A806F044FB3C4929A806F087FB80
:105C2000042129A8FFF752F929A806F039FB01231E
:105C3000374A324929A805F00BFB29A905A8FFF727
:105C40002FF905A929A8012205F07EFB29A90EA894
:105C5000FFF726F90EA804F019FC054600285BD0D2
:105C60000EA804F0D9FB014617A806F060FB0A2233
:105C7000B11E29A806F0ABFB29A917A806F062FC03
:105C8000054629A806F00CFB0DB3214929A806F00A
:105C90004EFB0EA804F0C0FB014620A806F047FB0F
:105CA00020A929A806F01EFC0168144805F03EFB57
:105CB000054620A806F0F4FA29A806F0F1FA2DB955
:105CC00007F0ACFF134906F08EFF00E001340EA888
:105CD00004F0D0FB012205A929A805F035FB29A96C
:105CE0000EA8FFF7DDF817A806F0DAFAB2E700BF52
:105CF0002B1B0E00A4DE032079180E00D4E3032032
:105D0000BCDE0320301B0E00341B0E00391B0E00BE
:105D100075180E009D180E0005A804F0ABFB3E4957
:105D200017A806F004FB0A22294601A806F04FFB3B
:105D300001A917A806F0D6FB384906F0DFFB0A22B6
:105D40000546214620A806F042FB20A9284606F079
:105D5000C9FB014629A806F00CFB042129A8FFF77E
:105D6000B5F829A806F09CFA20A806F099FA01A82F
:105D700006F096FA17A806F093FA33B0F0BD0EA914
:105D8000012217A805F0E0FA07F048FF044617A81B
:105D900004F042FB0146204606F025FFDEE629A876
:105DA00006F0E7FA1E4929A806F0A8FB04460EA84B
:105DB00004F032FB0146204606F0A0FB184906F02D
:105DC0009DFB044617A804F027FB0146204606F079
:105DD00095FB134906F092FB044620A804F01CFB37
:105DE0000146204606F08AFB01680E4805F09EFA3F
:105DF000044629A806F054FA04B1013720A804F09B
:105E000039FB17A929A8012205F09EFA29A920A883
:105E1000FFF746F86DE600BF301B0E00341B0E0086
:105E200079180E00D4E3032038B5054605F088FB49
:105E3000044605F085FB001BA84202D2FEF786FF50
:105E4000F7E738BD1FB500210446072008F03FFDE5
:105E5000144807F033FA144805F07CF906F05CFCAE
:105E600006F01AFD05F026FE41F28830FFF7DCFF50
:105E70000E48FEF76FFE0E4805F02DFF41F2883008
:105E8000FFF7D2FF0B4B1B6800930222234606212B
:105E900002A8FEF7A7FE41F28830FFF7C5FF04B065
:105EA00010BD00BFB4DE0320D4E30320C0E4032010
:105EB0002CDF0320A8E2032038B5046805467CB136
:105EC0006368013B63605BB9236820469B68984721
:105ED000A368013BA3601BB923682046DB68984791
:105EE000284638BD2DE9F0430646A5B0594C236835
:105EF000DB070AD42046FEF7E1F830B1012156480D
:105F000005F046FF2046FEF7DEF84FF6FF7200214F
:105F1000514805F058FF0121132008F0D8FC4FF438
:105F2000FA6006F0C9FF4D48FEF78AFB55220021B2
:105F30004A48FEF791FD00214848FEF72CFD552800
:105F400004466DD0464911A806F0F1F90A2221460F
:105F50000DA806F02AFA0DA911A806F0C3FA014609
:105F60001AA806F006FA01211AA8FEF7AFFF1AA830
:105F700006F096F90DA806F093F911A806F090F92D
:105F8000384A39491AA8FEF7C9FD1BA8FFF794FF44
:105F900043F6982006F090FF344B1B6800930222D2
:105FA00040F2DC5306211AA8FEF71CFE4FF47A706B
:105FB00006F082FF05F0F1FFFEF7C8FE96E7422BE0
:105FC0005AD02B4911A806F0B2F99DF80B309DF874
:105FD0000A2028490DA806F0CFFA0DA911A806F04D
:105FE00081FA01461AA806F0C4F901211AA8FEF7A1
:105FF0006DFF1AA806F054F90DA806F051F911A882
:1060000006F04EF941F2883006F056FF174B1B6838
:106010000093022240F2DC5306211AA8FEF7E2FDAB
:10602000FEF794FE0122FF210C48FEF71DFB0DF147
:106030000A020A210948FEF71FFC0DF10B020B2191
:106040000648FEF719FC9DF80A30262B9DF80B3008
:10605000B7D1B4E708DD03200CDD032008DF0320FF
:106060003D1B0E00801B0E008A1B0E00A8E20320C1
:10607000911B0E00B81B0E0001219848FEF7EEFAA6
:10608000642006F019FF9548FEF7B8FB642006F07F
:1060900013FF08219148FEF783FB642006F00CFFF4
:1060A00000218E48FEF700FB642006F005FF8B48B8
:1060B000FEF7DEFC642006F0FFFE8848FEF7D4FC05
:1060C00042F2107006F0F8FE8448FEF7C9FC642026
:1060D00006F0F2FE05F034FA044605F031FA082223
:1060E00041217E48FEF75BFCB0B9FEF72FFE0A2087
:1060F00006F0E2FE05F024FA47F23053001B984206
:10610000EDD977491AA806F012F91AA80121FEF76D
:10611000DDFE1AA806F0C4F8642006F0CDFE6F4834
:10612000FEF743FC6F49044611A806F000F90A2265
:1061300021460DA806F04BF90DA911A806F0D2F9D9
:1061400001461AA806F015F904211AA8FEF7BEFEAA
:106150001AA806F0A5F80DA806F0A2F811A806F0F6
:106160009FF8614905A806F0E2F8082241215B4842
:10617000FEF715FC002800F0B38211A804F040F9E6
:1061800059495A4D09A806F0D2F8642006F094FE49
:1061900057490DA806F0CBF80DA91AA806F0E9F8A2
:1061A00054491AA806F0AAF9014609A806F0D2F83F
:1061B0001AA806F075F80DA806F072F829780A22D8
:1061C00001F5FA610DA806F002F90DA91AA806F06A
:1061D000D0F848491AA806F091F9014609A806F036
:1061E00061F91AA806F05CF80DA806F059F80A2221
:1061F00069780DA806F0D9F80DA91AA806F0B9F823
:106200003C491AA806F07AF9014609A806F04AF9AD
:106210001AA806F045F80DA806F042F8364B1B7890
:106220001BB1364909A806F041F907F0F7FC3449DB
:1062300004461AA806F07BF809A91AA806F052F934
:106240000168204606F0CFFC1AA806F029F8099943
:106250002C4805F041F8002838D023490DA806F055
:1062600066F809A91AA806F084F822491AA806F0C7
:1062700045F9314606F036F901460DA806F06AF8F0
:106280001AA806F00DF852230D9A1E491AA804F018
:10629000DFFF1AA911A8FEF703FE642006F00CFE2A
:1062A00011A804F0F3F8044670BB11A804F0E2F85A
:1062B0000A48FEF7DDFB642006F0FEFD0748FEF706
:1062C000D3FB41F2883006F0F7FDFEE109990D4855
:1062D00005F010F80028C0D10446F9E108DF0320DA
:1062E000BE1B0E00CC1B0E002E1C0E00BCDE0320BD
:1062F000C4D6032079180E0098DE0320D01B0E00B0
:10630000D51B0E00D4E30320C149C24CC24E1AA8CB
:1063100007F0CEFCC14806F06DFF10EE100A08F041
:1063200097FE0B460246BE49BE4805F01BFC1C9A70
:10633000BD49BE4805F016FC2A78A9786B78BC48A0
:10634000009102F5FA62BB4905F00CFC69792B79E2
:10635000EA78B9480091B94905F004FC2268B849C7
:1063600011A803F0E0FF00232360FEF7EFFC5622A4
:10637000B44911A803F0D7FF40F607073178A64DBE
:1063800011A803F0C5FF013FF8D11722AE49AF4E67
:1063900011A803F0C8FFAE48AE490A2210F8013F29
:1063A00053548B180232102A5F70AA4BF6DDDFF8C7
:1063B00074C2DFF8A8E2A84F15220CEB0201A7482F
:1063C00011F8151C02F80E10D1550132192AA249F4
:1063D000F3D1A34F1E224FF0000C17F801EF03F882
:1063E00002E003EB020E0232222A8EF801C0F4DD35
:1063F000DFF838E23F220EEB020717F83F7C8754A4
:106400008F540132422AF6D1964F30224FF0000CC1
:1064100017F801EF03F802E003EB020E02323E2A06
:106420008EF801C0F4DDDFF808E268220EEB020707
:1064300017F8687C87548F540132702AF6D18A4F3E
:106440004E224FF0000C17F801EF03F802E003EBC7
:10645000020E0232582A8EF801C0F4DDDFF8D8E1CE
:1064600097220EEB020717F8977C87548F5401325E
:106470009D2AF6D1642232607C4ADFF8D08112680E
:1064800002F1FF3EF4464FF0000932686F4F6E2A6A
:1064900009DC1CF8017F9F549F18023287F8019095
:1064A000C8F80020F1E7C2223A603268C72A09DC46
:1064B0001EF801CF00F802C09EF800C001F802C02B
:1064C0000132F1E76A4F80224FF0000C17F801EF1C
:1064D00003F802E003EB020E0232882A8EF801C0B4
:1064E000F4DDF0233360634B584F1A68013A336888
:1064F000F52B0ADC12F801EF00F803E092F800E057
:1065000001F803E001333B60F1E7504B00221A60D1
:1065100040F60806297811A803F0FAFE013EF9D1E9
:106520008A224C49544E11A803F0FDFE40F27D2210
:10653000524911A803F0F7FEF522484911A803F0CB
:10654000F2FE4FF490724E4911A803F0ECFEF522D2
:10655000414911A803F0E7FE62224A4911A803F05D
:10656000E2FE4FF40065317811A803F0D1FE013D41
:10657000F9D11422444911A803F0D5FE07F04EFBCF
:10658000424906F030FB4248FEF75AF8642006F014
:1065900093FC404A404903A8FEF7C0FA04A8FFF75D
:1065A0008BFC3B48FEF7B3F9642006F085FC2560C0
:1065B00014253748FEF7ECF9013D0646F9D14FF4B2
:1065C000FA7006F079FC354C124FDFF87490D92E32
:1065D00001D1FF2D64D02E48FEF7DAF93B685A1C32
:1065E000FF2A80463A6009F8030007DD144911A824
:1065F00003F099FE00233B60FEF7A8FB013C354603
:1066000001D04646E3E711A803F034FF5DE000BF88
:10661000C0E403209CDE0320A2DE0320B4DE0320BE
:10662000DA1B0E0000DF0320E01B0E00EDDE03206E
:1066300014DF0320E41B0E0040DD0320F11B0E00DD
:10664000ACE20320CD130E00B6130E003CDF032096
:10665000FFDE0320B7D8032043D90320C1D703208E
:10666000ECDE032013DF03203FDD032078DF03206F
:1066700063DF0320A4DE0320C0D7032023140E0011
:10668000A0160E00D4170E00C0170E00FE1B0E0041
:1066900008DF0320131C0E008A1B0E00C12709000F
:1066A000124B1A681AB1124911A803F03CFE1148A6
:1066B000FEF7DAF90F48FDF7B5FF11A803F0DAFE8F
:1066C0000021132008F003F901240DA805F0E8FDCE
:1066D00009A805F0E5FD05A805F0E2FD204602E069
:1066E00005A805F0DDFD25B0BDE8F0839CDE0320A4
:1066F000ACE2032008DF032038B5064DC56104462F
:106700003430FFF7D9FB204640F8185BFFF7D4FB85
:10671000204638BDC4250E0038B504680D467CB14E
:10672000E168A9420CD035B129B1284609F018FB1F
:1067300010F0FF0F04D02046FEF70FFB0446EEE7F3
:10674000204638BD08B500F11C03024603604360D3
:1067500013B100F5077100E0194691600BB102F525
:10676000077302F11800D3600021FEF7D1F910463B
:1067700008BD00001FB50023019303930C23ADF85F
:106780000430044B0293042201AB05F073F905B009
:106790005DF804FB854A0D00F8B50446C0B10B68EE
:1067A00000F10806ABB18B68556897680133E818AB
:1067B000B8420ED8506065B11A460968284609F0FB
:1067C00086FA30460521FEF7A3F925600120F8BDC1
:1067D000F8BD30460021FEF79BF90020F8BD10B54A
:1067E00002460C4670B1002900F1080003DB0821C5
:1067F000FEF78EF903E00A21FEF78AF9644214607D
:10680000012010BD10BD70B51646027A12F07F024D
:1068100004460D4605D120210830FEF779F92260A3
:106820006260237A03F0200303F0FF0073B129466E
:106830002046FFF771FF48B931462046FEF795FA2A
:1068400020B1037AC56003F07F03037270BD13B5F6
:10685000837B044683B901220DF10701406806F0ED
:106860003BFA10B19DF8073001E04FF0FF3323EA07
:10687000E37363730123A373607B02B010BD70B533
:10688000044600252046FFF7E2FF0A2803D809281E
:106890001DD2B0B12FE0202819D02F2802D00D280A
:1068A00029D114E0A5732046FFF7D1FF2A2802D092
:1068B0002F2816D01CE0A57300262046FFF7C7FF3F
:1068C00010B94FF0010070BD2F2802D10EB1A57391
:1068D000D8E7A0F12A035E425E41A573EDE70A28DE
:1068E000D0D0A5732046FFF7B2FF0028F7D1E8E724
:1068F0004FF0020070BD4FF0000070BD08B5027A85
:1069000002F0200202F0FF0312B1FFF705FF08BDFD
:10691000184608BDF0B585B0826800920025019543
:1069200093680E46516853605B1A044602910393C4
:10693000FFF78DFFA57307462046FFF788FF8742C4
:10694000A57323D010B94FF0010029E05C2818D1BD
:106950002046FFF77CFF0028F5D0752801D0114BA9
:1069600005E04FF004001BE0904204D002331A7897
:10697000002AF9D104E0587810B94FF002000FE076
:10698000A57301466846FEF71BFAD5E76846FEF791
:1069900025FA306010B94FF0030001E04FF000001D
:1069A00005B0F0BD241C0E00A0F15F031B2B13D912
:1069B000A0F14103192B0FD9A0F12B03DBB20E2B51
:1069C00004D9A0F12E0250425041704747F6E572BB
:1069D00022FA03F3DB07F4D501207047F0B585B048
:1069E00004460E46FFF733FF27282DD022282BD050
:1069F000A268009200250195516893685360204673
:106A00005B1A02910393FFF722FF0746D0B1FFF70D
:106A1000CBFFA8B139466846A573FEF7D1F92046E9
:106A2000FFF715FF0746FFF7BFFF0028F2D16846C2
:106A3000FEF7D4F9002830600CBF0320002007E0E7
:106A4000022005E0012003E031462046FFF762FF07
:106A500005B0F0BD00280FDD11490023C20741BF7A
:106A6000DAB201EB8202D2ED007A20EE270A401062
:106A700003F10103F2D170470A494042002368B193
:106A8000C20742BFDAB201EB8202D2ED007A4FEACE
:106A9000600048BF20EE270A0133F0E7704700BFCF
:106AA000A0D6032088D603202DE9F0410B782B2BAC
:106AB000044604D02D2B03D10131012601E0013120
:106AC00000260B78A3F13002092A02D92E2B40F0C0
:106AD00089804F4F00234FF00A0E084610F8015BE3
:106AE000A5F13002D2B2092A09D8BB4208D80EFB60
:106AF00003F3D543AB4203D813440146EDE71DB180
:106B00000022444F0A250EE007EE903AF8EE677A2D
:106B1000002E2360C4ED017A0CBF08230A2373E022
:106B20000246B3FBF5F3BB4202F10100F8D8521A5A
:106B300050180D4611F8017BA7F1300EBEF1090F78
:106B400040B2F5D92E2F10D1DFF8DCE00A270D4630
:106B500001312A78303AD2B2092A06D87345F6D8DC
:106B6000013807FB032340B2F1E72A7802F0DF0285
:106B7000452A34D16A782D2A02D1A91C012704E0C4
:106B80002B2A14BF691CA91C002700224FF00A0CF5
:106B90000D4611F801EBAEF1300E5FFA8EF8B8F148
:106BA000090F19D80CFB02E28518262DF0DD47B13C
:106BB0009FED197ADFED197A002E18BFF0EE477AB3
:106BC00007E09FED177ADFED177A002E08BFF0EE91
:106BD000477AC4ED017A16E017B1524200E0002274
:106BE000297821B100230022236062600CE007EEC7
:106BF000903A1044B8EEE70AFFF72CFF0EB1B1EE61
:106C0000400A84ED010A0C2323722046BDE8F0817E
:106C100099999919FFFF7F00000000800000000093
:106C20000000807F000080FFCBCC0C002DE9F043FA
:106C300095B080460D46FFF70AFE00240746A146A0
:106C40003846E6B2FFF7B0FE58B13F2C09D004AB8E
:106C500088F80E90E7544046FFF7F9FD01340746E7
:106C6000EEE714AB3344002403F8404C9DF8103099
:106C7000742B07D1062105F10800FDF749FF012318
:106C80002B600DE0662B09D105F108000621FDF708
:106C90003FFF2C60701F18BF012020E06E2B01D138
:106CA000301FF8E704A901A8FFF7FEFE9DF80C10BD
:106CB000019A0A2903D00C2907D008290DD105F122
:106CC0000800FDF725FF2A6005E005F10800029A9B
:106CD000FDF71EFF2A60204601E04FF0020015B0CC
:106CE000BDE8F08370B588B00C460646FFF7C7FDD7
:106CF00001A98DF8040004A8FEF756F8049B002BA8
:106D00003ED1059D15F001053AD13046FFF79FFDB4
:106D1000272810D103A93046FFF7FCFD02A98DF802
:106D2000080006A8FEF740F8069B63BB079810F022
:106D3000010228D12AE007D82228EBD0214630468C
:106D4000FFF774FFC0B229E05B280BD104F1080003
:106D50004021FDF7DDFE256065602146304600F0EC
:106D600056F8EFE77B28E9D104F108002021FDF770
:106D7000CFFE256065602146304600F0AEF8E1E7C1
:106D80009DF804000AE09DF8080007E004F10800FF
:106D90000521039DFDF7BCFE2560104608B070BDBF
:106DA00030B503684360C368836089B004460D460C
:106DB00018300021FDF7ACFE002304F1100104A8F7
:106DC0008DF81E308DF81C20049405950694FFF76D
:106DD00089FF01A98DF8040002A8FDF7E5FF029BD9
:106DE0008BB9039BDB070ED49DF81D305BB1237E6E
:106DF00013F0600F07D103F07F03043B012B84BF26
:106E000002238DF804309DF8040009B030BD70B540
:106E1000037B88B004460E4613B94FF005005AE0D4
:106E2000FFF715FD5B2810D10023A3732046FFF761
:106E300026FD01A98DF8040002A8FDF7B5FF029B0D
:106E4000BBB9039BDA0714D416E04FF0020042E00E
:106E5000237B013B23732046FFF744FF237B8DF800
:106E600004000133237301A904A8FDF79DFF049BCF
:106E700053B19DF804002EE02046FFF7E8FC5D28A2
:106E800020D10020A07326E0059BDB07F1D420462B
:106E9000FFF7F5FC01A98DF8040006A8FDF784FFB3
:106EA000069B002BE5D1079B13F00105E1D120469D
:106EB000FFF7CDFC5D28E4D02046FFF7C8FC2C2866
:106EC000C3D1A57321683046FDF74FFF0146002866
:106ED000BED14FF0030008B070BDF0B5037B8FB09A
:106EE00005460E4613B94FF00500A1E0FFF7AFFCD1
:106EF0007B2840F095800023AB732846FFF7BFFC4A
:106F000069468DF8000002A8FDF74EFF029B002B9A
:106F100073D1039810F001046FD12846FFF797FC56
:106F20007D2856D001A92846FFF758FD69468DF8FF
:106F3000000004A8FDF738FF049B002B5DD1059BE2
:106F4000D9075DD559E0037A63F07F030372019B93
:106F5000C36004462846FFF792FC69468DF800009E
:106F600006A8FDF721FF069B002B46D1079B13F0D7
:106F7000010742D12846FFF76AFC3A2850D12B7B03
:106F8000AF73013B2B7321462846FFF7ABFE2B7BEB
:106F90008DF8000001332B73694608A8FDF704FF44
:106FA000089B53BB099BDA0727D42846FFF767FCE9
:106FB00069468DF800000AA8FDF7F6FE0A9BE3B9C2
:106FC0000B9810F0010418D12846FFF740FC7D28EB
:106FD00002D1AC7320462BE02846FFF738FC2C2862
:106FE0001ED1AC732846FFF74AFC69468DF80000B5
:106FF0000CA8FDF7D9FE0C9BABB19DF8000017E083
:1070000001993046FFF788FB04460028A2D1296881
:107010003046FDF7AAFE002895D14FF0030007E0A7
:107020004FF0020004E00D9BDB077FF57BAFE4E748
:107030000FB0F0BD2DE9F0410B782B2B044604D0A6
:107040002D2B03D10131012601E0013100260B78FF
:10705000A3F13002092A02D92E2B40F089804F4F2C
:1070600000234FF00A0E084610F8015BA5F130022C
:10707000D2B2092A09D8BB4208D80EFB03F3D54384
:10708000AB4203D813440146EDE71DB10022444F43
:107090000A250EE007EE903AF8EE677A002E23609C
:1070A000C4ED017A0CBF08230A2373E00246B3FB48
:1070B000F5F3BB4202F10100F8D8521A50180D4600
:1070C00011F8017BA7F1300EBEF1090F40B2F5D9DE
:1070D0002E2F10D1DFF8DCE00A270D4601312A7887
:1070E000303AD2B2092A06D87345F6D8013807FBE0
:1070F000032340B2F1E72A7802F0DF02452A34D1B7
:107100006A782D2A02D1A91C012704E02B2A14BF7A
:10711000691CA91C002700224FF00A0C0D4611F82B
:1071200001EBAEF1300E5FFA8EF8B8F1090F19D805
:107130000CFB02E28518262DF0DD47B19FED197A90
:10714000DFED197A002E18BFF0EE477A07E09FEDC9
:10715000177ADFED177A002E08BFF0EE477AC4EDFC
:10716000017A16E017B1524200E00022297821B1DD
:1071700000230022236062600CE007EE903A104486
:10718000B8EEE70AFFF766FC0EB1B1EE400A84EDF7
:10719000010A0C2323722046BDE8F08199999919C0
:1071A000FFFF7F0000000080000000000000807FE3
:1071B000000080FFCBCC0C007FB590E8300010348D
:1071C0000E4620462946FFF799FB002859D0037A3E
:1071D00003F07F03082B08D00A2B52D10368B3F1C8
:1071E000004F8CBF0023012302E00368DB43DB0F69
:1071F000002B46D029462046FFF780FB002843D0CD
:10720000037A03F07F03043B082B3CD8DFE803F04C
:107210000909053B053B073B2400006814E00068B2
:107220000DE0016801A8FFF705FF9DF80C300198FB
:107230000A2B04D00C2B0CD0082B24D104E0B0F185
:10724000004F20D840421FE0B0F1004F28BF00207F
:107250001AE0DDED027A01E0D0ED007A9FED0B7AC5
:10726000F4EEC77AF1EE10FA0DDB9FED097AF4EE39
:10727000C77AF1EE10FA06D8FDEEE77A17EE900A1B
:1072800002E0306800E0002004B070BD000000CFD4
:107290000000004F00680368DB68184738B50446F3
:1072A00008460D4608F09EFD294602462046FFF797
:1072B000F1FF63681844606038BD10B5044600688B
:1072C00003689B68984763681844606010BD0000BD
:1072D00070B505460C4619B91149FFF7DFFF70BDBF
:1072E0002221FFF7EAFF013C14F8011F71B10D4B99
:1072F00013F8026C7EB1023313F8032C8A42F7D1E3
:107300005C212846FFF7D9FF314604E022212846B8
:10731000FFF7D3FF70BD2846FFF7CFFFE4E700BFBC
:107320002F1C0E00221C0E00F8B5DFED557AB4EECE
:10733000E70A0623F1EE10FA2DED028B0446B0EEBB
:10734000408A83721CDB4F4B4F4AA3F11801002582
:10735000202772ED017AF4EEC87AF1EE10FA9CBFA4
:10736000D3ED057AED19A3F104039CBF28EE278A1B
:107370002DB299424FEA6707EBD14FF0FF3602E09A
:10738000202705260025B5EEC08AF1EE10FA21DD92
:1073900018EE100A07F05CFE37A3D3E9002308F0CB
:1073A00027F9B8B1394A3A49731C13D0B300D01841
:1073B000D0ED007AF4EEC87AF1EE10FA06DD0B4457
:1073C000D3ED007AED1B28EE278A2DB2013E7F1007
:1073D00076B2E9E7FCEEC87A2E49258117EE903A9D
:1073E00017EE902AC4ED007A0A26092A07D9B1FBC4
:1073F000F6F1B2FBF6F2A07A0138A072F5E707EEDB
:10740000903AB8EE670A07EE901A38EE408AB8EE66
:10741000E70A28EE008AFCEEC87AB8EE670A17EE93
:10742000900A38EE408A38EE088ABCEEC88A18EE18
:10743000102A0244914201D962600AE0002201331D
:10744000626023602DB1092B81BF013501232581A5
:1074500023600A216368B3FBF1F201FB12333BB9ED
:1074600094F90A30002B03DD013B6260A372F1E75F
:10747000BDEC028B2046F8BDF168E388B5F8E43E28
:107480008096184B88D60320B8D6032070D60320E8
:10749000A0D6032040420F0010B5521A0446FFF751
:1074A000F9FE63681844606010BD30B587B00B46C4
:1074B0000DF116010A460A25B3FBF5F405FB14335A
:1074C000303301F8013D2346002CF5D1FFF7E4FFEE
:1074D00007B030BDF0B52DED028BB4EE400AF1EEF1
:1074E00010FA8BB00446B0EE408A04D73C492046DF
:1074F000FFF7D4FE6FE09FED3B7AF0EEC07AF4EE3A
:10750000477AF1EE10FAF1DCB5EEC00AF1EE10FAAE
:1075100004D52D21FFF7D1FEB1EE488AB0EE480A1E
:1075200001A8FFF701FF01992046FFF7BEFF9DF973
:107530000E10C9B108AD029B08462A460A27013839
:1075400040B2461C08D0B3FBF7F607FB16333033C6
:1075500005F8013D3346F2E7C9B2511A2E2301F86E
:10756000013D2046FFF798FFBDF90C30002B17DADC
:107570001D492046FFF792FEBDF90C300DF12601A2
:107580005B420A460A2593FBF5F005FB10333033C6
:1075900001F8013D03460028F5D12046FFF77CFFA6
:1075A000BDF90C30002B16DD65212046FFF785FE66
:1075B0000DF12601BDF90C300A460A2593FBF5F0C2
:1075C00005FB1033303301F8013D03B2002BF5D138
:1075D0002046FFF761FF0BB0BDEC028BF0BD00BF92
:1075E0002F1C0E00FFFF7F7F341C0E0038B5037A7E
:1075F00003F07F03062B05460C4667D008D8022B04
:107600006AD3032B54D901682046FFF761FE38BDC9
:107610000C2B15D00AD8082B53D00A2B5CD1056847
:107620002D212046FFF749FE29464BE0202B1ED096
:10763000402B51D15B212046FFF73FFE2D6812E021
:1076400090ED000A0846FFF745FF38BD2846214661
:10765000FFF7CCFF2846FDF780FB054628B12C211B
:107660002046FFF72AFE002DF0D15D211CE07B2192
:107670002046FFF722FE2D68ADB1E9682046FFF7EE
:1076800027FE3A212046FFF718FE28462146FFF73D
:10769000ADFF2846FDF761FB054620B12C212046B1
:1076A000FFF70BFEE8E77D212046FFF706FE38BD19
:1076B00090E806002046FFF7EDFD6368184460601F
:1076C00038BD01682046FFF7F0FE38BD03680BB1F6
:1076D000044902E0044900E004492046FFF7DEFDCA
:1076E00038BD00BF371C0E003C1C0E002F1C0E00C6
:1076F00030B5ADF5157D0146054604AC444803F0B0
:1077000015FE204617232A46414903F0A1FD2046D5
:1077100002F0BCFE68B906F081FA3E4905F063FA52
:107720000DA83C4A3C49FDF7F9F90EA8FEF7C4FB49
:107730006AE00DA8FFF706F80DAA384911A8FFF76F
:1077400062F80DAA3649FFF727F80DAA354911A8A6
:10775000FFF759F80DAA3449FFF71EF80DAA33496F
:1077600011A8FFF750F80DAA3149FFF715F80DAA37
:10777000304911A8FFF747F82F4B1968FFF72FF88A
:107780000DAA2E4911A8FFF73EF82D4B1968FFF7F7
:1077900026F80DAA2B4911A8FFF735F80DAA2A499A
:1077A000FEF7FAFF0DAA294911A8FFF72CF80DAA38
:1077B0002749FEF7F1FF0DAA264911A8FFF723F884
:1077C0000DAA2549FEF7E8FF0DAA244911A8FFF7E5
:1077D0001AF80DAA2249FEF7DFFF0023694611A817
:1077E00001930094FFF702FF019B53B91D496846BE
:1077F00004F09DFD68460221FDF768FB684604F031
:107800004FFD204602F036FE0DF5157D30BD00BF60
:10781000D4E30320421C0E005F1C0E00651C0E000A
:1078200078DF0320691C0E00A4DE0320751C0E0007
:1078300068DF03207E1C0E0094DE03208B1C0E00EC
:10784000B8D60320971C0E001CDF0320A41C0E00DA
:1078500040DF0320B11C0E0054DF0320BE1C0E00CD
:10786000C4DE0320C61C0E0038B5044608460D468B
:1078700008F0B8FA294602462046FDF7C0FA6368C8
:107880001844606038BD10B50446006804F01DFE61
:1078900063680133636010BD70B505460C4619B9C5
:1078A0001149FFF7E1FF70BD2221FFF7ECFF013C1A
:1078B00014F8011F71B10D4B13F8026C7EB1023345
:1078C00013F8032C8A42F7D15C212846FFF7DBFF2F
:1078D000314604E022212846FFF7D5FF70BD284637
:1078E000FFF7D1FFE4E700BF2F1C0E00221C0E00A3
:1078F00010B5521A0446FDF782FA636818446060B6
:1079000010BD30B587B00B460DF116010A460A25A9
:10791000B3FBF5F405FB1433303301F8013D234686
:10792000002CF5D1FFF7E4FF07B030BDF0B52DED29
:10793000028BB4EE400AF1EE10FA8BB00446B0EEC2
:10794000408A04D73C492046FFF78EFF6FE09FED49
:107950003B7AF0EEC07AF4EE477AF1EE10FAF1DC01
:10796000B5EEC00AF1EE10FA04D52D21FFF78BFF1A
:10797000B1EE488AB0EE480A01A8FFF7D5FC01999C
:107980002046FFF7BEFF9DF90E10C9B108AD029B5E
:1079900008462A460A27013840B2461C08D0B3FBE5
:1079A000F7F607FB1633303305F8013D3346F2E7AF
:1079B000C9B2511A2E2301F8013D2046FFF798FF66
:1079C000BDF90C30002B17DA1D492046FFF74CFF9C
:1079D000BDF90C300DF126015B420A460A2593FBE6
:1079E000F5F005FB1033303301F8013D0346002864
:1079F000F5D12046FFF77CFFBDF90C30002B16DDDA
:107A000065212046FFF73FFF0DF12601BDF90C303F
:107A10000A460A2593FBF5F005FB1033303301F8D5
:107A2000013D03B2002BF5D12046FFF761FF0BB0FB
:107A3000BDEC028BF0BD00BF2F1C0E00FFFF7F7F4F
:107A4000341C0E0038B5037A03F07F03062B05467D
:107A50000C4667D008D8022B6AD3032B54D901688F
:107A60002046FFF719FF38BD0C2B15D00AD8082B7C
:107A700053D00A2B5CD105682D212046FFF703FF68
:107A800029464BE0202B1ED0402B51D15B212046B4
:107A9000FFF7F9FE2D6812E090ED000A0846FFF7A7
:107AA00045FF38BD28462146FFF7CCFF2846FDF7A5
:107AB00054F9054628B12C212046FFF7E4FE002D9D
:107AC000F0D15D211CE07B212046FFF7DCFE2D6814
:107AD000ADB1E9682046FFF7DFFE3A212046FFF707
:107AE000D2FE28462146FFF7ADFF2846FDF735F9BF
:107AF000054620B12C212046FFF7C5FEE8E77D2191
:107B00002046FFF7C0FE38BD90E806002046FDF78E
:107B100076F963681844606038BD01682046FFF755
:107B2000F0FE38BD03680BB1044902E0044900E0EF
:107B300004492046FFF798FE38BD00BF371C0E00F1
:107B40003C1C0E002F1C0E00F0B591E850001034C4
:107B500087B00546314620461746FEF7CFFE88B36C
:107B6000037A03F07F03043B012B2BD820463146D8
:107B7000FEF7C4FE044658B1037A03F07F03043BCA
:107B8000012B05D8016819B1284604F0D0FB1DE08F
:107B900002AE1049304604F0CAFB00230096019360
:107BA00024B169462046FFF74DFF03E00A496846C5
:107BB000FFF75AFE3146284604F062FB304604F0D7
:107BC0006FFB03E03946284604F0D3FB284607B094
:107BD000F0BD00BF2E1C0E002F1C0E002DE9F04F33
:107BE000ADF51B7D0C460246012379490AA803F036
:107BF0002FFB0AA802F04AFC13AD04F1080604F1B9
:107C00001C0704F1380804F16A0904F17E0A04F142
:107C1000920B002800F09B802846FEF793FD4FF062
:107C20000A020AA92846FFF7BBF801A98DF804004B
:107C300004A8FDF7B9F8049B002B40F0BB80059B1E
:107C4000DB0700F1B780634B634A039302A906A8E0
:107C50000295FFF779FF08220699204608F0ADF853
:107C600006A804F01DFB5D4B5D4A039302A906A81C
:107C70000295FFF769FF14220699304608F09DF837
:107C800006A804F00DFB574B574A039302A906A818
:107C90000295FFF759FF14220699384608F08DF82F
:107CA00006A804F0FDFA514B5149079306A8069522
:107CB000FFF782FA4F4B20634F49079306A80695BA
:107CC000FFF77AFA4D4B60634D4A039302A906A869
:107CD0000295FFF739FF32220699404608F06DF809
:107CE00006A804F0DDFA474B474A039302A906A809
:107CF0000295FFF729FF14220699484608F05DF81F
:107D000006A804F0CDFA414B414A039302A906A804
:107D10000295FFF719FF14220699504608F04DF816
:107D200006A804F0BDFA3B4B3B4A039302A906A800
:107D30000295FFF709FF32220699584608F03DF8F0
:107D400006A804F0ADFA0AA802F094FB0CE005F0D6
:107D500065FF324904F047FF2846304A3049FCF7B6
:107D6000DDFE14A8FEF7A8F821461B4804F00CFB22
:107D700031461B4804F008FB39461B4804F004FB5D
:107D80001B4B226B1A601C4B626B1D481A604146EC
:107D900004F0FAFA49461C4804F0F6FA51461C4829
:107DA00004F0F2FA59461C4804F0EEFA0DF51B7D7A
:107DB000BDE8F08F05F032FF1A4904F014FF06A861
:107DC000184A1749FCF7AAFE07A8FEF775F8BAE7A4
:107DD000D4E30320651C0E0078DF0320691C0E002D
:107DE000A4DE0320751C0E0068DF03207E1C0E003D
:107DF00094DE03208B1C0E00B8D60320971C0E00C7
:107E00001CDF0320A41C0E0040DF0320B11C0E0069
:107E100054DF0320BE1C0E00C4DE0320DE1C0E0057
:107E20000E1D0E00151D0E0030B58FB0844904469E
:107E300005A804F07CFA042105A8FDF747F805A879
:107E400004F02EFA7F4905A804F093FA7E4B7F4A8E
:107E50001B6812887E4805A902F06AFB054605A842
:107E600004F01EFA0DB97B490DE07B4905A804F02A
:107E700080FA05A9764802F0BDFB054605A804F086
:107E80000FFA5DB9754905A804F051FA05A8022159
:107E9000FDF71CF805A804F003FACEE0704905A828
:107EA00004F067FA05A96A4802F0C6FB054605A872
:107EB00004F0F6F90DB96B49E5E7214605A804F091
:107EC00058FA05A9624802F0D9FB054605A804F056
:107ED000E7F9002D44D1644905A804F028FA0321EC
:107EE00005A8FCF7F3FF05A804F0DAF9214605A878
:107EF00004F03FFA05A9564802F0E2FB054605A842
:107F000004F0CEF9B5B9594901A804F010FA214698
:107F100001A804F0E7FA014605A804F02AFA0221B4
:107F200005A8FCF7D3FF05A804F0BAF901A804F0EE
:107F3000B7F982E04E4901A804F0F9F9214601A8F9
:107F400004F0D0FA014605A804F013FA032105A8AD
:107F5000FCF7BCFF05A804F0A3F901A804F0A0F900
:107F6000444901A804F0E3F9434901A804F0BAFA2E
:107F7000424904F0C3FA014605A804F0FAF905A93C
:107F8000334802F00DFD044605A804F089F901A864
:107F900004F086F90CB93A4975E73A493A4803F0D2
:107FA000C5F920B905F03AFE384904F01CFE05A8D1
:107FB0001723344A344903F04BF905A802F066FA56
:107FC00080B1234806F0F3F8B8B1214806F0DAFA98
:107FD0000028F6D01E4806F07EF9C1B205A802F0CE
:107FE00097F9F2E72A4901A804F0A1F901A80221B2
:107FF000FCF76CFF01A804F053F905A802F03AFA67
:108000000A2004F059FF124802F0D4FA104802F096
:10801000BDFB0A2004F050FF1E4901A804F087F9B7
:1080200004210DEB0100FCF751FF01A804F038F921
:1080300014481949FFF7D2FD00E000200FB030BD11
:10804000401D0E001CDF0320BCD703203CDA0320B8
:1080500048DD0320431D0E0040DF0320601D0E009D
:1080600054DF03206D1D0E00EB190E00031A0E00E5
:10807000161A0E007A1D0E0078DF03208E1D0E00EA
:108080009A1D0E00AC1D0E00D4E30320B71D0E0098
:10809000D51D0E00F11D0E00BCD603202DE9F04FBA
:1080A000A74FC9B03E46A748FCF74EFD03F0FAFCC7
:1080B000A5493C6806A804F03AF9FCF747FE04A875
:1080C000A249FCF7A5FD04A803F0BAFF80B1A049BE
:1080D0003EA804F02CF904213EA8FCF7F7FE3EA8C8
:1080E00004F0DEF84FF47A7004F0E6FE03F055FF7A
:1080F00004A803F0ACFF002800F03A810025072215
:1081000011461046346800952B4604F009FF8D484F
:108110002B462A462946406803F05CFC8D493EA860
:1081200004F005F93EA80421FCF7D0FE3EA804F0B7
:10813000B7F88448FCF714FD0546002849D1013CF6
:108140004FF47A7004F0B8FE8C2CF2DC012004F0BD
:1081500007FF0121072006F0A9FB642004F0ACFE14
:108160007D49B3E035684FF496735D4307220023E1
:1081700010460093114604F0D3FEFCF7E7FD64209F
:1081800004F09AFEFCF784FDB4F5FA6F05F1FF35B3
:1081900023DD42F20F739C4240F3C680012004F0BD
:1081A000DFFE0121072006F081FB03F07BFC346831
:1081B00003F088FC054600286DD04FF0FF3167487A
:1081C00005F0B5F90722002300931146104604F08C
:1081D000A7FE35684FF496735D43002D40F3A480ED
:1081E000062006F08DFB002853D10446062006F039
:1081F00087FB20B96420643404F05EFEF6E7514941
:108200003EA805F055FD56492BA804F090F80A2227
:10821000409922A804F0DBF822A92BA804F062F907
:10822000504904F06BF9014634A804F0A2F8042187
:1082300034A8FCF74BFE34A804F032F822A804F06E
:108240002FF82BA804F02CF8012004F089FE01215E
:10825000072006F02BFB642004F02EFE00256FF0B3
:108260000909409B93FBF9F39D423FF67BAF002148
:10827000072006F02CFB4FF4FA7004F01DFE0121DC
:10828000072006F024FB4FF4FA7004F015FE0135C8
:10829000E7E700246AE70146072006F018FBFA200A
:1082A00004F00AFE0121072006F011FBFA2004F079
:1082B00003FE8C2C34DC012004F052FE0121072047
:1082C00006F0F4FA642004F0F7FD27493EA804F014
:1082D0002EF804213EA8FCF7F9FD3EA803F0E0FFCC
:1082E0000121072006F0F3FA41F2883004F0E4FDA2
:1082F0002946072006F0EBFA4FF47A7004F0DCFD13
:108300001A4B1B680093022240F2DC5306213EA860
:10831000FCF768FC4FF47A7004F0CEFD00F000BD6D
:10832000013CFCF7B5FC43E7012004F019FE0A20EC
:1083300004F0C2FD4FF41670FDF784FDEAE700BFBC
:10834000BCD70320C0E403202E1C0E0040E4032011
:10835000F71D0E00FA1D0E00071E0E00F0E60320AA
:10836000191E0E00281E0E002B1E0E00A8E2032070
:108370009E493EA803F0DBFF04213EA8FCF7A6FDC2
:108380003EA803F08DFF03F0DBF89948FCF7E8FB0B
:10839000B0B94FF47A70013C04F08EFDFCF7D6FCC6
:1083A000002CF2DC934B944901223EA81A7003F092
:1083B000BEFF3EA80321FCF789FD3EA803F070FF35
:1083C000346803F0BDF8814603F07CFBC0B94FF47C
:1083D0007A70013C04F070FDFCF7B8FCAA2CF3DCC9
:1083E000864B01221A7003F065FB85493EA803F015
:1083F0009EFF3EA80321FCF769FD3EA803F050FF55
:10840000346803F09DF87F49054634A803F08FFFD8
:10841000C9EB05050A224FF47A712BA8B5FBF1F1DF
:1084200003F0FBFF2BA934A804F05CF801463EA83A
:1084300003F09FFF04213EA8FCF748FD3EA803F08F
:108440002FFF2BA803F02CFF34A803F029FF6E4860
:10845000DFF8A09104F0E4FE06210AA803F0F1FF82
:10846000694804F0C7FE06210EA803F0EAFF604940
:1084700034A805F01DFC65491EA803F058FF0AA9A1
:108480001EA804F02FF8624904F038F80EA904F091
:1084900029F8604904F032F80A220546369922A8E4
:1084A00003F095FF22A9284604F01CF85A4904F06D
:1084B00025F8054634A804F0BDFD06212BA803F0DD
:1084C000C0FF2BA9284604F00DF8544904F016F813
:1084D00001463EA803F04DFF04213EA8FCF7F6FC40
:1084E0003EA803F0DDFE2BA803F0DAFE22A803F07D
:1084F000D7FE1EA803F0D4FE34A804F09BFDF3EED3
:10850000097AB4EEE70AF1EE10FA44BF012389F8C4
:10851000003099F80030002B40F09A80374B1D78DE
:10852000EDB13F492BA803F002FF3E492BA803F011
:10853000D9FF3D4903F0E2FF01463EA803F019FFD1
:108540003EA8FFF771FC3EA803F0AAFE2BA803F09B
:10855000A7FE364B36491868FFF7CAF878E0354B66
:1085600035491B788DF800302A463C233EA805F09B
:10857000DBF83FA8FDF7A0FC304B31491B788DF8A4
:1085800000302A463C233EA805F0CEF83FA8FDF770
:1085900093FC0A9A2B493EA8FCF7C0FA3FA8FDF7C6
:1085A0008BFC0A2236993EA803F011FF3E9A264919
:1085B0002BA8FCF7B3FA2CA8FDF77EFC3EA803F02D
:1085C0006FFE03F07FFA10B1284603F093FAFCF730
:1085D00092FA002840F0AF83A92C00F3A6831B4930
:1085E0003EA803F0A4FE0221DFE300BF461E0E00FA
:1085F000C0E4032098DE03204A1E0E00ECDE0320B8
:10860000561E0E00171B0E00B4DE0320621E0E0065
:10861000681E0E006D1E0E00741E0E00E9180E007E
:108620007A1D0E0078DF032079180E00F0DE03209B
:10863000BCD60320A1DE03203B190E0004DF03207B
:1086400026190E007C1E0E00851E0E008A1E0E00CE
:10865000B74C3EA802F099FBBDF8FC303E98A380D1
:10866000206005F0DBFA21780A22054601F5FA615F
:108670003EA803F0ACFE3E99284604F0A1FA3EA8BD
:1086800003F00EFE05F0CAFA2F2104F09DFA05F062
:10869000C5FA0A22054661783EA803F086FE3E9997
:1086A000284604F08DFA3EA803F0FAFD05F0B6FA6C
:1086B0002F2104F089FA05F0B1FA0A220546A178C3
:1086C0003EA803F072FE3E99284604F079FA3EA8CF
:1086D00003F0E6FD05F0A2FA202104F075FA05F09A
:1086E0009DFA0A220546E1783EA803F05EFE3E9917
:1086F000284604F065FA3EA803F0D2FD05F08EFA94
:108700003A2104F061FA05F089FA0A220546217936
:108710003EA803F04AFE3E99284604F051FA3EA8CE
:1087200003F0BEFD05F07AFA3A2104F04DFA05F0A7
:1087300075FA0A22054661793EA803F036FE3E9995
:10874000284604F03DFA3EA803F0AAFD05F066FABB
:1087500004F03DFAA378012B254603D1E3780F2BD3
:1087600000F03A836179E378A27801912179009150
:108770003EA8704903F0F6F93EA906A803F004FEEE
:1087800006A92BA803F0F5FD2BA8FDF7ABFB0446CB
:108790002BA803F085FDF4B9674922A803F0C7FDB3
:1087A00006A922A803F09EFE01462BA803F0E1FDD6
:1087B00001212BA8FCF78AFB2BA803F071FD22A84E
:1087C00003F06EFD41F2883004F076FB4FF49670B2
:1087D000FDF738FB9EE2594804F00CFDDFED587AB6
:1087E000584B20EE270AD3ED007AF8EEE77AB4EE84
:1087F000E70AF1EE10FA33D5534922A803F097FDAA
:108800004E4804F0F7FC06211EA803F01AFE1EA92C
:1088100022A803F067FE4D4903F070FE01462BA825
:1088200003F0A7FD01212BA8FCF750FB2BA803F0B8
:1088300037FD1EA803F034FD22A803F031FD00210E
:10884000132006F044F84FF47A7004F035FB4FF42F
:108850006160FDF7F7FA4FF47A7004F02DFB59E2EE
:1088600099F80040002C40F0A18106A922A803F04D
:1088700080FD37492BA803F07CFD234621462BAA17
:1088800022A8FCF729FD04462BA803F009FD22A825
:1088900003F006FD002C63D12E492BA803F047FD01
:1088A0002BA80221FCF712FB2BA803F0F9FC2A48A5
:1088B000FCF756F920B94FF47A7004F0FDFAF6E7A8
:1088C000254F002606A922A803F053FD20492BA816
:1088D00003F04FFD00232BAA012122A8FCF7FCFC8A
:1088E00018B9B6FA86F4640900E000242BA803F056
:1088F000D7FC22A803F0D4FC002C3CD017492BA8AD
:1089000003F015FD02212BA8FCF7E0FA2BA803F0D9
:10891000C7FCFCF71BFA013600221146786803F009
:1089200061F80028CED04FF4FA7004F0C5FAF3E7EE
:10893000BCDE0320A21E0E00B71E0E00B4DE032014
:108940000000C842B8D60320D61E0E00FA1E0E0044
:10895000C4DE0320FD1E0E00C0E40320081F0E002D
:10896000AC492BA803F0E3FC2BA80421FCF7AEFADA
:108970002BA803F095FC6978A74C013901EB810124
:10898000214412A803F0D3FC12A91AA803F0F1FCA9
:108990002978A24D0A2201F5FA6116A803F017FD05
:1089A00016A91AA803F09EFD9D4903F0A7FD0146F4
:1089B00022A803F0DEFC9B491EA803F0B8FC9A49EC
:1089C0001EA803F08FFD01462BA803F0D2FC012363
:1089D0002BAA194622A8FCF77FFC06462BA803F019
:1089E0005FFC1EA803F05CFC22A803F059FC16A84B
:1089F00003F056FC1AA803F053FC12A803F050FC35
:108A00002746002E6FD189492BA803F090FC022144
:108A10002BA8FCF75BFA2BA803F042FC41F288304C
:108A200004F04AFA8248FCF79BF80028FAD00024A8
:108A30006978013901EB8101394412A803F077FC10
:108A400012A91AA803F095FC29780A2201F5FA6107
:108A500016A803F0BCFC16A91AA803F043FD704940
:108A600003F04CFD014622A803F083FC6D491EA8CB
:108A700003F05DFC6C491EA803F034FD01462BA8F1
:108A800003F077FC01232BAA194622A8FCF724FC4B
:108A900018B9B4FA84F6760900E000262BA803F092
:108AA000FFFB1EA803F0FCFB22A803F0F9FB16A8AD
:108AB00003F0F6FB1AA803F0F3FB12A803F0F0FB97
:108AC000EEB15C492BA803F032FC02212BA8FCF785
:108AD000FDF92BA803F0E4FB01345548FCF740F8FE
:108AE0000028FAD0A4E754492BA803F020FC042165
:108AF0002BA8FCF7EBF92BA803F0D2FB00246A7833
:108B00002B7800924D4A4E49126803F5FA633EA84D
:108B100003F028F805F082F84A4905462BA803F02F
:108B200006FC3EA922A803F002FC22A92BA803F010
:108B3000D9FC0168284604F056F822A803F0B0FBDF
:108B40002BA803F0ADFB3EA93F4802F0C5FB00B3E4
:108B500005F064F83D4904F046F83EAA01233A497D
:108B60002BA802F075FB2BA93948FCF799F90122D3
:108B7000374922A802F0E8FB22A801F087FC002870
:108B800000F02D8122A801F049FC002840F0278147
:108B900032E105F043F82F4904F025F82BA82E4ABE
:108BA0002E49FBF7BBFF2CA8FDF786F92BA81B4D20
:108BB00002F0EBF82B98BDF8B03028602848AB8065
:108BC00002F0B5F9274B1868012815D0022858D0B3
:108BD000002871D1EC78AB786A782978062C07D90F
:108BE0000A2C40F260810E2C40F26181013342E098
:108BF0000290019007205DE1E878C31F0A2B33D86B
:108C000000240130AB786A78297802940194C0B2CC
:108C100050E100BF191F0E0080D70320BCDE0320E7
:108C20001E1F0E007A1D0E0078DF0320231F0E008A
:108C3000C0E403202E1F0E003F1F0E00A4DE032001
:108C4000441F0E00531F0E00D4E30320611F0E00CB
:108C50001CDD0320741F0E008F1F0E008A1B0E00E8
:108C6000A0DE032094DE0320122825D8AB786A7892
:108C70002978013300200290019007200090DBB298
:108C800019E10024AB786A78297802940194E87895
:108C9000009001F5FA612BA801F02AFF234601227A
:108CA000214600941EA801F0D1FF22A81EAA2BA9DC
:108CB00001F0BFFF22A804E10024864922A803F0A6
:108CC00036FB0A2221461EA803F081FB1EA922A81A
:108CD00003F008FC01462BA803F04BFB04212BA852
:108CE000FCF7F4F82BA803F0DBFA1EA803F0D8FA7F
:108CF00022A803F0D5FA2046FDF7A4F80EA803F049
:108D0000CFFA0AA803F0CCFA06A803F0C9FA49B0D2
:108D1000BDE8F08F0EA803F0C3FA0AA803F0C0FA6A
:108D200006A803F0BDFAFFF7BEB94FF4FA7004F0DD
:108D3000C3F8013C4BE4A92C7FF751AC04F050F888
:108D400000283FF44CAC04F0A3F8824604F098F8F5
:108D5000834604F08BF8804604F06AF8044604F079
:108D600071F8054604F078F8EDB2C0B2E4B25FFAEB
:108D700088F35FFA8BF21FFA8AF102900195009452
:108D80003EA801F0B5FE3EA801F093FFFBF7B3FE4D
:108D9000514A52493EA8FBF7C1FE3FA8FDF78CF8A7
:108DA0004F493EA803F0C3FA04213EA8FCF78EF811
:108DB0003EA803F075FA34684A494B4803F0B0FB0B
:108DC00000283FF4AEAB002C7FF7ABAB4FF47A70CA
:108DD00004F072F8013CEFE7FCF71CFEC2E44348E4
:108DE00001F048FB04F01AFF414903F0FCFE3EA9E4
:108DF000404802F08DFAD1E622A801F00DFB0146B1
:108E000006A803F0C1FA04F009FF3B4905462BA868
:108E100003F08DFA06A92BA803F064FB016828462D
:108E200003F0E1FE2BA803F03BFA22A801F022FB9D
:108E300006A91EA803F09DFA30492BA803F099FA61
:108E400002232BAA00211EA8FCF746FA18B9B4FA8F
:108E500084F56D0900E000252BA803F021FA1EA877
:108E600003F01EFA35B101342548FBF779FE0028DE
:108E7000FAD0DDE73EA92BA803F059FA06A92BA8E2
:108E800003F030FB01681B4802F050FA2BA803F0F6
:108E900007FA2BA80122154902F056FA2BA922A89D
:108EA000FBF7FEFF68E6029001900B2002E00290C3
:108EB00001900F20009001F5FA612BA801F018FE37
:108EC0002BA801F0A3FE0446284601F09FFE241AB9
:108ED000F3E600BFE1200E00981F0E000E1D0E00ED
:108EE000A51F0E009C1E0E00A4DE03201CDD032027
:108EF000AB1F0E00D4E30320C01F0E00C4DE03200E
:108F0000C0E4032010B588488EB0FBF71DFE8748EB
:108F100004F0F2F9854804F005F9854802F0C4FE32
:108F2000FBF714FF834A8449844804F0E9FA844932
:108F30008448FDF71FFC002483498448FDF71AFC90
:108F400023462246824901940094824802F0CAFDD9
:108F5000012322467E49019400947F4802F0C2FD1D
:108F60004FF0FF317D4804F0E2FA4FF496717B48F0
:108F700004F0DDFAB9EE040A03F016FF0121132014
:108F800005F094FC0121072005F090FC2146082003
:108F900005F08CFC0121072005F088FC2146062005
:108FA00005F084FC05F038FD6D4904F0C1FF05F0C3
:108FB00033FD04F0C1FFFBF73BFF5C4804F01AF9F6
:108FC000DFED687A684B20EE270AD3ED007AF8EEE1
:108FD000E77AB4EEE70AF1EE10FA2ED5634906A857
:108FE00003F0A5F9514804F005F9062102A803F0A1
:108FF00028FA02A906A803F075FA5D4903F07EFA83
:1090000001460AA803F0B5F901210AA8FBF75EFFA3
:109010000AA803F045F902A803F042F906A803F0F4
:109020003FF92146132005F052FC4FF47A7003F00B
:1090300043FF4FF46160FCF705FF4E4906A803F0BB
:1090400076F9002211460AA80A9202F0A1FA0A2231
:109050000A9902A803F0BBF902A906A803F042FA94
:1090600001460AA803F085F904210AA8FBF72EFFA0
:109070000AA803F015F902A803F012F906A803F0F4
:109080000FF901F0F5FD04F0C9FD4FF4E13104F0F2
:10909000B9FD394801F04BFF384906A803F047F9FC
:1090A000374902A803F043F902A906A803F01AFA07
:1090B00001460AA803F05DF904210AA8FBF706FFA0
:1090C0000AA803F0EDF802A803F0EAF806A803F0F6
:1090D000E7F8294801F0CEFDC8B92A490AA803F0EB
:1090E00026F902210AA8FBF7F1FE0AA803F0D8F836
:1090F000254A26490AA801F00FFD0AA801F0D9FD6A
:1091000041F2883003F0D8FE02F047FF05E01A482C
:1091100001F009FF184801F00AFF1D4B1D491868AE
:10912000FEF75CFD0EB010BDC0E40320B4DE0320EA
:109130002CDF0320D61F0E00E55E0D00D5D40D00F8
:10914000A4DE0320DF1F0E0068DF0320EC1F0E00EB
:10915000C9500D003B190E0026190E00F0E6032041
:10916000A08601000000C842B8D60320D61E0E001B
:10917000FA1E0E00F51F0E00A0DE032002200E00D6
:1091800008200E000E200E0022200E002B200E00C4
:10919000F0DE0320BCD6032010B52421044605F0E0
:1091A00095FC204610BD00005E4B70B500241C608D
:1091B0005D4B5E4D1C705E4B01261E7002F030F957
:1091C0004FF6FF736B812C60AC80AC712C81304604
:1091D00002F0B2FB574A5849284605F069FC21467F
:1091E000304602F0B9FB21465448554D03F0C2FF0A
:1091F000504A5449514805F05BFC4FF40073524A01
:1092000052495348FBF74CFD4A4A5249504805F031
:109210004FFC2146504801F01DFC5049504803F0D6
:1092200086F8444A4F494E4805F042FC4E494F48A3
:1092300003F07DF83F4A4B494C4805F039FC4C4956
:109240004C4803F074F83B4A46494A4805F030FC64
:1092500049494A4803F06BF8364A4249474805F005
:1092600027FC4749474803F062F8324A3D494548E0
:1092700005F01EFC28194449103403F058F8B4F5E1
:10928000487FF7D12B4A4149414C002005F010FCA2
:109290004049414803F04BF8264A32493E4805F020
:1092A00007FC3E493E4803F042F8224A2D493C481B
:1092B00005F0FEFB3B493C4803F039F81D4A2949BB
:1092C000394805F0F5FB052211463848FBF77AF9D5
:1092D0000021374802F07DFC164A3649344805F033
:1092E000E7FB4FF4A6720021204606F0FBFC204667
:1092F00005F0E4F904F11C0005F0E0F90A230D4A39
:109300002D49C4F84831204605F0D2FB2B4801F026
:1093100077F8084A2A49294805F0CAFBBDE8704099
:10932000FBF781BDA8E2032004DF032030DF032028
:10933000A1DE0320F8DA0320394B0D00B4DE032050
:1093400088DF032093D10D00A1500D00905F010034
:10935000D4DE0320A34B0D00BCDE032037200E001B
:109360001CDF0320A1C20D0047200E0040DF0320B8
:109370004B200E0054DF032054200E00C4DE0320D7
:10938000AC1D0E00F0DE03202E1C0E00A94A0D00BD
:1093900048DD032060200E00A4DE032066200E00BE
:1093A00078DF03206C200E0068DF032008DF032035
:1093B0002CDF0320F1BB0D00F9660D001CDD03203E
:1093C000A74A0D00704710B52821044605F07EFB22
:1093D000204610BD10B500F10C0204460121406A80
:1093E000FAF78AFF60B1236A2BB9E3682362237A14
:1093F00063F07F032372237A43F02003237201205A
:1094000010BD70B50546FFF7E5FF08B9002070BD37
:109410006A6AEB68167C1479023B03FA06F6536914
:1094200033445E1E3CB13019FAF7ACFE0028EDD093
:10943000013CE4B2F6E76B6A1A7C4FF40073934088
:10944000EA691344EB61012070BD000010B50446C9
:109450004069FAF773FE18B1207E024B03EB40100F
:1094600010BD00BF04DB0320002270B50138134695
:109470002E2410F8015F202D08D0082A02BFCC54FA
:109480005D1CEBB25D1C0678CE54EBB201320B2AA8
:10949000EFD10022CA5470BD2DE9FF410D464B1E8D
:1094A00001F10A02202103F8011F9342FBD1461E5D
:1094B00000224FF0070E16F8013F83B32E2B06D182
:1094C000BEF10A0F30D008224FF00A0EF3E7184C15
:1094D000EC4604F1100820686168674603C7083449
:1094E0004445BC46F7D10DF1FF3010F8011F11B112
:1094F0008B42FAD118E0964516D3A3F121015D29DC
:1095000012D8A3F16100192802F1010198BF203B94
:109510002A44C9B298BFDBB213700A46CBE7287859
:10952000203818BF012000E0002004B0BDE8F08121
:1095300072200E0038B5427A04460D460AB100206A
:1095400038BD91F82030102B06D1022343720262FD
:109550004B8C5B01C3610CE0202BF0D103234372E1
:10956000496A016200F11C022846FAF75BFE0028F6
:10957000E5D00023012065622072E360236163610E
:10958000237638BD2DE9F74F437A044689461746BE
:1095900013B94FF0FF306DE0037ADA07F9D5C369EC
:1095A00002699B1A9F4200D99FB2DFF8D4A0DFF86E
:1095B000D4B0B846B8F1000F35D0637A2269606A3A
:1095C000022BC2F308064FEA522302D1406A184424
:1095D00018E00579013D1D40EDB25EB955B912B9EB
:1095E000236AE36006E004F10C02E168FAF7E8FDA3
:1095F0000028CED0636AE0681A7C5B69023890402C
:1096000018442844C6F50075237AA845CCBFADB2EE
:1096100045465B0602D4B5F5007F1AD1DAF8003072
:10962000984202D115E038B224E00146CDF800900E
:109630002B463246DBF8000000F054FD0028A8D08D
:109640002369C5EB08082B44A94423611FFA88F855
:10965000B0E70021FAF772FD00289AD0074B1E44AC
:10966000711909F1FF338E42EAD016F8012B03F885
:10967000012FF8E703B0BDE8F08F00BF04DB032043
:109680006CD6032000DB032038B5437A012B054656
:109690000C4616D90369DA0613D120222146284642
:1096A000FFF770FF40B2202809D1237863B1E52B82
:1096B000F3D02E2BF1D0E37A1B07EED438BDC017C0
:1096C00038BD4FF0FF3038BD184638BD37B5437A46
:1096D000012B044601D800200FE0036901220DF19F
:1096E0000701C3F34315FFF74DFF0128F3D12369A9
:1096F00003481F33236100EB451003B030BD00BFAA
:1097000004DB0320F8B5437A04460E460BB900206B
:10971000F8BDC2698A42FAD3022B01D01EB9E660B5
:1097200026610120F8BD636A20691B7C421E03F19B
:109730000901731ECA40CB409A4200D828B9226A58
:10974000E2601D4604F10C0709E09B1AF9E73A466E
:10975000E168606AFAF734FD013D0028D7D0002D9A
:10976000F5D1DDE770B5437A04460E4643B390F970
:109770000830002B1ADA0121FFF768FE0546F8B120
:10978000637A012B9CBFE369C361238C4383638CA1
:1097900083820C4B1B682BB100F1160118309847DF
:1097A0002B8B6B82237A03F07F0323721EB9237AFB
:1097B00023F0100323723046BDE87040FAF79CBCDA
:1097C000002070BDB0E3032010B501210446FFF76F
:1097D000C9FF10B100236372012010BDF7B5437AB1
:1097E000012B04460D460BD1027A920708D5C269B7
:1097F0008A4205D3002A40D02669FFF783FF08B9C3
:1098000000203BE03DB9216A606AFAF7CFFD0028ED
:10981000F6D025621EE001AAE168606AFAF7D0FC82
:109820000028EDD0606A164B90F8207001994FF631
:10983000F872102F08BF134699420BD2FAF7B6FD03
:109840000028DDD06FF07042E168606AFAF712FD1F
:109850000028D5D0237AE56163F07F0323720121CC
:109860002046FFF77FFF0028CAD0B5422946204690
:1098700028BF3146FFF746FF00E0184603B0F0BDB1
:10988000F8FFFF0F38B51D4B03EB41131546DA7A8D
:1098900012F0110F044604D015F0420F01D0002041
:1098A00038BD174A217612686261998A09042162DB
:1098B0005A8B11432162DA7A12F0180203D1DB6964
:1098C000E361012309E0102AE9D104F11C02606A76
:1098D000FAF7A8FC0028E2D00423637205F00F0316
:1098E000002123726B06E160216104D52046BDE8AA
:1098F0003840FFF773BF012038BD00BF04DB0320F1
:109900006CD603202DE9F043447A85B0064688469C
:109910001F46002C78D101A91046FFF7BDFD002895
:1099200072D0D8F82430DFF8FC907362C8F80C408D
:10993000C8F81040D8F81050D8F81C309D4221D2F9
:109940004046FFF7C3FEC5F34315014600285BD030
:10995000037873B1E52B59D00B2201A806F0A8F9C2
:109960000028E7D107F03003302B4DD03A46294686
:1099700046E034B9D9F80030357673610B78002BA6
:1099800046D1012407F01203122B3DD134B101213D
:109990003046FFF75BFD044650B935E098F80930D2
:1099A000022B31D04046FFF72CFD68B334761B4CB8
:1099B00020220021204606F095F901AB03CB206060
:1099C00061601A889B78A372154B22811B682BB1AA
:1099D00004F10E0104F11000984706E021222274E0
:1099E000A373282208236274E373238A6382238388
:1099F000E389E3820120FAF77FFB28B1317E3A4602
:109A00003046FFF73FFF05E0002003E0002CB1D017
:109A100001248FE705B0BDE8F08300BF04DB03201D
:109A2000B0E303206CD603202DE9F043332389B043
:109A300007468846FFF766FF002869D00124042303
:109A40003C727B723846FFF7DCFC002860D0214670
:109A50003846FFF787FE00285AD021463846FFF7E0
:109A6000F5FC0346002853D01022C2726D46024610
:109A700000F1200E6C46106851682E4603C608326D
:109A800072453546F7D19D8A5E8B20210023E2186E
:109A900001330A2B5170FAD17B6A386A1A7C5B69F0
:109AA000023890404FF02E09012118448DF80090A3
:109AB000FAF744FB60B3ADF81450ADF81A602646CF
:109AC0000FCE154D8DF801900FC596E80F0085E873
:109AD0000F0098F80930114D023B012B8BBFD8F8CD
