:02000002D0002C
:1040000000400D0064300E00000006000D000501A8
:084010000401E80500000000B6
:04401800D4090E00B9
:1040200009480A49884208B505D0094A824202D0A7
:10403000121A0BF08CFF0748074A0021121A0BF0E6
:1040400091FF014808BD00BF78D60320BC2B0E00AD
:10405000F8DA0320F8DA0320F0E7032070B509F05E
:1040600005FB074C074BE41AA40800251E46A54291
:1040700004D056F8253098470135F8E770BD00BFE9
:10408000B02B0E00582B0E0004F074BE08B503F0E0
:1040900001FFBDE8084009F0ABBA07F08BBE07F09E
:1040A00091BE07F08FBE000008B5034A00210C2026
:1040B00007F072FDFEE700BFC1B70D000078B0FA4F
:1040C00080F04009704701230370704710B5036802
:1040D0002F2B044604D9074A00210A2007F05CFD73
:1040E00023681F2B83BF03F01F03236002484FF098
:1040F000A04010BDC1B70D000003005007B502ABD2
:1041000043F8040D1846FFF7E1FF019A012393409D
:10411000C0F8083503B05DF804FB07B502AB43F8FF
:10412000040D1846FFF7D2FF019A01239340C0F80F
:104130000C3503B05DF804FB7FB5024608461379E1
:10414000956833B13DB90C4904B0BDE8704008F042
:1041500077BE0A4B00E00A4B167B0A4C0A49527B99
:104160000292012E08BF214601910095074A0021C5
:1041700008F0A3FE04B070BD590D0E00E61E0E003F
:10418000480D0E00510D0E00550D0E006F0D0E0066
:104190000368C9B29B68184738B504460D4690B20B
:1041A00001210AF0C3FC134B1B6893F8500093F8ED
:1041B000513003F01F0343EA4010FFF79FFF657281
:1041C000102D12D8DFE805F0110B110D0D0F0F099E
:1041D00011110B0D090F110D0D00902306E0BA23EC
:1041E00004E0782302E0602300E04223A37220462B
:1041F00038BD00BF08DB0320054B1B6893F8500057
:1042000093F8513003F01F0343EA4010FFF776BFE5
:1042100008DB0320054B1B6893F8500093F85130DE
:1042200003F01F0343EA4010FFF777BF08DB0320CA
:1042300009B90172704701230372704770B50646D1
:1042400014460D460AF028FDB17A490809F0EFFF3F
:104250000AF022FDE9B2FFF79BFF0AF01DFDE1B273
:10426000FFF796FF0AF018FD09F0E8FF20B90120DA
:1042700008F062FF012070BD002070BD10B5002263
:104280000446042955D8DFE801F05403172B3F00FA
:10429000FF21FFF7D3FF4022C7212046FFF7CEFFC3
:1042A0005E22CC212046FFF7C9FF4122CD212046C6
:1042B000FFF7C4FF54223AE0FF21FFF7BFFF40227F
:1042C000C7212046FFF7BAFF6522CC212046FFF721
:1042D000B5FF4122CD212046FFF7B0FF4F2226E057
:1042E000FF21FFF7ABFF4022C7212046FFF7A6FFC3
:1042F0005222CC212046FFF7A1FF4122CD212046AA
:10430000FFF79CFF662212E0FF21FFF797FF402294
:10431000C7212046FFF792FF4222CC212046FFF71B
:104320008DFF3F22CD212046FFF788FF7122CE214D
:1043300004E0FF21FFF782FF0022C7212046BDE8ED
:104340001040FFF77BBF10B50446072900F2A98093
:10435000DFE801F0041E334D67727D880022FF21E3
:10436000FFF76CFF00227C212046FFF767FF182231
:104370007D212046FFF762FF05227C212046FFF7C2
:104380005DFF40227D212046FFF758FFA62282E0F4
:104390000022FF21FFF752FF00227C212046FFF779
:1043A0004DFF18227D212046FFF748FF05227C2182
:1043B0002046FFF743FFA02213E00022FF21FFF772
:1043C0003DFF00227C212046FFF738FF18227D2187
:1043D0002046FFF733FF05227C212046FFF72EFF02
:1043E00040227D212046FFF729FF402253E0002292
:1043F000FF21FFF723FF00227C212046FFF71EFF4D
:1044000018227D212046FFF719FF05227C21204636
:10441000FFF714FF40227D212046FFF70FFFC02247
:1044200039E00022FF21FFF709FF00227C2120460E
:10443000FFF704FF18221FE00022FF21FFF7FEFE16
:1044400000227C212046FFF7F9FE402214E00022E2
:10445000FF21FFF7F3FE00227C212046FFF7EEFE4E
:10446000582209E00022FF21FFF7E8FE00227C210C
:104470002046FFF7E3FE00227D212046FFF7DEFE07
:1044800005227C212046FFF7D9FE80227D2120468F
:10449000FFF7D4FE802220467D21BDE81040FFF7C3
:1044A000CDBE10BDF8B5002407460D462646FF2EAA
:1044B00005F1040501D1FF2C09D035F8046C35F85D
:1044C000024C314622463846FFF7B8FEEFE701209E
:1044D000F8BD0000082916D8DFE801F00507150926
:1044E0000B0D0F11130009490EE009490CE00949B1
:1044F0000AE0094908E0094906E0094904E00949D8
:1045000002E0094900E00949FFF7CCBF940A0E0018
:104510005A140E00F4090E007C0C0E00340B0E0031
:10452000FA140E00D80B0E00B6130E0096150E00EE
:1045300038B5437A052B04462CD10122FF21FFF721
:104540007DFE802212212046FFF778FE642008F0CD
:10455000F3FD257A012D17D10F492046FFF7A2FF61
:104560000E492046FFF79EFF0D492046FFF79AFFB0
:104570002A46FF212046FFF761FE15210022204632
:10458000FFF75CFE074900E007492046BDE83840D8
:10459000FFF788BF38BD00BFB20D0E00200D0E0022
:1045A0008E0D0E0096150E00AE100E0070B504466E
:1045B00015460E460AF070FBA17A490809F037FE4D
:1045C0000AF06AFB3146FFF7E3FD0AF065FB09F0EC
:1045D00035FE0AF061FBA17A0122D14009F020FEEC
:1045E0000AF05AFB03681B69984728B10AF054FB8C
:1045F00003685B6998472870012008F09DFD012041
:1046000070BD000010B5084C2368DB070AD42046B3
:10461000FFF754FD30B10121044807F0F9FC2046B2
:10462000FFF751FD014810BDFCDA032000DB032039
:1046300010B50446FFF7E6FF2146BDE8104007F03D
:104640009FBD3C20FFF7F4BF7FB51B4B00931B4B76
:104650000293002401231A4D8DF80C300E468DF87C
:1046600004408DF80D40FFF7CDFF694607F018FDB7
:104670002B6893F8500093F8513003F01F0343EA7E
:104680004010FFF74AFDF0B2FFF7D2FF2046FFF7D8
:10469000CFFF2B68044693F8500093F8513003F095
:1046A0001F0343EA4010FFF729FDFFF7ABFF07F0B8
:1046B000DEFC204604B070BDF0090E0000127A0046
:1046C00008DB03203D21FFF7BFBF01F07F01FFF7AB
:1046D000BBBF10B51446FFF7F8FF204010BD70B502
:1046E00042210546FFF7B0FF432104462846FFF765
:1046F000ABFF442106462846FFF7A6FF44EA0624FE
:1047000000F07F0044EA004070BD0000F0B585B0C5
:104710001B4B0093164600231A4A1B4D029201249C
:104720000F468DF804308DF80D308DF80C40FFF7F2
:1047300069FF694607F0B4FC2B6893F8500093F8C2
:10474000513003F01F0343EA4010FFF7E6FCF8B2D4
:10475000FFF76EFFF0B2FFF76BFF2B6893F8500086
:1047600093F8513003F01F0343EA4010FFF7C6FCF3
:10477000FFF748FF07F07BFC204605B0F0BD00BF07
:10478000F0090E0000127A0008DB032041F08001DE
:10479000FFF7BCBF02228421FFF7B8BF01228421AA
:1047A000FFF7B4BFFFF7FABF08B506F081FF014B72
:1047B000186008BD08DB0320704703681847012A0A
:1047C00002D0022A02D004E0016002E00B6800B1CE
:1047D000036000207047704738B5064D002404F58B
:1047E00044702844103C07F09BFE14F5487FF6D136
:1047F00038BD00BF7CDD032010B50123037483683E
:1048000004460BB1C06806E0006828B183680BB9A4
:104810000AF0AFFAC3689847012363740020BDE82B
:10482000104007F079B808B5002007F0ABFA28B1BE
:1048300007F088FA80F00100C0B208BD012008BD71
:10484000037823F07F0319430170704713B5054BBC
:104850001B788DF800303C23044609F0A5F820466B
:1048600002B010BDF8DC032010B50446006808B1A2
:1048700007F0A8FA204610BD00231A4619464068E2
:1048800007F010BA00231A461946406807F012BA1A
:1048900000221146406807F0FDB910B58368044650
:1048A00013B1032201469847204610BD38B504468F
:1048B00070B1056835B12846FFF7EFFF1021284693
:1048C0000AF044FA20461421BDE838400AF03EBA06
:1048D00038BD10B543690446BBB1586806F0E4FF23
:1048E00078B963695A7C12B9586806F0E5FF6369C4
:1048F000586806F0E9FF60690023636128B1FFF79B
:10490000D5FF606908B1FFF7D1FF201DFFF7C5FF94
:10491000204610BD10B586B00446ADF8161006A9A5
:1049200001F8032D089A02920122019300920B468E
:104930000DF1160107F08CFC204606B010BD0000FA
:1049400073B51E4B1D7806460C46B5B902A8012268
:104950001A7040F8045D2A46294606F061FF019B63
:104960001E2B0AD103232068A3710823A58025816B
:10497000638110B107F026FA2560B4F904300BB951
:1049800022689AB1216859B18A88012A03D0042A81
:1049900006D1022205E089896181A271238105E0A7
:1049A000042223814FF6FF73A271638154F8063FFE
:1049B0003360A388B380304602B070BD0CDB0320A7
:1049C00008B506F005FF014B186008BDECE60320B2
:1049D00030B587B01D4600230446049322B1214B15
:1049E0000593214B029204930023E360049B216012
:1049F0003BB1022202A9201D9847059B2361049B1D
:104A0000E3601A4914200AF0A5F930B100230374B9
:104A1000036043608360C36043746061A0B1144B62
:104A2000836063691349DC606069134B8DE8210082
:104A30000922043006F030FF30B963691B7C4BB9A2
:104A4000012006F0B5FEF8E760690023636108B154
:104A5000FFF72CFFFFF7B4FF02A8FFF71EFF204669
:104A600007B030BDBB470D00BF470D0058290E00F1
:104A700021EC0D00B61A0E00F9470D0008B5FFF73E
:104A80009FFFBDE8084007F045B9B0F90A3013B1FF
:104A900000EB031070471846704710B54B688A68E2
:104AA00010339A4201D2002010BDA2F110038B6096
:104AB000002BF8D0416819B15C1A24114C8100E038
:104AC00003600021436022F8061C02F8081C42F82B
:104AD000041C184610BD00000B780BB9036002E0FF
:104AE000024B036000234360704700BFB9470D00CD
:104AF000826810B54AB14368C468A34202D3002358
:104B0000836010BD5C1C4460D15410BD10B50446D8
:104B10000021FFF7EDFFA3683BB194E80600E368CE
:104B20004868D31A03444B60E260A06810BD70B5BA
:104B3000064600680C4681681144154607F00EFDD4
:104B40002544AC4205D014F8011B306807F0FDFD88
:104B5000F7E7002070BD0121042006F051BE0000DF
:104B60001FB50E21184805F05FFA044650BB09F046
:104B700095F9164908F077F90121072009F0E7FFB8
:104B800041F2883008F0D8FA2146072009F0DFFF0B
:104B900043F6982008F0D0FA642008F0CDFA0C4BC8
:104BA0001B68009302224FF49673062102A8FFF7B8
:104BB000B1FE4FF47A7008F0BFFA04B0BDE81040BF
:104BC00007F02BBB04B010BDA4E10320BD1A0E00FA
:104BD0009CE003204B6843608B688360CB68C360B4
:104BE00030B500F1100301F10F0200F11D0412F8BD
:104BF000015F03F8015B9C42F9D10B6A036230BD8F
:104C000070B50546A4B00C4609F048F9296808F0CB
:104C10002AF9624906A807F0CAFC04A805F041F881
:104C200006A912A807F0E5FC9DF811305C49013B8C
:104C300001EB83010EA807F0BAFC0EA912A807F039
:104C400091FD9DF810100A22064601F5FA611BA895
:104C500007F0FDFC1BA9304607F084FD514907F021
:104C60008DFD01460AA807F0C4FC1BA807F058FCFC
:104C70000EA807F055FC12A807F052FC12A804F089
:104C80004BFB0123069A48491BA805F06DFA1BA9A6
:104C900012A8FFF79FFF12A804F084FBA0B112A88E
:104CA00004F048FB60B909F0F9F8404908F0DBF876
:104CB00012A804F06BFB06993B4805F0C3FA08E024
:104CC00012A804F063FB0EE009F0E8F8384908F098
:104CD000CAF80699344805F099FA20B909F0DEF8C7
:104CE000344908F0C0F817230A9A2F491BA805F089
:104CF0003BFA1BA912A8FFF76DFF12A804F052FBA4
:104D000090B909F0CBF82C4904461BA807F04FFCDA
:104D10000AA91BA807F026FD0168204608F0A3F8A1
:104D20001BA807F0FDFB31E0611E03290DD8DFE869
:104D300001F002040608214904E0214902E021496A
:104D400000E0214912A808F07BF89DF815100391A6
:104D50009DF814109DF8102002919DF813100191F8
:104D60009DF812109DF81130009102F5FA62174972
:104D70001BA807F037F81BA912A808F061F82968EA
:104D800012A808F070F812A804F000FB0AA807F0B7
:104D9000C7FB06A807F0C4FB24B070BDF51A0E00CF
:104DA00088D70320FB1A0E00A4E10320001B0E008D
:104DB000241B0E00141B0E00301B0E004A1B0E009D
:104DC000531B0E005E1B0E006B1B0E00751B0E00AE
:104DD0001FB50849684607F0EAFB01216846FFF75E
:104DE0000FFF684607F09CFB07F017FA05B05DF867
:104DF00004FB00BF901B0E0070B590B005460C463A
:104E000004A8274907F0D3FB2946684607F0CFFBE3
:104E1000694604A807F0A6FC224907F0AFFC21462A
:104E2000064608A807F0C3FB08A9304607F09AFC1D
:104E300001460CA807F0DDFB04210CA8FFF7E0FEFB
:104E40000CA807F06DFB08A807F06AFB684607F09E
:104E500067FB04A807F064FB29460CA807F0A7FB32
:104E600011490CA807F09CFC06460CA807F058FB5B
:104E70001EB121460D4807F0C7FB29460CA807F0D4
:104E800096FB0B490CA807F08BFC05460CA807F015
:104E900047FB1DB12146074807F0B6FB10B070BDB7
:104EA000A11B0E00F01C0E00A61B0E006CDD0320E3
:104EB000BB1B0E005CDD032070B5474B1A68002A4F
:104EC000A4B01D4640F38580444902A807F06FFB5B
:104ED00012A804F021FA684604F0E3FE40490AA84B
:104EE00007F065FB02A90AA807F03CFC9DF8013019
:104EF0003C49013B01EB830104460EA807F057FB38
:104F00000EA9204607F02EFC9DF800100A22044648
:104F100001F5FA611BA807F09AFB1BA9204607F0D0
:104F200021FC314907F02AFC014606A807F061FB85
:104F30001BA807F0F5FA0EA807F0F2FA0AA807F086
:104F4000EFFA0299294805F053F970B908F0A6FF65
:104F5000274907F088FF0299244805F057F920B93E
:104F600008F09CFF234907F07EFF1723069A1F498C
:104F70001BA805F0F9F81BA912A8FFF72BFE12A831
:104F800004F010FA50B908F089FF1B4907F06BFFD5
:104F900008F084FF069907F066FF14E00E4C174EE8
:104FA0002B68002B0CDDD6F8201312A807F05BFF4E
:104FB0001349144807F028FB2368013B2360EFE7FF
:104FC00012A804F0E3F906A807F0AAFA02A807F06D
:104FD000A7FA24B070BD00BF44DD0320F51A0E000F
:104FE000F91A0E0088D70320FB1A0E00A4E1032053
:104FF000CE1B0E00051C0E001C1C0E007CDD0320C9
:10500000E61E0E009CE003202DE9F04FC1B002AF78
:1050100004468A4607F10C00BA4915461E4607F0B9
:10502000C6FAB94907F1C40007F0C1FAB74BB84A4C
:105030001B681288B74807F1C40104F005FA8046DE
:1050400007F1C40007F06CFAB8F1000F20D1B249A3
:1050500007F1900007F0ABFAAB4907F16C0007F0DD
:10506000A6FA07F16C0107F1900007F07BFB0146FF
:1050700007F1C40007F0BDFA022107F1C400FFF7F1
:10508000BFFD07F1C40007F04BFA07F16C007CE0AC
:10509000A24907F1C40007F0ACFA07F1C4019D482A
:1050A00004F034FA804607F1C40007F039FAB8F189
:1050B000000F01D19A4912E09A4907F1C40007F0A4
:1050C00098FA07F1C401934804F042FA804607F1C8
:1050D000C40007F025FAB8F1000F0ED1924907F18C
:1050E000C40007F064FA07F1C4000221FFF788FD4D
:1050F00007F1C40007F014FA77E2294607F1C4006B
:1051000007F077FA07F1C401824804F043FA8046B9
:1051100007F1C40007F004FAB8F1000F58D1834931
:1051200007F1C40007F043FA032107F1C400FFF7B9
:1051300067FD07F1C40007F0F3F9294607F1C40041
:1051400007F057FA07F1C401724804F045FA8046A7
:1051500007F1C40007F0E4F9B8F1000F1CD174495D
:1051600007F1900007F023FA294607F1900007F0B5
:10517000F9FA014607F1C40007F03BFA07F1C40051
:105180000221FFF73DFD07F1C40007F0C9F907F15F
:10519000900007F0C5F928E2664907F1900007F092
:1051A00006FA294607F1900007F0DCFA014607F1FC
:1051B000C40007F01EFA032107F1C400FFF720FD29
:1051C00007F1C40007F0ACF907F1900007F0A8F967
:1051D00036BBDFF87C81226898F80030019298F89D
:1051E0000120DFF87091009203F5FA63D9F80020EE
:1051F000514907F1900006F0F5FD07F1900107F124
:105200000C0007F001FA226898F80030019298F833
:105210000120009203F5FA63D9F80020474936E0EF
:10522000012E0CD12368464A464907F1C40006F016
:10523000D9FD214607F10C0007F0CCF92BE0022E36
:105240002ED1DFF80C81226898F80030019298F88E
:105250000120DFF80091009203F5FA63D9F80020ED
:10526000354907F1900006F0BDFD07F1900107F107
:105270000C0007F0C9F9226898F80030019298F8FC
:1052800001200092D9F800202F4903F5FA6307F1B5
:10529000C40006F0A7FD07F1C401204607F0B4F9E9
:1052A00007F10C0107F16C0007F0A3F907F16C019D
:1052B000184804F0BDFA804607F16C0007F030F999
:1052C000B8F1000F48D1214907F15C0007F06FF9F0
:1052D00007F10C0107F15C0007F044FA014607F101
:1052E0006C0007F086F9042107F16C00FFF788FCD9
:1052F00007F16C0007F014F907F15C0007F010F9F2
:1053000030E000BFE61E0E00FCD60320B8D7032015
:1053100038DA03203CDB0320341C0E0034DD03208C
:10532000491C0E0048DD03205A1C0E006B1C0E00A9
:10533000831C0E00961C0E00AA1C0E00B61C0E004C
:10534000C31C0E00C81C0E00CF1C0E00E11C0E007A
:10535000B0DC032098DC0320A74809F067F8A648D2
:1053600004F0B4F8BAF1000F2ED007F10C0107F1E8
:105370006C0007F03EF907F16C019F4804F070F9EA
:10538000804607F16C0007F0CBF8B8F1000F0DD1A3
:105390009A4907F16C0007F00AF907F16C00032144
:1053A000FFF72EFC07F16C0007F0BAF8944907F1FB
:1053B0006C0007F0FCF807F16C000421FFF720FCFB
:1053C00007F16C0007F0ACF88E4907F15C0007F0BC
:1053D000EEF807F10C0107F15C0007F0C3F98A4908
:1053E00007F0CCF9214607F0BDF9014607F16C0042
:1053F00007F0FFF8042107F16C00FFF701FC07F14B
:105400006C0007F08DF807F15C0007F089F80123C4
:1054100022687E4907F16C0004F0A6FE642007F0C4
:105420008BFE07F16C0003F0BDFF00286BD036F057
:105430000203E84601D1764902E0012E27D17549E1
:1054400007F15C0007F0B3F807F15C016A4804F06B
:10545000E5F8044607F15C0007F062F8BCB107F11B
:105460000C0107F15C0007F0C4F807F15C01624829
:1054700004F000FA044607F15C0007F051F834B973
:1054800007F16C0003F082FFFFF716FD39E007F12A
:105490006C0003F064FF604B421E9A420646EFD850
:1054A00006F096F9C0B0044606F044FCDFF880B17F
:1054B0000DF1080A4FF0000907F16C0003F053FFEB
:1054C00018B34E4521D34FF48072514607F16C005A
:1054D00003F038FF81447860FFF772FA002107205B
:1054E00009F035FB00237A684348514608F0CCFFA9
:1054F0000121072009F02BFBC82007F01DFED9452C
:10550000DADDC54671E0454963E007F16C0003F060
:105510003DFF06F05DF94249041B07F12C0007F03E
:1055200046F84FF47A730A22B4FBF3F407F11C0037
:10553000214607F0B2F807F11C0107F12C0007F033
:1055400011F9384907F01AF9B6FBF4F10A2281463D
:1055500007F13C0007F0A1F807F13C01484607F0CD
:1055600001F9314907F00AF90A220446002107F13E
:105570004C0007F07FF807F14C01204607F0F2F8E5
:10558000014607F15C0007F034F8042107F15C00E4
:10559000FFF736FB07F15C0006F0C2FF07F14C0095
:1055A00006F0BEFF07F13C0006F0BAFF07F11C0051
:1055B00006F0B6FF07F12C0006F0B2FFFFF75EFA27
:1055C0000D48C54608F032FF0B4803F07FFF88BB4B
:1055D000164907F15C0006F0EAFF07F15C000221C2
:1055E000FFF70EFB07F15C0084E507F10C0006F005
:1055F00097FF00209CE000BF3CDB0320F31C0E0063
:10560000091D0E000C1D0E00141D0E00A4E1032048
:105610005E210E00191D0E00FDFF07001B1D0E0070
:10562000971D0E00ED200E009B1D0E00411D0E006B
:10563000400D0300404907F14C0006F0B8FF294631
:1056400007F11C0006F0D5FF3C4907F11C0007F0EC
:1056500095F807F10C0107F085F8014607F12C00D9
:1056600006F0C7FF07F12C01354803F009FF0A22B5
:10567000014607F13C0006F0EAFF07F13C0107F1A3
:105680004C0007F06FF8014607F15C0006F0B1FF2F
:10569000042107F15C00FFF7B3FA07F15C0006F0A4
:1056A0003FFF07F13C0006F03BFF07F12C0006F03E
:1056B00037FF07F11C0006F033FF07F14C0006F03E
:1056C0002FFF204907F14C0006F071FF0A223146F6
:1056D00007F13C0006F0E1FF07F13C0107F14C0047
:1056E00007F040F8014607F15C0006F082FF042154
:1056F00007F15C00FFF784FA07F15C0006F010FF89
:1057000007F13C0006F00CFF07F14C0006F008FF23
:105710000B4803F0C7FF08B90B495AE707200021DF
:1057200009F015FA06F0FEFA07F10C0006F0F8FE93
:10573000FC37BD46BDE8F08F5B1D0E00F91A0E0068
:105740003CDB0320721D0E00851D0E0038B505469A
:1057500006F03EF8044606F03BF8001BA84202D2D1
:10576000FFF78CF9F7E738BD1FB500210446072085
:1057700009F0EDF9144807F0E1FE144804F076FC56
:1057800007F00AF907F0C8F906F0D4FA41F28830B8
:10579000FFF7DCFF0E48FFF775F80E4806F0DBFB5D
:1057A00041F28830FFF7D2FF0B4B1B6800930222B7
:1057B0002346062102A8FFF7ADF84FF47A70FFF7F1
:1057C000C5FF04B010BD00BFA8DC0320A4E1032086
:1057D000C0E4032020DD03209CE0032038B50468EA
:1057E00005467CB16368013B63605BB92368204672
:1057F0009B689847A368013BA3601BB923682046B8
:10580000DB689847284638BD2DE9F041B2B06B4AB5
:105810006B4929A8FFF71AF82AA8FFF7DFFF6949A3
:1058200029A806F0C4FE042129A8FFF7E9F929A850
:1058300006F076FE644929A806F0DBFE634929A834
:1058400006F09CFF01230268614905A804F08CFC66
:1058500029A806F065FE012205A90EA804F000FDA6
:105860005C4B1F78002607F5FA6735460EA803F053
:1058700099FD0446002800F0AF800EA803F058FD03
:10588000014601A806F093FE08F008FB044601A8B3
:1058900006F0ADFF0A22014629A806F0EBFE299981
:1058A000204607F0E0FA29A806F03AFE0EA803F019
:1058B00041FD002872D001A806F099FF87426DD003
:1058C00001A806F094FF7B1E984240F0558165E0E8
:1058D00017A803F02FFD002837D017A9012220A810
:1058E00004F0BEFC08F0DAFA044620A803F020FD1C
:1058F0000146204607F0B7FA20A803F053FD3249CD
:10590000002840F0498129A806F073FE2F4929A8F4
:1059100006F034FF04460EA803F00AFD01462046B7
:1059200006F02CFF294906F029FF044617A803F0CA
:10593000FFFC0146204606F021FF0168244804F0E0
:1059400073FC29A806F0ECFD013517A803F01EFD35
:105950000EA929A8012204F083FC29A917A8FFF7A2
:1059600039F917A803F01EFD0028B1D1164929A85E
:1059700006F03FFE154929A806F000FF04460EA8D0
:1059800003F0D6FC0146204606F0F8FE01681048F8
:1059900004F04AFC29A806F0C3FD01350EA803F067
:1059A000F5FC012205A929A804F05AFC29A90EA892
:1059B000FFF710F901A806F0B3FD57E7AB1D0E0085
:1059C000C81D0E00CF1D0E0098DC0320F91A0E0032
:1059D000A4E10320B0DC032005A803F0D7FC8C4928
:1059E00020A806F0E4FD0A22294617A806F02FFE9B
:1059F00017A920A806F0B6FE864906F0BFFE0A22C7
:105A00008046314629A806F022FE29A9404606F024
:105A1000A9FE8149026801A8FEF718FF02A8FFF756
:105A2000DDFE29A806F07CFD17A806F079FD20A868
:105A300006F076FD764917A806F0B9FD0A22294638
:105A400001A806F004FE01A917A806F08BFE714913
:105A500006F094FE0A220546314620A806F0F7FD1E
:105A600020A9284606F07EFE014629A806F0C1FDC1
:105A7000042129A8FFF7C4F829A806F051FD20A8A1
:105A800006F04EFD01A806F04BFD17A806F048FDF4
:105A9000624A614929A8FEF7D9FE2AA8FFF79EFEAF
:105AA0005F4929A806F083FD042129A8FFF7A8F87B
:105AB00029A806F035FD01235A4A5B4929A804F0BC
:105AC00053FB29A905A8FFF785F805A929A80122F4
:105AD00004F0C6FB29A90EA8FFF77CF80EA803F076
:105AE00061FC0546002800F0A5800EA803F020FC0C
:105AF000014617A806F05BFD0A22B91E29A806F088
:105B0000A6FD29A917A806F05DFE054629A806F0FE
:105B100007FD0DB3434929A806F049FD0EA803F07F
:105B200007FC014620A806F042FD20A929A806F09E
:105B300019FE01683C4804F085FB054620A806F0E4
:105B4000EFFC29A806F0ECFC2DB908F0A7F93749BD
:105B500007F089F900E001340EA803F017FC0122D8
:105B600005A929A804F07CFB29A90EA8FFF732F8A3
:105B700017A806F0D5FCB1E70EA9012217A804F07A
:105B80006FFB08F08BF9044617A803F0D1FB014620
:105B9000204607F068F9E4E629A806F02AFD244922
:105BA00029A806F0EBFD04460EA803F0C1FB014650
:105BB000204606F0E3FD1E4906F0E0FD044617A866
:105BC00003F0B6FB0146204606F0D8FD184906F062
:105BD000D5FD044620A803F0ABFB0146204606F0A5
:105BE000CDFD0168104804F02DFB044629A806F0FD
:105BF00097FC04B1013620A803F0C8FB17A929A817
:105C0000012204F02DFB29A920A8FEF7E3FF73E68B
:105C1000D41D0E00D81D0E00C81D0E00DD1D0E0087
:105C2000F81D0E00F51A0E00A4E103201D1B0E0046
:105C3000F91A0E0005A803F0A9FB2E4920A806F0CA
:105C4000B6FC0A22294617A806F001FD17A920A8CC
:105C500006F088FD284906F091FD0A2206462146F5
:105C600029A806F0F4FC29A9304606F07BFD23495B
:105C7000026801A8FEF7EAFD02A8FFF7AFFD29A818
:105C800006F04EFC17A806F04BFC20A806F048FCD6
:105C9000184917A806F08BFC0A22294601A806F02D
:105CA000D6FC01A917A806F05DFD134906F066FDB4
:105CB0000A220546214620A806F0C9FC20A928464C
:105CC00006F050FD014629A806F093FC042129A8FE
:105CD000FEF796FF29A806F023FC20A806F020FC7A
:105CE00001A806F01DFC17A806F01AFC012032B02E
:105CF000BDE8F081D41D0E00D81D0E00C81D0E0099
:105D00002DE9F0430646A5B0594C2368DB070AD4B9
:105D10002046FEF7D3F930B10121564806F078F954
:105D20002046FEF7D0F94FF6FF720021514806F0E9
:105D30008AF90121132008F00AFF642007F0FCF91A
:105D40004D48FEF767FA552200214B48FEF71EFD2D
:105D500000214948FEF7B9FC552804466DD0474953
:105D600011A806F024FC0A2221460DA806F05DFCCD
:105D70000DA911A806F0F6FC01461AA806F039FC98
:105D800001211AA8FEF73CFF1AA806F0C9FB0DA8CE
:105D900006F0C6FB11A806F0C3FB394A39491AA818
:105DA000FEF754FD1BA8FFF719FD43F6982007F0F6
:105DB000C3F9354B1B680093022240F2DC530621E5
:105DC0001AA8FEF7A7FD4FF47A7007F0B5F906F0B0
:105DD00024FAFEF753FE97E7422B5BD02B4911A81C
:105DE00006F0E5FB9DF80B309DF80A2028490DA828
:105DF00006F002FD0DA911A806F0B4FC01461AA890
:105E000006F0F7FB01211AA8FEF7FAFE1AA806F021
:105E100087FB0DA806F084FB11A806F081FB41F278
:105E2000883007F089F9184B1B680093022240F272
:105E3000DC5306211AA8FEF76DFDFEF71FFE0122B6
:105E4000FF210D48FEF7FAF90DF10A020A210A486E
:105E5000FEF7ACFB0DF10B020B210748FEF7A6FB8A
:105E60009DF80A30262B9DF80B30B7D1B4E700BF60
:105E7000FCDA032000DB0320FCDC0320FC1D0E0009
:105E80003F1E0E00C81D0E009CE00320491E0E00A0
:105E9000701E0E0001219C48FEF7CAF90A2007F087
:105EA0004BF99948FEF744FB0A2007F045F9072112
:105EB0009548FEF70FFB0A2007F03EF907219248AC
:105EC000FEF741FA0A2007F037F900218E48FEF765
:105ED000D5F90A2007F030F98B48FEF763FC0A2059
:105EE00007F02AF98848FEF759FC41F2883007F09C
:105EF00023F98548FEF74EFC0A2007F01DF905F04E
:105F000067FC044605F064FC082241217E48FEF748
:105F1000E0FBB0B9FEF7B2FD0A2007F00DF905F07D
:105F200057FC47F23053001B9842EDD977491AA825
:105F300006F03DFB1AA80121FEF762FE1AA806F042
:105F4000EFFA0A2007F0F8F86F48FEF7C8FB70492F
:105F5000044611A806F02BFB0A2221460DA806F0E4
:105F600076FB0DA911A806F0FDFB01461AA806F064
:105F700040FB04211AA8FEF743FE1AA806F0D0FA47
:105F80000DA806F0CDFA11A806F0CAFA614905A8D5
:105F900006F00DFB082241215B48FEF79AFB002822
:105FA00000F0AA8211A803F0B7F95A495A4D09A87E
:105FB00006F0FDFA0A2007F0BFF858490DA806F0D0
:105FC000F6FA0DA91AA806F014FB55491AA806F00E
:105FD000D5FB014609A806F0FDFA1AA806F0A0FABA
:105FE0000DA806F09DFA29780A2201F5FA610DA89C
:105FF00006F02DFB0DA91AA806F0FBFA48491AA8CD
:1060000006F0BCFB014609A806F08CFB1AA806F0B6
:1060100087FA0DA806F084FA0A2269780DA806F01E
:1060200004FB0DA91AA806F0E4FA3D491AA806F0E7
:10603000A5FB014609A806F075FB1AA806F070FA40
:106040000DA806F06DFA374B1B781BB1364909A82D
:1060500006F06CFB07F022FF344904461AA806F04C
:10606000A6FA09A91AA806F07DFB0168204606F0E9
:10607000FAFE1AA806F054FA09992D4804F0B8F867
:10608000002838D023490DA806F091FA09A91AA8CA
:1060900006F0AFFA22491AA806F070FB314606F066
:1060A00061FB01460DA806F095FA1AA806F038FA29
:1060B00052230D9A1E491AA804F056F81AA911A8DD
:1060C000FEF788FD0A2007F037F811A803F06AF9F7
:1060D000044678BB11A803F059F90B48FEF762FBA0
:1060E000642007F029F80848FEF758FB41F2883091
:1060F00007F022F8F5E109990D4804F087F8002827
:10610000C0D10446F0E100BFFCDC0320761E0E0087
:10611000841E0E00E61E0E00B0DC0320CCD6032049
:10612000F91A0E008CDC0320881E0E008D1E0E0056
:10613000A4E10320BC49BD4CBD4E1AA807F0F8FEEF
:10614000BC4807F097F910EE100A09F0C1F80B46A9
:106150000246B949B94805F045FE1C9AB849B94804
:1061600005F040FE2A78A9786B78B748009102F5CF
:10617000FA62B64905F036FE6979EA782B79B448B7
:106180000091B44905F02EFE00232360FEF776FC53
:106190005622B14911A803F052F840F607073178AA
:1061A000A34D11A803F040F8013FF8D11722AB49E5
:1061B000AB4E11A803F043F8AA48AB490A2210F8E5
:1061C000013F53548B180232102A5F70A64BF6DD44
:1061D000DFF868C2DFF898E2A44F15220CEB020149
:1061E000A34811F8151C02F80E10D1550132192AD6
:1061F0009E49F3D19F4F1E224FF0000C17F801EF7C
:1062000003F802E003EB020E0232222A8EF801C0EC
:10621000F4DDDFF830E23F220EEB020717F83F7C97
:1062200087548F540132422AF6D1934F30224FF0D7
:10623000000C17F801EF03F802E003EB020E023244
:106240003E2A8EF801C0F4DDDFF8FCE168220EEB97
:10625000020717F8687C87548F540132702AF6D1F0
:10626000864F4E224FF0000C17F801EF03F802E0C2
:1062700003EB020E0232582A8EF801C0F4DDDFF87B
:10628000D0E197220EEB020717F8977C87548F54C2
:1062900001329D2AF6D164223260794ADFF8C0814A
:1062A000126802F1FF3EF4464FF0000932686C4F6D
:1062B0006E2A09DC1CF8017F9F549F18023287F870
:1062C0000190C8F80020F1E7C2223A603268C72A7C
:1062D00009DC1EF801CF00F802C09EF800C001F8EA
:1062E00002C00132F1E7674F80224FF0000C17F82F
:1062F00001EF03F802E003EB020E0232882A8EF867
:1063000001C0F4DDF02333605F4B554F1A68013A4A
:106310003368F52B0ADC12F801EF00F803E092F87D
:1063200000E001F803E001333B60F1E74C4B002251
:106330001A6040F60806297811A802F075FF013EA0
:10634000F9D18A224849514E11A802F078FF40F253
:106350007D224F4911A802F072FFF522444911A88D
:1063600002F06DFF4FF490724A4911A802F067FFE6
:10637000F5223E4911A802F062FF6222464911A8A7
:1063800002F05DFF4FF40065317811A802F04CFF78
:10639000013DF9D11422414911A802F050FF07F044
:1063A0007DFD3F4906F05FFD3E48FDF733FF0A20C3
:1063B00006F0C2FE3C4A3D4903A8FEF747FA04A88E
:1063C000FFF70CFA3748FEF73CF90A2006F0B4FE56
:1063D000256014253348FEF775F9013D0646F9D1CD
:1063E000334C124FDFF8CC90D92E01D1FF2D63D062
:1063F0002C48FEF767F93B685A1CFF2A80463A6032
:1064000009F8030007DD2B4911A802F018FF00234B
:106410003B60FEF733FB013C354601D04646E3E7DF
:1064200011A802F0B3FF5CE0C0E4032090DC03207D
:1064300096DC0320A8DC0320921E0E00F4DC03206F
:10644000981E0E00E1DC032008DD03209C1E0E00D8
:1064500034DB0320A91E0E004D160E0036160E006A
:1064600030DD0320F3DC0320B3D803203FD9032021
:10647000BDD70320E0DC032007DD032033DB03204E
:106480006CDD032057DD032098DC0320BCD70320FC
:10649000A3160E0020190E00541A0E00401A0E000A
:1064A000B61E0E00FCDC0320CB1E0E00C81D0E0025
:1064B000C1270900A0E00320124B1A681AB1124943
:1064C00011A802F0BCFE1148FEF768F90F48FDF76D
:1064D00093FE11A802F05AFF0021132008F037FBA9
:1064E00001240DA806F01CF809A806F019F805A863
:1064F00006F016F8204602E005A806F011F825B0CF
:10650000BDE8F08390DC0320A0E00320FCDC032046
:1065100038B5064DC56104463430FFF75FF92046B3
:1065200040F8185BFFF75AF9204638BDC8280E001E
:1065300038B504680D467CB1E168A9420CD035B18C
:1065400029B1284609F04CFD10F0FF0F04D0204679
:10655000FEF79BFA0446EEE7204638BD08B500F189
:106560001C0302460360436013B100F5077100E0AD
:10657000194691600BB102F5077302F11800D36060
:106580000021FEF75DF9104608BDF8B50446C0B11C
:106590000B6800F10806ABB18B685568976801334A
:1065A000E818B8420ED8506065B11A460968284606
:1065B00009F0CDFC30460521FEF742F925600120A7
:1065C000F8BDF8BD30460021FEF73AF90020F8BDCD
:1065D00010B502460C4670B1002900F1080003DB3B
:1065E0000821FEF72DF903E00A21FEF729F964429C
:1065F0001460012010BD10BD70B51646027A12F06D
:106600007F0204460D4605D120210830FEF718F917
:1066100022606260237A03F0200303F0FF0073B16D
:1066200029462046FFF784FF48B931462046FEF749
:1066300034FA20B1037AC56003F07F03037270BDA2
:1066400013B5837B044683B901220DF1070140682D
:1066500006F082FC10B19DF8073001E04FF0FF33E7
:1066600023EAE37363730123A373607B02B010BD5D
:1066700070B5044600252046FFF7E2FF0A2803D83C
:1066800009281DD2B0B12FE0202819D02F2802D020
:106690000D2829D114E0A5732046FFF7D1FF2A2841
:1066A00002D02F2816D01CE0A57300262046FFF745
:1066B000C7FF10B94FF0010070BD2F2802D10EB1F5
:1066C000A573D8E7A0F12A035E425E41A573EDE70A
:1066D0000A28D0D0A5732046FFF7B2FF0028F7D1D3
:1066E000E8E74FF0020070BD4FF0000070BD08B544
:1066F000027A02F0200202F0FF0312B1FFF718FF46
:1067000008BD184608BD0000F0B585B0826800924B
:106710000025019593680E46516853605B1A044644
:1067200002910393FFF78CFFA57307462046FFF7FE
:1067300087FF8742A57323D010B94FF0010029E0ED
:106740005C2818D12046FFF77BFF0028F5D075287C
:1067500001D0114B05E04FF004001BE0904204D043
:1067600002331A78002AF9D104E0587810B94FF0B2
:1067700002000FE0A57301466846FEF7B9F9D5E7B8
:106780006846FEF7C3F9306010B94FF0030001E02E
:106790004FF0000005B0F0BDDC1E0E00A0F15F035D
:1067A0001B2B13D9A0F14103192B0FD9A0F12B03F7
:1067B000DBB20E2B04D9A0F12E025042504170479B
:1067C00047F6E57222FA03F3DB07F4D501207047A0
:1067D000F0B585B004460E46FFF732FF27282DD0CE
:1067E00022282BD0A2680092002501955168936859
:1067F000536020465B1A02910393FFF721FF07467F
:10680000D0B1FFF7CBFFA8B139466846A573FEF7B4
:106810006FF92046FFF714FF0746FFF7BFFF002878
:10682000F2D16846FEF772F9002830600CBF0320F1
:10683000002007E0022005E0012003E03146204669
:10684000FFF762FF05B0F0BD00280FDD11490023FE
:10685000C20741BFDAB201EB8202D2ED007A20EE2C
:10686000270A401003F10103F2D170470A49404260
:10687000002368B1C20742BFDAB201EB8202D2ED57
:10688000007A4FEA600048BF20EE270A0133F0E7A4
:10689000704700BFA8D6032090D603202DE9F04111
:1068A0000B782B2B044604D02D2B03D1013101266C
:1068B00001E0013100260B78A3F13002092A02D948
:1068C0002E2B40F089804F4F00234FF00A0E0846D0
:1068D00010F8015BA5F13002D2B2092A09D8BB42F7
:1068E00008D80EFB03F3D543AB4203D8134401464B
:1068F000EDE71DB10022444F0A250EE007EE903A65
:10690000F8EE677A002E2360C4ED017A0CBF0823ED
:106910000A2373E00246B3FBF5F3BB4202F1010028
:10692000F8D8521A50180D4611F8017BA7F1300E15
:10693000BEF1090F40B2F5D92E2F10D1DFF8DCE0FF
:106940000A270D4601312A78303AD2B2092A06D8F0
:106950007345F6D8013807FB032340B2F1E72A78E4
:1069600002F0DF02452A34D16A782D2A02D1A91C0F
:10697000012704E02B2A14BF691CA91C0027002250
:106980004FF00A0C0D4611F801EBAEF1300E5FFA34
:106990008EF8B8F1090F19D80CFB02E28518262DE4
:1069A000F0DD47B19FED197ADFED197A002E18BF9F
:1069B000F0EE477A07E09FED177ADFED177A002EA9
:1069C00008BFF0EE477AC4ED017A16E017B15242E3
:1069D00000E00022297821B10023002223606260B8
:1069E0000CE007EE903A1044B8EEE70AFFF72CFFF0
:1069F0000EB1B1EE400A84ED010A0C232372204649
:106A0000BDE8F08199999919FFFF7F00000000808F
:106A1000000000000000807F000080FFCBCC0C0055
:106A20002DE9F04395B080460D46FFF709FE00249E
:106A30000746A1463846E6B2FFF7B0FE58B13F2CF4
:106A400009D004AB88F80E90E7544046FFF7F8FDF4
:106A500001340746EEE714AB3344002403F8404CFE
:106A60009DF81030742B07D1062105F10800FDF7C1
:106A7000E7FE01232B600DE0662B09D105F108002C
:106A80000621FDF7DDFE2C60701F18BF012020E0FD
:106A90006E2B01D1301FF8E704A901A8FFF7FEFE15
:106AA0009DF80C10019A0A2903D00C2907D0082957
:106AB0000DD105F10800FDF7C3FE2A6005E005F1E0
:106AC0000800029AFDF7BCFE2A60204601E04FF064
:106AD000020015B0BDE8F08370B588B00C460646DC
:106AE000FFF7C6FD01A98DF8040004A8FDF7F4FF27
:106AF000049B002B3ED1059D15F001053AD130468F
:106B0000FFF79EFD272810D103A93046FFF7FCFDB3
:106B100002A98DF8080006A8FDF7DEFF069B63BBFF
:106B2000079810F0010228D12AE007D82228EBD0DC
:106B300021463046FFF774FFC0B229E05B280BD135
:106B400004F108004021FDF77BFE256065602146C9
:106B5000304600F056F8EFE77B28E9D104F1080051
:106B60002021FDF76DFE256065602146304600F06E
:106B7000AEF8E1E79DF804000AE09DF8080007E0A0
:106B800004F108000521039DFDF75AFE256010461B
:106B900008B070BD30B503684360C368836089B0D6
:106BA00004460D4618300021FDF74AFE002304F18B
:106BB000100104A88DF81E308DF81C200494059552
:106BC0000694FFF789FF01A98DF8040002A8FDF7DC
:106BD00083FF029B8BB9039BDB070ED49DF81D300E
:106BE0005BB1237E13F0600F07D103F07F03043BFA
:106BF000012B84BF02238DF804309DF8040009B0F6
:106C000030BD70B5037B88B004460E4613B94FF013
:106C100005005AE0FFF714FD5B2810D10023A37391
:106C20002046FFF725FD01A98DF8040002A8FDF715
:106C300053FF029BBBB9039BDA0714D416E04FF055
:106C4000020042E0237B013B23732046FFF744FF11
:106C5000237B8DF804000133237301A904A8FDF7F9
:106C60003BFF049B53B19DF804002EE02046FFF744
:106C7000E7FC5D2820D10020A07326E0059BDB0700
:106C8000F1D42046FFF7F4FC01A98DF8040006A812
:106C9000FDF722FF069B002BE5D1079B13F00105B2
:106CA000E1D12046FFF7CCFC5D28E4D02046FFF779
:106CB000C7FC2C28C3D1A57321683046FDF7EDFE33
:106CC00001460028BED14FF0030008B070BDF0B5FA
:106CD000037B8FB005460E4613B94FF00500A1E0C7
:106CE000FFF7AEFC7B2840F095800023AB7328466D
:106CF000FFF7BEFC69468DF8000002A8FDF7ECFE28
:106D0000029B002B73D1039810F001046FD1284629
:106D1000FFF796FC7D2856D001A92846FFF758FDBD
:106D200069468DF8000004A8FDF7D6FE049B002BF1
:106D30005DD1059BD9075DD559E0037A63F07F03E8
:106D40000372019BC36004462846FFF791FC694625
:106D50008DF8000006A8FDF7BFFE069B002B46D16C
:106D6000079B13F0010742D12846FFF769FC3A2838
:106D700050D12B7BAF73013B2B7321462846FFF785
:106D8000ABFE2B7B8DF8000001332B73694608A8FE
:106D9000FDF7A2FE089B53BB099BDA0727D42846C0
:106DA000FFF766FC69468DF800000AA8FDF794FE1F
:106DB0000A9BE3B90B9810F0010418D12846FFF79D
:106DC0003FFC7D2802D1AC7320462BE02846FFF71C
:106DD00037FC2C281ED1AC732846FFF749FC6946C6
:106DE0008DF800000CA8FDF777FE0C9BABB19DF869
:106DF000000017E001993046FFF79AFB044600288F
:106E0000A2D129683046FDF748FE002895D14FF001
:106E1000030007E04FF0020004E00D9BDB077FF565
:106E20007BAFE4E70FB0F0BD2DE9F0410B782B2BE1
:106E3000044604D02D2B03D10131012601E001319C
:106E400000260B78A3F13002092A02D92E2B40F03C
:106E500089804F4F00234FF00A0E084610F8015B5F
:106E6000A5F13002D2B2092A09D8BB4208D80EFBDC
:106E700003F3D543AB4203D813440146EDE71DB1FC
:106E80000022444F0A250EE007EE903AF8EE677AAA
:106E9000002E2360C4ED017A0CBF08230A2373E09F
:106EA0000246B3FBF5F3BB4202F10100F8D8521AD7
:106EB00050180D4611F8017BA7F1300EBEF1090FF5
:106EC00040B2F5D92E2F10D1DFF8DCE00A270D46AD
:106ED00001312A78303AD2B2092A06D87345F6D859
:106EE000013807FB032340B2F1E72A7802F0DF0202
:106EF000452A34D16A782D2A02D1A91C012704E041
:106F00002B2A14BF691CA91C002700224FF00A0C71
:106F10000D4611F801EBAEF1300E5FFA8EF8B8F1C4
:106F2000090F19D80CFB02E28518262DF0DD47B1B8
:106F30009FED197ADFED197A002E18BFF0EE477A2F
:106F400007E09FED177ADFED177A002E08BFF0EE0D
:106F5000477AC4ED017A16E017B1524200E00022F0
:106F6000297821B100230022236062600CE007EE43
:106F7000903A1044B8EEE70AFFF766FC0EB1B1EEA6
:106F8000400A84ED010A0C2323722046BDE8F081FB
:106F900099999919FFFF7F00000000800000000010
:106FA0000000807F000080FFCBCC0C007FB590E814
:106FB000300010340E4620462946FFF798FB002883
:106FC00059D0037A03F07F03082B08D00A2B52D143
:106FD0000368B3F1004F8CBF0023012302E0036874
:106FE000DB43DB0F002B46D029462046FFF77FFB13
:106FF000002843D0037A03F07F03043B082B3CD8DE
:10700000DFE803F00909053B053B073B2400006866
:1070100014E000680DE0016801A8FFF705FF9DF886
:107020000C3001980A2B04D00C2B0CD0082B24D147
:1070300004E0B0F1004F20D840421FE0B0F1004F13
:1070400028BF00201AE0DDED027A01E0D0ED007AE1
:107050009FED0B7AF4EEC77AF1EE10FA0DDB9FED9F
:10706000097AF4EEC77AF1EE10FA06D8FDEEE77A67
:1070700017EE900A02E0306800E0002004B070BD16
:10708000000000CF0000004F00680368DB6818476D
:1070900038B5044608460D4608F0E4FF2946024686
:1070A0002046FFF7F1FF63681844606038BD10B5F3
:1070B0000446006803689B689847636818446060EA
:1070C00010BD000070B505460C4619B91149FFF70F
:1070D000DFFF70BD2221FFF7EAFF013C14F8011F1A
:1070E00071B10D4B13F8026C7EB1023313F8032C0F
:1070F0008A42F7D15C212846FFF7D9FF314604E0E8
:1071000022212846FFF7D3FF70BD2846FFF7CFFFA7
:10711000E4E700BFE71E0E00DA1E0E0000000000CC
:10712000F8B5DFED557AB4EEE70A0623F1EE10FA72
:107130002DED028B0446B0EE408A83721CDB4F4B70
:107140004F4AA3F118010025202772ED017AF4EED1
:10715000C87AF1EE10FA9CBFD3ED057AED19A3F1D0
:1071600004039CBF28EE278A2DB299424FEA670795
:10717000EBD14FF0FF3602E0202705260025B5EEC3
:10718000C08AF1EE10FA21DD18EE100A08F0A0F81E
:1071900037A3D3E9002308F06BFBB8B1394A3A4969
:1071A000731C13D0B300D018D0ED007AF4EEC87A77
:1071B000F1EE10FA06DD0B44D3ED007AED1B28EE5C
:1071C000278A2DB2013E7F1076B2E9E7FCEEC87A3D
:1071D0002E49258117EE903A17EE902AC4ED007AD9
:1071E0000A26092A07D9B1FBF6F1B2FBF6F2A07A1A
:1071F0000138A072F5E707EE903AB8EE670A07EE9D
:10720000901A38EE408AB8EEE70A28EE008AFCEEC3
:10721000C87AB8EE670A17EE900A38EE408A38EE60
:10722000088ABCEEC88A18EE102A0244914201D99D
:1072300062600AE000220133626023602DB1092BF5
:1072400081BF01350123258123600A216368B3FBD7
:10725000F1F201FB12333BB994F90A30002B03DD44
:10726000013B6260A372F1E7BDEC028B2046F8BDE2
:10727000F168E388B5F8E43E8096184B90D6032079
:10728000C0D6032078D60320A8D6032040420F00A2
:1072900010B5521A0446FFF7F7FE636818446060A1
:1072A00010BD30B587B00B460DF116010A460A2510
:1072B000B3FBF5F405FB1433303301F8013D2346ED
:1072C000002CF5D1FFF7E4FF07B030BDF0B52DED90
:1072D000028BB4EE400AF1EE10FA8BB00446B0EE29
:1072E000408A04D73C492046FFF7D2FE6FE09FED6D
:1072F0003B7AF0EEC07AF4EE477AF1EE10FAF1DC68
:10730000B5EEC00AF1EE10FA04D52D21FFF7CFFE3D
:10731000B1EE488AB0EE480A01A8FFF701FF0199D3
:107320002046FFF7BEFF9DF90E10C9B108AD029BC4
:1073300008462A460A27013840B2461C08D0B3FB4B
:10734000F7F607FB1633303305F8013D3346F2E715
:10735000C9B2511A2E2301F8013D2046FFF798FFCC
:10736000BDF90C30002B17DA1D492046FFF790FEBF
:10737000BDF90C300DF126015B420A460A2593FB4C
:10738000F5F005FB1033303301F8013D03460028CA
:10739000F5D12046FFF77CFFBDF90C30002B16DD40
:1073A00065212046FFF783FE0DF12601BDF90C3063
:1073B0000A460A2593FBF5F005FB1033303301F83C
:1073C000013D03B2002BF5D12046FFF761FF0BB062
:1073D000BDEC028BF0BD00BFE71E0E00FFFF7F7FFC
:1073E000EC1E0E0038B5037A03F07F03062B05462A
:1073F0000C4667D008D8022B6AD3032B54D90168F6
:107400002046FFF75FFE38BD0C2B15D00AD8082B9D
:1074100053D00A2B5CD105682D212046FFF747FE8B
:1074200029464BE0202B1ED0402B51D15B2120461A
:10743000FFF73DFE2D6812E090ED000A0846FFF7C9
:1074400045FF38BD28462146FFF7CCFF2846FDF70B
:107450001CFB054628B12C212046FFF728FE002DF5
:10746000F0D15D211CE07B212046FFF720FE2D6836
:10747000ADB1E9682046FFF725FE3A212046FFF727
:1074800016FE28462146FFF7ADFF2846FDF7FDFA18
:10749000054620B12C212046FFF709FEE8E77D21B3
:1074A0002046FFF704FE38BD90E806002046FFF7AF
:1074B000EBFD63681844606038BD01682046FFF743
:1074C000F0FE38BD03680BB1044902E0044900E056
:1074D00004492046FFF7DCFD38BD00BFEF1E0E005B
:1074E000F41E0E00E71E0E0030B5ADF5157D014609
:1074F000054604AC444802F0A5FE204617232A4660
:10750000414902F031FE204601F04CFF68B906F017
:10751000C5FC3E4905F0A7FC0DA83C4A3C49FDF7D7
:1075200095F90EA8FEF75AF96AE00DA8FFF716F8CC
:107530000DAA384911A8FFF75FF80DAA3649FFF7E1
:1075400024F80DAA354911A8FFF756F80DAA3449B9
:10755000FFF71BF80DAA334911A8FFF74DF80DAA44
:107560003149FFF712F80DAA304911A8FFF744F886
:107570002F4B1968FFF72CF80DAA2E4911A8FFF719
:107580003BF82D4B1968FFF723F80DAA2B4911A8DA
:10759000FFF732F80DAA2A49FEF7F7FF0DAA29498D
:1075A00011A8FFF729F80DAA2749FEF7EEFF0DAA4B
:1075B000264911A8FFF720F80DAA2549FEF7E5FF97
:1075C0000DAA244911A8FFF717F80DAA2249FEF7C2
:1075D000DCFF0023694611A801930094FFF702FF26
:1075E000019B53B91D49684604F0E1FF684602213A
:1075F000FDF706FB684604F093FF204601F0C6FE47
:107600000DF5157D30BD00BFA4E10320FA1E0E006C
:10761000171F0E001D1F0E006CDD0320211F0E0022
:1076200098DC03202D1F0E005CDD0320361F0E00AA
:1076300088DC0320431F0E00C0D603204F1F0E001E
:1076400010DD03205C1F0E0034DD0320691F0E00D7
:1076500048DD0320761F0E00B8DC03207E1F0E00DD
:1076600038B5044608460D4608F0FCFC294602469B
:107670002046FDF75CFA63681844606038BD10B5B9
:107680000446006805F061F863680133636010BD6B
:1076900070B505460C4619B91149FFF7E1FF70BDF9
:1076A0002221FFF7ECFF013C14F8011F71B10D4BD3
:1076B00013F8026C7EB1023313F8032C8A42F7D11F
:1076C0005C212846FFF7DBFF314604E022212846F3
:1076D000FFF7D5FF70BD2846FFF7D1FFE4E700BFF5
:1076E000E71E0E00DA1E0E0010B5521A0446FDF712
:1076F0001EFA63681844606010BD30B587B00B4651
:107700000DF116010A460A25B3FBF5F405FB143307
:10771000303301F8013D2346002CF5D1FFF7E4FF9B
:1077200007B030BDF0B52DED028BB4EE400AF1EE9E
:1077300010FA8BB00446B0EE408A04D73C4920468C
:10774000FFF78EFF6FE09FED3B7AF0EEC07AF4EE2C
:10775000477AF1EE10FAF1DCB5EEC00AF1EE10FA5C
:1077600004D52D21FFF78BFFB1EE488AB0EE480A11
:1077700001A8FFF7D5FC01992046FFF7BEFF9DF950
:107780000E10C9B108AD029B08462A460A270138E7
:1077900040B2461C08D0B3FBF7F607FB1633303374
:1077A00005F8013D3346F2E7C9B2511A2E2301F81C
:1077B000013D2046FFF798FFBDF90C30002B17DA8A
:1077C0001D492046FFF74CFFBDF90C300DF1260195
:1077D0005B420A460A2593FBF5F005FB1033303374
:1077E00001F8013D03460028F5D12046FFF77CFF54
:1077F000BDF90C30002B16DD65212046FFF73FFF59
:107800000DF12601BDF90C300A460A2593FBF5F06F
:1078100005FB1033303301F8013D03B2002BF5D1E5
:107820002046FFF761FF0BB0BDEC028BF0BD00BF3F
:10783000E71E0E00FFFF7F7FEC1E0E0038B5037AB7
:1078400003F07F03062B05460C4667D008D8022BB1
:107850006AD3032B54D901682046FFF719FF38BDBE
:107860000C2B15D00AD8082B53D00A2B5CD10568F5
:107870002D212046FFF703FF29464BE0202B1ED089
:10788000402B51D15B212046FFF7F9FE2D6812E015
:1078900090ED000A0846FFF745FF38BD284621460F
:1078A000FFF7CCFF2846FDF7F0F8054628B12C215C
:1078B0002046FFF7E4FE002DF0D15D211CE07B2186
:1078C0002046FFF7DCFE2D68ADB1E9682046FFF7E2
:1078D000DFFE3A212046FFF7D2FE28462146FFF779
:1078E000ADFF2846FDF7D1F8054620B12C212046F2
:1078F000FFF7C5FEE8E77D212046FFF7C0FE38BD53
:1079000090E806002046FDF712F9636818446060AD
:1079100038BD01682046FFF7F0FE38BD03680BB1A3
:10792000044902E0044900E004492046FFF798FEBC
:1079300038BD00BFEF1E0E00F41E0E00E71E0E0045
:10794000F0B591E85000103487B005463146204626
:107950001746FEF7CCFE88B3037A03F07F03043B9F
:10796000012B2BD820463146FEF7C1FE044658B104
:10797000037A03F07F03043B012B05D8016819B19A
:10798000284604F014FE1DE002AE1049304604F013
:107990000EFE00230096019324B169462046FFF7AE
:1079A0004DFF03E00A496846FFF75AFE3146284674
:1079B00004F0A6FD304604F0B3FD03E03946284646
:1079C00004F017FE284607B0F0BD00BFE61E0E000B
:1079D000E71E0E002DE9F04FADF51B7D0C4602466B
:1079E000012379490AA802F0BFFB0AA801F0DAFCDA
:1079F00013AD04F1080604F11C0704F1380804F182
:107A00006A0904F17E0A04F1920B002800F09B80C1
:107A10002846FEF7A3FD4FF00A020AA92846FFF701
:107A2000B9F801A98DF8040004A8FDF755F8049BE6
:107A3000002B40F0BB80059BDB0700F1B780634B58
:107A4000634A039302A906A80295FFF779FF08226B
:107A50000699204608F0F1FA06A804F061FD5D4B96
:107A60005D4A039302A906A80295FFF769FF142255
:107A70000699304608F0E1FA06A804F051FD574B8C
:107A8000574A039302A906A80295FFF759FF14224B
:107A90000699384608F0D1FA06A804F041FD514B8A
:107AA0005149079306A80695FFF780FA4F4B2063CC
:107AB0004F49079306A80695FFF778FA4D4B606388
:107AC0004D4A039302A906A80295FFF739FF322217
:107AD0000699404608F0B1FA06A804F021FD474B8C
:107AE000474A039302A906A80295FFF729FF14222B
:107AF0000699484608F0A1FA06A804F011FD414B8A
:107B0000414A039302A906A80295FFF719FF142220
:107B10000699504608F091FA06A804F001FD3B4B87
:107B20003B4A039302A906A80295FFF709FF3222F8
:107B30000699584608F081FA06A804F0F1FC0AA854
:107B400001F024FC0CE006F0A9F9324905F08BF9AC
:107B50002846304A3049FCF779FE14A8FDF73EFE6E
:107B600021461B4804F050FD31461B4804F04CFDF3
:107B700039461B4804F048FD1B4B226B1A601C4B16
:107B8000626B1D481A60414604F03EFD49461C48A0
:107B900004F03AFD51461C4804F036FD59461C4895
:107BA00004F032FD0DF51B7DBDE8F08F06F076F98F
:107BB0001A4905F058F906A8184A1749FCF746FE75
:107BC00007A8FDF70BFEBAE7A4E103201D1F0E0076
:107BD0006CDD0320211F0E0098DC03202D1F0E00FA
:107BE0005CDD0320361F0E0088DC0320431F0E00DF
:107BF000C0D603204F1F0E0010DD03205C1F0E00B7
:107C000034DD0320691F0E0048DD0320761F0E00BF
:107C1000B8DC0320961F0E00C61F0E00CD1F0E00FD
:107C200030B58FB08449044605A804F0C0FC042197
:107C300005A8FCF7E5FF05A804F072FC7F4905A83C
:107C400004F0D7FC7E4B7F4A1B6812887E4805A94A
:107C500001F0FAFB054605A804F062FC0DB97B496A
:107C60000DE07B4905A804F0C4FC05A9764801F0A5
:107C70004DFC054605A804F053FC5DB9754905A8FF
:107C800004F095FC05A80221FCF7BAFF05A804F052
:107C900047FCCEE0704905A804F0ABFC05A96A4892
:107CA00001F056FC054605A804F03AFC0DB96B49F5
:107CB000E5E7214605A804F09CFC05A9624801F00F
:107CC00069FC054605A804F02BFC002D44D164494D
:107CD00005A804F06CFC032105A8FCF791FF05A89A
:107CE00004F01EFC214605A804F083FC05A95648B3
:107CF00001F072FC054605A804F012FCB5B959491B
:107D000001A804F054FC214601A804F02BFD014613
:107D100005A804F06EFC022105A8FCF771FF05A878
:107D200004F0FEFB01A804F0FBFB82E04E4901A831
:107D300004F03DFC214601A804F014FD014605A80D
:107D400004F057FC032105A8FCF75AFF05A804F02E
:107D5000E7FB01A804F0E4FB444901A804F027FC78
:107D6000434901A804F0FEFC424904F007FD014626
:107D700005A804F03EFC05A9334801F09DFD04462A
:107D800005A804F0CDFB01A804F0CAFB0CB93A49E0
:107D900075E73A493A4802F055FA20B906F07EF8FC
:107DA000384905F060F805A81723344A344902F031
:107DB000DBF905A801F0F6FA80B1234806F037FB9D
:107DC000B8B1214806F01EFD0028F6D01E4806F086
:107DD000C2FBC1B205A801F027FAF2E72A4901A8BF
:107DE00004F0E5FB01A80221FCF70AFF01A804F05A
:107DF00097FB05A801F0CAFA0A2005F09DF9124880
:107E000001F064FB104801F04DFC0A2005F094F9E4
:107E10001E4901A804F0CBFB04210DEB0100FCF787
:107E2000EFFE01A804F07CFB14481949FFF7D2FDCE
:107E300000E000200FB030BDF81F0E0010DD032061
:107E4000B8D7032038DA03203CDB0320FB1F0E00E9
:107E500034DD032018200E0048DD032025200E000D
:107E60006B1C0E00831C0E00961C0E0032200E00B0
:107E70006CDD032046200E0052200E0064200E0010
:107E8000A4E103206F200E008D200E00A9200E001B
:107E9000C4D603202DE9F04FBC4FC9B03D46BC49C4
:107EA0003C6806A804F083FBFCF7E8FD04A8B94988
:107EB000FCF746FD04A804F003FA80B1B6493EA8D9
:107EC00004F075FB04213EA8FCF79AFE3EA804F0DE
:107ED00027FB4FF47A7005F02FF904F09EF904A8FF
:107EE00004F0F5F9002800F06D8100242E6800945C
:107EF000234622460721204605F052F9A74823468B
:107F000022462146406803F0ADFEA5493EA804F094
:107F10004EFB3EA80421FCF773FE3EA804F000FBD4
:107F20009E48FCF7B5FC044628BB013E4FF47A702E
:107F300005F002F98C2EF3DC012005F051F9012146
:107F4000072006F0F3FD642005F0F6F895493EA8F9
:107F500004F02DFB04213EA8FCF752FE3EA804F0DD
:107F6000DFFA0121072006F0F2FD41F2883005F02A
:107F7000E3F82146D0E02E681E235E43002E40F336
:107F8000F480062006F0FCFD00286FD10446062090
:107F900006F0F6FD20B96420643405F0CDF8F6E76C
:107FA00081493EA804F003FB0A22314634A804F0BC
:107FB0004EFB34A93EA804F0D5FB7C4902682BA8EF
:107FC000FCF744FC2CA8FDF709FC34A804F0A8FA3F
:107FD0003EA804F0A5FA71493EA805F0A9FF74492E
:107FE0002BA804F0E4FA0A22409922A804F02FFBFF
:107FF00022A92BA804F0B6FB6E4904F0BFFB014692
:1080000034A804F0F6FA042134A8FCF7F9FD34A8EA
:1080100004F086FA22A804F083FA2BA804F080FA70
:10802000012005F0DDF80121072006F07FFD642026
:1080300005F082F800266FF00908409B93FBF8F3E7
:108040009E4211D80021072006F081FD4FF4FA70FE
:1080500005F072F80121072006F079FD4FF4FA705F
:1080600005F06AF80136E8E72E6800E000240023F6
:10807000184600931A46072105F092F8FCF7FEFC1B
:10808000642005F059F8FCF79BFCB4F5FA6F06F193
:10809000FF367FF773AF42F20F739C4265DD01201C
:1080A00005F09EF80121072006F040FD03F03AFE9E
:1080B0002C6803F047FE0646002848D101460720F9
:1080C00006F045FDFA2005F037F80121072006F0FB
:1080D0003EFDFA2005F030F88C2C34DC012005F050
:1080E0007FF80121072006F021FD642005F024F827
:1080F00031493EA804F05BFA04213EA8FCF780FD5C
:108100003EA804F00DFA0121072006F020FD41F2FF
:10811000883005F011F83146072006F018FD4FF4BD
:108120007A7005F009F8254B1B6800933EA840F2D1
:10813000DC5302220621FCF7EDFB4FF47A7004F0C9
:10814000FBFF00F06ABD013CFCF73AFCB1E74FF0E1
:10815000FF311B4805F02BFB07220023009311463B
:10816000104605F01DF800F058BD012005F038F864
:108170000121072006F0DAFC0021072006F0E7FCC9
:108180000A2004F0D9FF6420D9E700BFB8D7032044
:10819000E61E0E0040E40320AF200E00C0E40320E2
:1081A000B2200E00BF200E00D1200E00C81D0E0010
:1081B000EF200E00FE200E0001210E009CE00320A7
:1081C000F0E60320A0493EA804F0F1F904213EA8FE
:1081D000FCF716FD3EA804F0A3F903F0F9FA9B485A
:1081E000FCF756FBB0B94FF47A70013C04F0A4FFE1
:1081F000FCF744FC002CF2DC954B964901223EA88A
:108200001A7004F0D4F93EA80321FCF7F9FC3EA84B
:1082100004F086F92C68DFF8388203F0D9FA814639
:1082200003F090FD8A4ED8B998F80030C3B94FF4E6
:108230007A70013C04F080FFFCF720FCAA2CEFDCF4
:10824000854B01221A7003F075FD84493EA804F0A5
:10825000AEF93EA80321FCF7D3FC3EA804F060F978
:10826000D5F8008003F0B4FA7D49044634A804F040
:108270009EF9C9EB04040A224FF47A712BA8B4FBCF
:10828000F1F104F00AFA2BA934A804F06BFA0146C4
:108290003EA804F0AEF904213EA8FCF7B1FC3EA8CC
:1082A00004F03EF92BA804F03BF934A804F038F9A7
:1082B0006C4805F0F5F806210AA804F002FA6948AE
:1082C00005F0D8F806210EA804F0FBF95F4934A8A0
:1082D00005F02EFE64491EA804F069F90AA91EA83B
:1082E00004F040FA614904F049FA0EA904F03AFAA0
:1082F0005F4904F043FA0A220446369922A804F0A2
:10830000A6F922A9204604F02DFA5A4904F036FABB
:10831000044634A804F0CEFF06212BA804F0D1F9BE
:108320002BA9204604F01EFA534904F027FA01460F
:108330003EA804F05EF904213EA8FCF761FC3EA8CB
:1083400004F0EEF82BA804F0EBF822A804F0E8F80B
:108350001EA804F0E5F834A804F0ACFFF3EE097AA7
:10836000B4EEE70AF1EE10FA44BF0123337033781C
:10837000002B40F09980384B1C78ECB13F492BA87A
:1083800004F015F93E492BA804F0ECF93D4904F03E
:10839000F5F901463EA804F02CF93EA8FFF740FC91
:1083A0003EA804F0BDF82BA804F0BAF8364B3749C4
:1083B0001868FFF799F877E0354B36491B788DF848
:1083C000003022463C233EA805F0EEFA3FA8FDF718
:1083D00005FA314B31491B788DF8003022463C2399
:1083E0003EA805F0E1FA3FA8FDF7F8F90A9A2C49F2
:1083F0003EA8FCF72BFA3FA8FDF7F0F90A223699C0
:108400003EA804F024F93E9A26492BA8FCF71EFA50
:108410002CA8FDF7E3F93EA804F082F803F092FCE3
:1084200010B1204603F0A6FCFCF7FDF9002840F04F
:10843000F983B8F1A90F40F330844FF4FA7004F0D7
:108440007BFE08F1FF38EFE71C210E00C0E403209B
:108450008CDC032020210E00E0DC03202C210E0008
:10846000971D0E00A8DC032038210E003E210E00CF
:1084700043210E004A210E00691B0E0032200E001F
:108480006CDD0320F91A0E00E4DC0320C4D60320BF
:1084900095DC0320BB1B0E00F8DC0320A61B0E009E
:1084A00052210E005B210E00B74C3EA801F0F9FBF3
:1084B000BDF8FC303E98A380206005F0EFFC2178E9
:1084C0000A22804601F5FA613EA804F0C0F83E9900
:1084D000404604F0B5FC3EA804F022F805F0DEFCAE
:1084E0002F2104F0B1FC05F0D9FC0A228046617806
:1084F0003EA804F09AF83E99404604F0A1FC3EA83C
:1085000004F00EF805F0CAFC2F2104F09DFC05F0E4
:10851000C5FC0A228046A1783EA804F086F83E9960
:10852000404604F08DFC3EA803F0FAFF05F0B6FCCF
:10853000202104F089FC05F0B1FC0A228046E17894
:108540003EA804F072F83E99404604F079FC3EA83B
:1085500003F0E6FF05F0A2FC3A2104F075FC05F0FB
:108560009DFC0A22804621793EA804F05EF83E99DF
:10857000404604F065FC3EA803F0D2FF05F08EFCF7
:108580003A2104F061FC05F089FC0A2280466179F9
:108590003EA804F04AF83E99404604F051FC3EA83B
:1085A00003F0BEFF05F07AFC04F051FCA378012B28
:1085B000A04603D1E3780F2B00F08B836179E37839
:1085C000A2780191217900913EA8704903F00AFC3C
:1085D0003EA906A804F018F806A92BA804F009F88B
:1085E0002BA8FDF78DFB04462BA803F099FFF4B9E7
:1085F000674922A803F0DBFF06A922A804F0B2F81D
:1086000001462BA803F0F5FF01212BA8FCF7F8FA8F
:108610002BA803F085FF22A803F082FF41F28830E7
:1086200004F08AFD4FF49670FDF79EF8EFE259488A
:1086300004F020FFDFED587A584B20EE270AD3EDE7
:10864000007AF8EEE77AB4EEE70AF1EE10FA33D5E5
:10865000534922A803F0ABFF4E4804F00BFF06215C
:108660001EA804F02EF81EA922A804F07BF84D499C
:1086700004F084F801462BA803F0BBFF01212BA8CE
:10868000FCF7BEFA2BA803F04BFF1EA803F048FF2F
:1086900022A803F045FF0021132006F058FA4FF4FA
:1086A0007A7004F049FD4FF46160FDF75DF84FF416
:1086B0007A7004F041FDAAE23478002C40F01E826A
:1086C00006A922A803F095FF37492BA803F091FFD4
:1086D000234621462BAA22A8FCF796FC04462BA889
:1086E00003F01EFF22A803F01BFF002C64D12F49CA
:1086F0002BA803F05CFF2BA80221FCF781FA2BA822
:1087000003F00EFF2A48FCF7C3F820B94FF47A7043
:1087100004F012FDF6E7264E002506A922A803F074
:1087200068FF21492BA803F064FF00232BAA012135
:1087300022A8FCF769FC18B9B5FA85F4640900E0D1
:1087400000242BA803F0ECFE22A803F0E9FE002C85
:108750003DD018492BA803F02AFF02212BA8FCF7D3
:108760004FFA2BA803F0DCFEFCF788F90135002254
:108770001146706803F07EFA0028CED04FF4FA70EC
:1087800004F0DAFCF3E700BFB0DC032066210E0042
:108790007B210E00A8DC03200000C842C0D60320C5
:1087A0009A210E00BE210E00B8DC0320C1210E006C
:1087B000C0E40320CC210E00AB492BA803F0F7FE48
:1087C0002BA80421FCF71CFA2BA803F0A9FE98F8AB
:1087D0000110A64CA64F013904EB810112A803F049
:1087E000E6FE12A91AA803F004FF98F800100A2266
:1087F00001F5FA6116A803F02AFF16A91AA803F0DA
:10880000B1FF9C4903F0BAFF014622A803F0F1FE34
:1088100099491EA803F0CBFE98491EA803F0A2FFB9
:1088200001462BA803F0E5FE01232BAA194622A836
:10883000FCF7EAFB05462BA803F072FE1EA803F026
:108840006FFE22A803F06CFE16A803F069FE1AA8BA
:1088500003F066FE12A803F063FE002D6ED1884976
:108860002BA803F0A4FE02212BA8FCF7C9F92BA822
:1088700003F056FE41F2883004F05EFC8148FCF7BC
:1088800007F80028FAD000267978013904EB810135
:1088900012A803F08CFE12A91AA803F0AAFE3978D8
:1088A0000A2201F5FA6116A803F0D1FE16A91AA84A
:1088B00003F058FF6F4903F061FF014622A803F05F
:1088C00098FE6D491EA803F072FE6C491EA803F0C5
:1088D00049FF01462BA803F08CFE01232BAA194661
:1088E00022A8FCF791FB18B9B6FA86F56D0900E0ED
:1088F00000252BA803F014FE1EA803F011FE22A8E9
:1089000003F00EFE16A803F00BFE1AA803F008FEF3
:1089100012A803F005FEEDB15B492BA803F047FE5A
:1089200002212BA8FCF76CF92BA803F0F9FD013606
:108930005448FBF7ADFF0028FAD0A5E753492BA810
:1089400003F035FE04212BA8FCF75AF92BA803F0FD
:10895000E7FD00267A783B7800924D4A4D4912682F
:1089600003F5FA633EA803F03DFA05F097FA4A4989
:1089700004462BA803F01BFE3EA922A803F017FE15
:1089800022A92BA803F0EEFE0168204604F06BFA42
:1089900022A803F0C5FD2BA803F0C2FD3EA93F4865
:1089A00001F026FC002800F09C8005F077FA3C4995
:1089B00004F059FA3EAA012338492BA801F0D4FB50
:1089C0002BA93848FCF706F90122364922A801F004
:1089D00047FC22A800F0E6FC002800F0858122A8D0
:1089E00000F0A8FC002840F07F8122A800F0A0FC45
:1089F000014606A803F008FE05F050FA2A4904468D
:108A00002BA803F0D4FD06A92BA803F0ABFE016848
:108A1000204604F028FA2BA803F082FD22A800F0DB
:108A2000B5FC06A91EA803F0E4FD20492BA803F01D
:108A3000E0FD02232BAA00211EA8FCF7E5FA18B9D5
:108A4000B6FA86F4640900E000242BA803F068FD60
:108A50001EA803F065FD5CB301360A48FBF718FF5A
:108A60000028FAD0DDE700BFDD210E0088D7032003
:108A7000B0DC0320E2210E0032200E006CDD03206A
:108A8000E7210E00C0E40320F2210E0003220E00B5
:108A900098DC032008220E0017220E00A4E1032018
:108AA00025220E0010DB032081220E00B8DC0320FB
:108AB0003EA92BA803F07BFD06A92BA803F052FECC
:108AC00001689B4801F0BEFB2BA803F029FD2BA8F1
:108AD0000122984901F0C4FB2BA922A8FCF77AF8DF
:108AE00077E705F0DBF9944904F0BDF92BA8934A28
:108AF0009349FBF7ABFE2CA8FCF770FE2BA8914D19
:108B000001F0CFF82B98BDF8B03028608E48AB80CC
:108B100001F099F98D4B1868012815D002282DD045
:108B2000002846D1EC78AB786A782978062C07D9EA
:108B30000A2C40F2E6800E2C40F2E780013317E069
:108B4000029001900720E3E0E878C31F0A2B08D8C1
:108B500000240130AB786A78297802940194C0B27D
:108B6000D6E0122825D8AB786A782978013300201E
:108B70000290019007200090DBB2CAE00024AB789D
:108B80006A78297802940194E878009001F5FA61F6
:108B90002BA800F039FF23460122214600941EA88D
:108BA00000F0E0FF22A81EAA2BA900F0CEFF22A809
:108BB000B5E00024664922A803F0F9FC0A22214608
:108BC0001EA803F044FD1EA922A803F0CBFD014618
:108BD0002BA803F00EFD04212BA8FCF711F82BA8FD
:108BE00003F09EFC1EA803F09BFC22A803F098FC57
:108BF0002046FCF7B9FD0EA803F092FC0AA803F08A
:108C00008FFC06A803F08CFC49B0BDE8F08F0EA8DD
:108C100003F086FC0AA803F083FC06A803F080FC9E
:108C2000FFF73DB9B8F1A90F37DD04F019FA0028B4
:108C300033D004F06DFA814604F062FA824604F003
:108C400055FA834604F034FA044604F03BFA8046B1
:108C500004F042FAC0B20290E4B25FFA88F05FFA20
:108C60008BF35FFA8AF21FFA89F1019000943EA813
:108C700000F0CAFE3EA800F0A8FFFBF7D4FD354A7D
:108C800035493EA8FBF7E2FD3FA8FCF7A7FD3349B5
:108C90003EA803F08CFC042104E031493EA803F017
:108CA00086FC02213EA8FBF7ABFF3EA803F038FC90
:108CB0002C682C492C4803F073FD00283FF45EAB70
:108CC000002C7FF75BAB4FF47A7004F035FA013C6F
:108CD000EFE726493EA803F06AFC3EA8FCF794FDA6
:108CE0003EA803F01DFC69E4124800F04FFB05F0BC
:108CF000D5F81F4904F0B7F83EA90D4801F094FAE1
:108D0000F4E6029001900B2002E0029001900F2007
:108D1000009001F5FA612BA800F076FE2BA800F078
:108D200001FF0446284600F0FDFE241A42E700BF7A
:108D3000A4E1032010DB032038220E0053220E0092
:108D4000C81D0E00B0DC032094DC032088DC032067
:108D5000C1230E005C220E00C61F0E0069220E0009
:108D60006F220E0060210E0098DC0320E61E0E002C
:108D700097220E0010B587488EB0FBF77DFD864820
:108D800004F0FAFB844804F00DFB844803F0CCF8AF
:108D9000FBF774FE824A8349834804F0F1FC002407
:108DA000824A8349804804F0EBFC234622468149ED
:108DB00001940094804802F0D5FF012322467D49AA
:108DC000019400947D4802F0CDFF4FF0FF317C48C4
:108DD00004F0EDFC4FF49671794804F0E8FCB9EE2C
:108DE000040A04F021F90121132005F09FFE01215E
:108DF000072005F09BFE2146082005F097FE012183
:108E0000072005F093FE2146062005F08FFE05F0B1
:108E100043FF6C4905F0CCF905F03EFF05F0CCF9B5
:108E2000FBF79EFE5C4804F025FBDFED677A674B9D
:108E300020EE270AD3ED007AF8EEE77AB4EEE70ADF
:108E4000F1EE10FA2ED5624906A803F0B0FB5248A5
:108E500004F010FB062102A803F033FC02A906A8C7
:108E600003F080FC5B4903F089FC01460AA803F08B
:108E7000C0FB01210AA8FBF7C3FE0AA803F050FBC0
:108E800002A803F04DFB06A803F04AFB214613207D
:108E900005F05DFE4FF47A7004F04EF94FF4616016
:108EA000FCF762FC00F070FE04F0F8FF4FF4E131D3
:108EB00004F0E8FF484800F0C6FF484906A803F060
:108EC00076FB002211460AA80A9202F0A9FC0A22A7
:108ED0000A9902A803F0BBFB02A906A803F042FC12
:108EE00001460AA803F085FB04210AA8FBF788FEC7
:108EF0000AA803F015FB02A803F012FB06A803F072
:108F00000FFB374906A803F052FB364902A803F0CD
:108F10004EFB02A906A803F025FC01460AA803F0AF
:108F200068FB04210AA8FBF76BFE0AA803F0F8FA15
:108F300002A803F0F5FA06A803F0F2FA264800F0BA
:108F400025FEC8B928490AA803F031FB02210AA866
:108F5000FBF756FE0AA803F0E3FA244A24490AA8BC
:108F600000F066FD0AA800F030FE41F2883004F0FF
:108F7000E3F803F052F905E0174800F060FF1648E7
:108F800000F061FF1B4B1C491868FEF723FD0EB073
:108F900010BD00BFC0E40320A8DC032020DD0320B7
:108FA000AC220E00015D0D0055D70D00B5220E005C
:108FB00009580D00F94D0D00BB1B0E00A61B0E003D
:108FC000F0E60320A08601000000C842C0D60320BE
:108FD0009A210E00BE210E0094DC0320BD220E005B
:108FE000CA220E00D0220E00D7220E00EB220E0065
:108FF000F4220E00E4DC0320C4D6032010B52421A3
:10900000044605F0A3FE204610BD00005E4B70B57F
:1090100000241C605D4B5E4D1C705E4B01261E7073
:1090200002F046FB4FF6FF736B812C60AC80AC7195
:109030002C81304602F0C8FD574A5849284605F0B1
:1090400077FE2146304602F0CFFD21465448554D6B
:1090500004F0D0F9504A5449514805F069FE4FF4E4
:109060000073524A52495348FBF7B2FC4A4A5249EC
:10907000504805F05DFE2146504800F077FC50490D
:10908000504803F094FA444A4F494E4805F050FEC8
:109090004E494F4803F08BFA3F4A4B494C4805F084
:1090A00047FE4C494C4803F082FA3B4A46494A483D
:1090B00005F03EFE49494A4803F079FA364A4249EA
:1090C000474805F035FE4749474803F070FA324AF1
:1090D0003D49454805F02CFE28194449103403F059
:1090E00066FAB4F5487FF7D12B4A4149414C00203C
:1090F00005F01EFE4049414803F059FA264A32491C
:109100003E4805F015FE3E493E4803F050FA224A1B
:109110002D493C4805F00CFE3B493C4803F047FA1A
:109120001D4A2949394805F003FE052211463848F1
:10913000FBF732F80021374802F08BFE164A364919
:10914000344805F0F5FD4FF4A6720021204606F0E4
:1091500009FF204605F0F2FB04F11C0005F0EEFBD0
:109160000A230D4A2D49C4F84831204605F0E0FD98
:109170002B4800F0D1F8084A2A49294805F0D8FDC3
:10918000BDE87040FBF7E7BC9CE00320F8DC03205F
:1091900024DD032095DC0320F8DA032069480D0064
:1091A000A8DC03207CDD032013D40D00D14D0D007D
:1091B000905F0100C8DC0320D3480D00B0DC032021
:1091C00000230E0010DD032021C50D0015230E0025
:1091D00034DD032030230E0048DD03204B230E0036
:1091E000B8DC032064200E00E4DC0320E61E0E0041
:1091F000D9470D003CDB032067230E0098DC0320D9
:109200006E230E006CDD032074230E005CDD032052
:10921000FCDC032020DD032071BE0D0011650D0074
:1092200010DB0320D7470D0013B502AB026803F82B
:10923000011DD46819460122A04702B010BD10B527
:10924000036A04461BB901236360002010BD00209F
:10925000586092B2206A02F003F9236A5B68002B1F
:10926000F1D110BD006A08B102F0D4B97047006AAC
:1092700010B1012101F0C0BE704707B501220DF108
:10928000070101F0C9FD01280CBF9DF807004FF050
:10929000FF3003B05DF804FB08B5006A10B1FFF7BA
:1092A000ECFF08BD4FF0FF3008BD38B50546006A39
:1092B00050B1FFF7E2FF431C044604D0286A01695D
:1092C000013901F069FE204638BD0000002370B569
:1092D00043604FF47A7383600E4B0360044628208A
:1092E0000D46164602F066FD206280B12B4605F160
:1092F000280253F8041B40F8041B9342F9D10C22B6
:10930000314604F1100006F0CAFE00232377204600
:1093100070BD00BF84230E004FF47A71002281607B
:1093200002494260016002620274704784230E00A9
:1093300010307047006A20B1407A012894BF0020A5
:109340000120704708B5006A08B101F065FD08BD4D
:10935000036A0BB1186970474FF0FF307047006A1D
:1093600000B1C069704708B5036A014663B1FFF7F1
:10937000F6FF02460846FFF7EBFF47F6FF73101AA9
:10938000984228BF184608BD184608BD10B50446C7
:10939000006A30B101F062FE206A02F013FD002382
:1093A000236210BD006A18B1407A003018BF012056
:1093B000704702F07DB902F07BB92DE9F74300F167
:1093C000380806464FF487720021404606F0CAFD71
:1093D00000242546274606F11C09D6F848319F424D
:1093E00017DABCB94FF47A7003F0A6FE484605F0D0
:1093F00009FA20B3484605F0AEF86B1CDBB23544E1
:10940000032B85F8380094BF0024012400271D4653
:10941000ECE794B102AC002344F8043DB8F8002016
:1094200098F80230ADF8042006F11C00A37004F097
:10943000FDFF204606F05AFC03E0204601E001371C
:10944000CBE703B0BDE8F08338B5C0F8483100F190
:109450001C04054600230968204605F0BFF8204695
:1094600004F0E5FF08B9002038BD2846FFF7A5FF46
:10947000C8386328F7D8204604F0D8FF012038BD4B
:1094800030B585B004460D4668460F4903F08FF8A5
:109490002946684603F066F9016804F11C0003F0F0
:1094A000E2FC684603F03CF82046FFF786FFC83828
:1094B000632804D804F13C0006F018FC01E04FF0EA
:1094C000FF3005B030BD00BFA8230E0010B5044624
:1094D00005F080F92046FFF770FFC83863288CBF7D
:1094E0000020012010BD38B5054609681C3014461F
:1094F00003F0B9FC2846FFF760FF642394FBF3F404
:1095000090FBF3F0231A5842584138BD30B589B06A
:1095100004460D4668460D4903F049F82946684659
:1095200003F020F9014604A803F063F84FF49672A3
:1095300004A92046FFF7D7FF044604A802F0F0FF75
:10954000684602F0EDFF204609B030BDB8230E009A
:1095500030B589B004460D4668460D4903F027F83A
:109560002946684603F0FEF8014604A803F041F8D6
:10957000C82204A92046FFF7B6FF044604A802F05B
:10958000CFFF684602F0CCFF204609B030BD00BFD7
:10959000BE230E0030B589B004460D4668460D491D
:1095A00003F005F82946684603F0DCF8014604A8F4
:1095B00003F01FF8C82204A92046FFF794FF0446D1
:1095C00004A802F0ADFF684602F0AAFF204609B0E9
:1095D00030BD00BFC4230E0030B589B004460D462F
:1095E00068460D4902F0E3FF2946684603F0BAF8E1
:1095F000014604A802F0FDFFC82204A92046FFF797
:1096000072FF044604A802F08BFF684602F088FF50
:10961000204609B030BD00BFC9230E0030B589B067
:1096200004460D4668460D4902F0C1FF29466846CA
:1096300003F098F8014604A802F0DBFFC82204A951
:109640002046FFF750FF044604A802F069FF684671
:1096500002F066FF204609B030BD00BFD3230E00E4
:1096600030B589B004460D4668460D4902F09FFFAB
:109670002946684603F076F8014604A802F0B9FFCF
:10968000C82204A92046FFF72EFF044604A802F0D2
:1096900047FF684602F044FF204609B030BD00BFD6
:1096A000D9230E001FB504460749684602F07FFF24
:1096B000C82269462046FFF716FF0446684602F0B6
:1096C0002FFF204604B010BDE4230E002DE9F04327
:1096D000044600F11C0895B04549404604F138079E
:1096E00003F0C1FB4FF487720021384606F03AFCC4
:1096F00000263546B146D4F84831002B2CDD5EBB40
:109700004FF47A7003F018FD404605F07BF890B1F5
:10971000B5F5877F61D13A88BB78CDF838900EA82F
:10972000ADF838208DF83A3006F0E0FAC8386328F2
:1097300003D9002059E0032DEDDC384606F092FCF9
:10974000373004F1370320449842D4D013F8012F66
:10975000292A08BF0126F7E72649384606F0B2FC59
:1097600000252449002006F0ADFC0028E1D006F0D9
:10977000BDFA02AB43F825000135062DF1D19DF865
:1097800014009DF810309DF80C209DF808100090F2
:1097900008A804F009FB204605F01CF8204604F058
:1097A00045FE09AE144B0E930FCE0FAD0FC53368B7
:1097B0002B70069A079B03EB022292B200230EA99C
:1097C000204604F08DFF204604F031FE204604F0D0
:1097D0002EFE003018BF012007E0404604F0BBFE1B
:1097E0000135631983F837008EE715B0BDE8F083C3
:1097F000EE230E00F3230E00A8270E00F0B585B06F
:1098000005460F461646FFF761FF044660B139462C
:10981000684602F0EEFE324669462846FFF763FED0
:109820000446684602F07CFE204605B0F0BD00000C
:1098300030B589B004460D4668460D4902F0B7FEC2
:109840002946684602F08EFF014604A802F0D1FEC8
:10985000962204A92046FFF7D1FF044604A802F08F
:109860005FFE684602F05CFE204609B030BD00BFD6
:10987000F7230E0030B589B004460D4668460D4901
:1098800002F095FE2946684602F06CFF014604A8E6
:1098900002F0AFFE962204A92046FFF7AFFF044670
:1098A00004A802F03DFE684602F03AFE204609B0E8
:1098B00030BD00BFFD230E0030B589B004460D4613
:1098C00068460D4902F073FE2946684602F04AFFD9
:1098D000014604A802F08DFE962204A92046FFF757
:1098E0008DFF044604A802F01BFE684602F018FE35
:1098F000204609B030BD00BF03240E00B0F5FA6F5A
:1099000030B528BFA0F5FA60104D28BF80B292B2E2
:1099100000230133DCB2A14205D9EC1814F8014C44
:10992000224492B2F5E7022903D9830704BF01322A
:1099300092B200EBC003C11C00EBC30000EB80003F
:10994000431E03EBA100104480B230BD09240E0079
:1099500003784078303BDBB20A2B28BF002303EBAF
:109960008303303800EB4300C0B27047234B3C22E6
:109970000B4430B5B3FBF2F402FB14314171B4FB7C
:10998000F2F102FB1142182402714FF46162B3FB41
:10999000F2F2B2FBF4F104FB1122C270184AB3FBDD
:1099A000F2F300229BB20270017811F003040CBFA5
:1099B0000122002202F5B6759D4207DAC2F57E4209
:1099C0009332134401319BB20170EDE701220D4D3A
:1099D000427041786A1812F8012C1CB9022904BFA0
:1099E0000132D2B292B2934204D39B1A01319BB29C
:1099F0004170EEE70133837030BD00BF80BC92C779
:109A00008051010009240E00B1F5FA6F83709DF8B2
:109A10000030C37028BFA1F5FA619DF804300371CE
:109A200028BF89B29DF808300170427043717047B9
:109A300030B50D4685B004460868496801AB03C3DC
:109A40002889A97A188004AD99700DF10D00FFF7EF
:109A50007FFF15F80C3D2070413B122B30D8DFE81A
:109A600003F0192F2F2D2F172F2F2F0A2F2F202BD9
:109A7000292F2F2F27009DF80530612B06D09DF848
:109A800006306E2B0CBF0623072318E0012316E0D7
:109A9000022314E09DF80630722B0CBF0423082328
:109AA0000DE09DF80630722B0CBF0323052306E062
:109AB000092304E00A2302E00B2300E00C23637077
:109AC00002A8FFF745FFA070106851682B4603C33A
:109AD0002846FFF73DFFE0700DF10700FFF738FF64
