:02000002D0002C
:1040000000400D00B8020E00000006000D00050182
:084010000401D40700000000C8
:04401800C0EB0D00EC
:1040200009480A49884208B505D0094A824202D0A7
:10403000121A0AF023F80748074A0021121A0AF058
:104040002BF8014808BD00BF58DC03206C000E00AF
:104050007CDE032080DE0320F1E7032070B5074EED
:10406000074C07F05BFCA41BA4080025A54200D167
:1040700070BD56F8043B98470135F7E71C000E0069
:1040800060000E0003F0F8BA08B502F007FFBDE8C3
:10409000084007F005BC05F0B5BF05F0B3BF05F05B
:1040A000B9BF0078B0FA80F040097047012303706F
:1040B0007047000010B5074C2168034639B1064827
:1040C000064A006804F0D8FB10B1002323600120E9
:1040D00010BD00BF88E003208CE0032088DE0320B1
:1040E00038B50D4D2B7804460BB9012009E00B497A
:1040F0000B4A096803460B48006804F0BDFB08B989
:10410000002038BD002CF0D02046FFF7D3FF002858
:10411000F6D000232B70E8E784DE032058DC032070
:1041200088DE03208CE0032070B50D4E3368834297
:1041300005460C460ED00120FFF7D2FF08B900203B
:1041400070BD084B084A1868294604F08BFB00280C
:10415000F5D03560054B19780C431C700120EFE752
:1041600058DC03208CE0032088DE032084DE03205B
:1041700010B504460120FFF7B3FF88B1094A4FF498
:1041800000730021013B9BB202F8011B002BF9D107
:10419000054B064A1C60137843F00103137001209D
:1041A00010BD00BF88DE032058DC032084DE03201E
:1041B00070B5C36801338B4205460C46164601D2E2
:1041C000002070BD90F82020C369102A0CBF080A97
:1041D000C80918440D4B1B6883420AD195F820305A
:1041E000102B0B4B0BD1E4B233F8143033600120A9
:1041F000E7E70021FFF798FF0028EFD1E0E704F0A0
:104200007F0453F8243023F07043EFE758DC032099
:1042100088DE03202DE9F3410F4F01910446154636
:1042200000264FF40078019901AA2046FFF7C0FF4D
:1042300078B1237C94F8202008FA03F31E444FF64B
:10424000F873102A18BF3B46019A9A42EBD32E60AE
:10425000012002B0BDE8F081F8FFFF0F0129F8B599
:1042600005460C46174601D80020F8BDC368013347
:104270008B42F9D390F82030C669102B0CBF0B0A83
:10428000CB091E44134B1B689E4217D195F8203072
:10429000102B114B19D1E4B223F814700F4A137884
:1042A00043F0010313702B7E012B82BFAB68F6181D
:1042B0000B4B4FF0010088BF1E60D6E7002130464F
:1042C000FFF732FF0028E1D1CEE704F07F0443F886
:1042D0002470E3E758DC032088DE032084DE03201B
:1042E00088E003202DE9F74F14680646894690467A
:1042F0003CB301340027F368254603F1010B4FF06E
:10430000000AF368534517D95D4588BF022501AA05
:104310002946304688BF2C46FFF74AFF60B1019A14
:104320006B1C9AB91A1B4A4511D16FF0704229468D
:104330003046FFF793FF70B90027384603B0BDE859
:10434000F08F4B1E5F4204685F41D4E71C460AF1C0
:10435000010A1D46D5E7AC420AD205F1FF392A46CB
:1043600049463046FFF77AFF0028E5D04D46F2E790
:10437000D8F8001021B9C8F8004047B90127DCE798
:1043800022463046FFF76AFF0028F4D1D4E7013413
:104390003460D2E773B502230F4E036005460C4626
:1043A00001AA21462846FFF703FF90B100222146CB
:1043B0002846FFF753FF60B195F82020019C4FF687
:1043C000F873102A18BF33469C42E9D3012002B08B
:1043D00070BD0020FBE700BFF8FFFF0FF8B53A4BB8
:1043E000054619601446DAB1042A01D90020F8BD47
:1043F00000210846FFF798FE0028F7D0334A02EB69
:10440000041393F8AE315B06F0D11B3402EB0414B5
:10441000D4F80A30632BE9D9D4F80640002CE5D053
:1044200000212046FFF780FE0028DFD0274BB3F89D
:104430000B20B2F5007FD9D1197C0029D6D0DA89BA
:10444000002AD3D05A7B002AD0D0297600212A71A5
:1044500029740126287C06FA00F18A4204D0411C06
:1044600007282974F6D9C1E7D98A01B9596AA96020
:10447000DA891719EF61B3F811206A8496B21A7CB1
:1044800001FB0272710101F2FF116A6202EB51221B
:104490006A61B3F8131001B9196AA41A0C44C44034
:1044A00040F6F4729442EC6004D80C2385F8203076
:1044B00001209CE74FF6F472944285BFDB6A6B6281
:1044C00010232023F2E700BF8CE0032088DE0320C6
:1044D00005F00CBA7047000010B503682F2B044696
:1044E00004D9074A00210A2005F06CFC23681F2B21
:1044F00083BF03F01F03034823604FF0A04010BDAB
:104500006D990D000003005007B5019001A8FFF759
:10451000E3FF019A01239340C0F8083503B05DF82A
:1045200004FB07B5019001A8FFF7D6FF019A01230C
:104530009340C0F80C3503B05DF804FB10B51021B2
:10454000044608F0BEFC204610BD00007FB50246C0
:1045500008461379946833B1B4B90C4904B0BDE886
:10456000704006F0B1BD0A4B167B0A4D0A49527BDA
:104570000094012E18BF2946CDE90112074A0021F7
:1045800006F0DDFD04B070BD054BEDE7E5EB0D0079
:10459000B6F60D00E1EB0D00DDEB0D00FBEB0D00C1
:1045A000D4EB0D000368C9B29B68184738B50D46B7
:1045B0000446012190B208F07DFB134B1B6893F871
:1045C000500093F8513003F01F0343EA4010FFF707
:1045D0009BFF6572013D0F2D09D8DFE805F00C083F
:1045E000101012120E08080C100E120810104223A0
:1045F000A372204638BDBA23FAE79023F8E7782360
:10460000F6E76023F4E700BF9CE00320054B1B683E
:1046100093F8500093F8513003F01F0343EA401021
:10462000FFF77FBF9CE00320003918BF0121017212
:10463000704770B5064614460D4608F0EDFBB17A9A
:10464000490807F037FF08F0E7FBE9B2FFF7AAFFD8
:1046500008F0E2FBE1B2FFF7A5FF08F0DDFB07F091
:1046600048FF20B9012006F0B5FE012070BD0020F2
:10467000FCE7F8B505460C1D34F8047C34F8026CF0
:10468000394632462846FFF7D4FFFF2F04F10404D1
:10469000F2D1FF2EF0D10120F8BD000038B5437AE9
:1046A000052B04462CD10122FF21FFF7C2FF8022F7
:1046B00012212046FFF7BDFF642006F08BFE257A0D
:1046C000012D1BD10F492046FFF7D3FF0E4920468D
:1046D000FFF7CFFF0D492046FFF7CBFF2A46FF210A
:1046E0002046FFF7A6FF152100222046FFF7A1FF75
:1046F00007492046BDE83840FFF7BBBF0549F8E74A
:1047000038BD00BF84EF0D005CEF0D0030EC0D00F4
:1047100080F20D0054EC0D0070B5044615460E46AF
:1047200008F07AFBA17A490807F0C4FE08F074FB90
:104730003146FFF737FF08F06FFB07F0DAFE08F0AD
:104740006BFBA17A0122D14007F0ADFE08F064FBBB
:1047500003681B69984728B108F05EFB03685B6932
:1047600098472870012006F035FE012070BD00003A
:1047700010B5094C2378BFF35B8FDB070AD42046C2
:10478000FFF78FFC30B10548012105F07DFD204683
:10479000FFF78CFC014810BD90E0032094E003205B
:1047A00007B50190FFF7E4FF019903B05DF804EB52
:1047B00005F022BE7FB51A4B00931A4B1A4D029397
:1047C000002601230C46ADF80C308DF80460FFF78D
:1047D000CFFF694605F0A2FD2B6893F8500093F8CF
:1047E000513003F01F0343EA4010FFF79AFEE0B296
:1047F000FFF7D6FF3046FFF7D3FF2B68044693F848
:10480000500093F8513003F01F0343EA4010FFF7C4
:104810007BFEFFF7ADFF05F068FD204604B070BDDC
:1048200024EC0D0000127A009CE0032001F07F01CF
:10483000FFF7C0BFF0B585B01A4B009300231A4FA5
:104840008DF804300126194B029314460D46ADF83D
:104850000C60FFF78DFF694605F060FD3B6893F83B
:10486000500093F8513003F01F0343EA4010FFF764
:1048700058FEE8B2FFF794FFE0B2FFF791FF3B6804
:1048800093F8500093F8513003F01F0343EA4010AF
:10489000FFF73AFEFFF76CFF05F027FD304605B045
:1048A000F0BD00BF24EC0D009CE0032000127A0054
:1048B00041F08001FFF7BEBF08B505F017F8014BC6
:1048C000186008BD9CE00320106870470368184713
:1048D000012A03D0022A03D0002070470160FBE7C1
:1048E0000B680360F8E7704738B5044D312405EBD9
:1048F000041005F04FFF013CF9D238BD64E20320FB
:1049000010B5012303748368044643B1C068984717
:10491000012363740020BDE8104005F0CBB80068A7
:104920000028F5D083680BB908F0D1FAC368EEE728
:1049300008B5002005F046FB28B105F023FB80F008
:104940000100C0B208BD0120FCE770B50646006852
:104950000C4681681144154605F03AFF2544AC42E7
:1049600005D014F8011B306806F044F8F7E7002082
:1049700070BD00001FB50023019303930C23ADF815
:104980000430044B0293042201AB05F0DBFA05B0BE
:104990005DF804FBC9480D0013B5054B1B788DF875
:1049A00000303C23044607F04FF9204602B010BD0A
:1049B000D4E0032010B50446006808B105F02AFBD6
:1049C000204610BD002340681A46194605F08ABAF1
:1049D00010B58368044613B1032201469847204668
:1049E00010BD38B50568044635B12846FFF7F0FF1D
:1049F0001021284608F065FA20461421BDE8384009
:104A000008F05FBA10B5436904469BB1586805F0D9
:104A100019F878B963695A7C12B9586805F01AF820
:104A20006369586805F01EF860690023636108B186
:104A3000FFF7D7FF606908B1FFF7D3FF201DFFF72D
:104A4000C7FF204610BD10B586B004468DF815206E
:104A5000089AADF81610CDE90132012200920DF14D
:104A600015030DF1160105F037FD204606B010BD07
:104A700073B51E4B1D7806460C46ADB901221A705F
:104A800029462A4601A8019504F098FF019B1E2B98
:104A90000AD103232068A3714FF40023A580A360EB
:104AA00010B105F0B7FA2560B4F90430226843B9B3
:104AB00042B954F8063F3360A388B380304602B051
:104AC00070BD22B19188012903D0042906D00422A7
:104AD00005E092896281A1712381EAE702222381A4
:104AE0004FF6FF73A2716381E3E700BFA0E00320EC
:104AF00008B504F043FF014B186008BD88E70320A8
:104B000030B587B01D4600230446049322B1204BE4
:104B10000593204B029204930023E360049B2160E1
:104B20003BB1022202A9201D9847059B2361049BEB
:104B3000E3601949142008F0C6F930B10022C0E939
:104B40000022C0E9022202744274606190B1134BEA
:104B50001349C0E902340922CDE90005114B0430A4
:104B600004F068FF30B963691B7C4BB9012004F085
:104B7000F5FEF8E760690023636108B1FFF731FFD4
:104B8000FFF7B6FF02A8FFF723FF204607B030BDAE
:104B9000CD480D00D1480D0084FD0D00A9CD0D00BC
:104BA00020F30D0001490D0008B5FFF7A1FFBDE896
:104BB000084005F0D7B9B0F90A3013B100EB031083
:104BC00070471846704710B50346D1E9010210300E
:104BD000824212D3A2F110008860596859B1441A78
:104BE00024114C815860002322F8063C02F8083C4E
:104BF00042F8043C10BD1860F4E70020FAE7826830
:104C000010B54AB14368C468A34237BF5C1C002397
:104C10004460D15428BF836010BD10B50446002104
:104C2000FFF7EDFFA3683BB1D4E90001E368CA1ABE
:104C3000436813444360E160A06810BD0121042073
:104C400004F0B4BE1FB518480E2104F0DFFC044682
:104C500038BB07F061FA154906F049FA012107202F
:104C600008F039F841F2883006F0B4FB21460720FD
:104C700008F031F843F6982006F0ACFB0C4B1B68AB
:104C8000009302224FF49673062102A8FFF7DBFE81
:104C90004FF47A7006F09EFB04B0BDE8104005F0BA
:104CA00000BC04B010BD00BF30E6032027F30D00A8
:104CB000D0E003204B6843608B688360CB68C3609F
:104CC00030B500F1100301F10F0200F11D0412F8DC
:104CD000015F03F8015BA342F9D10B6A036230BDA7
:104CE00070B50546A4B00C4607F016FA296806F020
:104CF000FEF9634906A805F098FD04A804F0CDFA72
:104D000006A912A805F0DCFD9DF811305D49013BB4
:104D100003EB830319440EA805F087FD0EA912A822
:104D200005F075FE9DF810100A22064601F5FA619D
:104D30001BA805F0F4FD1BA9304605F068FE52499A
:104D400005F071FE01460AA805F0BAFD1BA805F0A2
:104D500021FD0EA805F01EFD12A805F01BFD12A8EE
:104D600003F008FF069A494901231BA804F0E6FC5A
:104D70001BA912A8FFF79EFF12A803F03BFF002813
:104D800045D012A803F004FFB0B907F0C5F94049B7
:104D900006F0ADF912A803F021FF06993B4804F094
:104DA0002DFD0699394804F00DFD40B907F0B4F91E
:104DB000384906F09CF902E012A803F00FFF0A9AA6
:104DC000324917231BA804F0B9FC1BA912A8FFF74E
:104DD00071FF12A803F00EFFF8B907F09DF92E49F4
:104DE00004461BA805F021FD0AA91BA805F00FFE2B
:104DF0000168204606F07BF91BA805F0CBFC0AA849
:104E000005F0C8FC06A805F0C5FC24B070BD07F08D
:104E100083F9224906F06BF9C3E7611E032907D81D
:104E2000DFE801F002282A2C1D4912A806F04CF9EF
:104E30009DF8153003939DF814309DF810200293CF
:104E40009DF8133001939DF81230009302F5FA6239
:104E50009DF8113013491BA805F0ECF81BA912A806
:104E600006F032F9296812A806F041F912A803F0F9
:104E7000B5FEC4E70C49D8E70C49D6E70C49D4E79E
:104E80005FF30D006CDD032065F30D0030E60320B9
:104E90006AF30D007EF30D009AF30D008EF30D0002
:104EA000B4F30D00DFF30D00BDF30D00C8F30D00EA
:104EB000D5F30D001FB50849684605F0B6FC012181
:104EC0006846FFF70DFF684605F064FC05F0E9FA57
:104ED00005B05DF804FB00BFFAF30D0070B590B0AB
:104EE00005460C4604A8274905F09FFC294668465C
:104EF00005F09BFC694604A805F089FD224905F0F0
:104F000092FD2146064608A805F08FFC08A9304608
:104F100005F07DFD01460CA805F0D2FC04210CA88B
:104F2000FFF7DEFE0CA805F035FC08A805F032FC02
:104F3000684605F02FFC04A805F02CFC29460CA8B7
:104F400005F073FC11490CA805F082FD06460CA87B
:104F500005F020FC1EB10E48214605F0BCFC294698
:104F60000CA805F062FC0B490CA805F071FD054684
:104F70000CA805F00FFC1DB10748214605F0ABFC5D
:104F800010B070BD0BF40D005AF50D0010F40D00BB
:104F9000A4E0032025F40D00B4E003202DE9F04740
:104FA000B2B09149DFF84892904D29A805F03DFC38
:104FB000042129A8FFF794FE29A805F0EBFB8C49F2
:104FC00029A805F07DFC894929A805F02CFD0123BD
:104FD0000268884905A804F0B1FB29A805F0DAFBAE
:104FE000012205A90EA804F017FC834B1F784FF08F
:104FF000000807F5FA6746460EA803F0FBFD0446D5
:10500000002800F0FB800EA803F0C0FD014601A8B7
:1050100005F00BFC07F080F8044601A805F03FFD01
:105020000A22014629A805F08DFC2999204606F0A0
:105030005EF829A805F0AEFB0EA803F0A9FD002834
:1050400000F0C28001A805F02AFDB84200F0BC8043
:1050500001A805F024FD7B1E984200F0B5800122D6
:105060000EA917A804F0D8FB07F056F8044617A8B5
:1050700003F08CFD0146204606F039F8DFF874A1F4
:1050800017A803F0B7FD002800F0868017A803F0EA
:105090007FFD002873D017A9012220A804F0BCFBD3
:1050A00007F03AF8044620A803F070FD01462046B8
:1050B00006F01DF820A803F09DFD494600283CD0CD
:1050C00029A805F0FDFB294629A805F0ACFC0446FB
:1050D0000EA803F05BFD0146204605F0A4FC29461E
:1050E00005F0A1FC044617A803F050FD0146204638
:1050F00005F099FC294605F096FC044620A803F02B
:1051000045FD0146204605F08EFC0168504604F03E
:1051100075FB044629A805F03DFB0CB108F1010818
:1051200020A803F05BFD17A929A8012204F074FB55
:1051300029A920A8FFF7BEFDBCE729A805F0C0FB00
:10514000294629A805F06FFC04460EA803F01EFDB1
:105150000146204605F067FC294605F064FC04463C
:1051600017A803F013FD0146204605F05CFC01681A
:10517000504604F035FB29A805F00CFB013617A8B2
:1051800003F02CFD0EA929A8012204F045FB29A952
:1051900017A8FFF78FFD73E7494629A805F090FB94
:1051A000294629A805F03FFC04460EA803F0EEFCB2
:1051B0000146204605F037FC01680E4804F010FB5C
:1051C00029A805F0E7FA01360EA803F007FD012231
:1051D00005A929A804F020FB29A90EA8FFF76AFD5C
:1051E00001A805F0D7FA07E715F60D0063F30D00E7
:1051F000D4E5032030E6032090E5032005A803F062
:10520000EDFC6949DFF8B49117A805F00EFB0A22FE
:10521000314601A805F083FB01A917A805F0F7FBAB
:105220006249634E05F0FFFB0A224146054620A86D
:1052300005F075FB20A9284605F0E9FB014629A8E1
:1052400005F03EFB042129A8FFF74AFD29A805F037
:10525000A1FA20A805F09EFA01A805F09BFA17A86C
:1052600005F098FA5349DFF8508129A805F0DDFAD6
:10527000042129A8FFF734FD29A805F08BFA0123A2
:105280004B4A4D4929A804F059FA29A905A8FFF766
:1052900011FD012205A929A804F0BEFA29A90EA82A
:1052A000FFF708FD0EA803F0A5FC0546002846D030
:1052B0000EA803F06BFC014617A805F0B6FA0A2207
:1052C000B91E29A805F02BFB29A917A805F0D2FBC8
:1052D000054629A805F05EFAFDB1314629A805F07A
:1052E000A4FA0EA803F052FC014620A805F09DFA8E
:1052F00020A929A805F08BFB0168404604F07EFA3E
:10530000054620A805F046FA29A805F043FAA5B9F4
:1053100006F002FF494605F0EAFE0EA803F05EFC27
:10532000012205A929A804F077FA29A90EA8FFF7F8
:10533000C1FC17A805F02EFAB4E70134EDE705A883
:1053400003F04CFC184917A805F06FFA0A22294609
:1053500001A805F0E4FA01A917A805F058FB1349C4
:1053600005F061FB0A220546214620A805F0D7FA80
:1053700020A9284605F04BFB014629A805F0A0FA14
:10538000042129A8FFF7ACFC29A805F003FA20A8FE
:1053900005F000FA01A805F0FDF917A805F0FAF9E3
:1053A00032B0BDE8F08700BF1AF60D001EF60D0002
:1053B0005FF30D0023F60D0030E6032087F30D00A8
:1053C00038B5054604F0DAFA044604F0D7FA001BB3
:1053D000A84202D2FFF7E8FBF7E738BD30B5054633
:1053E00087B0194806F0F1F9184804F033F905F0D0
:1053F00057FC05F0D9FC002403A8CDE903448DF83F
:10540000144006F02DFB41F28830FFF7D9FF104819
:10541000234622462146406804F06CFD0D4804F006
:10542000D9FE41F28830FFF7CBFF0B4B1B6800938E
:1054300002222B46062103A8FFF705FB41F2883024
:10544000FFF7BEFF07B030BD4CE2032030E603207B
:1054500030E70320A8E50320D0E0032038B5046836
:1054600005467CB16368013B63605BB923682046F5
:105470009B689847A368013BA3601BB9236820463B
:10548000DB689847284638BD70B5694E694D90B0C5
:10549000694C2378BFF35B8FDB070AD42046FEF705
:1054A00000FE30B10121304604F0EEFE2046FEF74A
:1054B000FDFD4FF6FF720021304604F000FF012190
:1054C000132007F008FC4FF4FA6005F083FF28462C
:1054D000FFF79CF84FF4FA6005F07CFF552200219D
:1054E0002846FFF7E5F900212846FFF79FF95528E0
:1054F00004464DD14F4C514E514DFFF755FB012203
:10550000FF212046FFF795F80DF10E020A212046F3
:10551000FFF702F90DF10F020B212046FFF7FCF80F
:105520009DF80E30262B03D19DF80F30422B6CD006
:10553000314608A805F079F99DF80F309DF80E2046
:10554000294604A805F0B0FA04A908A805F05FFAF6
:1055500001460CA805F0B4F901210CA8FFF7C0FB27
:105560000CA805F017F904A805F014F908A805F02F
:1055700011F941F2883005F02DFF324B1B68009382
:10558000022240F2DC5306210CA8FFF75CFAB4E7D4
:105590002D4908A805F049F90A22214604A805F07A
:1055A000ACF904A908A805F032FA01460CA805F0E8
:1055B00087F901210CA8FFF793FB0CA805F0EAF886
:1055C00004A805F0E7F808A805F0E4F81F4A204908
:1055D0000CA8FFF7E1F90DA8FFF740FF43F698206C
:1055E00005F0F8FE174B1B680093022240F2DC53D3
:1055F00006210CA8FFF727FA4FF47A7005F0EAFEAF
:1056000004F04FFFFFF7D0FA42E701210948094CA7
:10561000FFF70AF8642005F0DDFE0648FFF73EF8C4
:10562000642005F0D7FE00212046FFF7FFF8FAE7D7
:1056300094E0032084E5032090E003207BF60D0036
:10564000A2F60D00D0E0032027F60D006AF60D004B
:1056500074F60D0038B5064DC56104463430FFF7C9
:10566000FDFE204640F8185BFFF7F8FE204638BDE7
:105670000CFD0D0038B504680D467CB1E168A94207
:105680000CD035B129B1284608F03FFD10F0FF0FCE
:1056900004D02046FFF78FFA0446EEE7204638BDD7
:1056A00000F11C02C0E9002200F50772C0E90222E5
:1056B000027E22F07F020276704770B50446B8B1D0
:1056C0000B68B3B18B68556896680133E818B0422F
:1056D0000FD850606DB11A460968284608F0CEFC14
:1056E000237A256023F07F0343F005032372012012
:1056F00070BD237A23F07F0323720020F8E770B196
:10570000037A002903F08003ADBF43F0080343F0A0
:105710000A0349420372B8BF037201600120704757
:1057200070B5037A164613F07F0202BF23F07F03A1
:1057300043F020030372037A08BFC0E9002213F08C
:10574000200304460D460DD0FFF794FF48B93146BB
:105750002046FFF738FA20B1037AC56003F07F03D3
:10576000037270BD1846FCE713B5837B04466BB922
:10577000406801220DF1070105F032FD48B19DF8A6
:10578000073023EAE37363730123A373607B02B0E2
:1057900010BD4FF0FF33F4E770B5044600252046F6
:1057A000FFF7E2FF0D2823D007D8D8B10938C0B2DF
:1057B00001281DD94FF0000016E0202818D02F280E
:1057C000F8D1A5732046FFF7CFFF2A2804D02F2851
:1057D00016D04FF0020007E0A57300262046FFF721
:1057E000C3FF10B94FF0010070BD2F2802D10EB1D8
:1057F000A573D4E7A0F12A035E425E41A573EDE7ED
:10580000A5732046FFF7B0FF0028EBD00A28F7D198
:10581000C5E708B5037A13F0200302D0FFF72AFF8B
:1058200008BD1846FCE70000F0B585B0826800921C
:10583000002601960D46D2E9011353605B1A044617
:1058400002910393FFF790FFA67307462046FFF7E8
:105850008BFF8742A67323D018B94FF0010005B023
:10586000F0BD5C2817D12046FFF77EFF0028F4D05A
:1058700075280CD0104B1A79191D5AB1904203F1BA
:105880000203F8D1487828B94FF00200E7E74FF05B
:105890000400E4E7A67301466846FFF7B0F9D5E7D0
:1058A0006846FFF7BAF9286010B94FF00300D6E751
:1058B0004FF00000D3E700BFA8F60D002F2807D94E
:1058C000392803D95E280CD97A2805D801207047D9
:1058D0002B28FBD02D28F9D0A0F12E035842584197
:1058E00070474028F8D95A28EFE7F0B585B005464B
:1058F0000E46FFF739FF272829D0222827D0AA688B
:10590000009200270197D2E90113284653605B1AE1
:1059100002910393FFF728FF0446F0B1FFF7CEFF93
:10592000E8B121466846AF73FFF769F92846FFF7EB
:105930001BFF0446FFF7C2FF0028F2D16846FFF7BD
:105940006CF90028306014BF0020032003E03146CA
:105950002846FFF769FF05B0F0BD0120FBE70220F4
:10596000F9E7000000280FDD11490023C20741BFFD
:10597000DAB201EB8202D2ED007A20EE270A401063
:1059800003F10103F2D170470A494042002368B194
:10599000C20742BFDAB201EB8202D2ED007A4FEACF
:1059A000600048BF20EE270A0133F0E7704700BFD0
:1059B0008CDC032074DC03202DE9F0410B782B2BC9
:1059C000044610D02D2B0FD1013101260A78A2F107
:1059D0003003092B4FF0000308D92E2A06D00022ED
:1059E000236062602FE001310026EFE74C4F002377
:1059F0004FF00A0C084610F8015BA5F13002D2B254
:105A0000092A09D8BB4208D80CFB03F3D5439D42B1
:105A100003D313440146EDE755B100220A25B3F53F
:105A2000000F02F1010012D3B3FBF5F30246F6E7D3
:105A300007EE903AF8EE677A002E2360C4ED017A03
:105A400014BF0A23082323722046BDE8F081551AAB
:105A500068180A4611F8017BA7F1300CBCF1090F58
:105A600040B2F5D92E2F11D1DFF8C8C00D460A2754
:105A70002A46013511783039C9B2092906D863455B
:105A8000F6D8013807FB031340B2F1E7117801F0B3
:105A9000DF01452935D151782D2920D1951C0127C9
:105AA00000214FF00A0E2A4615F801CBACF1300C5C
:105AB0005FFA8CF8B8F1090F1DD80EFB01C142182E
:105AC000262AF0DD8FB1DFED177A9FED177A002ED1
:105AD00008BFF0EE477AC4ED017A0C23B3E72B2917
:105AE00014BF551C951C0027DAE7DFED107A9FEDF7
:105AF000107A002EECE707B1494212781AB1002360
:105B00006DE70021F9E707EE903A0844B8EE670A1E
:105B1000FFF728FF0EB1B1EE400A84ED010ADCE781
:105B2000999999190000008000000000000080FF92
:105B30000000807FCBCC0C002DE9F04794B080466C
:105B40000D46FFF711FE00240646A2460DF110098E
:105B50003046E7B2FFF7B2FE60B13F2C09D088F8BB
:105B60000EA0404604F80960FFF7FEFD013406462A
:105B7000EEE7274614AB3B44002403F8404C9DF865
:105B80001030742B09D12B7A23F07F0343F00603E6
:105B90002B7201232B60381F09E0662B0CD12B7A66
:105BA0002C6023F07F0343F006032B72781F18BF8D
:105BB000012014B0BDE8F0876E2BECD004A901A839
:105BC000FFF7FAFE9DF80C30019A0A2B09D00C2B36
:105BD00010D0082B17D12B7A23F07F0343F0080352
:105BE00004E02B7A23F07F0343F00A032B722A6030
:105BF0002046DEE72B7A23F07F0343F00C032B7261
:105C0000029B2B60F4E74FF00200D2E773B5054624
:105C10000C46FFF7C1FDC6B2002E39D12846FFF76A
:105C2000A3FD5B2818D008D8222823D0272821D00C
:105C300021462846FFF780FF1AE07B28F8D1237A17
:105C400023F07F0343F02003C4E90066237221465A
:105C5000284600F066F80BE0237A23F07F0343F038
:105C60004003C4E9006623722146284600F012F87A
:105C7000C0B20DE001A92846FFF7D6FDC0B238B981
:105C8000237A23F07F0343F005032372019B2360F3
:105C900002B070BD70B5037B05460E4613B94FF0D8
:105CA000050070BDFFF760FD5B2802D04FF00200D9
:105CB000F7E70023AB732846FFF76EFD10F0FF0FE8
:105CC000EFD12846FFF750FD5D2820D10020A873B2
:105CD000E7E72B7B013B2B732846FFF797FF2B7BD6
:105CE000C0B201332B730028DBD12846FFF754FDE7
:105CF000C4B20CB12046D4E72846FFF735FD5D2835
:105D0000E4D02846FFF730FD2C28CFD1AC732968AA
:105D10003046FEF758FF01460028DAD14FF0030065
:105D2000BFE7F7B5037B06460D461BB94FF00500EC
:105D300003B0F0BDFFF718FD7B2802D04FF0020042
:105D4000F6E70023B3733046FFF726FDC4B2002CFC
:105D5000EED13046FFF708FD7D2839D1B4730BE052
:105D6000037A63F07F030372019BC36007463046EA
:105D7000FFF712FDC4B20CB12046D9E73046FFF759
:105D8000F3FC3A28DAD1337BB473013B33733946E1
:105D90003046FFF73BFF337BC0B20133337300283B
:105DA000C6D13046FFF7F8FCC4B2002CE4D130462F
:105DB000FFF7DAFC7D28D1D03046FFF7D5FC2C2840
:105DC000BCD1B4733046FFF7E7FCC0B20028AFD1B6
:105DD00001A93046FFF789FDC0B20028A8D101997A
:105DE0002846FFF747FC07460028C0D131682846FF
:105DF000FEF7E9FE0028B3D14FF0030098E700005A
:105E00002DE9F0410B782B2B044610D02D2B0FD110
:105E1000013101260A78A2F13003092B4FF000036B
:105E200008D92E2A06D00022236062602FE00131BB
:105E30000026EFE74C4F00234FF00A0C084610F8FD
:105E4000015BA5F13002D2B2092A09D8BB4208D8B9
:105E50000CFB03F3D5439D4203D313440146EDE706
:105E600055B100220A25B3F5000F02F1010012D34B
:105E7000B3FBF5F30246F6E707EE903AF8EE677AE1
:105E8000002E2360C4ED017A14BF0A230823237275
:105E90002046BDE8F081551A68180A4611F8017BC2
:105EA000A7F1300CBCF1090F40B2F5D92E2F11D15A
:105EB000DFF8C8C00D460A272A4601351178303967
:105EC000C9B2092906D86345F6D8013807FB031380
:105ED00040B2F1E7117801F0DF01452935D1517861
:105EE0002D2920D1951C012700214FF00A0E2A46AA
:105EF00015F801CBACF1300C5FFA8CF8B8F1090F52
:105F00001DD80EFB01C14218262AF0DD8FB1DFED4E
:105F1000177A9FED177A002E08BFF0EE477AC4ED8E
:105F2000017A0C23B3E72B2914BF551C951C0027BD
:105F3000DAE7DFED107A9FED107A002EECE707B17B
:105F4000494212781AB100236DE70021F9E707EE04
:105F5000903A0844B8EE670AFFF704FD0EB1B1EEBF
:105F6000400A84ED010ADCE7999999190000008044
:105F700000000000000080FF0000807FCBCC0C0000
:105F800030B50D46D0E9004187B01034204601916C
:105F9000FFF73FFC38B1037A019903F07F03082B28
:105FA00003D00A2B17D0286825E00368DB43DB0FFA
:105FB000002BF8D02046FFF72CFCE0B1037A03F069
:105FC0007F03043B082B25D8DFE803F017170C24C8
:105FD0000C2410243B000368B3F1004F8CBF002356
:105FE0000123E5E7006820EAE07004E00068B0F112
:105FF000004F0FD8404207B030BD016803A8FFF73B
:10600000FFFE9DF8143003980A2BF0D00C2B03D020
:10601000082BE8D00020EEE7DDED047A9FED0A7A48
:10602000F4EEC77AF1EE10FAF4DB9FED087AF4EEA5
:10603000C77AF1EE10FAEDD8FDEEE77A17EE900A86
:10604000D9E7D0ED007AE9E7000000CF0000004F6B
:1060500037B504460846019108F09CF802462068CE
:1060600001990368DD68A84763681844606003B05D
:1060700030BD10B50446006803689B6898476368A4
:106080001844606010BD000070B505460C4619B993
:106090001049FFF7DDFF70BD2221FFF7EAFF013C49
:1060A00014F8011F39B10C4B1E7876B15A788A4228
:1060B00006D00233F8E722212846FFF7DAFFEAE7A5
:1060C0005C212846FFF7D5FF31462846FFF7D1FF70
:1060D000E6E700BFB7F60D00A8F60D0000000000CF
:1060E000F8B5DFED577AB4EEE70A0623F1EE10FAC1
:1060F0002DED028B0446B0EE408A837244DB514A98
:106100005149142300252027D2ED057AF4EEC87AF0
:10611000F1EE10FA06D85818D0ED007A3D4428EE7A
:10612000278A2DB2043B181D4FEA6707A2F104022B
:10613000EAD14FF0FF36B5EEC08AF1EE10FA27DD56
:1061400018EE100A07F03CF93BA3D3E9002307F04F
:106150000BFCE8B13D493B4833461A0618D401EB25
:106160008306D6ED007AF4EEC87AF1EE10FA4FEA23
:10617000830206DD0244D2ED007AED1B28EE278A69
:106180002DB27F10013BE8E7202705260025D2E746
:10619000FCEEC87A2E49258117EE902A17EE903A28
:1061A000C4ED007A0A26092B07D9B1FBF6F1B3FB3F
:1061B000F6F3A07A0138A072F5E707EE902AB8EE60
:1061C000670A07EE901A38EE408AB8EEE70A28EE22
:1061D000008AFCEEC87AB8EE677A17EE900A38EEBD
:1061E000478A38EE088ABCEEC88A18EE103A034493
:1061F0008B420FD263600A216368B3FBF1F201FBAB
:106200001233A3B994F90A30002B10DD013B626010
:10621000A372F1E70023013263602260002DEAD00F
:10622000092A81BF0135012325812360E3E7BDEC05
:10623000028B2046F8BD00BFF168E388B5F8E43E64
:106240008096184B8CDC032074DC03205CDC03207C
:1062500040420F0010B5044600680368521ADB681C
:10626000984763681844606010BD70B586B00DF142
:1062700016031A460A26B1FBF6F506FB1514303450
:1062800003F8014D0C46092C2946F4D81946FFF7AE
:10629000E1FF06B070BD000070B52DED028BB4EECD
:1062A000400AF1EE10FA8AB00446B0EE408A07D0F8
:1062B0003F492046FFF7CCFE0AB0BDEC028B70BD13
:1062C000B5EE400AF1EE10FA06D070EE007AB4EEA8
:1062D000670AF1EE10FAEBD0B5EEC08AF1EE10FAD3
:1062E00005D52D212046FFF7C4FEB1EE488AB0EE59
:1062F000480A01A8FFF7F4FE01992046FFF7B5FF11
:106300009DF90E10E1B1029B0DF11F050A460A2608
:10631000013A52B2501C08D0B3FBF6F006FB103322
:10632000303305F801390346F2E7C9B208AA531A17
:106330002E20C94303F8010C11442046FFF78AFFC1
:10634000BDF90C30002B17DA1A492046FFF780FE02
:10635000BDF90C300DF126015B420A460A2593FB7C
:10636000F5F005FB1033303301F8013D03460028FA
:10637000F5D12046FFF76EFFBDF90C30002B9BDDF9
:1063800065212046FFF775FE0DF12601BDF90C30A1
:106390000A460A2593FBF5F005FB1033303301F86C
:1063A000013D03B20028F5D12046FFF753FF83E7F4
:1063B000B7F60D00BCF60D0038B5027A02F07F0387
:1063C0000C2B05460C460DD812F07E0F0ED0023B6A
:1063D0000A2B0BD8DFE803F04E4E4949640A620AE3
:1063E000580A0C00202B22D0402B07D031495AE00C
:1063F00090ED000A0846FFF74FFF38BD5B212046AD
:10640000FFF737FE2D686DB128462146FFF7D4FF10
:106410002846FEF7D0FB054620B12C212046FFF789
:1064200028FEF0E75D212046FFF723FEE5E77B210C
:106430002046FFF71EFE2D68ADB1E9682046FFF744
:1064400023FE3A212046FFF714FE28462146FFF797
:10645000B3FF2846FEF7AFFB054620B12C212046AE
:10646000FFF707FEE8E77D21DDE701682046FFF73B
:106470000BFEC2E708680368D5E90012DB6898479D
:10648000636818446060B8E705682D212046FFF76F
:10649000F0FD29462046FFF7E8FEAEE70168F9E780
:1064A000036823B104492046FFF7D2FDA5E703495D
:1064B000F9E700BFB7F60D00BFF60D00C4F60D00FA
:1064C00010B5ADF5167D0146019006AC444803F0C9
:1064D00095F92046019A4249172303F02FF92046E7
:1064E00002F088FB78B905F017FE3E4904F0FFFD85
:1064F0000FA83C4A3C49FEF74FFA10A8FEF7AEFF42
:106500000DF5167D10BD0FA8FFF7CAF837490FAA81
:1065100013A8FFF705F936490FAAFFF7CEF835495A
:106520000FAA13A8FFF7FCF833490FAAFFF7C5F825
:1065300032490FAA13A8FFF7F3F831490FAAFFF762
:10654000BCF80FAA2F4913A8FFF7EAF82E4B1968D9
:10655000FFF7D5F80FAA2D4913A8FFF7E1F82C4B48
:106560001968FFF7CCF82B490FAA13A8FFF7D8F842
:1065700029490FAAFFF7A1F828490FAA13A8FFF786
:10658000CFF827490FAAFFF798F826490FAA13A8B2
:10659000FFF7C6F824490FAAFFF78FF823490FAA7F
:1065A00013A8FFF7BDF822490FAAFFF786F80023CA
:1065B00002A913A803930294FFF7FEFE039B53B9AD
:1065C0001C4902A804F031F902A80221FEF788FB59
:1065D00002A804F0DFF8204602F000FB90E700BFBD
:1065E00030E60320CAF60D00E7F60D00EDF60D00CB
:1065F000A4E00320F1F60D00D4E50320FDF60D0024
:10660000B4E0032006F70D00D8E0032013F70D00D7
:10661000A4DC03201FF70D0054E203202CF70D002B
:10662000E4E5032039F70D0098E5032046F70D0057
:106630003CE203204EF70D0013B5044608460191D5
:1066400007F0A8FD019902462046FEF77EF963682F
:106650001844606002B010BD10B50446006804F034
:10666000C9F963680133636010BD000070B5054669
:106670000C4619B91049FFF7DFFF70BD2221FFF763
:10668000EBFF013C14F8011F39B10C4B1E7876B1B9
:106690005A788A4206D00233F8E722212846FFF7CB
:1066A000DBFFEAE75C212846FFF7D6FF31462846A4
:1066B000FFF7D2FFE6E700BFB7F60D00A8F60D0022
:1066C00010B5521A0446FEF740F96368184460603A
:1066D00010BD70B586B00DF116031A460A26B1FB3F
:1066E000F6F506FB1514303403F8014D0C46092C61
:1066F0002946F4D81946FFF7E3FF06B070BD000045
:1067000070B52DED028BB4EE400AF1EE10FA8AB0AE
:106710000446B0EE408A07D03F492046FFF78CFF81
:106720000AB0BDEC028B70BDB5EE400AF1EE10FA76
:1067300006D070EE007AB4EE670AF1EE10FAEBD0F4
:10674000B5EEC08AF1EE10FA05D52D212046FFF7EF
:1067500083FFB1EE488AB0EE480A01A8FFF7C0FCFB
:1067600001992046FFF7B5FF9DF90E10E1B1029B9C
:106770000DF11F050A460A26013A52B2501C08D0F4
:10678000B3FBF6F006FB1033303305F8013903464E
:10679000F2E7C9B208AA531A2E20C94303F8010C24
:1067A00011442046FFF78CFFBDF90C30002B17DA9F
:1067B0001A492046FFF740FFBDF90C300DF12601C4
:1067C0005B420A460A2593FBF5F005FB1033303394
:1067D00001F8013D03460028F5D12046FFF770FF80
:1067E000BDF90C30002B9BDD65212046FFF734FFFF
:1067F0000DF12601BDF90C300A460A2593FBF5F090
:1068000005FB1033303301F8013D03B20028F5D108
:106810002046FFF755FF83E7B7F60D00BCF60D00E5
:1068200038B5027A02F07F030C2B05460C460DD8D2
:1068300012F07E0F0ED0023B0A2B0BD8DFE803F0DC
:106840004E4E4949630A610A570A0C00202B22D098
:10685000402B07D0304959E090ED000A0846FFF779
:106860004FFF38BD5B212046FFF7F6FE2D686DB166
:1068700028462146FFF7D4FF2846FEF79CF9054637
:1068800020B12C212046FFF7E7FEF0E75D212046EE
:10689000FFF7E2FEE5E77B212046FFF7DDFE2D68EE
:1068A000ADB1E9682046FFF7E1FE3A212046FFF747
:1068B000D3FE28462146FFF7B3FF2846FEF77BF9B3
:1068C000054620B12C212046FFF7C6FEE8E77D21D2
:1068D000DDE701682046FFF7C9FEC2E7D0E90012F4
:1068E0002046FEF732F8636818446060B9E705682F
:1068F0002D212046FFF7B0FE29462046FFF7E9FE8E
:10690000AFE70168F9E7036823B104492046FFF7C0
:1069100093FEA6E70249F9E7B7F60D00BFF60D00B2
:10692000C4F60D0070B5D1E9004188B010340546B9
:10693000204616460191FEF76CFF98B3037A019941
:1069400003F07F03043B012B2CD82046FEF761FFA8
:10695000044668B1037A03F07F03043B012B07D898
:10696000016829B1284603F060FF284608B070BDD1
:1069700004AE0F49304603F058FF002302960393FC
:106980005CB102A92046FFF74BFF3146284603F0D1
:106990007DFF304603F0FEFEE7E7064902A8FFF759
:1069A0004BFEF2E73146284603F08AFFDDE700BFE1
:1069B000B6F60D00B7F60D002DE9F04FADF5177DD9
:1069C00006AE0D46024682490123304602F0B6FE6D
:1069D000304602F00FF90FAC05F1080B05F11C0A67
:1069E00005F1380905F16A0805F17E0700285ED037
:1069F0002046FEF755FE23686360E368A360237EAC
:106A0000049423F07F0323760A238DF8143013A90E
:106A1000002302A8CDE902468DF81630FFF7F6F8FC
:106A200010F0FF0F0CD19DF81530002B4DD0237EB8
:106A300013F0600F49D103F07F03043B012B44D9CD
:106A400005F06AFB634904F052FB02A8614A6249FF
:106A5000FDF7A2FF03A8FEF701FD304602F0BEF8E5
:106A600029465E4803F037FF59465D4803F033FF7F
:106A700051465C4803F02FFF5B4B2A6B1A605B4B5F
:106A80006A6B5B481A60494603F025FF4146594846
:106A900003F021FF3946584803F01DFF05F192012C
:106AA000564803F018FF0DF5177DBDE8F08F05F08F
:106AB00033FB534904F01BFB2046514A4649FDF77E
:106AC0006BFF10A8FEF7CAFCCAE74E4B434A01937E
:106AD000694602A80094FFF725FF0299082228467C
:106AE00007F043FB02A803F055FE474B3C4A0193D5
:106AF000694602A80094FFF715FF02991422584630
:106B000007F033FB02A803F045FE404B354A0193E2
:106B1000694602A80094FFF705FF14220299504627
:106B200007F023FB02A803F035FE394B2E490393EF
:106B300002A80294FFF724FA364B28632B490393EB
:106B400002A80294FFF71CFA334B6863694602A857
:106B5000274A01930094FFF7E5FE02993222484646
:106B600007F003FB02A803F015FE2C4B214A01930A
:106B7000694602A80094FFF7D5FE02991422404608
:106B800007F0F3FA02A803F005FE254B1A4A019319
:106B9000694602A80094FFF7C5FE02991422384600
:106BA00007F0E3FA02A803F0F5FD1E4B134A019328
:106BB000694602A80094FFF7B5FE0299322205F15A
:106BC000920007F0D2FA02A803F0E4FD45E700BF07
:106BD00030E6032066F70D0091F70D00A4E00320D6
:106BE000D4E50320B4E00320D8E00320A4DC032094
:106BF00054E20320E4E5032098E503203CE203206F
:106C000098F70D00EDF60D00F1F60D00FDF60D0004
:106C100006F70D0013F70D001FF70D002CF70D0000
:106C200039F70D0046F70D0030B58FB084490446A2
:106C300005A803F0FAFD042105A8FEF751F805A800
:106C400003F0A8FD7F4905A803F03AFE7E4B7F4A7A
:106C50001B6812887E4805A902F01CF8054605A8A5
:106C600003F098FD5DB97B4905A803F0DEFD05A89A
:106C70000221FEF735F805A803F08CFD59E07649AE
:106C800005A803F01DFE724805A902F03FF805466D
:106C900005A803F07FFD0DB97049E5E7704905A827
:106CA00003F00EFE6A4805A902F052F8054605A851
:106CB00003F070FD0DB96B49D6E7214605A803F036
:106CC000FFFD634805A902F065F8054605A803F035
:106CD00061FD002D46D1644905A803F0A6FD0321FE
:106CE00005A8FDF7FDFF05A803F054FD214605A802
:106CF00003F0E6FD564805A902F06EF8054605A822
:106D000003F048FDC5B9594905A803F08EFD214699
:106D100005A803F07CFE014601A803F0D1FD022185
:106D200001A8FDF7DDFF01A803F034FD05A803F07D
:106D300031FD00200FB030BD4D4905A803F075FDB1
:106D4000214605A803F063FE014601A803F0B8FD43
:106D5000032101A8FDF7C4FF01A803F01BFD05A84E
:106D600003F018FD434905A803F05FFD424905A85B
:106D700003F04DFE414903F056FE014601A803F021
:106D80009FFD01A9324802F00FF9044601A803F063
:106D900001FD05A803F0FEFC0CB9394964E7394947
:106DA000394802F02BFD20B905F0B6F9374904F057
:106DB0009EF905A8334A3449172302F0BFFC05A801
:106DC00001F018FF88B1224C204605F0CEFBB8B187
:106DD000204605F0D1FD0028F6D0204605F085FCC0
:106DE000C1B205A801F04CFEF2E7294901A803F061
:106DF0001CFD01A80221FDF773FF01A803F0CAFCE6
:106E000005A801F0EBFE0A2004F0E4FA104801F0B6
:106E10005DFF0F4802F002F80A2004F0DBFA1D497A
:106E200001A803F002FD04210DEB0100FDF758FF5E
:106E300001A803F0AFFC18491248FFF7BDFD00BFE1
:106E4000C8F70D0054E20320ACDD0320A8DD0320C9
:106E5000F0E00320CBF70D00E4E50320E8F70D0098
:106E600098E50320F5F70D00D5F40D00EDF40D00C5
:106E700000F50D0002F80D00A4E0032016F80D0047
:106E800022F80D0034F80D0030E603203FF80D0025
:106E90005DF80D0079F80D00A8DC03202DE9F04F16
:106EA000AE4FAF4EB3B03D463046FDF78BFD03F01D
:106EB00061F8AC493C6806A803F0B7FCFDF774FE26
:106EC00004A8A949FDF7D4FD04A803F03DFB80B157
:106ED000A64928A803F0A9FC042128A8FDF700FF73
:106EE00028A803F057FC4FF47A7004F073FA03F00B
:106EF000D8FA04A803F02FFB002800F047810722EE
:106F0000002311461046D5F80080009304F06BFA78
:106F1000002319461A46706802F0C4FF944928A855
:106F200003F083FC28A80421FDF7DAFE28A803F06B
:106F300031FC00227068114602F0CCFF0446E8B133
:106F4000DFF84082DFF840922B684FF4967A0AFB14
:106F500003FABAF1000FC0F2F380062005F0D4FE68
:106F60000446002840F0D880062005F0CDFE002819
:106F700044D16420643404F02DFAF5E708F1FF38B9
:106F80004FF47A7004F026FAB8F18C0FD1DC0120AE
:106F900004F048FA0121072005F08CFE642004F07B
:106FA00019FA744928A803F040FC042128A8FDF729
:106FB00097FE28A803F0EEFB0121072005F08BFEC9
:106FC00041F2883004F006FA2146072005F083FEDE
:106FD0004FF47A7004F0FEF9674B1B68009340F29F
:106FE000DC530222062128A8FDF72DFD4FF47A700C
:106FF00004F0F0F906A803F0CDFB55E7314628A8C8
:1070000005F0E2F841461AA803F00FFC0A222A997B
:1070100016A803F084FC16A91AA803F0F8FC494648
:1070200003F001FD01461EA803F04AFC04211EA83E
:10703000FDF756FE1EA803F0ADFB16A803F0AAFB51
:107040001AA803F0A7FB012004F0ECF901210720A6
:1070500005F030FE642004F0BDF94FF0000B002174
:10706000072005F038FE4FF4FA7004F0B3F901215F
:10707000072005F030FE0BF1010B4FF4FA7004F01D
:10708000A9F92A9B6FF0090293FBF2F35B45E6D264
:107090000722002310460093114604F0A4F9FDF7DF
:1070A00083FD642004F096F9FDF722FDB4F5FA6F34
:1070B0000AF1FF3A7FF74DAF42F20F739C423FDD7A
:1070C000012004F0AFF90121072005F0F3FD02F0E3
:1070D00051FFD5F800A002F055FF044618BB014649
:1070E000072005F0F8FDFA2004F074F901210720CB
:1070F00005F0F1FDFA2004F06DF9BAF18C0F0DDC0A
:10710000012004F08FF90121072005F0D3FD642050
:1071100004F060F9194945E70024B9E70AF1FF3A9C
:10712000FDF7E6FCD7E74FF0FF31154804F094FC7B
:107130000722002300931146104604F054F903E798
:107140000021072005F0C7FD0A2004F043F90A4B8F
:107150001B6800934FF4167343E700BFACDD0320B8
:1071600030E70320B6F60D009CE603207FF80D0003
:1071700082F80D008FF80D00D0E00320B3F80D0069
:107180008CE70320A1F80D00B0F80D00BA4928A83B
:1071900003F04BFB042128A8FDF7A2FD28A803F06B
:1071A000F9FA02F0EBFB00227068114602F092FE41
:1071B000B0B94FF47A70013C04F00CF9FDF7F4FC1F
:1071C000002CF0DCAD4BAE49012228A81A7003F068
:1071D0002CFB28A80321FDF783FD28A803F0DAFA89
:1071E0002E6802F0CBFB074602F0CCFE0446E8B95D
:1071F0004FF47A70013E04F0EDF8FDF7D5FCAA2EAD
:10720000F2DCA04B8DF8A840012228A81A70CDE925
:10721000284404F025FC9C4928A803F006FB28A874
:107220000321FDF75DFD28A803F0B4FA2E6802F0F3
:10723000A5FB964904461EA803F0F7FAE41B0A22B0
:107240004FF47A711AA8B4FBF1F103F08EFB1AA97E
:107250001EA803F0DCFB014628A803F031FB042143
:1072600028A8FDF73DFD28A803F094FA1AA803F01A
:1072700091FA1EA803F08EFA854804F041FA06211F
:107280000AA803F086FB824804F01EFA06210EA825
:1072900003F07FFB7F491EA804F096FF7E4912A8E9
:1072A00003F0C3FA0AA912A803F0B1FB7B4903F06B
:1072B000BAFB0EA903F0ABFB794903F0B4FB0A2239
:1072C0000446209916A803F02AFB16A9204603F0CD
:1072D0009EFB744903F0A7FB04461EA804F010F9B6
:1072E00006211AA803F055FB1AA9204603F08FFBCC
:1072F0006D4903F098FB014628A803F0E1FA042148
:1073000028A8FDF7EDFC28A803F044FA1AA803F01A
:1073100041FA16A803F03EFA12A803F03BFA1EA8A1
:1073200004F0EEF8F3EE097AB4EEE70AF1EE10FAA3
:10733000524B40F1BF8001221A705C4C28A801F02A
:10734000ACFFBDF8A4302898A380206004F0E4FED0
:1073500021780A22054601F5FA6128A803F0DFFA30
:107360002899284603F0B0FE28A803F013FA04F089
:10737000D3FE2F2103F0ACFE04F0CEFE0A22054618
:10738000617828A803F0B9FA2899284603F09CFEF2
:1073900028A803F0FFF904F0BFFE2F2103F098FEA8
:1073A00004F0BAFE0A220546A17828A803F0A5FA3F
:1073B0002899284603F088FE28A803F0EBF904F08A
:1073C000ABFE202103F084FE04F0A6FE0A2205464F
:1073D000E17828A803F091FA2899284603F074FE72
:1073E00028A803F0D7F904F097FE3A2103F070FEC5
:1073F00004F092FE0A220546217928A803F07DFABE
:107400002899284603F060FE28A803F0C3F904F089
:1074100083FE3A2103F05CFE04F07EFE0A226179CD
:10742000054628A803F069FA2899284603F04CFE7F
:1074300028A803F0AFF904F06FFE03F04CFEA37828
:10744000012B04D1E3780F2B01D1FDF7A7FD637960
:10745000019323790093E378A278154928A802F0D4
:10746000E9FD28A906A803F036FA06A91AA803F030
:1074700027FA1AA8FEF708F8CEF80D0096E50320C3
:10748000D2F80D00DCE00320DEF80D0085F50D00DC
:107490004CE2032030E70320EAF80D00F0F80D007D
:1074A000F5F80D00FCF80D00D3F30D0090E5032076
:1074B0003DF90D001B78002B7FF43FAF5C4B1C782F
:1074C000002C40F097805B4B5B491B788DF80030B7
:1074D00022463C2328A804F0B7FB29A8FDF7BEFFED
:1074E000564B57491B788DF8003022463C2328A87C
:1074F00004F0AAFB29A8FDF7B1FF0A9A514928A870
:10750000FDF74AFA29A8FDF7A9FF20990A2228A821
:1075100003F005FA289A4C491AA8FDF73DFA1BA872
:10752000FDF79CFF28A803F035F902F02BFD10B100
:10753000204602F03FFDFDF7FBF918BBA92E1BDC2E
:10754000424928A803F071F9022128A8FDF7C8FBD9
:1075500028A803F01FF93E4E2C683E4D29463046C0
:1075600003F076FA002845D0002C43DD4FF47A7002
:1075700003F030FF013CF1E74FF4FA7003F02AFF0B
:10758000013ED8E7A92EDBDD03F0B2FE0028D7D0FC
:1075900003F00CFF074603F001FF804603F0F4FE02
:1075A000814603F0D3FE044603F0DAFE064603F0FC
:1075B000E1FEF6B2C0B2E4B25FFA89F35FFA88F294
:1075C000B9B202900196009428A801F065FD28A8A0
:1075D00001F0F7FDFDF7ACF91F4A204928A8FDF797
:1075E000DBF929A8FDF73AFF1D4928A803F01DF98A
:1075F0000421AAE71B491AA803F017F91A491AA887
:1076000003F005FA194903F00EFA014628A803F021
:1076100057F928A8FFF708FB28A803F0BBF81AA819
:1076200003F0B8F8124B13491868FEF749FF84E6D7
:10763000DCE00320D5E0032025F40D00D4E0032096
:1076400010F40D0004F90D000DF90D0012F90D00F4
:10765000D4E5032037F90D0024F90D0091F70D0052
:1076600031F90D0002F80D00A4E0032063F30D00D2
:10767000E0E00320A8DC032010B588488EB0FDF7B9
:10768000A1F9874804F0C5F8854803F09EFF8548B6
:1076900002F08BFDFDF788FA834A8449844804F0A0
:1076A000CAF984498448FDF765F900248349844870
:1076B000FDF760F98349844823462246CDE900441A
:1076C00002F070FC012322467E498048CDE9004447
:1076D00002F068FC4FF0FF317D4804F0BDF94FF433
:1076E00096717B4804F0B8F9B9EE040A03F0E0FDA6
:1076F0000121132005F0DEFA0121072005F0DAFA56
:107700002146082005F0D6FA0121072005F0D2FA1B
:107710002146062005F0CEFA05F07EFB6D4904F007
:107720008FFE05F079FB04F08FFEFDF78BFA5C48C5
:1077300003F0CAFFDFED687A684B20EE270AD3ED2D
:10774000007AF8EEE77AB4EEE70AF1EE10FA2ED5F9
:10775000634906A803F069F8514803F0B5FF062114
:1077600002A803F016F902A906A803F050F95D4932
:1077700003F059F901460AA803F0A2F801210AA86A
:10778000FDF7AEFA0AA803F005F802A803F002F824
:1077900006A802F0FFFF2146132005F09CFA4FF4E3
:1077A0007A7003F017FE4FF46160FDF717FE4E4943
:1077B00006A803F03AF8002211460AA80A9202F03D
:1077C000FDF80A220A9902A803F0A9F802A906A85E
:1077D00003F01DF901460AA803F072F804210AA873
:1077E000FDF77EFA0AA802F0D5FF02A802F0D2FF48
:1077F00006A802F0CFFF01F0C3FC04F08DFC4FF4AB
:10780000E13104F07DFC394801F017FE384906A843
:1078100003F00BF8374902A803F007F802A906A8FD
:1078200003F0F5F801460AA803F04AF804210AA873
:10783000FDF756FA0AA802F0ADFF02A802F0AAFF6F
:1078400006A802F0A7FF294801F09CFCF8B92A49D4
:107850000AA802F0EAFF02210AA8FDF741FA0AA8E5
:1078600002F098FF254A26490AA801F029FC0AA837
:1078700001F0A7FC41F2883003F0ACFD02F011FEEC
:10788000204B21491868FFF797F80EB010BD174834
:1078900001F0CFFD154801F0D0FDF1E730E70320FE
:1078A0004CE20320A8E5032052F90D0089540D0095
:1078B0000BBA0D00D4E503205BF90D00B4E0032002
:1078C00068F90D00DD4E0D0025F40D0010F40D00DB
:1078D0008CE70320A08601000000C842A4DC03203E
:1078E00071F90D0095F90D0098F90D00D0E5032010
:1078F000A5F90D00ABF90D00B1F90D00C5F90D00AA
:10790000CEF90D00E0E00320A8DC032010B524210F
:10791000044605F0D6FA204610BD00005E4B70B557
:1079200000241C605D4B5E4D1C705E4B01261E707A
:1079300001F0DCFF5C4BAB6030462C60AC80AC717E
:1079400002F058FA594A5A49284605F0B5FA304625
:10795000214602F05FFA21465648574D574E03F034
:107960005DFE524A5649534805F0A6FA4FF400739B
:10797000544A55495548FDF7C3F84C4A54495348B1
:1079800005F09AFA2146534801F03EFB524953480C
:1079900002F04BFF454A5249504805F08DFA5149D3
:1079A000514802F042FF414A4D494F4805F084FAE0
:1079B0004E494F4802F039FF3C4A49494C4805F0CE
:1079C0007BFA4C494C4802F030FF384A44494A4857
:1079D00005F072FA49494A4802F027FF334A404904
:1079E000474805F069FA28193146103402F01DFFA6
:1079F000B4F5487FF7D12D4A4249434C002005F0A9
:107A00005BFA4249424802F010FF284A3449404894
:107A100005F052FA3F49404802F007FF234A304937
:107A20003D4805F049FA3D493D4802F0FEFE1F4A37
:107A30002B493B4805F040FA052211463948FCF72E
:107A4000B5FD0021384802F034FB184A3749364862
:107A500005F032FA4FF4A6720021204606F01CFB16
:107A6000204605F02DF804F11C0005F029F80A2342
:107A7000C4F848310D4A2E49204605F01DFA2D481C
:107A800001F078F8094A2C492A4805F015FABDE8B2
:107A90007040FDF7D3B800BFD0E00320D4E003204E
:107AA000C4E00320D5E003200000FFFF80DE0320B8
:107AB000B5490D004CE2032064E20320B6F60D0048
:107AC0003DB60D00B54E0D00905F0100F4E50320BA
:107AD000054A0D0090E50320DAF90D0054E2032079
:107AE00095A70D00EAF90D00E4E50320EEF90D007D
:107AF00098E50320F7F90D003CE2032034F80D006F
:107B0000E0E00320E9480D00F0E0032003FA0D0057
:107B1000D4E5032009FA0D00A4E003200FFA0D00BC
:107B2000B4E0032084E50320A8E50320D1A00D00E4
:107B300055560D00ACE50320E7480D00704710B521
:107B40002821044605F0BDF9204610BD10B500F10E
:107B50000C0204460121406AFCF7C4FB60B1236AB1
:107B60002BB9237AE268226263F07F032372237ABF
:107B700043F020032372012010BD70B50646FFF7C5
:107B8000E5FF08B9002070BD736AF5681A7C023DF4
:107B900095405A691B7915442B449D4207D05C1EC1
:107BA0002046FCF7E5FA23460028F6D1EAE7736A97
:107BB0001A7C4FF4007303FA02F2F3691344F36181
:107BC0000120E0E710B504464069FCF7ADFA18B1B2
:107BD000237E024800EB431010BD00BF88DE032067
:107BE000002270B5013813462E2410F8015F202DB5
:107BF00008D0082A02BFCC545D1CEBB20678CE54E4
:107C00005D1CEBB20132D2B20B2AEED10022CA5473
:107C100070BD00002DE9F0430A4606464B1E85B0B4
:107C20000A31202003F8010F9942FBD100254FF0C3
:107C3000070816F8013B73B32E2B06D1B8F10A0FD3
:107C400017D008254FF00A08F3E7164CEC4604F16C
:107C50001009674620686168E646AEE8030008340C
:107C60004C45F446F6D1394611F8010B18B1834260
:107C7000FAD1002013E0A845FBD3A3F121015D292F
:107C8000F7D8A3F1610119299CBF203BDBB2691C25
:107C90005355CDB2CDE71078203818BF012005B07C
:107CA000BDE8F08315FA0D0038B5427A04460D465A
:107CB0000AB1002038BD91F82030102B0ED10223DC
:107CC000437202624B8C5B01C36100230120C4E953
:107CD00003336562207263612376EBE7202BE8D1E2
:107CE00003234372496A016200F11C022846FCF733
:107CF00091FA0028E9D1DCE72DE9F74F437A0446F1
:107D00000F46154623B94FF0FF3003B0BDE8F08FA2
:107D1000037ADA07F7D5C3690269DFF8D8A0DFF87C
:107D2000D8B09B1A9D4288BF9DB2A846B8F1000FFB
:107D30005CD0637A2269606A022BC2F308064FEABC
:107D4000522123D1406A0844C6F50073227A98452F
:107D5000CCBF1FFA83F9C146530602D4B9F5007FA0
:107D600003D1DAF8002082422DD10021FCF7DCF9A2
:107D70000028C8D01E4B1E4406EB09007A1E86421E
:107D80002BD016F8011B02F8011FF8E70379013B1D
:107D90000B405FFA83F92EB9B9F1000F02D152B945
:107DA000226AE260626AE068117C526902388840A7
:107DB00010444844C8E7E16804F10C02FCF7F8F904
:107DC0000028EFD19FE701460097DBF800004B4603
:107DD000324600F042FD002895D02269A8EB090840
:107DE0004A444F4422611FFA88F89FE728B28CE783
:107DF00088DE032058DC03208CE0032038B5437A6A
:107E0000012B05460C4617D90369DA0614D1202246
:107E100021462846FFF770FF40B2202809D1237879
:107E20006BB1E52BF3D02E2BF1D0E37A1B07EED408
:107E300038BDC01740B2FBE74FF0FF30F8E71846F7
:107E4000F6E7000037B5437A012B044609D90369E8
:107E500001220DF10701C3F34315FFF74DFF012880
:107E600001D0002005E0236903481F33236100EBA4
:107E7000451003B030BD00BF88DE0320F8B5437A5B
:107E800004460E460BB90020F8BDC2698A42FAD3F7
:107E9000022B02D126610120F6E709B9E160F9E77A
:107EA000436A01691D7C4B1E05F10902751ED34012
:107EB000D540AB4200D871B9236AE36004F10C07E6
:107EC000002DE7D0E168606A3A46FCF771F9013DA0
:107ED0000028F5D1D7E7ED1AF0E7000070B5437A36
:107EE00004460E4643B390F90830002B1ADA0121FC
:107EF000FFF768FE0546F8B1637A012B9CBFE36982
:107F0000C361238C4383638C83820C4B1B682BB12E
:107F100000F11601183098472B8B6B82237A03F0FF
:107F20007F0323721EB9237A23F010032372304695
:107F3000BDE87040FCF7D4B8002070BD0CE603200B
:107F400010B501210446FFF7C9FF10B10023637289
:107F5000012010BDF7B5437A012B04460D4603D02E
:107F60000023184603B0F0BD027A9207F8D5C26923
:107F70008A42F5D3002AF4D00669FFF77FFF002874
:107F8000EED0606ACDB9216AFCF704FA0028E7D088
:107F90002562237AE56163F07F0323720121204685
:107FA000FFF79CFF0028DBD0B5422946204628BFBA
:107FB0003146FFF763FF0346D3E7E16801AAFCF708
:107FC000F7F80028CCD0606A0B4A90F8207001992D
:107FD0004FF6F873102F18BF13469942D9D2FCF709
:107FE000D9F90028BCD0E168606A6FF07042FCF7F4
:107FF00035F90028CDD1B3E7F8FFFF0F38B51D4B99
:1080000003EB41131546DA7A12F0110F044604D03F
:1080100015F0420F01D0002038BD174A21761268B2
:108020006261998A0A042262598B11432162DA7AC9
:1080300012F0180210D1DB69E3610123637205F0CD
:108040000F03237200216B06C4E903110FD52046EC
:10805000BDE83840FFF77EBF102ADCD1606A04F12A
:108060001C02FCF7D7F80028D5D00423E6E701204E
:10807000D2E700BF88DE032058DC03202DE9FF474C
:1080800006460C46757A10461F46002D40F0858046
:1080900001A9FFF7BFFD002835D0636A7362C4E908
:1080A0000355DFF804A1A8462369E26993421DD273
:1080B0002046C3F34319FFF7C5FE014618B3037802
:1080C0003BB1E52B23D1B8F1000F05D04FF00108EB
:1080D000EAE7B8F1000F09D1DAF8003086F8189015
:1080E00073610B78002BF1D14FF0010807F01203F8
:1080F000122B08D1B8F1000F1AD001213046FFF73A
:1081000061FD0446F8B9284604B0BDE8F0870B22AB
:1081100001A805F0A5FF0028C6D107F03003302BD9
:10812000F1D03A4649463046FFF768FF0546EAE790
:10813000637A022BE7D02046FFF71FFD0028E2D02C
:10814000174C86F8188020220021204605F0A4FF55
:1081500001AB03CB206061601A889B78A372114B3E
:1081600022811B688BB104F10E0104F110009847C5
:10817000238A63822383E389E3820120FBF7B0FF34
:108180000028C0D0317E3A46CDE721222274A37365
:10819000282208236274E373EAE70025B3E700BFEF
:1081A00088DE03200CE6032058DC03202DE9F04193
:1081B000332388B007468846FFF760FF002867D062
:1081C00040F201433B813846FFF7D7FC00285FD0DF
:1081D00001213846FFF782FE002859D00121384698
:1081E000FFF7F0FC0346002852D010226D46C27201
:1081F00000F1200C02462C46106851682E4603C63A
:10820000083262453546F7D19D8A5E8B20220123D4
:10821000E25401330B2BFBD1D7E908031A7C5B69CD
:108220000238904001211844FBF77EFF80B34FF0E5
:108230002E0CADF81450ADF81A608DF800C026462B
:108240000FCE154D8DF801C00FC596E80F0085E8DB
:108250000F0098F80930114D023B012B8BBFD8F865
:10826000203000229AB2134688BF1B0CADF81430A0
:10827000ADF81A200FCC0FC594E80F0085E80F0069
:10828000402301203B6108B0BDE8F041FBF728BF67
:10829000002008B0BDE8F08188DE0320A8DE0320BE
:1082A00010B500210446FFF755FE68B101212046B4
:1082B000FFF788FC40B1E5230370002363720120BF
:1082C000BDE81040FBF70CBF002010BD00B58BB01F
:1082D00000230A460849019300918DF809300146B0
:1082E00002236846FFF7CAFE10B16846FFF7D8FFC1
:1082F0000BB05DF804FB00BF30FA0D0010B5437AF7
:10830000042B044613D10023C0E903332269E36937
:108310009A420ED22046FFF795FD40B1037843B153
:10832000E52BF3D02E2BF1D0C37A1B07EED400201F
:1083300010BD01236372237A43F0020323722046A7
:10834000BDE81040FFF7ACBF2DE9F04F2DED028BDB
:10835000437A012B83B00446894617462FD1057A0C
:10836000A9072CD56A0722D485F01005C5F30013A0
:1083700008EE103ADFF870B1BA462569BAF1000F7D
:1083800000F08A80606A0679013E06EA552616F0FA
:10839000FF06C5F3080517D1B5B9E168002942D138
:1083A000236A83B92046FFF7D1FB68B907E0C169AA
:1083B00003699942D8D0FFF761FD0028D4D1012389
:1083C000636000207AE0E360626AE368117C5269CE
:1083D000C5F500781FFA88F8D045A3F1020328BF3D
:1083E000D0468B401344B8F5007F1E442ED1DBF8F5
:1083F00000303848B34204BF4FF0FF33CBF80030B1
:10840000006818EE103A4A46314600F035FA002866
:10841000D5D009F500792369AAEB080A43441FFA6D
:108420008AFA2361A9E701AAFBF7C2FE002845D01A
:10843000636A294893F82010019A4FF6F8731029BF
:1084400018BF03469A42ADD2E260BDE7DDB92269AA
:10845000E3699A4217D30120FBF742FE0028AED011
:108460001E4ACBF80060137843F0010313701C4BD5
:108470001D4405EB08014B468D420BD013F8012B30
:1084800005F8012BF8E701213046FBF74DFE0028E7
:10849000EDD194E7C144BEE7E269237AAA4204D24F
:1084A000E56163F07F03237204E00E4A12680AB1AB
:1084B000002FF6D1237A1B0705D4384603B0BDEC54
:1084C000028BBDE8F08F01212046FFF707FD002851
:1084D000F3D174E78CE00320F8FFFF0F84DE032064
:1084E00088DE03200CE6032058DC032007B50122B8
:1084F0008DF807100DF10701FFF726FF03B05DF8B7
:1085000004FB000070B5437A012B054601D0002022
:1085100070BD037A9A07FAD55B0712D4154B186819
:1085200000F0E3F90028F2D12B7A13F0200411D0E7
:1085300001462846FFF7D2FC2B7A23F020032B724A
:10854000E5E7C16903698B42E8D0FFF797FC002893
:10855000E4D1DCE7084A126812B1FBF7ABFDD6E7BD
:108560002869C0F3080043F01003C0F500702B72B7
:1085700080B2CDE78CE0032088E0032001F0B6B99B
:1085800006294FF0000204D916234371114608460C
:1085900070470E4B1A71052916D8DFE801F0030861
:1085A0000D0F11130A4A9A6001219981EFE7094AD8
:1085B0009A6001229A81EAE7074AF4E7074AF2E75C
:1085C000074AF0E7074AEEE7074AECE720E6032010
:1085D00040787D0100093D0080841E0040420F006C
:1085E00020A1070090D0030048E8010013B50B4C10
:1085F0002178BFF35B8F11F001010BD1204601916F
:10860000FBF74FFD019928B1054801F03DFE2046DA
:10861000FBF74CFD024802B010BD00BF10E603207E
:1086200014E6032007B50190FFF7E0FF019903B0BE
:108630005DF804EB01F0E0BEFF20FFF7F3BF38B5B3
:108640000C4601F09BF90546FFF7F6FFFF2806D020
:1086500001F094F9431BA342F6D3002038BD01205A
:10866000FCE7000008B50121007904F034FB064B5B
:108670001A783AB100221A70FFF7B8FFBDE8084037
:1086800001F033BE08BD00BF1CE6032038B5837976
:10869000044673B140F2012523895A1CAB42228162
:1086A00002D8FFF7C9FFF7E72046FFF7DBFF0023FB
:1086B000A37138BD38B5044601F060F90546FFF7EF
:1086C000BBFFFF28E0720CD101F058F9431BB3F552
:1086D000967FF4D90F2320466371FFF7C3FF002074
:1086E00038BDFE2801D00D23F5E70120F8E770B56D
:1086F000054608461446FFF795FF661E04F2FF1470
:1087000016F8010FFFF78EFFA642F9D1FF20FFF701
:1087100089FFFF20FFF786FFFFF78EFF00F01F03A2
:10872000052BE87206D0112328466B71FFF79AFFDC
:10873000002070BD0120FCE710B5084B1A780446F4
:1087400032B901221A70FFF751FF054901F0E6FD29
:1087500020790021BDE8104004F0BDBA1CE60320DA
:1087600020E60320F8B504460D461746FFF78EFFB6
:108770002046FFF7E1FF4FF496712046FFF75FFFB9
:1087800045F04000FFF74EFF182627FA06F0C0B26A
:10879000083EFFF747FF16F1080FF6D185B1082D07
:1087A00014BFFF208720FFF73DFF0025FFF744FFA0
:1087B0000306E07203D50135B5F5807FF6D1F8BD2B
:1087C0009520F0E7F8B51D461344B3F5007F044645
:1087D000164615DC83792BB103688B4202D10389DD
:1087E00093421AD9237B2160032B18BF49020A4602
:1087F00020461121FFF7B6FF074630B1032363710E
:108800002046FFF72FFF0020F8BD2046FFF752FF5C
:108810000028F5D001232781A3712389B34208D30F
:10882000069E7719B7420AD0FFF706FF06F8010B3C
:10883000F8E7FFF701FF238901332381EDE723895F
:108840001D44A37AADB2258113B1B5F5007F02D3E3
:108850002046FFF71BFF0120D6E70BB1FFF7B2BFA1
:108860000120704707B54FF4007300920022FFF714
:10887000A9FF03B05DF804FBF8B5174604461E4691
:108880000A4631B9122363712046FFF7EBFE002040
:108890002AE0037B032B18BF4A021821FFF762FF6F
:1088A000054608B10423EEE73A46FE212046FFF7CD
:1088B0001EFF0028E8D09EB14FF416712046FFF746
:1088C000BEFE08B91523DEE72A460D212046FFF734
:1088D00049FF08B11423D6E7FFF7AEFE0028F9D10F
:1088E0002046FFF7BFFE0120F8BD38B50546FFF76B
:1088F00023FFFFF7A1FE04462846FFF7B3FEB4F1BD
:10890000FF0018BF012038BD2DE9F041002502719C
:10891000057385728571457104460F4601F02EF886
:10892000012106462079DFF8208104F0C3F90121F6
:10893000207904F0D0F9FFF759FE01F0AFFC414B6C
:10894000C8F80830012388F80450A8F80C30FFF765
:108950004DFE414601F0E2FC0A25FF20013DFFF7F4
:1089600061FE15F0FF05F8D1FFF740FE01F0BDFCF8
:108970002046FFF7E1FE002211462046FFF7F2FEF7
:1089800001280546E0720DD000F0F8FF801BB0F51D
:10899000FA6FF0D9012320466371FFF763FE0020D0
:1089A000BDE8F0814FF4D57208212046FFF7DAFECA
:1089B000430716D525730025002237212046FFF7EF
:1089C000D1FE2A4629212046FFF7CCFE0246E0725E
:1089D000B8B100F0D3FF801BB0F5FA6FECD90823D3
:1089E000D9E70425FFF728FE013D15F0FF05E072E9
:1089F000F8D1AA284FF00203CDD123734FF0804560
:108A0000DAE7237B022B14D13A212046FFF7AAFE96
:108A100008B10623BFE7FFF70FFE00F0C000C02833
:108A200004BF03232373FFF707FEFFF705FEFFF7DD
:108A300003FE2046FFF716FE39462046BDE8F0410A
:108A4000FFF79EBD90D0030020E6032008B500F09C
:108A50004DFF0748074B0360012303710023836028
:108A60008381BDE80840044A044904F025BA00BFE8
:108A700020E6032024EC0D0080DE0320D5440D0009
:108A800007B503688DF80710DB6801220DF10701B7
:108A9000984703B05DF804FB10B5036A04461BB9A0
:108AA00001236360002010BD00205860206A92B24C
:108AB000FFF74AFC236A5B68002BF4D0F0E7006AFA
:108AC00008B1FFF71FBD7047006A10B10121FFF721
:108AD00005BA704707B501220DF10701FFF70CF940
:108AE00001280CBF9DF807004FF0FF3003B05DF880
:108AF00004FB08B5006A10B1FFF7ECFF08BD4FF0AA
:108B0000FF30FBE738B50546006A58B1FFF7E2FFD2
:108B1000431C044604D0286A01690139FFF7AEF905
:108B2000204638BD0446FBE737B54FF47A7301920F
:108B30000022C0E901230E4B0360044628200D46A5
:108B400001F060FA206280B101992B4605F12802FC
:108B500053F8045B40F8045B9342F9D10C2204F112
:108B6000100005F031FB00232377204603B030BD11
:108B700048FA0D0000224FF47A71C0E90121024940
:108B8000016002620274704748FA0D0010307047AD
:108B9000006A20B1407A012894BF0020012070476C
:108BA000036A0BB1186970474FF0FF307047006AD5
:108BB00000B1C069704708B5036A014663B1FFF7A9
:108BC000F6FF02460846FFF7EBFF47F6FF73101A61
:108BD000984228BF184608BD1846FCE710B5044661
:108BE000006A30B1FFF7ACF9206A01F013FA0023F4
:108BF000236210BD006A18B1407A003818BF012006
:108C0000704700F073BE00F071BE2DE9F74300F12C
:108C1000380805464FF487720021404605F03CFABB
:108C200000242646274605F11C09D5F84831BB42E9
:108C300019DDCCB94FF47A7002F0CCFB484603F052
:108C40009BFE70B1484603F050FD731CDBB22E440E
:108C5000032B86F8380094BF002401241E46002709
:108C6000ECE70137E1E79CB100230193B8F800205D
:108C700098F80230ADF8042005F11C008DF806309C
:108C800003F072FC01A805F0CBF803B0BDE8F08357
:108C90002046FAE738B500F11C05C0F848310968EC
:108CA00004460023284603F065FD284603F05DFCDA
:108CB00008B9002038BD2046FFF7A7FFC838632851
:108CC000F7D8284603F050FC0120F3E710B504461E
:108CD00003F0ACFE2046FFF798FFC83863288CBF2E
:108CE0000020012010BD38B5054609681C30144627
:108CF00002F0FDF92846FFF788FF642394FBF3F4A4
:108D000090FBF3F0231A5842584138BD30B589B072
:108D100004460D4668460D4901F087FD2946684620
:108D200001F075FE014604A801F0CAFD4FF49672E9
:108D300004A92046FFF7D7FF044604A801F02AFD46
:108D4000684601F027FD204609B030BD6CFA0D00E1
:108D500030B589B004460D4668460D4901F065FD01
:108D60002946684601F053FE014604A801F0A8FD1B
:108D7000C82204A92046FFF7B6FF044604A801F064
:108D800009FD684601F006FD204609B030BD00BF70
:108D900072FA0D0030B589B004460D4668460D499B
:108DA00001F043FD2946684601F031FE014604A862
:108DB00001F086FDC82204A92046FFF794FF04466F
:108DC00004A801F0E7FC684601F0E4FC204609B085
:108DD00030BD00BF78FA0D0030B589B004460D46AD
:108DE00068460D4901F021FD2946684601F00FFE55
:108DF000014604A801F064FDC82204A92046FFF73B
:108E000072FF044604A801F0C5FC684601F0C2FCEC
:108E1000204609B030BD00BF7DFA0D001FB50446E5
:108E20000749684601F001FDC82269462046FFF760
:108E30005AFF0446684601F0ADFC204604B010BD60
:108E400082FA0D002DE9F043064600F11C08464960
:108E500095B0404606F1380502F049F94FF48772A3
:108E60000021284605F018F90024274606F13709A5
:108E7000D6F84831002B33DD94BB4FF47A7002F002
:108E8000A9FA404603F078FDD8B1B7F5877F11DB2A
:108E900000230E932A88AB78ADF838200EA88DF801
:108EA0003A3004F0BDFFC83863280CD9204615B00D
:108EB000BDE8F083404603F018FC013709F80700CD
:108EC000DFE7032FE4DC284605F064F92B4628444D
:108ED0009842CDD013F8012B292A08BF0124F7E7C7
:108EE00028462249DFF8848005F082F9002502AF88
:108EF0004146002005F07CF904460028D6D004F055
:108F00008FFF47F825000135062DF1D19DF814306B
:108F10009DF80C209DF80810009308A89DF81030CB
:108F200003F086F8304603F081FD304603F01CFB69
:108F300009AD0F4B0E930FCD0FAC0FC42B682370F0
:108F4000DDE9063202EB032292B200230EA930467D
:108F500003F096FC304603F008FB304603F005FBB7
:108F6000041E18BF0124A1E787FA0D008CFA0D003A
:108F700008FC0D0070B586B0054601911646FFF756
:108F800061FF044660B1019902A801F099FC3246E4
:108F900002A92846FFF7A7FE044602A801F0FAFB43
:108FA000204606B070BD000030B589B004460D46BD
:108FB00068460D4901F039FC2946684601F027FD55
:108FC000014604A801F07CFC962204A92046FFF784
:108FD000D1FF044604A801F0DDFB684601F0DAFB8E
:108FE000204609B030BD00BF90FA0D0003784078EC
:108FF000303BDBB20A2B28BF002303EB830330385E
:1090000000EB4300C0B27047214A3C230A44F0B54C
:10901000B2FBF3F4B4FBF3F103FB1422427103FB44
:10902000114318220371B1FBF2F302FB1312C27059
:1090300000229BB2027040F26D164FF693640278E4
:1090400012F003050BBF37464FF4B677012100211C
:109050009F4205DA611A0B4401329BB20270EEE7BF
:1090600001220C4E42704178721812F8012C1DB981
:10907000022904BF0132D2B29A4294B204D81B1B17
:1090800001319BB24170EEE701338370F0BD00BF48
:1090900080BC92C796FA0D00B1F5FA6F83709DF807
:1090A0000030C37028BFA1F5FA619DF80430037148
:1090B00028BF89B29DF80830017042704371704733
:1090C00030B50D4685B004460868496801AB03C356
:1090D0002889A97A188099700DF10D00FFF786FF95
:1090E0009DF804302070413B122B16D8DFE803F0C6
:1090F0003215154615301515150A15153944421542
:10910000151540009DF80530612B1FD09DF80630E5
:109110006E2B0CBF06230723637002A8FFF766FFC0
:10912000A0701068516801AB03C301A8FFF75EFF90
:10913000E0700DF10700FFF759FF20710DF10A00F3
:10914000FFF754FF6071204605B030BD0123E3E70F
:109150000223E1E79DF80630722B0CBF042308239D
:10916000DAE79DF80630722B0CBF03230523D3E703
:109170000923D1E70A23CFE70B23CDE70C23CBE765
:109180000120704708B503F047FE682103F092F90B
:1091900003F042FE0021FBF705FA03F03DFE03F069
:1091A000A8F903F039FE0122682103F07CF903F0ED
:1091B00033FE03685B699847C0F3401080F00100FC
:1091C00008BD38B5054603F027FE682103F072F9A3
:1091D00003F022FE0321FBF7E5F903F01DFE697998
:1091E0000A24B1FBF4F303EB430301EB43010368EF
:1091F000C9B29B68984703F00FFE2979B1FBF4F3DD
:1092000003EB430301EB43010368C9B29B68984732
:1092100003F002FEE978B1FBF4F303EB430301EB47
:1092200043010368C9B29B68984703F0F5FDA9782C
:10923000B1FBF4F303EB430301EB43010368C9B251
:109240009B68984703F0E8FD036800219B689847F6
:1092500003F0E2FD6978B1FBF4F303EB430301EBA8
:1092600043010368C9B29B68984703F0D5FD29788C
:109270000368B1FBF4F404EB440401EB44019B6884
:10928000C9B2984703F0C8FD0021FBF78BF903F042
:10929000C3FDBDE8384003F02CB92DE9F84304467E
:1092A00003F0BAFD682103F005F903F0B5FD0321D1
:1092B000FBF778F903F0B0FD03F01BF903F0ACFD08
:1092C0000722682103F0EFF803F0A6FD03685B694D
:1092D000984700F07F09C0F30210A0EB800009EB73
:1092E00040005FFA80F903F097FD03685B699847D7
:1092F000C0F30315A5EB850500EB4500C5B203F0EF
:109300008BFD03685B699847C0F30316A6EB8606DE
:1093100000EB4600C6B203F07FFD03685B69984727
:10932000C0F30317A7EB870700EB4700C7B203F0B2
:1093300073FD03685B69984703F06EFD03685B6922
:109340009847C0F30318A8EB880800EB48005FFAC1
:1093500080F803F061FD03685B699847C0F303136D
:10936000A3EB830300EB4300207084F80180A77017
:10937000E670257184F805902046BDE8F88370B545
:1093800015461E460C4603F047FD682103F092F88F
:1093900003F042FD3146FBF705F903F03DFD03F014
:1093A000A8F803F039FD2A46682103F07CF825442B
:1093B000AC4207D003F030FD03685B69984704F8BE
:1093C000010BF5E770BD70B514461D460E4603F05F
:1093D00023FD682103F06EF803F01EFD3146FBF714
:1093E000E1F82544AC4207D003F016FD036814F8F9
:1093F000011B9B689847F5E703F00EFDBDE8704040
:1094000003F077B807B50B4601220DF10701FFF70E
:10941000B6FF9DF8070003B05DF804FB07B5012314
:109420008DF807200DF10702FFF7CDFF03B05DF8BF
:1094300004FB82220021FFF7F1BF38B50121054668
:10944000FFF7E0FF0022044601212846FFF7E6FF70
:1094500014F0070018BF012038BD00F047BA70476C
:1094600010B58AB000230A460A49019300918DF88D
:109470000930014601236846FEF700FE002814BFAC
:109480000124002402D06846FEF75AFD20460AB0A7
:1094900010BD00BF30FA0D00F0B58BB000260A4FAA
:1094A000019604460D4600978DF80960FFF7D8FF36
:1094B00038B92A4621466846FEF778FE801B18BF59
:1094C00001200BB0F0BD00BF30FA0D0008B52AB185
:1094D000FEF7FCFE003818BF012008BD0120FCE7A4
:1094E00000B58BB0AAB100230B4A019300928DF80E
:1094F00009300A46012301466846FEF7BFFD28B140
:109500006846FEF7FBFE003818BF01200BB05DF87F
:1095100004FB0120FAE700BF30FA0D0038B5012244
:1095200004460D46FAF75AFF024628B92946204656
:10953000BDE83840FAF752BF012038BD30B50B689E
:10954000C45C2F2C08BF01330024C55C2F2D06D02E
:109550002DB1155501340C2C03F10103F5D1002573
:109560001555C25C2F2A08BF01330B60C05C003860
:1095700018BF012030BD00002DE9F04F9246224A6D
:109580009BB09B460023CDE9102381460D460793EF
:1095900006928DF821308DF8493001930C460DF17B
:1095A000180802AA01A94846FFF7C8FF80F0010287
:1095B00007465B46D2B202A92046D047064630B9DC
:1095C000AC4215D1002630461BB0BDE8F08F6FB11C
:1095D000012302AA21464046FEF750FDAC42064652
:1095E0000AD02046FEF7ACFC4EB9EBE7AC42EAD01D
:1095F0002046FEF7A5FCE6E70028E3D010AC2346A2
:1096000044469846CDE700BF30FA0D0037B590F8D4
:10961000413004460A4623B138300191FEF790FCF0
:10962000019A01212046FFF76FF910B9002003B01D
:1096300030BD04F1100521462846FFF76FFF0028D2
:10964000F4D0294604F13800FEF72EFB003818BF8D
:109650000120ECE73830FEF773BC00004A68426036
:10966000094A02600A890281CA68C2600A69026105
:109670004A6942610A7E0276CA69C2610A6A026266
:109680004A6A4262704700BF30FA0D002DE9F04F80
:10969000DFF8A4909BB000240746103106A892463C
:1096A000CDE9109401930794CDF818908DF82140DE
:1096B0008DF84940FEF7F8FA55460DF1400B06AE1D
:1096C000A0462F21284604F013FD58B32B782F2BEA
:1096D00001D10135F5E7441BE4B20C2C28BF0C2462
:1096E0002246294602A804F06FFD1AAB23445846CF
:1096F00003F8608CFEF724FC012302AA3146584689
:10970000FEF7BCFC30B9C7E90090787238461BB050
:10971000BDE8F08F3046FEF713FC334625445E4625
:109720009B46CEE7019BA5EB0A051D6031463846F6
:10973000FFF794FFEAE700BF30FA0D00F0B5A1B0E3
:1097400004461D4602A801AB1646FFF79FFF019B8A
:10975000F718F35C4BB902A916A8FFF77FFF174A69
:1097600016A92046FFF7E0F90BE000230D938DF8D2
:1097700039309DF81130124A0C922BB92046FFF770
:10978000F9F9204621B0F0BD2B463A4602A90CA8B3
:10979000FEF774FC0028F1D002A805F00605FEF7DC
:1097A000CFFB062D03D113990CA8FEF767FB0CA97C
:1097B00016A8FFF753FF3A46D2E700BF63F30D0048
:1097C00030FA0D0010B40446044A0846002304F1A0
:1097D00038015DF8044BFFF7CFBE00BF99940D0030
:1097E00010B40446044A0846002304F138015DF829
:1097F000044BFFF7C1BE00BFE1940D0010B4044656
:10980000044A0846002304F138015DF8044BFFF7D1
:10981000B3BE00BFCD940D0070B50446A0B00D4698
:109820001646286A04A9FEF7E9FA002802DD9DF829
:1098300010301BB92046FFF79DF922E0E52BF0D050
:109840002E2BEED09DF81B0010F00800E9D10E4B36
:109850000D908DF83900694604A80C93FEF7C0F905
:10986000296A33466A460CA8FEF708FC0028E1D0B6
:109870000CA916A8FFF7F2FE6A4616A92046FFF7C4
:1098800053F9204620B070BD30FA0D0008B500F045
:109890002DF80A480A49022200230261094A82631C
:1098A000437183718372037380F83030C36380F82F
:1098B0004130BDE80840044A03F0FEBA30E6032018
:1098C0005F940D0030FA0D0080DE032008B5024BD6
:1098D0001B689B68019308BD6802030008B5024B32
:1098E0001B68DB68019308BD6802030008B5024BE2
:1098F0001B681B68019308BD2C02030008B5024BCE
:109900001B689B68019308BD2C02030008B5024B3D
:109910001B68DB68019308BD2C02030008B5024BED
:109920001B681B69019308BD2C02030008B5024B9C
:109930001B685B69019308BD2C02030008B5024B4C
:109940001B685B69019308BD6C02030008B5024BFC
:109950001B685B68019308BD1802030008B5024B41
:109960001B689B68019308BD1802030008B5024BF1
:109970001B68DB68019308BD1802030008B5024BA1
:109980001B685B69019308BD1802030008B5024B10
:109990001B689B6D019308BD1802030008B5024BBC
:1099A0001B685B6E019308BD1802030008B5024BEB
:1099B0001B685B6E019308BD3402030008B5024BBF
:1099C0001B68DB6E019308BD3402030008B5024B2F
:1099D0001B689B6F019308BD3402030008B5024B5E
:1099E0001B68DB6F019308BD3402030008B5024B0E
:1099F0001B689B68019308BD7802030008B5024B01
:109A00001B68DB68019308BD7802030008B5034BAF
:109A10001B68D3F89830019308BD0000780203005A
:109A200008B5034B1B68D3F8F030019308BD000064
:109A30007802030008B5024B1B685B68019308BD00
:109A40004802030008B5024B1B689B68019308BDE0
:109A50004802030008B5024B1B681B69019308BD4F
:109A60004802030008B5024B1B685B69019308BDFF
:109A70004802030008B5024B1B685B6C019308BDEC
:109A80004802030008B5024B1B689B6C019308BD9C
:109A90004802030008B5024B1B68DB6C019308BD4C
:109AA0004802030008B5024B1B685B6D019308BDBB
:109AB0004802030008B5024B1B68DB6E019308BD2A
:109AC0004802030008B5024B1B685B69019308BD9F
:109AD0006402030008B5024B1B681B6A019308BDB2
