:02000002D0002C
:1040000000400D0000530E00000006000D000501E9
:084010000401BB0B00000000DD
:044018008C2D0E00DD
:1040200009480A49884208B505D0094A824202D0A7
:10403000121A0EF03DFD0748074A0021121A0EF031
:1040400045FD014808BD00BFC4D50320AC4E0E009D
:10405000F0D90320F0D90320F0E7032070B5074E14
:10406000074C0CF041FAA41BA4080025A54200D17E
:1040700070BD56F8043B98470135F7E77C4E0E00BB
:10408000A04E0E0004F02EBE08B503F057FEBDE8AA
:1040900008400CF0EBB90AF021BC0AF01FBC0AF092
:1040A00025BC0078B0FA80F0400970470123037006
:1040B0007047704703681847012A03D0022A03D0CB
:1040C000002070470160FBE70B680360F8E770476A
:1040D00038B5044D312405EB04100AF0E7FF013C2C
:1040E000F9D238BDC0E1032010B5044B044640F8B6
:1040F000103B08F019FE204610BD00BF58380E00D6
:1041000010B5034B03600446FFF7EEFF204610BDD9
:1041100080380E00836C13B1184607F073B8C06C7A
:1041200008B107F0C3BE7047836C13B1184606F0A0
:1041300020BFC06C08B108F0FDBA4FF0FF307047E7
:1041400010B5102104460DF08EFC204610BD10B5B0
:104150000446FFF7C9FF204650210DF084FC20469D
:1041600010BD10B50446FFF7CBFF204650210DF0DF
:104170007AFC204610BD10B5012303748368044601
:1041800043B1C0689847012363740020BDE8104024
:104190000AF0E4B800680028F5D083680BB90DF088
:1041A00068FCC368EEE708B500200AF077FB28B189
:1041B0000AF054FB80F00100C0B208BD0120FCE70A
:1041C00070B5064600680C468168114415460AF031
:1041D0008BFF2544AC4205D014F8011B30680BF06E
:1041E000AAF8F7E7002070BD13B5054B1B788DF8D2
:1041F00000303C2304460CF00DFB204602B010BDFD
:1042000008DF032010B50446006808B10AF06EFB11
:10421000204610BD0EB403B503AB002153F8042BA8
:1042200001930BF080FD02B05DF804EB03B0704722
:1042300073B5044608462279A36832B1A3B90B4985
:1042400002B0BDE870400BF05BBC094A267B094D0B
:104250000949647B012E18BF2946CDE9001407499E
:10426000FFF7D8FF02B070BD054AEFE7B12D0E0091
:104270005C330E00AD2D0E00A92D0E00C72D0E00D3
:10428000A02D0E000022406811460AF087BA10B532
:104290008368044613B1032201469847204610BDA7
:1042A00038B50568044635B12846FFF7F0FF102100
:1042B00028460DF0D8FB20461421BDE838400DF00B
:1042C000D2BB10B5436904469BB158680AF00EF89A
:1042D00078B963695A7C12B958680AF00FF86369B3
:1042E00058680AF013F860690023636108B1FFF7AA
:1042F000D7FF606908B1FFF7D3FF201DFFF7C7FFA5
:10430000204610BD10B586B004468DF81520089AD9
:10431000ADF81610CDE90132012200920DF115031E
:104320000DF116010AF056FD204606B010BD000042
:1043300073B51E4B1D7806460C46ADB901221A70A6
:1043400029462A4601A8019509F08CFF019B1E2BE6
:104350000AD103232068A3714FF40023A580A36032
:1043600010B10AF0C3FA2560B4F90430226843B9E9
:1043700042B954F8063F3360A388B380304602B098
:1043800070BD22B19188012903D0042906D00422EE
:1043900005E092896281A1712381EAE702222381EB
:1043A0004FF6FF73A2716381E3E700BF00DA0320D9
:1043B00008B509F027FF014B186008BDB8E70320D6
:1043C00030B587B01D4600230446049322B1204B2C
:1043D0000593204B029204930023E360049B216029
:1043E0003BB1022202A9201D9847059B2361049B33
:1043F000E360194914200DF038FB30B10022C0E908
:104400000022C0E9022202744274606190B1134B31
:104410001349C0E902340922CDE90005114B0430EB
:1044200009F05CFF30B963691B7C4BB9012009F0CE
:10443000D9FEF8E760690023636108B1FFF730FF38
:10444000FFF7B6FF02A8FFF722FF204607B030BDF6
:10445000B5400D00B9400D00844C0E004D190E0002
:10446000E42D0E0077410D0008B5FFF7A1FFBDE870
:1044700008400AF0E3B910B5D0F880448EB00A467F
:1044800064B1002321466846ADF800308DF8023053
:1044900006F04FFF00F001000EB010BDD0F88414FC
:1044A00041B1234668468DF83140ADF8324008F0FE
:1044B000F8FBEFE70846EDE700B50A46D0F88014B0
:1044C0008FB089B10023ADF800308DF80230684616
:1044D000012306F02EFF10B1684605F0FBFF00F047
:1044E00001000FB05DF804FBD0F884040028F6D07A
:1044F0008DF83110ADF8321001230146684608F0FE
:10450000D0FB0028EBD0684607F0C7FBE7E710B503
:10451000D0F880448EB00A4684B100232146684614
:10452000ADF800308DF8023006F003FF10B1684698
:1045300006F041FE00F001000EB010BDD0F884146A
:1045400069B1234668468DF83140ADF8324008F035
:10455000A8FB0028EED0684607F0FAFBEAE7084619
:10456000E8E700B513460A68D0F880148FB071B13F
:104570000020ADF800008DF8020001F244416846C9
:1045800006F05EFF00F001000FB05DF804FBD0F80C
:1045900084040028F6D08DF83110ADF8321000F503
:1045A0008961684607F03CFDECE710B5134690B012
:1045B0001C68D0F880340A68ABB1002003F2444193
:1045C000ADF808008DF80A00034602A8019106F034
:1045D00061FE019918B1224602A806F083FF00F09F
:1045E000010010B010BDD0F884040028F7D000F509
:1045F000896102A801918DF83930ADF83A3008F0A0
:10460000F0FA01990028EAD0224602A807F06CFDD2
:10461000E5E7836B5BB1187810F008001EBFD8691E
:104620005B69C01A0028B8BF6FF000407047C06BCC
:10463000A0B190F831301B0711D5D0E90432D0E990
:1046400000105B1A62EB00021846114600236FF05F
:1046500000428B4208BF824238BF10467047002399
:104660001A46F1E708B51030FFF7D3FF08BD836B9A
:1046700033B11B7813F0700F14BF01200020704776
:10468000C06B0028FBD090F8313013F0500FF3E7E7
:10469000836B23B9C06B003818BF0120704701201D
:1046A0007047836B13B1184606F09EBBC06B08B110
:1046B00007F080BF4FF0FF30704707B501220DF1C2
:1046C00007011030FFF7EDFF01280CBF9DF8070030
:1046D0004FF0FF3003B05DF804FB836B13B1184655
:1046E00006F0C8BFC06B08B107F0B4BD704708B58D
:1046F0001030FFF7F2FF08BD07B501228DF8071053
:1047000010300DF10701FFF7E8FF03B05DF804FB7F
:1047100000224FF47A71C0E90121C0E91222014A56
:104720000260704780380E00B0F90A3013B100EB18
:10473000031070471846704710B50346D1E90102CF
:104740001030824212D3A2F110008860596859B12A
:10475000441A24114C815860002322F8063C02F8C8
:10476000083C42F8043C10BD1860F4E70020FAE76A
:10477000826810B54AB14368C468A34237BF5C1C65
:1047800000234460D15428BF836010BD10B5044697
:104790000021FFF7EDFFA3683BB1D4E90001E36816
:1047A000CA1A436813444360E160A06810BD012148
:1047B000042009F04FBD000070B586B0234A244D97
:1047C0000E23ADF80C300023CDE9042305F59266E5
:1047D00003AC94E80E00304608F030FD95F8AB3499
:1047E000C5F88C6423B93146284608F059FB50BB04
:1047F0000CF07CFA17490BF096F9012107200DF017
:104800003CF841F288300BF0D7FB002107200DF077
:1048100034F843F698200BF0CFFB64200BF0CCFB70
:104820000D4B1B68009302224FF49673062120461D
:10483000FFF768FD4FF47A700BF0BEFB06B0BDE8E1
:1048400070400AF0ADBA06B070BD00BF80F0FA0249
:1048500038DA0320EB2D0E0004DF032010B54B687F
:1048600043608B688360CB68C360044610311030AE
:1048700008F06FFA204610BD30B50546BBB00C46B7
:104880000CF034FA29680BF04EF96A4906A80AF0D0
:1048900058FC04A809F0CFF806A90AA80AF09CFC65
:1048A0009DF811306449013B01EB83010EA80AF029
:1048B00048FC0EA926A80AF08FFC9DF810100A22C9
:1048C00001F5FA6112A80AF0B6FC12A926A80AF0AE
:1048D0003FFD5A490AF048FD01460AA80AF016FDB4
:1048E00012A80AF0E3FB26A80AF0E0FB0EA80AF0E3
:1048F000DDFB12A8FFF70CFF06995148FFF7BBFD3F
:1049000000285AD0002306AA4D4926A808F03CFBEF
:1049100026A912A8FFF7A2FF26A8FFF7F1FB16A809
:10492000FFF7A5FEB8B90CF0E1F946490BF0FBF82A
:1049300016A808F0F9F906994148FFF7BDFD40486F
:10494000012206A9FFF70DFE40B90CF0CFF93E4950
:104950000BF0E9F802E016A808F0E6F944F20223A9
:104960000AAA374926A808F00FFB26A912A8FFF7C4
:1049700075FF26A8FFF7C4FB16A8FFF789FE10BB3A
:104980000CF0B4F93149044626A80AF0DAFB0AA96A
:1049900026A80AF0DDFC016820460BF0C4F826A822
:1049A0000AF084FB12A8FFF7ABFB0AA80AF07EFB13
:1049B00006A80AF07BFB3BB030BD0CF097F9244908
:1049C0000BF0B1F8BBE7611E032907D8DFE801F05F
:1049D000022B2D2F1F4912A80BF092F89DF81530CD
:1049E00003939DF814309DF8102002939DF8133026
:1049F00001939DF81230009302F5FA629DF8113090
:104A0000154926A809F082FF26A912A80BF078F80C
:104A1000296812A80BF087F864200BF0CDFA16A8CD
:104A200008F082F9BEE70D49D5E70D49D3E70D49F6
:104A3000D1E700BF232E0E004CD903202A2E0E00F2
:104A400038DA03202F2E0E00432E0E005F2E0E00AC
:104A5000532E0E00792E0E00A42E0E00822E0E0074
:104A60008D2E0E009A2E0E001FB5084968460AF0DA
:104A700068FB01216846FFF7FFFE68460AF016FB57
:104A80000AF08EF905B05DF804FB00BFBF2E0E00E2
:104A900070B590B005460C4604A827490AF051FBB2
:104AA000294668460AF04DFB694604A80AF050FC06
:104AB00022490AF059FC2146064608A80AF041FBA3
:104AC00008A930460AF044FC01460CA80AF084FB11
:104AD00004210CA8FFF7D0FE0CA80AF0E7FA08A8FA
:104AE0000AF0E4FA68460AF0E1FA04A80AF0DEFAED
:104AF00029460CA80AF025FB11490CA80AF049FC2C
:104B000006460CA80AF0D2FA1EB10E4821460AF059
:104B10006EFB29460CA80AF014FB0B490CA80AF0FE
:104B200038FC05460CA80AF0C1FA1DB10748214619
:104B30000AF05DFB10B070BDD02E0E005D300E008F
:104B4000D52E0E0004DA0320EA2E0E0024DA03200C
:104B5000F0B54B4C2368002BBBB040F38B80494928
:104B600002A80AF0EEFA12A8FFF7D2FD684608F094
:104B700062FF45490AA80AF0E4FA02A90AA80AF065
:104B8000E7FB9DF801304149013B01EB83010546FC
:104B90000EA80AF0D6FA0EA928460AF0D9FB9DF80D
:104BA00000100A22054601F5FA6126A80AF043FB27
:104BB00026A928460AF0CCFB35490AF0D5FB014668
:104BC00006A80AF009FB26A80AF070FA0EA80AF057
:104BD0006DFA0AA80AF06AFA02992E48FFF74BFC10
:104BE00078B90CF083F82C490AF09DFF294801227E
:104BF00002A9FFF7B6FC20B90CF078F827490AF0B3
:104C000092FF44F2022306AA224926A808F0BCF922
:104C100026A912A8FFF722FE26A8FFF771FA16A808
:104C2000FFF736FD98B11E4D1E4F05F548762368F7
:104C3000002B21DDD5F8201312A80AF074FF3946A5
:104C400030460AF0D4FA2368013B2360EFE70CF00A
:104C50004DF815490AF067FF0CF048F806990AF07C
:104C600062FF06A80AF022FA12A8FFF749FA02A882
:104C70000AF01CFA3BB0F0BD16A808F055F8F0E7B2
:104C8000BCE10320242E0E00E4360E004CD9032094
:104C90002A2E0E0038DA0320FD2E0E00342F0E00CF
:104CA000C0E103205C330E004B2F0E002DE9F04FC6
:104CB000C1B002AF16469946044688460CF016F875
:104CC0006949054607F1A8000AF03BFA214607F1B9
:104CD00074000AF036FA07F1740107F1A8000AF02F
:104CE00037FB016828460AF01EFF07F174000AF03E
:104CF000DDF907F1A8000AF0D9F95C4907F1A8002D
:104D00000AF01FFA5A4B5B4A1B6812885A4807F18F
:104D1000A80108F0B5FF054607F1A8000AF0C6F99A
:104D200035BB564907F174000AF00BFA4F4907F1F9
:104D300058000AF006FA07F1580107F174000AF06A
:104D400007FB014607F1A8000AF046FA022107F125
:104D5000A800FFF791FD07F1A8000AF0A7F907F1F5
:104D600058000AF0A3F907F174000AF09FF91DE05A
:104D7000434907F1A8000AF02FFA3F4807F1A801BC
:104D800008F0E0FF054607F1A8000AF08FF995B991
:104D90003C4907F1A8000AF0D4F907F1A800022164
:104DA000FFF76AFD07F1A8000AF080F92846FC37F2
:104DB000BD46BDE8F08F344907F1A8000AF00CFAAF
:104DC0002D4807F1A80108F0DFFF054607F1A8000C
:104DD0000AF06CF90DB92D49DBE7314607F1A8005F
:104DE0000AF0FAF9244807F1A80108F0EFFF054698
:104DF00007F1A8000AF05AF9002D69D1244907F1FA
:104E0000A8000AF09EF9032107F1A800FFF734FD7E
:104E100007F1A8000AF04AF9314607F1A8000AF0A4
:104E2000DBF9154807F1A80108F0F2FF054607F184
:104E3000A8000AF03BF97DBB164907F174000AF09F
:104E400080F9314607F174000AF082FA014607F151
:104E5000A8000AF0C1F907F1A8000221FFF70CFD34
:104E600007F1A8007DE700BF03300E0048D60320FD
:104E700084D9032080D9032044E00320632F0E004F
:104E800070E50320782F0E00F4E40320892F0E0034
:104E90009A2F0E00B22F0E00D94907F174000AF0C4
:104EA00050F9314607F174000AF052FA014607F151
:104EB000A8000AF091F9032107F1A800FFF7DCFC34
:104EC00007F1A8000AF0F2F807F174000AF0EEF812
:104ED000B9F1000F40F04081DFF870A3C9499AF89A
:104EE000003001949AF80120009203F5FA63C64A53
:104EF00007F1580009F00AFD0BF0F8FEC34905461A
:104F000007F1A8000AF01DF907F1580107F1740034
:104F10000AF017F907F1740107F1A8000AF018FA6E
:104F2000016828460AF0FFFD07F174000AF0BEF898
:104F300007F1A8000AF0BAF89AF8003001949AF83C
:104F40000120B349009203F5FA63AF4A07F17400F8
:104F500009F0DCFC0BF0CAFEAE49044607F1A800DC
:104F60000AF0EFF807F1740107F148000AF0E9F8D8
:104F700007F1480107F1A8000AF0EAF901682046A4
:104F80000AF0D1FD07F148000AF090F807F1A800F7
:104F90000AF08CF807F1740407F1580107F1A80032
:104FA0000AF0CFF89C4807F1A80109F05DF8054622
:104FB00007F1A8000AF07AF8002D40F066819749C1
:104FC00007F148000AF0BDF807F1580107F1380071
:104FD0000AF0B7F807F1380107F148000AF0B8F90C
:104FE000014607F1A8000AF0F7F8042107F1A8002C
:104FF000FFF742FC07F1A8000AF058F807F1380063
:105000000AF054F807F148000AF050F8B8F1000F20
:105010002CD007F1580107F1A8000AF092F87E4859
:1050200007F1A80108F038FF054607F1A8000AF0CB
:105030003DF86DB97A4907F1A8000AF082F807F146
:10504000A8000221FFF718FC07F1A8000AF02EF8CB
:10505000744907F1A8000AF074F807F1A8000421C8
:10506000FFF70AFC07F1A8000AF020F86E4907F1E3
:1050700048000AF066F807F1580107F138000AF015
:1050800060F807F1380107F148000AF061F9674953
:105090000AF06AF921460AF067F9014607F1A8000B
:1050A0000AF09AF8042107F1A800FFF7E5FB07F1E1
:1050B000A80009F0FBFF07F1380009F0F7FF07F13E
:1050C000480009F0F3FF5A490023224607F1A800DF
:1050D00007F046FF64200AF06FFF07F1B800FFF702
:1050E000D7FA0546002800F08B8139F00203E84624
:1050F00040F0D2804F4907F148000AF022F84648B4
:1051000007F1480108F0A6FE044607F1480009F03F
:10511000CDFF002C00F0C58007F1580107F14800D1
:105120000AF00FF83C4807F1480108F0BFFF0446B9
:1051300007F1480009F0BAFF002C40F0B28007F1F7
:10514000B80007F0F1FDFFF703FD0025C54607F1A4
:10515000A800FEF7D5FF29E6B9F1010F78D1234663
:10516000354A364907F1740009F0D0FB0BF0BEFD5B
:105170003349054607F1A80009F0E3FF214607F18E
:10518000580009F0DEFF07F1580107F1A8000AF006
:10519000DFF8016828460AF0C6FC07F1580009F05C
:1051A00085FF07F1A80009F081FF214607F15800AB
:1051B0000DF0C2FC0BF09AFD2249044607F1A8004D
:1051C00009F0BFFF07F1580107F1480009F0B9FFE6
:1051D00007F1480107F1A8000AF0BAF80168204673
:1051E0000AF0A1FC07F1480009F060FF07F1A800F0
:1051F00009F05CFF0BF07AFD13490446AEE600BFF0
:10520000C52F0E00D92F0E0018D60320E32F0E0055
:10521000F42F0E0001300E0044E003204E300E004B
:1052200060300E0076300E0079300E0081300E00B6
:1052300038DA0320D4350E0010300E0015300E0081
:105240001C300E002B300E0003300E00EDE4032066
:10525000B9F1020F7FF4A0AEAF4DB0492B780194A5
:105260006A78009203F5FA63AD4A07F1580009F035
:105270004DFB2B7801946A780092AA49A84A03F55D
:10528000FA63204609F042FB86E6A7480BF032FF9E
:10529000A54808F037FDB9E6B9F1010F01D1A349DE
:1052A00029E7D7F8F030002B3DD0DC69A04B621E17
:1052B0009A423FF644AF08F0A5FF0025C0B08246F1
:1052C00007F14800C7E9125587F850500BF0AEF9C6
:1052D000DFF854B20DF1080907F1B800FFF799F9AA
:1052E00038B3A54225D84FF48072494607F1B8007B
:1052F000FFF7D7F905447860FFF75AF80021072037
:105300000CF0BBFA00237A68494658460BF02BFF95
:10531000012107200CF0B1FAC8200AF04DFE854BA0
:105320009D42D9DD11E7D7F8F440002CBED02469A6
:10533000BCE707F1B80007F0F7FC08F063FF7E490F
:10534000A0EB0A0507F1180009F0FBFE0A224FF452
:105350007A70B5FBF0F507F10800294609F091FFD6
:1053600007F1080107F1180009F0F2FF734909F08D
:10537000FBFFB4FBF5F10A22814607F1280009F092
:1053800080FF07F12801484609F0E2FF6C4909F067
:10539000EBFF0A220546002107F1380009F05EFF05
:1053A00007F13801284609F0D3FF014607F148000C
:1053B00009F012FF042107F14800FFF75DFA07F139
:1053C000480009F073FE07F1380009F06FFE07F19D
:1053D000280009F06BFE07F1080009F067FE07F1ED
:1053E000180009F063FEFFF73FF84F48C5460BF081
:1053F00081FE4D4808F086FC054680B9514900E021
:10540000514907F1480009F09CFE07F148000221CC
:10541000FFF732FA07F1480009F048FE97E64B49DA
:1054200007F1380009F08DFE314607F1080009F058
:10543000D3FE474907F1080009F096FF07F158012C
:1054400009F092FF014607F1180009F0C5FE07F1C7
:105450001801354808F030FC0A22014607F12800FF
:1054600009F0E9FE07F1280107F1380009F070FFA3
:10547000014607F1480009F0AFFE042107F148009A
:10548000FFF7FAF907F1480009F010FE07F12800CC
:1054900009F00CFE07F1180009F008FE07F10800FA
:1054A00009F004FE07F1380009F000FE294907F170
:1054B000380009F046FE0A22214607F1280009F0CB
:1054C000E0FE07F1280107F1380009F041FF01462D
:1054D00007F1480009F080FE042107F14800FFF7BA
:1054E000CBF907F1480009F0E1FD07F1280009F0C8
:1054F000DDFD07F1380009F0D9FD0B4808F0EEFC9E
:10550000054608B914497CE7002107200CF0B5F9DD
:1055100009F09CF91BE600BFEDE40320D92F0E0033
:1055200018D603203C300E0044E0032086300E00E5
:10553000FDFF0700400D030088300E0063350E00AC
:105540008C300E00C2300E009C300E00DC300E009D
:10555000E4360E00F3300E0006310E0038B5054675
:1055600008F050FE044608F04DFE001BA84202D28F
:10557000FEF77AFFF7E738BD30B5002187B0054662
:1055800007200CF07AF91A480AF005FF194B00249D
:10559000C3F88044C3F884440AF05CF80AF0FDF8CC
:1055A00003A8CDE903448DF814400BF03FF841F215
:1055B0008830FFF7D3FF1048234622462146406833
:1055C00009F0FCF80D4809F071FA41F28830FFF754
:1055D000C5FF0B4B1B68009302222B46062103A834
:1055E000FEF790FE4FF47A70FFF7B8FF07B030BDBA
:1055F000A0E1032038DA032060E6032004E503205D
:1056000004DF032038B5046805467CB16368013BBC
:1056100063605BB9236820469B689847A368013B99
:10562000A3601BB923682046DB689847284638BD2D
:105630002DE9F04FEBB0924A9249934DDFF850A21A
:1056400056A8FEF7D1FD57A8FFF7DCFF8F4956A8F3
:1056500009F077FD042156A8FFF70EF956A809F0C6
:1056600025FD8B4956A809F0B7FD8A4956A809F0CF
:105670007BFE00230246884906A807F085FC1AAE87
:1056800056A809F013FD3046FFF742F800220AA998
:105690001EA807F0D3FB814B93F800804FF0000960
:1056A00008F5FA684F461EA8FEF7F2FF04460028E8
:1056B00000F0F680294602A809F043FD0BF016FB26
:1056C000044602A809F08CFE0A22014656A809F0F9
:1056D000C5FD569920460AF026FA56A809F0E6FCC0
:1056E0001EA8FEF7C4FF002800F0B48002A809F04D
:1056F00077FE404500F0AE8002A809F071FE08F187
:10570000FF33984200F0A6802EA8FFF701F8002290
:105710001EA932A807F092FB0BF0E8FA29460AF01E
:1057200002FA5C4C32A8FEF7B3FF00287CD032A806
:10573000FEF79DFF002864D00DF5847B5846FEF7E8
:10574000E7FF32A9002246A807F078FB0BF0CEFA5B
:1057500029460AF0E8F946A8FEF79AFF51460028C4
:1057600034D056A809F038FD214656A809F0FCFDB2
:10577000294609F0F9FD214609F0F6FD294609F010
:10578000F3FD214609F0F0FD294609F0EDFD016821
:105790004148FEF791FE019056A809F087FC019B55
:1057A0000BB109F1010946A807F0BEFA56A8FEF7A9
:1057B000AFFF002232A95AA807F040FB56A958466D
:1057C000FFF74CF856A8FEF79BFCC4E756A809F073
:1057D00003FD214656A809F0C7FD294609F0C4FD7E
:1057E000214609F0C1FD294609F0BEFD01682A489D
:1057F000FEF78DFE56A809F059FC58460137FEF712
:105800007FFC32A807F090FA56A8FEF781FF00222D
:105810001EA95AA807F012FB56A92EA8FFF71EF8DA
:1058200056A8FEF76DFC7DE7514656A809F0D4FC5A
:10583000184956A809F098FD294609F095FD016818
:105840001548FEF764FE56A809F030FC2EA8013773
:10585000FEF756FC1EA807F067FA56A8FEF758FF99
:1058600000220AA95AA807F0E9FA56A93046FEF71D
:10587000F5FF56A8FEF744FC02A809F017FC12E752
:1058800018310E0035310E0041310E003C310E0052
:105890005CE50320E4360E0038DA0320EDE4032053
:1058A0000AA807F041FA9F4942A809F04AFC0A22D7
:1058B00039462EA809F0BFFC2EA942A809F048FDE0
:1058C000994909F051FD0A220546494656A809F0B2
:1058D000B2FC56A9284609F03BFD9449026802A88B
:1058E000FEF782FC03A8FFF78DFE56A809F0DEFB49
:1058F0002EA809F0DBFB42A809F0D8FB89492EA8A5
:1059000009F01FFC0A22394602A809F094FC02A9FA
:105910002EA809F01DFD8449854F09F025FD0A22B6
:105920004946054642A809F086FC42A9284609F0E6
:105930000FFD014656A809F04FFC042156A8FEF7BA
:105940009BFF56A809F0B2FB42A809F0AFFB02A8E2
:1059500009F0ACFB2EA809F0A9FB764A7349DFF8E1
:10596000DC9156A8FEF740FC57A8FFF74BFE7249A2
:1059700056A809F0E6FB042156A8FEF77DFF56A8BD
:1059800009F094FB23466D4A6D4956A807F0E8FAE2
:1059900056A906A8FEF762FF56A8FEF7B1FB56A867
:1059A000FEF7B6FE22460AA95AA807F047FA56A9FA
:1059B0003046FEF753FF56A8FEF7A2FB1EA8FEF7DF
:1059C00067FE0546002847D039462EA809F0B9FBE6
:1059D0000A22A8F1020156A809F02DFC56A92EA80A
:1059E00009F0E9FC054656A809F060FBE5B1494617
:1059F00056A809F0A6FB394642A809F0A2FB42A925
:105A000056A809F0A5FC01684D48FEF755FD05466E
:105A100042A809F04BFB56A809F048FBD5B90BF09A
:105A200065F948490AF07FF81EA807F07DF956A8E5
:105A3000FEF76EFE00220AA95AA807F0FFF956A940
:105A40003046FEF70BFF56A8FEF75AFB2EA809F0CA
:105A50002DFBB3E70134E7E70AA807F065F9314900
:105A600042A809F06EFB0A2229462EA809F0E3FBA2
:105A70002EA942A809F06CFC2B4909F075FC0A22FA
:105A80000746214656A809F0D6FB56A9384609F024
:105A90005FFC2649026802A8FEF7A6FB03A8FFF7F1
:105AA000B1FD56A809F002FB2EA809F0FFFA42A8A2
:105AB00009F0FCFA1B492EA809F043FB0A222946EB
:105AC00002A809F0B8FB02A92EA809F041FC16496A
:105AD00009F04AFC0A220546214642A809F0ABFB20
:105AE00042A9284609F034FC014656A809F074FB87
:105AF000042156A8FEF7C0FE56A809F0D7FA42A81E
:105B000009F0D4FA02A809F0D1FA2EA809F0CEFAC9
:105B10003046FEF7F5FA06A8FEF7F2FA01206BB060
:105B2000BDE8F08F4F310E0053310E0035310E00BD
:105B300041310E0058310E0073310E00242E0E003C
:105B400038DA03204C2E0E002DE9F04F5F4C2378FD
:105B5000BFF35B8FDB07BDB006460AD42046FEF7D5
:105B6000A0FA30B15A48012108F0FAFF2046FEF7AA
:105B70009DFA4FF6FF725648002109F00CF80121FA
:105B800013200BF07AFE64200AF016FA514803F055
:105B90008FFF50485522002104F0F6FA4D480021AD
:105BA00004F04DFA552804464ED14A4C4A4F4B4D0D
:105BB000FEF75AFC0122FF21204603F0B4FF0DF14D
:105BC00016020A21204604F063F90DF117020B2199
:105BD000204604F05DF99DF81630262B04D19DF87F
:105BE0001730422B00F08480394614A809F0A9FA36
:105BF0009DF817309DF81620294610A809F0F6FBED
:105C000010A914A809F0A4FB014628A809F0E4FA99
:105C1000012128A8FEF730FE28A809F047FA10A8AD
:105C200009F044FA14A809F041FA41F288300AF068
:105C3000C3F92B4B1B680093022240F2DC53062170
:105C400028A8FEF75FFBB3E7264914A809F079FA04
:105C50000A22214610A809F0DCFA10A914A809F0BC
:105C600077FB014628A809F0B7FA012128A8FEF71A
:105C700003FE28A809F01AFA10A809F017FA14A8C8
:105C800009F014FA184A194928A8FEF7ADFA29A80C
:105C9000FFF7B8FC43F698200AF08EF9104B1B680A
:105CA0000093022240F2DC53062128A8FEF72AFBCB
:105CB0004FF47A700AF080F909F072F8FEF7D4FB1D
:105CC000012420463DB0BDE8F08F00BFF4D9032089
:105CD000F8D90320E0E40320C4310E00EB310E00BC
:105CE00004DF032077310E00BA310E0035310E008B
:105CF0000121A548A44D03F011FF0A200AF05CF928
:105D0000A14804F087F80A200AF056F907219E48B6
:105D100004F052F80A200AF04FF907219A4803F0DC
:105D200087FF0A200AF048F90021974803F01BFF7B
:105D30000A200AF041F9944804F02AFA0A200AF0ED
:105D40003BF9914804F028FA41F288300AF034F91E
:105D50008D4804F023FA0A200AF02EF908F052FACE
:105D6000044608F04FFA08224121284604F06BF956
:105D7000B0B9FEF779FB0A200AF01EF908F042FAE2
:105D800047F23052031B9342EDD9804928A809F00D
:105D9000D8F928A80121FEF76FFD28A809F086F997
:105DA0000A200AF009F9784804F053F978490446C2
:105DB00014A809F0C6F90A22214610A809F03BFAF6
:105DC00010A914A809F0C4FA014628A809F004FA99
:105DD000042128A8FEF750FD28A809F067F910A8AB
:105DE00009F064F914A809F061F96A4908A809F0F2
:105DF000A8F965480822412104F025F9002800F09F
:105E0000488314A8FEF784FC6249634D0CA809F08E
:105E100098F90A200AF0D0F8604910A809F091F921
:105E200010A928A809F0D8F95D4928A809F09CFA1A
:105E300001460CA809F0C1F928A809F037F910A803
:105E400009F034F929780A2201F5FA6110A809F05D
:105E5000F2F910A928A809F0BFF9514928A809F0BA
:105E600083FA01460CA809F051FA28A809F01EF996
:105E700010A809F01BF90A22697810A809F0C9F9DD
:105E800010A928A809F0A8F9454928A809F06CFA32
:105E900001460CA809F03AFA28A809F007F910A859
:105EA00009F004F93F4B1B781BB13F490CA809F0DE
:105EB00031FA0AF01BFF3D49044628A809F041F9D0
:105EC0000CA928A809F044FA0168204609F02BFE25
:105ED00028A809F0EBF80C993548FEF7CCFA002811
:105EE00040D02C4910A809F02CF90CA928A809F0D9
:105EF00073F92B4928A809F037FA314609F028FA36
:105F0000014610A809F059F928A809F0CFF840F285
:105F1000016310AA264928A807F036F828A914A872
:105F2000FEF79CFC28A8FEF7EBF80A200AF044F8DC
:105F300018A8FEF7ADFB044600283BD118A806F0D0
:105F4000F3FE114804F024F964200AF035F80E48F5
:105F500004F022F941F288300AF02EF810A809F076
:105F6000A5F807E0124801220CA9FEF7FAFA044648
:105F70000028B6D10CA809F099F814A8FEF7C0F8CB
:105F800008A809F093F89CE6E0E40320F1310E0044
:105F9000FF310E005C330E00EDE4032018D6032021
:105FA000E4360E00F3E4032003320E0008320E0044
:105FB00038DA03200AF09AFEC249C34E09F0B3FD55
:105FC000C24928A80AF0F0FEC1480AF063F910EEB1
:105FD000100A0BF0C7FF02460B46BE48BE4908F048
:105FE00095FC28A80AF086F810EE100A0BF0BAFF0C
:105FF00002460B46B948BA4908F088FC2A78AB78C3
:1060000000936B78B749B84802F5FA6208F07EFC55
:106010006B790093EA782B79B449B54808F076FC9F
:106020000AF064FEB34909F07EFD00233360FEF7F9
:106030001BFA0AF05BFEB04909F075FDAF49562224
:1060400014A8B046FEF753FBAD4E40F60705B14627
:10605000317814A8FEF750FB013DF9D1DFF874B296
:10606000A849A94EDFF8C4A2A84F172214A8FEF72A
:106070003EFB0AF03BFEA64909F055FD9BF80030B7
:10608000B3729BF8013033739BF80230B3739BF803
:10609000033033741223CAF80030F5727573F57348
:1060A00075740AF023FE9B4909F03DFD9A4B9BF85D
:1060B00000205A757A759BF801209A75BA759BF87D
:1060C0000220DA75FA759BF803201A76DFF80CB215
:1060D0003A761922CAF800200AF008FE8F4909F022
:1060E00022FD9BF80020B2779BF8012086F8202043
:1060F0009BF8022086F822202422CAF80020F57797
:1061000086F8215086F823500AF0F0FD844909F002
:106110000AFD814B9BF8002083F83F2087F83F2041
:106120009BF8012083F8402087F840209BF802204C
:1061300083F84120422387F84120CAF800300AF052
:10614000D5FD784909F0EFFC3023CAF80030664BE2
:10615000324618462946B346AC46082902F10202E7
:1061600008D010F8015B82F82E5082F82FC0013160
:106170002546F2E715B14022CAF8002003930AF041
:10618000B5FD694909F0CFFC6348039B682213F809
:10619000011BB95411540132702AF8D1634DDFF854
:1061A00050A12A600AF0A2FD614909F0BCFC4E230F
:1061B0002B60554A0023504619461F46062902F116
:1061C000020208D010F8013B82F84C3082F84D7082
:1061D00001312346F2E70BB15A232B600AF086FD0A
:1061E000544909F0A0FC49494B4897230F461AF837
:1061F000012B5A541A5401339D2BF8D12B600AF00D
:1062000075FD4D4909F08FFC64232B604B4B1A68D8
:106210000020013A2B686E2B09DC12F8011F0BF8E5
:1062200003100BEB0301023348702B60F2E70AF016
:106230005DFD434909F077FCC2232B603F4BDFF83B
:10624000CCC01A683449013A2B68C72B08DC12F815
:10625000010F0CF803001078C85401332B60F3E7EA
:106260000AF044FD374909F05EFC80232B60364973
:1062700000231A461846052A06F1020608D011F82E
:10628000013B86F87E3086F87F0001322346F2E734
:106290000BB18A232B600AF029FD2C4909F043FC3D
:1062A000F0232B602A4B1C491A68013A2B68F52B06
:1062B00050DC12F8010FF8541078C85401332B60E9
:1062C000F4E700BF0D320E006CE5032060E603200A
:1062D000A0E10320FCDE032023320E0034DA032089
:1062E00029320E002D320E0014DA03203A320E004D
:1062F0001DDA032047320E0059320E00A0380E007E
:10630000ECE40320F6380E00D4D6032060D7032037
:1063100067320E0075320E0056D8032083320E000D
:1063200091320E009F320E00AD320E00B8E1032014
:10633000BB320E00C9320E00D7320E0004DA032041
:10634000E6320E00F5320E00E8DE032004330E00C4
:106350005CE5032000232B600AF0C8FC4E4909F0DD
:10636000E2FB40F6080499F8001014A8FEF7C4F9FF
:10637000013CF8D149494A4D8A2214A8FEF7B7F9E1
:10638000484940F27D2214A8FEF7B1F94649F522AA
:1063900014A8FEF7ACF945494FF4907214A8FEF723
:1063A000A6F94349F52214A8FEF7A1F94149622252
:1063B00014A8FEF79CF94FF40064297814A8FEF79E
:1063C0009BF9013CF9D114223B4914A8FEF78FF93F
:1063D0000AF08CFC394909F0A6FB394803F068FB48
:1063E0000A2009F0E9FD374A374906A8FDF7FCFE07
:1063F00007A8FFF707F9324803F098FD0A2009F0D3
:10640000DBFDC8F800402E4C1425204603F014FE96
:10641000013D0646F9D12D4CDFF8A4A0DFF8B0907D
:10642000D92E01D1FF2D1ED0504603F005FED8F81D
:1064300000305A1CFF2A09F803000746C8F800205C
:1064400008DD494614A8FEF752F90023C8F80030C9
:10645000FEF70AF8013C354603D118A806F064FCA3
:106460007CE53E46DCE7D8F800201AB1184914A8AC
:10647000FEF73DF9124803F08FFE114803F0E2FAEF
:1064800018A806F051FC002113200BF0F6F90124A6
:1064900064E508A808F00AFE13330E00D4D60320E2
:1064A0007CD903200D390E0060D703208A3B0E00F3
:1064B00056D80320AA3C0E000C3D0E002C330E00D3
:1064C000E0E4032041330E0035310E00C1270900FE
:1064D0000ADF032038B5064DC56104463430FFF7A6
:1064E00091F8204640F8185BFFF78CF8204638BD3D
:1064F000044C0E0038B504680D467CB1E168A94231
:106500000CD035B129B128460CF00CFB10F0FF0F70
:1065100004D02046FEF708F90446EEE7204638BDD1
:1065200000F11C02C0E9002200F50772C0E9022256
:10653000027E22F07F020276704770B50446B8B141
:106540000B68B3B18B68556896680133E818B042A0
:106550000FD850606DB11A46096828460CF0A8FAA9
:10656000237A256023F07F0343F005032372012083
:1065700070BD237A23F07F0323720020F8E770B107
:10658000037A002903F08003ADBF43F0080343F012
:106590000A0349420372B8BF0372016001207047C9
:1065A00070B5037A164613F07F0202BF23F07F0313
:1065B00043F020030372037A08BFC0E9002213F0FE
:1065C000200304460D460DD0FFF794FF48B931462D
:1065D0002046FEF7B1F820B1037AC56003F07F03CF
:1065E000037270BD1846FCE713B5837B04466BB994
:1065F000406801220DF1070109F0DBFB48B19DF86D
:10660000073023EAE37363730123A373607B02B053
:1066100010BD4FF0FF33F4E770B504460025204667
:10662000FFF7E2FF0D2823D007D8D8B10938C0B250
:1066300001281DD94FF0000016E0202818D02F287F
:10664000F8D1A5732046FFF7CFFF2A2804D02F28C2
:1066500016D04FF0020007E0A57300262046FFF792
:10666000C3FF10B94FF0010070BD2F2802D10EB149
:10667000A573D4E7A0F12A035E425E41A573EDE75E
:10668000A5732046FFF7B0FF0028EBD00A28F7D10A
:10669000C5E708B5037A13F0200302D0FFF72AFFFD
:1066A00008BD1846FCE70000F0B585B0826800928E
:1066B000002601960D46D2E9011353605B1A044689
:1066C00002910393FFF790FFA67307462046FFF75A
:1066D0008BFF8742A67323D018B94FF0010005B095
:1066E000F0BD5C2817D12046FFF77EFF0028F4D0CC
:1066F00075280CD0104B1A79191D5AB1904203F12C
:106700000203F8D1487828B94FF00200E7E74FF0CC
:106710000400E4E7A67301466846FEF729F8D5E7CA
:106720006846FEF733F8286010B94FF00300D6E74B
:106730004FF00000D3E700BF4E330E002F2807D9DB
:10674000392803D95E280CD97A2805D8012070474A
:106750002B28FBD02D28F9D0A0F12E035842584108
:1067600070474028F8D95A28EFE7F0B585B00546BC
:106770000E46FFF739FF272829D0222827D0AA68FC
:10678000009200270197D2E90113284653605B1A53
:1067900002910393FFF728FF0446F0B1FFF7CEFF05
:1067A000E8B121466846AF73FDF7E2FF2846FFF7E0
:1067B0001BFF0446FFF7C2FF0028F2D16846FDF731
:1067C000E5FF0028306014BF0020032003E03146BD
:1067D0002846FFF769FF05B0F0BD0120FBE7022066
:1067E000F9E7000000280FDD11490023C20741BF6F
:1067F000DAB201EB8202D2ED007A20EE270A4010D5
:1068000003F10103F2D170470A494042002368B105
:10681000C20742BFDAB201EB8202D2ED007A4FEA40
:10682000600048BF20EE270A0133F0E7704700BF41
:10683000F4D50320DCD503202DE9F0410B782B2B78
:10684000044610D02D2B0FD1013101260A78A2F178
:106850003003092B4FF0000308D92E2A06D000225E
:10686000236062602FE001310026EFE74C4F0023E8
:106870004FF00A0C084610F8015BA5F13002D2B2C5
:10688000092A09D8BB4208D80CFB03F3D5439D4223
:1068900003D313440146EDE755B100220A25B3F5B1
:1068A000000F02F1010012D3B3FBF5F30246F6E745
:1068B00007EE903AF8EE677A002E2360C4ED017A75
:1068C00014BF0A23082323722046BDE8F081551A1D
:1068D00068180A4611F8017BA7F1300CBCF1090FCA
:1068E00040B2F5D92E2F11D1DFF8C8C00D460A27C6
:1068F0002A46013511783039C9B2092906D86345CD
:10690000F6D8013807FB031340B2F1E7117801F024
:10691000DF01452935D151782D2920D1951C01273A
:1069200000214FF00A0E2A4615F801CBACF1300CCD
:106930005FFA8CF8B8F1090F1DD80EFB01C142189F
:10694000262AF0DD8FB1DFED177A9FED177A002E42
:1069500008BFF0EE477AC4ED017A0C23B3E72B2988
:1069600014BF551C951C0027DAE7DFED107A9FED68
:10697000107A002EECE707B1494212781AB10023D1
:106980006DE70021F9E707EE903A0844B8EE670A90
:10699000FFF728FF0EB1B1EE400A84ED010ADCE7F3
:1069A000999999190000008000000000000080FF04
:1069B0000000807FCBCC0C002DE9F04794B08046DE
:1069C0000D46FFF711FE00240646A2460DF1100900
:1069D0003046E7B2FFF7B2FE60B13F2C09D088F82D
:1069E0000EA0404604F80960FFF7FEFD013406469C
:1069F000EEE7274614AB3B44002403F8404C9DF8D7
:106A00001030742B09D12B7A23F07F0343F0060357
:106A10002B7201232B60381F09E0662B0CD12B7AD7
:106A20002C6023F07F0343F006032B72781F18BFFE
:106A3000012014B0BDE8F0876E2BECD004A901A8AA
:106A4000FFF7FAFE9DF80C30019A0A2B09D00C2BA7
:106A500010D0082B17D12B7A23F07F0343F00803C3
:106A600004E02B7A23F07F0343F00A032B722A60A1
:106A70002046DEE72B7A23F07F0343F00C032B72D2
:106A8000029B2B60F4E74FF00200D2E773B5054696
:106A90000C46FFF7C1FDC6B2002E39D12846FFF7DC
:106AA000A3FD5B2818D008D8222823D0272821D07E
:106AB00021462846FFF780FF1AE07B28F8D1237A89
:106AC00023F07F0343F02003C4E9006623722146CC
:106AD000284600F066F80BE0237A23F07F0343F0AA
:106AE0004003C4E9006623722146284600F012F8EC
:106AF000C0B20DE001A92846FFF7D6FDC0B238B9F3
:106B0000237A23F07F0343F005032372019B236064
:106B100002B070BD70B5037B05460E4613B94FF049
:106B2000050070BDFFF760FD5B2802D04FF002004A
:106B3000F7E70023AB732846FFF76EFD10F0FF0F59
:106B4000EFD12846FFF750FD5D2820D10020A87323
:106B5000E7E72B7B013B2B732846FFF797FF2B7B47
:106B6000C0B201332B730028DBD12846FFF754FD58
:106B7000C4B20CB12046D4E72846FFF735FD5D28A6
:106B8000E4D02846FFF730FD2C28CFD1AC7329681C
:106B90003046FDF7D1FD01460028DAD14FF0030061
:106BA000BFE7F7B5037B06460D461BB94FF005005E
:106BB00003B0F0BDFFF718FD7B2802D04FF00200B4
:106BC000F6E70023B3733046FFF726FDC4B2002C6E
:106BD000EED13046FFF708FD7D2839D1B4730BE0C4
:106BE000037A63F07F030372019BC360074630465C
:106BF000FFF712FDC4B20CB12046D9E73046FFF7CB
:106C0000F3FC3A28DAD1337BB473013B3373394652
:106C10003046FFF73BFF337BC0B2013333730028AC
:106C2000C6D13046FFF7F8FCC4B2002CE4D13046A0
:106C3000FFF7DAFC7D28D1D03046FFF7D5FC2C28B1
:106C4000BCD1B4733046FFF7E7FCC0B20028AFD127
:106C500001A93046FFF789FDC0B20028A8D10199EB
:106C60002846FFF747FC07460028C0D13168284670
:106C7000FDF762FD0028B3D14FF0030098E7000054
:106C80002DE9F0410B782B2B044610D02D2B0FD182
:106C9000013101260A78A2F13003092B4FF00003DD
:106CA00008D92E2A06D00022236062602FE001312D
:106CB0000026EFE74C4F00234FF00A0C084610F86F
:106CC000015BA5F13002D2B2092A09D8BB4208D82B
:106CD0000CFB03F3D5439D4203D313440146EDE778
:106CE00055B100220A25B3F5000F02F1010012D3BD
:106CF000B3FBF5F30246F6E707EE903AF8EE677A53
:106D0000002E2360C4ED017A14BF0A2308232372E6
:106D10002046BDE8F081551A68180A4611F8017B33
:106D2000A7F1300CBCF1090F40B2F5D92E2F11D1CB
:106D3000DFF8C8C00D460A272A46013511783039D8
:106D4000C9B2092906D86345F6D8013807FB0313F1
:106D500040B2F1E7117801F0DF01452935D15178D2
:106D60002D2920D1951C012700214FF00A0E2A461B
:106D700015F801CBACF1300C5FFA8CF8B8F1090FC3
:106D80001DD80EFB01C14218262AF0DD8FB1DFEDC0
:106D9000177A9FED177A002E08BFF0EE477AC4ED00
:106DA000017A0C23B3E72B2914BF551C951C00272F
:106DB000DAE7DFED107A9FED107A002EECE707B1ED
:106DC000494212781AB100236DE70021F9E707EE76
:106DD000903A0844B8EE670AFFF704FD0EB1B1EE31
:106DE000400A84ED010ADCE79999991900000080B6
:106DF00000000000000080FF0000807FCBCC0C0072
:106E000030B50D46D0E9004187B0103420460191DD
:106E1000FFF73FFC38B1037A019903F07F03082B99
:106E200003D00A2B17D0286825E00368DB43DB0F6B
:106E3000002BF8D02046FFF72CFCE0B1037A03F0DA
:106E40007F03043B082B25D8DFE803F017170C2439
:106E50000C2410243B000368B3F1004F8CBF0023C7
:106E60000123E5E7006820EAE07004E00068B0F183
:106E7000004F0FD8404207B030BD016803A8FFF7AC
:106E8000FFFE9DF8143003980A2BF0D00C2B03D092
:106E9000082BE8D00020EEE7DDED047A9FED0A7ABA
:106EA000F4EEC77AF1EE10FAF4DB9FED087AF4EE17
:106EB000C77AF1EE10FAEDD8FDEEE77A17EE900AF8
:106EC000D9E7D0ED007AE9E7000000CF0000004FDD
:106ED00037B50446084601910BF068FE024620686B
:106EE00001990368DD68A84763681844606003B0CF
:106EF00030BD10B50446006803689B689847636816
:106F00001844606010BD000070B505460C4619B904
:106F10001049FFF7DDFF70BD2221FFF7EAFF013CBA
:106F200014F8011F39B10C4B1E7876B15A788A4299
:106F300006D00233F8E722212846FFF7DAFFEAE716
:106F40005C212846FFF7D5FF31462846FFF7D1FFE1
:106F5000E6E700BF5D330E004E330E000000000078
:106F6000F8B5DFED577AB4EEE70A0623F1EE10FA32
:106F70002DED028B0446B0EE408A837244DB514A09
:106F80005149142300252027D2ED057AF4EEC87A62
:106F9000F1EE10FA06D85818D0ED007A3D4428EEEC
:106FA000278A2DB2043B181D4FEA6707A2F104029D
:106FB000EAD14FF0FF36B5EEC08AF1EE10FA27DDC8
:106FC00018EE100A0AF0CEFF3BA3D3E900230BF022
:106FD0009DFAE8B13D493B4833461A0618D401EB07
:106FE0008306D6ED007AF4EEC87AF1EE10FA4FEA95
:106FF000830206DD0244D2ED007AED1B28EE278ADB
:107000002DB27F10013BE8E7202705260025D2E7B7
:10701000FCEEC87A2E49258117EE902A17EE903A99
:10702000C4ED007A0A26092B07D9B1FBF6F1B3FBB0
:10703000F6F3A07A0138A072F5E707EE902AB8EED1
:10704000670A07EE901A38EE408AB8EEE70A28EE93
:10705000008AFCEEC87AB8EE677A17EE900A38EE2E
:10706000478A38EE088ABCEEC88A18EE103A034404
:107070008B420FD263600A216368B3FBF1F201FB1C
:107080001233A3B994F90A30002B10DD013B626082
:10709000A372F1E70023013263602260002DEAD081
:1070A000092A81BF0135012325812360E3E7BDEC77
:1070B000028B2046F8BD00BFF168E388B5F8E43ED6
:1070C0008096184BF4D50320DCD50320C4D50320CB
:1070D00040420F0010B5044600680368521ADB688E
:1070E000984763681844606010BD70B586B00DF1B4
:1070F00016031A460A26B1FBF6F506FB15143034C2
:1071000003F8014D0C46092C2946F4D81946FFF71F
:10711000E1FF06B070BD000070B52DED028BB4EE3E
:10712000400AF1EE10FA8AB00446B0EE408A07D069
:107130003F492046FFF7CCFE0AB0BDEC028B70BD84
:10714000B5EE400AF1EE10FA06D070EE007AB4EE19
:10715000670AF1EE10FAEBD0B5EEC08AF1EE10FA44
:1071600005D52D212046FFF7C4FEB1EE488AB0EECA
:10717000480A01A8FFF7F4FE01992046FFF7B5FF82
:107180009DF90E10E1B1029B0DF11F050A460A267A
:10719000013A52B2501C08D0B3FBF6F006FB103394
:1071A000303305F801390346F2E7C9B208AA531A89
:1071B0002E20C94303F8010C11442046FFF78AFF33
:1071C000BDF90C30002B17DA1A492046FFF780FE74
:1071D000BDF90C300DF126015B420A460A2593FBEE
:1071E000F5F005FB1033303301F8013D034600286C
:1071F000F5D12046FFF76EFFBDF90C30002B9BDD6B
:1072000065212046FFF775FE0DF12601BDF90C3012
:107210000A460A2593FBF5F005FB1033303301F8DD
:10722000013D03B20028F5D12046FFF753FF83E765
:107230005D330E0062330E0038B5027A02F07F0330
:107240000C2B05460C460DD812F07E0F0ED0023BDB
:107250000A2B0BD8DFE803F04E4E4949640A620A54
:10726000580A0C00202B22D0402B07D031495AE07D
:1072700090ED000A0846FFF74FFF38BD5B2120461E
:10728000FFF737FE2D686DB128462146FFF7D4FF82
:107290002846FDF749FA054620B12C212046FFF784
:1072A00028FEF0E75D212046FFF723FEE5E77B217E
:1072B0002046FFF71EFE2D68ADB1E9682046FFF7B6
:1072C00023FE3A212046FFF714FE28462146FFF709
:1072D000B3FF2846FDF728FA054620B12C212046A9
:1072E000FFF707FEE8E77D21DDE701682046FFF7AD
:1072F0000BFEC2E708680368D5E90012DB6898470F
:10730000636818446060B8E705682D212046FFF7E0
:10731000F0FD29462046FFF7E8FEAEE70168F9E7F1
:10732000036823B104492046FFF7D2FDA5E70349CE
:10733000F9E700BF5D330E0065330E006A330E00BF
:1073400010B5ADF5227D0146019007AC4648FDF72A
:10735000B3F82046019A444944F2022305F000FEA6
:107360000BA8FDF795F990B909F0C0FC3F4908F06A
:10737000DAFB1BA83D4A3E49FCF736FF1CA8FEF786
:1073800041F92046FCF7BCFE0DF5227D10BD1BA87F
:10739000FFF7C6F837491BAA1FA8FFF701F93649BE
:1073A0001BAAFFF7CAF835491BAA1FA8FFF7F8F870
:1073B00033491BAAFFF7C1F832491BAA1FA8FFF7E0
:1073C000EFF831491BAAFFF7B8F81BAA2F491FA8ED
:1073D000FFF7E6F82E4B1968FFF7D1F81BAA2D49E5
:1073E0001FA8FFF7DDF82C4B1968FFF7C8F82B49E9
:1073F0001BAA1FA8FFF7D4F829491BAAFFF79DF87D
:1074000028491BAA1FA8FFF7CBF827491BAAFFF79B
:1074100094F826491BAA1FA8FFF7C2F824491BAA03
:10742000FFF78BF823491BAA1FA8FFF7B9F82249D9
:107430001BAAFFF782F8002303A91FA80493039453
:10744000FFF7FAFE049B53B91C4903A807F079FE25
:1074500003A80221FDF710FA03A807F027FE0BA8E6
:1074600005F062FC8DE700BF38DA032070330E00B0
:107470008D330E0093330E0004DA032097330E0091
:107480005CE50320A3330E0024DA0320AC330E00A6
:107490000CE00320B9330E000CD60320C5330E00D8
:1074A000A8E10320D2330E0070E50320DF330E0085
:1074B000F4E40320EC330E0090E10320F4330E00DB
:1074C00013B50446084601910BF070FB0199024682
:1074D0002046FCF775FE63681844606002B010BD7A
:1074E00010B50446006807F026FF63680133636047
:1074F00010BD000070B505460C4619B91049FFF7DC
:10750000DFFF70BD2221FFF7EBFF013C14F8011FE4
:1075100039B10C4B1E7876B15A788A4206D00233C4
:10752000F8E722212846FFF7DBFFEAE75C2128463F
:10753000FFF7D6FF31462846FFF7D2FFE6E700BF48
:107540005D330E004E330E0010B5521A0446FCF7A0
:1075500037FE63681844606010BD70B586B00DF1E9
:1075600016031A460A26B1FBF6F506FB151430344D
:1075700003F8014D0C46092C2946F4D81946FFF7AB
:10758000E3FF06B070BD000070B52DED028BB4EEC8
:10759000400AF1EE10FA8AB00446B0EE408A07D0F5
:1075A0003F492046FFF78CFF0AB0BDEC028B70BD4F
:1075B000B5EE400AF1EE10FA06D070EE007AB4EEA5
:1075C000670AF1EE10FAEBD0B5EEC08AF1EE10FAD0
:1075D00005D52D212046FFF783FFB1EE488AB0EE96
:1075E000480A01A8FFF7BCFC01992046FFF7B5FF48
:1075F0009DF90E10E1B1029B0DF11F050A460A2606
:10760000013A52B2501C08D0B3FBF6F006FB10331F
:10761000303305F801390346F2E7C9B208AA531A14
:107620002E20C94303F8010C11442046FFF78CFFBC
:10763000BDF90C30002B17DA1A492046FFF740FF3E
:10764000BDF90C300DF126015B420A460A2593FB79
:10765000F5F005FB1033303301F8013D03460028F7
:10766000F5D12046FFF770FFBDF90C30002B9BDDF4
:1076700065212046FFF734FF0DF12601BDF90C30DE
:107680000A460A2593FBF5F005FB1033303301F869
:10769000013D03B20028F5D12046FFF755FF83E7EF
:1076A0005D330E0062330E0038B5027A02F07F03BC
:1076B0000C2B05460C460DD812F07E0F0ED0023B67
:1076C0000A2B0BD8DFE803F04E4E4949630A610AE2
:1076D000570A0C00202B22D0402B07D0304959E00C
:1076E00090ED000A0846FFF74FFF38BD5B212046AA
:1076F000FFF7F6FE2D686DB128462146FFF7D4FF4F
:107700002846FDF711F8054620B12C212046FFF749
:10771000E7FEF0E75D212046FFF7E2FEE5E77B218B
:107720002046FFF7DDFE2D68ADB1E9682046FFF782
:10773000E1FE3A212046FFF7D3FE28462146FFF717
:10774000B3FF2846FCF7F0FF054620B12C21204668
:10775000FFF7C6FEE8E77D21DDE701682046FFF779
:10776000C9FEC2E7D0E900122046FCF729FD636894
:1077700018446060B9E705682D212046FFF7B0FE88
:1077800029462046FFF7E9FEAFE70168F9E70368FD
:1077900023B104492046FFF793FEA6E70249F9E723
:1077A0005D330E0065330E006A330E0070B5D1E90B
:1077B000004188B010340546204616460191FEF778
:1077C00068FF98B3037A019903F07F03043B012B10
:1077D0002CD82046FEF75DFF044668B1037A03F01B
:1077E0007F03043B012B07D8016829B1284607F025
:1077F000A8FC284608B070BD04AE0F49304607F01B
:10780000A0FC0023029603935CB102A92046FFF777
:107810004BFF3146284607F0C5FC304607F046FCD2
:10782000E7E7064902A8FFF74BFEF2E73146284694
:1078300007F0D2FCDDE700BF5C330E005D330E00C5
:107840002DE9F047ADF5227D07AE0D46024683498E
:107850000023304605F084FB0BA8FCF719FF1BAC96
:1078600005F1080A05F11C0905F1380805F16A0758
:10787000002862D02046FEF753FE23686360E36869
:10788000A360237E059423F07F0323760A238DF8DB
:1078900018301FA9002303A8CDE903468DF81A303C
:1078A000FFF7F4F810F0FF0F0CD19DF81930002B02
:1078B00051D0237E13F0600F4DD103F07F03043BC2
:1078C000012B48D909F012FA654908F02CF903A8F0
:1078D000634A6449FCF788FC04A8FDF793FE0BA8F3
:1078E00005F022FA2946604807F081FC51465F48BE
:1078F00007F07DFC49465E4807F079FC5D4B2A6B3A
:107900001A605D4B6A6B5D481A60414607F06FFC78
:1079100039465B4807F06BFC05F17E01594807F0DA
:1079200066FC05F19201584807F061FC3046FCF70F
:10793000E7FB0DF5227DBDE8F08709F0D7F9534943
:1079400008F0F1F82046514A4649FCF74DFC1CA8C6
:10795000FDF758FEC6E74E4B434A029301A903A820
:107960000194FFF723FF0399082228460BF009F939
:1079700003A807F09BFB474B3C4A029301A903A8CD
:107980000194FFF713FF0399142250460BF0F9F806
:1079900003A807F08BFB404B354A029301A903A8CB
:1079A0000194FFF703FF1422039948460BF0E9F80E
:1079B00003A807F07BFB394B2E49049303A80394DB
:1079C000FFF71EFA364B28632B49049303A8039450
:1079D000FFF716FA334B686301A903A8274A0293FD
:1079E0000194FFF7E3FE0399322240460BF0C9F8F9
:1079F00003A807F05BFB2C4B214A029301A903A8C3
:107A00000194FFF7D3FE0399142238460BF0B9F81E
:107A100003A807F04BFB254B1A4A029301A903A8C0
:107A20000194FFF7C3FE0399142205F17E000BF0C9
:107A3000A8F803A807F03AFB1D4B134A029301A9CB
:107A400003A80194FFF7B2FE0399322205F19200D8
:107A50000BF097F803A807F029FB40E738DA03207A
:107A60000C340E0037340E0004DA03205CE50320EA
:107A700024DA03200CE003200CD60320A8E1032025
:107A800070E50320F4E4032090E103203E340E006F
:107A900093330E0097330E00A3330E00AC330E0069
:107AA000B9330E00C5330E00D2330E00DF330E00A3
:107AB000EC330E0030B599B08949054604A807F0AB
:107AC00040FB042104A8FCF7D7FE04A807F0EEFA57
:107AD000844904A807F080FB834B844A1B68128802
:107AE000834804A906F0CCF8044604A807F0DEFA9F
:107AF0005CB9804904A807F024FB04A80221FCF724
:107B0000BBFE04A807F0D2FA59E07B4904A807F0AD
:107B100063FB774804A906F015F9044604A807F0AA
:107B2000C5FA0CB97549E5E7754904A807F054FB97
:107B30006F4804A906F028F9044604A807F0B6FA2D
:107B40000CB97049D6E7294604A807F045FB6848F8
:107B500004A906F03BF9044604A807F0A7FA002C94
:107B600046D1694904A807F0ECFA032104A8FCF700
:107B700083FE04A807F09AFA294604A807F02CFB14
:107B80005B4804A906F044F9044604A807F08EFAFD
:107B9000C4B95E4904A807F0D4FA294604A807F03E
:107BA000D7FB0146684607F017FB02216846FCF741
:107BB00063FE684607F07AFA04A807F077FA2046D1
:107BC00019B030BD524904A807F0BBFA294604A8F1
:107BD00007F0BEFB0146684607F0FEFA032168463F
:107BE000FCF74AFE684607F061FA04A807F05EFA5F
:107BF000484904A807F0A5FA474904A807F0A8FBDC
:107C0000464907F0B1FB0146684607F0E5FA6946C8
:107C1000374806F06DFA0446684607F047FA04A8AC
:107C200007F044FA0CB93E4964E73E493E48FCF788
:107C300043FC30B909F05AF83C4907F074FF0024BE
:107C4000BDE7384A384944F2022304A805F088F910
:107C500008A8FCF71DFD044688B1254D284609F00B
:107C60004AFAD8B1284609F0CDFB0028F6D02846BC
:107C700009F001FBC1B204A8FCF73EFDF2E72C4974
:107C8000684607F05EFA02216846FCF7F5FD684693
:107C900007F00CFA04A8FCF733FAD0E708A805F0BF
:107CA00043F80A2008F088F9114806F02BF810482C
:107CB00006F014F90A2008F07FF91E49684607F01B
:107CC00040FA04216846FCF7D7FD684607F0EEF954
:107CD00019491448FFF7B4FD04A8FCF711FA6EE740
:107CE0006E340E00A8E1032084D9032080D903203C
:107CF00044E0032071340E0070E503208E340E0042
:107D0000F4E403209B340E009A2F0E00B22F0E00D5
:107D1000C52F0E00A8340E0004DA0320BC340E0078
:107D2000C8340E00DA340E0038DA0320E5340E00D1
:107D300003350E001F350E0010D603202DE9F04F3D
:107D40002DED028BBA4FDFF81083E5B03E463C685C
:107D5000FCF78AFB06A84146FCF7EAFA06A807F0FA
:107D600071F880B1B34950A807F0EBF9042150A88D
:107D7000FCF782FD50A807F099F94FF47A7008F0EB
:107D80001BF907F00DF806A807F063F8002800F0CB
:107D9000698100231A4618463568A74C00930721CD
:107DA00008F013F9002319461A46606806F0DEFC55
:107DB000A24950A807F0C5F9042150A8FCF75CFDC2
:107DC00050A807F073F9A1464846FCF75BFA044651
:107DD00000283AD1013D4FF47A7008F0EDF88C2D6F
:107DE000F2DC012008F010F90121072009F034FD30
:107DF000642008F0E1F8924950A807F0A2F90421A4
:107E000050A8FCF739FD50A807F050F901210720D0
:107E100009F033FD41F2883008F0CEF82146072002
:107E200009F02BFD4FF47A7008F0C6F8854B1B68FB
:107E3000009350A840F2DC5302220621FCF762FABC
:107E40004FF47A7008F0B8F881E73368DFF80C92E5
:107E5000DFF80CA2DFF8E0B11E255D43002D40F3F2
:107E6000D780062009F022FD0446002840F0BD809E
:107E7000062009F01BFD20B96420643408F09CF84A
:107E8000F6E7494650A807F05CF90A2229463CA8C3
:107E900007F0D1F93CA950A807F05AFA51460268F8
:107EA00032A8FCF7A1F933A8FDF7ACFB3CA807F01A
:107EB000FDF850A807F0FAF8594650A808F074FFEA
:107EC000614932A807F03DF950A808F013F90621DE
:107ED00028A807F0EAF928A932A807F039FA5B497F
:107EE00007F042FA01463CA807F076F904213CA8C5
:107EF000FCF7C2FC3CA807F0D9F828A807F0D6F890
:107F000032A807F0D3F8012008F07EF801210720FD
:107F100009F0A2FC642008F04FF80025B2EE048AB4
:107F200050A808F0E7F8C0EE087A07EE105AB8EE4D
:107F3000477AF1EE677AB4EEE77AF1EE10FA11D8EB
:107F40000021072009F099FC4FF4FA7008F034F88A
:107F50000121072009F091FC4FF4FA7008F02CF889
:107F60000135DDE735680023184600931A460721DE
:107F700008F02BF8FCF778FA642008F01DF8FCF7FD
:107F800017FAB4F5FA6F05F1FF357FF767AF42F2E4
:107F90000F739C423CDD012008F036F801210720D8
:107FA00009F05AFC06F052FC356806F057FC04460E
:107FB00008BB0146072009F060FCFA2007F0FCFF2F
:107FC0000121072009F059FCFA2007F0F5FF8C2D5C
:107FD0000DDC012008F018F80121072009F03CFC15
:107FE000642007F0E9FF1A4906E70024BBE7013DDA
:107FF000FCF7DEF9D9E74FF0FF31164808F012FB25
:108000000722002300931146104607F0DEFF9EE68C
:10801000012007F0F9FF0121072009F01DFC0021D4
:10802000072009F02AFC0A2007F0C6FF642009E7B0
:1080300084D9032025350E0060E6032028350E0084
:1080400035350E0004DF032065350E0074350E0053
:1080500077350E00BCE70320CCE5032047350E0042
:1080600035310E00C349C44D50A807F06AF8042109
:1080700050A8FCF701FC50A807F018F806F0C2F869
:108080002846FCF7FFF8B0B94FF47A70013C07F0CE
:1080900093FFFCF7E9F9002CF2DCB84BB849012258
:1080A00050A81A7007F04DF850A80321FCF7E4FB24
:1080B00050A806F0FBFF3568DFF8C09206F0A2F882
:1080C000824606F0CBFB00BB99F80040ECB94FF4B8
:1080D0007A70013D07F070FFFCF7C6F9AA2DF0DCBD
:1080E000A84B8DF84841012250A81A70CDE95044A0
:1080F00008F09CFAA44950A807F023F850A80321DF
:10810000FCF7BAFB50A806F0D1FF356806F07AF804
:108110009E4904463CA807F014F8A4EB0A040A227E
:108120004FF47A7132A8B4FBF1F107F0AAF832A942
:108130003CA807F00DF9014650A807F04DF80421BE
:1081400050A8FCF799FB50A806F0B0FF32A806F043
:10815000ADFF3CA806F0AAFF8D4808F0B7F806214D
:108160000CA807F0A2F88A4808F094F8062110A895
:1081700007F09BF8804920A808F016FE854928A83A
:1081800006F0DFFF0CA928A807F0E2F8824907F003
:10819000EBF810A907F0DCF8804907F0E5F8044691
:1081A00020A807F0A7FF062132A807F07EF832A921
:1081B000204607F0CDF87A4907F0D6F8044620A803
:1081C00007F0AEFF06213CA807F06FF83CA9204657
:1081D00007F0BEF8734907F0C7F8014650A806F04B
:1081E000FBFF042150A8FCF747FB50A806F05EFFF8
:1081F0003CA806F05BFF32A806F058FF28A806F05E
:1082000055FF20A807F08CFFF3EE097AB4EEE70AD9
:10821000F1EE10FA40F11681012389F80030624D29
:1082200050A805F008FCBDF844315098AB80286098
:1082300008F05CFD29780A22044601F5FA6150A88D
:1082400006F0F9FF5099204607F05AFC50A806F0B6
:108250002DFF08F04BFD2F2107F056FC08F046FDDE
:108260000A220446697850A806F0D3FF50992046A8
:1082700007F046FC50A806F019FF08F037FD2F2143
:1082800007F042FC08F032FD0A220446A97850A803
:1082900006F0BFFF5099204607F032FC50A806F0C8
:1082A00005FF08F023FD202107F02EFC08F01EFD3D
:1082B0000A220446E97850A806F0ABFF5099204600
:1082C00007F01EFC50A806F0F1FE08F00FFD3A2161
:1082D00007F01AFC08F00AFD0A220446297950A882
:1082E00006F097FF5099204607F00AFC50A806F0C8
:1082F000DDFE08F0FBFC3A2107F006FC08F0F6FC76
:108300000A220446697950A806F083FF5099204656
:1083100007F0F6FB50A806F0C9FE08F0E7FC07F0EE
:10832000F6FBAB78012B2C460CD1EB780F2B09D147
:108330001E4950A806F005FF50A8FDF779F950A88E
:1083400006F0B4FE6B7901932B790093EB78AA7851
:10835000174908A806F0DAFA08F0C8FC15490546DE
:1083600050A806F0EEFE08A93CA806F0EAFE3CA9DB
:1083700050A821E092350E0060E60320F3E40320CC
:1083800096350E0010E00320A2350E0088300E0056
:10839000A0E10320AE350E00B4350E00B9350E0055
:1083A000C0350E00982E0E00EDE403205C330E0065
:1083B00001360E0016360E0006F0CAFF0168284688
:1083C00007F0B1FB3CA806F071FE50A806F06EFE67
:1083D00008A950A806F0B5FE50A8FDF7B5FB054664
:1083E00050A806F063FE002D40F0EF80BC493CA889
:1083F00006F0A7FE08A932A806F0A3FE32A93CA801
:1084000006F0A6FF014650A806F0E6FE012150A89E
:10841000FCF732FA50A806F049FE32A806F046FEF4
:108420003CA806F043FE41F2883007F0C5FD4FF44A
:108430009670FDF7A1F810A806F038FE0CA806F01B
:1084400035FE84E499F80030002B7FF4E8AEA54BAC
:108450001C78002C40F09B80A34BA4491B788DF81E
:10846000003022463C2350A808F0D4F951A8FDF76B
:10847000C9F89F4B9F491B788DF8003022463C235A
:1084800050A808F0C7F951A8FDF7BCF80C9A9A4912
:1084900050A8FBF7A9FE51A8FDF7B4F820A807F0F3
:1084A00029FE062150A806F000FF509A93493CA8E7
:1084B000FBF79AFE3DA8FDF7A5F850A806F0F6FDDB
:1084C00006F0CCF910B1204606F0E0F9FBF76BFEA0
:1084D000F0B9A92D55DC8A4950A806F032FE0221D8
:1084E00050A8FCF7C9F950A806F0E0FD854D3468A6
:1084F000DFF858A22946504606F04BFF002846D028
:10850000002C44DD4FF47A7007F056FD013CF1E792
:10851000A92DE0DD07F0D4FC0028DCD007F036FD03
:10852000824607F02BFD834607F01CFD059007F0FF
:10853000F5FC044607F0FEFC054607F007FD059B29
:10854000C0B2EDB2E4B2DBB25FFA8BF21FFA8AF18D
:1085500002900195009450A805F022F950A805F06A
:10856000FEF9FBF720FE684A684950A8FBF73CFE7D
:1085700051A8FDF747F8664950A806F0E2FD04212E
:10858000AEE74FF4FA7007F017FD013D9EE7614931
:108590003CA806F0D6FD60493CA806F0D9FE5F492C
:1085A00006F0E2FE014650A806F016FE50A8FFF7BE
:1085B00081FA50A806F07AFD3CA806F077FD584BEA
:1085C00058491868FEF7BCFE29E6574807F062FED6
:1085D000DFED567A564B20EE270AD3ED007AF8EEFF
:1085E000E77AB4EEE70AF1EE10FA33D551493CA828
:1085F00006F0A7FD4C4807F04DFE062132A806F014
:1086000054FE32A93CA806F0A3FE4B4906F0ACFE8E
:10861000014650A806F0E0FD012150A8FCF72CF916
:1086200050A806F043FD32A806F040FD3CA806F035
:108630003DFD0021132009F020F94FF47A7007F076
:10864000BBFC4FF46160FCF797FF4FF47A7007F0C2
:10865000B3FCF0E699F80060002E40F0D78108F0F6
:1086600045FB3649054650A806F06BFD08A93CA815
:1086700006F067FD3CA950A806F06AFE016828468E
:1086800007F051FA3CA806F011FD50A806F00EFDC7
:108690002B4950A806F0A0FD334650AA314608A841
:1086A000FCF704FB054650A806F000FD002D40F045
:1086B00084802449244D50A806F043FD022150A88F
:1086C000FCF7DAF850A806F0F1FC2846FBF7DAFDD3
:1086D00000283DD14FF47A7007F06EFCF5E700BF3B
:1086E0002B360E0010E0032009DF0320EA2E0E00D7
:1086F00008DF0320D52E0E00C8350E00D1350E0040
:10870000D6350E00FB350E00E8350E0037340E006E
:10871000F5350E00A8340E0004DA0320E4360E000E
:1087200014E0032010D60320A0E103200000C8427B
:108730000CD603204A360E006E360E0071360E003F
:1087400090E1032089360E0060E603205CE50320FB
:108750005B4FDFF89081DFF888910026394650A8FA
:1087600006F03AFD002350AA012108A8FCF79EFA62
:1087700008BBB6FA86F56D0950A806F097FC3DB324
:10878000414650A806F0DDFC022150A8FCF774F821
:1087900050A806F08BFCFBF767FE01360022D9F8E3
:1087A0000400114605F0EAFF0028D7D04FF4FA7014
:1087B00007F002FCF2E70025DEE7424950A806F088
:1087C000C0FC50A80421FCF757F850A806F06EFC36
:1087D00062783D49237800913C49013A01EB8202DD
:1087E00003F5FA633A4928A806F090F839493CA8FD
:1087F00006F0A7FC38493CA806F0AAFD014650A89F
:1088000006F0EAFC012350AA194628A8FCF74EFA04
:10881000054650A806F04AFC3CA806F047FC002D8F
:1088200064D12E492E4D50A806F08BFC022150A891
:10883000FCF722F850A806F039FC41F2883007F026
:10884000BBFB2846FBF71EFD0028FAD0214FDFF8BE
:108850008880DFF89490002539463CA806F071FC2A
:1088600041463CA806F074FD014650A806F0B4FC51
:10887000012350AA194628A8FCF718FAE8B9B5FA56
:1088800085F6760950A806F011FC3CA806F00EFC0F
:10889000002E37D0494650A806F053FC022150A8BC
:1088A000FBF7EAFF50A806F001FC0D4E01353046FB
:1088B000FBF7E8FC0028FAD0CEE70026E2E700BF8D
:1088C00090E10320A5360E00B1360E004CD90320EE
:1088D000AA360E00A8340E0004DA0320B6360E00C5
:1088E00060E6032094360E00C1360E009B4950A866
:1088F00006F027FC042150A8FBF7BEFF50A806F0A5
:10890000D5FB0025627823780092954A9549126834
:1089100003F5FA6328A805F0F9FF08F0E7F9924992
:10892000064650A806F00DFC28A93CA806F009FC54
:108930003CA950A806F00CFD0168304607F0F3F89A
:108940003CA806F0B3FB50A806F0B0FB874828A966
:10895000FBF791FD002800F06A8108F0C7F984490F
:10896000DFF83482DFF8349207F0DDF8002328AA1C
:108970007E4950A804F0F4FA50A97E48FBF76EFF38
:1089800050A8FBF7BDFB3CA8FBF7C2FE7A490022CA
:1089900040A804F053FA002740A8FBF779FE28B15D
:1089A00040A8FBF764FE002800F08D80724804F0B8
:1089B000BBF928A96D48FBF7AAFD70491CA806F071
:1089C000C0FB0A22394618A806F035FC18A91CA8D5
:1089D00006F0BEFC014650A806F0FEFB042150A89C
:1089E000FBF74AFF50A806F061FB18A806F05EFBF3
:1089F0001CA806F05BFB3CA8FBF782FB50A8604A72
:108A00006049FBF7F1FB51A8FCF7FCFD50A805F00D
:108A100012F85098BDF8443120605B48A38005F0FF
:108A2000DAF85A4B1868012800F01881022800F083
:108A30003481002840F01981E57821786278A378A4
:108A4000062D01F5FA6140F205810A2D00F2F5804C
:108A5000CDE901000B20009050A804F0A1FE50A821
:108A600004F02AFF04464A4804F026FF241A494924
:108A70003CA806F066FB0A2221461CA806F0DBFB98
:108A80001CA93CA806F064FC014650A806F0A4FB13
:108A9000042150A8FBF7F0FE50A806F007FB1CA825
:108AA00006F004FB3CA806F001FB2046FCF764FD41
:108AB00010A806F0FBFA0CA806F0F8FA65B0BDECB9
:108AC000028BBDE8F08F8DF820004E98013700280A
:108AD0003AD00D2208A901F0B1FB08F007F9414690
:108AE000064650A806F02DFB08A91CA806F029FB95
:108AF0001CA950A806F02CFC0168DFF8A4A03046A1
:108B000007F011F81CA806F0D1FA50A806F0CEFA2A
:108B100040A804F009F9514650A806F05DFB022375
:108B200050AA002108A8FCF7C1F8A8B9B5FA85F643
:108B3000760950A806F0BAFAA6B301354846FBF705
:108B4000A1FB0028FAD0E6E74F980028C5D00D22F7
:108B500008A903F093FCC0E70026EAE7D2360E002E
:108B60005CE50320D7360E00E6360E0038DA032027
:108B7000F4360E0008E5032018E5032007370E0041
:108B800054370E0035310E0058E503200CE0032069
:108B9000EDE403203D490E0027370E0060E6032078
:108BA00090E10320627823780092494A494912688B
:108BB00003F5FA6332A805F0A9FE28A918A806F063
:108BC000C0FA08A914A806F0BCFA14A918A806F05F
:108BD000BFFB32A9824650A806F0B3FA08A91CA828
:108BE00006F0AFFA1CA950A806F0B2FB51460246A7
:108BF0003948FBF7DAFC1CA806F058FA50A806F032
:108C000055FA14A806F052FA18A806F04FFA50A820
:108C1000FBF77EFD3246314954A804F00FF950A904
:108C20003CA8FBF71BFE50A8FBF76AFAB4E608F075
:108C30005DF82B4906F077FFE0E60E2D03D8CDE96D
:108C400001000F2007E7CDE9010001330720009064
:108C5000DBB201E7CDE901000720FCE6E378062B53
:108C600011D9112B03D9122B0DD00024FFE60022BD
:108C700021780133CDE90122DBB20093A378627839
:108C800001F5FA61E8E6A37821780022CDE9012216
:108C9000013307220092DBB2F1E700252178CDE90C
:108CA0000155E3780093A378627801F5FA6150A842
:108CB00004F076FD2B460122294600951CA804F0FD
:108CC0001BFE3CA81CAA50A904F009FE3CA8C7E65C
:108CD0005CE503203D370E0038DA032018E5032059
:108CE00047370E0010B59A4800238EB01A46194631
:108CF000406805F05BFD974807F071FB954807F069
:108D00004BFA954805F0BDFEFBF7AEFB934A94493C
:108D1000944807F076FC0024934A9449914807F060
:108D200070FC9349934823462246CDE9004405F060
:108D3000A5FD012322468E498F48CDE9004405F068
:108D40009DFD4FF0FF318D4807F06CFC4FF496719C
:108D50008A4807F067FCB9EE040A07F091F8012190
:108D6000132008F079FD0121072008F075FD214648
:108D7000082008F071FD0121072008F06DFD214653
:108D8000062008F069FD08F019FE7D4908F01EF97B
:108D900008F014FE08F01EF9FBF70EFD6D4807F011
:108DA00079FADFED787A784B20EE270AD3ED007A56
:108DB000F8EEE77AB4EEE70AF1EE10FA2ED5734931
:108DC00006A806F0BEF9634807F064FA062102A877
:108DD00006F06BFA02A906A806F0BAFA6C4906F08A
:108DE000C3FA01460AA806F0F7F901210AA8FBF721
:108DF00043FD0AA806F05AF902A806F057F906A89A
:108E000006F054F92146132008F037FD4FF47A702C
:108E100007F0D2F84FF46160FCF7AEFB04F07EFD82
:108E200007F064FF4FF4E13107F054FF594804F0B4
:108E3000D2FE0024584906A806F083F922462146AE
:108E40000AA80A9405F00EFA0A220A9902A806F066
:108E5000F2F902A906A806F07BFA01460AA806F074
:108E6000BBF904210AA8FBF707FD0AA806F01EF9C2
:108E700002A806F01BF906A806F018F9474906A84B
:108E800006F05FF9464902A806F05BF902A906A8B8
:108E900006F05EFA01460AA806F09EF904210AA827
:108EA000FBF7EAFC0AA806F001F902A806F0FEF8B2
:108EB00006A806F0FBF83B4906A806F042F93A4836
:108EC000214600F013FD062102A806F0EEF902A9E2
:108ED00006A806F03DFA01460AA806F07DF904212D
:108EE0000AA8FBF7C9FC0AA806F0E0F802A806F0F9
:108EF000DDF806A806F0DAF8264804F011FDF8B906
:108F00002A490AA806F01DF902210AA8FBF7B4FCB9
:108F10000AA806F0CBF8264A26490AA804F054FC11
:108F20000AA804F01CFD41F2883007F045F805F06E
:108F300037FF214B21491868FEF782FC0EB010BDA7
:108F4000144804F044FE134804F045FEF1E700BF66
:108F500060E60320A0E1032004E503205D370E0056
:108F6000495B0D00D7050E0066370E0031560D0027
:108F7000914A0D00EA2E0E00D52E0E00BCE703200C
:108F8000A08601000000C8420CD603204A360E001D
:108F90006E360E0058E503206E370E007B370E004C
:108FA00081370E008C370E0024E0032098370E0026
:108FB000AC370E00B5370E0014E0032010D60320A6
:108FC0006E4B70B500241C606D4B6E4E1C706E4B6A
:108FD000346001251D706D4BB3602846B480B471B8
:108FE00005F06CFB6A4A6B49304608F037FD2846AD
:108FF000214605F073FB6848684BC0F89434292378
:1090000080F8AB34624A664980F8985480F8A954D5
:10901000C0F88044C0F88444C0F89C44A0F8A04440
:1090200080F8AE4408F01AFD21465E485E4E07F017
:10903000DBF8574A5D495B4808F010FD2A460F21CE
:109040005B485C4D00F053FB514A5B49584808F0BF
:1090500005FD4FF40073594A59495A48FBF7B0F9D6
:109060004B4A5949574808F0F9FC2146574804F043
:109070004FFB5749574806F064F8454A564955484A
:1090800008F0ECFC5549564806F05BF8404A524956
:10909000534808F0E3FC5349534806F052F83C4A61
:1090A0004D49514808F0DAFC5049514806F049F85A
:1090B000374A49494E4808F0D1FC4E494E4806F01F
:1090C00040F8334A44494C4808F0C8FC2819314656
:1090D000103406F036F8B4F5487FF7D12C4A4749EA
:1090E000474C002008F0BAFC4649474806F029F8EA
:1090F000274A3949444808F0B1FC4449444806F03D
:1091000020F8234A3449424808F0A8FC4149424823
:1091100006F017F81E4A30493F4808F09FFC052228
:1091200011463E4800F038FC00213D4805F02DFC7A
:10913000174A3C493A4808F091FC4FF4A6720021C6
:10914000204609F0C3FC204608F000FA04F11C0098
:1091500008F0FCF90A23C4F848310D4A3249204688
:1091600008F07CFC3148FBF7D3FA094A30492F4814
:1091700008F074FCBDE87040FBF719BB04DF032066
:1091800008DF0320F0DE032009DF03200000FFFFDB
:10919000F0D9032005420D0038DA032044380E00D0
:1091A000CF400D00A0E103205C330E0009020E0049
:1091B00024E00320C0E1032051970D00694A0D000F
:1091C000905F010080E50320C3420D00EDE4032021
:1091D000C1370E00A8E10320ADF00D00D6370E0018
:1091E00070E50320F1370E00F4E403200C380E0084
:1091F00090E10320DA340E0014E00320D1400D008A
:1092000044E0032028380E005CE503202F380E00D0
:1092100004DA032035380E0024DA0320E0E40320CA
:1092200004E50320A9E90D00D5640D0008E503203D
:1092300001410D0010B503682F2B044604D9074ADD
:1092400000210A2005F022FA23681F2B83BF03F0B8
:109250001F03034823604FF0A04010BDF5E10D004F
:1092600000030050F7B51B4C058823781A4EBFF356
:109270005B8F13F0010F09D12046FAF712FF28B1D6
:1092800004F068FF30602046FAF710FF33682D01C4
:109290005B5D5F012378BFF35B8FDB0709D40D486B
:1092A000FAF7FFFE28B104F055FF30600948FAF7DD
:1092B000FDFE33682B4401A85B7803F01F033B439A
:1092C0000193FFF7B7FF019A01239340C0F80C35D3
:1092D00003B0F0BD98E503209CE50320F7B51B4CD7
:1092E000058823781A4EBFF35B8F13F0010F09D165
:1092F0002046FAF7D6FE28B104F02CFF3060204655
:10930000FAF7D4FE33682D015B5D5F012378BFF36C
:109310005B8FDB0709D40D48FAF7C3FE28B104F0D0
:1093200019FF30600948FAF7C1FE33682B4401A8E1
:109330005B7803F01F033B430193FFF77BFF019A28
:1093400001239340C0F8083503B0F0BD98E5032031
:109350009CE5032010B5044607F0F2FC2046FFF719
:10936000BDFF2088012104F0FDFEBDE8104007F09C
:10937000E9BC00002DE9F341204D06882B78204FF1
:10938000BFF35B8F13F0010F09D12846FAF789FE6E
:1093900028B104F0DFFE38602846FAF787FE3B6804
:1093A00036019C5D2B78BFF35B8FDB074FEA4418D7
:1093B00009D41248FAF775FE28B104F0CBFE3860E4
:1093C0000E48FAF773FE3B68334401A85C7804F05A
:1093D0001F0444EA08040194FFF72CFFD0F810356D
:1093E000019401A8FFF726FF019BD0F81005D84093
:1093F00000F0010002B0BDE8F08100BF98E5032055
:109400009CE5032038B504460D462846002108F0A7
:1094100023FA2580204638BD70B5054607F090FC3C
:109420002888002104F09EFE07F08CFC7D24013C7E
:1094300014F0FF042DD0022004F0DCFE2846FFF7D4
:1094400099FF0028F3D007F07BFC2846FFF70AFFBE
:109450000121288804F086FE07F074FC4FF4F070B8
:1094600004F0C8FE04F0D6FE00210646288804F069
:1094700079FE462004F0BEFE2846FFF77BFFB0FAD7
:1094800080F4304604F0CEFE4FF4CD70640904F051
:10949000B1FE204670BD70B511F00105044618D02C
:1094A00004F0B8FE05462046FFF7DCFE01212088C7
:1094B00004F058FE012004F09DFE2088002104F0F5
:1094C00051FE284604F0AEFE3B20BDE8704004F09B
:1094D00091BE04F09FFE06462046FFF7C3FE012121
:1094E000208804F03FFE412004F084FE20882946B5
:1094F00004F038FE304604F095FE0520E5E738B567
:10950000044604F087FE05462046FFF7ABFE2088A0
:10951000012104F027FE012004F06CFE00212088C8
:1095200004F020FE0D2004F065FE2046FFF722FF28
:109530000446284604F076FE2E2004F05BFE20460A
:1095400038BDF7B50F46154608260124274214BF3B
:109550000121002101906400FFF79DFF013E019869
:10956000E4B2F3D125B103B0BDE8F040FFF7F2BE9D
:1095700003B0F0BDF8B5074608260025012438469B
:10958000FFF7BDFF00B125436400013EE4B2F6D110
:109590002846F8BD70B500220C4655210646FFF757
:1095A000D0FF651E073415F8011F00223046FFF773
:1095B000C8FFA542F7D170BD0022CC21FFF7C1BF83
:1095C000002343808380C3800381438103737047FA
:1095D0002DE9F04790F80C9004468846B9F1000F49
:1095E0000DD0002060812073A31C08F1FF380A34DD
:1095F00013F8012B08F8012FA342F9D104E0FFF77B
:109600000BFF18B960812073BDE8F0874A46F0214E
:109610002046FFF796FF0126CA4635462046FFF74B
:109620006EFF07462046FFF76AFF012F0FD1012882
:1096300027D1402DD5D984F80A90B9F1000F01D176
:1096400001232373A378002BCBD00120CCE78742E2
:1096500004EB0A030CD1A27AAA420ED99A781642D8
:1096600014BF0127002767B9082D00D8E572A94665
:109670009A7822EA06029A7009E00CBF01270027B7
:10968000F1E704EB0A0201279378334393703946DC
:1096900020467600FFF7FFFE16F0FF0604BF0AF132
:1096A000010A5FFA8AFA05F1010508BF0126BAF13D
:1096B000070FEDB2B2D9BCE730B502460144002035
:1096C0008A4213D012F8015B082480EA050313F0E4
:1096D000010F4FEA50001CBF80F08C03D8B2631E0C
:1096E00013F0FF044FEA5505EFD1E9E730BD37B578
:1096F000002343608360C36003614361038340F2DE
:10970000EE238276C36104460E200191FAF7C3FC72
:10971000054610B10199FFF775FE2046256003B09C
:1097200030BD38B500F110050C4600682946FFF73A
:109730004FFF031E1DBF2B6823606B68236014BF9F
:1097400001200020636038BD00F11001FFF7E9BF80
:1097500010B50446006810B10E2108F084F92046C7
:1097600010BD0068FFF72CBF2DE9F041837E044651
:109770000D4616462BB90B781BB99FED570ABDE86D
:10978000F0812068FFF748FEA37E002B5CD0002EFE
:109790005AD12068FFF710FF002244212068FFF70C
:1097A000D0FEE06906F008FC2068FFF735FEA37ED6
:1097B000002B4ED0002E4CD12068FFF7FDFE206814
:1097C0000022BE21FFF7BDFE2B78262B04D10022FC
:1097D00020681146FFF7B5FE261D04F10D08374637
:1097E0002068FFF7C7FE06F8010B4645F8D10821AF
:1097F0003846FFF761FF237B207698426376BCD121
:109800002B78262B47D029D8102B29D0222BB4D146
:10981000227A237902F06002202A36D0402A37D0FB
:1098200012B923F0070323716379207940EA0320FA
:1098300000B208F085FB294B002208F0EBFB08F092
:10984000E1FE00EE100A9AE720682946FFF7A2FE23
:10985000A2E720682946FFF79DFEB0E7282BD6E750
:10986000E37AA288102B08BFA37A4FEAC20203BF93
:10987000C3F10C0322F00F029B1813B208BF1BB2F6
:1098800000EE103ABAEECE0A79E723F00303CAE7F6
:1098900023F00103C7E7A579284608F051FB0646E7
:1098A0006079C01007EE900AF8EEE77A0F4617EEDF
:1098B000900A08F057FB0A4B002208F0ABFB2B067E
:1098C00054BF084B084B002208F0A4FB32463B462D
:1098D00008F0EAF9B3E700BF0000C07F0000B03F26
:1098E0000000A03F0000F03F0000F0BF13B5837EF2
:1098F00004460A463BB904F11001204602B0BDE817
:109900001040FFF731BF037C002BF4D10191FFF72A
:1099100028FF2046FFF718FF019A0028EBD19FEDA2
:10992000020A02B010BD00BF0000C07F10B503687E
:109930002F2B044604D9074A00210A2004F0A6FE72
:1099400023681F2B83BF03F01F03034823604FF0DE
:10995000A04010BDF5E10D000003005007B50190D7
:1099600001A8FFF7E3FF019A01239340C0F80835EF
:1099700003B05DF804FB07B5019001A8FFF7D6FF1F
:10998000019A01239340C0F80C3503B05DF804FB45
:109990000368C9B29B6818472DE9F041274E284F4C
:1099A00004460D4690B2012107F056FF3378BFF30D
:1099B0005B8F13F0010F09D13046FAF772FB28B123
:1099C00004F0C8FB38603046FAF770FB3B6893F848
:1099D00050803378BFF35B8FDB074FEA481809D418
:1099E0001648FAF75EFB28B104F0B4FB3860134860
:1099F000FAF75CFB3B6893F8510000F01F0040EA67
:109A00000800FFF7ABFF6572013D0F2D09D8DFE8B5
:109A100005F00D08111113130F08080D110F13088D
:109A200011114223A3722046BDE8F081BA23F9E761
:109A30009023F7E77823F5E76023F3E798E5032021
:109A40009CE5032070B5184C184D2378BFF35B8F4D
:109A500013F0010F09D12046FAF723FB28B104F0D7
:109A600079FB28602046FAF721FB2B6893F85060B9
:109A70002378BFF35B8FDB074FEA461609D40A4809
:109A8000FAF70FFB28B104F065FB28600648FAF7E7
:109A90000DFB2B6893F8510000F01F003043BDE828
:109AA0007040FFF75BBF00BF98E503209CE50320F3
:109AB00070B5184C184D2378BFF35B8F13F0010F6E
:109AC00009D12046FAF7EDFA28B104F043FB2860EB
:109AD0002046FAF7EBFA2B6893F850602378BFF32F
